{
  "contractName": "ArtisteTokenFactory",
  "abi": [
    {
      "inputs": [
        {
          "internalType": "address",
          "name": "_PICARDY_HUB",
          "type": "address"
        }
      ],
      "stateMutability": "nonpayable",
      "type": "constructor"
    },
    {
      "anonymous": false,
      "inputs": [
        {
          "indexed": true,
          "internalType": "address",
          "name": "previousOwner",
          "type": "address"
        },
        {
          "indexed": true,
          "internalType": "address",
          "name": "newOwner",
          "type": "address"
        }
      ],
      "name": "OwnershipTransferred",
      "type": "event"
    },
    {
      "inputs": [],
      "name": "owner",
      "outputs": [
        {
          "internalType": "address",
          "name": "",
          "type": "address"
        }
      ],
      "stateMutability": "view",
      "type": "function"
    },
    {
      "inputs": [],
      "name": "renounceOwnership",
      "outputs": [],
      "stateMutability": "nonpayable",
      "type": "function"
    },
    {
      "inputs": [
        {
          "internalType": "address",
          "name": "newOwner",
          "type": "address"
        }
      ],
      "name": "transferOwnership",
      "outputs": [],
      "stateMutability": "nonpayable",
      "type": "function"
    },
    {
      "inputs": [
        {
          "internalType": "uint256",
          "name": "_totalAmount",
          "type": "uint256"
        },
        {
          "internalType": "string",
          "name": "_name",
          "type": "string"
        },
        {
          "internalType": "string",
          "name": "_symbol",
          "type": "string"
        },
        {
          "internalType": "string",
          "name": "_description",
          "type": "string"
        },
        {
          "internalType": "uint256",
          "name": "_profileId",
          "type": "uint256"
        }
      ],
      "name": "createArtisteToken",
      "outputs": [],
      "stateMutability": "nonpayable",
      "type": "function"
    }
  ],
  "bytecode": "0x60a060405234801561001057600080fd5b5060405161198038038061198083398101604081905261002f91610176565b61003833610056565b6001600160a01b0381166080819052610050906100a6565b506101a6565b600080546001600160a01b038381166001600160a01b0319831681178455604051919092169283917f8be0079c531659141344cd1fd0a4f28419497f9722a3daafe3b4186f6b6457e09190a35050565b6000546001600160a01b031633146101055760405162461bcd60e51b815260206004820181905260248201527f4f776e61626c653a2063616c6c6572206973206e6f7420746865206f776e657260448201526064015b60405180910390fd5b6001600160a01b03811661016a5760405162461bcd60e51b815260206004820152602660248201527f4f776e61626c653a206e6577206f776e657220697320746865207a65726f206160448201526564647265737360d01b60648201526084016100fc565b61017381610056565b50565b60006020828403121561018857600080fd5b81516001600160a01b038116811461019f57600080fd5b9392505050565b6080516117b86101c86000396000818161024301526102e101526117b86000f3fe60806040523480156200001157600080fd5b5060043610620000525760003560e01c8063715018a614620000575780638da5cb5b1462000063578063f2fde38b1462000089578063f71b9f2814620000a0575b600080fd5b62000061620000b7565b005b6200006d62000102565b6040516001600160a01b03909116815260200160405180910390f35b620000616200009a36600462000431565b62000111565b62000061620000b136600462000502565b620001ba565b33620000c262000102565b6001600160a01b031614620000f45760405162461bcd60e51b8152600401620000eb90620005a5565b60405180910390fd5b620001006000620001dd565b565b6000546001600160a01b031690565b336200011c62000102565b6001600160a01b031614620001455760405162461bcd60e51b8152600401620000eb90620005a5565b6001600160a01b038116620001ac5760405162461bcd60e51b815260206004820152602660248201527f4f776e61626c653a206e6577206f776e657220697320746865207a65726f206160448201526564647265737360d01b6064820152608401620000eb565b620001b781620001dd565b50565b80620001c6816200022d565b620001d58686868587620002c8565b505050505050565b600080546001600160a01b038381166001600160a01b0319831681178455604051919092169283917f8be0079c531659141344cd1fd0a4f28419497f9722a3daafe3b4186f6b6457e09190a35050565b604051631eb18ccf60e31b8152600481018290527f00000000000000000000000000000000000000000000000000000000000000006001600160a01b03169063f58c667890602401602060405180830381865afa15801562000293573d6000803e3d6000fd5b505050506040513d601f19601f82011682018060405250810190620002b99190620005da565b1515600114620001b757600080fd5b6040516336e3382360e21b8152600481018390526000907f00000000000000000000000000000000000000000000000000000000000000006001600160a01b03169063db8ce08c90602401602060405180830381865afa15801562000331573d6000803e3d6000fd5b505050506040513d601f19601f82011682018060405250810190620003579190620005fe565b90506000868686336040516200036d906200040d565b6200037c94939291906200066e565b604051809103906000f08015801562000399573d6000803e3d6000fd5b5060405163514f647760e01b81529091506001600160a01b0383169063514f647790620003d09060029085908890600401620006b7565b600060405180830381600087803b158015620003eb57600080fd5b505af115801562000400573d6000803e3d6000fd5b5050505050505050505050565b61109680620006ed83390190565b6001600160a01b0381168114620001b757600080fd5b6000602082840312156200044457600080fd5b813562000451816200041b565b9392505050565b634e487b7160e01b600052604160045260246000fd5b600082601f8301126200048057600080fd5b81356001600160401b03808211156200049d576200049d62000458565b604051601f8301601f19908116603f01168101908282118183101715620004c857620004c862000458565b81604052838152866020858801011115620004e257600080fd5b836020870160208301376000602085830101528094505050505092915050565b600080600080600060a086880312156200051b57600080fd5b8535945060208601356001600160401b03808211156200053a57600080fd5b6200054889838a016200046e565b955060408801359150808211156200055f57600080fd5b6200056d89838a016200046e565b945060608801359150808211156200058457600080fd5b5062000593888289016200046e565b95989497509295608001359392505050565b6020808252818101527f4f776e61626c653a2063616c6c6572206973206e6f7420746865206f776e6572604082015260600190565b600060208284031215620005ed57600080fd5b815180151581146200045157600080fd5b6000602082840312156200061157600080fd5b815162000451816200041b565b6000815180845260005b81811015620006465760208185018101518683018201520162000628565b8181111562000659576000602083870101525b50601f01601f19169290920160200192915050565b8481526080602082015260006200068960808301866200061e565b82810360408401526200069d81866200061e565b91505060018060a01b038316606083015295945050505050565b8381526001600160a01b0383166020820152606060408201819052600090620006e3908301846200061e565b9594505050505056fe60806040523480156200001157600080fd5b506040516200109638038062001096833981016040819052620000349162000450565b8251839083906200004d906003906020850190620002dd565b50805162000063906004906020840190620002dd565b505050620000806200007a620000cd60201b60201c565b620000d1565b6007849055600680546001600160a01b0319166001600160a01b038316179055620000ac818562000123565b600654620000c3906001600160a01b03166200020c565b505050506200054a565b3390565b600580546001600160a01b038381166001600160a01b0319831681179093556040519116919082907f8be0079c531659141344cd1fd0a4f28419497f9722a3daafe3b4186f6b6457e090600090a35050565b6001600160a01b0382166200017f5760405162461bcd60e51b815260206004820152601f60248201527f45524332303a206d696e7420746f20746865207a65726f20616464726573730060448201526064015b60405180910390fd5b8060026000828254620001939190620004e6565b90915550506001600160a01b03821660009081526020819052604081208054839290620001c2908490620004e6565b90915550506040518181526001600160a01b038316906000907fddf252ad1be2c89b69c2b068fc378daa952ba7f163c4a11628f55a4df523b3ef9060200160405180910390a35050565b6005546001600160a01b03163314620002685760405162461bcd60e51b815260206004820181905260248201527f4f776e61626c653a2063616c6c6572206973206e6f7420746865206f776e6572604482015260640162000176565b6001600160a01b038116620002cf5760405162461bcd60e51b815260206004820152602660248201527f4f776e61626c653a206e6577206f776e657220697320746865207a65726f206160448201526564647265737360d01b606482015260840162000176565b620002da81620000d1565b50565b828054620002eb906200050d565b90600052602060002090601f0160209004810192826200030f57600085556200035a565b82601f106200032a57805160ff19168380011785556200035a565b828001600101855582156200035a579182015b828111156200035a5782518255916020019190600101906200033d565b50620003689291506200036c565b5090565b5b808211156200036857600081556001016200036d565b634e487b7160e01b600052604160045260246000fd5b600082601f830112620003ab57600080fd5b81516001600160401b0380821115620003c857620003c862000383565b604051601f8301601f19908116603f01168101908282118183101715620003f357620003f362000383565b816040528381526020925086838588010111156200041057600080fd5b600091505b8382101562000434578582018301518183018401529082019062000415565b83821115620004465760008385830101525b9695505050505050565b600080600080608085870312156200046757600080fd5b845160208601519094506001600160401b03808211156200048757600080fd5b620004958883890162000399565b94506040870151915080821115620004ac57600080fd5b50620004bb8782880162000399565b606087015190935090506001600160a01b0381168114620004db57600080fd5b939692955090935050565b600082198211156200050857634e487b7160e01b600052601160045260246000fd5b500190565b600181811c908216806200052257607f821691505b602082108114156200054457634e487b7160e01b600052602260045260246000fd5b50919050565b610b3c806200055a6000396000f3fe608060405234801561001057600080fd5b50600436106100d05760003560e01c806302d05d3f146100d557806306fdde0314610105578063095ea7b31461011a57806318160ddd1461013d57806323b872dd1461014f578063313ce56714610162578063395093511461017157806370a0823114610184578063715018a6146101ad5780638da5cb5b146101b757806395d89b41146101bf578063a457c2d7146101c7578063a9059cbb146101da578063d5abeb01146101ed578063dd62ed3e146101f6578063f2fde38b14610209575b600080fd5b6006546100e8906001600160a01b031681565b6040516001600160a01b0390911681526020015b60405180910390f35b61010d61021c565b6040516100fc91906108e4565b61012d610128366004610955565b6102ae565b60405190151581526020016100fc565b6002545b6040519081526020016100fc565b61012d61015d36600461097f565b6102c6565b604051601281526020016100fc565b61012d61017f366004610955565b6102ea565b6101416101923660046109bb565b6001600160a01b031660009081526020819052604090205490565b6101b561030c565b005b6100e8610350565b61010d61035f565b61012d6101d5366004610955565b61036e565b61012d6101e8366004610955565b6103e9565b61014160075481565b6101416102043660046109dd565b61044d565b6101b56102173660046109bb565b610478565b60606003805461022b90610a10565b80601f016020809104026020016040519081016040528092919081815260200182805461025790610a10565b80156102a45780601f10610279576101008083540402835291602001916102a4565b820191906000526020600020905b81548152906001019060200180831161028757829003601f168201915b5050505050905090565b6000336102bc818585610518565b5060019392505050565b6000336102d485828561063c565b6102df8585856106b6565b506001949350505050565b6000336102bc8185856102fd838361044d565b6103079190610a61565b610518565b33610315610350565b6001600160a01b0316146103445760405162461bcd60e51b815260040161033b90610a79565b60405180910390fd5b61034e6000610884565b565b6005546001600160a01b031690565b60606004805461022b90610a10565b6000338161037c828661044d565b9050838110156103dc5760405162461bcd60e51b815260206004820152602560248201527f45524332303a2064656372656173656420616c6c6f77616e63652062656c6f77604482015264207a65726f60d81b606482015260840161033b565b6102df8286868403610518565b600080806103f8846005610aae565b610403906064610ad0565b905060006104118286610aef565b905081600860008282546104259190610a61565b90915550610435905086826108d6565b5061044083836108d6565b5060019695505050505050565b6001600160a01b03918216600090815260016020908152604080832093909416825291909152205490565b33610481610350565b6001600160a01b0316146104a75760405162461bcd60e51b815260040161033b90610a79565b6001600160a01b03811661050c5760405162461bcd60e51b815260206004820152602660248201527f4f776e61626c653a206e6577206f776e657220697320746865207a65726f206160448201526564647265737360d01b606482015260840161033b565b61051581610884565b50565b6001600160a01b03831661057a5760405162461bcd60e51b8152602060048201526024808201527f45524332303a20617070726f76652066726f6d20746865207a65726f206164646044820152637265737360e01b606482015260840161033b565b6001600160a01b0382166105db5760405162461bcd60e51b815260206004820152602260248201527f45524332303a20617070726f766520746f20746865207a65726f206164647265604482015261737360f01b606482015260840161033b565b6001600160a01b0383811660008181526001602090815260408083209487168084529482529182902085905590518481527f8c5be1e5ebec7d5bd14f71427d1e84f3dd0314c0f7b2291e5b200ac8c7c3b925910160405180910390a3505050565b6000610648848461044d565b905060001981146106b057818110156106a35760405162461bcd60e51b815260206004820152601d60248201527f45524332303a20696e73756666696369656e7420616c6c6f77616e6365000000604482015260640161033b565b6106b08484848403610518565b50505050565b6001600160a01b03831661071a5760405162461bcd60e51b815260206004820152602560248201527f45524332303a207472616e736665722066726f6d20746865207a65726f206164604482015264647265737360d81b606482015260840161033b565b6001600160a01b03821661077c5760405162461bcd60e51b815260206004820152602360248201527f45524332303a207472616e7366657220746f20746865207a65726f206164647260448201526265737360e81b606482015260840161033b565b6001600160a01b038316600090815260208190526040902054818110156107f45760405162461bcd60e51b815260206004820152602660248201527f45524332303a207472616e7366657220616d6f756e7420657863656564732062604482015265616c616e636560d01b606482015260840161033b565b6001600160a01b0380851660009081526020819052604080822085850390559185168152908120805484929061082b908490610a61565b92505081905550826001600160a01b0316846001600160a01b03167fddf252ad1be2c89b69c2b068fc378daa952ba7f163c4a11628f55a4df523b3ef8460405161087791815260200190565b60405180910390a36106b0565b600580546001600160a01b038381166001600160a01b0319831681179093556040519116919082907f8be0079c531659141344cd1fd0a4f28419497f9722a3daafe3b4186f6b6457e090600090a35050565b6000336102bc8185856106b6565b600060208083528351808285015260005b81811015610911578581018301518582016040015282016108f5565b81811115610923576000604083870101525b50601f01601f1916929092016040019392505050565b80356001600160a01b038116811461095057600080fd5b919050565b6000806040838503121561096857600080fd5b61097183610939565b946020939093013593505050565b60008060006060848603121561099457600080fd5b61099d84610939565b92506109ab60208501610939565b9150604084013590509250925092565b6000602082840312156109cd57600080fd5b6109d682610939565b9392505050565b600080604083850312156109f057600080fd5b6109f983610939565b9150610a0760208401610939565b90509250929050565b600181811c90821680610a2457607f821691505b60208210811415610a4557634e487b7160e01b600052602260045260246000fd5b50919050565b634e487b7160e01b600052601160045260246000fd5b60008219821115610a7457610a74610a4b565b500190565b6020808252818101527f4f776e61626c653a2063616c6c6572206973206e6f7420746865206f776e6572604082015260600190565b600082610acb57634e487b7160e01b600052601260045260246000fd5b500490565b6000816000190483118215151615610aea57610aea610a4b565b500290565b600082821015610b0157610b01610a4b565b50039056fea2646970667358221220c0380ccbedf8942be81062cf88ac883f2469049d60487b4f4e65024f1fde567164736f6c634300080b0033a264697066735822122002915c8922ad9161c08aa5bb4d4cc746e470651824edcd4b534673095ae7f14a64736f6c634300080b0033",
  "immutableReferences": {
    "9687": [
      {
        "length": 32,
        "start": 579
      },
      {
        "length": 32,
        "start": 737
      }
    ]
  },
  "source": "/**\r\n    @author Blok Hamster \r\n */\r\n\r\n// SPDX-License-Identifier: MIT\r\npragma solidity ^0.8.4;\r\npragma experimental ABIEncoderV2;\r\n\r\nimport \"../Products/PicardyArtisteToken.sol\";\r\nimport { IPicardyHub } from \"../PicardyHub.sol\";\r\nimport {IPicardyProfile} from \"../Users/PicardyProfile.sol\";\r\nimport \"@openzeppelin/contracts/access/Ownable.sol\";\r\n\r\ncontract ArtisteTokenFactory is Ownable{\r\n    \r\n    address immutable PICARDY_HUB;\r\n\r\n    modifier isCreator(uint _profileId){\r\n        _isCreator(_profileId);\r\n        _;\r\n    }\r\n\r\n    constructor (address _PICARDY_HUB){\r\n        PICARDY_HUB = _PICARDY_HUB;\r\n\r\n        transferOwnership(PICARDY_HUB);\r\n    }\r\n\r\n    /**\r\n        @dev Creats an ERC20 contract to the caller\r\n        @param _totalAmount The maximum suppyly of the token\r\n        @param _name Token name \r\n        @param _symbol Token symbol\r\n        @param _profileId caller profileId \r\n     */\r\n    function createArtisteToken(uint _totalAmount, string memory _name, string memory _symbol, string memory _description, uint _profileId) external isCreator(_profileId){ \r\n        _createArtisteToken(_totalAmount, _name, _symbol, _profileId, _description);\r\n    }\r\n\r\n    function _createArtisteToken(uint _totalAmount, string memory _name, string memory _symbol, uint _profileId, string memory _description) internal {\r\n        \r\n        address profileAddress = IPicardyHub(PICARDY_HUB).getProfileAddress(_profileId);\r\n\r\n        PicardyArtisteToken token = new PicardyArtisteToken(_totalAmount, _name, _symbol, msg.sender);\r\n        IPicardyProfile(profileAddress).addProduct(2, address(token), _description);\r\n    }\r\n\r\n    function _isCreator(uint _profileId) internal view {\r\n        require(\r\n            IPicardyHub(PICARDY_HUB).checkIsCreator(_profileId) == true\r\n        );\r\n    }\r\n}",
  "sourcePath": "C:\\Users\\USER\\Desktop\\Projects\\Picardy_Protocol\\contracts\\Factory\\ArtisteTokenFactory.sol",
  "compiler": {
    "name": "solc",
    "version": "0.8.11+commit.d7f03943.Emscripten.clang"
  },
  "schemaVersion": "3.4.6",
  "updatedAt": "2022-08-18T20:31:17.035Z",
  "devdoc": {
    "kind": "dev",
    "methods": {
      "createArtisteToken(uint256,string,string,string,uint256)": {
        "details": "Creats an ERC20 contract to the caller",
        "params": {
          "_name": "Token name ",
          "_profileId": "caller profileId ",
          "_symbol": "Token symbol",
          "_totalAmount": "The maximum suppyly of the token"
        }
      },
      "owner()": {
        "details": "Returns the address of the current owner."
      },
      "renounceOwnership()": {
        "details": "Leaves the contract without owner. It will not be possible to call `onlyOwner` functions anymore. Can only be called by the current owner. NOTE: Renouncing ownership will leave the contract without an owner, thereby removing any functionality that is only available to the owner."
      },
      "transferOwnership(address)": {
        "details": "Transfers ownership of the contract to a new account (`newOwner`). Can only be called by the current owner."
      }
    },
    "version": 1
  },
  "userdoc": {
    "kind": "user",
    "methods": {},
    "version": 1
  }
}