{
  "contractName": "CreatorFollow",
  "abi": [
    {
      "inputs": [
        {
          "internalType": "string",
          "name": "_handle",
          "type": "string"
        },
        {
          "internalType": "address",
          "name": "_creator",
          "type": "address"
        }
      ],
      "stateMutability": "nonpayable",
      "type": "constructor"
    },
    {
      "anonymous": false,
      "inputs": [
        {
          "indexed": true,
          "internalType": "address",
          "name": "owner",
          "type": "address"
        },
        {
          "indexed": true,
          "internalType": "address",
          "name": "approved",
          "type": "address"
        },
        {
          "indexed": true,
          "internalType": "uint256",
          "name": "tokenId",
          "type": "uint256"
        }
      ],
      "name": "Approval",
      "type": "event"
    },
    {
      "anonymous": false,
      "inputs": [
        {
          "indexed": true,
          "internalType": "address",
          "name": "owner",
          "type": "address"
        },
        {
          "indexed": true,
          "internalType": "address",
          "name": "operator",
          "type": "address"
        },
        {
          "indexed": false,
          "internalType": "bool",
          "name": "approved",
          "type": "bool"
        }
      ],
      "name": "ApprovalForAll",
      "type": "event"
    },
    {
      "anonymous": false,
      "inputs": [
        {
          "indexed": true,
          "internalType": "address",
          "name": "follower",
          "type": "address"
        }
      ],
      "name": "Followed",
      "type": "event"
    },
    {
      "anonymous": false,
      "inputs": [
        {
          "indexed": true,
          "internalType": "address",
          "name": "previousOwner",
          "type": "address"
        },
        {
          "indexed": true,
          "internalType": "address",
          "name": "newOwner",
          "type": "address"
        }
      ],
      "name": "OwnershipTransferred",
      "type": "event"
    },
    {
      "anonymous": false,
      "inputs": [
        {
          "indexed": false,
          "internalType": "address",
          "name": "account",
          "type": "address"
        }
      ],
      "name": "Paused",
      "type": "event"
    },
    {
      "anonymous": false,
      "inputs": [
        {
          "indexed": true,
          "internalType": "address",
          "name": "from",
          "type": "address"
        },
        {
          "indexed": true,
          "internalType": "address",
          "name": "to",
          "type": "address"
        },
        {
          "indexed": true,
          "internalType": "uint256",
          "name": "tokenId",
          "type": "uint256"
        }
      ],
      "name": "Transfer",
      "type": "event"
    },
    {
      "anonymous": false,
      "inputs": [
        {
          "indexed": true,
          "internalType": "address",
          "name": "follower",
          "type": "address"
        }
      ],
      "name": "Unfollowed",
      "type": "event"
    },
    {
      "anonymous": false,
      "inputs": [
        {
          "indexed": false,
          "internalType": "address",
          "name": "account",
          "type": "address"
        }
      ],
      "name": "Unpaused",
      "type": "event"
    },
    {
      "inputs": [
        {
          "internalType": "address",
          "name": "to",
          "type": "address"
        },
        {
          "internalType": "uint256",
          "name": "tokenId",
          "type": "uint256"
        }
      ],
      "name": "approve",
      "outputs": [],
      "stateMutability": "nonpayable",
      "type": "function"
    },
    {
      "inputs": [
        {
          "internalType": "address",
          "name": "owner",
          "type": "address"
        }
      ],
      "name": "balanceOf",
      "outputs": [
        {
          "internalType": "uint256",
          "name": "",
          "type": "uint256"
        }
      ],
      "stateMutability": "view",
      "type": "function"
    },
    {
      "inputs": [],
      "name": "baseExtension",
      "outputs": [
        {
          "internalType": "string",
          "name": "",
          "type": "string"
        }
      ],
      "stateMutability": "view",
      "type": "function"
    },
    {
      "inputs": [],
      "name": "creator",
      "outputs": [
        {
          "internalType": "address",
          "name": "",
          "type": "address"
        }
      ],
      "stateMutability": "view",
      "type": "function"
    },
    {
      "inputs": [],
      "name": "followCount",
      "outputs": [
        {
          "internalType": "uint256",
          "name": "",
          "type": "uint256"
        }
      ],
      "stateMutability": "view",
      "type": "function"
    },
    {
      "inputs": [
        {
          "internalType": "uint256",
          "name": "",
          "type": "uint256"
        }
      ],
      "name": "followers",
      "outputs": [
        {
          "internalType": "address",
          "name": "",
          "type": "address"
        }
      ],
      "stateMutability": "view",
      "type": "function"
    },
    {
      "inputs": [
        {
          "internalType": "uint256",
          "name": "tokenId",
          "type": "uint256"
        }
      ],
      "name": "getApproved",
      "outputs": [
        {
          "internalType": "address",
          "name": "",
          "type": "address"
        }
      ],
      "stateMutability": "view",
      "type": "function"
    },
    {
      "inputs": [
        {
          "internalType": "address",
          "name": "owner",
          "type": "address"
        },
        {
          "internalType": "address",
          "name": "operator",
          "type": "address"
        }
      ],
      "name": "isApprovedForAll",
      "outputs": [
        {
          "internalType": "bool",
          "name": "",
          "type": "bool"
        }
      ],
      "stateMutability": "view",
      "type": "function"
    },
    {
      "inputs": [],
      "name": "name",
      "outputs": [
        {
          "internalType": "string",
          "name": "",
          "type": "string"
        }
      ],
      "stateMutability": "view",
      "type": "function"
    },
    {
      "inputs": [],
      "name": "owner",
      "outputs": [
        {
          "internalType": "address",
          "name": "",
          "type": "address"
        }
      ],
      "stateMutability": "view",
      "type": "function"
    },
    {
      "inputs": [
        {
          "internalType": "uint256",
          "name": "tokenId",
          "type": "uint256"
        }
      ],
      "name": "ownerOf",
      "outputs": [
        {
          "internalType": "address",
          "name": "",
          "type": "address"
        }
      ],
      "stateMutability": "view",
      "type": "function"
    },
    {
      "inputs": [],
      "name": "paused",
      "outputs": [
        {
          "internalType": "bool",
          "name": "",
          "type": "bool"
        }
      ],
      "stateMutability": "view",
      "type": "function"
    },
    {
      "inputs": [],
      "name": "renounceOwnership",
      "outputs": [],
      "stateMutability": "nonpayable",
      "type": "function"
    },
    {
      "inputs": [
        {
          "internalType": "address",
          "name": "from",
          "type": "address"
        },
        {
          "internalType": "address",
          "name": "to",
          "type": "address"
        },
        {
          "internalType": "uint256",
          "name": "tokenId",
          "type": "uint256"
        }
      ],
      "name": "safeTransferFrom",
      "outputs": [],
      "stateMutability": "nonpayable",
      "type": "function"
    },
    {
      "inputs": [
        {
          "internalType": "address",
          "name": "from",
          "type": "address"
        },
        {
          "internalType": "address",
          "name": "to",
          "type": "address"
        },
        {
          "internalType": "uint256",
          "name": "tokenId",
          "type": "uint256"
        },
        {
          "internalType": "bytes",
          "name": "_data",
          "type": "bytes"
        }
      ],
      "name": "safeTransferFrom",
      "outputs": [],
      "stateMutability": "nonpayable",
      "type": "function"
    },
    {
      "inputs": [
        {
          "internalType": "address",
          "name": "operator",
          "type": "address"
        },
        {
          "internalType": "bool",
          "name": "approved",
          "type": "bool"
        }
      ],
      "name": "setApprovalForAll",
      "outputs": [],
      "stateMutability": "nonpayable",
      "type": "function"
    },
    {
      "inputs": [
        {
          "internalType": "bytes4",
          "name": "interfaceId",
          "type": "bytes4"
        }
      ],
      "name": "supportsInterface",
      "outputs": [
        {
          "internalType": "bool",
          "name": "",
          "type": "bool"
        }
      ],
      "stateMutability": "view",
      "type": "function"
    },
    {
      "inputs": [],
      "name": "symbol",
      "outputs": [
        {
          "internalType": "string",
          "name": "",
          "type": "string"
        }
      ],
      "stateMutability": "view",
      "type": "function"
    },
    {
      "inputs": [
        {
          "internalType": "uint256",
          "name": "index",
          "type": "uint256"
        }
      ],
      "name": "tokenByIndex",
      "outputs": [
        {
          "internalType": "uint256",
          "name": "",
          "type": "uint256"
        }
      ],
      "stateMutability": "view",
      "type": "function"
    },
    {
      "inputs": [
        {
          "internalType": "address",
          "name": "owner",
          "type": "address"
        },
        {
          "internalType": "uint256",
          "name": "index",
          "type": "uint256"
        }
      ],
      "name": "tokenOfOwnerByIndex",
      "outputs": [
        {
          "internalType": "uint256",
          "name": "",
          "type": "uint256"
        }
      ],
      "stateMutability": "view",
      "type": "function"
    },
    {
      "inputs": [
        {
          "internalType": "uint256",
          "name": "tokenId",
          "type": "uint256"
        }
      ],
      "name": "tokenURI",
      "outputs": [
        {
          "internalType": "string",
          "name": "",
          "type": "string"
        }
      ],
      "stateMutability": "view",
      "type": "function"
    },
    {
      "inputs": [],
      "name": "totalSupply",
      "outputs": [
        {
          "internalType": "uint256",
          "name": "",
          "type": "uint256"
        }
      ],
      "stateMutability": "view",
      "type": "function"
    },
    {
      "inputs": [
        {
          "internalType": "address",
          "name": "from",
          "type": "address"
        },
        {
          "internalType": "address",
          "name": "to",
          "type": "address"
        },
        {
          "internalType": "uint256",
          "name": "tokenId",
          "type": "uint256"
        }
      ],
      "name": "transferFrom",
      "outputs": [],
      "stateMutability": "nonpayable",
      "type": "function"
    },
    {
      "inputs": [
        {
          "internalType": "address",
          "name": "newOwner",
          "type": "address"
        }
      ],
      "name": "transferOwnership",
      "outputs": [],
      "stateMutability": "nonpayable",
      "type": "function"
    },
    {
      "inputs": [
        {
          "internalType": "address",
          "name": "_follower",
          "type": "address"
        }
      ],
      "name": "followCreator",
      "outputs": [
        {
          "internalType": "bool",
          "name": "success",
          "type": "bool"
        }
      ],
      "stateMutability": "nonpayable",
      "type": "function"
    },
    {
      "inputs": [
        {
          "internalType": "address",
          "name": "_follower",
          "type": "address"
        }
      ],
      "name": "unfollowCreator",
      "outputs": [
        {
          "internalType": "bool",
          "name": "success",
          "type": "bool"
        }
      ],
      "stateMutability": "nonpayable",
      "type": "function"
    },
    {
      "inputs": [
        {
          "internalType": "string",
          "name": "_baseUri",
          "type": "string"
        }
      ],
      "name": "setBaseUri",
      "outputs": [],
      "stateMutability": "nonpayable",
      "type": "function"
    },
    {
      "inputs": [],
      "name": "getFollowers",
      "outputs": [
        {
          "internalType": "address[]",
          "name": "",
          "type": "address[]"
        }
      ],
      "stateMutability": "view",
      "type": "function"
    },
    {
      "inputs": [],
      "name": "getFollowCount",
      "outputs": [
        {
          "internalType": "uint256",
          "name": "",
          "type": "uint256"
        }
      ],
      "stateMutability": "view",
      "type": "function"
    }
  ],
  "bytecode": "0x60c06040526005608081905264173539b7b760d91b60a09081526200002891600c919062000159565b506001600e553480156200003b57600080fd5b5060405162002487380380620024878339810160408190526200005e9162000232565b816040518060400160405280600c81526020016b2337b63637bb902a37b5b2b760a11b81525081600090805190602001906200009c92919062000159565b508051620000b290600190602084019062000159565b505050620000cf620000c96200010360201b60201c565b62000107565b600a805460ff60a01b19169055600d80546001600160a01b0319166001600160a01b03929092169190911790555062000360565b3390565b600a80546001600160a01b038381166001600160a01b0319831681179093556040519116919082907f8be0079c531659141344cd1fd0a4f28419497f9722a3daafe3b4186f6b6457e090600090a35050565b828054620001679062000323565b90600052602060002090601f0160209004810192826200018b5760008555620001d6565b82601f10620001a657805160ff1916838001178555620001d6565b82800160010185558215620001d6579182015b82811115620001d6578251825591602001919060010190620001b9565b50620001e4929150620001e8565b5090565b5b80821115620001e45760008155600101620001e9565b634e487b7160e01b600052604160045260246000fd5b80516001600160a01b03811681146200022d57600080fd5b919050565b600080604083850312156200024657600080fd5b82516001600160401b03808211156200025e57600080fd5b818501915085601f8301126200027357600080fd5b815181811115620002885762000288620001ff565b604051601f8201601f19908116603f01168101908382118183101715620002b357620002b3620001ff565b81604052828152602093508884848701011115620002d057600080fd5b600091505b82821015620002f45784820184015181830185015290830190620002d5565b82821115620003065760008484830101525b95506200031891505085820162000215565b925050509250929050565b600181811c908216806200033857607f821691505b602082108114156200035a57634e487b7160e01b600052602260045260246000fd5b50919050565b61211780620003706000396000f3fe608060405234801561001057600080fd5b506004361061015f5760003560e01c806301ffc9a71461016457806302d05d3f1461018c57806306fdde03146101b7578063081812fc146101cc578063095ea7b3146101df5780630d79f561146101f457806318160ddd14610209578063181961911461021b5780631abc901f1461022e57806323b872dd14610241578063260777fe146102545780632f745c591461025c57806342842e0e1461026f5780634d90bc37146102825780634f6ccce7146102955780635c975abb146102a85780636352211e146102ba57806370a08231146102cd578063715018a6146102e05780638da5cb5b146102e857806395d89b41146102f057806398dc3e7f146102f8578063a0bcfc7f14610301578063a22cb46514610314578063b88d4fde14610327578063c66828621461033a578063c87b56dd14610342578063e985e9c514610355578063f2fde38b14610368575b600080fd5b610177610172366004611ae8565b61037b565b60405190151581526020015b60405180910390f35b600d5461019f906001600160a01b031681565b6040516001600160a01b039091168152602001610183565b6101bf6103a6565b6040516101839190611b5d565b61019f6101da366004611b70565b610438565b6101f26101ed366004611ba5565b6104c5565b005b6101fc6105d6565b6040516101839190611bcf565b6008545b604051908152602001610183565b610177610229366004611c1c565b610637565b61019f61023c366004611b70565b610672565b6101f261024f366004611c37565b61069c565b600f5461020d565b61020d61026a366004611ba5565b6106cd565b6101f261027d366004611c37565b610763565b610177610290366004611c1c565b61077e565b61020d6102a3366004611b70565b6107e4565b600a54600160a01b900460ff16610177565b61019f6102c8366004611b70565b610877565b61020d6102db366004611c1c565b6108ee565b6101f2610975565b61019f6109b0565b6101bf6109bf565b61020d600f5481565b6101f261030f366004611c73565b6109ce565b6101f2610322366004611ce4565b6109f1565b6101f2610335366004611d36565b610a00565b6101bf610a38565b6101bf610350366004611b70565b610ac6565b610177610363366004611e11565b610b9e565b6101f2610376366004611c1c565b610bcc565b60006001600160e01b0319821663780e9d6360e01b14806103a057506103a082610c6c565b92915050565b6060600080546103b590611e44565b80601f01602080910402602001604051908101604052809291908181526020018280546103e190611e44565b801561042e5780601f106104035761010080835404028352916020019161042e565b820191906000526020600020905b81548152906001019060200180831161041157829003601f168201915b5050505050905090565b600061044382610cbc565b6104a95760405162461bcd60e51b815260206004820152602c60248201527f4552433732313a20617070726f76656420717565727920666f72206e6f6e657860448201526b34b9ba32b73a103a37b5b2b760a11b60648201526084015b60405180910390fd5b506000908152600460205260409020546001600160a01b031690565b60006104d082610877565b9050806001600160a01b0316836001600160a01b0316141561053e5760405162461bcd60e51b815260206004820152602160248201527f4552433732313a20617070726f76616c20746f2063757272656e74206f776e656044820152603960f91b60648201526084016104a0565b336001600160a01b038216148061055a575061055a8133610b9e565b6105c75760405162461bcd60e51b815260206004820152603860248201527f4552433732313a20617070726f76652063616c6c6572206973206e6f74206f776044820152771b995c881b9bdc88185c1c1c9bdd995908199bdc88185b1b60421b60648201526084016104a0565b6105d18383610cd9565b505050565b6060601080548060200260200160405190810160405280929190818152602001828054801561042e57602002820191906000526020600020905b81546001600160a01b03168152600190910190602001808311610610575050505050905090565b6001600160a01b03811660009081526011602052604081205460ff16151560011461066157600080fd5b61066a82610d47565b506001919050565b6010818154811061068257600080fd5b6000918252602090912001546001600160a01b0316905081565b6106a63382610f01565b6106c25760405162461bcd60e51b81526004016104a090611e7f565b6105d1838383610fcb565b60006106d8836108ee565b821061073a5760405162461bcd60e51b815260206004820152602b60248201527f455243373231456e756d657261626c653a206f776e657220696e646578206f7560448201526a74206f6620626f756e647360a81b60648201526084016104a0565b506001600160a01b03919091166000908152600660209081526040808320938352929052205490565b6105d183838360405180602001604052806000815250610a00565b6001600160a01b03811660009081526011602052604081205460ff16156107db5760405162461bcd60e51b8152602060048201526011602482015270416c726561647920666f6c6c6f77696e6760781b60448201526064016104a0565b61066a82611160565b60006107ef60085490565b82106108525760405162461bcd60e51b815260206004820152602c60248201527f455243373231456e756d657261626c653a20676c6f62616c20696e646578206f60448201526b7574206f6620626f756e647360a01b60648201526084016104a0565b6008828154811061086557610865611ed0565b90600052602060002001549050919050565b6000818152600260205260408120546001600160a01b0316806103a05760405162461bcd60e51b815260206004820152602960248201527f4552433732313a206f776e657220717565727920666f72206e6f6e657869737460448201526832b73a103a37b5b2b760b91b60648201526084016104a0565b60006001600160a01b0382166109595760405162461bcd60e51b815260206004820152602a60248201527f4552433732313a2062616c616e636520717565727920666f7220746865207a65604482015269726f206164647265737360b01b60648201526084016104a0565b506001600160a01b031660009081526003602052604090205490565b3361097e6109b0565b6001600160a01b0316146109a45760405162461bcd60e51b81526004016104a090611ee6565b6109ae6000611298565b565b600a546001600160a01b031690565b6060600180546103b590611e44565b600d546001600160a01b031632146109e557600080fd5b6105d1600b8383611a39565b6109fc3383836112ea565b5050565b610a0a3383610f01565b610a265760405162461bcd60e51b81526004016104a090611e7f565b610a32848484846113b5565b50505050565b600c8054610a4590611e44565b80601f0160208091040260200160405190810160405280929190818152602001828054610a7190611e44565b8015610abe5780601f10610a9357610100808354040283529160200191610abe565b820191906000526020600020905b815481529060010190602001808311610aa157829003601f168201915b505050505081565b6060610ad182610cbc565b610b355760405162461bcd60e51b815260206004820152602f60248201527f4552433732314d657461646174613a2055524920717565727920666f72206e6f60448201526e3732bc34b9ba32b73a103a37b5b2b760891b60648201526084016104a0565b6000610b4c60408051602081019091526000815290565b90506000815111610b6c5760405180602001604052806000815250610b97565b80610b76846113e8565b604051602001610b87929190611f1b565b6040516020818303038152906040525b9392505050565b6001600160a01b03918216600090815260056020908152604080832093909416825291909152205460ff1690565b33610bd56109b0565b6001600160a01b031614610bfb5760405162461bcd60e51b81526004016104a090611ee6565b6001600160a01b038116610c605760405162461bcd60e51b815260206004820152602660248201527f4f776e61626c653a206e6577206f776e657220697320746865207a65726f206160448201526564647265737360d01b60648201526084016104a0565b610c6981611298565b50565b60006001600160e01b031982166380ac58cd60e01b1480610c9d57506001600160e01b03198216635b5e139f60e01b145b806103a057506301ffc9a760e01b6001600160e01b03198316146103a0565b6000908152600260205260409020546001600160a01b0316151590565b600081815260046020526040902080546001600160a01b0319166001600160a01b0384169081179091558190610d0e82610877565b6001600160a01b03167f8c5be1e5ebec7d5bd14f71427d1e84f3dd0314c0f7b2291e5b200ac8c7c3b92560405160405180910390a45050565b6001600160a01b03811660009081526012602090815260408083206001908101546011909352922054909160ff909116151514610d8357600080fd5b6001600160a01b0382166000908152601160205260408120805460ff19169055600f805491610db183611f60565b919050555060005b601054811015610ebf57826001600160a01b031660108281548110610de057610de0611ed0565b6000918252602090912001546001600160a01b03161415610ead5760108054610e0b90600190611f77565b81548110610e1b57610e1b611ed0565b600091825260209091200154601080546001600160a01b039092169183908110610e4757610e47611ed0565b9060005260206000200160006101000a8154816001600160a01b0302191690836001600160a01b031602179055506010805480610e8657610e86611f8e565b600082815260209020810160001990810180546001600160a01b0319169055019055610ebf565b80610eb781611fa4565b915050610db9565b50610ec9816114e5565b6040516001600160a01b038316907feec2b0215309af7425b7c70d86d811dac004320e90dc1518a084d40840c663cc90600090a25050565b6000610f0c82610cbc565b610f6d5760405162461bcd60e51b815260206004820152602c60248201527f4552433732313a206f70657261746f7220717565727920666f72206e6f6e657860448201526b34b9ba32b73a103a37b5b2b760a11b60648201526084016104a0565b6000610f7883610877565b9050806001600160a01b0316846001600160a01b03161480610f9f5750610f9f8185610b9e565b80610fc35750836001600160a01b0316610fb884610438565b6001600160a01b0316145b949350505050565b826001600160a01b0316610fde82610877565b6001600160a01b0316146110425760405162461bcd60e51b815260206004820152602560248201527f4552433732313a207472616e736665722066726f6d20696e636f72726563742060448201526437bbb732b960d91b60648201526084016104a0565b6001600160a01b0382166110a45760405162461bcd60e51b8152602060048201526024808201527f4552433732313a207472616e7366657220746f20746865207a65726f206164646044820152637265737360e01b60648201526084016104a0565b6110af83838361157a565b6110ba600082610cd9565b6001600160a01b03831660009081526003602052604081208054600192906110e3908490611f77565b90915550506001600160a01b0382166000908152600360205260408120805460019290611111908490611fbf565b909155505060008181526002602052604080822080546001600160a01b0319166001600160a01b0386811691821790925591518493918716916000805160206120c283398151915291a4505050565b600061116b60085490565b9050600061117a826001611fbf565b6001600160a01b03841660009081526011602052604090205490915060ff16156111a357600080fd5b6001600160a01b038084166000818152601160209081526040808320805460ff191660019081179091558151808301835285815280840188815286865260129094529184208251815497166001600160a01b031997881617815592519281019290925560108054928301815583527f1b6847dc741a1b0cd08d278845f9d819d87b734759afb55fe2de5cb82a9ae6729091018054909416909217909255600f8054919261124f83611fa4565b919050555061125e3383611632565b6040516001600160a01b038516907f4cc7d9539ce01437cdeb528a3129c5cda0d65929048a1f9942d9dae632e7037090600090a250505050565b600a80546001600160a01b038381166001600160a01b0319831681179093556040519116919082907f8be0079c531659141344cd1fd0a4f28419497f9722a3daafe3b4186f6b6457e090600090a35050565b816001600160a01b0316836001600160a01b031614156113485760405162461bcd60e51b815260206004820152601960248201527822a9219b99189d1030b8383937bb32903a379031b0b63632b960391b60448201526064016104a0565b6001600160a01b03838116600081815260056020908152604080832094871680845294825291829020805460ff191686151590811790915591519182527f17307eab39ab6107e8899845ad3d59bd9653f200f220920489ca2b5937696c31910160405180910390a3505050565b6113c0848484610fcb565b6113cc8484848461164c565b610a325760405162461bcd60e51b81526004016104a090611fd7565b60608161140c5750506040805180820190915260018152600360fc1b602082015290565b8160005b8115611436578061142081611fa4565b915061142f9050600a8361203f565b9150611410565b6000816001600160401b0381111561145057611450611d20565b6040519080825280601f01601f19166020018201604052801561147a576020820181803683370190505b5090505b8415610fc35761148f600183611f77565b915061149c600a86612053565b6114a7906030611fbf565b60f81b8183815181106114bc576114bc611ed0565b60200101906001600160f81b031916908160001a9053506114de600a8661203f565b945061147e565b60006114f082610877565b90506114fe8160008461157a565b611509600083610cd9565b6001600160a01b0381166000908152600360205260408120805460019290611532908490611f77565b909155505060008281526002602052604080822080546001600160a01b0319169055518391906001600160a01b038416906000805160206120c2833981519152908390a45050565b6001600160a01b0383166115d5576115d081600880546000838152600960205260408120829055600182018355919091527ff3f7a9fe364faab93b216da50a3214154f22a0a2b415b23a84c8169e8b636ee30155565b6115f8565b816001600160a01b0316836001600160a01b0316146115f8576115f8838261174a565b6001600160a01b03821661160f576105d1816117e7565b826001600160a01b0316826001600160a01b0316146105d1576105d18282611896565b6109fc8282604051806020016040528060008152506118da565b60006001600160a01b0384163b1561173f57604051630a85bd0160e11b81526001600160a01b0385169063150b7a0290611690903390899088908890600401612067565b6020604051808303816000875af19250505080156116cb575060408051601f3d908101601f191682019092526116c8918101906120a4565b60015b611725573d8080156116f9576040519150601f19603f3d011682016040523d82523d6000602084013e6116fe565b606091505b50805161171d5760405162461bcd60e51b81526004016104a090611fd7565b805181602001fd5b6001600160e01b031916630a85bd0160e11b149050610fc3565b506001949350505050565b60006001611757846108ee565b6117619190611f77565b6000838152600760205260409020549091508082146117b4576001600160a01b03841660009081526006602090815260408083208584528252808320548484528184208190558352600790915290208190555b5060009182526007602090815260408084208490556001600160a01b039094168352600681528383209183525290812055565b6008546000906117f990600190611f77565b6000838152600960205260408120546008805493945090928490811061182157611821611ed0565b90600052602060002001549050806008838154811061184257611842611ed0565b600091825260208083209091019290925582815260099091526040808220849055858252812055600880548061187a5761187a611f8e565b6001900381819060005260206000200160009055905550505050565b60006118a1836108ee565b6001600160a01b039093166000908152600660209081526040808320868452825280832085905593825260079052919091209190915550565b6118e4838361190d565b6118f1600084848461164c565b6105d15760405162461bcd60e51b81526004016104a090611fd7565b6001600160a01b0382166119635760405162461bcd60e51b815260206004820181905260248201527f4552433732313a206d696e7420746f20746865207a65726f206164647265737360448201526064016104a0565b61196c81610cbc565b156119b85760405162461bcd60e51b815260206004820152601c60248201527b115490cdcc8c4e881d1bdad95b88185b1c9958591e481b5a5b9d195960221b60448201526064016104a0565b6119c46000838361157a565b6001600160a01b03821660009081526003602052604081208054600192906119ed908490611fbf565b909155505060008181526002602052604080822080546001600160a01b0319166001600160a01b03861690811790915590518392906000805160206120c2833981519152908290a45050565b828054611a4590611e44565b90600052602060002090601f016020900481019282611a675760008555611aad565b82601f10611a805782800160ff19823516178555611aad565b82800160010185558215611aad579182015b82811115611aad578235825591602001919060010190611a92565b50611ab9929150611abd565b5090565b5b80821115611ab95760008155600101611abe565b6001600160e01b031981168114610c6957600080fd5b600060208284031215611afa57600080fd5b8135610b9781611ad2565b60005b83811015611b20578181015183820152602001611b08565b83811115610a325750506000910152565b60008151808452611b49816020860160208601611b05565b601f01601f19169290920160200192915050565b602081526000610b976020830184611b31565b600060208284031215611b8257600080fd5b5035919050565b80356001600160a01b0381168114611ba057600080fd5b919050565b60008060408385031215611bb857600080fd5b611bc183611b89565b946020939093013593505050565b6020808252825182820181905260009190848201906040850190845b81811015611c105783516001600160a01b031683529284019291840191600101611beb565b50909695505050505050565b600060208284031215611c2e57600080fd5b610b9782611b89565b600080600060608486031215611c4c57600080fd5b611c5584611b89565b9250611c6360208501611b89565b9150604084013590509250925092565b60008060208385031215611c8657600080fd5b82356001600160401b0380821115611c9d57600080fd5b818501915085601f830112611cb157600080fd5b813581811115611cc057600080fd5b866020828501011115611cd257600080fd5b60209290920196919550909350505050565b60008060408385031215611cf757600080fd5b611d0083611b89565b915060208301358015158114611d1557600080fd5b809150509250929050565b634e487b7160e01b600052604160045260246000fd5b60008060008060808587031215611d4c57600080fd5b611d5585611b89565b9350611d6360208601611b89565b92506040850135915060608501356001600160401b0380821115611d8657600080fd5b818701915087601f830112611d9a57600080fd5b813581811115611dac57611dac611d20565b604051601f8201601f19908116603f01168101908382118183101715611dd457611dd4611d20565b816040528281528a6020848701011115611ded57600080fd5b82602086016020830137600060208483010152809550505050505092959194509250565b60008060408385031215611e2457600080fd5b611e2d83611b89565b9150611e3b60208401611b89565b90509250929050565b600181811c90821680611e5857607f821691505b60208210811415611e7957634e487b7160e01b600052602260045260246000fd5b50919050565b60208082526031908201527f4552433732313a207472616e736665722063616c6c6572206973206e6f74206f6040820152701ddb995c881b9bdc88185c1c1c9bdd9959607a1b606082015260800190565b634e487b7160e01b600052603260045260246000fd5b6020808252818101527f4f776e61626c653a2063616c6c6572206973206e6f7420746865206f776e6572604082015260600190565b60008351611f2d818460208801611b05565b835190830190611f41818360208801611b05565b01949350505050565b634e487b7160e01b600052601160045260246000fd5b600081611f6f57611f6f611f4a565b506000190190565b600082821015611f8957611f89611f4a565b500390565b634e487b7160e01b600052603160045260246000fd5b6000600019821415611fb857611fb8611f4a565b5060010190565b60008219821115611fd257611fd2611f4a565b500190565b60208082526032908201527f4552433732313a207472616e7366657220746f206e6f6e20455243373231526560408201527131b2b4bb32b91034b6b83632b6b2b73a32b960711b606082015260800190565b634e487b7160e01b600052601260045260246000fd5b60008261204e5761204e612029565b500490565b60008261206257612062612029565b500690565b6001600160a01b038581168252841660208201526040810183905260806060820181905260009061209a90830184611b31565b9695505050505050565b6000602082840312156120b657600080fd5b8151610b9781611ad256feddf252ad1be2c89b69c2b068fc378daa952ba7f163c4a11628f55a4df523b3efa2646970667358221220100d3e81c94ad2651c48e82a08d5ac5969d31720b1bcb56d4e07aa8f24bd514864736f6c634300080b0033",
  "immutableReferences": {},
  "source": "// SPDX-License-Identifier: MIT\r\n\r\n/**\r\n    @dev This token is an SBT and should be non transfarable \r\n*/\r\n\r\npragma solidity ^0.8.4;\r\npragma experimental ABIEncoderV2;\r\n\r\nimport \"@openzeppelin/contracts/access/AccessControl.sol\"; \r\nimport \"@openzeppelin/contracts/access/Ownable.sol\";\r\nimport \"@openzeppelin/contracts/token/ERC721/extensions/ERC721Enumerable.sol\";\r\nimport \"@openzeppelin/contracts/security/Pausable.sol\";\r\n\r\ncontract CreatorFollow is ERC721Enumerable, Ownable, Pausable {\r\n\r\n    event Followed(address indexed follower);\r\n    event Unfollowed(address indexed follower);\r\n\r\n    struct Follow {\r\n        address follower;\r\n        uint256 id;\r\n    }\r\n\r\n    string baseURI;\r\n    string public baseExtension = \".json\";\r\n    address public creator;\r\n    uint maxMintAmount = 1;\r\n    uint public followCount;\r\n    address[] public followers;\r\n    \r\n    mapping (address => bool) isFollower;\r\n    mapping (address => Follow) followersInfo;\r\n    \r\n    constructor(string memory _handle, address _creator) ERC721(_handle, \"Follow Token\"){\r\n        creator = _creator;\r\n\r\n    }\r\n\r\n    function followCreator(address _follower) external returns(bool success){\r\n        require(isFollower[_follower] == false, \"Already following\");\r\n        _followCreator(_follower);\r\n        return true;\r\n    }\r\n\r\n    function unfollowCreator(address _follower) external returns(bool success){\r\n        require(isFollower[_follower] == true);\r\n        _unfollowCreator(_follower);\r\n        return true;\r\n    }\r\n\r\n    function setBaseUri(string calldata _baseUri) external {\r\n        require(tx.origin == creator);\r\n        baseURI = _baseUri;\r\n    }\r\n\r\n    function getFollowers() external view returns (address[] memory) {\r\n        return followers;\r\n    }\r\n\r\n    function getFollowCount() external view returns (uint) {\r\n        return followCount;\r\n    }\r\n\r\n    //Internal Functions\r\n\r\n    function _followCreator(address _follower) internal {\r\n        uint256 supply = totalSupply();\r\n        uint id = supply + 1;\r\n        require(isFollower[_follower] == false);\r\n        isFollower[_follower] = true;\r\n\r\n        Follow memory follow = Follow(_follower, id);\r\n        followersInfo[_follower] = follow;\t\r\n        followers.push(_follower);\r\n        followCount++;\r\n        \r\n        _safeMint(msg.sender, id);\r\n        emit Followed(_follower);\r\n    }\r\n\r\n    function _unfollowCreator(address _follower) internal {\r\n        uint id = followersInfo[_follower].id;\r\n        require(isFollower[_follower] == true);\r\n        isFollower[_follower] = false;\r\n        followCount--;\r\n        for (uint i = 0; i < followers.length; i++) {\r\n            if (followers[i] == _follower) {\r\n                followers[i] = followers[followers.length - 1];\r\n                followers.pop();\r\n                break;\r\n            }\r\n        }\r\n        _burn(id);\r\n\r\n        emit Unfollowed(_follower);\r\n    }\r\n   \r\n}\r\n\r\ninterface ICreatorFollowInterface {\r\n    function followCreator(address _follower) external returns (bool success);\r\n    function unfollowCreator(address _follower) external returns (bool success);\r\n    function getFollowers() external view returns (address[] memory);\r\n    function getFollowCount() external view returns (uint);\r\n    function setBaseUri(string calldata _baseUri) external;\r\n}",
  "sourcePath": "C:\\Users\\USER\\Desktop\\Projects\\Picardy_Protocol\\contracts\\Users\\CreatorFollow.sol",
  "compiler": {
    "name": "solc",
    "version": "0.8.11+commit.d7f03943.Emscripten.clang"
  },
  "schemaVersion": "3.4.6",
  "updatedAt": "2022-08-18T20:31:17.463Z",
  "devdoc": {
    "kind": "dev",
    "methods": {
      "approve(address,uint256)": {
        "details": "See {IERC721-approve}."
      },
      "balanceOf(address)": {
        "details": "See {IERC721-balanceOf}."
      },
      "getApproved(uint256)": {
        "details": "See {IERC721-getApproved}."
      },
      "isApprovedForAll(address,address)": {
        "details": "See {IERC721-isApprovedForAll}."
      },
      "name()": {
        "details": "See {IERC721Metadata-name}."
      },
      "owner()": {
        "details": "Returns the address of the current owner."
      },
      "ownerOf(uint256)": {
        "details": "See {IERC721-ownerOf}."
      },
      "paused()": {
        "details": "Returns true if the contract is paused, and false otherwise."
      },
      "renounceOwnership()": {
        "details": "Leaves the contract without owner. It will not be possible to call `onlyOwner` functions anymore. Can only be called by the current owner. NOTE: Renouncing ownership will leave the contract without an owner, thereby removing any functionality that is only available to the owner."
      },
      "safeTransferFrom(address,address,uint256)": {
        "details": "See {IERC721-safeTransferFrom}."
      },
      "safeTransferFrom(address,address,uint256,bytes)": {
        "details": "See {IERC721-safeTransferFrom}."
      },
      "setApprovalForAll(address,bool)": {
        "details": "See {IERC721-setApprovalForAll}."
      },
      "supportsInterface(bytes4)": {
        "details": "See {IERC165-supportsInterface}."
      },
      "symbol()": {
        "details": "See {IERC721Metadata-symbol}."
      },
      "tokenByIndex(uint256)": {
        "details": "See {IERC721Enumerable-tokenByIndex}."
      },
      "tokenOfOwnerByIndex(address,uint256)": {
        "details": "See {IERC721Enumerable-tokenOfOwnerByIndex}."
      },
      "tokenURI(uint256)": {
        "details": "See {IERC721Metadata-tokenURI}."
      },
      "totalSupply()": {
        "details": "See {IERC721Enumerable-totalSupply}."
      },
      "transferFrom(address,address,uint256)": {
        "details": "See {IERC721-transferFrom}."
      },
      "transferOwnership(address)": {
        "details": "Transfers ownership of the contract to a new account (`newOwner`). Can only be called by the current owner."
      }
    },
    "version": 1
  },
  "userdoc": {
    "kind": "user",
    "methods": {},
    "version": 1
  }
}