{
  "contractName": "CroudfundNonRefundable",
  "abi": [
    {
      "inputs": [
        {
          "internalType": "address",
          "name": "_creator",
          "type": "address"
        },
        {
          "internalType": "address",
          "name": "_picardyTokenAddress",
          "type": "address"
        },
        {
          "internalType": "uint256",
          "name": "_fundGoal",
          "type": "uint256"
        },
        {
          "internalType": "uint256",
          "name": "_fundingTime",
          "type": "uint256"
        }
      ],
      "stateMutability": "nonpayable",
      "type": "constructor"
    },
    {
      "anonymous": false,
      "inputs": [
        {
          "indexed": true,
          "internalType": "address",
          "name": "funder",
          "type": "address"
        },
        {
          "indexed": true,
          "internalType": "uint256",
          "name": "amount",
          "type": "uint256"
        },
        {
          "indexed": true,
          "internalType": "uint256",
          "name": "time",
          "type": "uint256"
        }
      ],
      "name": "FundAdded",
      "type": "event"
    },
    {
      "anonymous": false,
      "inputs": [
        {
          "indexed": true,
          "internalType": "uint256",
          "name": "time",
          "type": "uint256"
        }
      ],
      "name": "FundWithdrawn",
      "type": "event"
    },
    {
      "anonymous": false,
      "inputs": [
        {
          "indexed": true,
          "internalType": "address",
          "name": "previousOwner",
          "type": "address"
        },
        {
          "indexed": true,
          "internalType": "address",
          "name": "newOwner",
          "type": "address"
        }
      ],
      "name": "OwnershipTransferred",
      "type": "event"
    },
    {
      "inputs": [],
      "name": "owner",
      "outputs": [
        {
          "internalType": "address",
          "name": "",
          "type": "address"
        }
      ],
      "stateMutability": "view",
      "type": "function"
    },
    {
      "inputs": [],
      "name": "renounceOwnership",
      "outputs": [],
      "stateMutability": "nonpayable",
      "type": "function"
    },
    {
      "inputs": [
        {
          "internalType": "address",
          "name": "newOwner",
          "type": "address"
        }
      ],
      "name": "transferOwnership",
      "outputs": [],
      "stateMutability": "nonpayable",
      "type": "function"
    },
    {
      "inputs": [
        {
          "internalType": "uint256",
          "name": "_amount",
          "type": "uint256"
        },
        {
          "internalType": "string",
          "name": "_symbol",
          "type": "string"
        }
      ],
      "name": "fundArtiste",
      "outputs": [],
      "stateMutability": "nonpayable",
      "type": "function"
    },
    {
      "inputs": [
        {
          "internalType": "string",
          "name": "_symbol",
          "type": "string"
        }
      ],
      "name": "withdrawFund",
      "outputs": [],
      "stateMutability": "nonpayable",
      "type": "function"
    },
    {
      "inputs": [],
      "name": "getFundGoal",
      "outputs": [
        {
          "internalType": "uint256",
          "name": "",
          "type": "uint256"
        }
      ],
      "stateMutability": "view",
      "type": "function"
    },
    {
      "inputs": [],
      "name": "getCreator",
      "outputs": [
        {
          "internalType": "address",
          "name": "",
          "type": "address"
        }
      ],
      "stateMutability": "view",
      "type": "function"
    },
    {
      "inputs": [],
      "name": "getFundBalance",
      "outputs": [
        {
          "internalType": "uint256",
          "name": "",
          "type": "uint256"
        }
      ],
      "stateMutability": "view",
      "type": "function"
    },
    {
      "inputs": [],
      "name": "getFunders",
      "outputs": [
        {
          "internalType": "address[]",
          "name": "",
          "type": "address[]"
        }
      ],
      "stateMutability": "view",
      "type": "function"
    }
  ],
  "bytecode": "0x6080604052600160055534801561001557600080fd5b50604051610bd4380380610bd4833981016040819052610034916101ed565b61003d33610181565b600680546001600160a01b0319166001600160a01b0386161790556001829055604051620cd49160ea1b815260009060099060030190815260408051918290036020908101832083830190925281546001600160a01b03168352600182018054918401916100aa90610230565b80601f01602080910402602001604051908101604052809291908181526020018280546100d690610230565b80156101235780601f106100f857610100808354040283529160200191610123565b820191906000526020600020905b81548152906001019060200180831161010657829003601f168201915b5050509190925250506040805180820182526001600160a01b0397909716875280518082019091526003808252620cd49160ea1b60208084019190915290970152505050600255506000805460ff60a01b191690554290555061026b565b600080546001600160a01b038381166001600160a01b0319831681178455604051919092169283917f8be0079c531659141344cd1fd0a4f28419497f9722a3daafe3b4186f6b6457e09190a35050565b80516001600160a01b03811681146101e857600080fd5b919050565b6000806000806080858703121561020357600080fd5b61020c856101d1565b935061021a602086016101d1565b6040860151606090960151949790965092505050565b600181811c9082168061024457607f821691505b6020821081141561026557634e487b7160e01b600052602260045260246000fd5b50919050565b61095a8061027a6000396000f3fe608060405234801561001057600080fd5b50600436106100835760003560e01c80630ee2cb101461008857806362a44066146100ab578063715018a6146100c05780638da5cb5b146100c8578063b60df55f146100d0578063dae9e379146100e2578063ea63a044146100ea578063ede1e34e146100ff578063f2fde38b14610112575b600080fd5b6006546001600160a01b03165b6040516100a291906106ea565b60405180910390f35b6100be6100b9366004610746565b610125565b005b6100be6102ad565b6100956102f1565b6001545b6040519081526020016100a2565b6004546100d4565b6100f2610300565b6040516100a29190610791565b6100be61010d3660046107de565b610362565b6100be61012036600461081f565b610444565b60008054600160a01b900460ff1660018111156101445761014461084f565b1461014e57600080fd5b600060098383604051610162929190610865565b908152604051908190036020018120546370a0823160e01b82526001600160a01b0316906370a082319061019a9033906004016106ea565b602060405180830381865afa1580156101b7573d6000803e3d6000fd5b505050506040513d601f19601f820116820180604052508101906101db9190610875565b116101e557600080fd5b600083116101f257600080fd5b600254600354610202919061088e565b421061020d57600080fd5b6009828260405161021f929190610865565b9081526040519081900360200181205463095ea7b360e01b82526001600160a01b03169063095ea7b39061025990309087906004016108b4565b6020604051808303816000875af1158015610278573d6000803e3d6000fd5b505050506040513d601f19601f8201168201806040525081019061029c91906108cd565b506102a88383836104e4565b505050565b336102b66102f1565b6001600160a01b0316146102e55760405162461bcd60e51b81526004016102dc906108ef565b60405180910390fd5b6102ef6000610683565b565b6000546001600160a01b031690565b6060600780548060200260200160405190810160405280929190818152602001828054801561035857602002820191906000526020600020905b81546001600160a01b0316815260019091019060200180831161033a575b5050505050905090565b61036a6106d3565b60025460035461037a919061088e565b421161038557600080fd5b60098282604051610397929190610865565b9081526040519081900360200181205463a9059cbb60e01b82526001600160a01b03169063a9059cbb906103d190339047906004016108b4565b6020604051808303816000875af11580156103f0573d6000803e3d6000fd5b505050506040513d601f19601f8201168201806040525081019061041491906108cd565b5060405142907f8fb7683a063fce01879379148293785ee35a9e10932a6ec057f8dc32f87ed42590600090a25050565b3361044d6102f1565b6001600160a01b0316146104735760405162461bcd60e51b81526004016102dc906108ef565b6001600160a01b0381166104d85760405162461bcd60e51b815260206004820152602660248201527f4f776e61626c653a206e6577206f776e657220697320746865207a65726f206160448201526564647265737360d01b60648201526084016102dc565b6104e181610683565b50565b3360008181526008602090815260408083208151808301835281546001600160a01b031681526001918201549084015281518083018352858152808401899052600780548084019091557fa66cc928b5edb82af9bd49922954155ab7b0942694bea4ce44661d9a8736c6880180546001600160a01b03191687179055948452600a9092528220805460ff191690911790556004805486929061058790849061088e565b909155505060405160099061059f9085908590610865565b908152604051908190036020018120546323b872dd60e01b8252336004830152306024830152604482018690526001600160a01b0316906323b872dd906064016020604051808303816000875af11580156105fe573d6000803e3d6000fd5b505050506040513d601f19601f8201168201806040525081019061062291906108cd565b506040514290859033907f0da0bfad31f2a0bd851868e3f093b25ae8a4c1c4a93dea3327b0cbf4d6503f1890600090a4600254600354610662919061088e565b42111561067d576000805460ff60a01b1916600160a01b1790555b50505050565b600080546001600160a01b038381166001600160a01b0319831681178455604051919092169283917f8be0079c531659141344cd1fd0a4f28419497f9722a3daafe3b4186f6b6457e09190a35050565b6006546001600160a01b031633146102ef57600080fd5b6001600160a01b0391909116815260200190565b60008083601f84011261071057600080fd5b5081356001600160401b0381111561072757600080fd5b60208301915083602082850101111561073f57600080fd5b9250929050565b60008060006040848603121561075b57600080fd5b8335925060208401356001600160401b0381111561077857600080fd5b610784868287016106fe565b9497909650939450505050565b6020808252825182820181905260009190848201906040850190845b818110156107d25783516001600160a01b0316835292840192918401916001016107ad565b50909695505050505050565b600080602083850312156107f157600080fd5b82356001600160401b0381111561080757600080fd5b610813858286016106fe565b90969095509350505050565b60006020828403121561083157600080fd5b81356001600160a01b038116811461084857600080fd5b9392505050565b634e487b7160e01b600052602160045260246000fd5b8183823760009101908152919050565b60006020828403121561088757600080fd5b5051919050565b600082198211156108af57634e487b7160e01b600052601160045260246000fd5b500190565b6001600160a01b03929092168252602082015260400190565b6000602082840312156108df57600080fd5b8151801515811461084857600080fd5b6020808252818101527f4f776e61626c653a2063616c6c6572206973206e6f7420746865206f776e657260408201526060019056fea26469706673582212201bb69e892540b7b816e45649b84a245f0bf418fc1dab1fea48871b24644ba57164736f6c634300080b0033",
  "immutableReferences": {},
  "source": "// SPDX-License-Identifier: MIT\r\npragma solidity ^0.8.4;\r\npragma experimental ABIEncoderV2;\r\n\r\nimport \"@openzeppelin/contracts/utils/Address.sol\";\r\nimport \"@openzeppelin/contracts/access/AccessControl.sol\";\r\nimport \"@openzeppelin/contracts/access/Ownable.sol\";\r\nimport \"@openzeppelin/contracts/token/ERC20/IERC20.sol\";\r\n\r\ncontract CroudfundNonRefundable is Ownable {\r\n\r\n    using Address for address;\r\n\r\n    event FundAdded(address indexed funder, uint indexed amount, uint indexed time);\r\n    event FundWithdrawn(uint indexed time);\r\n\r\n    enum FundState {\r\n        OPEN,\r\n        CLOSED\r\n    }\r\n\r\n    FundState fundState;\r\n    \r\n    uint fundGoal;\r\n    uint fundingTime;\r\n    uint startTime;\r\n    uint fundBalance;\r\n    uint productId = 1;\r\n    address creator;\r\n    address[] fundersLog;\r\n    \r\n    struct Funder {\r\n        address addr;\r\n        uint amount;\r\n    }\r\n\r\n    struct Token {\r\n        address tokenAddress;\r\n        string symbol;\r\n    }\r\n\r\n    mapping (address => Funder) funderMap;\r\n    mapping (string => Token) tokenAllowed;\r\n    mapping (address => bool) isFunder;\r\n\r\n    modifier onlyCreator {\r\n        _onlyCreator();\r\n        _;\r\n    }\r\n\r\n    constructor (address _creator, address _picardyTokenAddress, uint _fundGoal, uint _fundingTime){\r\n        \r\n        creator = _creator;\r\n        fundGoal = _fundGoal;\r\n        \r\n        Token memory newToken = tokenAllowed['3RD'];\r\n        newToken = Token(_picardyTokenAddress, '3RD');\r\n        \r\n        fundingTime = _fundingTime;\r\n        fundState = FundState.OPEN;\r\n        startTime = block.timestamp;\r\n    }\r\n\r\n    /**\r\n    \r\n    */\r\n    function fundArtiste(uint _amount, string calldata _symbol) external {\r\n        require(fundState == FundState.OPEN);\r\n        require(IERC20(tokenAllowed[_symbol].tokenAddress).balanceOf(msg.sender) > 0);\r\n        require(_amount > 0);\r\n        require(block.timestamp < startTime + fundingTime);\r\n\r\n        IERC20(tokenAllowed[_symbol].tokenAddress).approve(address(this), _amount);\r\n\r\n        _fundArtiste(_amount, _symbol);\r\n    }\r\n\r\n    /**\r\n    \r\n    */\r\n    function withdrawFund(string calldata _symbol) external onlyCreator{\r\n        require(block.timestamp > startTime + fundingTime);\r\n        IERC20(tokenAllowed[_symbol].tokenAddress).transfer(msg.sender, address(this).balance);\r\n\r\n        emit FundWithdrawn(block.timestamp);\r\n    }\r\n\r\n  \r\n\r\n    // GETTER FUNCTIONS//\r\n\r\n    function getFundGoal() external view returns(uint ){\r\n        return fundGoal;\r\n    }\r\n\r\n    function getCreator() external view returns(address){\r\n        return creator;\r\n    }\r\n\r\n    function getFundBalance() external view returns(uint){\r\n        return fundBalance;\r\n    }\r\n\r\n    function getFunders() external view returns(address[] memory){\r\n        return fundersLog;\r\n    }\r\n\r\n\r\n    // INTERNAL FUNCTIONS //\r\n\r\n    /**\r\n    \r\n    */\r\n    function _fundArtiste(uint _amount, string calldata _symbol) internal {\r\n\r\n        Funder memory newFunder = funderMap[msg.sender];\r\n        newFunder = Funder(msg.sender, _amount);\r\n        \r\n        fundersLog.push(msg.sender);\r\n        isFunder[msg.sender] = true;\r\n        fundBalance += _amount;\r\n\r\n        IERC20(tokenAllowed[_symbol].tokenAddress).transferFrom(msg.sender, address(this), _amount);\r\n\r\n        emit FundAdded(msg.sender, _amount, block.timestamp);\r\n\r\n        if(block.timestamp > startTime + fundingTime){\r\n            fundState = FundState.CLOSED;\r\n        }\r\n    }\r\n\r\n    function _onlyCreator() internal view {\r\n        require (msg.sender == creator);\r\n    }\r\n}",
  "sourcePath": "C:\\Users\\USER\\Desktop\\Picardy_Protocol\\contracts\\Products\\CroudfundNonRefundable.sol",
  "compiler": {
    "name": "solc",
    "version": "0.8.11+commit.d7f03943.Emscripten.clang"
  },
  "schemaVersion": "3.4.6",
  "updatedAt": "2022-05-27T16:24:58.620Z",
  "devdoc": {
    "kind": "dev",
    "methods": {
      "owner()": {
        "details": "Returns the address of the current owner."
      },
      "renounceOwnership()": {
        "details": "Leaves the contract without owner. It will not be possible to call `onlyOwner` functions anymore. Can only be called by the current owner. NOTE: Renouncing ownership will leave the contract without an owner, thereby removing any functionality that is only available to the owner."
      },
      "transferOwnership(address)": {
        "details": "Transfers ownership of the contract to a new account (`newOwner`). Can only be called by the current owner."
      }
    },
    "version": 1
  },
  "userdoc": {
    "kind": "user",
    "methods": {},
    "version": 1
  }
}