{
  "contractName": "CroudfundRefundableV1",
  "abi": [
    {
      "inputs": [
        {
          "internalType": "address",
          "name": "_creator",
          "type": "address"
        },
        {
          "internalType": "address",
          "name": "_picardyTokenAddress",
          "type": "address"
        },
        {
          "internalType": "uint256",
          "name": "_fundGoal",
          "type": "uint256"
        },
        {
          "internalType": "uint256",
          "name": "_amountRequested",
          "type": "uint256"
        },
        {
          "internalType": "uint256",
          "name": "_fundingTime",
          "type": "uint256"
        }
      ],
      "stateMutability": "nonpayable",
      "type": "constructor"
    },
    {
      "anonymous": false,
      "inputs": [
        {
          "indexed": true,
          "internalType": "address",
          "name": "funder",
          "type": "address"
        },
        {
          "indexed": true,
          "internalType": "uint256",
          "name": "amount",
          "type": "uint256"
        },
        {
          "indexed": true,
          "internalType": "uint256",
          "name": "time",
          "type": "uint256"
        }
      ],
      "name": "FundAdded",
      "type": "event"
    },
    {
      "anonymous": false,
      "inputs": [
        {
          "indexed": true,
          "internalType": "uint256",
          "name": "time",
          "type": "uint256"
        }
      ],
      "name": "FundWithdrawn",
      "type": "event"
    },
    {
      "anonymous": false,
      "inputs": [
        {
          "indexed": true,
          "internalType": "address",
          "name": "previousOwner",
          "type": "address"
        },
        {
          "indexed": true,
          "internalType": "address",
          "name": "newOwner",
          "type": "address"
        }
      ],
      "name": "OwnershipTransferred",
      "type": "event"
    },
    {
      "anonymous": false,
      "inputs": [
        {
          "indexed": true,
          "internalType": "uint256",
          "name": "amount",
          "type": "uint256"
        },
        {
          "indexed": true,
          "internalType": "uint256",
          "name": "time",
          "type": "uint256"
        }
      ],
      "name": "Refunded",
      "type": "event"
    },
    {
      "anonymous": false,
      "inputs": [
        {
          "indexed": true,
          "internalType": "address",
          "name": "funder",
          "type": "address"
        },
        {
          "indexed": true,
          "internalType": "uint256",
          "name": "amount",
          "type": "uint256"
        },
        {
          "indexed": true,
          "internalType": "uint256",
          "name": "time",
          "type": "uint256"
        }
      ],
      "name": "RewardWithdrawn",
      "type": "event"
    },
    {
      "inputs": [],
      "name": "owner",
      "outputs": [
        {
          "internalType": "address",
          "name": "",
          "type": "address"
        }
      ],
      "stateMutability": "view",
      "type": "function"
    },
    {
      "inputs": [],
      "name": "renounceOwnership",
      "outputs": [],
      "stateMutability": "nonpayable",
      "type": "function"
    },
    {
      "inputs": [
        {
          "internalType": "address",
          "name": "newOwner",
          "type": "address"
        }
      ],
      "name": "transferOwnership",
      "outputs": [],
      "stateMutability": "nonpayable",
      "type": "function"
    },
    {
      "inputs": [
        {
          "internalType": "uint256",
          "name": "_amount",
          "type": "uint256"
        },
        {
          "internalType": "string",
          "name": "_symbol",
          "type": "string"
        }
      ],
      "name": "fundArtiste",
      "outputs": [],
      "stateMutability": "nonpayable",
      "type": "function"
    },
    {
      "inputs": [
        {
          "internalType": "string",
          "name": "_symbol",
          "type": "string"
        }
      ],
      "name": "withdrawFund",
      "outputs": [],
      "stateMutability": "nonpayable",
      "type": "function"
    },
    {
      "inputs": [
        {
          "internalType": "uint256",
          "name": "_amount",
          "type": "uint256"
        }
      ],
      "name": "refund",
      "outputs": [],
      "stateMutability": "nonpayable",
      "type": "function"
    },
    {
      "inputs": [
        {
          "internalType": "uint256",
          "name": "_amount",
          "type": "uint256"
        },
        {
          "internalType": "string",
          "name": "_symbol",
          "type": "string"
        }
      ],
      "name": "withdrawRefunds",
      "outputs": [],
      "stateMutability": "nonpayable",
      "type": "function"
    },
    {
      "inputs": [],
      "name": "getFundGoal",
      "outputs": [
        {
          "internalType": "uint256",
          "name": "",
          "type": "uint256"
        }
      ],
      "stateMutability": "view",
      "type": "function"
    },
    {
      "inputs": [],
      "name": "getReturnBalance",
      "outputs": [
        {
          "internalType": "uint256",
          "name": "",
          "type": "uint256"
        }
      ],
      "stateMutability": "view",
      "type": "function"
    },
    {
      "inputs": [],
      "name": "getCreator",
      "outputs": [
        {
          "internalType": "address",
          "name": "",
          "type": "address"
        }
      ],
      "stateMutability": "view",
      "type": "function"
    },
    {
      "inputs": [],
      "name": "getFundBalance",
      "outputs": [
        {
          "internalType": "uint256",
          "name": "",
          "type": "uint256"
        }
      ],
      "stateMutability": "view",
      "type": "function"
    },
    {
      "inputs": [],
      "name": "getFunders",
      "outputs": [
        {
          "internalType": "address[]",
          "name": "",
          "type": "address[]"
        }
      ],
      "stateMutability": "view",
      "type": "function"
    }
  ],
  "bytecode": "0x60806040523480156200001157600080fd5b5060405162000fc638038062000fc6833981016040819052620000349162000200565b6200003f3362000193565b600680546001600160a01b0319166001600160a01b03871617905560028290556001839055604051620cd49160ea1b815260009060099060030190815260408051918290036020908101832083830190925281546001600160a01b0316835260018201805491840191620000b39062000253565b80601f0160208091040260200160405190810160405280929190818152602001828054620000e19062000253565b8015620001325780601f10620001065761010080835404028352916020019162000132565b820191906000526020600020905b8154815290600101906020018083116200011457829003601f168201915b5050509190925250506040805180820182526001600160a01b0398909816885280518082019091526003808252620cd49160ea1b6020808401919091529098015250505090925550506000805460ff60a01b19169055504260045562000290565b600080546001600160a01b038381166001600160a01b0319831681178455604051919092169283917f8be0079c531659141344cd1fd0a4f28419497f9722a3daafe3b4186f6b6457e09190a35050565b80516001600160a01b0381168114620001fb57600080fd5b919050565b600080600080600060a086880312156200021957600080fd5b6200022486620001e3565b94506200023460208701620001e3565b6040870151606088015160809098015196999198509695945092505050565b600181811c908216806200026857607f821691505b602082108114156200028a57634e487b7160e01b600052602260045260246000fd5b50919050565b610d2680620002a06000396000f3fe608060405234801561001057600080fd5b50600436106100a45760003560e01c80630ee2cb10146100a9578063278ecde1146100cc5780634e2ce964146100e157806362a44066146100f4578063715018a6146101075780638da5cb5b1461010f578063b60df55f14610117578063dae9e37914610129578063ea63a04414610131578063eb69ce9714610146578063ede1e34e1461014e578063f2fde38b14610161575b600080fd5b6006546001600160a01b03165b6040516100c39190610a0c565b60405180910390f35b6100df6100da366004610a20565b610174565b005b6100df6100ef366004610a81565b6101b2565b6100df610102366004610a81565b6101e5565b6100df610368565b6100b66103ac565b6001545b6040519081526020016100c3565b60055461011b565b6101396103bb565b6040516100c39190610acc565b61011b61041d565b6100df61015c366004610b19565b61043b565b6100df61016f366004610b5a565b61051d565b61017c6105ba565b6001600054600160a01b900460ff16600281111561019c5761019c610b8a565b146101a657600080fd5b6101af816105d1565b50565b6101ba610701565b336000908152600a602052604090205483106101d557600080fd5b6101e0838383610722565b505050565b60008054600160a01b900460ff16600281111561020457610204610b8a565b1461020e57600080fd5b600060098383604051610222929190610ba0565b908152604051908190036020018120546370a0823160e01b82526001600160a01b0316906370a082319061025a903390600401610a0c565b602060405180830381865afa158015610277573d6000803e3d6000fd5b505050506040513d601f19601f8201168201806040525081019061029b9190610bb0565b116102a557600080fd5b600083116102b257600080fd5b6003546004546102c29190610bdf565b42106102cd57600080fd5b600982826040516102df929190610ba0565b9081526040519081900360200181205463095ea7b360e01b82526001600160a01b03169063095ea7b3906103199030908790600401610bf7565b6020604051808303816000875af1158015610338573d6000803e3d6000fd5b505050506040513d601f19601f8201168201806040525081019061035c9190610c10565b506101e083838361080b565b336103716103ac565b6001600160a01b0316146103a05760405162461bcd60e51b815260040161039790610c32565b60405180910390fd5b6103aa60006109bc565b565b6000546001600160a01b031690565b6060600780548060200260200160405190810160405280929190818152602001828054801561041357602002820191906000526020600020905b81546001600160a01b031681526001909101906020018083116103f5575b5050505050905090565b6000610427610701565b50336000908152600a602052604090205490565b6104436105ba565b6003546004546104539190610bdf565b421161045e57600080fd5b60098282604051610470929190610ba0565b9081526040519081900360200181205463a9059cbb60e01b82526001600160a01b03169063a9059cbb906104aa9033904790600401610bf7565b6020604051808303816000875af11580156104c9573d6000803e3d6000fd5b505050506040513d601f19601f820116820180604052508101906104ed9190610c10565b5060405142907f8fb7683a063fce01879379148293785ee35a9e10932a6ec057f8dc32f87ed42590600090a25050565b336105266103ac565b6001600160a01b03161461054c5760405162461bcd60e51b815260040161039790610c32565b6001600160a01b0381166105b15760405162461bcd60e51b815260206004820152602660248201527f4f776e61626c653a206e6577206f776e657220697320746865207a65726f206160448201526564647265737360d01b6064820152608401610397565b6101af816109bc565b6006546001600160a01b031633146103aa57600080fd5b60005b6007548110156106bf57600060086000600784815481106105f7576105f7610c67565b60009182526020808320909101546001600160a01b0316835282019290925260400181206001015460055490925061062f9083610c7d565b61063a906064610c9f565b905060008461064a606484610c7d565b6106549190610c9f565b905080600a60006007878154811061066e5761066e610c67565b60009182526020808320909101546001600160a01b03168352820192909252604001812080549091906106a2908490610bdf565b9250508190555050505080806106b790610cbe565b9150506105d4565b506000805460ff60a01b1916600160a11b178155604051429183917fb7c1f9298a18c36af08bd57eabbfbeb04695f24d0438f67614741ec15fb5c4a99190a350565b336000908152600b602052604090205460ff1615156001146103aa57600080fd5b336000908152600a602052604081208054859290610741908490610cd9565b90915550506040516009906107599084908490610ba0565b9081526040519081900360200181205463a9059cbb60e01b82526001600160a01b03169063a9059cbb906107939033908790600401610bf7565b6020604051808303816000875af11580156107b2573d6000803e3d6000fd5b505050506040513d601f19601f820116820180604052508101906107d69190610c10565b506040514290849033907fa41482a3e45841df1c6d33f45217a1cbe5ce4c6ab246e31f4e5efdef0acfeea290600090a4505050565b3360008181526008602090815260408083208151808301835281546001600160a01b031681526001918201549084015281518083018352858152808401899052600780548084019091557fa66cc928b5edb82af9bd49922954155ab7b0942694bea4ce44661d9a8736c6880180546001600160a01b03191687179055948452600b9092528220805460ff19169091179055600580548692906108ae908490610bdf565b9091555050336000908152600a602052604080822091909155516009906108d89085908590610ba0565b908152604051908190036020018120546323b872dd60e01b8252336004830152306024830152604482018690526001600160a01b0316906323b872dd906064016020604051808303816000875af1158015610937573d6000803e3d6000fd5b505050506040513d601f19601f8201168201806040525081019061095b9190610c10565b506040514290859033907f0da0bfad31f2a0bd851868e3f093b25ae8a4c1c4a93dea3327b0cbf4d6503f1890600090a460035460045461099b9190610bdf565b4211156109b6576000805460ff60a01b1916600160a01b1790555b50505050565b600080546001600160a01b038381166001600160a01b0319831681178455604051919092169283917f8be0079c531659141344cd1fd0a4f28419497f9722a3daafe3b4186f6b6457e09190a35050565b6001600160a01b0391909116815260200190565b600060208284031215610a3257600080fd5b5035919050565b60008083601f840112610a4b57600080fd5b5081356001600160401b03811115610a6257600080fd5b602083019150836020828501011115610a7a57600080fd5b9250929050565b600080600060408486031215610a9657600080fd5b8335925060208401356001600160401b03811115610ab357600080fd5b610abf86828701610a39565b9497909650939450505050565b6020808252825182820181905260009190848201906040850190845b81811015610b0d5783516001600160a01b031683529284019291840191600101610ae8565b50909695505050505050565b60008060208385031215610b2c57600080fd5b82356001600160401b03811115610b4257600080fd5b610b4e85828601610a39565b90969095509350505050565b600060208284031215610b6c57600080fd5b81356001600160a01b0381168114610b8357600080fd5b9392505050565b634e487b7160e01b600052602160045260246000fd5b8183823760009101908152919050565b600060208284031215610bc257600080fd5b5051919050565b634e487b7160e01b600052601160045260246000fd5b60008219821115610bf257610bf2610bc9565b500190565b6001600160a01b03929092168252602082015260400190565b600060208284031215610c2257600080fd5b81518015158114610b8357600080fd5b6020808252818101527f4f776e61626c653a2063616c6c6572206973206e6f7420746865206f776e6572604082015260600190565b634e487b7160e01b600052603260045260246000fd5b600082610c9a57634e487b7160e01b600052601260045260246000fd5b500490565b6000816000190483118215151615610cb957610cb9610bc9565b500290565b6000600019821415610cd257610cd2610bc9565b5060010190565b600082821015610ceb57610ceb610bc9565b50039056fea26469706673582212209dbc1393163d883913a8a8e54fbb2ee18548d281fc4c319567998fb785f567c964736f6c634300080b0033",
  "immutableReferences": {},
  "source": "// SPDX-License-Identifier: MIT\r\npragma solidity ^0.8.4;\r\npragma experimental ABIEncoderV2;\r\n\r\nimport \"@openzeppelin/contracts/utils/Address.sol\";\r\nimport \"@openzeppelin/contracts/access/AccessControl.sol\";\r\nimport \"@openzeppelin/contracts/access/Ownable.sol\";\r\nimport \"@openzeppelin/contracts/token/ERC20/IERC20.sol\";\r\n\r\ncontract CroudfundRefundableV1 is Ownable {\r\n\r\n    using Address for address;\r\n\r\n    event FundAdded(address indexed funder, uint indexed amount, uint indexed time);\r\n    event FundWithdrawn(uint indexed time);\r\n    event Refunded(uint indexed amount, uint indexed time);\r\n    event RewardWithdrawn(address indexed funder, uint indexed amount, uint indexed time);\r\n\r\n    enum FundState {\r\n        OPEN,\r\n        REPAYMENT,\r\n        CLOSED\r\n    }\r\n\r\n    FundState fundState;\r\n    \r\n    uint fundGoal;\r\n    uint amountRequested;\r\n    uint fundingTime;\r\n    uint startTime;\r\n    uint fundBalance;\r\n    address creator;\r\n    address[] fundersLog;\r\n    \r\n    struct Funder {\r\n        address addr;\r\n        uint amount;\r\n    }\r\n\r\n    struct Token {\r\n        address tokenAddress;\r\n        string symbol;\r\n    }\r\n\r\n    mapping (address => Funder) funderMap;\r\n    mapping (string => Token) tokenAllowed;\r\n    mapping (address => uint) returnBalance;\r\n    mapping (address => bool) isFunder;\r\n\r\n    modifier onlyCreator {\r\n        _onlyCreator();\r\n        _;\r\n    }\r\n\r\n    modifier onlyFunder {\r\n        _onlyFunder();\r\n        _;\r\n    }\r\n\r\n    constructor (address _creator, address _picardyTokenAddress, uint _fundGoal, uint _amountRequested, uint _fundingTime){\r\n        \r\n        creator = _creator;\r\n        amountRequested = _amountRequested;\r\n        fundGoal = _fundGoal;\r\n        \r\n        Token memory newToken = tokenAllowed['3RD'];\r\n        newToken = Token(_picardyTokenAddress, '3RD');\r\n        \r\n        fundingTime = _fundingTime;\r\n        fundState = FundState.OPEN;\r\n        startTime = block.timestamp;\r\n    }\r\n\r\n    function fundArtiste(uint _amount, string calldata _symbol) external {\r\n        require(fundState == FundState.OPEN);\r\n        require(IERC20(tokenAllowed[_symbol].tokenAddress).balanceOf(msg.sender) > 0);\r\n        require(_amount > 0);\r\n        require(block.timestamp < startTime + fundingTime);\r\n\r\n        IERC20(tokenAllowed[_symbol].tokenAddress).approve(address(this), _amount);\r\n\r\n        _fundArtiste(_amount, _symbol);\r\n    }\r\n\r\n    function withdrawFund(string calldata _symbol) external onlyCreator{\r\n        require(block.timestamp > startTime + fundingTime);\r\n        IERC20(tokenAllowed[_symbol].tokenAddress).transfer(msg.sender, address(this).balance);\r\n\r\n        emit FundWithdrawn(block.timestamp);\r\n    }\r\n\r\n    function refund(uint _amount) external onlyCreator {\r\n        require(fundState == FundState.REPAYMENT);\r\n        _refund(_amount);\r\n    }\r\n\r\n    function withdrawRefunds(uint _amount, string calldata _symbol) external onlyFunder{\r\n        require(returnBalance[msg.sender] > _amount);\r\n\r\n        _withdrawRefunds(_amount, _symbol);\r\n    }\r\n\r\n    // GETTER FUNCTIONS//\r\n\r\n    function getFundGoal() external view returns(uint ){\r\n        return fundGoal;\r\n    }\r\n\r\n    function getReturnBalance() external view onlyFunder returns(uint){\r\n        return returnBalance[msg.sender];\r\n    }\r\n\r\n    function getCreator() external view returns(address){\r\n        return creator;\r\n    }\r\n\r\n    function getFundBalance() external view returns(uint){\r\n        return fundBalance;\r\n    }\r\n\r\n    function getFunders() external view returns(address[] memory){\r\n        return fundersLog;\r\n    }\r\n\r\n\r\n    // INTERNAL FUNCTIONS //\r\n\r\n    function _fundArtiste(uint _amount, string calldata _symbol) internal {\r\n\r\n        Funder memory newFunder = funderMap[msg.sender];\r\n        newFunder = Funder(msg.sender, _amount);\r\n        \r\n        fundersLog.push(msg.sender);\r\n        isFunder[msg.sender] = true;\r\n        fundBalance += _amount;\r\n        returnBalance[msg.sender] = 0;\r\n\r\n        IERC20(tokenAllowed[_symbol].tokenAddress).transferFrom(msg.sender, address(this), _amount);\r\n\r\n        emit FundAdded(msg.sender, _amount, block.timestamp);\r\n\r\n        if(block.timestamp > startTime + fundingTime){\r\n            fundState = FundState.REPAYMENT;\r\n        }\r\n    }\r\n\r\n    function _refund(uint _amount) internal {\r\n\r\n        for(uint i = 0; i < fundersLog.length; i++){\r\n            uint fundedAmount = funderMap[fundersLog[i]].amount;\r\n            uint funderPercentage = (fundedAmount / fundBalance) * 100;\r\n            \r\n            uint toRefund = (funderPercentage / 100) * _amount;\r\n\r\n            returnBalance[fundersLog[i]] += toRefund;\r\n        }\r\n\r\n        fundState = FundState.CLOSED;\r\n\r\n        emit Refunded(_amount, block.timestamp);\r\n    }\r\n\r\n    function _withdrawRefunds(uint _amount, string calldata _symbol) internal {\r\n        \r\n        returnBalance[msg.sender] -= _amount;\r\n        IERC20(tokenAllowed[_symbol].tokenAddress).transfer(msg.sender, _amount);\r\n\r\n        emit RewardWithdrawn(msg.sender, _amount, block.timestamp);\r\n    }\r\n\r\n    function _onlyCreator() internal view {\r\n        require (msg.sender == creator);\r\n    }\r\n\r\n    function _onlyFunder() internal view {\r\n        require (isFunder[msg.sender] == true);\r\n    }\r\n\r\n}",
  "sourcePath": "C:\\Users\\USER\\Desktop\\Picardy_Protocol\\contracts\\Products\\CroudfundRefundableV1.sol",
  "compiler": {
    "name": "solc",
    "version": "0.8.11+commit.d7f03943.Emscripten.clang"
  },
  "schemaVersion": "3.4.6",
  "updatedAt": "2022-05-14T16:27:46.553Z",
  "devdoc": {
    "kind": "dev",
    "methods": {
      "owner()": {
        "details": "Returns the address of the current owner."
      },
      "renounceOwnership()": {
        "details": "Leaves the contract without owner. It will not be possible to call `onlyOwner` functions anymore. Can only be called by the current owner. NOTE: Renouncing ownership will leave the contract without an owner, thereby removing any functionality that is only available to the owner."
      },
      "transferOwnership(address)": {
        "details": "Transfers ownership of the contract to a new account (`newOwner`). Can only be called by the current owner."
      }
    },
    "version": 1
  },
  "userdoc": {
    "kind": "user",
    "methods": {},
    "version": 1
  }
}