{
  "contractName": "CrowdfundFactory",
  "abi": [
    {
      "inputs": [
        {
          "internalType": "address",
          "name": "_PICARDY_HUB",
          "type": "address"
        },
        {
          "internalType": "address",
          "name": "_PICARDY_TOKEN",
          "type": "address"
        }
      ],
      "stateMutability": "nonpayable",
      "type": "constructor"
    },
    {
      "anonymous": false,
      "inputs": [
        {
          "indexed": true,
          "internalType": "address",
          "name": "previousOwner",
          "type": "address"
        },
        {
          "indexed": true,
          "internalType": "address",
          "name": "newOwner",
          "type": "address"
        }
      ],
      "name": "OwnershipTransferred",
      "type": "event"
    },
    {
      "inputs": [],
      "name": "owner",
      "outputs": [
        {
          "internalType": "address",
          "name": "",
          "type": "address"
        }
      ],
      "stateMutability": "view",
      "type": "function"
    },
    {
      "inputs": [],
      "name": "renounceOwnership",
      "outputs": [],
      "stateMutability": "nonpayable",
      "type": "function"
    },
    {
      "inputs": [
        {
          "internalType": "address",
          "name": "newOwner",
          "type": "address"
        }
      ],
      "name": "transferOwnership",
      "outputs": [],
      "stateMutability": "nonpayable",
      "type": "function"
    },
    {
      "inputs": [
        {
          "internalType": "uint256",
          "name": "_fundGoal",
          "type": "uint256"
        },
        {
          "internalType": "uint256",
          "name": "_fundingTime",
          "type": "uint256"
        },
        {
          "internalType": "uint256",
          "name": "_profileId",
          "type": "uint256"
        }
      ],
      "name": "createCrowdfund",
      "outputs": [],
      "stateMutability": "nonpayable",
      "type": "function"
    }
  ],
  "bytecode": "0x60c060405234801561001057600080fd5b5060405161121438038061121483398101604081905261002f9161019a565b6100383361005e565b6001600160a01b03808316608081905290821660a052610057906100ae565b50506101cd565b600080546001600160a01b038381166001600160a01b0319831681178455604051919092169283917f8be0079c531659141344cd1fd0a4f28419497f9722a3daafe3b4186f6b6457e09190a35050565b6000546001600160a01b0316331461010d5760405162461bcd60e51b815260206004820181905260248201527f4f776e61626c653a2063616c6c6572206973206e6f7420746865206f776e657260448201526064015b60405180910390fd5b6001600160a01b0381166101725760405162461bcd60e51b815260206004820152602660248201527f4f776e61626c653a206e6577206f776e657220697320746865207a65726f206160448201526564647265737360d01b6064820152608401610104565b61017b8161005e565b50565b80516001600160a01b038116811461019557600080fd5b919050565b600080604083850312156101ad57600080fd5b6101b68361017e565b91506101c46020840161017e565b90509250929050565b60805160a0516110236101f160003960006101380152600060be01526110236000f3fe608060405234801561001057600080fd5b506004361061004c5760003560e01c80630a097cae14610051578063715018a6146100665780638da5cb5b1461006e578063f2fde38b14610092575b600080fd5b61006461005f366004610362565b6100a5565b005b610064610212565b610076610256565b6040516001600160a01b03909116815260200160405180910390f35b6100646100a03660046103a3565b610265565b6040516336e3382360e21b8152600481018290526000907f00000000000000000000000000000000000000000000000000000000000000006001600160a01b03169063db8ce08c90602401602060405180830381865afa15801561010d573d6000803e3d6000fd5b505050506040513d601f19601f8201168201806040525081019061013191906103c7565b90506000337f0000000000000000000000000000000000000000000000000000000000000000868660405161016590610355565b6001600160a01b03948516815293909216602084015260408301526060820152608001604051809103906000f0801580156101a4573d6000803e3d6000fd5b50604051636eabe6a360e11b8152600160048201526001600160a01b0380831660248301529192509083169063dd57cd4690604401600060405180830381600087803b1580156101f357600080fd5b505af1158015610207573d6000803e3d6000fd5b505050505050505050565b3361021b610256565b6001600160a01b03161461024a5760405162461bcd60e51b8152600401610241906103e4565b60405180910390fd5b6102546000610305565b565b6000546001600160a01b031690565b3361026e610256565b6001600160a01b0316146102945760405162461bcd60e51b8152600401610241906103e4565b6001600160a01b0381166102f95760405162461bcd60e51b815260206004820152602660248201527f4f776e61626c653a206e6577206f776e657220697320746865207a65726f206160448201526564647265737360d01b6064820152608401610241565b61030281610305565b50565b600080546001600160a01b038381166001600160a01b0319831681178455604051919092169283917f8be0079c531659141344cd1fd0a4f28419497f9722a3daafe3b4186f6b6457e09190a35050565b610bd48061041a83390190565b60008060006060848603121561037757600080fd5b505081359360208301359350604090920135919050565b6001600160a01b038116811461030257600080fd5b6000602082840312156103b557600080fd5b81356103c08161038e565b9392505050565b6000602082840312156103d957600080fd5b81516103c08161038e565b6020808252818101527f4f776e61626c653a2063616c6c6572206973206e6f7420746865206f776e657260408201526060019056fe6080604052600160055534801561001557600080fd5b50604051610bd4380380610bd4833981016040819052610034916101ed565b61003d33610181565b600680546001600160a01b0319166001600160a01b0386161790556001829055604051620cd49160ea1b815260009060099060030190815260408051918290036020908101832083830190925281546001600160a01b03168352600182018054918401916100aa90610230565b80601f01602080910402602001604051908101604052809291908181526020018280546100d690610230565b80156101235780601f106100f857610100808354040283529160200191610123565b820191906000526020600020905b81548152906001019060200180831161010657829003601f168201915b5050509190925250506040805180820182526001600160a01b0397909716875280518082019091526003808252620cd49160ea1b60208084019190915290970152505050600255506000805460ff60a01b191690554290555061026b565b600080546001600160a01b038381166001600160a01b0319831681178455604051919092169283917f8be0079c531659141344cd1fd0a4f28419497f9722a3daafe3b4186f6b6457e09190a35050565b80516001600160a01b03811681146101e857600080fd5b919050565b6000806000806080858703121561020357600080fd5b61020c856101d1565b935061021a602086016101d1565b6040860151606090960151949790965092505050565b600181811c9082168061024457607f821691505b6020821081141561026557634e487b7160e01b600052602260045260246000fd5b50919050565b61095a8061027a6000396000f3fe608060405234801561001057600080fd5b50600436106100835760003560e01c80630ee2cb101461008857806362a44066146100ab578063715018a6146100c05780638da5cb5b146100c8578063b60df55f146100d0578063dae9e379146100e2578063ea63a044146100ea578063ede1e34e146100ff578063f2fde38b14610112575b600080fd5b6006546001600160a01b03165b6040516100a291906106ea565b60405180910390f35b6100be6100b9366004610746565b610125565b005b6100be6102ad565b6100956102f1565b6001545b6040519081526020016100a2565b6004546100d4565b6100f2610300565b6040516100a29190610791565b6100be61010d3660046107de565b610362565b6100be61012036600461081f565b610444565b60008054600160a01b900460ff1660018111156101445761014461084f565b1461014e57600080fd5b600060098383604051610162929190610865565b908152604051908190036020018120546370a0823160e01b82526001600160a01b0316906370a082319061019a9033906004016106ea565b602060405180830381865afa1580156101b7573d6000803e3d6000fd5b505050506040513d601f19601f820116820180604052508101906101db9190610875565b116101e557600080fd5b600083116101f257600080fd5b600254600354610202919061088e565b421061020d57600080fd5b6009828260405161021f929190610865565b9081526040519081900360200181205463095ea7b360e01b82526001600160a01b03169063095ea7b39061025990309087906004016108b4565b6020604051808303816000875af1158015610278573d6000803e3d6000fd5b505050506040513d601f19601f8201168201806040525081019061029c91906108cd565b506102a88383836104e4565b505050565b336102b66102f1565b6001600160a01b0316146102e55760405162461bcd60e51b81526004016102dc906108ef565b60405180910390fd5b6102ef6000610683565b565b6000546001600160a01b031690565b6060600780548060200260200160405190810160405280929190818152602001828054801561035857602002820191906000526020600020905b81546001600160a01b0316815260019091019060200180831161033a575b5050505050905090565b61036a6106d3565b60025460035461037a919061088e565b421161038557600080fd5b60098282604051610397929190610865565b9081526040519081900360200181205463a9059cbb60e01b82526001600160a01b03169063a9059cbb906103d190339047906004016108b4565b6020604051808303816000875af11580156103f0573d6000803e3d6000fd5b505050506040513d601f19601f8201168201806040525081019061041491906108cd565b5060405142907f8fb7683a063fce01879379148293785ee35a9e10932a6ec057f8dc32f87ed42590600090a25050565b3361044d6102f1565b6001600160a01b0316146104735760405162461bcd60e51b81526004016102dc906108ef565b6001600160a01b0381166104d85760405162461bcd60e51b815260206004820152602660248201527f4f776e61626c653a206e6577206f776e657220697320746865207a65726f206160448201526564647265737360d01b60648201526084016102dc565b6104e181610683565b50565b3360008181526008602090815260408083208151808301835281546001600160a01b031681526001918201549084015281518083018352858152808401899052600780548084019091557fa66cc928b5edb82af9bd49922954155ab7b0942694bea4ce44661d9a8736c6880180546001600160a01b03191687179055948452600a9092528220805460ff191690911790556004805486929061058790849061088e565b909155505060405160099061059f9085908590610865565b908152604051908190036020018120546323b872dd60e01b8252336004830152306024830152604482018690526001600160a01b0316906323b872dd906064016020604051808303816000875af11580156105fe573d6000803e3d6000fd5b505050506040513d601f19601f8201168201806040525081019061062291906108cd565b506040514290859033907f0da0bfad31f2a0bd851868e3f093b25ae8a4c1c4a93dea3327b0cbf4d6503f1890600090a4600254600354610662919061088e565b42111561067d576000805460ff60a01b1916600160a01b1790555b50505050565b600080546001600160a01b038381166001600160a01b0319831681178455604051919092169283917f8be0079c531659141344cd1fd0a4f28419497f9722a3daafe3b4186f6b6457e09190a35050565b6006546001600160a01b031633146102ef57600080fd5b6001600160a01b0391909116815260200190565b60008083601f84011261071057600080fd5b5081356001600160401b0381111561072757600080fd5b60208301915083602082850101111561073f57600080fd5b9250929050565b60008060006040848603121561075b57600080fd5b8335925060208401356001600160401b0381111561077857600080fd5b610784868287016106fe565b9497909650939450505050565b6020808252825182820181905260009190848201906040850190845b818110156107d25783516001600160a01b0316835292840192918401916001016107ad565b50909695505050505050565b600080602083850312156107f157600080fd5b82356001600160401b0381111561080757600080fd5b610813858286016106fe565b90969095509350505050565b60006020828403121561083157600080fd5b81356001600160a01b038116811461084857600080fd5b9392505050565b634e487b7160e01b600052602160045260246000fd5b8183823760009101908152919050565b60006020828403121561088757600080fd5b5051919050565b600082198211156108af57634e487b7160e01b600052601160045260246000fd5b500190565b6001600160a01b03929092168252602082015260400190565b6000602082840312156108df57600080fd5b8151801515811461084857600080fd5b6020808252818101527f4f776e61626c653a2063616c6c6572206973206e6f7420746865206f776e657260408201526060019056fea2646970667358221220de88094c9e955e33fa986af0885f345baf7db1752adaba2a6adfc3d682ef253e64736f6c634300080b0033a2646970667358221220b6968ce659571a519fb9aadfa1ce5b0c87ee86c245c6bb3ef75b43396640aa6e64736f6c634300080b0033",
  "immutableReferences": {
    "9810": [
      {
        "length": 32,
        "start": 190
      }
    ],
    "9812": [
      {
        "length": 32,
        "start": 312
      }
    ]
  },
  "source": "/**\r\n    @author Blok Hamster \r\n */\r\n\r\n// SPDX-License-Identifier: MIT\r\npragma solidity ^0.8.4;\r\npragma experimental ABIEncoderV2;\r\n\r\nimport \"../Products/CrowdfundNonRefundable.sol\";\r\nimport { IPicardyHub } from \"../PicardyHub.sol\";\r\nimport {IPicardyProfile} from \"../Users/PicardyProfile.sol\";\r\nimport \"@openzeppelin/contracts/access/Ownable.sol\";\r\n\r\ncontract CrowdfundFactory is Ownable {\r\n    \r\n    address immutable PICARDY_HUB;\r\n    address immutable PICARDY_TOKEN;\r\n\r\n    modifier isCreator(uint _profileId){\r\n        _isCreator(_profileId);\r\n        _;\r\n    }\r\n\r\n    constructor (address _PICARDY_HUB, address _PICARDY_TOKEN){\r\n        PICARDY_HUB = _PICARDY_HUB;\r\n        PICARDY_TOKEN = _PICARDY_TOKEN;\r\n\r\n        transferOwnership(PICARDY_HUB);\r\n    }\r\n\r\n    /**\r\n        @dev Creates a craudfund contract\r\n        @param _fundGoal The Requested amount from fund\r\n        @param _profileId Caller Profile Id\r\n     */\r\n    function createCrowdfund(uint _fundGoal, uint _fundingTime, uint _profileId) external {\r\n        address profileAddress = IPicardyHub(PICARDY_HUB).getProfileAddress(_profileId);\r\n\r\n        CrowdfundNonRefundable croudfund = new CrowdfundNonRefundable(msg.sender,PICARDY_TOKEN, _fundGoal, _fundingTime);\r\n        IPicardyProfile(profileAddress).addProduct(1, address(croudfund));\r\n    }\r\n\r\n    function _isCreator(uint _profileId) internal view {\r\n        require(\r\n            IPicardyHub(PICARDY_HUB).checkIsCreator(_profileId) == true\r\n        );\r\n    }\r\n}",
  "sourcePath": "C:\\Users\\USER\\Desktop\\Picardy_Protocol\\contracts\\Factory\\CraudfundFactory.sol",
  "compiler": {
    "name": "solc",
    "version": "0.8.11+commit.d7f03943.Emscripten.clang"
  },
  "schemaVersion": "3.4.6",
  "updatedAt": "2022-05-28T00:04:29.186Z",
  "devdoc": {
    "kind": "dev",
    "methods": {
      "createCrowdfund(uint256,uint256,uint256)": {
        "details": "Creates a craudfund contract",
        "params": {
          "_fundGoal": "The Requested amount from fund",
          "_profileId": "Caller Profile Id"
        }
      },
      "owner()": {
        "details": "Returns the address of the current owner."
      },
      "renounceOwnership()": {
        "details": "Leaves the contract without owner. It will not be possible to call `onlyOwner` functions anymore. Can only be called by the current owner. NOTE: Renouncing ownership will leave the contract without an owner, thereby removing any functionality that is only available to the owner."
      },
      "transferOwnership(address)": {
        "details": "Transfers ownership of the contract to a new account (`newOwner`). Can only be called by the current owner."
      }
    },
    "version": 1
  },
  "userdoc": {
    "kind": "user",
    "methods": {},
    "version": 1
  }
}