{
  "contractName": "GovernanceTimeLock",
  "abi": [
    {
      "inputs": [],
      "stateMutability": "nonpayable",
      "type": "constructor"
    },
    {
      "anonymous": false,
      "inputs": [
        {
          "indexed": true,
          "internalType": "bytes32",
          "name": "id",
          "type": "bytes32"
        },
        {
          "indexed": true,
          "internalType": "uint256",
          "name": "index",
          "type": "uint256"
        },
        {
          "indexed": false,
          "internalType": "address",
          "name": "target",
          "type": "address"
        },
        {
          "indexed": false,
          "internalType": "uint256",
          "name": "value",
          "type": "uint256"
        },
        {
          "indexed": false,
          "internalType": "bytes",
          "name": "data",
          "type": "bytes"
        }
      ],
      "name": "CallExecuted",
      "type": "event"
    },
    {
      "anonymous": false,
      "inputs": [
        {
          "indexed": true,
          "internalType": "bytes32",
          "name": "id",
          "type": "bytes32"
        },
        {
          "indexed": true,
          "internalType": "uint256",
          "name": "index",
          "type": "uint256"
        },
        {
          "indexed": false,
          "internalType": "address",
          "name": "target",
          "type": "address"
        },
        {
          "indexed": false,
          "internalType": "uint256",
          "name": "value",
          "type": "uint256"
        },
        {
          "indexed": false,
          "internalType": "bytes",
          "name": "data",
          "type": "bytes"
        },
        {
          "indexed": false,
          "internalType": "bytes32",
          "name": "predecessor",
          "type": "bytes32"
        },
        {
          "indexed": false,
          "internalType": "uint256",
          "name": "delay",
          "type": "uint256"
        }
      ],
      "name": "CallScheduled",
      "type": "event"
    },
    {
      "anonymous": false,
      "inputs": [
        {
          "indexed": true,
          "internalType": "bytes32",
          "name": "id",
          "type": "bytes32"
        }
      ],
      "name": "Cancelled",
      "type": "event"
    },
    {
      "anonymous": false,
      "inputs": [
        {
          "indexed": false,
          "internalType": "uint256",
          "name": "oldDuration",
          "type": "uint256"
        },
        {
          "indexed": false,
          "internalType": "uint256",
          "name": "newDuration",
          "type": "uint256"
        }
      ],
      "name": "MinDelayChange",
      "type": "event"
    },
    {
      "anonymous": false,
      "inputs": [
        {
          "indexed": true,
          "internalType": "bytes32",
          "name": "role",
          "type": "bytes32"
        },
        {
          "indexed": true,
          "internalType": "bytes32",
          "name": "previousAdminRole",
          "type": "bytes32"
        },
        {
          "indexed": true,
          "internalType": "bytes32",
          "name": "newAdminRole",
          "type": "bytes32"
        }
      ],
      "name": "RoleAdminChanged",
      "type": "event"
    },
    {
      "anonymous": false,
      "inputs": [
        {
          "indexed": true,
          "internalType": "bytes32",
          "name": "role",
          "type": "bytes32"
        },
        {
          "indexed": true,
          "internalType": "address",
          "name": "account",
          "type": "address"
        },
        {
          "indexed": true,
          "internalType": "address",
          "name": "sender",
          "type": "address"
        }
      ],
      "name": "RoleGranted",
      "type": "event"
    },
    {
      "anonymous": false,
      "inputs": [
        {
          "indexed": true,
          "internalType": "bytes32",
          "name": "role",
          "type": "bytes32"
        },
        {
          "indexed": true,
          "internalType": "address",
          "name": "account",
          "type": "address"
        },
        {
          "indexed": true,
          "internalType": "address",
          "name": "sender",
          "type": "address"
        }
      ],
      "name": "RoleRevoked",
      "type": "event"
    },
    {
      "inputs": [],
      "name": "DEFAULT_ADMIN_ROLE",
      "outputs": [
        {
          "internalType": "bytes32",
          "name": "",
          "type": "bytes32"
        }
      ],
      "stateMutability": "view",
      "type": "function"
    },
    {
      "inputs": [],
      "name": "EXECUTOR_ROLE",
      "outputs": [
        {
          "internalType": "bytes32",
          "name": "",
          "type": "bytes32"
        }
      ],
      "stateMutability": "view",
      "type": "function"
    },
    {
      "inputs": [],
      "name": "PROPOSER_ROLE",
      "outputs": [
        {
          "internalType": "bytes32",
          "name": "",
          "type": "bytes32"
        }
      ],
      "stateMutability": "view",
      "type": "function"
    },
    {
      "inputs": [],
      "name": "TIMELOCK_ADMIN_ROLE",
      "outputs": [
        {
          "internalType": "bytes32",
          "name": "",
          "type": "bytes32"
        }
      ],
      "stateMutability": "view",
      "type": "function"
    },
    {
      "inputs": [
        {
          "internalType": "bytes32",
          "name": "id",
          "type": "bytes32"
        }
      ],
      "name": "cancel",
      "outputs": [],
      "stateMutability": "nonpayable",
      "type": "function"
    },
    {
      "inputs": [
        {
          "internalType": "address",
          "name": "target",
          "type": "address"
        },
        {
          "internalType": "uint256",
          "name": "value",
          "type": "uint256"
        },
        {
          "internalType": "bytes",
          "name": "data",
          "type": "bytes"
        },
        {
          "internalType": "bytes32",
          "name": "predecessor",
          "type": "bytes32"
        },
        {
          "internalType": "bytes32",
          "name": "salt",
          "type": "bytes32"
        }
      ],
      "name": "execute",
      "outputs": [],
      "stateMutability": "payable",
      "type": "function"
    },
    {
      "inputs": [
        {
          "internalType": "address[]",
          "name": "targets",
          "type": "address[]"
        },
        {
          "internalType": "uint256[]",
          "name": "values",
          "type": "uint256[]"
        },
        {
          "internalType": "bytes[]",
          "name": "datas",
          "type": "bytes[]"
        },
        {
          "internalType": "bytes32",
          "name": "predecessor",
          "type": "bytes32"
        },
        {
          "internalType": "bytes32",
          "name": "salt",
          "type": "bytes32"
        }
      ],
      "name": "executeBatch",
      "outputs": [],
      "stateMutability": "payable",
      "type": "function"
    },
    {
      "inputs": [],
      "name": "getMinDelay",
      "outputs": [
        {
          "internalType": "uint256",
          "name": "duration",
          "type": "uint256"
        }
      ],
      "stateMutability": "view",
      "type": "function"
    },
    {
      "inputs": [
        {
          "internalType": "bytes32",
          "name": "role",
          "type": "bytes32"
        }
      ],
      "name": "getRoleAdmin",
      "outputs": [
        {
          "internalType": "bytes32",
          "name": "",
          "type": "bytes32"
        }
      ],
      "stateMutability": "view",
      "type": "function"
    },
    {
      "inputs": [
        {
          "internalType": "bytes32",
          "name": "id",
          "type": "bytes32"
        }
      ],
      "name": "getTimestamp",
      "outputs": [
        {
          "internalType": "uint256",
          "name": "timestamp",
          "type": "uint256"
        }
      ],
      "stateMutability": "view",
      "type": "function"
    },
    {
      "inputs": [
        {
          "internalType": "bytes32",
          "name": "role",
          "type": "bytes32"
        },
        {
          "internalType": "address",
          "name": "account",
          "type": "address"
        }
      ],
      "name": "grantRole",
      "outputs": [],
      "stateMutability": "nonpayable",
      "type": "function"
    },
    {
      "inputs": [
        {
          "internalType": "bytes32",
          "name": "role",
          "type": "bytes32"
        },
        {
          "internalType": "address",
          "name": "account",
          "type": "address"
        }
      ],
      "name": "hasRole",
      "outputs": [
        {
          "internalType": "bool",
          "name": "",
          "type": "bool"
        }
      ],
      "stateMutability": "view",
      "type": "function"
    },
    {
      "inputs": [
        {
          "internalType": "address",
          "name": "target",
          "type": "address"
        },
        {
          "internalType": "uint256",
          "name": "value",
          "type": "uint256"
        },
        {
          "internalType": "bytes",
          "name": "data",
          "type": "bytes"
        },
        {
          "internalType": "bytes32",
          "name": "predecessor",
          "type": "bytes32"
        },
        {
          "internalType": "bytes32",
          "name": "salt",
          "type": "bytes32"
        }
      ],
      "name": "hashOperation",
      "outputs": [
        {
          "internalType": "bytes32",
          "name": "hash",
          "type": "bytes32"
        }
      ],
      "stateMutability": "pure",
      "type": "function"
    },
    {
      "inputs": [
        {
          "internalType": "address[]",
          "name": "targets",
          "type": "address[]"
        },
        {
          "internalType": "uint256[]",
          "name": "values",
          "type": "uint256[]"
        },
        {
          "internalType": "bytes[]",
          "name": "datas",
          "type": "bytes[]"
        },
        {
          "internalType": "bytes32",
          "name": "predecessor",
          "type": "bytes32"
        },
        {
          "internalType": "bytes32",
          "name": "salt",
          "type": "bytes32"
        }
      ],
      "name": "hashOperationBatch",
      "outputs": [
        {
          "internalType": "bytes32",
          "name": "hash",
          "type": "bytes32"
        }
      ],
      "stateMutability": "pure",
      "type": "function"
    },
    {
      "inputs": [
        {
          "internalType": "bytes32",
          "name": "id",
          "type": "bytes32"
        }
      ],
      "name": "isOperation",
      "outputs": [
        {
          "internalType": "bool",
          "name": "pending",
          "type": "bool"
        }
      ],
      "stateMutability": "view",
      "type": "function"
    },
    {
      "inputs": [
        {
          "internalType": "bytes32",
          "name": "id",
          "type": "bytes32"
        }
      ],
      "name": "isOperationDone",
      "outputs": [
        {
          "internalType": "bool",
          "name": "done",
          "type": "bool"
        }
      ],
      "stateMutability": "view",
      "type": "function"
    },
    {
      "inputs": [
        {
          "internalType": "bytes32",
          "name": "id",
          "type": "bytes32"
        }
      ],
      "name": "isOperationPending",
      "outputs": [
        {
          "internalType": "bool",
          "name": "pending",
          "type": "bool"
        }
      ],
      "stateMutability": "view",
      "type": "function"
    },
    {
      "inputs": [
        {
          "internalType": "bytes32",
          "name": "id",
          "type": "bytes32"
        }
      ],
      "name": "isOperationReady",
      "outputs": [
        {
          "internalType": "bool",
          "name": "ready",
          "type": "bool"
        }
      ],
      "stateMutability": "view",
      "type": "function"
    },
    {
      "inputs": [
        {
          "internalType": "bytes32",
          "name": "role",
          "type": "bytes32"
        },
        {
          "internalType": "address",
          "name": "account",
          "type": "address"
        }
      ],
      "name": "renounceRole",
      "outputs": [],
      "stateMutability": "nonpayable",
      "type": "function"
    },
    {
      "inputs": [
        {
          "internalType": "bytes32",
          "name": "role",
          "type": "bytes32"
        },
        {
          "internalType": "address",
          "name": "account",
          "type": "address"
        }
      ],
      "name": "revokeRole",
      "outputs": [],
      "stateMutability": "nonpayable",
      "type": "function"
    },
    {
      "inputs": [
        {
          "internalType": "address",
          "name": "target",
          "type": "address"
        },
        {
          "internalType": "uint256",
          "name": "value",
          "type": "uint256"
        },
        {
          "internalType": "bytes",
          "name": "data",
          "type": "bytes"
        },
        {
          "internalType": "bytes32",
          "name": "predecessor",
          "type": "bytes32"
        },
        {
          "internalType": "bytes32",
          "name": "salt",
          "type": "bytes32"
        },
        {
          "internalType": "uint256",
          "name": "delay",
          "type": "uint256"
        }
      ],
      "name": "schedule",
      "outputs": [],
      "stateMutability": "nonpayable",
      "type": "function"
    },
    {
      "inputs": [
        {
          "internalType": "address[]",
          "name": "targets",
          "type": "address[]"
        },
        {
          "internalType": "uint256[]",
          "name": "values",
          "type": "uint256[]"
        },
        {
          "internalType": "bytes[]",
          "name": "datas",
          "type": "bytes[]"
        },
        {
          "internalType": "bytes32",
          "name": "predecessor",
          "type": "bytes32"
        },
        {
          "internalType": "bytes32",
          "name": "salt",
          "type": "bytes32"
        },
        {
          "internalType": "uint256",
          "name": "delay",
          "type": "uint256"
        }
      ],
      "name": "scheduleBatch",
      "outputs": [],
      "stateMutability": "nonpayable",
      "type": "function"
    },
    {
      "inputs": [
        {
          "internalType": "bytes4",
          "name": "interfaceId",
          "type": "bytes4"
        }
      ],
      "name": "supportsInterface",
      "outputs": [
        {
          "internalType": "bool",
          "name": "",
          "type": "bool"
        }
      ],
      "stateMutability": "view",
      "type": "function"
    },
    {
      "inputs": [
        {
          "internalType": "uint256",
          "name": "newDelay",
          "type": "uint256"
        }
      ],
      "name": "updateDelay",
      "outputs": [],
      "stateMutability": "nonpayable",
      "type": "function"
    },
    {
      "stateMutability": "payable",
      "type": "receive"
    },
    {
      "inputs": [
        {
          "internalType": "uint256",
          "name": "minDelay",
          "type": "uint256"
        },
        {
          "internalType": "address[]",
          "name": "proposers",
          "type": "address[]"
        },
        {
          "internalType": "address[]",
          "name": "executors",
          "type": "address[]"
        }
      ],
      "name": "initilalize",
      "outputs": [],
      "stateMutability": "nonpayable",
      "type": "function"
    }
  ],
  "bytecode": "0x60806040523480156200001157600080fd5b50600054610100900460ff166200002f5760005460ff161562000039565b62000039620000de565b620000a15760405162461bcd60e51b815260206004820152602e60248201527f496e697469616c697a61626c653a20636f6e747261637420697320616c72656160448201526d191e481a5b9a5d1a585b1a5e995960921b606482015260840160405180910390fd5b600054610100900460ff16158015620000c4576000805461ffff19166101011790555b8015620000d7576000805461ff00191690555b506200010b565b6000620000f630620000fc60201b62000bc41760201c565b15905090565b6001600160a01b03163b151590565b611d6f806200011b6000396000f3fe60806040526004361061012a5760003560e01c806301d5062a1461013657806301ffc9a71461015857806307bd02651461018d5780630d3cf6fc146101bd578063134008d3146101df57806313bc9f20146101f2578063248a9ca3146102125780632ab0f529146102325780632f2ff15d1461025257806331d507501461027257806336568abe14610292578063584b153e146102b257806364d62353146102d25780638065657f146102f25780638f2a0bb0146103125780638f61f4f51461033257806391d1485414610354578063a217fddf14610374578063b1c5f42714610389578063c4d252f5146103a9578063d4190286146103c9578063d45c4435146103e9578063d547741f14610409578063e38335e514610429578063f27a0c921461043c57600080fd5b3661013157005b600080fd5b34801561014257600080fd5b5061015661015136600461140c565b610451565b005b34801561016457600080fd5b50610178610173366004611480565b6104c3565b60405190151581526020015b60405180910390f35b34801561019957600080fd5b506101af600080516020611cda83398151915281565b604051908152602001610184565b3480156101c957600080fd5b506101af600080516020611c9a83398151915281565b6101566101ed3660046114aa565b6104fa565b3480156101fe57600080fd5b5061017861020d366004611515565b610560565b34801561021e57600080fd5b506101af61022d366004611515565b610585565b34801561023e57600080fd5b5061017861024d366004611515565b61059a565b34801561025e57600080fd5b5061015661026d36600461152e565b6105ae565b34801561027e57600080fd5b5061017861028d366004611515565b6105d0565b34801561029e57600080fd5b506101566102ad36600461152e565b6105e3565b3480156102be57600080fd5b506101786102cd366004611515565b610666565b3480156102de57600080fd5b506101566102ed366004611515565b610673565b3480156102fe57600080fd5b506101af61030d3660046114aa565b610705565b34801561031e57600080fd5b5061015661032d36600461159e565b610744565b34801561033e57600080fd5b506101af600080516020611cba83398151915281565b34801561036057600080fd5b5061017861036f36600461152e565b610873565b34801561038057600080fd5b506101af600081565b34801561039557600080fd5b506101af6103a436600461164f565b61089e565b3480156103b557600080fd5b506101566103c4366004611515565b6108e3565b3480156103d557600080fd5b506101566103e43660046117ae565b6109a7565b3480156103f557600080fd5b506101af610404366004611515565b610a72565b34801561041557600080fd5b5061015661042436600461152e565b610a84565b61015661043736600461164f565b610aa1565b34801561044857600080fd5b506098546101af565b600080516020611cba83398151915261046a8133610bd3565b600061047a898989898989610705565b90506104868184610c37565b600081600080516020611cfa8339815191528b8b8b8b8b8a6040516104b096959493929190611843565b60405180910390a3505050505050505050565b60006001600160e01b03198216637965db0b60e01b14806104f457506301ffc9a760e01b6001600160e01b03198316145b92915050565b600080516020611cda833981519152610514816000610873565b610522576105228133610bd3565b6000610532888888888888610705565b905061053e8185610d26565b61054d8160008a8a8a8a610db7565b61055681610ecb565b5050505050505050565b60008061056c83610a72565b905060018111801561057e5750428111155b9392505050565b60009081526065602052604090206001015490565b600060016105a783610a72565b1492915050565b6105b782610585565b6105c18133610bd3565b6105cb8383610f04565b505050565b6000806105dc83610a72565b1192915050565b6001600160a01b03811633146106585760405162461bcd60e51b815260206004820152602f60248201527f416363657373436f6e74726f6c3a2063616e206f6e6c792072656e6f756e636560448201526e103937b632b9903337b91039b2b63360891b60648201526084015b60405180910390fd5b6106628282610f8a565b5050565b600060016105dc83610a72565b3330146106d65760405162461bcd60e51b815260206004820152602b60248201527f54696d656c6f636b436f6e74726f6c6c65723a2063616c6c6572206d7573742060448201526a62652074696d656c6f636b60a81b606482015260840161064f565b6098546040805191825260208201839052600080516020611d1a833981519152910160405180910390a1609855565b600086868686868660405160200161072296959493929190611843565b6040516020818303038152906040528051906020012090509695505050505050565b600080516020611cba83398151915261075d8133610bd3565b88871461077c5760405162461bcd60e51b815260040161064f90611880565b88851461079b5760405162461bcd60e51b815260040161064f90611880565b60006107ad8b8b8b8b8b8b8b8b61089e565b90506107b98184610c37565b60005b8a811015610865578082600080516020611cfa8339815191528e8e858181106107e7576107e76118c3565b90506020020160208101906107fc91906118d9565b8d8d8681811061080e5761080e6118c3565b905060200201358c8c87818110610827576108276118c3565b905060200281019061083991906118f4565b8c8b60405161084d96959493929190611843565b60405180910390a361085e81611950565b90506107bc565b505050505050505050505050565b60009182526065602090815260408084206001600160a01b0393909316845291905290205460ff1690565b600088888888888888886040516020016108bf9897969594939291906119fb565b60405160208183030381529060405280519060200120905098975050505050505050565b600080516020611cba8339815191526108fc8133610bd3565b61090582610666565b61096b5760405162461bcd60e51b815260206004820152603160248201527f54696d656c6f636b436f6e74726f6c6c65723a206f7065726174696f6e2063616044820152701b9b9bdd0818994818d85b98d95b1b1959607a1b606482015260840161064f565b6000828152609760205260408082208290555183917fbaa1eb22f2a492ba1a5fea61b8df4d27c6c8b5f3971e63bb58fa14ff72eedb7091a25050565b600054610100900460ff166109c25760005460ff16156109ca565b6109ca610ff1565b610a2d5760405162461bcd60e51b815260206004820152602e60248201527f496e697469616c697a61626c653a20636f6e747261637420697320616c72656160448201526d191e481a5b9a5d1a585b1a5e995960921b606482015260840161064f565b600054610100900460ff16158015610a4f576000805461ffff19166101011790555b610a5a848484611002565b8015610a6c576000805461ff00191690555b50505050565b60009081526097602052604090205490565b610a8d82610585565b610a978133610bd3565b6105cb8383610f8a565b600080516020611cda833981519152610abb816000610873565b610ac957610ac98133610bd3565b878614610ae85760405162461bcd60e51b815260040161064f90611880565b878414610b075760405162461bcd60e51b815260040161064f90611880565b6000610b198a8a8a8a8a8a8a8a61089e565b9050610b258185610d26565b60005b89811015610bae57610b9e82828d8d85818110610b4757610b476118c3565b9050602002016020810190610b5c91906118d9565b8c8c86818110610b6e57610b6e6118c3565b905060200201358b8b87818110610b8757610b876118c3565b9050602002810190610b9991906118f4565b610db7565b610ba781611950565b9050610b28565b50610bb881610ecb565b50505050505050505050565b6001600160a01b03163b151590565b610bdd8282610873565b61066257610bf5816001600160a01b03166014611034565b610c00836020611034565b604051602001610c11929190611ad2565b60408051601f198184030181529082905262461bcd60e51b825261064f91600401611b41565b610c40826105d0565b15610ca55760405162461bcd60e51b815260206004820152602f60248201527f54696d656c6f636b436f6e74726f6c6c65723a206f7065726174696f6e20616c60448201526e1c9958591e481cd8da19591d5b1959608a1b606482015260840161064f565b609854811015610d065760405162461bcd60e51b815260206004820152602660248201527f54696d656c6f636b436f6e74726f6c6c65723a20696e73756666696369656e746044820152652064656c617960d01b606482015260840161064f565b610d108142611b74565b6000928352609760205260409092209190915550565b610d2f82610560565b610d4b5760405162461bcd60e51b815260040161064f90611b8c565b801580610d5c5750610d5c8161059a565b6106625760405162461bcd60e51b815260206004820152602660248201527f54696d656c6f636b436f6e74726f6c6c65723a206d697373696e6720646570656044820152656e64656e637960d01b606482015260840161064f565b6000846001600160a01b0316848484604051610dd4929190611bd6565b60006040518083038185875af1925050503d8060008114610e11576040519150601f19603f3d011682016040523d82523d6000602084013e610e16565b606091505b5050905080610e835760405162461bcd60e51b815260206004820152603360248201527f54696d656c6f636b436f6e74726f6c6c65723a20756e6465726c79696e6720746044820152721c985b9cd858dd1a5bdb881c995d995c9d1959606a1b606482015260840161064f565b85877fc2617efa69bab66782fa219543714338489c4e9e178271560a91b82c3f612b5887878787604051610eba9493929190611be6565b60405180910390a350505050505050565b610ed481610560565b610ef05760405162461bcd60e51b815260040161064f90611b8c565b600090815260976020526040902060019055565b610f0e8282610873565b6106625760008281526065602090815260408083206001600160a01b03851684529091529020805460ff19166001179055610f463390565b6001600160a01b0316816001600160a01b0316837f2f8788117e7eff1d82e926ec794901d17c78024a50270940304540a733656f0d60405160405180910390a45050565b610f948282610873565b156106625760008281526065602090815260408083206001600160a01b0385168085529252808320805460ff1916905551339285917ff6391f5c32d9c69d2a47ea670b442974b53935d1edc7fd64eb21e047a839171b9190a45050565b6000610ffc30610bc4565b15905090565b600054610100900460ff166110295760405162461bcd60e51b815260040161064f90611c18565b6105cb8383836111cf565b60606000611043836002611c63565b61104e906002611b74565b6001600160401b03811115611065576110656116f7565b6040519080825280601f01601f19166020018201604052801561108f576020820181803683370190505b509050600360fc1b816000815181106110aa576110aa6118c3565b60200101906001600160f81b031916908160001a905350600f60fb1b816001815181106110d9576110d96118c3565b60200101906001600160f81b031916908160001a90535060006110fd846002611c63565b611108906001611b74565b90505b6001811115611180576f181899199a1a9b1b9c1cb0b131b232b360811b85600f166010811061113c5761113c6118c3565b1a60f81b828281518110611152576111526118c3565b60200101906001600160f81b031916908160001a90535060049490941c9361117981611c82565b905061110b565b50831561057e5760405162461bcd60e51b815260206004820181905260248201527f537472696e67733a20686578206c656e67746820696e73756666696369656e74604482015260640161064f565b600054610100900460ff166111f65760405162461bcd60e51b815260040161064f90611c18565b61120e600080516020611c9a8339815191528061134b565b611234600080516020611cba833981519152600080516020611c9a83398151915261134b565b61125a600080516020611cda833981519152600080516020611c9a83398151915261134b565b611272600080516020611c9a8339815191523361139e565b61128a600080516020611c9a8339815191523061139e565b60005b82518110156112d7576112c7600080516020611cba8339815191528483815181106112ba576112ba6118c3565b602002602001015161139e565b6112d081611950565b905061128d565b5060005b815181101561131857611308600080516020611cda8339815191528383815181106112ba576112ba6118c3565b61131181611950565b90506112db565b506098839055604080516000815260208101859052600080516020611d1a833981519152910160405180910390a1505050565b600061135683610585565b600084815260656020526040808220600101859055519192508391839186917fbd79b86ffe0ab8e8776151514217cd7cacd52c909f66475c3af44e129f0b00ff9190a4505050565b6106628282610f04565b80356001600160a01b03811681146113bf57600080fd5b919050565b60008083601f8401126113d657600080fd5b5081356001600160401b038111156113ed57600080fd5b60208301915083602082850101111561140557600080fd5b9250929050565b600080600080600080600060c0888a03121561142757600080fd5b611430886113a8565b96506020880135955060408801356001600160401b0381111561145257600080fd5b61145e8a828b016113c4565b989b979a50986060810135976080820135975060a09091013595509350505050565b60006020828403121561149257600080fd5b81356001600160e01b03198116811461057e57600080fd5b60008060008060008060a087890312156114c357600080fd5b6114cc876113a8565b95506020870135945060408701356001600160401b038111156114ee57600080fd5b6114fa89828a016113c4565b979a9699509760608101359660809091013595509350505050565b60006020828403121561152757600080fd5b5035919050565b6000806040838503121561154157600080fd5b82359150611551602084016113a8565b90509250929050565b60008083601f84011261156c57600080fd5b5081356001600160401b0381111561158357600080fd5b6020830191508360208260051b850101111561140557600080fd5b600080600080600080600080600060c08a8c0312156115bc57600080fd5b89356001600160401b03808211156115d357600080fd5b6115df8d838e0161155a565b909b50995060208c01359150808211156115f857600080fd5b6116048d838e0161155a565b909950975060408c013591508082111561161d57600080fd5b5061162a8c828d0161155a565b9a9d999c50979a969997986060880135976080810135975060a0013595509350505050565b60008060008060008060008060a0898b03121561166b57600080fd5b88356001600160401b038082111561168257600080fd5b61168e8c838d0161155a565b909a50985060208b01359150808211156116a757600080fd5b6116b38c838d0161155a565b909850965060408b01359150808211156116cc57600080fd5b506116d98b828c0161155a565b999c989b509699959896976060870135966080013595509350505050565b634e487b7160e01b600052604160045260246000fd5b600082601f83011261171e57600080fd5b813560206001600160401b038083111561173a5761173a6116f7565b8260051b604051601f19603f8301168101818110848211171561175f5761175f6116f7565b60405293845285810183019383810192508785111561177d57600080fd5b83870191505b848210156117a357611794826113a8565b83529183019190830190611783565b979650505050505050565b6000806000606084860312156117c357600080fd5b8335925060208401356001600160401b03808211156117e157600080fd5b6117ed8783880161170d565b9350604086013591508082111561180357600080fd5b506118108682870161170d565b9150509250925092565b81835281816020850137506000828201602090810191909152601f909101601f19169091010190565b60018060a01b038716815285602082015260a06040820152600061186b60a08301868861181a565b60608301949094525060800152949350505050565b60208082526023908201527f54696d656c6f636b436f6e74726f6c6c65723a206c656e677468206d69736d616040820152620e8c6d60eb1b606082015260800190565b634e487b7160e01b600052603260045260246000fd5b6000602082840312156118eb57600080fd5b61057e826113a8565b6000808335601e1984360301811261190b57600080fd5b8301803591506001600160401b0382111561192557600080fd5b60200191503681900382131561140557600080fd5b634e487b7160e01b600052601160045260246000fd5b60006000198214156119645761196461193a565b5060010190565b81835260006020808501808196508560051b810191508460005b878110156119ee5782840389528135601e198836030181126119a657600080fd5b870180356001600160401b038111156119be57600080fd5b8036038913156119cd57600080fd5b6119da868289850161181a565b9a87019a9550505090840190600101611985565b5091979650505050505050565b60a0808252810188905260008960c08301825b8b811015611a3c576001600160a01b03611a27846113a8565b16825260209283019290910190600101611a0e565b5083810360208501528881526001600160fb1b03891115611a5c57600080fd5b8860051b9150818a602083013781810191505060208101600081526020848303016040850152611a8d81888a61196b565b6060850196909652505050608001529695505050505050565b60005b83811015611ac1578181015183820152602001611aa9565b83811115610a6c5750506000910152565b76020b1b1b2b9b9a1b7b73a3937b61d1030b1b1b7bab73a1604d1b815260008351611b04816017850160208801611aa6565b7001034b99036b4b9b9b4b733903937b6329607d1b6017918401918201528351611b35816028840160208801611aa6565b01602801949350505050565b6020815260008251806020840152611b60816040850160208701611aa6565b601f01601f19169190910160400192915050565b60008219821115611b8757611b8761193a565b500190565b6020808252602a908201527f54696d656c6f636b436f6e74726f6c6c65723a206f7065726174696f6e206973604082015269206e6f7420726561647960b01b606082015260800190565b8183823760009101908152919050565b60018060a01b0385168152836020820152606060408201526000611c0e60608301848661181a565b9695505050505050565b6020808252602b908201527f496e697469616c697a61626c653a20636f6e7472616374206973206e6f74206960408201526a6e697469616c697a696e6760a81b606082015260800190565b6000816000190483118215151615611c7d57611c7d61193a565b500290565b600081611c9157611c9161193a565b50600019019056fe5f58e3a2316349923ce3780f8d587db2d72378aed66a8261c916544fa6846ca5b09aa5aeb3702cfd50b6b62bc4532604938f21248a27a1d5ca736082b6819cc1d8aa0f3194971a2a116679f7c2090f6939c8d4e01a2a8d7e41d55e5351469e634cf4410cc57040e44862ef0f45f3dd5a5e02db8eb8add648d4b0e236f1d07dca11c24f4ead16507c69ac467fbd5e4eed5fb5c699626d2cc6d66421df253886d5a2646970667358221220fd445ee9b6a98da5b13c582c40e5121c76b1314245bf8639bdfe03aab5f36ab264736f6c634300080b0033",
  "immutableReferences": {},
  "source": "// SPDX-License-Identifier: MIT\r\npragma solidity ^0.8.7;\r\npragma experimental ABIEncoderV2;\r\n\r\nimport \"@openzeppelin/contracts-upgradeable/governance/TimelockControllerUpgradeable.sol\";\r\nimport \"@openzeppelin/contracts-upgradeable/proxy/utils/Initializable.sol\";\r\n\r\n\r\ncontract GovernanceTimeLock is Initializable, TimelockControllerUpgradeable {\r\n    // minDelay is how long you have to wait before executing\r\n    // proposers is the list of addresses that can propose\r\n    // executors is the list of addresses that can execute\r\n    constructor() initializer {}\r\n    \r\n    function initilalize (uint256 minDelay,\r\n        address[] memory proposers,\r\n        address[] memory executors\r\n    ) external initializer {\r\n        __TimelockController_init(minDelay, proposers, executors);\r\n    }\r\n    \r\n}",
  "sourcePath": "C:\\Users\\USER\\Desktop\\Picardy_Protocol\\contracts\\Governance\\TimeLock.sol",
  "compiler": {
    "name": "solc",
    "version": "0.8.11+commit.d7f03943.Emscripten.clang"
  },
  "schemaVersion": "3.4.6",
  "updatedAt": "2022-05-27T21:49:47.794Z",
  "devdoc": {
    "kind": "dev",
    "methods": {
      "cancel(bytes32)": {
        "details": "Cancel an operation. Requirements: - the caller must have the 'proposer' role."
      },
      "execute(address,uint256,bytes,bytes32,bytes32)": {
        "details": "Execute an (ready) operation containing a single transaction. Emits a {CallExecuted} event. Requirements: - the caller must have the 'executor' role."
      },
      "executeBatch(address[],uint256[],bytes[],bytes32,bytes32)": {
        "details": "Execute an (ready) operation containing a batch of transactions. Emits one {CallExecuted} event per transaction in the batch. Requirements: - the caller must have the 'executor' role."
      },
      "getMinDelay()": {
        "details": "Returns the minimum delay for an operation to become valid. This value can be changed by executing an operation that calls `updateDelay`."
      },
      "getRoleAdmin(bytes32)": {
        "details": "Returns the admin role that controls `role`. See {grantRole} and {revokeRole}. To change a role's admin, use {_setRoleAdmin}."
      },
      "getTimestamp(bytes32)": {
        "details": "Returns the timestamp at with an operation becomes ready (0 for unset operations, 1 for done operations)."
      },
      "grantRole(bytes32,address)": {
        "details": "Grants `role` to `account`. If `account` had not been already granted `role`, emits a {RoleGranted} event. Requirements: - the caller must have ``role``'s admin role."
      },
      "hasRole(bytes32,address)": {
        "details": "Returns `true` if `account` has been granted `role`."
      },
      "hashOperation(address,uint256,bytes,bytes32,bytes32)": {
        "details": "Returns the identifier of an operation containing a single transaction."
      },
      "hashOperationBatch(address[],uint256[],bytes[],bytes32,bytes32)": {
        "details": "Returns the identifier of an operation containing a batch of transactions."
      },
      "isOperation(bytes32)": {
        "details": "Returns whether an id correspond to a registered operation. This includes both Pending, Ready and Done operations."
      },
      "isOperationDone(bytes32)": {
        "details": "Returns whether an operation is done or not."
      },
      "isOperationPending(bytes32)": {
        "details": "Returns whether an operation is pending or not."
      },
      "isOperationReady(bytes32)": {
        "details": "Returns whether an operation is ready or not."
      },
      "renounceRole(bytes32,address)": {
        "details": "Revokes `role` from the calling account. Roles are often managed via {grantRole} and {revokeRole}: this function's purpose is to provide a mechanism for accounts to lose their privileges if they are compromised (such as when a trusted device is misplaced). If the calling account had been revoked `role`, emits a {RoleRevoked} event. Requirements: - the caller must be `account`."
      },
      "revokeRole(bytes32,address)": {
        "details": "Revokes `role` from `account`. If `account` had been granted `role`, emits a {RoleRevoked} event. Requirements: - the caller must have ``role``'s admin role."
      },
      "schedule(address,uint256,bytes,bytes32,bytes32,uint256)": {
        "details": "Schedule an operation containing a single transaction. Emits a {CallScheduled} event. Requirements: - the caller must have the 'proposer' role."
      },
      "scheduleBatch(address[],uint256[],bytes[],bytes32,bytes32,uint256)": {
        "details": "Schedule an operation containing a batch of transactions. Emits one {CallScheduled} event per transaction in the batch. Requirements: - the caller must have the 'proposer' role."
      },
      "supportsInterface(bytes4)": {
        "details": "See {IERC165-supportsInterface}."
      },
      "updateDelay(uint256)": {
        "details": "Changes the minimum timelock duration for future operations. Emits a {MinDelayChange} event. Requirements: - the caller must be the timelock itself. This can only be achieved by scheduling and later executing an operation where the timelock is the target and the data is the ABI-encoded call to this function."
      }
    },
    "version": 1
  },
  "userdoc": {
    "kind": "user",
    "methods": {},
    "version": 1
  }
}