{
  "contractName": "GovernanceTimeLock",
  "abi": [
    {
      "inputs": [
        {
          "internalType": "uint256",
          "name": "minDelay",
          "type": "uint256"
        },
        {
          "internalType": "address[]",
          "name": "proposers",
          "type": "address[]"
        },
        {
          "internalType": "address[]",
          "name": "executors",
          "type": "address[]"
        }
      ],
      "stateMutability": "nonpayable",
      "type": "constructor"
    },
    {
      "anonymous": false,
      "inputs": [
        {
          "indexed": true,
          "internalType": "bytes32",
          "name": "id",
          "type": "bytes32"
        },
        {
          "indexed": true,
          "internalType": "uint256",
          "name": "index",
          "type": "uint256"
        },
        {
          "indexed": false,
          "internalType": "address",
          "name": "target",
          "type": "address"
        },
        {
          "indexed": false,
          "internalType": "uint256",
          "name": "value",
          "type": "uint256"
        },
        {
          "indexed": false,
          "internalType": "bytes",
          "name": "data",
          "type": "bytes"
        }
      ],
      "name": "CallExecuted",
      "type": "event"
    },
    {
      "anonymous": false,
      "inputs": [
        {
          "indexed": true,
          "internalType": "bytes32",
          "name": "id",
          "type": "bytes32"
        },
        {
          "indexed": true,
          "internalType": "uint256",
          "name": "index",
          "type": "uint256"
        },
        {
          "indexed": false,
          "internalType": "address",
          "name": "target",
          "type": "address"
        },
        {
          "indexed": false,
          "internalType": "uint256",
          "name": "value",
          "type": "uint256"
        },
        {
          "indexed": false,
          "internalType": "bytes",
          "name": "data",
          "type": "bytes"
        },
        {
          "indexed": false,
          "internalType": "bytes32",
          "name": "predecessor",
          "type": "bytes32"
        },
        {
          "indexed": false,
          "internalType": "uint256",
          "name": "delay",
          "type": "uint256"
        }
      ],
      "name": "CallScheduled",
      "type": "event"
    },
    {
      "anonymous": false,
      "inputs": [
        {
          "indexed": true,
          "internalType": "bytes32",
          "name": "id",
          "type": "bytes32"
        }
      ],
      "name": "Cancelled",
      "type": "event"
    },
    {
      "anonymous": false,
      "inputs": [
        {
          "indexed": false,
          "internalType": "uint256",
          "name": "oldDuration",
          "type": "uint256"
        },
        {
          "indexed": false,
          "internalType": "uint256",
          "name": "newDuration",
          "type": "uint256"
        }
      ],
      "name": "MinDelayChange",
      "type": "event"
    },
    {
      "anonymous": false,
      "inputs": [
        {
          "indexed": true,
          "internalType": "bytes32",
          "name": "role",
          "type": "bytes32"
        },
        {
          "indexed": true,
          "internalType": "bytes32",
          "name": "previousAdminRole",
          "type": "bytes32"
        },
        {
          "indexed": true,
          "internalType": "bytes32",
          "name": "newAdminRole",
          "type": "bytes32"
        }
      ],
      "name": "RoleAdminChanged",
      "type": "event"
    },
    {
      "anonymous": false,
      "inputs": [
        {
          "indexed": true,
          "internalType": "bytes32",
          "name": "role",
          "type": "bytes32"
        },
        {
          "indexed": true,
          "internalType": "address",
          "name": "account",
          "type": "address"
        },
        {
          "indexed": true,
          "internalType": "address",
          "name": "sender",
          "type": "address"
        }
      ],
      "name": "RoleGranted",
      "type": "event"
    },
    {
      "anonymous": false,
      "inputs": [
        {
          "indexed": true,
          "internalType": "bytes32",
          "name": "role",
          "type": "bytes32"
        },
        {
          "indexed": true,
          "internalType": "address",
          "name": "account",
          "type": "address"
        },
        {
          "indexed": true,
          "internalType": "address",
          "name": "sender",
          "type": "address"
        }
      ],
      "name": "RoleRevoked",
      "type": "event"
    },
    {
      "inputs": [],
      "name": "CANCELLER_ROLE",
      "outputs": [
        {
          "internalType": "bytes32",
          "name": "",
          "type": "bytes32"
        }
      ],
      "stateMutability": "view",
      "type": "function"
    },
    {
      "inputs": [],
      "name": "DEFAULT_ADMIN_ROLE",
      "outputs": [
        {
          "internalType": "bytes32",
          "name": "",
          "type": "bytes32"
        }
      ],
      "stateMutability": "view",
      "type": "function"
    },
    {
      "inputs": [],
      "name": "EXECUTOR_ROLE",
      "outputs": [
        {
          "internalType": "bytes32",
          "name": "",
          "type": "bytes32"
        }
      ],
      "stateMutability": "view",
      "type": "function"
    },
    {
      "inputs": [],
      "name": "PROPOSER_ROLE",
      "outputs": [
        {
          "internalType": "bytes32",
          "name": "",
          "type": "bytes32"
        }
      ],
      "stateMutability": "view",
      "type": "function"
    },
    {
      "inputs": [],
      "name": "TIMELOCK_ADMIN_ROLE",
      "outputs": [
        {
          "internalType": "bytes32",
          "name": "",
          "type": "bytes32"
        }
      ],
      "stateMutability": "view",
      "type": "function"
    },
    {
      "inputs": [
        {
          "internalType": "bytes32",
          "name": "id",
          "type": "bytes32"
        }
      ],
      "name": "cancel",
      "outputs": [],
      "stateMutability": "nonpayable",
      "type": "function"
    },
    {
      "inputs": [
        {
          "internalType": "address",
          "name": "target",
          "type": "address"
        },
        {
          "internalType": "uint256",
          "name": "value",
          "type": "uint256"
        },
        {
          "internalType": "bytes",
          "name": "data",
          "type": "bytes"
        },
        {
          "internalType": "bytes32",
          "name": "predecessor",
          "type": "bytes32"
        },
        {
          "internalType": "bytes32",
          "name": "salt",
          "type": "bytes32"
        }
      ],
      "name": "execute",
      "outputs": [],
      "stateMutability": "payable",
      "type": "function"
    },
    {
      "inputs": [
        {
          "internalType": "address[]",
          "name": "targets",
          "type": "address[]"
        },
        {
          "internalType": "uint256[]",
          "name": "values",
          "type": "uint256[]"
        },
        {
          "internalType": "bytes[]",
          "name": "payloads",
          "type": "bytes[]"
        },
        {
          "internalType": "bytes32",
          "name": "predecessor",
          "type": "bytes32"
        },
        {
          "internalType": "bytes32",
          "name": "salt",
          "type": "bytes32"
        }
      ],
      "name": "executeBatch",
      "outputs": [],
      "stateMutability": "payable",
      "type": "function"
    },
    {
      "inputs": [],
      "name": "getMinDelay",
      "outputs": [
        {
          "internalType": "uint256",
          "name": "duration",
          "type": "uint256"
        }
      ],
      "stateMutability": "view",
      "type": "function"
    },
    {
      "inputs": [
        {
          "internalType": "bytes32",
          "name": "role",
          "type": "bytes32"
        }
      ],
      "name": "getRoleAdmin",
      "outputs": [
        {
          "internalType": "bytes32",
          "name": "",
          "type": "bytes32"
        }
      ],
      "stateMutability": "view",
      "type": "function"
    },
    {
      "inputs": [
        {
          "internalType": "bytes32",
          "name": "id",
          "type": "bytes32"
        }
      ],
      "name": "getTimestamp",
      "outputs": [
        {
          "internalType": "uint256",
          "name": "timestamp",
          "type": "uint256"
        }
      ],
      "stateMutability": "view",
      "type": "function"
    },
    {
      "inputs": [
        {
          "internalType": "bytes32",
          "name": "role",
          "type": "bytes32"
        },
        {
          "internalType": "address",
          "name": "account",
          "type": "address"
        }
      ],
      "name": "grantRole",
      "outputs": [],
      "stateMutability": "nonpayable",
      "type": "function"
    },
    {
      "inputs": [
        {
          "internalType": "bytes32",
          "name": "role",
          "type": "bytes32"
        },
        {
          "internalType": "address",
          "name": "account",
          "type": "address"
        }
      ],
      "name": "hasRole",
      "outputs": [
        {
          "internalType": "bool",
          "name": "",
          "type": "bool"
        }
      ],
      "stateMutability": "view",
      "type": "function"
    },
    {
      "inputs": [
        {
          "internalType": "address",
          "name": "target",
          "type": "address"
        },
        {
          "internalType": "uint256",
          "name": "value",
          "type": "uint256"
        },
        {
          "internalType": "bytes",
          "name": "data",
          "type": "bytes"
        },
        {
          "internalType": "bytes32",
          "name": "predecessor",
          "type": "bytes32"
        },
        {
          "internalType": "bytes32",
          "name": "salt",
          "type": "bytes32"
        }
      ],
      "name": "hashOperation",
      "outputs": [
        {
          "internalType": "bytes32",
          "name": "hash",
          "type": "bytes32"
        }
      ],
      "stateMutability": "pure",
      "type": "function"
    },
    {
      "inputs": [
        {
          "internalType": "address[]",
          "name": "targets",
          "type": "address[]"
        },
        {
          "internalType": "uint256[]",
          "name": "values",
          "type": "uint256[]"
        },
        {
          "internalType": "bytes[]",
          "name": "payloads",
          "type": "bytes[]"
        },
        {
          "internalType": "bytes32",
          "name": "predecessor",
          "type": "bytes32"
        },
        {
          "internalType": "bytes32",
          "name": "salt",
          "type": "bytes32"
        }
      ],
      "name": "hashOperationBatch",
      "outputs": [
        {
          "internalType": "bytes32",
          "name": "hash",
          "type": "bytes32"
        }
      ],
      "stateMutability": "pure",
      "type": "function"
    },
    {
      "inputs": [
        {
          "internalType": "bytes32",
          "name": "id",
          "type": "bytes32"
        }
      ],
      "name": "isOperation",
      "outputs": [
        {
          "internalType": "bool",
          "name": "pending",
          "type": "bool"
        }
      ],
      "stateMutability": "view",
      "type": "function"
    },
    {
      "inputs": [
        {
          "internalType": "bytes32",
          "name": "id",
          "type": "bytes32"
        }
      ],
      "name": "isOperationDone",
      "outputs": [
        {
          "internalType": "bool",
          "name": "done",
          "type": "bool"
        }
      ],
      "stateMutability": "view",
      "type": "function"
    },
    {
      "inputs": [
        {
          "internalType": "bytes32",
          "name": "id",
          "type": "bytes32"
        }
      ],
      "name": "isOperationPending",
      "outputs": [
        {
          "internalType": "bool",
          "name": "pending",
          "type": "bool"
        }
      ],
      "stateMutability": "view",
      "type": "function"
    },
    {
      "inputs": [
        {
          "internalType": "bytes32",
          "name": "id",
          "type": "bytes32"
        }
      ],
      "name": "isOperationReady",
      "outputs": [
        {
          "internalType": "bool",
          "name": "ready",
          "type": "bool"
        }
      ],
      "stateMutability": "view",
      "type": "function"
    },
    {
      "inputs": [
        {
          "internalType": "address",
          "name": "",
          "type": "address"
        },
        {
          "internalType": "address",
          "name": "",
          "type": "address"
        },
        {
          "internalType": "uint256[]",
          "name": "",
          "type": "uint256[]"
        },
        {
          "internalType": "uint256[]",
          "name": "",
          "type": "uint256[]"
        },
        {
          "internalType": "bytes",
          "name": "",
          "type": "bytes"
        }
      ],
      "name": "onERC1155BatchReceived",
      "outputs": [
        {
          "internalType": "bytes4",
          "name": "",
          "type": "bytes4"
        }
      ],
      "stateMutability": "nonpayable",
      "type": "function"
    },
    {
      "inputs": [
        {
          "internalType": "address",
          "name": "",
          "type": "address"
        },
        {
          "internalType": "address",
          "name": "",
          "type": "address"
        },
        {
          "internalType": "uint256",
          "name": "",
          "type": "uint256"
        },
        {
          "internalType": "uint256",
          "name": "",
          "type": "uint256"
        },
        {
          "internalType": "bytes",
          "name": "",
          "type": "bytes"
        }
      ],
      "name": "onERC1155Received",
      "outputs": [
        {
          "internalType": "bytes4",
          "name": "",
          "type": "bytes4"
        }
      ],
      "stateMutability": "nonpayable",
      "type": "function"
    },
    {
      "inputs": [
        {
          "internalType": "address",
          "name": "",
          "type": "address"
        },
        {
          "internalType": "address",
          "name": "",
          "type": "address"
        },
        {
          "internalType": "uint256",
          "name": "",
          "type": "uint256"
        },
        {
          "internalType": "bytes",
          "name": "",
          "type": "bytes"
        }
      ],
      "name": "onERC721Received",
      "outputs": [
        {
          "internalType": "bytes4",
          "name": "",
          "type": "bytes4"
        }
      ],
      "stateMutability": "nonpayable",
      "type": "function"
    },
    {
      "inputs": [
        {
          "internalType": "bytes32",
          "name": "role",
          "type": "bytes32"
        },
        {
          "internalType": "address",
          "name": "account",
          "type": "address"
        }
      ],
      "name": "renounceRole",
      "outputs": [],
      "stateMutability": "nonpayable",
      "type": "function"
    },
    {
      "inputs": [
        {
          "internalType": "bytes32",
          "name": "role",
          "type": "bytes32"
        },
        {
          "internalType": "address",
          "name": "account",
          "type": "address"
        }
      ],
      "name": "revokeRole",
      "outputs": [],
      "stateMutability": "nonpayable",
      "type": "function"
    },
    {
      "inputs": [
        {
          "internalType": "address",
          "name": "target",
          "type": "address"
        },
        {
          "internalType": "uint256",
          "name": "value",
          "type": "uint256"
        },
        {
          "internalType": "bytes",
          "name": "data",
          "type": "bytes"
        },
        {
          "internalType": "bytes32",
          "name": "predecessor",
          "type": "bytes32"
        },
        {
          "internalType": "bytes32",
          "name": "salt",
          "type": "bytes32"
        },
        {
          "internalType": "uint256",
          "name": "delay",
          "type": "uint256"
        }
      ],
      "name": "schedule",
      "outputs": [],
      "stateMutability": "nonpayable",
      "type": "function"
    },
    {
      "inputs": [
        {
          "internalType": "address[]",
          "name": "targets",
          "type": "address[]"
        },
        {
          "internalType": "uint256[]",
          "name": "values",
          "type": "uint256[]"
        },
        {
          "internalType": "bytes[]",
          "name": "payloads",
          "type": "bytes[]"
        },
        {
          "internalType": "bytes32",
          "name": "predecessor",
          "type": "bytes32"
        },
        {
          "internalType": "bytes32",
          "name": "salt",
          "type": "bytes32"
        },
        {
          "internalType": "uint256",
          "name": "delay",
          "type": "uint256"
        }
      ],
      "name": "scheduleBatch",
      "outputs": [],
      "stateMutability": "nonpayable",
      "type": "function"
    },
    {
      "inputs": [
        {
          "internalType": "bytes4",
          "name": "interfaceId",
          "type": "bytes4"
        }
      ],
      "name": "supportsInterface",
      "outputs": [
        {
          "internalType": "bool",
          "name": "",
          "type": "bool"
        }
      ],
      "stateMutability": "view",
      "type": "function"
    },
    {
      "inputs": [
        {
          "internalType": "uint256",
          "name": "newDelay",
          "type": "uint256"
        }
      ],
      "name": "updateDelay",
      "outputs": [],
      "stateMutability": "nonpayable",
      "type": "function"
    },
    {
      "stateMutability": "payable",
      "type": "receive"
    }
  ],
  "bytecode": "0x60806040523480156200001157600080fd5b50604051620021e6380380620021e68339810160408190526200003491620003fd565b82828262000052600080516020620021668339815191528062000222565b6200007c600080516020620021868339815191526000805160206200216683398151915262000222565b620000a6600080516020620021a68339815191526000805160206200216683398151915262000222565b620000d0600080516020620021c68339815191526000805160206200216683398151915262000222565b620000eb60008051602062002166833981519152336200026d565b6200010660008051602062002166833981519152306200026d565b60005b82518110156200018c5762000150600080516020620021868339815191528483815181106200013c576200013c62000471565b60200260200101516200026d60201b60201c565b62000179600080516020620021c68339815191528483815181106200013c576200013c62000471565b620001848162000487565b905062000109565b5060005b8151811015620001d657620001c3600080516020620021a68339815191528383815181106200013c576200013c62000471565b620001ce8162000487565b905062000190565b5060028390556040805160008152602081018590527f11c24f4ead16507c69ac467fbd5e4eed5fb5c699626d2cc6d66421df253886d5910160405180910390a1505050505050620004b1565b600082815260208190526040808220600101805490849055905190918391839186917fbd79b86ffe0ab8e8776151514217cd7cacd52c909f66475c3af44e129f0b00ff9190a4505050565b6200027982826200027d565b5050565b6000828152602081815260408083206001600160a01b038516845290915290205460ff1662000279576000828152602081815260408083206001600160a01b03851684529091529020805460ff19166001179055620002d93390565b6001600160a01b0316816001600160a01b0316837f2f8788117e7eff1d82e926ec794901d17c78024a50270940304540a733656f0d60405160405180910390a45050565b634e487b7160e01b600052604160045260246000fd5b80516001600160a01b03811681146200034b57600080fd5b919050565b600082601f8301126200036257600080fd5b815160206001600160401b03808311156200038157620003816200031d565b8260051b604051601f19603f83011681018181108482111715620003a957620003a96200031d565b604052938452858101830193838101925087851115620003c857600080fd5b83870191505b84821015620003f257620003e28262000333565b83529183019190830190620003ce565b979650505050505050565b6000806000606084860312156200041357600080fd5b835160208501519093506001600160401b03808211156200043357600080fd5b620004418783880162000350565b935060408601519150808211156200045857600080fd5b50620004678682870162000350565b9150509250925092565b634e487b7160e01b600052603260045260246000fd5b6000600019821415620004aa57634e487b7160e01b600052601160045260246000fd5b5060010190565b611ca580620004c16000396000f3fe60806040526004361061014b5760003560e01c806301d5062a1461015757806301ffc9a71461017957806307bd0265146101ae5780630d3cf6fc146101de578063134008d31461021257806313bc9f2014610225578063150b7a0214610245578063248a9ca3146102895780632ab0f529146102a95780632f2ff15d146102c957806331d50750146102e957806336568abe14610309578063584b153e1461032957806364d62353146103495780638065657f146103695780638f2a0bb0146103895780638f61f4f5146103a957806391d14854146103cb578063a217fddf146103eb578063b08e51c014610400578063b1c5f42714610422578063bc197c8114610442578063c4d252f51461046e578063d45c44351461048e578063d547741f146104ae578063e38335e5146104ce578063f23a6e61146104e1578063f27a0c921461050d57600080fd5b3661015257005b600080fd5b34801561016357600080fd5b50610177610172366004611224565b610522565b005b34801561018557600080fd5b50610199610194366004611298565b610593565b60405190151581526020015b60405180910390f35b3480156101ba57600080fd5b506101d0600080516020611c1083398151915281565b6040519081526020016101a5565b3480156101ea57600080fd5b506101d07f5f58e3a2316349923ce3780f8d587db2d72378aed66a8261c916544fa6846ca581565b6101776102203660046112c2565b6105be565b34801561023157600080fd5b5061019961024036600461132d565b610624565b34801561025157600080fd5b506102706102603660046113fb565b630a85bd0160e11b949350505050565b6040516001600160e01b031990911681526020016101a5565b34801561029557600080fd5b506101d06102a436600461132d565b610649565b3480156102b557600080fd5b506101996102c436600461132d565b61065e565b3480156102d557600080fd5b506101776102e4366004611462565b610672565b3480156102f557600080fd5b5061019961030436600461132d565b610693565b34801561031557600080fd5b50610177610324366004611462565b6106a6565b34801561033557600080fd5b5061019961034436600461132d565b610729565b34801561035557600080fd5b5061017761036436600461132d565b610736565b34801561037557600080fd5b506101d06103843660046112c2565b6107da565b34801561039557600080fd5b506101776103a43660046114d2565b610819565b3480156103b557600080fd5b506101d0600080516020611bf083398151915281565b3480156103d757600080fd5b506101996103e6366004611462565b610947565b3480156103f757600080fd5b506101d0600081565b34801561040c57600080fd5b506101d0600080516020611c5083398151915281565b34801561042e57600080fd5b506101d061043d366004611583565b610970565b34801561044e57600080fd5b5061027061045d3660046116aa565b63bc197c8160e01b95945050505050565b34801561047a57600080fd5b5061017761048936600461132d565b6109b5565b34801561049a57600080fd5b506101d06104a936600461132d565b610a78565b3480156104ba57600080fd5b506101776104c9366004611462565b610a8a565b6101776104dc366004611583565b610aa6565b3480156104ed57600080fd5b506102706104fc366004611753565b63f23a6e6160e01b95945050505050565b34801561051957600080fd5b506002546101d0565b600080516020611bf083398151915261053a81610bc9565b600061054a8989898989896107da565b90506105568184610bd6565b600081600080516020611c308339815191528b8b8b8b8b8a604051610580969594939291906117e0565b60405180910390a3505050505050505050565b60006001600160e01b03198216630271189760e51b14806105b857506105b882610cc5565b92915050565b600080516020611c108339815191526105d8816000610947565b6105e6576105e68133610cfa565b60006105f68888888888886107da565b90506106028185610d5e565b6106118160008a8a8a8a610def565b61061a81610f03565b5050505050505050565b60008061063083610a78565b90506001811180156106425750428111155b9392505050565b60009081526020819052604090206001015490565b6000600161066b83610a78565b1492915050565b61067b82610649565b61068481610bc9565b61068e8383610f3c565b505050565b60008061069f83610a78565b1192915050565b6001600160a01b038116331461071b5760405162461bcd60e51b815260206004820152602f60248201527f416363657373436f6e74726f6c3a2063616e206f6e6c792072656e6f756e636560448201526e103937b632b9903337b91039b2b63360891b60648201526084015b60405180910390fd5b6107258282610fc0565b5050565b6000600161069f83610a78565b3330146107995760405162461bcd60e51b815260206004820152602b60248201527f54696d656c6f636b436f6e74726f6c6c65723a2063616c6c6572206d7573742060448201526a62652074696d656c6f636b60a81b6064820152608401610712565b60025460408051918252602082018390527f11c24f4ead16507c69ac467fbd5e4eed5fb5c699626d2cc6d66421df253886d5910160405180910390a1600255565b60008686868686866040516020016107f7969594939291906117e0565b6040516020818303038152906040528051906020012090509695505050505050565b600080516020611bf083398151915261083181610bc9565b8887146108505760405162461bcd60e51b81526004016107129061181d565b88851461086f5760405162461bcd60e51b81526004016107129061181d565b60006108818b8b8b8b8b8b8b8b610970565b905061088d8184610bd6565b60005b8a811015610939578082600080516020611c308339815191528e8e858181106108bb576108bb611860565b90506020020160208101906108d09190611876565b8d8d868181106108e2576108e2611860565b905060200201358c8c878181106108fb576108fb611860565b905060200281019061090d9190611891565b8c8b604051610921969594939291906117e0565b60405180910390a3610932816118ed565b9050610890565b505050505050505050505050565b6000918252602082815260408084206001600160a01b0393909316845291905290205460ff1690565b60008888888888888888604051602001610991989796959493929190611998565b60405160208183030381529060405280519060200120905098975050505050505050565b600080516020611c508339815191526109cd81610bc9565b6109d682610729565b610a3c5760405162461bcd60e51b815260206004820152603160248201527f54696d656c6f636b436f6e74726f6c6c65723a206f7065726174696f6e2063616044820152701b9b9bdd0818994818d85b98d95b1b1959607a1b6064820152608401610712565b6000828152600160205260408082208290555183917fbaa1eb22f2a492ba1a5fea61b8df4d27c6c8b5f3971e63bb58fa14ff72eedb7091a25050565b60009081526001602052604090205490565b610a9382610649565b610a9c81610bc9565b61068e8383610fc0565b600080516020611c10833981519152610ac0816000610947565b610ace57610ace8133610cfa565b878614610aed5760405162461bcd60e51b81526004016107129061181d565b878414610b0c5760405162461bcd60e51b81526004016107129061181d565b6000610b1e8a8a8a8a8a8a8a8a610970565b9050610b2a8185610d5e565b60005b89811015610bb357610ba382828d8d85818110610b4c57610b4c611860565b9050602002016020810190610b619190611876565b8c8c86818110610b7357610b73611860565b905060200201358b8b87818110610b8c57610b8c611860565b9050602002810190610b9e9190611891565b610def565b610bac816118ed565b9050610b2d565b50610bbd81610f03565b50505050505050505050565b610bd38133610cfa565b50565b610bdf82610693565b15610c445760405162461bcd60e51b815260206004820152602f60248201527f54696d656c6f636b436f6e74726f6c6c65723a206f7065726174696f6e20616c60448201526e1c9958591e481cd8da19591d5b1959608a1b6064820152608401610712565b600254811015610ca55760405162461bcd60e51b815260206004820152602660248201527f54696d656c6f636b436f6e74726f6c6c65723a20696e73756666696369656e746044820152652064656c617960d01b6064820152608401610712565b610caf8142611a43565b6000928352600160205260409092209190915550565b60006001600160e01b03198216637965db0b60e01b14806105b857506301ffc9a760e01b6001600160e01b03198316146105b8565b610d048282610947565b61072557610d1c816001600160a01b03166014611025565b610d27836020611025565b604051602001610d38929190611a8b565b60408051601f198184030181529082905262461bcd60e51b825261071291600401611afa565b610d6782610624565b610d835760405162461bcd60e51b815260040161071290611b2d565b801580610d945750610d948161065e565b6107255760405162461bcd60e51b815260206004820152602660248201527f54696d656c6f636b436f6e74726f6c6c65723a206d697373696e6720646570656044820152656e64656e637960d01b6064820152608401610712565b6000846001600160a01b0316848484604051610e0c929190611b77565b60006040518083038185875af1925050503d8060008114610e49576040519150601f19603f3d011682016040523d82523d6000602084013e610e4e565b606091505b5050905080610ebb5760405162461bcd60e51b815260206004820152603360248201527f54696d656c6f636b436f6e74726f6c6c65723a20756e6465726c79696e6720746044820152721c985b9cd858dd1a5bdb881c995d995c9d1959606a1b6064820152608401610712565b85877fc2617efa69bab66782fa219543714338489c4e9e178271560a91b82c3f612b5887878787604051610ef29493929190611b87565b60405180910390a350505050505050565b610f0c81610624565b610f285760405162461bcd60e51b815260040161071290611b2d565b600090815260016020819052604090912055565b610f468282610947565b610725576000828152602081815260408083206001600160a01b03851684529091529020805460ff19166001179055610f7c3390565b6001600160a01b0316816001600160a01b0316837f2f8788117e7eff1d82e926ec794901d17c78024a50270940304540a733656f0d60405160405180910390a45050565b610fca8282610947565b15610725576000828152602081815260408083206001600160a01b0385168085529252808320805460ff1916905551339285917ff6391f5c32d9c69d2a47ea670b442974b53935d1edc7fd64eb21e047a839171b9190a45050565b60606000611034836002611bb9565b61103f906002611a43565b6001600160401b0381111561105657611056611346565b6040519080825280601f01601f191660200182016040528015611080576020820181803683370190505b509050600360fc1b8160008151811061109b5761109b611860565b60200101906001600160f81b031916908160001a905350600f60fb1b816001815181106110ca576110ca611860565b60200101906001600160f81b031916908160001a90535060006110ee846002611bb9565b6110f9906001611a43565b90505b6001811115611171576f181899199a1a9b1b9c1cb0b131b232b360811b85600f166010811061112d5761112d611860565b1a60f81b82828151811061114357611143611860565b60200101906001600160f81b031916908160001a90535060049490941c9361116a81611bd8565b90506110fc565b5083156106425760405162461bcd60e51b815260206004820181905260248201527f537472696e67733a20686578206c656e67746820696e73756666696369656e746044820152606401610712565b80356001600160a01b03811681146111d757600080fd5b919050565b60008083601f8401126111ee57600080fd5b5081356001600160401b0381111561120557600080fd5b60208301915083602082850101111561121d57600080fd5b9250929050565b600080600080600080600060c0888a03121561123f57600080fd5b611248886111c0565b96506020880135955060408801356001600160401b0381111561126a57600080fd5b6112768a828b016111dc565b989b979a50986060810135976080820135975060a09091013595509350505050565b6000602082840312156112aa57600080fd5b81356001600160e01b03198116811461064257600080fd5b60008060008060008060a087890312156112db57600080fd5b6112e4876111c0565b95506020870135945060408701356001600160401b0381111561130657600080fd5b61131289828a016111dc565b979a9699509760608101359660809091013595509350505050565b60006020828403121561133f57600080fd5b5035919050565b634e487b7160e01b600052604160045260246000fd5b604051601f8201601f191681016001600160401b038111828210171561138457611384611346565b604052919050565b600082601f83011261139d57600080fd5b81356001600160401b038111156113b6576113b6611346565b6113c9601f8201601f191660200161135c565b8181528460208386010111156113de57600080fd5b816020850160208301376000918101602001919091529392505050565b6000806000806080858703121561141157600080fd5b61141a856111c0565b9350611428602086016111c0565b92506040850135915060608501356001600160401b0381111561144a57600080fd5b6114568782880161138c565b91505092959194509250565b6000806040838503121561147557600080fd5b82359150611485602084016111c0565b90509250929050565b60008083601f8401126114a057600080fd5b5081356001600160401b038111156114b757600080fd5b6020830191508360208260051b850101111561121d57600080fd5b600080600080600080600080600060c08a8c0312156114f057600080fd5b89356001600160401b038082111561150757600080fd5b6115138d838e0161148e565b909b50995060208c013591508082111561152c57600080fd5b6115388d838e0161148e565b909950975060408c013591508082111561155157600080fd5b5061155e8c828d0161148e565b9a9d999c50979a969997986060880135976080810135975060a0013595509350505050565b60008060008060008060008060a0898b03121561159f57600080fd5b88356001600160401b03808211156115b657600080fd5b6115c28c838d0161148e565b909a50985060208b01359150808211156115db57600080fd5b6115e78c838d0161148e565b909850965060408b013591508082111561160057600080fd5b5061160d8b828c0161148e565b999c989b509699959896976060870135966080013595509350505050565b600082601f83011261163c57600080fd5b813560206001600160401b0382111561165757611657611346565b8160051b61166682820161135c565b928352848101820192828101908785111561168057600080fd5b83870192505b8483101561169f57823582529183019190830190611686565b979650505050505050565b600080600080600060a086880312156116c257600080fd5b6116cb866111c0565b94506116d9602087016111c0565b935060408601356001600160401b03808211156116f557600080fd5b61170189838a0161162b565b9450606088013591508082111561171757600080fd5b61172389838a0161162b565b9350608088013591508082111561173957600080fd5b506117468882890161138c565b9150509295509295909350565b600080600080600060a0868803121561176b57600080fd5b611774866111c0565b9450611782602087016111c0565b9350604086013592506060860135915060808601356001600160401b038111156117ab57600080fd5b6117468882890161138c565b81835281816020850137506000828201602090810191909152601f909101601f19169091010190565b60018060a01b038716815285602082015260a06040820152600061180860a0830186886117b7565b60608301949094525060800152949350505050565b60208082526023908201527f54696d656c6f636b436f6e74726f6c6c65723a206c656e677468206d69736d616040820152620e8c6d60eb1b606082015260800190565b634e487b7160e01b600052603260045260246000fd5b60006020828403121561188857600080fd5b610642826111c0565b6000808335601e198436030181126118a857600080fd5b8301803591506001600160401b038211156118c257600080fd5b60200191503681900382131561121d57600080fd5b634e487b7160e01b600052601160045260246000fd5b6000600019821415611901576119016118d7565b5060010190565b81835260006020808501808196508560051b810191508460005b8781101561198b5782840389528135601e1988360301811261194357600080fd5b870180356001600160401b0381111561195b57600080fd5b80360389131561196a57600080fd5b61197786828985016117b7565b9a87019a9550505090840190600101611922565b5091979650505050505050565b60a0808252810188905260008960c08301825b8b8110156119d9576001600160a01b036119c4846111c0565b168252602092830192909101906001016119ab565b5083810360208501528881526001600160fb1b038911156119f957600080fd5b8860051b9150818a602083013781810191505060208101600081526020848303016040850152611a2a81888a611908565b6060850196909652505050608001529695505050505050565b60008219821115611a5657611a566118d7565b500190565b60005b83811015611a76578181015183820152602001611a5e565b83811115611a85576000848401525b50505050565b76020b1b1b2b9b9a1b7b73a3937b61d1030b1b1b7bab73a1604d1b815260008351611abd816017850160208801611a5b565b7001034b99036b4b9b9b4b733903937b6329607d1b6017918401918201528351611aee816028840160208801611a5b565b01602801949350505050565b6020815260008251806020840152611b19816040850160208701611a5b565b601f01601f19169190910160400192915050565b6020808252602a908201527f54696d656c6f636b436f6e74726f6c6c65723a206f7065726174696f6e206973604082015269206e6f7420726561647960b01b606082015260800190565b8183823760009101908152919050565b60018060a01b0385168152836020820152606060408201526000611baf6060830184866117b7565b9695505050505050565b6000816000190483118215151615611bd357611bd36118d7565b500290565b600081611be757611be76118d7565b50600019019056feb09aa5aeb3702cfd50b6b62bc4532604938f21248a27a1d5ca736082b6819cc1d8aa0f3194971a2a116679f7c2090f6939c8d4e01a2a8d7e41d55e5351469e634cf4410cc57040e44862ef0f45f3dd5a5e02db8eb8add648d4b0e236f1d07dcafd643c72710c63c0180259aba6b2d05451e3591a24e58b62239378085726f783a2646970667358221220252368b89a1ab7494a8067f89969f9ac155fad6277925f5a51c7acf1a8bce31464736f6c634300080b00335f58e3a2316349923ce3780f8d587db2d72378aed66a8261c916544fa6846ca5b09aa5aeb3702cfd50b6b62bc4532604938f21248a27a1d5ca736082b6819cc1d8aa0f3194971a2a116679f7c2090f6939c8d4e01a2a8d7e41d55e5351469e63fd643c72710c63c0180259aba6b2d05451e3591a24e58b62239378085726f783",
  "immutableReferences": {},
  "source": "// SPDX-License-Identifier: MIT\r\npragma solidity ^0.8.7;\r\npragma experimental ABIEncoderV2;\r\n\r\nimport \"@openzeppelin/contracts/governance/TimelockController.sol\";\r\n\r\ncontract GovernanceTimeLock is TimelockController {\r\n    // minDelay is how long you have to wait before executing\r\n    // proposers is the list of addresses that can propose\r\n    // executors is the list of addresses that can execute\r\n    constructor (\r\n        uint256 minDelay,\r\n        address[] memory proposers,\r\n        address[] memory executors\r\n    ) TimelockController (minDelay, proposers, executors) {}\r\n}",
  "sourcePath": "C:\\Users\\USER\\Desktop\\Picardy_Protocol\\contracts\\Governance\\TimeLock.sol",
  "compiler": {
    "name": "solc",
    "version": "0.8.11+commit.d7f03943.Emscripten.clang"
  },
  "schemaVersion": "3.4.6",
  "updatedAt": "2022-05-31T14:11:35.386Z",
  "devdoc": {
    "kind": "dev",
    "methods": {
      "cancel(bytes32)": {
        "details": "Cancel an operation. Requirements: - the caller must have the 'canceller' role."
      },
      "execute(address,uint256,bytes,bytes32,bytes32)": {
        "details": "Execute an (ready) operation containing a single transaction. Emits a {CallExecuted} event. Requirements: - the caller must have the 'executor' role."
      },
      "executeBatch(address[],uint256[],bytes[],bytes32,bytes32)": {
        "details": "Execute an (ready) operation containing a batch of transactions. Emits one {CallExecuted} event per transaction in the batch. Requirements: - the caller must have the 'executor' role."
      },
      "getMinDelay()": {
        "details": "Returns the minimum delay for an operation to become valid. This value can be changed by executing an operation that calls `updateDelay`."
      },
      "getRoleAdmin(bytes32)": {
        "details": "Returns the admin role that controls `role`. See {grantRole} and {revokeRole}. To change a role's admin, use {_setRoleAdmin}."
      },
      "getTimestamp(bytes32)": {
        "details": "Returns the timestamp at with an operation becomes ready (0 for unset operations, 1 for done operations)."
      },
      "grantRole(bytes32,address)": {
        "details": "Grants `role` to `account`. If `account` had not been already granted `role`, emits a {RoleGranted} event. Requirements: - the caller must have ``role``'s admin role."
      },
      "hasRole(bytes32,address)": {
        "details": "Returns `true` if `account` has been granted `role`."
      },
      "hashOperation(address,uint256,bytes,bytes32,bytes32)": {
        "details": "Returns the identifier of an operation containing a single transaction."
      },
      "hashOperationBatch(address[],uint256[],bytes[],bytes32,bytes32)": {
        "details": "Returns the identifier of an operation containing a batch of transactions."
      },
      "isOperation(bytes32)": {
        "details": "Returns whether an id correspond to a registered operation. This includes both Pending, Ready and Done operations."
      },
      "isOperationDone(bytes32)": {
        "details": "Returns whether an operation is done or not."
      },
      "isOperationPending(bytes32)": {
        "details": "Returns whether an operation is pending or not."
      },
      "isOperationReady(bytes32)": {
        "details": "Returns whether an operation is ready or not."
      },
      "onERC1155BatchReceived(address,address,uint256[],uint256[],bytes)": {
        "details": "See {IERC1155Receiver-onERC1155BatchReceived}."
      },
      "onERC1155Received(address,address,uint256,uint256,bytes)": {
        "details": "See {IERC1155Receiver-onERC1155Received}."
      },
      "onERC721Received(address,address,uint256,bytes)": {
        "details": "See {IERC721Receiver-onERC721Received}."
      },
      "renounceRole(bytes32,address)": {
        "details": "Revokes `role` from the calling account. Roles are often managed via {grantRole} and {revokeRole}: this function's purpose is to provide a mechanism for accounts to lose their privileges if they are compromised (such as when a trusted device is misplaced). If the calling account had been revoked `role`, emits a {RoleRevoked} event. Requirements: - the caller must be `account`."
      },
      "revokeRole(bytes32,address)": {
        "details": "Revokes `role` from `account`. If `account` had been granted `role`, emits a {RoleRevoked} event. Requirements: - the caller must have ``role``'s admin role."
      },
      "schedule(address,uint256,bytes,bytes32,bytes32,uint256)": {
        "details": "Schedule an operation containing a single transaction. Emits a {CallScheduled} event. Requirements: - the caller must have the 'proposer' role."
      },
      "scheduleBatch(address[],uint256[],bytes[],bytes32,bytes32,uint256)": {
        "details": "Schedule an operation containing a batch of transactions. Emits one {CallScheduled} event per transaction in the batch. Requirements: - the caller must have the 'proposer' role."
      },
      "supportsInterface(bytes4)": {
        "details": "See {IERC165-supportsInterface}."
      },
      "updateDelay(uint256)": {
        "details": "Changes the minimum timelock duration for future operations. Emits a {MinDelayChange} event. Requirements: - the caller must be the timelock itself. This can only be achieved by scheduling and later executing an operation where the timelock is the target and the data is the ABI-encoded call to this function."
      }
    },
    "version": 1
  },
  "userdoc": {
    "kind": "user",
    "methods": {},
    "version": 1
  }
}