{
  "contractName": "NftRoyaltySaleFactory",
  "abi": [
    {
      "inputs": [
        {
          "internalType": "address",
          "name": "_PICARDY_HUB",
          "type": "address"
        }
      ],
      "stateMutability": "nonpayable",
      "type": "constructor"
    },
    {
      "anonymous": false,
      "inputs": [
        {
          "indexed": true,
          "internalType": "address",
          "name": "previousOwner",
          "type": "address"
        },
        {
          "indexed": true,
          "internalType": "address",
          "name": "newOwner",
          "type": "address"
        }
      ],
      "name": "OwnershipTransferred",
      "type": "event"
    },
    {
      "inputs": [],
      "name": "owner",
      "outputs": [
        {
          "internalType": "address",
          "name": "",
          "type": "address"
        }
      ],
      "stateMutability": "view",
      "type": "function",
      "constant": true
    },
    {
      "inputs": [],
      "name": "renounceOwnership",
      "outputs": [],
      "stateMutability": "nonpayable",
      "type": "function"
    },
    {
      "inputs": [
        {
          "internalType": "address",
          "name": "newOwner",
          "type": "address"
        }
      ],
      "name": "transferOwnership",
      "outputs": [],
      "stateMutability": "nonpayable",
      "type": "function"
    },
    {
      "inputs": [
        {
          "internalType": "uint256",
          "name": "_maxSupply",
          "type": "uint256"
        },
        {
          "internalType": "uint256",
          "name": "_maxMintAmount",
          "type": "uint256"
        },
        {
          "internalType": "uint256",
          "name": "_cost",
          "type": "uint256"
        },
        {
          "internalType": "uint256",
          "name": "_percentage",
          "type": "uint256"
        },
        {
          "internalType": "uint256",
          "name": "_profileId",
          "type": "uint256"
        },
        {
          "internalType": "string",
          "name": "_name",
          "type": "string"
        },
        {
          "internalType": "string",
          "name": "_symbol",
          "type": "string"
        },
        {
          "internalType": "string",
          "name": "_initBaseURI",
          "type": "string"
        }
      ],
      "name": "createNftRoyalty",
      "outputs": [],
      "stateMutability": "nonpayable",
      "type": "function"
    }
  ],
  "bytecode": "0x60a060405234801561001057600080fd5b506040516150ba3803806150ba83398101604081905261002f91610176565b61003833610056565b6001600160a01b0381166080819052610050906100a6565b506101a6565b600080546001600160a01b038381166001600160a01b0319831681178455604051919092169283917f8be0079c531659141344cd1fd0a4f28419497f9722a3daafe3b4186f6b6457e09190a35050565b6000546001600160a01b031633146101055760405162461bcd60e51b815260206004820181905260248201527f4f776e61626c653a2063616c6c6572206973206e6f7420746865206f776e657260448201526064015b60405180910390fd5b6001600160a01b03811661016a5760405162461bcd60e51b815260206004820152602660248201527f4f776e61626c653a206e6577206f776e657220697320746865207a65726f206160448201526564647265737360d01b60648201526084016100fc565b61017381610056565b50565b60006020828403121561018857600080fd5b81516001600160a01b038116811461019f57600080fd5b9392505050565b608051614eec6101ce6000396000818160dc0152818161017a01526103c40152614eec6000f3fe60806040523480156200001157600080fd5b5060043610620000525760003560e01c80632ab4f47c1462000057578063715018a614620000705780638da5cb5b146200007a578063f2fde38b14620000a0575b600080fd5b6200006e6200006836600462000576565b620000b7565b005b6200006e620002ab565b62000084620002f6565b6040516001600160a01b03909116815260200160405180910390f35b6200006e620000b13660046200064e565b62000305565b83620000c381620003ae565b604051630efc0f2f60e21b8152600481018690526000907f00000000000000000000000000000000000000000000000000000000000000006001600160a01b031690633bf03cbc90602401600060405180830381865afa1580156200012c573d6000803e3d6000fd5b505050506040513d6000823e601f3d908101601f19168201604052620001569190810190620006a8565b6040516336e3382360e21b8152600481018890529091506000906001600160a01b037f0000000000000000000000000000000000000000000000000000000000000000169063db8ce08c90602401602060405180830381865afa158015620001c2573d6000803e3d6000fd5b505050506040513d601f19601f82011682018060405250810190620001e8919062000727565b905060008b8b8b8b8a8a8a8933604051620002039062000499565b620002179998979695949392919062000775565b604051809103906000f08015801562000234573d6000803e3d6000fd5b50604051636eabe6a360e11b8152600360048201526001600160a01b0380831660248301529192509083169063dd57cd4690604401600060405180830381600087803b1580156200028457600080fd5b505af115801562000299573d6000803e3d6000fd5b50505050505050505050505050505050565b33620002b6620002f6565b6001600160a01b031614620002e85760405162461bcd60e51b8152600401620002df9062000805565b60405180910390fd5b620002f4600062000449565b565b6000546001600160a01b031690565b3362000310620002f6565b6001600160a01b031614620003395760405162461bcd60e51b8152600401620002df9062000805565b6001600160a01b038116620003a05760405162461bcd60e51b815260206004820152602660248201527f4f776e61626c653a206e6577206f776e657220697320746865207a65726f206160448201526564647265737360d01b6064820152608401620002df565b620003ab8162000449565b50565b604051631eb18ccf60e31b8152600481018290527f00000000000000000000000000000000000000000000000000000000000000006001600160a01b03169063f58c667890602401602060405180830381865afa15801562000414573d6000803e3d6000fd5b505050506040513d601f19601f820116820180604052508101906200043a91906200083a565b1515600114620003ab57600080fd5b600080546001600160a01b038381166001600160a01b0319831681178455604051919092169283917f8be0079c531659141344cd1fd0a4f28419497f9722a3daafe3b4186f6b6457e09190a35050565b614658806200085f83390190565b634e487b7160e01b600052604160045260246000fd5b604051601f8201601f191681016001600160401b0381118282101715620004e857620004e8620004a7565b604052919050565b60006001600160401b038211156200050c576200050c620004a7565b50601f01601f191660200190565b600082601f8301126200052c57600080fd5b8135620005436200053d82620004f0565b620004bd565b8181528460208386010111156200055957600080fd5b816020850160208301376000918101602001919091529392505050565b600080600080600080600080610100898b0312156200059457600080fd5b883597506020890135965060408901359550606089013594506080890135935060a08901356001600160401b0380821115620005cf57600080fd5b620005dd8c838d016200051a565b945060c08b0135915080821115620005f457600080fd5b620006028c838d016200051a565b935060e08b01359150808211156200061957600080fd5b50620006288b828c016200051a565b9150509295985092959890939650565b6001600160a01b0381168114620003ab57600080fd5b6000602082840312156200066157600080fd5b81356200066e8162000638565b9392505050565b60005b838110156200069257818101518382015260200162000678565b83811115620006a2576000848401525b50505050565b600060208284031215620006bb57600080fd5b81516001600160401b03811115620006d257600080fd5b8201601f81018413620006e457600080fd5b8051620006f56200053d82620004f0565b8181528560208385010111156200070b57600080fd5b6200071e82602083016020860162000675565b95945050505050565b6000602082840312156200073a57600080fd5b81516200066e8162000638565b600081518084526200076181602086016020860162000675565b601f01601f19169290920160200192915050565b60006101208b83528a6020840152896040840152886060840152806080840152620007a38184018962000747565b905082810360a0840152620007b9818862000747565b905082810360c0840152620007cf818762000747565b905082810360e0840152620007e5818662000747565b91505060018060a01b0383166101008301529a9950505050505050505050565b6020808252818101527f4f776e61626c653a2063616c6c6572206973206e6f7420746865206f776e6572604082015260600190565b6000602082840312156200084d57600080fd5b815180151581146200066e57600080fdfe608060405260038055600f54601080546001600160a01b0319166001600160a01b039092169190911790553480156200003757600080fd5b5060405162004658380380620046588339810160408190526200005a9162000361565b620000653362000181565b600180556002805460ff1916905560408051610120810182526001600160a01b03831680825260208083018c90529282018c9052606082018a90526080820189905260a0820185905260c0820188905260e082018690526101008201879052600480546001600160a01b031916909117815560058b905560068c905560078a90556008899055845191928392620001039160099190880190620001d1565b5060c0820151805162000121916006840191602090910190620001d1565b5060e082015180516200013f916007840191602090910190620001d1565b5061010082015180516200015e916008840191602090910190620001d1565b50506002805461ff00191661010017905550620004939950505050505050505050565b600080546001600160a01b038381166001600160a01b0319831681178455604051919092169283917f8be0079c531659141344cd1fd0a4f28419497f9722a3daafe3b4186f6b6457e09190a35050565b828054620001df9062000456565b90600052602060002090601f0160209004810192826200020357600085556200024e565b82601f106200021e57805160ff19168380011785556200024e565b828001600101855582156200024e579182015b828111156200024e57825182559160200191906001019062000231565b506200025c92915062000260565b5090565b5b808211156200025c576000815560010162000261565b634e487b7160e01b600052604160045260246000fd5b600082601f8301126200029f57600080fd5b81516001600160401b0380821115620002bc57620002bc62000277565b604051601f8301601f19908116603f01168101908282118183101715620002e757620002e762000277565b816040528381526020925086838588010111156200030457600080fd5b600091505b8382101562000328578582018301518183018401529082019062000309565b838211156200033a5760008385830101525b9695505050505050565b80516001600160a01b03811681146200035c57600080fd5b919050565b60008060008060008060008060006101208a8c0312156200038157600080fd5b895160208b015160408c015160608d015160808e0151939c50919a50985096506001600160401b0380821115620003b757600080fd5b620003c58d838e016200028d565b965060a08c0151915080821115620003dc57600080fd5b620003ea8d838e016200028d565b955060c08c01519150808211156200040157600080fd5b6200040f8d838e016200028d565b945060e08c01519150808211156200042657600080fd5b50620004358c828d016200028d565b925050620004476101008b0162000344565b90509295985092959850929598565b600181811c908216806200046b57607f821691505b602082108114156200048d57634e487b7160e01b600052602260045260246000fd5b50919050565b6141b580620004a36000396000f3fe60806040523480156200001157600080fd5b5060043610620000ca5760003560e01c80630975b2c614620000cf5780633ccfd60b14620000e85780633f4ba83a14620000f2578063440a4a1614620000fc57806357a2eda9146200011e5780635c975abb14620001355780636d005ca1146200014c578063715018a6146200016f5780638456cb5914620001795780638da5cb5b14620001835780638fffd8b5146200018d578063be9a655514620001a4578063e923240e14620001ae578063f2fde38b14620001c5575b600080fd5b620000e6620000e03660046200104f565b620001dc565b005b620000e6620003c7565b620000e6620003d3565b620001066200041a565b6040516200011591906200107e565b60405180910390f35b620000e66200012f366004620010c4565b6200042e565b60025460ff16604051901515815260200162000115565b600d5462000160906001600160a01b031681565b604051620001159190620010de565b620000e662000459565b620000e662000499565b62000160620004d7565b620000e66200019e366004620010c4565b620004e6565b620000e6620004fb565b620000e6620001bf36600462001161565b62000548565b620000e6620001d636600462001200565b6200067e565b60008181526014602052604090205460ff161515600114620001fd57600080fd5b60105460405163ac1e17df60e01b81526001600160a01b039091169063ac1e17df906200022f908590600401620010de565b600060405180830381600087803b1580156200024a57600080fd5b505af11580156200025f573d6000803e3d6000fd5b5050600f546040516323b872dd60e01b81526001600160a01b0390911692506323b872dd9150620002999030908690869060040162001227565b600060405180830381600087803b158015620002b457600080fd5b505af1158015620002c9573d6000803e3d6000fd5b5050506001600160a01b038084166000908152601260205260408082209190915560105490516370a0823160e01b8152911691506370a082319062000313903390600401620010de565b602060405180830381865afa15801562000331573d6000803e3d6000fd5b505050506040513d601f19601f820116820180604052508101906200035791906200124b565b620003c3576010546040516311ba850160e31b81526001600160a01b0390911690638dd42808906200038e903390600401620010de565b600060405180830381600087803b158015620003a957600080fd5b505af1158015620003be573d6000803e3d6000fd5b505050505b5050565b620003d162000724565b565b33620003de620004d7565b6001600160a01b031614620004105760405162461bcd60e51b8152600401620004079062001265565b60405180910390fd5b620003d162000954565b6060600062000428620009e5565b92915050565b336000908152601260205260409020548111156200044b57600080fd5b620004568162000c08565b50565b3362000464620004d7565b6001600160a01b0316146200048d5760405162461bcd60e51b8152600401620004079062001265565b620003d1600062000caa565b33620004a4620004d7565b6001600160a01b031614620004cd5760405162461bcd60e51b8152600401620004079062001265565b620003d162000cfa565b6000546001600160a01b031690565b620004f062000d78565b620004568162000d90565b6200050562000d78565b6001600254610100900460ff1660018111156200052657620005266200129a565b146200053157600080fd5b6200053b62000f70565b6002805461ff0019169055565b60005b8151811015620003c357601460008383815181106200056e576200056e620012b0565b60209081029190910181015182528101919091526040016000205460ff16156200059757600080fd5b600f5482516001600160a01b039091169063095ea7b3903090859085908110620005c557620005c5620012b0565b60200260200101516040518363ffffffff1660e01b8152600401620005ec929190620012c6565b600060405180830381600087803b1580156200060757600080fd5b505af11580156200061c573d6000803e3d6000fd5b505050506001601460008484815181106200063b576200063b620012b0565b6020026020010151815260200190815260200160002060006101000a81548160ff02191690831515021790555080806200067590620012f5565b9150506200054b565b3362000689620004d7565b6001600160a01b031614620006b25760405162461bcd60e51b8152600401620004079062001265565b6001600160a01b038116620007195760405162461bcd60e51b815260206004820152602660248201527f4f776e61626c653a206e6577206f776e657220697320746865207a65726f206160448201526564647265737360d01b606482015260840162000407565b620004568162000caa565b6006546010546040805163612290e360e11b815290516001600160a01b039092169163c24521c6916004818101926020929091908290030181865afa15801562000772573d6000803e3d6000fd5b505050506040513d601f19601f820116820180604052508101906200079891906200124b565b14620007a357600080fd5b600d546040516370a0823160e01b81526000916001600160a01b0316906370a0823190620007d6903090600401620010de565b602060405180830381865afa158015620007f4573d6000803e3d6000fd5b505050506040513d601f19601f820116820180604052508101906200081a91906200124b565b9050600060646200082d83600562001313565b62000839919062001335565b9050600062000849828462001358565b600d54600480546040516323b872dd60e01b81529394506001600160a01b03928316936323b872dd93620008869330939091169187910162001227565b6020604051808303816000875af1158015620008a6573d6000803e3d6000fd5b505050506040513d601f19601f82011682018060405250810190620008cc919062001372565b50600d54600e546040516323b872dd60e01b81526001600160a01b03928316926323b872dd926200090892309290911690879060040162001227565b6020604051808303816000875af115801562000928573d6000803e3d6000fd5b505050506040513d601f19601f820116820180604052508101906200094e919062001372565b50505050565b60025460ff166200099f5760405162461bcd60e51b815260206004820152601460248201527314185d5cd8589b194e881b9bdd081c185d5cd95960621b604482015260640162000407565b6002805460ff191690557f5db9ee0a495bf2e6ff9c91a7834c1ba4fdd244a5e8aa4e537bd38aeae4b073aa335b604051620009db9190620010de565b60405180910390a1565b3360008181526013602052604080822060105491516370a0823160e01b81526060949193926001600160a01b0316916370a082319162000a299190600401620010de565b602060405180830381865afa15801562000a47573d6000803e3d6000fd5b505050506040513d601f19601f8201168201806040525081019062000a6d91906200124b565b90506000601060009054906101000a90046001600160a01b03166001600160a01b03166318160ddd6040518163ffffffff1660e01b8152600401602060405180830381865afa15801562000ac5573d6000803e3d6000fd5b505050506040513d601f19601f8201168201806040525081019062000aeb91906200124b565b905060005b8181101562000bb157600f54604051632f745c5960e01b81526000916001600160a01b031690632f745c599062000b2e9033908690600401620012c6565b602060405180830381865afa15801562000b4c573d6000803e3d6000fd5b505050506040513d601f19601f8201168201806040525081019062000b7291906200124b565b855460018101875560008781526020902001819055855490915084141562000b9b575062000bb1565b508062000ba881620012f5565b91505062000af0565b5082546040805160208084028201810190925282815291859183018282801562000bfb57602002820191906000526020600020905b81548152602001906001019080831162000be6575b5050505050935050505090565b336000908152601260205260408120805483929062000c2990849062001358565b9091555050600d546040516323b872dd60e01b81526001600160a01b03909116906323b872dd9062000c649030903390869060040162001227565b6020604051808303816000875af115801562000c84573d6000803e3d6000fd5b505050506040513d601f19601f82011682018060405250810190620003c3919062001372565b600080546001600160a01b038381166001600160a01b0319831681178455604051919092169283917f8be0079c531659141344cd1fd0a4f28419497f9722a3daafe3b4186f6b6457e09190a35050565b60025460ff161562000d425760405162461bcd60e51b815260206004820152601060248201526f14185d5cd8589b194e881c185d5cd95960821b604482015260640162000407565b6002805460ff191660011790557f62e78cea01bee320cd4e420270b5ea74000d11b0c9f74754ebdbfc544b05a258620009cc3390565b6004546001600160a01b03163314620003d157600080fd5b6006546010546040805163612290e360e11b815290516001600160a01b039092169163c24521c6916004818101926020929091908290030181865afa15801562000dde573d6000803e3d6000fd5b505050506040513d601f19601f8201168201806040525081019062000e0491906200124b565b1462000e0f57600080fd5b600062000e1c8262000feb565b90506000601060009054906101000a90046001600160a01b03166001600160a01b0316635fe8e7cc6040518163ffffffff1660e01b8152600401600060405180830381865afa15801562000e74573d6000803e3d6000fd5b505050506040513d6000823e601f3d908101601f1916820160405262000e9e919081019062001396565b905060005b81518110156200094e5760006011600084848151811062000ec85762000ec8620012b0565b60200260200101516001600160a01b03166001600160a01b03168152602001908152602001600020548462000efe919062001313565b9050806012600085858151811062000f1a5762000f1a620012b0565b60200260200101516001600160a01b03166001600160a01b03168152602001908152602001600020600082825462000f5391906200142f565b9091555082915062000f67905081620012f5565b91505062000ea3565b600654600554600754604051600093929190600a90600c90600b90339062000f98906200102b565b62000faa9796959493929190620014f2565b604051809103906000f08015801562000fc7573d6000803e3d6000fd5b50600f80546001600160a01b0319166001600160a01b039290921691909117905550565b600080606460048001548462001002919062001313565b6200100e919062001335565b60065490915060009062001023908362001335565b949350505050565b612c1f806200156183390190565b6001600160a01b03811681146200045657600080fd5b600080604083850312156200106357600080fd5b8235620010708162001039565b946020939093013593505050565b6020808252825182820181905260009190848201906040850190845b81811015620010b8578351835292840192918401916001016200109a565b50909695505050505050565b600060208284031215620010d757600080fd5b5035919050565b6001600160a01b0391909116815260200190565b634e487b7160e01b600052604160045260246000fd5b604051601f8201601f191681016001600160401b0381118282101715620011335762001133620010f2565b604052919050565b60006001600160401b03821115620011575762001157620010f2565b5060051b60200190565b600060208083850312156200117557600080fd5b82356001600160401b038111156200118c57600080fd5b8301601f810185136200119e57600080fd5b8035620011b5620011af826200113b565b62001108565b81815260059190911b82018301908381019087831115620011d557600080fd5b928401925b82841015620011f557833582529284019290840190620011da565b979650505050505050565b6000602082840312156200121357600080fd5b8135620012208162001039565b9392505050565b6001600160a01b039384168152919092166020820152604081019190915260600190565b6000602082840312156200125e57600080fd5b5051919050565b6020808252818101527f4f776e61626c653a2063616c6c6572206973206e6f7420746865206f776e6572604082015260600190565b634e487b7160e01b600052602160045260246000fd5b634e487b7160e01b600052603260045260246000fd5b6001600160a01b03929092168252602082015260400190565b634e487b7160e01b600052601160045260246000fd5b60006000198214156200130c576200130c620012df565b5060010190565b6000816000190483118215151615620013305762001330620012df565b500290565b6000826200135357634e487b7160e01b600052601260045260246000fd5b500490565b6000828210156200136d576200136d620012df565b500390565b6000602082840312156200138557600080fd5b815180151581146200122057600080fd5b60006020808385031215620013aa57600080fd5b82516001600160401b03811115620013c157600080fd5b8301601f81018513620013d357600080fd5b8051620013e4620011af826200113b565b81815260059190911b820183019083810190878311156200140457600080fd5b928401925b82841015620011f55783516200141f8162001039565b8252928401929084019062001409565b60008219821115620014455762001445620012df565b500190565b8054600090600181811c90808316806200146557607f831692505b60208084108214156200148857634e487b7160e01b600052602260045260246000fd5b83885260208801828015620014a65760018114620014b857620014e5565b60ff19871682528282019750620014e5565b60008981526020902060005b87811015620014df57815484820152908601908401620014c4565b83019850505b5050505050505092915050565b87815286602082015285604082015260e0606082015260006200151960e08301876200144a565b82810360808401526200152d81876200144a565b905082810360a08401526200154381866200144a565b91505060018060a01b03831660c08301529897505050505050505056fe60c06040526005608081905264173539b7b760d91b60a09081526200002891600c9190620001c4565b506011805460ff191690553480156200004057600080fd5b5060405162002c1f38038062002c1f833981016040819052620000639162000337565b8351849084906200007c906000906020850190620001c4565b50805162000092906001906020840190620001c4565b5050600a805460ff1916905550620000aa33620000ec565b600d879055600e869055601280546001600160a01b0319166001600160a01b038316179055600f859055620000df8262000146565b5050505050505062000448565b600a80546001600160a01b03838116610100818102610100600160a81b031985161790945560405193909204169182907f8be0079c531659141344cd1fd0a4f28419497f9722a3daafe3b4186f6b6457e090600090a35050565b600a546001600160a01b03610100909104163314620001ab5760405162461bcd60e51b815260206004820181905260248201527f4f776e61626c653a2063616c6c6572206973206e6f7420746865206f776e6572604482015260640160405180910390fd5b8051620001c090600b906020840190620001c4565b5050565b828054620001d2906200040b565b90600052602060002090601f016020900481019282620001f6576000855562000241565b82601f106200021157805160ff191683800117855562000241565b8280016001018555821562000241579182015b828111156200024157825182559160200191906001019062000224565b506200024f92915062000253565b5090565b5b808211156200024f576000815560010162000254565b634e487b7160e01b600052604160045260246000fd5b600082601f8301126200029257600080fd5b81516001600160401b0380821115620002af57620002af6200026a565b604051601f8301601f19908116603f01168101908282118183101715620002da57620002da6200026a565b81604052838152602092508683858801011115620002f757600080fd5b600091505b838210156200031b5785820183015181830184015290820190620002fc565b838211156200032d5760008385830101525b9695505050505050565b600080600080600080600060e0888a0312156200035357600080fd5b8751602089015160408a015160608b015192995090975095506001600160401b03808211156200038257600080fd5b620003908b838c0162000280565b955060808a0151915080821115620003a757600080fd5b620003b58b838c0162000280565b945060a08a0151915080821115620003cc57600080fd5b50620003db8a828b0162000280565b60c08a015190935090506001600160a01b0381168114620003fb57600080fd5b8091505092959891949750929550565b600181811c908216806200042057607f821691505b602082108114156200044257634e487b7160e01b600052602260045260246000fd5b50919050565b6127c780620004586000396000f3fe608060405234801561001057600080fd5b50600436106101ee5760003560e01c806301ffc9a7146101f357806302d05d3f1461021b57806306fdde031461023b578063081812fc14610250578063095ea7b31461026357806313faede61461027857806318160ddd1461028f578063239c70ae1461029757806323b872dd146102a05780632f745c59146102b35780633ccfd60b146102c65780633f4ba83a146102ce57806342842e0e146102d6578063438b6300146102e957806344a0d68a146103095780634f6ccce71461031c578063518302271461032f57806355f804b31461033c5780635c975abb1461034f5780635fe8e7cc1461035a5780636352211e1461036f5780636d005ca11461038257806370a082311461039a578063715018a6146103ad578063755b9162146103b55780637f00c7a6146103c85780638456cb59146103db5780638da5cb5b146103e35780638dd42808146103eb57806395d89b41146103fe578063a1e89aec14610406578063a22cb4651461040f578063a475b5dd14610422578063ac1e17df1461042a578063b88d4fde1461043d578063c24521c614610450578063c668286214610458578063c87b56dd14610460578063d5abeb0114610473578063da3ef23f1461047c578063e985e9c51461048f578063f2fde38b146104a2575b600080fd5b610206610201366004612040565b6104b5565b60405190151581526020015b60405180910390f35b60125461022e906001600160a01b031681565b604051610212919061205d565b6102436104e0565b60405161021291906120c9565b61022e61025e3660046120dc565b610572565b610276610271366004612111565b6105ff565b005b610281600f5481565b604051908152602001610212565b600854610281565b610281600e5481565b6102766102ae36600461213b565b610710565b6102816102c1366004612111565b610741565b6102766107d7565b610276610999565b6102766102e436600461213b565b6109d2565b6102fc6102f7366004612177565b6109ed565b6040516102129190612192565b6102766103173660046120dc565b610a8e565b61028161032a3660046120dc565b610ac2565b6011546102069060ff1681565b61027661034a366004612261565b610b55565b600a5460ff16610206565b610362610b9b565b60405161021291906122a9565b61022e61037d3660046120dc565b610bfc565b60115461022e9061010090046001600160a01b031681565b6102816103a8366004612177565b610c73565b610276610cfa565b6102766103c33660046120dc565b610d33565b6102766103d63660046120dc565b610f47565b610276610f7b565b61022e610fb2565b6102766103f9366004612177565b610fc6565b6102436110c7565b61028160105481565b61027661041d3660046122f8565b6110d6565b6102766110e1565b610276610438366004612177565b61111f565b61027661044b36600461232f565b61118e565b601054610281565b6102436111c0565b61024361046e3660046120dc565b61124e565b610281600d5481565b61027661048a366004612261565b61131c565b61020661049d3660046123aa565b61135e565b6102766104b0366004612177565b61138c565b60006001600160e01b0319821663780e9d6360e01b14806104da57506104da8261142c565b92915050565b6060600080546104ef906123dd565b80601f016020809104026020016040519081016040528092919081815260200182805461051b906123dd565b80156105685780601f1061053d57610100808354040283529160200191610568565b820191906000526020600020905b81548152906001019060200180831161054b57829003601f168201915b5050505050905090565b600061057d8261147c565b6105e35760405162461bcd60e51b815260206004820152602c60248201527f4552433732313a20617070726f76656420717565727920666f72206e6f6e657860448201526b34b9ba32b73a103a37b5b2b760a11b60648201526084015b60405180910390fd5b506000908152600460205260409020546001600160a01b031690565b600061060a82610bfc565b9050806001600160a01b0316836001600160a01b031614156106785760405162461bcd60e51b815260206004820152602160248201527f4552433732313a20617070726f76616c20746f2063757272656e74206f776e656044820152603960f91b60648201526084016105da565b336001600160a01b03821614806106945750610694813361135e565b6107015760405162461bcd60e51b815260206004820152603860248201527f4552433732313a20617070726f76652063616c6c6572206973206e6f74206f776044820152771b995c881b9bdc88185c1c1c9bdd995908199bdc88185b1b60421b60648201526084016105da565b61070b8383611499565b505050565b61071a3382611507565b6107365760405162461bcd60e51b81526004016105da90612418565b61070b8383836115d1565b600061074c83610c73565b82106107ae5760405162461bcd60e51b815260206004820152602b60248201527f455243373231456e756d657261626c653a206f776e657220696e646578206f7560448201526a74206f6620626f756e647360a81b60648201526084016105da565b506001600160a01b03919091166000908152600660209081526040808320938352929052205490565b6012546001600160a01b031633146107ee57600080fd5b6011546040516370a0823160e01b815260009161010090046001600160a01b0316906370a082319061082490309060040161205d565b602060405180830381865afa158015610841573d6000803e3d6000fd5b505050506040513d601f19601f820116820180604052508101906108659190612469565b905060006064610876836005612498565b61088091906124cd565b9050600061088e82846124e1565b6011546012546040516323b872dd60e01b81529293506001600160a01b036101009092048216926323b872dd926108ce92309291169086906004016124f8565b6020604051808303816000875af11580156108ed573d6000803e3d6000fd5b505050506040513d601f19601f82011682018060405250810190610911919061251c565b506011546014546040516323b872dd60e01b81526101009092046001600160a01b03908116926323b872dd9261095092309291169087906004016124f8565b6020604051808303816000875af115801561096f573d6000803e3d6000fd5b505050506040513d601f19601f82011682018060405250810190610993919061251c565b50505050565b336109a2610fb2565b6001600160a01b0316146109c85760405162461bcd60e51b81526004016105da90612539565b6109d0611766565b565b61070b8383836040518060200160405280600081525061118e565b606060006109fa83610c73565b90506000816001600160401b03811115610a1657610a166121d6565b604051908082528060200260200182016040528015610a3f578160200160208202803683370190505b50905060005b82811015610a8657610a578582610741565b828281518110610a6957610a6961256e565b602090810291909101015280610a7e81612584565b915050610a45565b509392505050565b33610a97610fb2565b6001600160a01b031614610abd5760405162461bcd60e51b81526004016105da90612539565b600f55565b6000610acd60085490565b8210610b305760405162461bcd60e51b815260206004820152602c60248201527f455243373231456e756d657261626c653a20676c6f62616c20696e646578206f60448201526b7574206f6620626f756e647360a01b60648201526084016105da565b60088281548110610b4357610b4361256e565b90600052602060002001549050919050565b33610b5e610fb2565b6001600160a01b031614610b845760405162461bcd60e51b81526004016105da90612539565b8051610b9790600b906020840190611f91565b5050565b6060601380548060200260200160405190810160405280929190818152602001828054801561056857602002820191906000526020600020905b81546001600160a01b03168152600190910190602001808311610bd5575050505050905090565b6000818152600260205260408120546001600160a01b0316806104da5760405162461bcd60e51b815260206004820152602960248201527f4552433732313a206f776e657220717565727920666f72206e6f6e657869737460448201526832b73a103a37b5b2b760b91b60648201526084016105da565b60006001600160a01b038216610cde5760405162461bcd60e51b815260206004820152602a60248201527f4552433732313a2062616c616e636520717565727920666f7220746865207a65604482015269726f206164647265737360b01b60648201526084016105da565b506001600160a01b031660009081526003602052604090205490565b33610d03610fb2565b6001600160a01b031614610d295760405162461bcd60e51b81526004016105da90612539565b6109d060006117f3565b33610d3c610fb2565b6001600160a01b031614610d625760405162461bcd60e51b81526004016105da90612539565b80600f54610d709190612498565b6011546040516370a0823160e01b81526101009091046001600160a01b0316906370a0823190610da490339060040161205d565b602060405180830381865afa158015610dc1573d6000803e3d6000fd5b505050506040513d601f19601f82011682018060405250810190610de59190612469565b1015610df057600080fd5b6000610dfb60085490565b905060008211610e0a57600080fd5b600e54821115610e1957600080fd5b600d54610e26838361259f565b1115610e3157600080fd5b600082600f54610e419190612498565b6012549091506001600160a01b03163314610ed15760115460405163a9059cbb60e01b8152306004820152602481018390526101009091046001600160a01b03169063a9059cbb906044016020604051808303816000875af1158015610eab573d6000803e3d6000fd5b505050506040513d601f19601f82011682018060405250810190610ecf919061251c565b505b6013805460018101825560009182526000805160206127528339815191520180546001600160a01b0319163317905560108054859290610f1290849061259f565b90915550600190505b83811161099357610f3533610f30838661259f565b61184d565b80610f3f81612584565b915050610f1b565b33610f50610fb2565b6001600160a01b031614610f765760405162461bcd60e51b81526004016105da90612539565b600e55565b33610f84610fb2565b6001600160a01b031614610faa5760405162461bcd60e51b81526004016105da90612539565b6109d0611867565b600a5461010090046001600160a01b031690565b33610fcf610fb2565b6001600160a01b031614610ff55760405162461bcd60e51b81526004016105da90612539565b60005b601354811015610b9757816001600160a01b03166013828154811061101f5761101f61256e565b6000918252602090912001546001600160a01b031614156110b5576013805461104a906001906124e1565b8154811061105a5761105a61256e565b600091825260209091200154601380546001600160a01b0390921691839081106110865761108661256e565b9060005260206000200160006101000a8154816001600160a01b0302191690836001600160a01b031602179055505b806110bf81612584565b915050610ff8565b6060600180546104ef906123dd565b610b973383836118e2565b336110ea610fb2565b6001600160a01b0316146111105760405162461bcd60e51b81526004016105da90612539565b6011805460ff19166001179055565b33611128610fb2565b6001600160a01b03161461114e5760405162461bcd60e51b81526004016105da90612539565b601380546001810182556000919091526000805160206127528339815191520180546001600160a01b0319166001600160a01b0392909216919091179055565b6111983383611507565b6111b45760405162461bcd60e51b81526004016105da90612418565b610993848484846119ad565b600c80546111cd906123dd565b80601f01602080910402602001604051908101604052809291908181526020018280546111f9906123dd565b80156112465780601f1061121b57610100808354040283529160200191611246565b820191906000526020600020905b81548152906001019060200180831161122957829003601f168201915b505050505081565b60606112598261147c565b6112bd5760405162461bcd60e51b815260206004820152602f60248201527f4552433732314d657461646174613a2055524920717565727920666f72206e6f60448201526e3732bc34b9ba32b73a103a37b5b2b760891b60648201526084016105da565b60006112c76119e0565b905060008151116112e75760405180602001604052806000815250611315565b806112f1846119ef565b600c604051602001611305939291906125b7565b6040516020818303038152906040525b9392505050565b33611325610fb2565b6001600160a01b03161461134b5760405162461bcd60e51b81526004016105da90612539565b8051610b9790600c906020840190611f91565b6001600160a01b03918216600090815260056020908152604080832093909416825291909152205460ff1690565b33611395610fb2565b6001600160a01b0316146113bb5760405162461bcd60e51b81526004016105da90612539565b6001600160a01b0381166114205760405162461bcd60e51b815260206004820152602660248201527f4f776e61626c653a206e6577206f776e657220697320746865207a65726f206160448201526564647265737360d01b60648201526084016105da565b611429816117f3565b50565b60006001600160e01b031982166380ac58cd60e01b148061145d57506001600160e01b03198216635b5e139f60e01b145b806104da57506301ffc9a760e01b6001600160e01b03198316146104da565b6000908152600260205260409020546001600160a01b0316151590565b600081815260046020526040902080546001600160a01b0319166001600160a01b03841690811790915581906114ce82610bfc565b6001600160a01b03167f8c5be1e5ebec7d5bd14f71427d1e84f3dd0314c0f7b2291e5b200ac8c7c3b92560405160405180910390a45050565b60006115128261147c565b6115735760405162461bcd60e51b815260206004820152602c60248201527f4552433732313a206f70657261746f7220717565727920666f72206e6f6e657860448201526b34b9ba32b73a103a37b5b2b760a11b60648201526084016105da565b600061157e83610bfc565b9050806001600160a01b0316846001600160a01b031614806115a557506115a5818561135e565b806115c95750836001600160a01b03166115be84610572565b6001600160a01b0316145b949350505050565b826001600160a01b03166115e482610bfc565b6001600160a01b0316146116485760405162461bcd60e51b815260206004820152602560248201527f4552433732313a207472616e736665722066726f6d20696e636f72726563742060448201526437bbb732b960d91b60648201526084016105da565b6001600160a01b0382166116aa5760405162461bcd60e51b8152602060048201526024808201527f4552433732313a207472616e7366657220746f20746865207a65726f206164646044820152637265737360e01b60648201526084016105da565b6116b5838383611aec565b6116c0600082611499565b6001600160a01b03831660009081526003602052604081208054600192906116e99084906124e1565b90915550506001600160a01b038216600090815260036020526040812080546001929061171790849061259f565b909155505060008181526002602052604080822080546001600160a01b0319166001600160a01b03868116918217909255915184939187169160008051602061277283398151915291a4505050565b600a5460ff166117af5760405162461bcd60e51b815260206004820152601460248201527314185d5cd8589b194e881b9bdd081c185d5cd95960621b60448201526064016105da565b600a805460ff191690557f5db9ee0a495bf2e6ff9c91a7834c1ba4fdd244a5e8aa4e537bd38aeae4b073aa335b6040516117e9919061205d565b60405180910390a1565b600a80546001600160a01b03838116610100818102610100600160a81b031985161790945560405193909204169182907f8be0079c531659141344cd1fd0a4f28419497f9722a3daafe3b4186f6b6457e090600090a35050565b610b97828260405180602001604052806000815250611ba4565b600a5460ff16156118ad5760405162461bcd60e51b815260206004820152601060248201526f14185d5cd8589b194e881c185d5cd95960821b60448201526064016105da565b600a805460ff191660011790557f62e78cea01bee320cd4e420270b5ea74000d11b0c9f74754ebdbfc544b05a2586117dc3390565b816001600160a01b0316836001600160a01b031614156119405760405162461bcd60e51b815260206004820152601960248201527822a9219b99189d1030b8383937bb32903a379031b0b63632b960391b60448201526064016105da565b6001600160a01b03838116600081815260056020908152604080832094871680845294825291829020805460ff191686151590811790915591519182527f17307eab39ab6107e8899845ad3d59bd9653f200f220920489ca2b5937696c31910160405180910390a3505050565b6119b88484846115d1565b6119c484848484611bd7565b6109935760405162461bcd60e51b81526004016105da9061267b565b6060600b80546104ef906123dd565b606081611a135750506040805180820190915260018152600360fc1b602082015290565b8160005b8115611a3d5780611a2781612584565b9150611a369050600a836124cd565b9150611a17565b6000816001600160401b03811115611a5757611a576121d6565b6040519080825280601f01601f191660200182016040528015611a81576020820181803683370190505b5090505b84156115c957611a966001836124e1565b9150611aa3600a866126cd565b611aae90603061259f565b60f81b818381518110611ac357611ac361256e565b60200101906001600160f81b031916908160001a905350611ae5600a866124cd565b9450611a85565b6001600160a01b038316611b4757611b4281600880546000838152600960205260408120829055600182018355919091527ff3f7a9fe364faab93b216da50a3214154f22a0a2b415b23a84c8169e8b636ee30155565b611b6a565b816001600160a01b0316836001600160a01b031614611b6a57611b6a8382611cd5565b6001600160a01b038216611b815761070b81611d72565b826001600160a01b0316826001600160a01b03161461070b5761070b8282611e21565b611bae8383611e65565b611bbb6000848484611bd7565b61070b5760405162461bcd60e51b81526004016105da9061267b565b60006001600160a01b0384163b15611cca57604051630a85bd0160e11b81526001600160a01b0385169063150b7a0290611c1b9033908990889088906004016126e1565b6020604051808303816000875af1925050508015611c56575060408051601f3d908101601f19168201909252611c539181019061271e565b60015b611cb0573d808015611c84576040519150601f19603f3d011682016040523d82523d6000602084013e611c89565b606091505b508051611ca85760405162461bcd60e51b81526004016105da9061267b565b805181602001fd5b6001600160e01b031916630a85bd0160e11b1490506115c9565b506001949350505050565b60006001611ce284610c73565b611cec91906124e1565b600083815260076020526040902054909150808214611d3f576001600160a01b03841660009081526006602090815260408083208584528252808320548484528184208190558352600790915290208190555b5060009182526007602090815260408084208490556001600160a01b039094168352600681528383209183525290812055565b600854600090611d84906001906124e1565b60008381526009602052604081205460088054939450909284908110611dac57611dac61256e565b906000526020600020015490508060088381548110611dcd57611dcd61256e565b6000918252602080832090910192909255828152600990915260408082208490558582528120556008805480611e0557611e0561273b565b6001900381819060005260206000200160009055905550505050565b6000611e2c83610c73565b6001600160a01b039093166000908152600660209081526040808320868452825280832085905593825260079052919091209190915550565b6001600160a01b038216611ebb5760405162461bcd60e51b815260206004820181905260248201527f4552433732313a206d696e7420746f20746865207a65726f206164647265737360448201526064016105da565b611ec48161147c565b15611f105760405162461bcd60e51b815260206004820152601c60248201527b115490cdcc8c4e881d1bdad95b88185b1c9958591e481b5a5b9d195960221b60448201526064016105da565b611f1c60008383611aec565b6001600160a01b0382166000908152600360205260408120805460019290611f4590849061259f565b909155505060008181526002602052604080822080546001600160a01b0319166001600160a01b0386169081179091559051839290600080516020612772833981519152908290a45050565b828054611f9d906123dd565b90600052602060002090601f016020900481019282611fbf5760008555612005565b82601f10611fd857805160ff1916838001178555612005565b82800160010185558215612005579182015b82811115612005578251825591602001919060010190611fea565b50612011929150612015565b5090565b5b808211156120115760008155600101612016565b6001600160e01b03198116811461142957600080fd5b60006020828403121561205257600080fd5b81356113158161202a565b6001600160a01b0391909116815260200190565b60005b8381101561208c578181015183820152602001612074565b838111156109935750506000910152565b600081518084526120b5816020860160208601612071565b601f01601f19169290920160200192915050565b602081526000611315602083018461209d565b6000602082840312156120ee57600080fd5b5035919050565b80356001600160a01b038116811461210c57600080fd5b919050565b6000806040838503121561212457600080fd5b61212d836120f5565b946020939093013593505050565b60008060006060848603121561215057600080fd5b612159846120f5565b9250612167602085016120f5565b9150604084013590509250925092565b60006020828403121561218957600080fd5b611315826120f5565b6020808252825182820181905260009190848201906040850190845b818110156121ca578351835292840192918401916001016121ae565b50909695505050505050565b634e487b7160e01b600052604160045260246000fd5b60006001600160401b0380841115612206576122066121d6565b604051601f8501601f19908116603f0116810190828211818310171561222e5761222e6121d6565b8160405280935085815286868601111561224757600080fd5b858560208301376000602087830101525050509392505050565b60006020828403121561227357600080fd5b81356001600160401b0381111561228957600080fd5b8201601f8101841361229a57600080fd5b6115c9848235602084016121ec565b6020808252825182820181905260009190848201906040850190845b818110156121ca5783516001600160a01b0316835292840192918401916001016122c5565b801515811461142957600080fd5b6000806040838503121561230b57600080fd5b612314836120f5565b91506020830135612324816122ea565b809150509250929050565b6000806000806080858703121561234557600080fd5b61234e856120f5565b935061235c602086016120f5565b92506040850135915060608501356001600160401b0381111561237e57600080fd5b8501601f8101871361238f57600080fd5b61239e878235602084016121ec565b91505092959194509250565b600080604083850312156123bd57600080fd5b6123c6836120f5565b91506123d4602084016120f5565b90509250929050565b600181811c908216806123f157607f821691505b6020821081141561241257634e487b7160e01b600052602260045260246000fd5b50919050565b60208082526031908201527f4552433732313a207472616e736665722063616c6c6572206973206e6f74206f6040820152701ddb995c881b9bdc88185c1c1c9bdd9959607a1b606082015260800190565b60006020828403121561247b57600080fd5b5051919050565b634e487b7160e01b600052601160045260246000fd5b60008160001904831182151516156124b2576124b2612482565b500290565b634e487b7160e01b600052601260045260246000fd5b6000826124dc576124dc6124b7565b500490565b6000828210156124f3576124f3612482565b500390565b6001600160a01b039384168152919092166020820152604081019190915260600190565b60006020828403121561252e57600080fd5b8151611315816122ea565b6020808252818101527f4f776e61626c653a2063616c6c6572206973206e6f7420746865206f776e6572604082015260600190565b634e487b7160e01b600052603260045260246000fd5b600060001982141561259857612598612482565b5060010190565b600082198211156125b2576125b2612482565b500190565b6000845160206125ca8285838a01612071565b8551918401916125dd8184848a01612071565b8554920191600090600181811c90808316806125fa57607f831692505b85831081141561261857634e487b7160e01b85526022600452602485fd5b80801561262c576001811461263d5761266a565b60ff1985168852838801955061266a565b60008b81526020902060005b858110156126625781548a820152908401908801612649565b505083880195505b50939b9a5050505050505050505050565b60208082526032908201527f4552433732313a207472616e7366657220746f206e6f6e20455243373231526560408201527131b2b4bb32b91034b6b83632b6b2b73a32b960711b606082015260800190565b6000826126dc576126dc6124b7565b500690565b6001600160a01b03858116825284166020820152604081018390526080606082018190526000906127149083018461209d565b9695505050505050565b60006020828403121561273057600080fd5b81516113158161202a565b634e487b7160e01b600052603160045260246000fdfe66de8ffda797e3de9c05e8fc57b3bf0ec28a930d40b0d285d93c06501cf6a090ddf252ad1be2c89b69c2b068fc378daa952ba7f163c4a11628f55a4df523b3efa26469706673582212205e8d86eceb23dcd4e684acb85b2059796c80c8f201caae9582cf3771567878e664736f6c634300080b0033a264697066735822122090b5ff2d05bdfeb922279cab52438d8e2629fc724b09712bbc408282fd4175ed64736f6c634300080b0033a264697066735822122049bc201211abcb81cd8ce1cdc6d8dfd51309de4baaaf89189548215a85a7ea4164736f6c634300080b0033",
  "immutableReferences": {
    "9917": [
      {
        "length": 32,
        "start": 220
      },
      {
        "length": 32,
        "start": 378
      },
      {
        "length": 32,
        "start": 964
      }
    ]
  },
  "source": "/**\r\n    @author Blok Hamster \r\n */\r\n\r\n// SPDX-License-Identifier: MIT\r\npragma solidity ^0.8.4;\r\npragma experimental ABIEncoderV2;\r\n\r\nimport \"../Products/NftRoyaltySale.sol\";\r\nimport { IPicardyHub } from \"../PicardyHub.sol\";\r\nimport { IPicardyProfile } from \"../Users/PicardyProfile.sol\";\r\nimport \"@openzeppelin/contracts/access/Ownable.sol\";\r\n\r\ncontract NftRoyaltySaleFactory is Ownable {\r\n    \r\n    address immutable PICARDY_HUB;\r\n\r\n    modifier isCreator(uint _profileId){\r\n        _isCreator(_profileId);\r\n        _;\r\n    }\r\n\r\n    constructor (address _PICARDY_HUB){\r\n        PICARDY_HUB = _PICARDY_HUB;\r\n\r\n        transferOwnership(PICARDY_HUB);\r\n    }\r\n\r\n    /**\r\n        @dev Creates an ERC721 royalty sale contract\r\n        @param _maxSupply The maximum supply of the Royalty Token\r\n        @param _maxMintAmount The maximum amount of token a user can buy \r\n        @param _cost The price of each token\r\n        @param _percentage The percentage of royalty to be sold\r\n        @param _name The name of the royalty\r\n        @param _symbol The token symbol\r\n        @param _initBaseURI Image and metadata URI\r\n     */\r\n    function createNftRoyalty(\r\n        uint _maxSupply, \r\n        uint _maxMintAmount, \r\n        uint _cost, \r\n        uint _percentage,\r\n        uint _profileId, \r\n        string memory _name, \r\n        string memory _symbol, \r\n        string memory _initBaseURI\r\n        ) external isCreator(_profileId){\r\n        \r\n        string memory _ArtisteName = IPicardyHub(PICARDY_HUB).getProfileName(_profileId);\r\n        address profileAddress = IPicardyHub(PICARDY_HUB).getProfileAddress(_profileId);\r\n\r\n        NftRoyaltySale nftRoyalty = new NftRoyaltySale(_maxSupply, _maxMintAmount, _cost,  _percentage , _name, _symbol, _initBaseURI, _ArtisteName, msg.sender);\r\n\r\n        IPicardyProfile(profileAddress).addProduct(3, address(nftRoyalty));\r\n    }\r\n\r\n    function _isCreator(uint _profileId) internal view {\r\n        require(\r\n            IPicardyHub(PICARDY_HUB).checkIsCreator(_profileId) == true\r\n        );\r\n    }\r\n}",
  "sourcePath": "C:\\Users\\USER\\Desktop\\Picardy_Protocol\\contracts\\Factory\\NftRoyaltySaleFactory.sol",
  "compiler": {
    "name": "solc",
    "version": "0.8.11+commit.d7f03943.Emscripten.clang"
  },
  "schemaVersion": "3.4.6",
  "updatedAt": "2022-06-07T09:43:30.644Z",
  "networkType": "ethereum",
  "devdoc": {
    "kind": "dev",
    "methods": {
      "createNftRoyalty(uint256,uint256,uint256,uint256,uint256,string,string,string)": {
        "details": "Creates an ERC721 royalty sale contract",
        "params": {
          "_cost": "The price of each token",
          "_initBaseURI": "Image and metadata URI",
          "_maxMintAmount": "The maximum amount of token a user can buy ",
          "_maxSupply": "The maximum supply of the Royalty Token",
          "_name": "The name of the royalty",
          "_percentage": "The percentage of royalty to be sold",
          "_symbol": "The token symbol"
        }
      },
      "owner()": {
        "details": "Returns the address of the current owner."
      },
      "renounceOwnership()": {
        "details": "Leaves the contract without owner. It will not be possible to call `onlyOwner` functions anymore. Can only be called by the current owner. NOTE: Renouncing ownership will leave the contract without an owner, thereby removing any functionality that is only available to the owner."
      },
      "transferOwnership(address)": {
        "details": "Transfers ownership of the contract to a new account (`newOwner`). Can only be called by the current owner."
      }
    },
    "version": 1
  },
  "userdoc": {
    "kind": "user",
    "methods": {},
    "version": 1
  }
}