{
  "contractName": "NftRoyaltySaleFactory",
  "abi": [
    {
      "inputs": [
        {
          "internalType": "address",
          "name": "_PICARDY_HUB",
          "type": "address"
        }
      ],
      "stateMutability": "nonpayable",
      "type": "constructor"
    },
    {
      "anonymous": false,
      "inputs": [
        {
          "indexed": true,
          "internalType": "address",
          "name": "previousOwner",
          "type": "address"
        },
        {
          "indexed": true,
          "internalType": "address",
          "name": "newOwner",
          "type": "address"
        }
      ],
      "name": "OwnershipTransferred",
      "type": "event"
    },
    {
      "inputs": [],
      "name": "owner",
      "outputs": [
        {
          "internalType": "address",
          "name": "",
          "type": "address"
        }
      ],
      "stateMutability": "view",
      "type": "function"
    },
    {
      "inputs": [],
      "name": "renounceOwnership",
      "outputs": [],
      "stateMutability": "nonpayable",
      "type": "function"
    },
    {
      "inputs": [
        {
          "internalType": "address",
          "name": "newOwner",
          "type": "address"
        }
      ],
      "name": "transferOwnership",
      "outputs": [],
      "stateMutability": "nonpayable",
      "type": "function"
    },
    {
      "inputs": [
        {
          "internalType": "uint256",
          "name": "_maxSupply",
          "type": "uint256"
        },
        {
          "internalType": "uint256",
          "name": "_maxMintAmount",
          "type": "uint256"
        },
        {
          "internalType": "uint256",
          "name": "_cost",
          "type": "uint256"
        },
        {
          "internalType": "uint256",
          "name": "_percentage",
          "type": "uint256"
        },
        {
          "internalType": "uint256",
          "name": "_profileId",
          "type": "uint256"
        },
        {
          "internalType": "string",
          "name": "_name",
          "type": "string"
        },
        {
          "internalType": "string",
          "name": "_symbol",
          "type": "string"
        },
        {
          "internalType": "string",
          "name": "_initBaseURI",
          "type": "string"
        }
      ],
      "name": "createNftRoyalty",
      "outputs": [],
      "stateMutability": "nonpayable",
      "type": "function"
    }
  ],
  "bytecode": "0x60a060405234801561001057600080fd5b5060405161553738038061553783398101604081905261002f91610176565b61003833610056565b6001600160a01b0381166080819052610050906100a6565b506101a6565b600080546001600160a01b038381166001600160a01b0319831681178455604051919092169283917f8be0079c531659141344cd1fd0a4f28419497f9722a3daafe3b4186f6b6457e09190a35050565b6000546001600160a01b031633146101055760405162461bcd60e51b815260206004820181905260248201527f4f776e61626c653a2063616c6c6572206973206e6f7420746865206f776e657260448201526064015b60405180910390fd5b6001600160a01b03811661016a5760405162461bcd60e51b815260206004820152602660248201527f4f776e61626c653a206e6577206f776e657220697320746865207a65726f206160448201526564647265737360d01b60648201526084016100fc565b61017381610056565b50565b60006020828403121561018857600080fd5b81516001600160a01b038116811461019f57600080fd5b9392505050565b6080516153696101ce6000396000818160dc0152818161017a01526103c601526153696000f3fe60806040523480156200001157600080fd5b5060043610620000525760003560e01c80632ab4f47c1462000057578063715018a614620000705780638da5cb5b146200007a578063f2fde38b14620000a0575b600080fd5b6200006e6200006836600462000578565b620000b7565b005b6200006e620002ad565b62000084620002f8565b6040516001600160a01b03909116815260200160405180910390f35b6200006e620000b136600462000650565b62000307565b83620000c381620003b0565b604051630efc0f2f60e21b8152600481018690526000907f00000000000000000000000000000000000000000000000000000000000000006001600160a01b031690633bf03cbc90602401600060405180830381865afa1580156200012c573d6000803e3d6000fd5b505050506040513d6000823e601f3d908101601f19168201604052620001569190810190620006aa565b6040516336e3382360e21b8152600481018890529091506000906001600160a01b037f0000000000000000000000000000000000000000000000000000000000000000169063db8ce08c90602401602060405180830381865afa158015620001c2573d6000803e3d6000fd5b505050506040513d601f19601f82011682018060405250810190620001e8919062000729565b905060008b8b8b8b8a8a8a893360405162000203906200049b565b620002179998979695949392919062000777565b604051809103906000f08015801562000234573d6000803e3d6000fd5b5060405163514f647760e01b81529091506001600160a01b0383169063514f6477906200026b9060039085908c9060040162000807565b600060405180830381600087803b1580156200028657600080fd5b505af11580156200029b573d6000803e3d6000fd5b50505050505050505050505050505050565b33620002b8620002f8565b6001600160a01b031614620002ea5760405162461bcd60e51b8152600401620002e19062000833565b60405180910390fd5b620002f660006200044b565b565b6000546001600160a01b031690565b3362000312620002f8565b6001600160a01b0316146200033b5760405162461bcd60e51b8152600401620002e19062000833565b6001600160a01b038116620003a25760405162461bcd60e51b815260206004820152602660248201527f4f776e61626c653a206e6577206f776e657220697320746865207a65726f206160448201526564647265737360d01b6064820152608401620002e1565b620003ad816200044b565b50565b604051631eb18ccf60e31b8152600481018290527f00000000000000000000000000000000000000000000000000000000000000006001600160a01b03169063f58c667890602401602060405180830381865afa15801562000416573d6000803e3d6000fd5b505050506040513d601f19601f820116820180604052508101906200043c919062000868565b1515600114620003ad57600080fd5b600080546001600160a01b038381166001600160a01b0319831681178455604051919092169283917f8be0079c531659141344cd1fd0a4f28419497f9722a3daafe3b4186f6b6457e09190a35050565b614aa7806200088d83390190565b634e487b7160e01b600052604160045260246000fd5b604051601f8201601f191681016001600160401b0381118282101715620004ea57620004ea620004a9565b604052919050565b60006001600160401b038211156200050e576200050e620004a9565b50601f01601f191660200190565b600082601f8301126200052e57600080fd5b8135620005456200053f82620004f2565b620004bf565b8181528460208386010111156200055b57600080fd5b816020850160208301376000918101602001919091529392505050565b600080600080600080600080610100898b0312156200059657600080fd5b883597506020890135965060408901359550606089013594506080890135935060a08901356001600160401b0380821115620005d157600080fd5b620005df8c838d016200051c565b945060c08b0135915080821115620005f657600080fd5b620006048c838d016200051c565b935060e08b01359150808211156200061b57600080fd5b506200062a8b828c016200051c565b9150509295985092959890939650565b6001600160a01b0381168114620003ad57600080fd5b6000602082840312156200066357600080fd5b813562000670816200063a565b9392505050565b60005b83811015620006945781810151838201526020016200067a565b83811115620006a4576000848401525b50505050565b600060208284031215620006bd57600080fd5b81516001600160401b03811115620006d457600080fd5b8201601f81018413620006e657600080fd5b8051620006f76200053f82620004f2565b8181528560208385010111156200070d57600080fd5b6200072082602083016020860162000677565b95945050505050565b6000602082840312156200073c57600080fd5b815162000670816200063a565b600081518084526200076381602086016020860162000677565b601f01601f19169290920160200192915050565b60006101208b83528a6020840152896040840152886060840152806080840152620007a58184018962000749565b905082810360a0840152620007bb818862000749565b905082810360c0840152620007d1818762000749565b905082810360e0840152620007e7818662000749565b91505060018060a01b0383166101008301529a9950505050505050505050565b8381526001600160a01b0383166020820152606060408201819052600090620007209083018462000749565b6020808252818101527f4f776e61626c653a2063616c6c6572206973206e6f7420746865206f776e6572604082015260600190565b6000602082840312156200087b57600080fd5b815180151581146200067057600080fdfe608060405260038055600e8054738f9f16dd546cb2250f323d8391a85fb3c8f8edaa6001600160a01b03199182168117909255600f80548216909217909155601054601180546001600160a01b03909216919092161790553480156200006457600080fd5b5060405162004aa738038062004aa783398101604081905262000087916200038e565b6200009233620001ae565b600180556002805460ff1916905560408051610120810182526001600160a01b03831680825260208083018c90529282018c9052606082018a90526080820189905260a0820185905260c0820188905260e082018690526101008201879052600480546001600160a01b031916909117815560058b905560068c905560078a90556008899055845191928392620001309160099190880190620001fe565b5060c082015180516200014e916006840191602090910190620001fe565b5060e082015180516200016c916007840191602090910190620001fe565b5061010082015180516200018b916008840191602090910190620001fe565b50506002805461ff00191661010017905550620004c09950505050505050505050565b600080546001600160a01b038381166001600160a01b0319831681178455604051919092169283917f8be0079c531659141344cd1fd0a4f28419497f9722a3daafe3b4186f6b6457e09190a35050565b8280546200020c9062000483565b90600052602060002090601f0160209004810192826200023057600085556200027b565b82601f106200024b57805160ff19168380011785556200027b565b828001600101855582156200027b579182015b828111156200027b5782518255916020019190600101906200025e565b50620002899291506200028d565b5090565b5b808211156200028957600081556001016200028e565b634e487b7160e01b600052604160045260246000fd5b600082601f830112620002cc57600080fd5b81516001600160401b0380821115620002e957620002e9620002a4565b604051601f8301601f19908116603f01168101908282118183101715620003145762000314620002a4565b816040528381526020925086838588010111156200033157600080fd5b600091505b8382101562000355578582018301518183018401529082019062000336565b83821115620003675760008385830101525b9695505050505050565b80516001600160a01b03811681146200038957600080fd5b919050565b60008060008060008060008060006101208a8c031215620003ae57600080fd5b895160208b015160408c015160608d015160808e0151939c50919a50985096506001600160401b0380821115620003e457600080fd5b620003f28d838e01620002ba565b965060a08c01519150808211156200040957600080fd5b620004178d838e01620002ba565b955060c08c01519150808211156200042e57600080fd5b6200043c8d838e01620002ba565b945060e08c01519150808211156200045357600080fd5b50620004628c828d01620002ba565b925050620004746101008b0162000371565b90509295985092959850929598565b600181811c908216806200049857607f821691505b60208210811415620004ba57634e487b7160e01b600052602260045260246000fd5b50919050565b6145d780620004d06000396000f3fe608060405260043610620000d45760003560e01c80633ccfd60b14620000d95780633f4ba83a14620000f3578063440a4a16146200010b5780634d5819d5146200013b57806357a2eda914620001605780635c975abb14620001855780636d005ca114620001aa578063715018a614620001db578063755b916214620001f35780638456cb59146200020a57806384648aa614620002225780638da5cb5b14620002475780638fffd8b5146200025f578063be9a65551462000284578063f2fde38b146200029c578063ff332ab714620002c1575b600080fd5b348015620000e657600080fd5b50620000f1620002ec565b005b3480156200010057600080fd5b50620000f162000302565b3480156200011857600080fd5b506200012362000349565b604051620001329190620012a8565b60405180910390f35b3480156200014857600080fd5b50620000f16200015a3660046200135d565b6200035d565b3480156200016d57600080fd5b50620000f16200017f366004620013fc565b62000497565b3480156200019257600080fd5b5060025460ff16604051901515815260200162000132565b348015620001b757600080fd5b50600d54620001cc906001600160a01b031681565b60405162000132919062001416565b348015620001e857600080fd5b50620000f1620004c2565b620000f162000204366004620013fc565b62000502565b3480156200021757600080fd5b50620000f1620005e9565b3480156200022f57600080fd5b50620000f16200024136600462001440565b62000627565b3480156200025457600080fd5b50620001cc620007d9565b3480156200026c57600080fd5b50620000f16200027e366004620013fc565b620007e8565b3480156200029157600080fd5b50620000f1620007fd565b348015620002a957600080fd5b50620000f1620002bb3660046200146f565b6200084a565b348015620002ce57600080fd5b50620002d9620008f0565b60405162000132959493929190620014e6565b620002f662000a49565b6200030062000a61565b565b336200030d620007d9565b6001600160a01b0316146200033f5760405162461bcd60e51b815260040162000336906200152d565b60405180910390fd5b6200030062000bd5565b606060006200035762000c66565b92915050565b60005b815181101562000493576015600083838151811062000383576200038362001562565b60209081029190910181015182528101919091526040016000205460ff1615620003ac57600080fd5b60105482516001600160a01b039091169063095ea7b3903090859085908110620003da57620003da62001562565b60200260200101516040518363ffffffff1660e01b81526004016200040192919062001578565b600060405180830381600087803b1580156200041c57600080fd5b505af115801562000431573d6000803e3d6000fd5b5050505060016015600084848151811062000450576200045062001562565b6020026020010151815260200190815260200160002060006101000a81548160ff02191690831515021790555080806200048a90620015a7565b91505062000360565b5050565b33600090815260136020526040902054811115620004b457600080fd5b620004bf8162000e89565b50565b33620004cd620007d9565b6001600160a01b031614620004f65760405162461bcd60e51b815260040162000336906200152d565b62000300600062000f2b565b6007546000600254610100900460ff166001811115620005265762000526620015c5565b146200053157600080fd5b6200053d8282620015db565b341015620005845760405162461bcd60e51b8152602060048201526013602482015272496e73756666696369656e742066756e64732160681b604482015260640162000336565b601154604051633aadc8b160e11b8152600481018490526001600160a01b039091169063755b9162906024015b600060405180830381600087803b158015620005cc57600080fd5b505af1158015620005e1573d6000803e3d6000fd5b505050505050565b33620005f4620007d9565b6001600160a01b0316146200061d5760405162461bcd60e51b815260040162000336906200152d565b6200030062000f7b565b60008181526015602052604090205460ff1615156001146200064857600080fd5b60115460405163ac1e17df60e01b81526001600160a01b039091169063ac1e17df906200067a90859060040162001416565b600060405180830381600087803b1580156200069557600080fd5b505af1158015620006aa573d6000803e3d6000fd5b50506010546040516323b872dd60e01b81526001600160a01b0390911692506323b872dd9150620006e490309086908690600401620015fd565b600060405180830381600087803b158015620006ff57600080fd5b505af115801562000714573d6000803e3d6000fd5b5050506001600160a01b038084166000908152601360205260408082209190915560115490516370a0823160e01b8152911691506370a08231906200075e90339060040162001416565b602060405180830381865afa1580156200077c573d6000803e3d6000fd5b505050506040513d601f19601f82011682018060405250810190620007a2919062001621565b62000493576011546040516311ba850160e31b81526001600160a01b0390911690638dd4280890620005b190339060040162001416565b6000546001600160a01b031690565b620007f262000a49565b620004bf8162000ff9565b6200080762000a49565b6001600254610100900460ff166001811115620008285762000828620015c5565b146200083357600080fd5b6200083d620011df565b6002805461ff0019169055565b3362000855620007d9565b6001600160a01b0316146200087e5760405162461bcd60e51b815260040162000336906200152d565b6001600160a01b038116620008e55760405162461bcd60e51b815260206004820152602660248201527f4f776e61626c653a206e6577206f776e657220697320746865207a65726f206160448201526564647265737360d01b606482015260840162000336565b620004bf8162000f2b565b600754600654600854600c805460009485948594606094859487919062000917906200163b565b80601f016020809104026020016040519081016040528092919081815260200182805462000945906200163b565b8015620009965780601f106200096a5761010080835404028352916020019162000996565b820191906000526020600020905b8154815290600101906020018083116200097857829003601f168201915b50505050509050600060046006018054620009b1906200163b565b80601f0160208091040260200160405190810160405280929190818152602001828054620009df906200163b565b801562000a305780601f1062000a045761010080835404028352916020019162000a30565b820191906000526020600020905b81548152906001019060200180831162000a1257829003601f168201915b50989e979d50959b509399509097509395505050505050565b6004546001600160a01b031633146200030057600080fd5b6006546011546040805163612290e360e11b815290516001600160a01b039092169163c24521c6916004818101926020929091908290030181865afa15801562000aaf573d6000803e3d6000fd5b505050506040513d601f19601f8201168201806040525081019062000ad5919062001621565b1462000ae057600080fd5b476000606462000af2836005620015db565b62000afe919062001678565b9050600062000b0e82846200169b565b600f546040519192506000916001600160a01b039091169084908381818185875af1925050503d806000811462000b62576040519150601f19603f3d011682016040523d82523d6000602084013e62000b67565b606091505b505090508062000b7657600080fd5b604051600090339084908381818185875af1925050503d806000811462000bba576040519150601f19603f3d011682016040523d82523d6000602084013e62000bbf565b606091505b505090508062000bce57600080fd5b5050505050565b60025460ff1662000c205760405162461bcd60e51b815260206004820152601460248201527314185d5cd8589b194e881b9bdd081c185d5cd95960621b604482015260640162000336565b6002805460ff191690557f5db9ee0a495bf2e6ff9c91a7834c1ba4fdd244a5e8aa4e537bd38aeae4b073aa335b60405162000c5c919062001416565b60405180910390a1565b3360008181526014602052604080822060115491516370a0823160e01b81526060949193926001600160a01b0316916370a082319162000caa919060040162001416565b602060405180830381865afa15801562000cc8573d6000803e3d6000fd5b505050506040513d601f19601f8201168201806040525081019062000cee919062001621565b90506000601160009054906101000a90046001600160a01b03166001600160a01b03166318160ddd6040518163ffffffff1660e01b8152600401602060405180830381865afa15801562000d46573d6000803e3d6000fd5b505050506040513d601f19601f8201168201806040525081019062000d6c919062001621565b905060005b8181101562000e3257601054604051632f745c5960e01b81526000916001600160a01b031690632f745c599062000daf903390869060040162001578565b602060405180830381865afa15801562000dcd573d6000803e3d6000fd5b505050506040513d601f19601f8201168201806040525081019062000df3919062001621565b855460018101875560008781526020902001819055855490915084141562000e1c575062000e32565b508062000e2981620015a7565b91505062000d71565b5082546040805160208084028201810190925282815291859183018282801562000e7c57602002820191906000526020600020905b81548152602001906001019080831162000e67575b5050505050935050505090565b336000908152601360205260408120805483929062000eaa9084906200169b565b9091555050600d546040516323b872dd60e01b81526001600160a01b03909116906323b872dd9062000ee590309033908690600401620015fd565b6020604051808303816000875af115801562000f05573d6000803e3d6000fd5b505050506040513d601f19601f82011682018060405250810190620004939190620016b5565b600080546001600160a01b038381166001600160a01b0319831681178455604051919092169283917f8be0079c531659141344cd1fd0a4f28419497f9722a3daafe3b4186f6b6457e09190a35050565b60025460ff161562000fc35760405162461bcd60e51b815260206004820152601060248201526f14185d5cd8589b194e881c185d5cd95960821b604482015260640162000336565b6002805460ff191660011790557f62e78cea01bee320cd4e420270b5ea74000d11b0c9f74754ebdbfc544b05a25862000c4d3390565b6006546011546040805163612290e360e11b815290516001600160a01b039092169163c24521c6916004818101926020929091908290030181865afa15801562001047573d6000803e3d6000fd5b505050506040513d601f19601f820116820180604052508101906200106d919062001621565b146200107857600080fd5b600062001085826200125a565b90506000601160009054906101000a90046001600160a01b03166001600160a01b0316635fe8e7cc6040518163ffffffff1660e01b8152600401600060405180830381865afa158015620010dd573d6000803e3d6000fd5b505050506040513d6000823e601f3d908101601f19168201604052620011079190810190620016d9565b905060005b8151811015620011d95760006012600084848151811062001131576200113162001562565b60200260200101516001600160a01b03166001600160a01b031681526020019081526020016000205484620011679190620015db565b9050806013600085858151811062001183576200118362001562565b60200260200101516001600160a01b03166001600160a01b031681526020019081526020016000206000828254620011bc919062001772565b90915550829150620011d0905081620015a7565b9150506200110c565b50505050565b600654600554600754604051600093929190600a90600c90600b90339062001207906200129a565b62001219979695949392919062001835565b604051809103906000f08015801562001236573d6000803e3d6000fd5b50601080546001600160a01b0319166001600160a01b039290921691909117905550565b6000806064600480015484620012719190620015db565b6200127d919062001678565b60065490915060009062001292908362001678565b949350505050565b612cfe80620018a483390190565b6020808252825182820181905260009190848201906040850190845b81811015620012e257835183529284019291840191600101620012c4565b50909695505050505050565b634e487b7160e01b600052604160045260246000fd5b604051601f8201601f191681016001600160401b03811182821017156200132f576200132f620012ee565b604052919050565b60006001600160401b03821115620013535762001353620012ee565b5060051b60200190565b600060208083850312156200137157600080fd5b82356001600160401b038111156200138857600080fd5b8301601f810185136200139a57600080fd5b8035620013b1620013ab8262001337565b62001304565b81815260059190911b82018301908381019087831115620013d157600080fd5b928401925b82841015620013f157833582529284019290840190620013d6565b979650505050505050565b6000602082840312156200140f57600080fd5b5035919050565b6001600160a01b0391909116815260200190565b6001600160a01b0381168114620004bf57600080fd5b600080604083850312156200145457600080fd5b823562001461816200142a565b946020939093013593505050565b6000602082840312156200148257600080fd5b81356200148f816200142a565b9392505050565b6000815180845260005b81811015620014be57602081850181015186830182015201620014a0565b81811115620014d1576000602083870101525b50601f01601f19169290920160200192915050565b85815284602082015283604082015260a0606082015260006200150d60a083018562001496565b828103608084015262001521818562001496565b98975050505050505050565b6020808252818101527f4f776e61626c653a2063616c6c6572206973206e6f7420746865206f776e6572604082015260600190565b634e487b7160e01b600052603260045260246000fd5b6001600160a01b03929092168252602082015260400190565b634e487b7160e01b600052601160045260246000fd5b6000600019821415620015be57620015be62001591565b5060010190565b634e487b7160e01b600052602160045260246000fd5b6000816000190483118215151615620015f857620015f862001591565b500290565b6001600160a01b039384168152919092166020820152604081019190915260600190565b6000602082840312156200163457600080fd5b5051919050565b600181811c908216806200165057607f821691505b602082108114156200167257634e487b7160e01b600052602260045260246000fd5b50919050565b6000826200169657634e487b7160e01b600052601260045260246000fd5b500490565b600082821015620016b057620016b062001591565b500390565b600060208284031215620016c857600080fd5b815180151581146200148f57600080fd5b60006020808385031215620016ed57600080fd5b82516001600160401b038111156200170457600080fd5b8301601f810185136200171657600080fd5b805162001727620013ab8262001337565b81815260059190911b820183019083810190878311156200174757600080fd5b928401925b82841015620013f157835162001762816200142a565b825292840192908401906200174c565b6000821982111562001788576200178862001591565b500190565b8054600090600181811c9080831680620017a857607f831692505b6020808410821415620017cb57634e487b7160e01b600052602260045260246000fd5b83885260208801828015620017e95760018114620017fb5762001828565b60ff1987168252828201975062001828565b60008981526020902060005b87811015620018225781548482015290860190840162001807565b83019850505b5050505050505092915050565b87815286602082015285604082015260e0606082015260006200185c60e08301876200178d565b82810360808401526200187081876200178d565b905082810360a08401526200188681866200178d565b91505060018060a01b03831660c08301529897505050505050505056fe60c06040526005608081905264173539b7b760d91b60a09081526200002891600c9190620001c4565b506011805460ff191690553480156200004057600080fd5b5060405162002cfe38038062002cfe833981016040819052620000639162000337565b8351849084906200007c906000906020850190620001c4565b50805162000092906001906020840190620001c4565b5050600a805460ff1916905550620000aa33620000ec565b600d879055600e869055601280546001600160a01b0319166001600160a01b038316179055600f859055620000df8262000146565b5050505050505062000448565b600a80546001600160a01b03838116610100818102610100600160a81b031985161790945560405193909204169182907f8be0079c531659141344cd1fd0a4f28419497f9722a3daafe3b4186f6b6457e090600090a35050565b600a546001600160a01b03610100909104163314620001ab5760405162461bcd60e51b815260206004820181905260248201527f4f776e61626c653a2063616c6c6572206973206e6f7420746865206f776e6572604482015260640160405180910390fd5b8051620001c090600b906020840190620001c4565b5050565b828054620001d2906200040b565b90600052602060002090601f016020900481019282620001f6576000855562000241565b82601f106200021157805160ff191683800117855562000241565b8280016001018555821562000241579182015b828111156200024157825182559160200191906001019062000224565b506200024f92915062000253565b5090565b5b808211156200024f576000815560010162000254565b634e487b7160e01b600052604160045260246000fd5b600082601f8301126200029257600080fd5b81516001600160401b0380821115620002af57620002af6200026a565b604051601f8301601f19908116603f01168101908282118183101715620002da57620002da6200026a565b81604052838152602092508683858801011115620002f757600080fd5b600091505b838210156200031b5785820183015181830184015290820190620002fc565b838211156200032d5760008385830101525b9695505050505050565b600080600080600080600060e0888a0312156200035357600080fd5b8751602089015160408a015160608b015192995090975095506001600160401b03808211156200038257600080fd5b620003908b838c0162000280565b955060808a0151915080821115620003a757600080fd5b620003b58b838c0162000280565b945060a08a0151915080821115620003cc57600080fd5b50620003db8a828b0162000280565b60c08a015190935090506001600160a01b0381168114620003fb57600080fd5b8091505092959891949750929550565b600181811c908216806200042057607f821691505b602082108114156200044257634e487b7160e01b600052602260045260246000fd5b50919050565b6128a680620004586000396000f3fe608060405234801561001057600080fd5b50600436106101ee5760003560e01c806301ffc9a7146101f357806302d05d3f1461021b57806306fdde031461023b578063081812fc14610250578063095ea7b31461026357806313faede61461027857806318160ddd1461028f578063239c70ae1461029757806323b872dd146102a05780632f745c59146102b35780633ccfd60b146102c65780633f4ba83a146102ce57806342842e0e146102d6578063438b6300146102e957806344a0d68a146103095780634f6ccce71461031c578063518302271461032f57806355f804b31461033c5780635c975abb1461034f5780635fe8e7cc1461035a5780636352211e1461036f5780636d005ca11461038257806370a082311461039a578063715018a6146103ad578063755b9162146103b55780637f00c7a6146103c85780638456cb59146103db5780638da5cb5b146103e35780638dd42808146103eb57806395d89b41146103fe578063a1e89aec14610406578063a22cb4651461040f578063a475b5dd14610422578063ac1e17df1461042a578063b88d4fde1461043d578063c24521c614610450578063c668286214610458578063c87b56dd14610460578063d5abeb0114610473578063da3ef23f1461047c578063e985e9c51461048f578063f2fde38b146104a2575b600080fd5b61020661020136600461211f565b6104b5565b60405190151581526020015b60405180910390f35b60125461022e906001600160a01b031681565b604051610212919061213c565b6102436104e0565b60405161021291906121a8565b61022e61025e3660046121bb565b610572565b6102766102713660046121f0565b6105ff565b005b610281600f5481565b604051908152602001610212565b600854610281565b610281600e5481565b6102766102ae36600461221a565b610710565b6102816102c13660046121f0565b610741565b6102766107d7565b610276610999565b6102766102e436600461221a565b6109d2565b6102fc6102f7366004612256565b6109ed565b6040516102129190612271565b6102766103173660046121bb565b610a8e565b61028161032a3660046121bb565b610ac2565b6011546102069060ff1681565b61027661034a366004612340565b610b55565b600a5460ff16610206565b610362610b9b565b6040516102129190612388565b61022e61037d3660046121bb565b610bfc565b60115461022e9061010090046001600160a01b031681565b6102816103a8366004612256565b610c73565b610276610cfa565b6102766103c33660046121bb565b610d33565b6102766103d63660046121bb565b611026565b61027661105a565b61022e611091565b6102766103f9366004612256565b6110a5565b6102436111a6565b61028160105481565b61027661041d3660046123d7565b6111b5565b6102766111c0565b610276610438366004612256565b6111fe565b61027661044b36600461240e565b61126d565b601054610281565b61024361129f565b61024361046e3660046121bb565b61132d565b610281600d5481565b61027661048a366004612340565b6113fb565b61020661049d366004612489565b61143d565b6102766104b0366004612256565b61146b565b60006001600160e01b0319821663780e9d6360e01b14806104da57506104da8261150b565b92915050565b6060600080546104ef906124bc565b80601f016020809104026020016040519081016040528092919081815260200182805461051b906124bc565b80156105685780601f1061053d57610100808354040283529160200191610568565b820191906000526020600020905b81548152906001019060200180831161054b57829003601f168201915b5050505050905090565b600061057d8261155b565b6105e35760405162461bcd60e51b815260206004820152602c60248201527f4552433732313a20617070726f76656420717565727920666f72206e6f6e657860448201526b34b9ba32b73a103a37b5b2b760a11b60648201526084015b60405180910390fd5b506000908152600460205260409020546001600160a01b031690565b600061060a82610bfc565b9050806001600160a01b0316836001600160a01b031614156106785760405162461bcd60e51b815260206004820152602160248201527f4552433732313a20617070726f76616c20746f2063757272656e74206f776e656044820152603960f91b60648201526084016105da565b336001600160a01b03821614806106945750610694813361143d565b6107015760405162461bcd60e51b815260206004820152603860248201527f4552433732313a20617070726f76652063616c6c6572206973206e6f74206f776044820152771b995c881b9bdc88185c1c1c9bdd995908199bdc88185b1b60421b60648201526084016105da565b61070b8383611578565b505050565b61071a33826115e6565b6107365760405162461bcd60e51b81526004016105da906124f7565b61070b8383836116b0565b600061074c83610c73565b82106107ae5760405162461bcd60e51b815260206004820152602b60248201527f455243373231456e756d657261626c653a206f776e657220696e646578206f7560448201526a74206f6620626f756e647360a81b60648201526084016105da565b506001600160a01b03919091166000908152600660209081526040808320938352929052205490565b6012546001600160a01b031633146107ee57600080fd5b6011546040516370a0823160e01b815260009161010090046001600160a01b0316906370a082319061082490309060040161213c565b602060405180830381865afa158015610841573d6000803e3d6000fd5b505050506040513d601f19601f820116820180604052508101906108659190612548565b905060006064610876836005612577565b61088091906125ac565b9050600061088e82846125c0565b6011546012546040516323b872dd60e01b81529293506001600160a01b036101009092048216926323b872dd926108ce92309291169086906004016125d7565b6020604051808303816000875af11580156108ed573d6000803e3d6000fd5b505050506040513d601f19601f8201168201806040525081019061091191906125fb565b506011546014546040516323b872dd60e01b81526101009092046001600160a01b03908116926323b872dd9261095092309291169087906004016125d7565b6020604051808303816000875af115801561096f573d6000803e3d6000fd5b505050506040513d601f19601f8201168201806040525081019061099391906125fb565b50505050565b336109a2611091565b6001600160a01b0316146109c85760405162461bcd60e51b81526004016105da90612618565b6109d0611845565b565b61070b8383836040518060200160405280600081525061126d565b606060006109fa83610c73565b90506000816001600160401b03811115610a1657610a166122b5565b604051908082528060200260200182016040528015610a3f578160200160208202803683370190505b50905060005b82811015610a8657610a578582610741565b828281518110610a6957610a6961264d565b602090810291909101015280610a7e81612663565b915050610a45565b509392505050565b33610a97611091565b6001600160a01b031614610abd5760405162461bcd60e51b81526004016105da90612618565b600f55565b6000610acd60085490565b8210610b305760405162461bcd60e51b815260206004820152602c60248201527f455243373231456e756d657261626c653a20676c6f62616c20696e646578206f60448201526b7574206f6620626f756e647360a01b60648201526084016105da565b60088281548110610b4357610b4361264d565b90600052602060002001549050919050565b33610b5e611091565b6001600160a01b031614610b845760405162461bcd60e51b81526004016105da90612618565b8051610b9790600b906020840190612070565b5050565b6060601380548060200260200160405190810160405280929190818152602001828054801561056857602002820191906000526020600020905b81546001600160a01b03168152600190910190602001808311610bd5575050505050905090565b6000818152600260205260408120546001600160a01b0316806104da5760405162461bcd60e51b815260206004820152602960248201527f4552433732313a206f776e657220717565727920666f72206e6f6e657869737460448201526832b73a103a37b5b2b760b91b60648201526084016105da565b60006001600160a01b038216610cde5760405162461bcd60e51b815260206004820152602a60248201527f4552433732313a2062616c616e636520717565727920666f7220746865207a65604482015269726f206164647265737360b01b60648201526084016105da565b506001600160a01b031660009081526003602052604090205490565b33610d03611091565b6001600160a01b031614610d295760405162461bcd60e51b81526004016105da90612618565b6109d060006118d2565b33610d3c611091565b6001600160a01b031614610d625760405162461bcd60e51b81526004016105da90612618565b600081600f54610d729190612577565b90506000610d7f60085490565b905060008311610d8e57600080fd5b600e54831115610d9d57600080fd5b600d54610daa848361267e565b1115610db557600080fd5b6011546040516370a0823160e01b8152839161010090046001600160a01b0316906370a0823190610dea90339060040161213c565b602060405180830381865afa158015610e07573d6000803e3d6000fd5b505050506040513d601f19601f82011682018060405250810190610e2b9190612548565b1015610e6c5760405162461bcd60e51b815260206004820152601060248201526f2737ba1022b737bab3b4102a37b5b2b760811b60448201526064016105da565b601154604051636eb1769f60e11b8152336004820152306024820152839161010090046001600160a01b03169063dd62ed3e90604401602060405180830381865afa158015610ebf573d6000803e3d6000fd5b505050506040513d601f19601f82011682018060405250810190610ee39190612548565b1015610f215760405162461bcd60e51b815260206004820152600d60248201526c20b8383937bb32902a27b5b2b760991b60448201526064016105da565b6012546001600160a01b03163314610fb0576011546040516323b872dd60e01b81526101009091046001600160a01b0316906323b872dd90610f6b903390309087906004016125d7565b6020604051808303816000875af1158015610f8a573d6000803e3d6000fd5b505050506040513d601f19601f82011682018060405250810190610fae91906125fb565b505b6013805460018101825560009182526000805160206128318339815191520180546001600160a01b0319163317905560108054859290610ff190849061267e565b90915550600190505b838111610993576110143361100f838561267e565b61192c565b8061101e81612663565b915050610ffa565b3361102f611091565b6001600160a01b0316146110555760405162461bcd60e51b81526004016105da90612618565b600e55565b33611063611091565b6001600160a01b0316146110895760405162461bcd60e51b81526004016105da90612618565b6109d0611946565b600a5461010090046001600160a01b031690565b336110ae611091565b6001600160a01b0316146110d45760405162461bcd60e51b81526004016105da90612618565b60005b601354811015610b9757816001600160a01b0316601382815481106110fe576110fe61264d565b6000918252602090912001546001600160a01b031614156111945760138054611129906001906125c0565b815481106111395761113961264d565b600091825260209091200154601380546001600160a01b0390921691839081106111655761116561264d565b9060005260206000200160006101000a8154816001600160a01b0302191690836001600160a01b031602179055505b8061119e81612663565b9150506110d7565b6060600180546104ef906124bc565b610b973383836119c1565b336111c9611091565b6001600160a01b0316146111ef5760405162461bcd60e51b81526004016105da90612618565b6011805460ff19166001179055565b33611207611091565b6001600160a01b03161461122d5760405162461bcd60e51b81526004016105da90612618565b601380546001810182556000919091526000805160206128318339815191520180546001600160a01b0319166001600160a01b0392909216919091179055565b61127733836115e6565b6112935760405162461bcd60e51b81526004016105da906124f7565b61099384848484611a8c565b600c80546112ac906124bc565b80601f01602080910402602001604051908101604052809291908181526020018280546112d8906124bc565b80156113255780601f106112fa57610100808354040283529160200191611325565b820191906000526020600020905b81548152906001019060200180831161130857829003601f168201915b505050505081565b60606113388261155b565b61139c5760405162461bcd60e51b815260206004820152602f60248201527f4552433732314d657461646174613a2055524920717565727920666f72206e6f60448201526e3732bc34b9ba32b73a103a37b5b2b760891b60648201526084016105da565b60006113a6611abf565b905060008151116113c657604051806020016040528060008152506113f4565b806113d084611ace565b600c6040516020016113e493929190612696565b6040516020818303038152906040525b9392505050565b33611404611091565b6001600160a01b03161461142a5760405162461bcd60e51b81526004016105da90612618565b8051610b9790600c906020840190612070565b6001600160a01b03918216600090815260056020908152604080832093909416825291909152205460ff1690565b33611474611091565b6001600160a01b03161461149a5760405162461bcd60e51b81526004016105da90612618565b6001600160a01b0381166114ff5760405162461bcd60e51b815260206004820152602660248201527f4f776e61626c653a206e6577206f776e657220697320746865207a65726f206160448201526564647265737360d01b60648201526084016105da565b611508816118d2565b50565b60006001600160e01b031982166380ac58cd60e01b148061153c57506001600160e01b03198216635b5e139f60e01b145b806104da57506301ffc9a760e01b6001600160e01b03198316146104da565b6000908152600260205260409020546001600160a01b0316151590565b600081815260046020526040902080546001600160a01b0319166001600160a01b03841690811790915581906115ad82610bfc565b6001600160a01b03167f8c5be1e5ebec7d5bd14f71427d1e84f3dd0314c0f7b2291e5b200ac8c7c3b92560405160405180910390a45050565b60006115f18261155b565b6116525760405162461bcd60e51b815260206004820152602c60248201527f4552433732313a206f70657261746f7220717565727920666f72206e6f6e657860448201526b34b9ba32b73a103a37b5b2b760a11b60648201526084016105da565b600061165d83610bfc565b9050806001600160a01b0316846001600160a01b031614806116845750611684818561143d565b806116a85750836001600160a01b031661169d84610572565b6001600160a01b0316145b949350505050565b826001600160a01b03166116c382610bfc565b6001600160a01b0316146117275760405162461bcd60e51b815260206004820152602560248201527f4552433732313a207472616e736665722066726f6d20696e636f72726563742060448201526437bbb732b960d91b60648201526084016105da565b6001600160a01b0382166117895760405162461bcd60e51b8152602060048201526024808201527f4552433732313a207472616e7366657220746f20746865207a65726f206164646044820152637265737360e01b60648201526084016105da565b611794838383611bcb565b61179f600082611578565b6001600160a01b03831660009081526003602052604081208054600192906117c89084906125c0565b90915550506001600160a01b03821660009081526003602052604081208054600192906117f690849061267e565b909155505060008181526002602052604080822080546001600160a01b0319166001600160a01b03868116918217909255915184939187169160008051602061285183398151915291a4505050565b600a5460ff1661188e5760405162461bcd60e51b815260206004820152601460248201527314185d5cd8589b194e881b9bdd081c185d5cd95960621b60448201526064016105da565b600a805460ff191690557f5db9ee0a495bf2e6ff9c91a7834c1ba4fdd244a5e8aa4e537bd38aeae4b073aa335b6040516118c8919061213c565b60405180910390a1565b600a80546001600160a01b03838116610100818102610100600160a81b031985161790945560405193909204169182907f8be0079c531659141344cd1fd0a4f28419497f9722a3daafe3b4186f6b6457e090600090a35050565b610b97828260405180602001604052806000815250611c83565b600a5460ff161561198c5760405162461bcd60e51b815260206004820152601060248201526f14185d5cd8589b194e881c185d5cd95960821b60448201526064016105da565b600a805460ff191660011790557f62e78cea01bee320cd4e420270b5ea74000d11b0c9f74754ebdbfc544b05a2586118bb3390565b816001600160a01b0316836001600160a01b03161415611a1f5760405162461bcd60e51b815260206004820152601960248201527822a9219b99189d1030b8383937bb32903a379031b0b63632b960391b60448201526064016105da565b6001600160a01b03838116600081815260056020908152604080832094871680845294825291829020805460ff191686151590811790915591519182527f17307eab39ab6107e8899845ad3d59bd9653f200f220920489ca2b5937696c31910160405180910390a3505050565b611a978484846116b0565b611aa384848484611cb6565b6109935760405162461bcd60e51b81526004016105da9061275a565b6060600b80546104ef906124bc565b606081611af25750506040805180820190915260018152600360fc1b602082015290565b8160005b8115611b1c5780611b0681612663565b9150611b159050600a836125ac565b9150611af6565b6000816001600160401b03811115611b3657611b366122b5565b6040519080825280601f01601f191660200182016040528015611b60576020820181803683370190505b5090505b84156116a857611b756001836125c0565b9150611b82600a866127ac565b611b8d90603061267e565b60f81b818381518110611ba257611ba261264d565b60200101906001600160f81b031916908160001a905350611bc4600a866125ac565b9450611b64565b6001600160a01b038316611c2657611c2181600880546000838152600960205260408120829055600182018355919091527ff3f7a9fe364faab93b216da50a3214154f22a0a2b415b23a84c8169e8b636ee30155565b611c49565b816001600160a01b0316836001600160a01b031614611c4957611c498382611db4565b6001600160a01b038216611c605761070b81611e51565b826001600160a01b0316826001600160a01b03161461070b5761070b8282611f00565b611c8d8383611f44565b611c9a6000848484611cb6565b61070b5760405162461bcd60e51b81526004016105da9061275a565b60006001600160a01b0384163b15611da957604051630a85bd0160e11b81526001600160a01b0385169063150b7a0290611cfa9033908990889088906004016127c0565b6020604051808303816000875af1925050508015611d35575060408051601f3d908101601f19168201909252611d32918101906127fd565b60015b611d8f573d808015611d63576040519150601f19603f3d011682016040523d82523d6000602084013e611d68565b606091505b508051611d875760405162461bcd60e51b81526004016105da9061275a565b805181602001fd5b6001600160e01b031916630a85bd0160e11b1490506116a8565b506001949350505050565b60006001611dc184610c73565b611dcb91906125c0565b600083815260076020526040902054909150808214611e1e576001600160a01b03841660009081526006602090815260408083208584528252808320548484528184208190558352600790915290208190555b5060009182526007602090815260408084208490556001600160a01b039094168352600681528383209183525290812055565b600854600090611e63906001906125c0565b60008381526009602052604081205460088054939450909284908110611e8b57611e8b61264d565b906000526020600020015490508060088381548110611eac57611eac61264d565b6000918252602080832090910192909255828152600990915260408082208490558582528120556008805480611ee457611ee461281a565b6001900381819060005260206000200160009055905550505050565b6000611f0b83610c73565b6001600160a01b039093166000908152600660209081526040808320868452825280832085905593825260079052919091209190915550565b6001600160a01b038216611f9a5760405162461bcd60e51b815260206004820181905260248201527f4552433732313a206d696e7420746f20746865207a65726f206164647265737360448201526064016105da565b611fa38161155b565b15611fef5760405162461bcd60e51b815260206004820152601c60248201527b115490cdcc8c4e881d1bdad95b88185b1c9958591e481b5a5b9d195960221b60448201526064016105da565b611ffb60008383611bcb565b6001600160a01b038216600090815260036020526040812080546001929061202490849061267e565b909155505060008181526002602052604080822080546001600160a01b0319166001600160a01b0386169081179091559051839290600080516020612851833981519152908290a45050565b82805461207c906124bc565b90600052602060002090601f01602090048101928261209e57600085556120e4565b82601f106120b757805160ff19168380011785556120e4565b828001600101855582156120e4579182015b828111156120e45782518255916020019190600101906120c9565b506120f09291506120f4565b5090565b5b808211156120f057600081556001016120f5565b6001600160e01b03198116811461150857600080fd5b60006020828403121561213157600080fd5b81356113f481612109565b6001600160a01b0391909116815260200190565b60005b8381101561216b578181015183820152602001612153565b838111156109935750506000910152565b60008151808452612194816020860160208601612150565b601f01601f19169290920160200192915050565b6020815260006113f4602083018461217c565b6000602082840312156121cd57600080fd5b5035919050565b80356001600160a01b03811681146121eb57600080fd5b919050565b6000806040838503121561220357600080fd5b61220c836121d4565b946020939093013593505050565b60008060006060848603121561222f57600080fd5b612238846121d4565b9250612246602085016121d4565b9150604084013590509250925092565b60006020828403121561226857600080fd5b6113f4826121d4565b6020808252825182820181905260009190848201906040850190845b818110156122a95783518352928401929184019160010161228d565b50909695505050505050565b634e487b7160e01b600052604160045260246000fd5b60006001600160401b03808411156122e5576122e56122b5565b604051601f8501601f19908116603f0116810190828211818310171561230d5761230d6122b5565b8160405280935085815286868601111561232657600080fd5b858560208301376000602087830101525050509392505050565b60006020828403121561235257600080fd5b81356001600160401b0381111561236857600080fd5b8201601f8101841361237957600080fd5b6116a8848235602084016122cb565b6020808252825182820181905260009190848201906040850190845b818110156122a95783516001600160a01b0316835292840192918401916001016123a4565b801515811461150857600080fd5b600080604083850312156123ea57600080fd5b6123f3836121d4565b91506020830135612403816123c9565b809150509250929050565b6000806000806080858703121561242457600080fd5b61242d856121d4565b935061243b602086016121d4565b92506040850135915060608501356001600160401b0381111561245d57600080fd5b8501601f8101871361246e57600080fd5b61247d878235602084016122cb565b91505092959194509250565b6000806040838503121561249c57600080fd5b6124a5836121d4565b91506124b3602084016121d4565b90509250929050565b600181811c908216806124d057607f821691505b602082108114156124f157634e487b7160e01b600052602260045260246000fd5b50919050565b60208082526031908201527f4552433732313a207472616e736665722063616c6c6572206973206e6f74206f6040820152701ddb995c881b9bdc88185c1c1c9bdd9959607a1b606082015260800190565b60006020828403121561255a57600080fd5b5051919050565b634e487b7160e01b600052601160045260246000fd5b600081600019048311821515161561259157612591612561565b500290565b634e487b7160e01b600052601260045260246000fd5b6000826125bb576125bb612596565b500490565b6000828210156125d2576125d2612561565b500390565b6001600160a01b039384168152919092166020820152604081019190915260600190565b60006020828403121561260d57600080fd5b81516113f4816123c9565b6020808252818101527f4f776e61626c653a2063616c6c6572206973206e6f7420746865206f776e6572604082015260600190565b634e487b7160e01b600052603260045260246000fd5b600060001982141561267757612677612561565b5060010190565b6000821982111561269157612691612561565b500190565b6000845160206126a98285838a01612150565b8551918401916126bc8184848a01612150565b8554920191600090600181811c90808316806126d957607f831692505b8583108114156126f757634e487b7160e01b85526022600452602485fd5b80801561270b576001811461271c57612749565b60ff19851688528388019550612749565b60008b81526020902060005b858110156127415781548a820152908401908801612728565b505083880195505b50939b9a5050505050505050505050565b60208082526032908201527f4552433732313a207472616e7366657220746f206e6f6e20455243373231526560408201527131b2b4bb32b91034b6b83632b6b2b73a32b960711b606082015260800190565b6000826127bb576127bb612596565b500690565b6001600160a01b03858116825284166020820152604081018390526080606082018190526000906127f39083018461217c565b9695505050505050565b60006020828403121561280f57600080fd5b81516113f481612109565b634e487b7160e01b600052603160045260246000fdfe66de8ffda797e3de9c05e8fc57b3bf0ec28a930d40b0d285d93c06501cf6a090ddf252ad1be2c89b69c2b068fc378daa952ba7f163c4a11628f55a4df523b3efa26469706673582212209a12cbfb8dc116358c046a2d44604df424d4c6464d969d805fcc8ca1871a1e1164736f6c634300080b0033a2646970667358221220b54f35d73c1bf8958a181b399e800f0de929cd177718a6baac3500b973e5d41364736f6c634300080b0033a26469706673582212200077e038dcdbce452697dc752f66a0b48e33685e344bbe58c353676f625f8a3564736f6c634300080b0033",
  "immutableReferences": {
    "10076": [
      {
        "length": 32,
        "start": 220
      },
      {
        "length": 32,
        "start": 378
      },
      {
        "length": 32,
        "start": 966
      }
    ]
  },
  "source": "/**\r\n    @author Blok Hamster \r\n */\r\n\r\n// SPDX-License-Identifier: MIT\r\npragma solidity ^0.8.4;\r\npragma experimental ABIEncoderV2;\r\n\r\nimport \"../Products/NftRoyaltySale.sol\";\r\nimport { IPicardyHub } from \"../PicardyHub.sol\";\r\nimport { IPicardyProfile } from \"../Users/PicardyProfile.sol\";\r\nimport \"@openzeppelin/contracts/access/Ownable.sol\";\r\n\r\ncontract NftRoyaltySaleFactory is Ownable {\r\n    \r\n    address immutable PICARDY_HUB;\r\n\r\n    modifier isCreator(uint _profileId){\r\n        _isCreator(_profileId);\r\n        _;\r\n    }\r\n\r\n    constructor (address _PICARDY_HUB){\r\n        PICARDY_HUB = _PICARDY_HUB;\r\n\r\n        transferOwnership(PICARDY_HUB);\r\n    }\r\n\r\n    /**\r\n        @dev Creates an ERC721 royalty sale contract\r\n        @param _maxSupply The maximum supply of the Royalty Token\r\n        @param _maxMintAmount The maximum amount of token a user can buy \r\n        @param _cost The price of each token\r\n        @param _percentage The percentage of royalty to be sold\r\n        @param _name The name of the royalty\r\n        @param _symbol The token symbol\r\n        @param _initBaseURI Image and metadata URI\r\n     */\r\n    function createNftRoyalty(\r\n        uint _maxSupply, \r\n        uint _maxMintAmount, \r\n        uint _cost, \r\n        uint _percentage,\r\n        uint _profileId, \r\n        string memory _name, \r\n        string memory _symbol, \r\n        string memory _initBaseURI\r\n        ) external isCreator(_profileId){\r\n        \r\n        string memory _ArtisteName = IPicardyHub(PICARDY_HUB).getProfileName(_profileId);\r\n        address profileAddress = IPicardyHub(PICARDY_HUB).getProfileAddress(_profileId);\r\n\r\n        NftRoyaltySale nftRoyalty = new NftRoyaltySale(_maxSupply, _maxMintAmount, _cost,  _percentage , _name, _symbol, _initBaseURI, _ArtisteName, msg.sender);\r\n\r\n        IPicardyProfile(profileAddress).addProduct(3, address(nftRoyalty), _name);\r\n    }\r\n\r\n    function _isCreator(uint _profileId) internal view {\r\n        require(\r\n            IPicardyHub(PICARDY_HUB).checkIsCreator(_profileId) == true\r\n        );\r\n    }\r\n}",
  "sourcePath": "C:\\Users\\USER\\Desktop\\Projects\\Picardy_Protocol\\contracts\\Factory\\NftRoyaltySaleFactory.sol",
  "compiler": {
    "name": "solc",
    "version": "0.8.11+commit.d7f03943.Emscripten.clang"
  },
  "schemaVersion": "3.4.6",
  "updatedAt": "2022-08-18T20:31:17.062Z",
  "devdoc": {
    "kind": "dev",
    "methods": {
      "createNftRoyalty(uint256,uint256,uint256,uint256,uint256,string,string,string)": {
        "details": "Creates an ERC721 royalty sale contract",
        "params": {
          "_cost": "The price of each token",
          "_initBaseURI": "Image and metadata URI",
          "_maxMintAmount": "The maximum amount of token a user can buy ",
          "_maxSupply": "The maximum supply of the Royalty Token",
          "_name": "The name of the royalty",
          "_percentage": "The percentage of royalty to be sold",
          "_symbol": "The token symbol"
        }
      },
      "owner()": {
        "details": "Returns the address of the current owner."
      },
      "renounceOwnership()": {
        "details": "Leaves the contract without owner. It will not be possible to call `onlyOwner` functions anymore. Can only be called by the current owner. NOTE: Renouncing ownership will leave the contract without an owner, thereby removing any functionality that is only available to the owner."
      },
      "transferOwnership(address)": {
        "details": "Transfers ownership of the contract to a new account (`newOwner`). Can only be called by the current owner."
      }
    },
    "version": 1
  },
  "userdoc": {
    "kind": "user",
    "methods": {},
    "version": 1
  }
}