{
  "contractName": "PicardyGovernor",
  "abi": [
    {
      "inputs": [
        {
          "internalType": "contract IVotes",
          "name": "_token",
          "type": "address"
        },
        {
          "internalType": "contract TimelockController",
          "name": "_timelock",
          "type": "address"
        }
      ],
      "stateMutability": "nonpayable",
      "type": "constructor"
    },
    {
      "inputs": [],
      "name": "Empty",
      "type": "error"
    },
    {
      "anonymous": false,
      "inputs": [
        {
          "indexed": false,
          "internalType": "uint256",
          "name": "proposalId",
          "type": "uint256"
        }
      ],
      "name": "ProposalCanceled",
      "type": "event"
    },
    {
      "anonymous": false,
      "inputs": [
        {
          "indexed": false,
          "internalType": "uint256",
          "name": "proposalId",
          "type": "uint256"
        },
        {
          "indexed": false,
          "internalType": "address",
          "name": "proposer",
          "type": "address"
        },
        {
          "indexed": false,
          "internalType": "address[]",
          "name": "targets",
          "type": "address[]"
        },
        {
          "indexed": false,
          "internalType": "uint256[]",
          "name": "values",
          "type": "uint256[]"
        },
        {
          "indexed": false,
          "internalType": "string[]",
          "name": "signatures",
          "type": "string[]"
        },
        {
          "indexed": false,
          "internalType": "bytes[]",
          "name": "calldatas",
          "type": "bytes[]"
        },
        {
          "indexed": false,
          "internalType": "uint256",
          "name": "startBlock",
          "type": "uint256"
        },
        {
          "indexed": false,
          "internalType": "uint256",
          "name": "endBlock",
          "type": "uint256"
        },
        {
          "indexed": false,
          "internalType": "string",
          "name": "description",
          "type": "string"
        }
      ],
      "name": "ProposalCreated",
      "type": "event"
    },
    {
      "anonymous": false,
      "inputs": [
        {
          "indexed": false,
          "internalType": "uint256",
          "name": "proposalId",
          "type": "uint256"
        }
      ],
      "name": "ProposalExecuted",
      "type": "event"
    },
    {
      "anonymous": false,
      "inputs": [
        {
          "indexed": false,
          "internalType": "uint256",
          "name": "proposalId",
          "type": "uint256"
        },
        {
          "indexed": false,
          "internalType": "uint256",
          "name": "eta",
          "type": "uint256"
        }
      ],
      "name": "ProposalQueued",
      "type": "event"
    },
    {
      "anonymous": false,
      "inputs": [
        {
          "indexed": false,
          "internalType": "uint256",
          "name": "oldProposalThreshold",
          "type": "uint256"
        },
        {
          "indexed": false,
          "internalType": "uint256",
          "name": "newProposalThreshold",
          "type": "uint256"
        }
      ],
      "name": "ProposalThresholdSet",
      "type": "event"
    },
    {
      "anonymous": false,
      "inputs": [
        {
          "indexed": false,
          "internalType": "uint256",
          "name": "oldQuorumNumerator",
          "type": "uint256"
        },
        {
          "indexed": false,
          "internalType": "uint256",
          "name": "newQuorumNumerator",
          "type": "uint256"
        }
      ],
      "name": "QuorumNumeratorUpdated",
      "type": "event"
    },
    {
      "anonymous": false,
      "inputs": [
        {
          "indexed": false,
          "internalType": "address",
          "name": "oldTimelock",
          "type": "address"
        },
        {
          "indexed": false,
          "internalType": "address",
          "name": "newTimelock",
          "type": "address"
        }
      ],
      "name": "TimelockChange",
      "type": "event"
    },
    {
      "anonymous": false,
      "inputs": [
        {
          "indexed": true,
          "internalType": "address",
          "name": "voter",
          "type": "address"
        },
        {
          "indexed": false,
          "internalType": "uint256",
          "name": "proposalId",
          "type": "uint256"
        },
        {
          "indexed": false,
          "internalType": "uint8",
          "name": "support",
          "type": "uint8"
        },
        {
          "indexed": false,
          "internalType": "uint256",
          "name": "weight",
          "type": "uint256"
        },
        {
          "indexed": false,
          "internalType": "string",
          "name": "reason",
          "type": "string"
        }
      ],
      "name": "VoteCast",
      "type": "event"
    },
    {
      "anonymous": false,
      "inputs": [
        {
          "indexed": true,
          "internalType": "address",
          "name": "voter",
          "type": "address"
        },
        {
          "indexed": false,
          "internalType": "uint256",
          "name": "proposalId",
          "type": "uint256"
        },
        {
          "indexed": false,
          "internalType": "uint8",
          "name": "support",
          "type": "uint8"
        },
        {
          "indexed": false,
          "internalType": "uint256",
          "name": "weight",
          "type": "uint256"
        },
        {
          "indexed": false,
          "internalType": "string",
          "name": "reason",
          "type": "string"
        },
        {
          "indexed": false,
          "internalType": "bytes",
          "name": "params",
          "type": "bytes"
        }
      ],
      "name": "VoteCastWithParams",
      "type": "event"
    },
    {
      "anonymous": false,
      "inputs": [
        {
          "indexed": false,
          "internalType": "uint256",
          "name": "oldVotingDelay",
          "type": "uint256"
        },
        {
          "indexed": false,
          "internalType": "uint256",
          "name": "newVotingDelay",
          "type": "uint256"
        }
      ],
      "name": "VotingDelaySet",
      "type": "event"
    },
    {
      "anonymous": false,
      "inputs": [
        {
          "indexed": false,
          "internalType": "uint256",
          "name": "oldVotingPeriod",
          "type": "uint256"
        },
        {
          "indexed": false,
          "internalType": "uint256",
          "name": "newVotingPeriod",
          "type": "uint256"
        }
      ],
      "name": "VotingPeriodSet",
      "type": "event"
    },
    {
      "inputs": [],
      "name": "BALLOT_TYPEHASH",
      "outputs": [
        {
          "internalType": "bytes32",
          "name": "",
          "type": "bytes32"
        }
      ],
      "stateMutability": "view",
      "type": "function",
      "constant": true
    },
    {
      "inputs": [],
      "name": "COUNTING_MODE",
      "outputs": [
        {
          "internalType": "string",
          "name": "",
          "type": "string"
        }
      ],
      "stateMutability": "pure",
      "type": "function",
      "constant": true
    },
    {
      "inputs": [],
      "name": "EXTENDED_BALLOT_TYPEHASH",
      "outputs": [
        {
          "internalType": "bytes32",
          "name": "",
          "type": "bytes32"
        }
      ],
      "stateMutability": "view",
      "type": "function",
      "constant": true
    },
    {
      "inputs": [
        {
          "internalType": "uint256",
          "name": "proposalId",
          "type": "uint256"
        },
        {
          "internalType": "uint8",
          "name": "support",
          "type": "uint8"
        }
      ],
      "name": "castVote",
      "outputs": [
        {
          "internalType": "uint256",
          "name": "",
          "type": "uint256"
        }
      ],
      "stateMutability": "nonpayable",
      "type": "function"
    },
    {
      "inputs": [
        {
          "internalType": "uint256",
          "name": "proposalId",
          "type": "uint256"
        },
        {
          "internalType": "uint8",
          "name": "support",
          "type": "uint8"
        },
        {
          "internalType": "uint8",
          "name": "v",
          "type": "uint8"
        },
        {
          "internalType": "bytes32",
          "name": "r",
          "type": "bytes32"
        },
        {
          "internalType": "bytes32",
          "name": "s",
          "type": "bytes32"
        }
      ],
      "name": "castVoteBySig",
      "outputs": [
        {
          "internalType": "uint256",
          "name": "",
          "type": "uint256"
        }
      ],
      "stateMutability": "nonpayable",
      "type": "function"
    },
    {
      "inputs": [
        {
          "internalType": "uint256",
          "name": "proposalId",
          "type": "uint256"
        },
        {
          "internalType": "uint8",
          "name": "support",
          "type": "uint8"
        },
        {
          "internalType": "string",
          "name": "reason",
          "type": "string"
        }
      ],
      "name": "castVoteWithReason",
      "outputs": [
        {
          "internalType": "uint256",
          "name": "",
          "type": "uint256"
        }
      ],
      "stateMutability": "nonpayable",
      "type": "function"
    },
    {
      "inputs": [
        {
          "internalType": "uint256",
          "name": "proposalId",
          "type": "uint256"
        },
        {
          "internalType": "uint8",
          "name": "support",
          "type": "uint8"
        },
        {
          "internalType": "string",
          "name": "reason",
          "type": "string"
        },
        {
          "internalType": "bytes",
          "name": "params",
          "type": "bytes"
        }
      ],
      "name": "castVoteWithReasonAndParams",
      "outputs": [
        {
          "internalType": "uint256",
          "name": "",
          "type": "uint256"
        }
      ],
      "stateMutability": "nonpayable",
      "type": "function"
    },
    {
      "inputs": [
        {
          "internalType": "uint256",
          "name": "proposalId",
          "type": "uint256"
        },
        {
          "internalType": "uint8",
          "name": "support",
          "type": "uint8"
        },
        {
          "internalType": "string",
          "name": "reason",
          "type": "string"
        },
        {
          "internalType": "bytes",
          "name": "params",
          "type": "bytes"
        },
        {
          "internalType": "uint8",
          "name": "v",
          "type": "uint8"
        },
        {
          "internalType": "bytes32",
          "name": "r",
          "type": "bytes32"
        },
        {
          "internalType": "bytes32",
          "name": "s",
          "type": "bytes32"
        }
      ],
      "name": "castVoteWithReasonAndParamsBySig",
      "outputs": [
        {
          "internalType": "uint256",
          "name": "",
          "type": "uint256"
        }
      ],
      "stateMutability": "nonpayable",
      "type": "function"
    },
    {
      "inputs": [
        {
          "internalType": "address[]",
          "name": "targets",
          "type": "address[]"
        },
        {
          "internalType": "uint256[]",
          "name": "values",
          "type": "uint256[]"
        },
        {
          "internalType": "bytes[]",
          "name": "calldatas",
          "type": "bytes[]"
        },
        {
          "internalType": "bytes32",
          "name": "descriptionHash",
          "type": "bytes32"
        }
      ],
      "name": "execute",
      "outputs": [
        {
          "internalType": "uint256",
          "name": "",
          "type": "uint256"
        }
      ],
      "stateMutability": "payable",
      "type": "function",
      "payable": true
    },
    {
      "inputs": [
        {
          "internalType": "address",
          "name": "account",
          "type": "address"
        },
        {
          "internalType": "uint256",
          "name": "blockNumber",
          "type": "uint256"
        }
      ],
      "name": "getVotes",
      "outputs": [
        {
          "internalType": "uint256",
          "name": "",
          "type": "uint256"
        }
      ],
      "stateMutability": "view",
      "type": "function",
      "constant": true
    },
    {
      "inputs": [
        {
          "internalType": "address",
          "name": "account",
          "type": "address"
        },
        {
          "internalType": "uint256",
          "name": "blockNumber",
          "type": "uint256"
        },
        {
          "internalType": "bytes",
          "name": "params",
          "type": "bytes"
        }
      ],
      "name": "getVotesWithParams",
      "outputs": [
        {
          "internalType": "uint256",
          "name": "",
          "type": "uint256"
        }
      ],
      "stateMutability": "view",
      "type": "function",
      "constant": true
    },
    {
      "inputs": [
        {
          "internalType": "uint256",
          "name": "proposalId",
          "type": "uint256"
        },
        {
          "internalType": "address",
          "name": "account",
          "type": "address"
        }
      ],
      "name": "hasVoted",
      "outputs": [
        {
          "internalType": "bool",
          "name": "",
          "type": "bool"
        }
      ],
      "stateMutability": "view",
      "type": "function",
      "constant": true
    },
    {
      "inputs": [
        {
          "internalType": "address[]",
          "name": "targets",
          "type": "address[]"
        },
        {
          "internalType": "uint256[]",
          "name": "values",
          "type": "uint256[]"
        },
        {
          "internalType": "bytes[]",
          "name": "calldatas",
          "type": "bytes[]"
        },
        {
          "internalType": "bytes32",
          "name": "descriptionHash",
          "type": "bytes32"
        }
      ],
      "name": "hashProposal",
      "outputs": [
        {
          "internalType": "uint256",
          "name": "",
          "type": "uint256"
        }
      ],
      "stateMutability": "pure",
      "type": "function",
      "constant": true
    },
    {
      "inputs": [],
      "name": "name",
      "outputs": [
        {
          "internalType": "string",
          "name": "",
          "type": "string"
        }
      ],
      "stateMutability": "view",
      "type": "function",
      "constant": true
    },
    {
      "inputs": [
        {
          "internalType": "address",
          "name": "",
          "type": "address"
        },
        {
          "internalType": "address",
          "name": "",
          "type": "address"
        },
        {
          "internalType": "uint256[]",
          "name": "",
          "type": "uint256[]"
        },
        {
          "internalType": "uint256[]",
          "name": "",
          "type": "uint256[]"
        },
        {
          "internalType": "bytes",
          "name": "",
          "type": "bytes"
        }
      ],
      "name": "onERC1155BatchReceived",
      "outputs": [
        {
          "internalType": "bytes4",
          "name": "",
          "type": "bytes4"
        }
      ],
      "stateMutability": "nonpayable",
      "type": "function"
    },
    {
      "inputs": [
        {
          "internalType": "address",
          "name": "",
          "type": "address"
        },
        {
          "internalType": "address",
          "name": "",
          "type": "address"
        },
        {
          "internalType": "uint256",
          "name": "",
          "type": "uint256"
        },
        {
          "internalType": "uint256",
          "name": "",
          "type": "uint256"
        },
        {
          "internalType": "bytes",
          "name": "",
          "type": "bytes"
        }
      ],
      "name": "onERC1155Received",
      "outputs": [
        {
          "internalType": "bytes4",
          "name": "",
          "type": "bytes4"
        }
      ],
      "stateMutability": "nonpayable",
      "type": "function"
    },
    {
      "inputs": [
        {
          "internalType": "address",
          "name": "",
          "type": "address"
        },
        {
          "internalType": "address",
          "name": "",
          "type": "address"
        },
        {
          "internalType": "uint256",
          "name": "",
          "type": "uint256"
        },
        {
          "internalType": "bytes",
          "name": "",
          "type": "bytes"
        }
      ],
      "name": "onERC721Received",
      "outputs": [
        {
          "internalType": "bytes4",
          "name": "",
          "type": "bytes4"
        }
      ],
      "stateMutability": "nonpayable",
      "type": "function"
    },
    {
      "inputs": [
        {
          "internalType": "uint256",
          "name": "proposalId",
          "type": "uint256"
        }
      ],
      "name": "proposalDeadline",
      "outputs": [
        {
          "internalType": "uint256",
          "name": "",
          "type": "uint256"
        }
      ],
      "stateMutability": "view",
      "type": "function",
      "constant": true
    },
    {
      "inputs": [
        {
          "internalType": "uint256",
          "name": "proposalId",
          "type": "uint256"
        }
      ],
      "name": "proposalEta",
      "outputs": [
        {
          "internalType": "uint256",
          "name": "",
          "type": "uint256"
        }
      ],
      "stateMutability": "view",
      "type": "function",
      "constant": true
    },
    {
      "inputs": [
        {
          "internalType": "uint256",
          "name": "proposalId",
          "type": "uint256"
        }
      ],
      "name": "proposalSnapshot",
      "outputs": [
        {
          "internalType": "uint256",
          "name": "",
          "type": "uint256"
        }
      ],
      "stateMutability": "view",
      "type": "function",
      "constant": true
    },
    {
      "inputs": [
        {
          "internalType": "uint256",
          "name": "proposalId",
          "type": "uint256"
        }
      ],
      "name": "proposalVotes",
      "outputs": [
        {
          "internalType": "uint256",
          "name": "againstVotes",
          "type": "uint256"
        },
        {
          "internalType": "uint256",
          "name": "forVotes",
          "type": "uint256"
        },
        {
          "internalType": "uint256",
          "name": "abstainVotes",
          "type": "uint256"
        }
      ],
      "stateMutability": "view",
      "type": "function",
      "constant": true
    },
    {
      "inputs": [
        {
          "internalType": "address[]",
          "name": "targets",
          "type": "address[]"
        },
        {
          "internalType": "uint256[]",
          "name": "values",
          "type": "uint256[]"
        },
        {
          "internalType": "bytes[]",
          "name": "calldatas",
          "type": "bytes[]"
        },
        {
          "internalType": "bytes32",
          "name": "descriptionHash",
          "type": "bytes32"
        }
      ],
      "name": "queue",
      "outputs": [
        {
          "internalType": "uint256",
          "name": "",
          "type": "uint256"
        }
      ],
      "stateMutability": "nonpayable",
      "type": "function"
    },
    {
      "inputs": [],
      "name": "quorumDenominator",
      "outputs": [
        {
          "internalType": "uint256",
          "name": "",
          "type": "uint256"
        }
      ],
      "stateMutability": "view",
      "type": "function",
      "constant": true
    },
    {
      "inputs": [],
      "name": "quorumNumerator",
      "outputs": [
        {
          "internalType": "uint256",
          "name": "",
          "type": "uint256"
        }
      ],
      "stateMutability": "view",
      "type": "function",
      "constant": true
    },
    {
      "inputs": [
        {
          "internalType": "address",
          "name": "target",
          "type": "address"
        },
        {
          "internalType": "uint256",
          "name": "value",
          "type": "uint256"
        },
        {
          "internalType": "bytes",
          "name": "data",
          "type": "bytes"
        }
      ],
      "name": "relay",
      "outputs": [],
      "stateMutability": "nonpayable",
      "type": "function"
    },
    {
      "inputs": [
        {
          "internalType": "uint256",
          "name": "newProposalThreshold",
          "type": "uint256"
        }
      ],
      "name": "setProposalThreshold",
      "outputs": [],
      "stateMutability": "nonpayable",
      "type": "function"
    },
    {
      "inputs": [
        {
          "internalType": "uint256",
          "name": "newVotingDelay",
          "type": "uint256"
        }
      ],
      "name": "setVotingDelay",
      "outputs": [],
      "stateMutability": "nonpayable",
      "type": "function"
    },
    {
      "inputs": [
        {
          "internalType": "uint256",
          "name": "newVotingPeriod",
          "type": "uint256"
        }
      ],
      "name": "setVotingPeriod",
      "outputs": [],
      "stateMutability": "nonpayable",
      "type": "function"
    },
    {
      "inputs": [],
      "name": "timelock",
      "outputs": [
        {
          "internalType": "address",
          "name": "",
          "type": "address"
        }
      ],
      "stateMutability": "view",
      "type": "function",
      "constant": true
    },
    {
      "inputs": [],
      "name": "token",
      "outputs": [
        {
          "internalType": "contract IVotes",
          "name": "",
          "type": "address"
        }
      ],
      "stateMutability": "view",
      "type": "function",
      "constant": true
    },
    {
      "inputs": [
        {
          "internalType": "uint256",
          "name": "newQuorumNumerator",
          "type": "uint256"
        }
      ],
      "name": "updateQuorumNumerator",
      "outputs": [],
      "stateMutability": "nonpayable",
      "type": "function"
    },
    {
      "inputs": [
        {
          "internalType": "contract TimelockController",
          "name": "newTimelock",
          "type": "address"
        }
      ],
      "name": "updateTimelock",
      "outputs": [],
      "stateMutability": "nonpayable",
      "type": "function"
    },
    {
      "inputs": [],
      "name": "version",
      "outputs": [
        {
          "internalType": "string",
          "name": "",
          "type": "string"
        }
      ],
      "stateMutability": "view",
      "type": "function",
      "constant": true
    },
    {
      "stateMutability": "payable",
      "type": "receive",
      "payable": true
    },
    {
      "inputs": [],
      "name": "votingDelay",
      "outputs": [
        {
          "internalType": "uint256",
          "name": "",
          "type": "uint256"
        }
      ],
      "stateMutability": "view",
      "type": "function",
      "constant": true
    },
    {
      "inputs": [],
      "name": "votingPeriod",
      "outputs": [
        {
          "internalType": "uint256",
          "name": "",
          "type": "uint256"
        }
      ],
      "stateMutability": "view",
      "type": "function",
      "constant": true
    },
    {
      "inputs": [
        {
          "internalType": "uint256",
          "name": "blockNumber",
          "type": "uint256"
        }
      ],
      "name": "quorum",
      "outputs": [
        {
          "internalType": "uint256",
          "name": "",
          "type": "uint256"
        }
      ],
      "stateMutability": "view",
      "type": "function",
      "constant": true
    },
    {
      "inputs": [
        {
          "internalType": "uint256",
          "name": "proposalId",
          "type": "uint256"
        }
      ],
      "name": "state",
      "outputs": [
        {
          "internalType": "enum IGovernor.ProposalState",
          "name": "",
          "type": "uint8"
        }
      ],
      "stateMutability": "view",
      "type": "function",
      "constant": true
    },
    {
      "inputs": [
        {
          "internalType": "address[]",
          "name": "targets",
          "type": "address[]"
        },
        {
          "internalType": "uint256[]",
          "name": "values",
          "type": "uint256[]"
        },
        {
          "internalType": "bytes[]",
          "name": "calldatas",
          "type": "bytes[]"
        },
        {
          "internalType": "string",
          "name": "description",
          "type": "string"
        }
      ],
      "name": "propose",
      "outputs": [
        {
          "internalType": "uint256",
          "name": "",
          "type": "uint256"
        }
      ],
      "stateMutability": "nonpayable",
      "type": "function"
    },
    {
      "inputs": [],
      "name": "proposalThreshold",
      "outputs": [
        {
          "internalType": "uint256",
          "name": "",
          "type": "uint256"
        }
      ],
      "stateMutability": "view",
      "type": "function",
      "constant": true
    },
    {
      "inputs": [
        {
          "internalType": "bytes4",
          "name": "interfaceId",
          "type": "bytes4"
        }
      ],
      "name": "supportsInterface",
      "outputs": [
        {
          "internalType": "bool",
          "name": "",
          "type": "bool"
        }
      ],
      "stateMutability": "view",
      "type": "function",
      "constant": true
    }
  ],
  "bytecode": "0x6101606040523480156200001257600080fd5b5060405162003c4438038062003c448339810160408190526200003591620004a9565b80600483600161b2fa60006040518060400160405280600f81526020016e2834b1b0b9323ca3b7bb32b93737b960891b81525080620000796200017360201b60201c565b815160208084019190912082518383012060e08290526101008190524660a0818152604080517f8b73c3c69bb8fe3d512ecc4cf759cc79239f7b179b0ffacaa9a75d522b39400f81880181905281830187905260608201869052608082019490945230818401528151808203909301835260c00190528051940193909320919290916080523060c05261012052505082516200011f9250600091506020840190620003ea565b506200012d9050836200018e565b6200013882620001cf565b620001438162000276565b5050506001600160a01b0316610140526200015e81620002b7565b506200016a8162000381565b50505062000525565b6040805180820190915260018152603160f81b602082015290565b60045460408051918252602082018390527fc565b045403dc03c2eea82b81a0465edad9e2e7fc4d97e11421c209da93d7a93910160405180910390a1600455565b60008111620002355760405162461bcd60e51b815260206004820152602760248201527f476f7665726e6f7253657474696e67733a20766f74696e6720706572696f6420604482015266746f6f206c6f7760c81b60648201526084015b60405180910390fd5b60055460408051918252602082018390527f7e3f7f0708a84de9203036abaa450dccc85ad5ff52f78c170f3edb55cf5e8828910160405180910390a1600555565b60065460408051918252602082018390527fccb45da8d5717e6c4544694297c4ba5cf151d455c9bb0ed4fc7a38411bc05461910160405180910390a1600655565b60648111156200033c5760405162461bcd60e51b815260206004820152604360248201527f476f7665726e6f72566f74657351756f72756d4672616374696f6e3a2071756f60448201527f72756d4e756d657261746f72206f7665722071756f72756d44656e6f6d696e616064820152623a37b960e91b608482015260a4016200022c565b600880549082905560408051828152602081018490527f0553476bf02ef2726e8ce5ced78d63e26e602e4a2257b1f559418e24b4633997910160405180910390a15050565b600954604080516001600160a01b03928316815291831660208301527f08f74ea46ef7894f65eabfb5e6e695de773a000b47c529ab559178069b226401910160405180910390a1600980546001600160a01b0319166001600160a01b0392909216919091179055565b828054620003f890620004e8565b90600052602060002090601f0160209004810192826200041c576000855562000467565b82601f106200043757805160ff191683800117855562000467565b8280016001018555821562000467579182015b82811115620004675782518255916020019190600101906200044a565b506200047592915062000479565b5090565b5b808211156200047557600081556001016200047a565b6001600160a01b0381168114620004a657600080fd5b50565b60008060408385031215620004bd57600080fd5b8251620004ca8162000490565b6020840151909250620004dd8162000490565b809150509250929050565b600181811c90821680620004fd57607f821691505b602082108114156200051f57634e487b7160e01b600052602260045260246000fd5b50919050565b60805160a05160c05160e0516101005161012051610140516136b66200058e600039600081816107b201528181611b560152611d4f01526000611ecb01526000611f1a01526000611ef501526000611e4e01526000611e7801526000611ea201526136b66000f3fe6080604052600436106101cf5760003560e01c806301ffc9a7146101f757806302a251a31461022c578063034201811461024f57806306f3f9e61461026f57806306fdde031461028f578063150b7a02146102b1578063160cbed7146102f55780632656227d146103155780632d63f693146103285780632fe3e261146103485780633932abb11461036a5780633bccf4fd1461037f5780633e4f49e61461039f57806343859632146103cc578063544ffc9c1461041657806354fd4d501461046b57806356781388146104955780635f398a14146104b557806370b0f660146104d55780637b3c71d3146104f55780637d5e81e21461051557806397c3d334146105355780639a802a6d14610549578063a7713a7014610569578063a890c9101461057e578063ab58fb8e1461059e578063b58131b0146105be578063bc197c81146105d3578063c01f9e37146105ff578063c28bc2fa1461061f578063c59057e41461063f578063d33219b41461065f578063dd4e2ba51461068c578063deaaa7cc146106d2578063ea0217cf146106f4578063eb9019d414610714578063ece40cc114610734578063f23a6e6114610754578063f8ce560a14610780578063fc0c546a146107a057600080fd5b366101f257306101dd6107d4565b6001600160a01b0316146101f057600080fd5b005b600080fd5b34801561020357600080fd5b50610217610212366004612770565b6107e3565b60405190151581526020015b60405180910390f35b34801561023857600080fd5b506102416107f4565b604051908152602001610223565b34801561025b57600080fd5b5061024161026a3660046128b5565b6107ff565b34801561027b57600080fd5b506101f061028a36600461295b565b6108e5565b34801561029b57600080fd5b506102a461097d565b60405161022391906129d0565b3480156102bd57600080fd5b506102dc6102cc3660046129f8565b630a85bd0160e11b949350505050565b6040516001600160e01b03199091168152602001610223565b34801561030157600080fd5b50610241610310366004612bd4565b610a0f565b610241610323366004612bd4565b610c0d565b34801561033457600080fd5b5061024161034336600461295b565b610cfa565b34801561035457600080fd5b5061024160008051602061363883398151915281565b34801561037657600080fd5b50610241610d31565b34801561038b57600080fd5b5061024161039a366004612c63565b610d3c565b3480156103ab57600080fd5b506103bf6103ba36600461295b565b610da0565b6040516102239190612cc7565b3480156103d857600080fd5b506102176103e7366004612cef565b60008281526007602090815260408083206001600160a01b038516845260030190915290205460ff1692915050565b34801561042257600080fd5b5061045061043136600461295b565b6000908152600760205260409020805460018201546002909201549092565b60408051938452602084019290925290820152606001610223565b34801561047757600080fd5b506040805180820190915260018152603160f81b60208201526102a4565b3480156104a157600080fd5b506102416104b0366004612d1f565b610dab565b3480156104c157600080fd5b506102416104d0366004612d4b565b610dd4565b3480156104e157600080fd5b506101f06104f036600461295b565b610e1e565b34801561050157600080fd5b50610241610510366004612dce565b610eaa565b34801561052157600080fd5b50610241610530366004612e27565b610efc565b34801561054157600080fd5b506064610241565b34801561055557600080fd5b50610241610564366004612edb565b610f13565b34801561057557600080fd5b50600854610241565b34801561058a57600080fd5b506101f0610599366004612f33565b610f2a565b3480156105aa57600080fd5b506102416105b936600461295b565b610fb6565b3480156105ca57600080fd5b50610241611050565b3480156105df57600080fd5b506102dc6105ee366004612f50565b63bc197c8160e01b95945050505050565b34801561060b57600080fd5b5061024161061a36600461295b565b61105b565b34801561062b57600080fd5b506101f061063a366004612fe3565b61108a565b34801561064b57600080fd5b5061024161065a366004612bd4565b611156565b34801561066b57600080fd5b50610674611190565b6040516001600160a01b039091168152602001610223565b34801561069857600080fd5b506040805180820190915260208082527f737570706f72743d627261766f2671756f72756d3d666f722c6162737461696e908201526102a4565b3480156106de57600080fd5b5061024160008051602061361883398151915281565b34801561070057600080fd5b506101f061070f36600461295b565b61119f565b34801561072057600080fd5b5061024161072f366004613026565b61122b565b34801561074057600080fd5b506101f061074f36600461295b565b61124c565b34801561076057600080fd5b506102dc61076f366004613052565b63f23a6e6160e01b95945050505050565b34801561078c57600080fd5b5061024161079b36600461295b565b6112d8565b3480156107ac57600080fd5b506106747f000000000000000000000000000000000000000000000000000000000000000081565b60006107de611190565b905090565b60006107ee826112e3565b92915050565b60006107de60055490565b6000806108916108896000805160206136388339815191528c8c8c8c6040516108299291906130ba565b60405180910390208b8051906020012060405160200161086e959493929190948552602085019390935260ff9190911660408401526060830152608082015260a00190565b60405160208183030381529060405280519060200120611308565b868686611356565b90506108d78a828b8b8b8080601f0160208091040260200160405190810160405280939291908181526020018383808284376000920191909152508d9250611374915050565b9a9950505050505050505050565b6108ed6107d4565b6001600160a01b0316336001600160a01b0316146109265760405162461bcd60e51b815260040161091d906130ca565b60405180910390fd5b3061092f6107d4565b6001600160a01b031614610971576000803660405161094f9291906130ba565b604051809103902090505b8061096560026114d6565b1461096f5761095a565b505b61097a8161153c565b50565b60606000805461098c906130fc565b80601f01602080910402602001604051908101604052809291908181526020018280546109b8906130fc565b8015610a055780601f106109da57610100808354040283529160200191610a05565b820191906000526020600020905b8154815290600101906020018083116109e857829003601f168201915b5050505050905090565b600080610a1e86868686611156565b90506004610a2b82610da0565b6007811115610a3c57610a3c612cb1565b14610a595760405162461bcd60e51b815260040161091d90613137565b6009546040805163793d064960e11b815290516000926001600160a01b03169163f27a0c929160048083019260209291908290030181865afa158015610aa3573d6000803e3d6000fd5b505050506040513d601f19601f82011682018060405250810190610ac79190613178565b60095460405163b1c5f42760e01b81529192506001600160a01b03169063b1c5f42790610b01908a908a908a906000908b9060040161325a565b602060405180830381865afa158015610b1e573d6000803e3d6000fd5b505050506040513d601f19601f82011682018060405250810190610b429190613178565b6000838152600a60205260408082209290925560095491516308f2a0bb60e41b81526001600160a01b0390921691638f2a0bb091610b8d918b918b918b91908b9089906004016132a8565b600060405180830381600087803b158015610ba757600080fd5b505af1158015610bbb573d6000803e3d6000fd5b505050507f9a2e42fd6722813d69113e7d0079d3d940171428df7373df9c7f7617cfda2892828242610bed9190613316565b604051610bfb92919061332e565b60405180910390a15095945050505050565b600080610c1c86868686611156565b90506000610c2982610da0565b90506004816007811115610c3f57610c3f612cb1565b1480610c5c57506005816007811115610c5a57610c5a612cb1565b145b610c785760405162461bcd60e51b815260040161091d90613137565b600082815260016020818152604092839020600201805460ff191690921790915590518381527f712ae1383f79ac853f8d882153778e0260ef8f03b504e2866e0593e04d2b291f910160405180910390a1610cd68288888888611605565b610ce382888888886116a7565b610cf082888888886116b4565b5095945050505050565b60008181526001602090815260408083208151928301909152546001600160401b0316908190525b6001600160401b031692915050565b60006107de60045490565b60408051600080516020613618833981519152602082015290810186905260ff851660608201526000908190610d78906108899060800161086e565b9050610d95878288604051806020016040528060008152506116e3565b979650505050505050565b60006107ee82611706565b600080339050610dcc848285604051806020016040528060008152506116e3565b949350505050565b600080339050610d9587828888888080601f0160208091040260200160405190810160405280939291908181526020018383808284376000920191909152508a9250611374915050565b610e266107d4565b6001600160a01b0316336001600160a01b031614610e565760405162461bcd60e51b815260040161091d906130ca565b30610e5f6107d4565b6001600160a01b031614610ea15760008036604051610e7f9291906130ba565b604051809103902090505b80610e9560026114d6565b14610e9f57610e8a565b505b61097a81611850565b600080339050610ef286828787878080601f0160208091040260200160405190810160405280939291908181526020018383808284376000920191909152506116e392505050565b9695505050505050565b6000610f0a85858585611890565b95945050505050565b6000610f20848484611b2d565b90505b9392505050565b610f326107d4565b6001600160a01b0316336001600160a01b031614610f625760405162461bcd60e51b815260040161091d906130ca565b30610f6b6107d4565b6001600160a01b031614610fad5760008036604051610f8b9291906130ba565b604051809103902090505b80610fa160026114d6565b14610fab57610f96565b505b61097a81611bc3565b6009546000828152600a602052604080822054905163d45c443560e01b81526004810191909152909182916001600160a01b039091169063d45c443590602401602060405180830381865afa158015611013573d6000803e3d6000fd5b505050506040513d601f19601f820116820180604052508101906110379190613178565b9050806001146110475780610f23565b60009392505050565b60006107de60065490565b60008181526001602081815260408084208151928301909152909101546001600160401b031690819052610d22565b6110926107d4565b6001600160a01b0316336001600160a01b0316146110c25760405162461bcd60e51b815260040161091d906130ca565b306110cb6107d4565b6001600160a01b03161461110d57600080366040516110eb9291906130ba565b604051809103902090505b8061110160026114d6565b1461110b576110f6565b505b61114f8483838080601f016020809104026020016040519081016040528093929190818152602001838380828437600092019190915250889250611c2c915050565b5050505050565b60008484848460405160200161116f949392919061333c565b60408051601f19818403018152919052805160209091012095945050505050565b6009546001600160a01b031690565b6111a76107d4565b6001600160a01b0316336001600160a01b0316146111d75760405162461bcd60e51b815260040161091d906130ca565b306111e06107d4565b6001600160a01b03161461122257600080366040516112009291906130ba565b604051809103902090505b8061121660026114d6565b146112205761120b565b505b61097a81611c52565b6000610f23838361124760408051602081019091526000815290565b611b2d565b6112546107d4565b6001600160a01b0316336001600160a01b0316146112845760405162461bcd60e51b815260040161091d906130ca565b3061128d6107d4565b6001600160a01b0316146112cf57600080366040516112ad9291906130ba565b604051809103902090505b806112c360026114d6565b146112cd576112b8565b505b61097a81611cf2565b60006107ee82611d32565b60006001600160e01b03198216636e665ced60e01b14806107ee57506107ee82611dd6565b60006107ee611315611e41565b8360405161190160f01b6020820152602281018390526042810182905260009060620160405160208183030381529060405280519060200120905092915050565b600080600061136787878787611f68565b91509150610cf08161204b565b600085815260016020819052604082209061138e88610da0565b600781111561139f5761139f612cb1565b146113f85760405162461bcd60e51b815260206004820152602360248201527f476f7665726e6f723a20766f7465206e6f742063757272656e746c792061637460448201526269766560e81b606482015260840161091d565b604080516020810190915281546001600160401b03169081905260009061142190889086611b2d565b90506114308888888488612201565b835161148257866001600160a01b03167fb8e138887d0aa13bab447e82de9d5c1777041ecd21ca36ba824ff1e6c07ddda4898884896040516114759493929190613387565b60405180910390a2610d95565b866001600160a01b03167fe2babfbac5889a709b63bb7f598b324e08bc5a4fb9ec647fb3cbc9ec07eb871289888489896040516114c39594939291906133af565b60405180910390a2979650505050505050565b60006114e182612380565b156114ff57604051631ed9509560e11b815260040160405180910390fd5b508054600f0b6000818152600180840160205260408220805492905583546001600160801b03191692016001600160801b03169190911790915590565b60648111156115bf5760405162461bcd60e51b815260206004820152604360248201527f476f7665726e6f72566f74657351756f72756d4672616374696f6e3a2071756f60448201527f72756d4e756d657261746f72206f7665722071756f72756d44656e6f6d696e616064820152623a37b960e91b608482015260a40161091d565b60088054908290556040517f0553476bf02ef2726e8ce5ced78d63e26e602e4a2257b1f559418e24b4633997906115f9908390859061332e565b60405180910390a15050565b3061160e6107d4565b6001600160a01b03161461114f5760005b845181101561169f57306001600160a01b0316858281518110611644576116446133f5565b60200260200101516001600160a01b0316141561168f5761168f838281518110611670576116706133f5565b602002602001015180519060200120600261239590919063ffffffff16565b6116988161340b565b905061161f565b505050505050565b61114f85858585856123d1565b306116bd6107d4565b6001600160a01b03161461114f576116d56002612380565b61114f57600060025561114f565b6000610f0a8585858561170160408051602081019091526000815290565b611374565b60008061171283612445565b9050600481600781111561172857611728612cb1565b146117335792915050565b6000838152600a60205260409020548061174e575092915050565b600954604051632ab0f52960e01b8152600481018390526001600160a01b0390911690632ab0f52990602401602060405180830381865afa158015611797573d6000803e3d6000fd5b505050506040513d601f19601f820116820180604052508101906117bb9190613426565b156117ca575060079392505050565b600954604051632c258a9f60e11b8152600481018390526001600160a01b039091169063584b153e90602401602060405180830381865afa158015611813573d6000803e3d6000fd5b505050506040513d601f19601f820116820180604052508101906118379190613426565b15611846575060059392505050565b5060029392505050565b7fc565b045403dc03c2eea82b81a0465edad9e2e7fc4d97e11421c209da93d7a936004548260405161188392919061332e565b60405180910390a1600455565b600061189a611050565b6118a93361072f600143613448565b10156119115760405162461bcd60e51b815260206004820152603160248201527f476f7665726e6f723a2070726f706f73657220766f7465732062656c6f7720706044820152701c9bdc1bdcd85b081d1a1c995cda1bdb19607a1b606482015260840161091d565b60006119268686868680519060200120611156565b905084518651146119495760405162461bcd60e51b815260040161091d9061345f565b835186511461196a5760405162461bcd60e51b815260040161091d9061345f565b60008651116119b65760405162461bcd60e51b815260206004820152601860248201527711dbdd995c9b9bdc8e88195b5c1d1e481c1c9bdc1bdcd85b60421b604482015260640161091d565b600081815260016020908152604091829020825191820190925281546001600160401b03169081905215611a365760405162461bcd60e51b815260206004820152602160248201527f476f7665726e6f723a2070726f706f73616c20616c72656164792065786973746044820152607360f81b606482015260840161091d565b6000611a48611a43610d31565b612551565b611a5143612551565b611a5b91906134a0565b90506000611a6a611a436107f4565b611a7490836134a0565b9050611a8083836125bd565b611a8d60018401826125bd565b7f7d84a6263ae0d98d3329bd7b46bb4e8d6f98cd35a7adb45c274c8b7fd5ebd5e084338b8b8d516001600160401b03811115611acb57611acb6127f8565b604051908082528060200260200182016040528015611afe57816020015b6060815260200190600190039081611ae95790505b508c88888e604051611b18999897969594939291906134cb565b60405180910390a15091979650505050505050565b604051630748d63560e31b81526001600160a01b038481166004830152602482018490526000917f000000000000000000000000000000000000000000000000000000000000000090911690633a46b1a890604401602060405180830381865afa158015611b9f573d6000803e3d6000fd5b505050506040513d601f19601f82011682018060405250810190610f209190613178565b600954604080516001600160a01b03928316815291831660208301527f08f74ea46ef7894f65eabfb5e6e695de773a000b47c529ab559178069b226401910160405180910390a1600980546001600160a01b0319166001600160a01b0392909216919091179055565b6060610f20848484604051806060016040528060298152602001613658602991396125da565b60008111611cb25760405162461bcd60e51b815260206004820152602760248201527f476f7665726e6f7253657474696e67733a20766f74696e6720706572696f6420604482015266746f6f206c6f7760c81b606482015260840161091d565b7f7e3f7f0708a84de9203036abaa450dccc85ad5ff52f78c170f3edb55cf5e882860055482604051611ce592919061332e565b60405180910390a1600555565b7fccb45da8d5717e6c4544694297c4ba5cf151d455c9bb0ed4fc7a38411bc0546160065482604051611d2592919061332e565b60405180910390a1600655565b60006064600854604051632394e7a360e21b8152600481018590527f00000000000000000000000000000000000000000000000000000000000000006001600160a01b031690638e539e8c90602401602060405180830381865afa158015611d9e573d6000803e3d6000fd5b505050506040513d601f19601f82011682018060405250810190611dc29190613178565b611dcc91906135ba565b6107ee91906135d9565b60006001600160e01b0319821663bf26d89760e01b1480611e0757506001600160e01b031982166379dd796f60e01b145b80611e2257506001600160e01b03198216630271189760e51b145b806107ee57506301ffc9a760e01b6001600160e01b03198316146107ee565b6000306001600160a01b037f000000000000000000000000000000000000000000000000000000000000000016148015611e9a57507f000000000000000000000000000000000000000000000000000000000000000046145b15611ec457507f000000000000000000000000000000000000000000000000000000000000000090565b50604080517f00000000000000000000000000000000000000000000000000000000000000006020808301919091527f0000000000000000000000000000000000000000000000000000000000000000828401527f000000000000000000000000000000000000000000000000000000000000000060608301524660808301523060a0808401919091528351808403909101815260c0909201909252805191012090565b6000806fa2a8918ca85bafe22016d0b997e4df60600160ff1b03831115611f955750600090506003612042565b8460ff16601b14158015611fad57508460ff16601c14155b15611fbe5750600090506004612042565b6040805160008082526020820180845289905260ff881692820192909252606081018690526080810185905260019060a0016020604051602081039080840390855afa158015612012573d6000803e3d6000fd5b5050604051601f1901519150506001600160a01b03811661203b57600060019250925050612042565b9150600090505b94509492505050565b600081600481111561205f5761205f612cb1565b14156120685750565b600181600481111561207c5761207c612cb1565b14156120c55760405162461bcd60e51b815260206004820152601860248201527745434453413a20696e76616c6964207369676e617475726560401b604482015260640161091d565b60028160048111156120d9576120d9612cb1565b14156121275760405162461bcd60e51b815260206004820152601f60248201527f45434453413a20696e76616c6964207369676e6174757265206c656e67746800604482015260640161091d565b600381600481111561213b5761213b612cb1565b14156121945760405162461bcd60e51b815260206004820152602260248201527f45434453413a20696e76616c6964207369676e6174757265202773272076616c604482015261756560f01b606482015260840161091d565b60048160048111156121a8576121a8612cb1565b141561097a5760405162461bcd60e51b815260206004820152602260248201527f45434453413a20696e76616c6964207369676e6174757265202776272076616c604482015261756560f01b606482015260840161091d565b60008581526007602090815260408083206001600160a01b0388168452600381019092529091205460ff16156122895760405162461bcd60e51b815260206004820152602760248201527f476f7665726e6f72566f74696e6753696d706c653a20766f746520616c726561604482015266191e4818d85cdd60ca1b606482015260840161091d565b6001600160a01b03851660009081526003820160205260408120805460ff1916600117905560ff168460ff1614156122da57828160000160008282546122cf9190613316565b9091555061169f9050565b60ff8416600114156122fa57828160010160008282546122cf9190613316565b60ff84166002141561231a57828160020160008282546122cf9190613316565b60405162461bcd60e51b815260206004820152603560248201527f476f7665726e6f72566f74696e6753696d706c653a20696e76616c69642076616044820152746c756520666f7220656e756d20566f74655479706560581b606482015260840161091d565b54600f81810b600160801b909204900b131590565b8154600160801b90819004600f0b6000818152600180860160205260409091209390935583546001600160801b03908116939091011602179055565b60095460405163e38335e560e01b81526001600160a01b039091169063e38335e590349061240c90889088908890600090899060040161325a565b6000604051808303818588803b15801561242557600080fd5b505af1158015612439573d6000803e3d6000fd5b50505050505050505050565b6000818152600160205260408120600281015460ff16156124695750600792915050565b6002810154610100900460ff16156124845750600292915050565b600061248f84610cfa565b9050806124de5760405162461bcd60e51b815260206004820152601d60248201527f476f7665726e6f723a20756e6b6e6f776e2070726f706f73616c206964000000604482015260640161091d565b4381106124ef575060009392505050565b60006124fa8561105b565b905043811061250e57506001949350505050565b61251785612700565b8015612536575060008581526007602052604090208054600190910154115b1561254657506004949350505050565b506003949350505050565b60006001600160401b038211156125b95760405162461bcd60e51b815260206004820152602660248201527f53616665436173743a2076616c756520646f65736e27742066697420696e203660448201526534206269747360d01b606482015260840161091d565b5090565b81546001600160401b0319166001600160401b0391909116179055565b60608247101561263b5760405162461bcd60e51b815260206004820152602660248201527f416464726573733a20696e73756666696369656e742062616c616e636520666f6044820152651c8818d85b1b60d21b606482015260840161091d565b6001600160a01b0385163b6126925760405162461bcd60e51b815260206004820152601d60248201527f416464726573733a2063616c6c20746f206e6f6e2d636f6e7472616374000000604482015260640161091d565b600080866001600160a01b031685876040516126ae91906135fb565b60006040518083038185875af1925050503d80600081146126eb576040519150601f19603f3d011682016040523d82523d6000602084013e6126f0565b606091505b5091509150610d95828286612737565b6000818152600760205260408120600281015460018201546127229190613316565b61272e61079b85610cfa565b11159392505050565b60608315612746575081610f23565b8251156127565782518084602001fd5b8160405162461bcd60e51b815260040161091d91906129d0565b60006020828403121561278257600080fd5b81356001600160e01b031981168114610f2357600080fd5b803560ff811681146127ab57600080fd5b919050565b60008083601f8401126127c257600080fd5b5081356001600160401b038111156127d957600080fd5b6020830191508360208285010111156127f157600080fd5b9250929050565b634e487b7160e01b600052604160045260246000fd5b604051601f8201601f191681016001600160401b0381118282101715612836576128366127f8565b604052919050565b60006001600160401b03831115612857576128576127f8565b61286a601f8401601f191660200161280e565b905082815283838301111561287e57600080fd5b828260208301376000602084830101529392505050565b600082601f8301126128a657600080fd5b610f238383356020850161283e565b60008060008060008060008060e0898b0312156128d157600080fd5b883597506128e160208a0161279a565b965060408901356001600160401b03808211156128fd57600080fd5b6129098c838d016127b0565b909850965060608b013591508082111561292257600080fd5b5061292f8b828c01612895565b94505061293e60808a0161279a565b925060a0890135915060c089013590509295985092959890939650565b60006020828403121561296d57600080fd5b5035919050565b60005b8381101561298f578181015183820152602001612977565b8381111561299e576000848401525b50505050565b600081518084526129bc816020860160208601612974565b601f01601f19169290920160200192915050565b602081526000610f2360208301846129a4565b6001600160a01b038116811461097a57600080fd5b60008060008060808587031215612a0e57600080fd5b8435612a19816129e3565b93506020850135612a29816129e3565b92506040850135915060608501356001600160401b03811115612a4b57600080fd5b612a5787828801612895565b91505092959194509250565b60006001600160401b03821115612a7c57612a7c6127f8565b5060051b60200190565b600082601f830112612a9757600080fd5b81356020612aac612aa783612a63565b61280e565b82815260059290921b84018101918181019086841115612acb57600080fd5b8286015b84811015612aef578035612ae2816129e3565b8352918301918301612acf565b509695505050505050565b600082601f830112612b0b57600080fd5b81356020612b1b612aa783612a63565b82815260059290921b84018101918181019086841115612b3a57600080fd5b8286015b84811015612aef5780358352918301918301612b3e565b600082601f830112612b6657600080fd5b81356020612b76612aa783612a63565b82815260059290921b84018101918181019086841115612b9557600080fd5b8286015b84811015612aef5780356001600160401b03811115612bb85760008081fd5b612bc68986838b0101612895565b845250918301918301612b99565b60008060008060808587031215612bea57600080fd5b84356001600160401b0380821115612c0157600080fd5b612c0d88838901612a86565b95506020870135915080821115612c2357600080fd5b612c2f88838901612afa565b94506040870135915080821115612c4557600080fd5b50612c5287828801612b55565b949793965093946060013593505050565b600080600080600060a08688031215612c7b57600080fd5b85359450612c8b6020870161279a565b9350612c996040870161279a565b94979396509394606081013594506080013592915050565b634e487b7160e01b600052602160045260246000fd5b6020810160088310612ce957634e487b7160e01b600052602160045260246000fd5b91905290565b60008060408385031215612d0257600080fd5b823591506020830135612d14816129e3565b809150509250929050565b60008060408385031215612d3257600080fd5b82359150612d426020840161279a565b90509250929050565b600080600080600060808688031215612d6357600080fd5b85359450612d736020870161279a565b935060408601356001600160401b0380821115612d8f57600080fd5b612d9b89838a016127b0565b90955093506060880135915080821115612db457600080fd5b50612dc188828901612895565b9150509295509295909350565b60008060008060608587031215612de457600080fd5b84359350612df46020860161279a565b925060408501356001600160401b03811115612e0f57600080fd5b612e1b878288016127b0565b95989497509550505050565b60008060008060808587031215612e3d57600080fd5b84356001600160401b0380821115612e5457600080fd5b612e6088838901612a86565b95506020870135915080821115612e7657600080fd5b612e8288838901612afa565b94506040870135915080821115612e9857600080fd5b612ea488838901612b55565b93506060870135915080821115612eba57600080fd5b508501601f81018713612ecc57600080fd5b612a578782356020840161283e565b600080600060608486031215612ef057600080fd5b8335612efb816129e3565b92506020840135915060408401356001600160401b03811115612f1d57600080fd5b612f2986828701612895565b9150509250925092565b600060208284031215612f4557600080fd5b8135610f23816129e3565b600080600080600060a08688031215612f6857600080fd5b8535612f73816129e3565b94506020860135612f83816129e3565b935060408601356001600160401b0380821115612f9f57600080fd5b612fab89838a01612afa565b94506060880135915080821115612fc157600080fd5b612fcd89838a01612afa565b93506080880135915080821115612db457600080fd5b60008060008060608587031215612ff957600080fd5b8435613004816129e3565b93506020850135925060408501356001600160401b03811115612e0f57600080fd5b6000806040838503121561303957600080fd5b8235613044816129e3565b946020939093013593505050565b600080600080600060a0868803121561306a57600080fd5b8535613075816129e3565b94506020860135613085816129e3565b9350604086013592506060860135915060808601356001600160401b038111156130ae57600080fd5b612dc188828901612895565b8183823760009101908152919050565b602080825260189082015277476f7665726e6f723a206f6e6c79476f7665726e616e636560401b604082015260600190565b600181811c9082168061311057607f821691505b6020821081141561313157634e487b7160e01b600052602260045260246000fd5b50919050565b60208082526021908201527f476f7665726e6f723a2070726f706f73616c206e6f74207375636365737366756040820152601b60fa1b606082015260800190565b60006020828403121561318a57600080fd5b5051919050565b600081518084526020808501945080840160005b838110156131ca5781516001600160a01b0316875295820195908201906001016131a5565b509495945050505050565b600081518084526020808501945080840160005b838110156131ca578151875295820195908201906001016131e9565b600081518084526020808501808196508360051b8101915082860160005b8581101561324d57828403895261323b8483516129a4565b98850198935090840190600101613223565b5091979650505050505050565b60a08152600061326d60a0830188613191565b828103602084015261327f81886131d5565b905082810360408401526132938187613205565b60608401959095525050608001529392505050565b60c0815260006132bb60c0830189613191565b82810360208401526132cd81896131d5565b905082810360408401526132e18188613205565b60608401969096525050608081019290925260a0909101529392505050565b634e487b7160e01b600052601160045260246000fd5b6000821982111561332957613329613300565b500190565b918252602082015260400190565b60808152600061334f6080830187613191565b828103602084015261336181876131d5565b905082810360408401526133758186613205565b91505082606083015295945050505050565b84815260ff84166020820152826040820152608060608201526000610ef260808301846129a4565b85815260ff8516602082015283604082015260a0606082015260006133d760a08301856129a4565b82810360808401526133e981856129a4565b98975050505050505050565b634e487b7160e01b600052603260045260246000fd5b600060001982141561341f5761341f613300565b5060010190565b60006020828403121561343857600080fd5b81518015158114610f2357600080fd5b60008282101561345a5761345a613300565b500390565b60208082526021908201527f476f7665726e6f723a20696e76616c69642070726f706f73616c206c656e67746040820152600d60fb1b606082015260800190565b60006001600160401b038281168482168083038211156134c2576134c2613300565b01949350505050565b60006101208b8352602060018060a01b038c16818501528160408501526134f48285018c613191565b91508382036060850152613508828b6131d5565b915083820360808501528189518084528284019150828160051b850101838c0160005b8381101561355957601f198784030185526135478383516129a4565b9486019492509085019060010161352b565b505086810360a088015261356d818c613205565b94505050505061358860c08401876001600160401b03169052565b6001600160401b03851660e08401528281036101008401526135aa81856129a4565b9c9b505050505050505050505050565b60008160001904831182151516156135d4576135d4613300565b500290565b6000826135f657634e487b7160e01b600052601260045260246000fd5b500490565b6000825161360d818460208701612974565b919091019291505056fe150214d74d59b7d1e90c73fc22ef3d991dd0a76b046543d4d80ab92d2a50328fb3b3f3b703cd84ce352197dcff232b1b5d3cfb2025ce47cf04742d0651f1af88416464726573733a206c6f772d6c6576656c2063616c6c20776974682076616c7565206661696c6564a2646970667358221220787485a2b89b801f1249354923a762316569bec09f1a5bebbf4872dc51a51f2864736f6c634300080b0033",
  "immutableReferences": {
    "3774": [
      {
        "length": 32,
        "start": 1970
      },
      {
        "length": 32,
        "start": 6998
      },
      {
        "length": 32,
        "start": 7503
      }
    ],
    "8356": [
      {
        "length": 32,
        "start": 7842
      }
    ],
    "8358": [
      {
        "length": 32,
        "start": 7800
      }
    ],
    "8360": [
      {
        "length": 32,
        "start": 7758
      }
    ],
    "8362": [
      {
        "length": 32,
        "start": 7925
      }
    ],
    "8364": [
      {
        "length": 32,
        "start": 7962
      }
    ],
    "8366": [
      {
        "length": 32,
        "start": 7883
      }
    ]
  },
  "source": "// SPDX-License-Identifier: MIT\r\npragma solidity ^0.8.4;\r\n\r\nimport \"@openzeppelin/contracts/governance/Governor.sol\";\r\nimport \"@openzeppelin/contracts/governance/extensions/GovernorSettings.sol\";\r\nimport \"@openzeppelin/contracts/governance/extensions/GovernorCountingSimple.sol\";\r\nimport \"@openzeppelin/contracts/governance/extensions/GovernorVotes.sol\";\r\nimport \"@openzeppelin/contracts/governance/extensions/GovernorVotesQuorumFraction.sol\";\r\nimport \"@openzeppelin/contracts/governance/extensions/GovernorTimelockControl.sol\";\r\n\r\ncontract PicardyGovernor is Governor, GovernorSettings, GovernorCountingSimple, GovernorVotes, GovernorVotesQuorumFraction, GovernorTimelockControl {\r\n    constructor(IVotes _token, TimelockController _timelock)\r\n        Governor(\"PicardyGovernor\")\r\n        GovernorSettings(1 /* 1 block */, 45818 /* 1 week */, 0)\r\n        GovernorVotes(_token)\r\n        GovernorVotesQuorumFraction(4)\r\n        GovernorTimelockControl(_timelock)\r\n    {}\r\n\r\n    // The following functions are overrides required by Solidity.\r\n\r\n    function votingDelay()\r\n        public\r\n        view\r\n        override(IGovernor, GovernorSettings)\r\n        returns (uint256)\r\n    {\r\n        return super.votingDelay();\r\n    }\r\n\r\n    function votingPeriod()\r\n        public\r\n        view\r\n        override(IGovernor, GovernorSettings)\r\n        returns (uint256)\r\n    {\r\n        return super.votingPeriod();\r\n    }\r\n\r\n    function quorum(uint256 blockNumber)\r\n        public\r\n        view\r\n        override(IGovernor, GovernorVotesQuorumFraction)\r\n        returns (uint256)\r\n    {\r\n        return super.quorum(blockNumber);\r\n    }\r\n\r\n    function state(uint256 proposalId)\r\n        public\r\n        view\r\n        override(Governor, GovernorTimelockControl)\r\n        returns (ProposalState)\r\n    {\r\n        return super.state(proposalId);\r\n    }\r\n\r\n    function propose(address[] memory targets, uint256[] memory values, bytes[] memory calldatas, string memory description)\r\n        public\r\n        override(Governor, IGovernor)\r\n        returns (uint256)\r\n    {\r\n        return super.propose(targets, values, calldatas, description);\r\n    }\r\n\r\n    function proposalThreshold()\r\n        public\r\n        view\r\n        override(Governor, GovernorSettings)\r\n        returns (uint256)\r\n    {\r\n        return super.proposalThreshold();\r\n    }\r\n\r\n    function _execute(uint256 proposalId, address[] memory targets, uint256[] memory values, bytes[] memory calldatas, bytes32 descriptionHash)\r\n        internal\r\n        override(Governor, GovernorTimelockControl)\r\n    {\r\n        super._execute(proposalId, targets, values, calldatas, descriptionHash);\r\n    }\r\n\r\n    function _cancel(address[] memory targets, uint256[] memory values, bytes[] memory calldatas, bytes32 descriptionHash)\r\n        internal\r\n        override(Governor, GovernorTimelockControl)\r\n        returns (uint256)\r\n    {\r\n        return super._cancel(targets, values, calldatas, descriptionHash);\r\n    }\r\n\r\n    function _executor()\r\n        internal\r\n        view\r\n        override(Governor, GovernorTimelockControl)\r\n        returns (address)\r\n    {\r\n        return super._executor();\r\n    }\r\n\r\n    function supportsInterface(bytes4 interfaceId)\r\n        public\r\n        view\r\n        override(Governor, GovernorTimelockControl)\r\n        returns (bool)\r\n    {\r\n        return super.supportsInterface(interfaceId);\r\n    }\r\n}",
  "sourcePath": "C:\\Users\\USER\\Desktop\\Picardy_Protocol\\contracts\\Governance\\GovonorControl.sol",
  "compiler": {
    "name": "solc",
    "version": "0.8.11+commit.d7f03943.Emscripten.clang"
  },
  "schemaVersion": "3.4.6",
  "updatedAt": "2022-05-28T00:04:42.524Z",
  "networkType": "ethereum",
  "devdoc": {
    "errors": {
      "Empty()": [
        {
          "details": "An operation (e.g. {front}) couldn't be completed due to the queue being empty."
        }
      ]
    },
    "kind": "dev",
    "methods": {
      "COUNTING_MODE()": {
        "details": "See {IGovernor-COUNTING_MODE}."
      },
      "castVote(uint256,uint8)": {
        "details": "See {IGovernor-castVote}."
      },
      "castVoteBySig(uint256,uint8,uint8,bytes32,bytes32)": {
        "details": "See {IGovernor-castVoteBySig}."
      },
      "castVoteWithReason(uint256,uint8,string)": {
        "details": "See {IGovernor-castVoteWithReason}."
      },
      "castVoteWithReasonAndParams(uint256,uint8,string,bytes)": {
        "details": "See {IGovernor-castVoteWithReasonAndParams}."
      },
      "castVoteWithReasonAndParamsBySig(uint256,uint8,string,bytes,uint8,bytes32,bytes32)": {
        "details": "See {IGovernor-castVoteWithReasonAndParamsBySig}."
      },
      "execute(address[],uint256[],bytes[],bytes32)": {
        "details": "See {IGovernor-execute}."
      },
      "getVotes(address,uint256)": {
        "details": "See {IGovernor-getVotes}."
      },
      "getVotesWithParams(address,uint256,bytes)": {
        "details": "See {IGovernor-getVotesWithParams}."
      },
      "hasVoted(uint256,address)": {
        "details": "See {IGovernor-hasVoted}."
      },
      "hashProposal(address[],uint256[],bytes[],bytes32)": {
        "details": "See {IGovernor-hashProposal}. The proposal id is produced by hashing the RLC encoded `targets` array, the `values` array, the `calldatas` array and the descriptionHash (bytes32 which itself is the keccak256 hash of the description string). This proposal id can be produced from the proposal data which is part of the {ProposalCreated} event. It can even be computed in advance, before the proposal is submitted. Note that the chainId and the governor address are not part of the proposal id computation. Consequently, the same proposal (with same operation and same description) will have the same id if submitted on multiple governors across multiple networks. This also means that in order to execute the same operation twice (on the same governor) the proposer will have to change the description in order to avoid proposal id conflicts."
      },
      "name()": {
        "details": "See {IGovernor-name}."
      },
      "onERC1155BatchReceived(address,address,uint256[],uint256[],bytes)": {
        "details": "See {IERC1155Receiver-onERC1155BatchReceived}."
      },
      "onERC1155Received(address,address,uint256,uint256,bytes)": {
        "details": "See {IERC1155Receiver-onERC1155Received}."
      },
      "onERC721Received(address,address,uint256,bytes)": {
        "details": "See {IERC721Receiver-onERC721Received}."
      },
      "proposalDeadline(uint256)": {
        "details": "See {IGovernor-proposalDeadline}."
      },
      "proposalEta(uint256)": {
        "details": "Public accessor to check the eta of a queued proposal"
      },
      "proposalSnapshot(uint256)": {
        "details": "See {IGovernor-proposalSnapshot}."
      },
      "proposalVotes(uint256)": {
        "details": "Accessor to the internal vote counts."
      },
      "queue(address[],uint256[],bytes[],bytes32)": {
        "details": "Function to queue a proposal to the timelock."
      },
      "quorumDenominator()": {
        "details": "Returns the quorum denominator. Defaults to 100, but may be overridden."
      },
      "quorumNumerator()": {
        "details": "Returns the current quorum numerator. See {quorumDenominator}."
      },
      "relay(address,uint256,bytes)": {
        "details": "Relays a transaction or function call to an arbitrary target. In cases where the governance executor is some contract other than the governor itself, like when using a timelock, this function can be invoked in a governance proposal to recover tokens or Ether that was sent to the governor contract by mistake. Note that if the executor is simply the governor itself, use of `relay` is redundant."
      },
      "setProposalThreshold(uint256)": {
        "details": "Update the proposal threshold. This operation can only be performed through a governance proposal. Emits a {ProposalThresholdSet} event."
      },
      "setVotingDelay(uint256)": {
        "details": "Update the voting delay. This operation can only be performed through a governance proposal. Emits a {VotingDelaySet} event."
      },
      "setVotingPeriod(uint256)": {
        "details": "Update the voting period. This operation can only be performed through a governance proposal. Emits a {VotingPeriodSet} event."
      },
      "timelock()": {
        "details": "Public accessor to check the address of the timelock"
      },
      "updateQuorumNumerator(uint256)": {
        "details": "Changes the quorum numerator. Emits a {QuorumNumeratorUpdated} event. Requirements: - Must be called through a governance proposal. - New numerator must be smaller or equal to the denominator."
      },
      "updateTimelock(address)": {
        "details": "Public endpoint to update the underlying timelock instance. Restricted to the timelock itself, so updates must be proposed, scheduled, and executed through governance proposals. CAUTION: It is not recommended to change the timelock while there are other queued governance proposals."
      },
      "version()": {
        "details": "See {IGovernor-version}."
      }
    },
    "version": 1
  },
  "userdoc": {
    "kind": "user",
    "methods": {},
    "version": 1
  }
}