{
  "contractName": "PicardyHub",
  "abi": [
    {
      "inputs": [
        {
          "internalType": "address",
          "name": "_picardyToken",
          "type": "address"
        }
      ],
      "stateMutability": "nonpayable",
      "type": "constructor"
    },
    {
      "anonymous": false,
      "inputs": [
        {
          "indexed": true,
          "internalType": "address",
          "name": "tokenAddress",
          "type": "address"
        },
        {
          "indexed": true,
          "internalType": "address",
          "name": "creator",
          "type": "address"
        },
        {
          "indexed": true,
          "internalType": "uint256",
          "name": "time",
          "type": "uint256"
        }
      ],
      "name": "NewArtisteToken",
      "type": "event"
    },
    {
      "anonymous": false,
      "inputs": [
        {
          "indexed": true,
          "internalType": "uint256",
          "name": "profileId",
          "type": "uint256"
        },
        {
          "indexed": true,
          "internalType": "uint256",
          "name": "time",
          "type": "uint256"
        }
      ],
      "name": "NewProfileCreated",
      "type": "event"
    },
    {
      "anonymous": false,
      "inputs": [
        {
          "indexed": true,
          "internalType": "address",
          "name": "previousOwner",
          "type": "address"
        },
        {
          "indexed": true,
          "internalType": "address",
          "name": "newOwner",
          "type": "address"
        }
      ],
      "name": "OwnershipTransferred",
      "type": "event"
    },
    {
      "inputs": [],
      "name": "owner",
      "outputs": [
        {
          "internalType": "address",
          "name": "",
          "type": "address"
        }
      ],
      "stateMutability": "view",
      "type": "function",
      "constant": true
    },
    {
      "inputs": [],
      "name": "renounceOwnership",
      "outputs": [],
      "stateMutability": "nonpayable",
      "type": "function"
    },
    {
      "inputs": [
        {
          "internalType": "address",
          "name": "newOwner",
          "type": "address"
        }
      ],
      "name": "transferOwnership",
      "outputs": [],
      "stateMutability": "nonpayable",
      "type": "function"
    },
    {
      "inputs": [
        {
          "internalType": "string",
          "name": "_name",
          "type": "string"
        },
        {
          "internalType": "string",
          "name": "_handle",
          "type": "string"
        }
      ],
      "name": "createProfile",
      "outputs": [],
      "stateMutability": "nonpayable",
      "type": "function"
    },
    {
      "inputs": [
        {
          "internalType": "uint256",
          "name": "_profileId",
          "type": "uint256"
        }
      ],
      "name": "checkIsCreator",
      "outputs": [
        {
          "internalType": "bool",
          "name": "",
          "type": "bool"
        }
      ],
      "stateMutability": "view",
      "type": "function",
      "constant": true
    },
    {
      "inputs": [
        {
          "internalType": "uint256",
          "name": "_profileId",
          "type": "uint256"
        }
      ],
      "name": "getProfileAddress",
      "outputs": [
        {
          "internalType": "address",
          "name": "",
          "type": "address"
        }
      ],
      "stateMutability": "view",
      "type": "function",
      "constant": true
    },
    {
      "inputs": [
        {
          "internalType": "uint256",
          "name": "_profileId",
          "type": "uint256"
        }
      ],
      "name": "getProfileName",
      "outputs": [
        {
          "internalType": "string",
          "name": "",
          "type": "string"
        }
      ],
      "stateMutability": "view",
      "type": "function",
      "constant": true
    },
    {
      "inputs": [
        {
          "internalType": "address",
          "name": "_vaultToken",
          "type": "address"
        }
      ],
      "name": "createVault",
      "outputs": [],
      "stateMutability": "nonpayable",
      "type": "function"
    }
  ],
  "bytecode": "0x60a060405234801561001057600080fd5b5060405161470438038061470483398101604081905261002f91610099565b61003833610049565b6001600160a01b03166080526100c9565b600080546001600160a01b038381166001600160a01b0319831681178455604051919092169283917f8be0079c531659141344cd1fd0a4f28419497f9722a3daafe3b4186f6b6457e09190a35050565b6000602082840312156100ab57600080fd5b81516001600160a01b03811681146100c257600080fd5b9392505050565b6080516146236100e1600039600050506146236000f3fe60806040523480156200001157600080fd5b5060043610620000825760003560e01c80633bf03cbc1462000087578063715018a614620000b65780638da5cb5b14620000c2578063b4bd6f4614620000db578063ba1feb8a14620000f2578063db8ce08c1462000109578063f2fde38b1462000139578063f58c66781462000150575b600080fd5b6200009e62000098366004620008c5565b62000178565b604051620000ad91906200093c565b60405180910390f35b620000c062000227565b005b620000cc62000272565b604051620000ad919062000958565b620000c0620000ec3660046200096c565b62000281565b620000c06200010336600462000a41565b620003c2565b620000cc6200011a366004620008c5565b600090815260046020819052604090912001546001600160a01b031690565b620000c06200014a3660046200096c565b6200048b565b6200016762000161366004620008c5565b62000534565b6040519015158152602001620000ad565b6000818152600460205260408120600101805460609291906200019b9062000aab565b80601f0160208091040260200160405190810160405280929190818152602001828054620001c99062000aab565b80156200021a5780601f10620001ee576101008083540402835291602001916200021a565b820191906000526020600020905b815481529060010190602001808311620001fc57829003601f168201915b5093979650505050505050565b336200023262000272565b6001600160a01b031614620002645760405162461bcd60e51b81526004016200025b9062000ae8565b60405180910390fd5b620002706000620005ab565b565b6000546001600160a01b031690565b336200028c62000272565b6001600160a01b031614620002b55760405162461bcd60e51b81526004016200025b9062000ae8565b600854600090620002c890600162000b33565b9050600082604051620002db9062000803565b620002e7919062000958565b604051809103906000f08015801562000304573d6000803e3d6000fd5b506040805180820182528481526001600160a01b03928316602080830191825260088054600181810183556000928352855160029092027ff3f7a9fe364faab93b216da50a3214154f22a0a2b415b23a84c8169e8b636ee381019290925584517ff3f7a9fe364faab93b216da50a3214154f22a0a2b415b23a84c8169e8b636ee490920180549289166001600160a01b0319938416179055988252600690925293909320915182555194018054949092169316929092179091555050565b3360009081526003602052604090205460ff1615620004155760405162461bcd60e51b815260206004820152600e60248201526d50726f66696c652045786973747360901b60448201526064016200025b565b60058160405162000427919062000b4e565b9081526040519081900360200190205460ff1615620004795760405162461bcd60e51b815260206004820152600d60248201526c48616e646c652045786973747360981b60448201526064016200025b565b620004858282620005fb565b50505050565b336200049662000272565b6001600160a01b031614620004bf5760405162461bcd60e51b81526004016200025b9062000ae8565b6001600160a01b038116620005265760405162461bcd60e51b815260206004820152602660248201527f4f776e61626c653a206e6577206f776e657220697320746865207a65726f206160448201526564647265737360d01b60648201526084016200025b565b6200053181620005ab565b50565b6000805b600254811015620005a25782600282815481106200055a576200055a62000b6c565b906000526020600020015414156200058d5760008381526007602052604090205460ff1615156001146200058d57600080fd5b80620005998162000b82565b91505062000538565b50600192915050565b600080546001600160a01b038381166001600160a01b0319831681178455604051919092169283917f8be0079c531659141344cd1fd0a4f28419497f9722a3daafe3b4186f6b6457e09190a35050565b6000806000338585604051620006119062000811565b6200061f9392919062000ba0565b604051809103906000f0801580156200063c573d6000803e3d6000fd5b506040805160a0810182523380825260208083018a90528284018990526001805460608501526001600160a01b03861660808501526000928352600390915290839020805460ff1916821790559151929350916005906200069f90889062000b4e565b9081526040805160209281900383019020805460ff1990811694151594909417905560018054600280548084019091557f405787fa12a823e0f2b7631cc41b3ba8828b3321ca811111fa75cd3aa3bb5ace0181905560008181526007855283812080549096168317909555815485526004845291909320845181546001600160a01b0319166001600160a01b03909116178155848301518051929750859491936200075193928501929101906200081f565b50604082015180516200076f9160028401916020909101906200081f565b5060608201516003820155608090910151600490910180546001600160a01b0319166001600160a01b03909216919091179055620007ac620007e3565b50604051429084907fc4123c3f88348b199127bad0acd58b2c53635da2b588cf38cb0115221864f25690600090a350509250929050565b6001805460009182620007f68362000b82565b9190505550600154905090565b611ca28062000be583390190565b611d67806200288783390190565b8280546200082d9062000aab565b90600052602060002090601f0160209004810192826200085157600085556200089c565b82601f106200086c57805160ff19168380011785556200089c565b828001600101855582156200089c579182015b828111156200089c5782518255916020019190600101906200087f565b50620008aa929150620008ae565b5090565b5b80821115620008aa5760008155600101620008af565b600060208284031215620008d857600080fd5b5035919050565b60005b83811015620008fc578181015183820152602001620008e2565b83811115620004855750506000910152565b6000815180845262000928816020860160208601620008df565b601f01601f19169290920160200192915050565b6020815260006200095160208301846200090e565b9392505050565b6001600160a01b0391909116815260200190565b6000602082840312156200097f57600080fd5b81356001600160a01b03811681146200095157600080fd5b634e487b7160e01b600052604160045260246000fd5b600082601f830112620009bf57600080fd5b81356001600160401b0380821115620009dc57620009dc62000997565b604051601f8301601f19908116603f0116810190828211818310171562000a075762000a0762000997565b8160405283815286602085880101111562000a2157600080fd5b836020870160208301376000602085830101528094505050505092915050565b6000806040838503121562000a5557600080fd5b82356001600160401b038082111562000a6d57600080fd5b62000a7b86838701620009ad565b9350602085013591508082111562000a9257600080fd5b5062000aa185828601620009ad565b9150509250929050565b600181811c9082168062000ac057607f821691505b6020821081141562000ae257634e487b7160e01b600052602260045260246000fd5b50919050565b6020808252818101527f4f776e61626c653a2063616c6c6572206973206e6f7420746865206f776e6572604082015260600190565b634e487b7160e01b600052601160045260246000fd5b6000821982111562000b495762000b4962000b1d565b500190565b6000825162000b62818460208701620008df565b9190910192915050565b634e487b7160e01b600052603260045260246000fd5b600060001982141562000b995762000b9962000b1d565b5060010190565b6001600160a01b038416815260606020820181905260009062000bc6908301856200090e565b828103604084015262000bda81856200090e565b969550505050505056fe60a060405234801561001057600080fd5b50604051611ca2380380611ca283398101604081905261002f916100fe565b61003833610053565b6001600160a01b03811660805261004d6100a3565b5061012e565b600080546001600160a01b038381166001600160a01b0319831681178455604051919092169283917f8be0079c531659141344cd1fd0a4f28419497f9722a3daafe3b4186f6b6457e09190a35050565b60006040516100b1906100f1565b604051809103906000f0801580156100cd573d6000803e3d6000fd5b50600380546001600160a01b0319166001600160a01b039290921691909117905550565b610f5f80610d4383390190565b60006020828403121561011057600080fd5b81516001600160a01b038116811461012757600080fd5b9392505050565b608051610bdf6101646000396000818160cf015281816101a9015281816102410152818161044101526108d80152610bdf6000f3fe608060405234801561001057600080fd5b506004361061008d5760003560e01c8062f714ce1461009257806336fb15b4146100a75780634499d14b146100ca5780634bef17bf146100f1578063656a06cf14610107578063715018a61461011a5780638da5cb5b146101225780639bc3d6c01461012a578063dd5d4d6f1461013d578063f2fde38b14610145575b600080fd5b6100a56100a0366004610a14565b610158565b005b6003546001600160a01b03165b6040516100c19190610a40565b60405180910390f35b6100b47f000000000000000000000000000000000000000000000000000000000000000081565b6100f96102f8565b6040519081526020016100c1565b6100a5610115366004610a54565b61040e565b6100a56104ee565b6100b4610529565b6100a5610138366004610a54565b610538565b6100f961055c565b6100a5610153366004610a6d565b6105d3565b33610161610529565b6001600160a01b0316146101905760405162461bcd60e51b815260040161018790610a8f565b60405180910390fd5b6040516370a0823160e01b815282906001600160a01b037f000000000000000000000000000000000000000000000000000000000000000016906370a08231906101de903090600401610a40565b602060405180830381865afa1580156101fb573d6000803e3d6000fd5b505050506040513d601f19601f8201168201806040525081019061021f9190610ac4565b101561022a57600080fd5b6040516323b872dd60e01b81526001600160a01b037f000000000000000000000000000000000000000000000000000000000000000016906323b872dd9061027a90309085908790600401610add565b6020604051808303816000875af1158015610299573d6000803e3d6000fd5b505050506040513d601f19601f820116820180604052508101906102bd9190610b01565b506040516001600160a01b0382169083907f6141b54b56b8a52a8c6f5cd2a857f6117b18ffbf4d46bd3106f300a839cbf5ea90600090a35050565b600080600360009054906101000a90046001600160a01b03166001600160a01b03166318160ddd6040518163ffffffff1660e01b8152600401602060405180830381865afa15801561034e573d6000803e3d6000fd5b505050506040513d601f19601f820116820180604052508101906103729190610ac4565b6003546040516370a0823160e01b81529192506000916001600160a01b03909116906370a08231906103a8903390600401610a40565b602060405180830381865afa1580156103c5573d6000803e3d6000fd5b505050506040513d601f19601f820116820180604052508101906103e99190610ac4565b9050600082600154836103fc9190610b39565b6104069190610b58565b949350505050565b80600160008282546104209190610b7a565b909155505060405163a9059cbb60e01b8152306004820152602481018290527f00000000000000000000000000000000000000000000000000000000000000006001600160a01b03169063a9059cbb906044016020604051808303816000875af1158015610492573d6000803e3d6000fd5b505050506040513d601f19601f820116820180604052508101906104b69190610b01565b506104c081610670565b60405133907fa37192df86fa67271dc1f2281b6305c64e57625c81b4887f7308608979ada21a90600090a250565b336104f7610529565b6001600160a01b03161461051d5760405162461bcd60e51b815260040161018790610a8f565b6105276000610724565b565b6000546001600160a01b031690565b806001600082825461054a9190610b92565b90915550610559905081610774565b50565b6003546040516370a0823160e01b81526000916001600160a01b0316906370a082319061058d903390600401610a40565b602060405180830381865afa1580156105aa573d6000803e3d6000fd5b505050506040513d601f19601f820116820180604052508101906105ce9190610ac4565b905090565b336105dc610529565b6001600160a01b0316146106025760405162461bcd60e51b815260040161018790610a8f565b6001600160a01b0381166106675760405162461bcd60e51b815260206004820152602660248201527f4f776e61626c653a206e6577206f776e657220697320746865207a65726f206160448201526564647265737360d01b6064820152608401610187565b61055981610724565b600080600360009054906101000a90046001600160a01b03166001600160a01b03166318160ddd6040518163ffffffff1660e01b8152600401602060405180830381865afa1580156106c6573d6000803e3d6000fd5b505050506040513d601f19601f820116820180604052508101906106ea9190610ac4565b905080610702578291506106fd8261095a565b505050565b60015461070f8285610b39565b6107199190610b58565b91506106fd8261095a565b600080546001600160a01b038381166001600160a01b0319831681178455604051919092169283917f8be0079c531659141344cd1fd0a4f28419497f9722a3daafe3b4186f6b6457e09190a35050565b600354604080516318160ddd60e01b815290516000926001600160a01b0316916318160ddd9160048083019260209291908290030181865afa1580156107be573d6000803e3d6000fd5b505050506040513d601f19601f820116820180604052508101906107e29190610ac4565b6003546040516370a0823160e01b815291925083916001600160a01b03909116906370a0823190610817903390600401610a40565b602060405180830381865afa158015610834573d6000803e3d6000fd5b505050506040513d601f19601f820116820180604052508101906108589190610ac4565b101561089b5760405162461bcd60e51b81526020600482015260126024820152712737ba10309039b430b932903437b63232b960711b6044820152606401610187565b600081600154846108ac9190610b39565b6108b69190610b58565b90506108c1836109c5565b6040516323b872dd60e01b81526001600160a01b037f000000000000000000000000000000000000000000000000000000000000000016906323b872dd9061091190309033908690600401610add565b6020604051808303816000875af1158015610930573d6000803e3d6000fd5b505050506040513d601f19601f820116820180604052508101906109549190610b01565b50505050565b6003546040516394bf804d60e01b8152600481018390523360248201526001600160a01b039091169081906394bf804d906044015b600060405180830381600087803b1580156109a957600080fd5b505af11580156109bd573d6000803e3d6000fd5b505050505050565b600354604051630852cd8d60e31b8152600481018390526001600160a01b039091169081906342966c689060240161098f565b80356001600160a01b0381168114610a0f57600080fd5b919050565b60008060408385031215610a2757600080fd5b82359150610a37602084016109f8565b90509250929050565b6001600160a01b0391909116815260200190565b600060208284031215610a6657600080fd5b5035919050565b600060208284031215610a7f57600080fd5b610a88826109f8565b9392505050565b6020808252818101527f4f776e61626c653a2063616c6c6572206973206e6f7420746865206f776e6572604082015260600190565b600060208284031215610ad657600080fd5b5051919050565b6001600160a01b039384168152919092166020820152604081019190915260600190565b600060208284031215610b1357600080fd5b81518015158114610a8857600080fd5b634e487b7160e01b600052601160045260246000fd5b6000816000190483118215151615610b5357610b53610b23565b500290565b600082610b7557634e487b7160e01b600052601260045260246000fd5b500490565b60008219821115610b8d57610b8d610b23565b500190565b600082821015610ba457610ba4610b23565b50039056fea264697066735822122056c97f6e9f837210f46f5701fb508d142883aa41cceac16e272aa7d2d9d3a6d264736f6c634300080b003360806040523480156200001157600080fd5b50604080518082018252601381527f50696361726479205661756c7420546f6b656e00000000000000000000000000602080830191825283518085019094526007845266282b2a37b5b2b760c91b908401528151919291620000769160039162000105565b5080516200008c90600490602084019062000105565b505050620000a9620000a3620000af60201b60201c565b620000b3565b620001e8565b3390565b600580546001600160a01b038381166001600160a01b0319831681179093556040519116919082907f8be0079c531659141344cd1fd0a4f28419497f9722a3daafe3b4186f6b6457e090600090a35050565b8280546200011390620001ab565b90600052602060002090601f01602090048101928262000137576000855562000182565b82601f106200015257805160ff191683800117855562000182565b8280016001018555821562000182579182015b828111156200018257825182559160200191906001019062000165565b506200019092915062000194565b5090565b5b8082111562000190576000815560010162000195565b600181811c90821680620001c057607f821691505b60208210811415620001e257634e487b7160e01b600052602260045260246000fd5b50919050565b610d6780620001f86000396000f3fe608060405234801561001057600080fd5b50600436106100d05760003560e01c806306fdde03146100d5578063095ea7b3146100f357806318160ddd1461011657806323b872dd14610128578063313ce5671461013b578063395093511461014a57806342966c681461015d57806370a0823114610172578063715018a61461019b5780638da5cb5b146101a357806394bf804d146101c357806395d89b41146101d6578063a457c2d7146101de578063a9059cbb146101f1578063dd62ed3e14610204578063f2fde38b14610217575b600080fd5b6100dd61022a565b6040516100ea9190610af4565b60405180910390f35b610106610101366004610b65565b6102bc565b60405190151581526020016100ea565b6002545b6040519081526020016100ea565b610106610136366004610b8f565b6102d4565b604051601281526020016100ea565b610106610158366004610b65565b6102f8565b61017061016b366004610bcb565b61031a565b005b61011a610180366004610be4565b6001600160a01b031660009081526020819052604090205490565b61017061035f565b6101ab61039a565b6040516001600160a01b0390911681526020016100ea565b6101706101d1366004610c06565b6103a9565b6100dd6103e6565b6101066101ec366004610b65565b6103f5565b6101066101ff366004610b65565b610470565b61011a610212366004610c32565b61047e565b610170610225366004610be4565b6104a9565b60606003805461023990610c5c565b80601f016020809104026020016040519081016040528092919081815260200182805461026590610c5c565b80156102b25780601f10610287576101008083540402835291602001916102b2565b820191906000526020600020905b81548152906001019060200180831161029557829003601f168201915b5050505050905090565b6000336102ca818585610546565b5060019392505050565b6000336102e285828561066b565b6102ed8585856106e5565b506001949350505050565b6000336102ca81858561030b838361047e565b6103159190610cad565b610546565b3361032361039a565b6001600160a01b0316146103525760405162461bcd60e51b815260040161034990610cc5565b60405180910390fd5b61035c32826108a1565b50565b3361036861039a565b6001600160a01b03161461038e5760405162461bcd60e51b815260040161034990610cc5565b61039860006109d5565b565b6005546001600160a01b031690565b336103b261039a565b6001600160a01b0316146103d85760405162461bcd60e51b815260040161034990610cc5565b6103e28183610a27565b5050565b60606004805461023990610c5c565b60003381610403828661047e565b9050838110156104635760405162461bcd60e51b815260206004820152602560248201527f45524332303a2064656372656173656420616c6c6f77616e63652062656c6f77604482015264207a65726f60d81b6064820152608401610349565b6102ed8286868403610546565b6000336102ca8185856106e5565b6001600160a01b03918216600090815260016020908152604080832093909416825291909152205490565b336104b261039a565b6001600160a01b0316146104d85760405162461bcd60e51b815260040161034990610cc5565b6001600160a01b03811661053d5760405162461bcd60e51b815260206004820152602660248201527f4f776e61626c653a206e6577206f776e657220697320746865207a65726f206160448201526564647265737360d01b6064820152608401610349565b61035c816109d5565b6001600160a01b0383166105a85760405162461bcd60e51b8152602060048201526024808201527f45524332303a20617070726f76652066726f6d20746865207a65726f206164646044820152637265737360e01b6064820152608401610349565b6001600160a01b0382166106095760405162461bcd60e51b815260206004820152602260248201527f45524332303a20617070726f766520746f20746865207a65726f206164647265604482015261737360f01b6064820152608401610349565b6001600160a01b0383811660008181526001602090815260408083209487168084529482529182902085905590518481527f8c5be1e5ebec7d5bd14f71427d1e84f3dd0314c0f7b2291e5b200ac8c7c3b92591015b60405180910390a3505050565b6000610677848461047e565b905060001981146106df57818110156106d25760405162461bcd60e51b815260206004820152601d60248201527f45524332303a20696e73756666696369656e7420616c6c6f77616e63650000006044820152606401610349565b6106df8484848403610546565b50505050565b6001600160a01b0383166107495760405162461bcd60e51b815260206004820152602560248201527f45524332303a207472616e736665722066726f6d20746865207a65726f206164604482015264647265737360d81b6064820152608401610349565b6001600160a01b0382166107ab5760405162461bcd60e51b815260206004820152602360248201527f45524332303a207472616e7366657220746f20746865207a65726f206164647260448201526265737360e81b6064820152608401610349565b6001600160a01b038316600090815260208190526040902054818110156108235760405162461bcd60e51b815260206004820152602660248201527f45524332303a207472616e7366657220616d6f756e7420657863656564732062604482015265616c616e636560d01b6064820152608401610349565b6001600160a01b0380851660009081526020819052604080822085850390559185168152908120805484929061085a908490610cad565b92505081905550826001600160a01b0316846001600160a01b0316600080516020610d128339815191528460405161089491815260200190565b60405180910390a36106df565b6001600160a01b0382166109015760405162461bcd60e51b815260206004820152602160248201527f45524332303a206275726e2066726f6d20746865207a65726f206164647265736044820152607360f81b6064820152608401610349565b6001600160a01b038216600090815260208190526040902054818110156109755760405162461bcd60e51b815260206004820152602260248201527f45524332303a206275726e20616d6f756e7420657863656564732062616c616e604482015261636560f01b6064820152608401610349565b6001600160a01b03831660009081526020819052604081208383039055600280548492906109a4908490610cfa565b90915550506040518281526000906001600160a01b03851690600080516020610d128339815191529060200161065e565b600580546001600160a01b038381166001600160a01b0319831681179093556040519116919082907f8be0079c531659141344cd1fd0a4f28419497f9722a3daafe3b4186f6b6457e090600090a35050565b6001600160a01b038216610a7d5760405162461bcd60e51b815260206004820152601f60248201527f45524332303a206d696e7420746f20746865207a65726f2061646472657373006044820152606401610349565b8060026000828254610a8f9190610cad565b90915550506001600160a01b03821660009081526020819052604081208054839290610abc908490610cad565b90915550506040518181526001600160a01b03831690600090600080516020610d128339815191529060200160405180910390a35050565b600060208083528351808285015260005b81811015610b2157858101830151858201604001528201610b05565b81811115610b33576000604083870101525b50601f01601f1916929092016040019392505050565b80356001600160a01b0381168114610b6057600080fd5b919050565b60008060408385031215610b7857600080fd5b610b8183610b49565b946020939093013593505050565b600080600060608486031215610ba457600080fd5b610bad84610b49565b9250610bbb60208501610b49565b9150604084013590509250925092565b600060208284031215610bdd57600080fd5b5035919050565b600060208284031215610bf657600080fd5b610bff82610b49565b9392505050565b60008060408385031215610c1957600080fd5b82359150610c2960208401610b49565b90509250929050565b60008060408385031215610c4557600080fd5b610c4e83610b49565b9150610c2960208401610b49565b600181811c90821680610c7057607f821691505b60208210811415610c9157634e487b7160e01b600052602260045260246000fd5b50919050565b634e487b7160e01b600052601160045260246000fd5b60008219821115610cc057610cc0610c97565b500190565b6020808252818101527f4f776e61626c653a2063616c6c6572206973206e6f7420746865206f776e6572604082015260600190565b600082821015610d0c57610d0c610c97565b50039056feddf252ad1be2c89b69c2b068fc378daa952ba7f163c4a11628f55a4df523b3efa26469706673582212206b90fedb96f9fd8c16b9bc226cf30d1e7bde1951385028f552a7d6048407a91b64736f6c634300080b003360c06040526005608081905264173539b7b760d91b60a09081526200002891600a9190620002a4565b503480156200003657600080fd5b5060405162001d6738038062001d67833981016040819052620000599162000417565b81518290829062000072906000906020850190620002a4565b50805162000088906001906020840190620002a4565b505050620000a56200009f6200010260201b60201c565b62000106565b600780546001600160a01b0319166001600160a01b0385161790558151620000d5906008906020850190620002a4565b508051620000eb906009906020840190620002a4565b50620000f983600062000158565b50505062000505565b3390565b600680546001600160a01b038381166001600160a01b0319831681179093556040519116919082907f8be0079c531659141344cd1fd0a4f28419497f9722a3daafe3b4186f6b6457e090600090a35050565b6001600160a01b038216620001b45760405162461bcd60e51b815260206004820181905260248201527f4552433732313a206d696e7420746f20746865207a65726f206164647265737360448201526064015b60405180910390fd5b6000818152600260205260409020546001600160a01b0316156200021b5760405162461bcd60e51b815260206004820152601c60248201527f4552433732313a20746f6b656e20616c7265616479206d696e746564000000006044820152606401620001ab565b6001600160a01b038216600090815260036020526040812080546001929062000246908490620004a1565b909155505060008181526002602052604080822080546001600160a01b0319166001600160a01b03861690811790915590518392907fddf252ad1be2c89b69c2b068fc378daa952ba7f163c4a11628f55a4df523b3ef908290a45050565b828054620002b290620004c8565b90600052602060002090601f016020900481019282620002d6576000855562000321565b82601f10620002f157805160ff191683800117855562000321565b8280016001018555821562000321579182015b828111156200032157825182559160200191906001019062000304565b506200032f92915062000333565b5090565b5b808211156200032f576000815560010162000334565b634e487b7160e01b600052604160045260246000fd5b600082601f8301126200037257600080fd5b81516001600160401b03808211156200038f576200038f6200034a565b604051601f8301601f19908116603f01168101908282118183101715620003ba57620003ba6200034a565b81604052838152602092508683858801011115620003d757600080fd5b600091505b83821015620003fb5785820183015181830184015290820190620003dc565b838211156200040d5760008385830101525b9695505050505050565b6000806000606084860312156200042d57600080fd5b83516001600160a01b03811681146200044557600080fd5b60208501519093506001600160401b03808211156200046357600080fd5b620004718783880162000360565b935060408601519150808211156200048857600080fd5b50620004978682870162000360565b9150509250925092565b60008219821115620004c357634e487b7160e01b600052601160045260246000fd5b500190565b600181811c90821680620004dd57607f821691505b60208210811415620004ff57634e487b7160e01b600052602260045260246000fd5b50919050565b61185280620005156000396000f3fe608060405234801561001057600080fd5b50600436106101125760003560e01c806301ffc9a71461011757806302ee3a521461013f57806306fdde0314610154578063081812fc14610169578063095ea7b31461019457806323b872dd146101a95780633314cb8f146101bc57806342842e0e146101cf57806355f804b3146101e25780636352211e146101f557806370a0823114610208578063715018a6146102295780638da5cb5b1461023157806395d89b4114610239578063a22cb46514610241578063b88d4fde14610254578063c668286214610267578063c87b56dd1461026f578063dd57cd4614610282578063de4e49ca14610295578063e985e9c5146102a6578063f2fde38b146102b9575b600080fd5b61012a610125366004611261565b6102cc565b60405190151581526020015b60405180910390f35b61014761031e565b604051610136919061127e565b61015c610380565b6040516101369190611323565b61017c610177366004611336565b610409565b6040516001600160a01b039091168152602001610136565b6101a76101a236600461136b565b610496565b005b6101a76101b7366004611395565b6105a7565b6101476101ca366004611336565b6105d8565b6101a76101dd366004611395565b610644565b6101a76101f036600461145c565b61065f565b61017c610203366004611336565b61067e565b61021b6102163660046114a4565b6106f5565b604051908152602001610136565b6101a761077c565b61017c6107b7565b61015c6107c6565b6101a761024f3660046114bf565b6107d5565b6101a76102623660046114fb565b6107e0565b61015c610818565b61015c61027d366004611336565b6108a6565b6101a7610290366004611576565b61097e565b6007546001600160a01b031661017c565b61012a6102b43660046115a2565b610a53565b6101a76102c73660046114a4565b610a81565b60006001600160e01b031982166380ac58cd60e01b14806102fd57506001600160e01b03198216635b5e139f60e01b145b8061031857506301ffc9a760e01b6001600160e01b03198316145b92915050565b6060600d80548060200260200160405190810160405280929190818152602001828054801561037657602002820191906000526020600020905b81546001600160a01b03168152600190910190602001808311610358575b5050505050905090565b60606000805461038f906115cc565b80601f01602080910402602001604051908101604052809291908181526020018280546103bb906115cc565b80156103765780601f106103dd57610100808354040283529160200191610376565b820191906000526020600020905b8154815290600101906020018083116103eb57509395945050505050565b600061041482610b21565b61047a5760405162461bcd60e51b815260206004820152602c60248201527f4552433732313a20617070726f76656420717565727920666f72206e6f6e657860448201526b34b9ba32b73a103a37b5b2b760a11b60648201526084015b60405180910390fd5b506000908152600460205260409020546001600160a01b031690565b60006104a18261067e565b9050806001600160a01b0316836001600160a01b0316141561050f5760405162461bcd60e51b815260206004820152602160248201527f4552433732313a20617070726f76616c20746f2063757272656e74206f776e656044820152603960f91b6064820152608401610471565b336001600160a01b038216148061052b575061052b8133610a53565b6105985760405162461bcd60e51b815260206004820152603860248201527f4552433732313a20617070726f76652063616c6c6572206973206e6f74206f776044820152771b995c881b9bdc88185c1c1c9bdd995908199bdc88185b1b60421b6064820152608401610471565b6105a28383610b3e565b505050565b6105b13382610bac565b6105cd5760405162461bcd60e51b815260040161047190611607565b6105a2838383610c76565b6000818152600c602090815260409182902080548351818402810184019094528084526060939283018282801561063857602002820191906000526020600020905b81546001600160a01b0316815260019091019060200180831161061a575b50505050509050919050565b6105a2838383604051806020016040528060008152506107e0565b610667610e12565b805161067a90600b9060208401906111b2565b5050565b6000818152600260205260408120546001600160a01b0316806103185760405162461bcd60e51b815260206004820152602960248201527f4552433732313a206f776e657220717565727920666f72206e6f6e657869737460448201526832b73a103a37b5b2b760b91b6064820152608401610471565b60006001600160a01b0382166107605760405162461bcd60e51b815260206004820152602a60248201527f4552433732313a2062616c616e636520717565727920666f7220746865207a65604482015269726f206164647265737360b01b6064820152608401610471565b506001600160a01b031660009081526003602052604090205490565b336107856107b7565b6001600160a01b0316146107ab5760405162461bcd60e51b815260040161047190611658565b6107b56000610e67565b565b6006546001600160a01b031690565b60606001805461038f906115cc565b61067a338383610eb9565b6107ea3383610bac565b6108065760405162461bcd60e51b815260040161047190611607565b61081284848484610f84565b50505050565b600a8054610825906115cc565b80601f0160208091040260200160405190810160405280929190818152602001828054610851906115cc565b801561089e5780601f106108735761010080835404028352916020019161089e565b820191906000526020600020905b81548152906001019060200180831161088157829003601f168201915b505050505081565b60606108b182610b21565b6109155760405162461bcd60e51b815260206004820152602f60248201527f4552433732314d657461646174613a2055524920717565727920666f72206e6f60448201526e3732bc34b9ba32b73a103a37b5b2b760891b6064820152608401610471565b600061092c60408051602081019091526000815290565b9050600081511161094c5760405180602001604052806000815250610977565b8061095684610fb7565b60405160200161096792919061168d565b6040516020818303038152906040525b9392505050565b336109876107b7565b6001600160a01b0316146109ad5760405162461bcd60e51b815260040161047190611658565b6000828152600c602090815260408083208054600181810183558286529385200180546001600160a01b0387166001600160a01b03199182168117909255600d8054958601815586527fd7b6990105719101dabeb77144f2a3385c8033acd3af97e9423a695e81ad1eb5909401805490941681179093559051909285917f34bec8f7def8237f9a30ac54aebff5a5acd1923d5eae92855efdc30a8cdb7e259190a3505050565b6001600160a01b03918216600090815260056020908152604080832093909416825291909152205460ff1690565b33610a8a6107b7565b6001600160a01b031614610ab05760405162461bcd60e51b815260040161047190611658565b6001600160a01b038116610b155760405162461bcd60e51b815260206004820152602660248201527f4f776e61626c653a206e6577206f776e657220697320746865207a65726f206160448201526564647265737360d01b6064820152608401610471565b610b1e81610e67565b50565b6000908152600260205260409020546001600160a01b0316151590565b600081815260046020526040902080546001600160a01b0319166001600160a01b0384169081179091558190610b738261067e565b6001600160a01b03167f8c5be1e5ebec7d5bd14f71427d1e84f3dd0314c0f7b2291e5b200ac8c7c3b92560405160405180910390a45050565b6000610bb782610b21565b610c185760405162461bcd60e51b815260206004820152602c60248201527f4552433732313a206f70657261746f7220717565727920666f72206e6f6e657860448201526b34b9ba32b73a103a37b5b2b760a11b6064820152608401610471565b6000610c238361067e565b9050806001600160a01b0316846001600160a01b03161480610c4a5750610c4a8185610a53565b80610c6e5750836001600160a01b0316610c6384610409565b6001600160a01b0316145b949350505050565b826001600160a01b0316610c898261067e565b6001600160a01b031614610ced5760405162461bcd60e51b815260206004820152602560248201527f4552433732313a207472616e736665722066726f6d20696e636f72726563742060448201526437bbb732b960d91b6064820152608401610471565b6001600160a01b038216610d4f5760405162461bcd60e51b8152602060048201526024808201527f4552433732313a207472616e7366657220746f20746865207a65726f206164646044820152637265737360e01b6064820152608401610471565b610d5a600082610b3e565b6001600160a01b0383166000908152600360205260408120805460019290610d839084906116d2565b90915550506001600160a01b0382166000908152600360205260408120805460019290610db19084906116e9565b909155505060008181526002602052604080822080546001600160a01b0319166001600160a01b0386811691821790925591518493918716917fddf252ad1be2c89b69c2b068fc378daa952ba7f163c4a11628f55a4df523b3ef91a4505050565b6007546001600160a01b031633146107b55760405162461bcd60e51b81526020600482015260186024820152772cb7ba903237b73a103430bb32903832b936b4b9b9b4b7b760411b6044820152606401610471565b600680546001600160a01b038381166001600160a01b0319831681179093556040519116919082907f8be0079c531659141344cd1fd0a4f28419497f9722a3daafe3b4186f6b6457e090600090a35050565b816001600160a01b0316836001600160a01b03161415610f175760405162461bcd60e51b815260206004820152601960248201527822a9219b99189d1030b8383937bb32903a379031b0b63632b960391b6044820152606401610471565b6001600160a01b03838116600081815260056020908152604080832094871680845294825291829020805460ff191686151590811790915591519182527f17307eab39ab6107e8899845ad3d59bd9653f200f220920489ca2b5937696c31910160405180910390a3505050565b610f8f848484610c76565b610f9b848484846110b4565b6108125760405162461bcd60e51b815260040161047190611701565b606081610fdb5750506040805180820190915260018152600360fc1b602082015290565b8160005b81156110055780610fef81611753565b9150610ffe9050600a83611784565b9150610fdf565b6000816001600160401b0381111561101f5761101f6113d1565b6040519080825280601f01601f191660200182016040528015611049576020820181803683370190505b5090505b8415610c6e5761105e6001836116d2565b915061106b600a86611798565b6110769060306116e9565b60f81b81838151811061108b5761108b6117ac565b60200101906001600160f81b031916908160001a9053506110ad600a86611784565b945061104d565b60006001600160a01b0384163b156111a757604051630a85bd0160e11b81526001600160a01b0385169063150b7a02906110f89033908990889088906004016117c2565b6020604051808303816000875af1925050508015611133575060408051601f3d908101601f19168201909252611130918101906117ff565b60015b61118d573d808015611161576040519150601f19603f3d011682016040523d82523d6000602084013e611166565b606091505b5080516111855760405162461bcd60e51b815260040161047190611701565b805181602001fd5b6001600160e01b031916630a85bd0160e11b149050610c6e565b506001949350505050565b8280546111be906115cc565b90600052602060002090601f0160209004810192826111e05760008555611226565b82601f106111f957805160ff1916838001178555611226565b82800160010185558215611226579182015b8281111561122657825182559160200191906001019061120b565b50611232929150611236565b5090565b5b808211156112325760008155600101611237565b6001600160e01b031981168114610b1e57600080fd5b60006020828403121561127357600080fd5b81356109778161124b565b6020808252825182820181905260009190848201906040850190845b818110156112bf5783516001600160a01b03168352928401929184019160010161129a565b50909695505050505050565b60005b838110156112e65781810151838201526020016112ce565b838111156108125750506000910152565b6000815180845261130f8160208601602086016112cb565b601f01601f19169290920160200192915050565b60208152600061097760208301846112f7565b60006020828403121561134857600080fd5b5035919050565b80356001600160a01b038116811461136657600080fd5b919050565b6000806040838503121561137e57600080fd5b6113878361134f565b946020939093013593505050565b6000806000606084860312156113aa57600080fd5b6113b38461134f565b92506113c16020850161134f565b9150604084013590509250925092565b634e487b7160e01b600052604160045260246000fd5b60006001600160401b0380841115611401576114016113d1565b604051601f8501601f19908116603f01168101908282118183101715611429576114296113d1565b8160405280935085815286868601111561144257600080fd5b858560208301376000602087830101525050509392505050565b60006020828403121561146e57600080fd5b81356001600160401b0381111561148457600080fd5b8201601f8101841361149557600080fd5b610c6e848235602084016113e7565b6000602082840312156114b657600080fd5b6109778261134f565b600080604083850312156114d257600080fd5b6114db8361134f565b9150602083013580151581146114f057600080fd5b809150509250929050565b6000806000806080858703121561151157600080fd5b61151a8561134f565b93506115286020860161134f565b92506040850135915060608501356001600160401b0381111561154a57600080fd5b8501601f8101871361155b57600080fd5b61156a878235602084016113e7565b91505092959194509250565b6000806040838503121561158957600080fd5b823591506115996020840161134f565b90509250929050565b600080604083850312156115b557600080fd5b6115be8361134f565b91506115996020840161134f565b600181811c908216806115e057607f821691505b6020821081141561160157634e487b7160e01b600052602260045260246000fd5b50919050565b60208082526031908201527f4552433732313a207472616e736665722063616c6c6572206973206e6f74206f6040820152701ddb995c881b9bdc88185c1c1c9bdd9959607a1b606082015260800190565b6020808252818101527f4f776e61626c653a2063616c6c6572206973206e6f7420746865206f776e6572604082015260600190565b6000835161169f8184602088016112cb565b8351908301906116b38183602088016112cb565b01949350505050565b634e487b7160e01b600052601160045260246000fd5b6000828210156116e4576116e46116bc565b500390565b600082198211156116fc576116fc6116bc565b500190565b60208082526032908201527f4552433732313a207472616e7366657220746f206e6f6e20455243373231526560408201527131b2b4bb32b91034b6b83632b6b2b73a32b960711b606082015260800190565b6000600019821415611767576117676116bc565b5060010190565b634e487b7160e01b600052601260045260246000fd5b6000826117935761179361176e565b500490565b6000826117a7576117a761176e565b500690565b634e487b7160e01b600052603260045260246000fd5b6001600160a01b03858116825284166020820152604081018390526080606082018190526000906117f5908301846112f7565b9695505050505050565b60006020828403121561181157600080fd5b81516109778161124b56fea2646970667358221220ac997377d6baf8d8740e444d36def362515890982852fda9f6e6cf1ad0c2a44464736f6c634300080b0033a2646970667358221220f6a9ccf16391ae292bff20154da346dc2deddbac69fafc03f525ebb482334d9064736f6c634300080b0033",
  "immutableReferences": {},
  "source": "/**\r\n    @author Blok Hamster \r\n */\r\n\r\n// SPDX-License-Identifier: MIT\r\npragma solidity ^0.8.4;\r\npragma experimental ABIEncoderV2;\r\n\r\nimport \"./Users/PicardyProfile.sol\";\r\nimport \"./Products/PicardyVault.sol\";\r\nimport \"@openzeppelin/contracts/access/Ownable.sol\";\r\n\r\ncontract PicardyHub is Ownable {\r\n\r\n    event NewProfileCreated(uint indexed profileId, uint indexed time);\r\n    event NewArtisteToken(address indexed tokenAddress, address indexed creator, uint indexed time);\r\n\r\n    struct Profile{\r\n        address creator;\r\n        string name;\r\n        string handle;\r\n        uint profileId;\r\n        PicardyProfile profileAddress;\r\n    }\r\n\r\n    struct Vault{\r\n        uint Id;\r\n        PicardyVault picardyVaultAddress;\r\n    }\r\n\r\n    address immutable PICARDY_TOKEN;\r\n    uint profileIds;\r\n    uint[] profileIdLog;\r\n\r\n    mapping (address => bool) isCreator;\r\n    mapping (uint => Profile) profileMap;\r\n    mapping (string => bool) handleExist;\r\n    mapping (uint => Vault) vaultMap;\r\n    mapping (uint => bool) profileExist;\r\n\r\n    Vault[] vaultsLog;\r\n    \r\n\r\n    modifier onlyCreator(){\r\n        _onlyCreator();\r\n        _;\r\n    }\r\n\r\n    constructor(address _picardyToken) {\r\n       PICARDY_TOKEN = _picardyToken;\r\n    }\r\n\r\n\r\n    /**\r\n        @dev this function creates a new ERC712 Profile contract \r\n        @param _name is the profile or creator name\r\n        @param _handle is the profile creator handle\r\n    \r\n     */\r\n    function createProfile(string memory _name, string memory _handle) external {\r\n        require(isCreator[msg.sender] == false, \"Profile Exists\");\r\n        require(handleExist[_handle] == false, \"Handle Exists\");\r\n        \r\n        _createProfile(_name, _handle);\r\n    }\r\n\r\n    function checkIsCreator(uint _profileId) external view returns(bool){\r\n        for (uint i; i < profileIdLog.length; i++){\r\n            if (profileIdLog[i] == _profileId){\r\n                require(profileExist[_profileId] == true);\r\n            }\r\n         \r\n        }\r\n\r\n        return true;\r\n\r\n    }\r\n\r\n    function getProfileAddress(uint _profileId) external view returns (address){\r\n        PicardyProfile profileAddress = profileMap[_profileId].profileAddress;\r\n        return address(profileAddress);\r\n    }\r\n\r\n    function getProfileName(uint _profileId) external view returns (string memory){\r\n        string memory name =  profileMap[_profileId].name;\r\n        return name;\r\n    }\r\n\r\n\r\n    \r\n    function createVault(address _vaultToken) external onlyOwner{\r\n        uint vaultId = vaultsLog.length + 1;\r\n        PicardyVault newPicardyVault = new PicardyVault(_vaultToken);\r\n\r\n        Vault memory newVault = Vault(vaultId, newPicardyVault);\r\n        vaultsLog.push(newVault);\r\n        vaultMap[vaultId] = newVault;\r\n    }    \r\n\r\n    // INTERNAL FUNCTIONS//\r\n\r\n    function _createProfile(string memory _name, string memory _handle) internal returns(bool success, uint _profileId){\r\n        \r\n        PicardyProfile newPicardyArtisteToken = new PicardyProfile(msg.sender, _name, _handle);\r\n        \r\n        Profile memory newProfile = Profile(msg.sender, _name, _handle, profileIds, newPicardyArtisteToken);\r\n        \r\n        isCreator[msg.sender] = true;\r\n        handleExist[_handle] = true;\r\n        _profileId = profileIds;\r\n        profileIdLog.push(_profileId);\r\n        profileExist[_profileId] = true;\r\n        \r\n        profileMap[profileIds] = newProfile;\r\n        _nextProfileId();\r\n        \r\n        emit NewProfileCreated(_profileId, block.timestamp);\r\n        \r\n        return (success, _profileId);\r\n\r\n    }\r\n\r\n\r\n\r\n    function _onlyCreator() internal view {\r\n        require(isCreator[msg.sender] == true, \"Not Creator\");\r\n    }\r\n\r\n    function _nextProfileId() internal returns(uint){\r\n        profileIds++;\r\n\r\n        return profileIds;\r\n    }\r\n\r\n}\r\n\r\ninterface IPicardyHub{\r\n    \r\n    function createProfile(string memory _name, string memory _handle) external;\r\n    \r\n    function checkIsCreator(uint _profileId) external view returns(bool);\r\n    \r\n    function getProfileAddress(uint _profileId) external view returns (address);\r\n    \r\n    function getProfileName(uint _profileId) external view returns (string memory);\r\n}",
  "sourcePath": "C:\\Users\\USER\\Desktop\\Picardy_Protocol\\contracts\\PicardyHub.sol",
  "compiler": {
    "name": "solc",
    "version": "0.8.11+commit.d7f03943.Emscripten.clang"
  },
  "schemaVersion": "3.4.6",
  "updatedAt": "2022-05-27T16:25:13.112Z",
  "networkType": "ethereum",
  "devdoc": {
    "kind": "dev",
    "methods": {
      "createProfile(string,string)": {
        "details": "this function creates a new ERC712 Profile contract ",
        "params": {
          "_handle": "is the profile creator handle",
          "_name": "is the profile or creator name"
        }
      },
      "owner()": {
        "details": "Returns the address of the current owner."
      },
      "renounceOwnership()": {
        "details": "Leaves the contract without owner. It will not be possible to call `onlyOwner` functions anymore. Can only be called by the current owner. NOTE: Renouncing ownership will leave the contract without an owner, thereby removing any functionality that is only available to the owner."
      },
      "transferOwnership(address)": {
        "details": "Transfers ownership of the contract to a new account (`newOwner`). Can only be called by the current owner."
      }
    },
    "version": 1
  },
  "userdoc": {
    "kind": "user",
    "methods": {},
    "version": 1
  }
}