{
  "contractName": "PicardyProfile",
  "abi": [
    {
      "inputs": [
        {
          "internalType": "address",
          "name": "_artisteAddress",
          "type": "address"
        },
        {
          "internalType": "string",
          "name": "_artisteName",
          "type": "string"
        },
        {
          "internalType": "string",
          "name": "_artisteHandle",
          "type": "string"
        }
      ],
      "stateMutability": "nonpayable",
      "type": "constructor"
    },
    {
      "anonymous": false,
      "inputs": [
        {
          "indexed": true,
          "internalType": "address",
          "name": "owner",
          "type": "address"
        },
        {
          "indexed": true,
          "internalType": "address",
          "name": "approved",
          "type": "address"
        },
        {
          "indexed": true,
          "internalType": "uint256",
          "name": "tokenId",
          "type": "uint256"
        }
      ],
      "name": "Approval",
      "type": "event"
    },
    {
      "anonymous": false,
      "inputs": [
        {
          "indexed": true,
          "internalType": "address",
          "name": "owner",
          "type": "address"
        },
        {
          "indexed": true,
          "internalType": "address",
          "name": "operator",
          "type": "address"
        },
        {
          "indexed": false,
          "internalType": "bool",
          "name": "approved",
          "type": "bool"
        }
      ],
      "name": "ApprovalForAll",
      "type": "event"
    },
    {
      "anonymous": false,
      "inputs": [
        {
          "indexed": true,
          "internalType": "uint256",
          "name": "productId",
          "type": "uint256"
        },
        {
          "indexed": true,
          "internalType": "address",
          "name": "productAddress",
          "type": "address"
        }
      ],
      "name": "NewProductAdded",
      "type": "event"
    },
    {
      "anonymous": false,
      "inputs": [
        {
          "indexed": true,
          "internalType": "address",
          "name": "previousOwner",
          "type": "address"
        },
        {
          "indexed": true,
          "internalType": "address",
          "name": "newOwner",
          "type": "address"
        }
      ],
      "name": "OwnershipTransferred",
      "type": "event"
    },
    {
      "anonymous": false,
      "inputs": [
        {
          "indexed": true,
          "internalType": "address",
          "name": "from",
          "type": "address"
        },
        {
          "indexed": true,
          "internalType": "address",
          "name": "to",
          "type": "address"
        },
        {
          "indexed": true,
          "internalType": "uint256",
          "name": "tokenId",
          "type": "uint256"
        }
      ],
      "name": "Transfer",
      "type": "event"
    },
    {
      "inputs": [
        {
          "internalType": "address",
          "name": "to",
          "type": "address"
        },
        {
          "internalType": "uint256",
          "name": "tokenId",
          "type": "uint256"
        }
      ],
      "name": "approve",
      "outputs": [],
      "stateMutability": "nonpayable",
      "type": "function"
    },
    {
      "inputs": [
        {
          "internalType": "address",
          "name": "owner",
          "type": "address"
        }
      ],
      "name": "balanceOf",
      "outputs": [
        {
          "internalType": "uint256",
          "name": "",
          "type": "uint256"
        }
      ],
      "stateMutability": "view",
      "type": "function"
    },
    {
      "inputs": [],
      "name": "baseExtension",
      "outputs": [
        {
          "internalType": "string",
          "name": "",
          "type": "string"
        }
      ],
      "stateMutability": "view",
      "type": "function"
    },
    {
      "inputs": [
        {
          "internalType": "uint256",
          "name": "tokenId",
          "type": "uint256"
        }
      ],
      "name": "getApproved",
      "outputs": [
        {
          "internalType": "address",
          "name": "",
          "type": "address"
        }
      ],
      "stateMutability": "view",
      "type": "function"
    },
    {
      "inputs": [
        {
          "internalType": "address",
          "name": "owner",
          "type": "address"
        },
        {
          "internalType": "address",
          "name": "operator",
          "type": "address"
        }
      ],
      "name": "isApprovedForAll",
      "outputs": [
        {
          "internalType": "bool",
          "name": "",
          "type": "bool"
        }
      ],
      "stateMutability": "view",
      "type": "function"
    },
    {
      "inputs": [],
      "name": "name",
      "outputs": [
        {
          "internalType": "string",
          "name": "",
          "type": "string"
        }
      ],
      "stateMutability": "view",
      "type": "function"
    },
    {
      "inputs": [],
      "name": "owner",
      "outputs": [
        {
          "internalType": "address",
          "name": "",
          "type": "address"
        }
      ],
      "stateMutability": "view",
      "type": "function"
    },
    {
      "inputs": [
        {
          "internalType": "uint256",
          "name": "tokenId",
          "type": "uint256"
        }
      ],
      "name": "ownerOf",
      "outputs": [
        {
          "internalType": "address",
          "name": "",
          "type": "address"
        }
      ],
      "stateMutability": "view",
      "type": "function"
    },
    {
      "inputs": [],
      "name": "renounceOwnership",
      "outputs": [],
      "stateMutability": "nonpayable",
      "type": "function"
    },
    {
      "inputs": [
        {
          "internalType": "address",
          "name": "from",
          "type": "address"
        },
        {
          "internalType": "address",
          "name": "to",
          "type": "address"
        },
        {
          "internalType": "uint256",
          "name": "tokenId",
          "type": "uint256"
        }
      ],
      "name": "safeTransferFrom",
      "outputs": [],
      "stateMutability": "nonpayable",
      "type": "function"
    },
    {
      "inputs": [
        {
          "internalType": "address",
          "name": "from",
          "type": "address"
        },
        {
          "internalType": "address",
          "name": "to",
          "type": "address"
        },
        {
          "internalType": "uint256",
          "name": "tokenId",
          "type": "uint256"
        },
        {
          "internalType": "bytes",
          "name": "_data",
          "type": "bytes"
        }
      ],
      "name": "safeTransferFrom",
      "outputs": [],
      "stateMutability": "nonpayable",
      "type": "function"
    },
    {
      "inputs": [
        {
          "internalType": "address",
          "name": "operator",
          "type": "address"
        },
        {
          "internalType": "bool",
          "name": "approved",
          "type": "bool"
        }
      ],
      "name": "setApprovalForAll",
      "outputs": [],
      "stateMutability": "nonpayable",
      "type": "function"
    },
    {
      "inputs": [
        {
          "internalType": "bytes4",
          "name": "interfaceId",
          "type": "bytes4"
        }
      ],
      "name": "supportsInterface",
      "outputs": [
        {
          "internalType": "bool",
          "name": "",
          "type": "bool"
        }
      ],
      "stateMutability": "view",
      "type": "function"
    },
    {
      "inputs": [],
      "name": "symbol",
      "outputs": [
        {
          "internalType": "string",
          "name": "",
          "type": "string"
        }
      ],
      "stateMutability": "view",
      "type": "function"
    },
    {
      "inputs": [
        {
          "internalType": "uint256",
          "name": "tokenId",
          "type": "uint256"
        }
      ],
      "name": "tokenURI",
      "outputs": [
        {
          "internalType": "string",
          "name": "",
          "type": "string"
        }
      ],
      "stateMutability": "view",
      "type": "function"
    },
    {
      "inputs": [
        {
          "internalType": "address",
          "name": "from",
          "type": "address"
        },
        {
          "internalType": "address",
          "name": "to",
          "type": "address"
        },
        {
          "internalType": "uint256",
          "name": "tokenId",
          "type": "uint256"
        }
      ],
      "name": "transferFrom",
      "outputs": [],
      "stateMutability": "nonpayable",
      "type": "function"
    },
    {
      "inputs": [
        {
          "internalType": "address",
          "name": "newOwner",
          "type": "address"
        }
      ],
      "name": "transferOwnership",
      "outputs": [],
      "stateMutability": "nonpayable",
      "type": "function"
    },
    {
      "inputs": [
        {
          "internalType": "uint256",
          "name": "_productId",
          "type": "uint256"
        },
        {
          "internalType": "address",
          "name": "_productAddress",
          "type": "address"
        }
      ],
      "name": "addProduct",
      "outputs": [],
      "stateMutability": "nonpayable",
      "type": "function"
    },
    {
      "inputs": [
        {
          "internalType": "string",
          "name": "_newBaseURI",
          "type": "string"
        }
      ],
      "name": "setBaseURI",
      "outputs": [],
      "stateMutability": "nonpayable",
      "type": "function"
    },
    {
      "inputs": [
        {
          "internalType": "uint256",
          "name": "_productId",
          "type": "uint256"
        }
      ],
      "name": "getProductsById",
      "outputs": [
        {
          "internalType": "address[]",
          "name": "",
          "type": "address[]"
        }
      ],
      "stateMutability": "view",
      "type": "function"
    },
    {
      "inputs": [],
      "name": "getAllProducts",
      "outputs": [
        {
          "internalType": "address[]",
          "name": "",
          "type": "address[]"
        }
      ],
      "stateMutability": "view",
      "type": "function"
    },
    {
      "inputs": [],
      "name": "getArtiste",
      "outputs": [
        {
          "internalType": "address",
          "name": "",
          "type": "address"
        }
      ],
      "stateMutability": "view",
      "type": "function"
    }
  ],
  "bytecode": "0x60c06040526005608081905264173539b7b760d91b60a09081526200002891600a91906200038c565b503480156200003657600080fd5b5060405162001e3738038062001e378339810160408190526200005991620004ff565b815182908290620000729060009060208501906200038c565b508051620000889060019060208401906200038c565b505050620000a56200009f6200011960201b60201c565b6200011d565b600780546001600160a01b0319166001600160a01b0385161790558151620000d59060089060208501906200038c565b508051620000eb9060099060208401906200038c565b50620000f98360006200016f565b60075462000110906001600160a01b0316620002bb565b505050620005ed565b3390565b600680546001600160a01b038381166001600160a01b0319831681179093556040519116919082907f8be0079c531659141344cd1fd0a4f28419497f9722a3daafe3b4186f6b6457e090600090a35050565b6001600160a01b038216620001cb5760405162461bcd60e51b815260206004820181905260248201527f4552433732313a206d696e7420746f20746865207a65726f206164647265737360448201526064015b60405180910390fd5b6000818152600260205260409020546001600160a01b031615620002325760405162461bcd60e51b815260206004820152601c60248201527f4552433732313a20746f6b656e20616c7265616479206d696e746564000000006044820152606401620001c2565b6001600160a01b03821660009081526003602052604081208054600192906200025d90849062000589565b909155505060008181526002602052604080822080546001600160a01b0319166001600160a01b03861690811790915590518392907fddf252ad1be2c89b69c2b068fc378daa952ba7f163c4a11628f55a4df523b3ef908290a45050565b6006546001600160a01b03163314620003175760405162461bcd60e51b815260206004820181905260248201527f4f776e61626c653a2063616c6c6572206973206e6f7420746865206f776e65726044820152606401620001c2565b6001600160a01b0381166200037e5760405162461bcd60e51b815260206004820152602660248201527f4f776e61626c653a206e6577206f776e657220697320746865207a65726f206160448201526564647265737360d01b6064820152608401620001c2565b62000389816200011d565b50565b8280546200039a90620005b0565b90600052602060002090601f016020900481019282620003be576000855562000409565b82601f10620003d957805160ff191683800117855562000409565b8280016001018555821562000409579182015b8281111562000409578251825591602001919060010190620003ec565b50620004179291506200041b565b5090565b5b808211156200041757600081556001016200041c565b634e487b7160e01b600052604160045260246000fd5b600082601f8301126200045a57600080fd5b81516001600160401b038082111562000477576200047762000432565b604051601f8301601f19908116603f01168101908282118183101715620004a257620004a262000432565b81604052838152602092508683858801011115620004bf57600080fd5b600091505b83821015620004e35785820183015181830184015290820190620004c4565b83821115620004f55760008385830101525b9695505050505050565b6000806000606084860312156200051557600080fd5b83516001600160a01b03811681146200052d57600080fd5b60208501519093506001600160401b03808211156200054b57600080fd5b620005598783880162000448565b935060408601519150808211156200057057600080fd5b506200057f8682870162000448565b9150509250925092565b60008219821115620005ab57634e487b7160e01b600052601160045260246000fd5b500190565b600181811c90821680620005c557607f821691505b60208210811415620005e757634e487b7160e01b600052602260045260246000fd5b50919050565b61183a80620005fd6000396000f3fe608060405234801561001057600080fd5b50600436106101125760003560e01c806301ffc9a71461011757806302ee3a521461013f57806306fdde0314610154578063081812fc14610169578063095ea7b31461019457806323b872dd146101a95780633314cb8f146101bc57806342842e0e146101cf57806355f804b3146101e25780636352211e146101f557806370a0823114610208578063715018a6146102295780638da5cb5b1461023157806395d89b4114610239578063a22cb46514610241578063b88d4fde14610254578063c668286214610267578063c87b56dd1461026f578063dd57cd4614610282578063de4e49ca14610295578063e985e9c5146102a6578063f2fde38b146102b9575b600080fd5b61012a610125366004611249565b6102cc565b60405190151581526020015b60405180910390f35b61014761031e565b6040516101369190611266565b61015c610380565b604051610136919061130b565b61017c61017736600461131e565b610409565b6040516001600160a01b039091168152602001610136565b6101a76101a2366004611353565b610496565b005b6101a76101b736600461137d565b6105a7565b6101476101ca36600461131e565b6105d8565b6101a76101dd36600461137d565b610644565b6101a76101f0366004611444565b61065f565b61017c61020336600461131e565b61067e565b61021b61021636600461148c565b6106f5565b604051908152602001610136565b6101a761077c565b61017c6107b7565b61015c6107c6565b6101a761024f3660046114a7565b6107d5565b6101a76102623660046114e3565b6107e0565b61015c610818565b61015c61027d36600461131e565b6108a6565b6101a761029036600461155e565b61097e565b6007546001600160a01b031661017c565b61012a6102b436600461158a565b610a3b565b6101a76102c736600461148c565b610a69565b60006001600160e01b031982166380ac58cd60e01b14806102fd57506001600160e01b03198216635b5e139f60e01b145b8061031857506301ffc9a760e01b6001600160e01b03198316145b92915050565b6060600d80548060200260200160405190810160405280929190818152602001828054801561037657602002820191906000526020600020905b81546001600160a01b03168152600190910190602001808311610358575b5050505050905090565b60606000805461038f906115b4565b80601f01602080910402602001604051908101604052809291908181526020018280546103bb906115b4565b80156103765780601f106103dd57610100808354040283529160200191610376565b820191906000526020600020905b8154815290600101906020018083116103eb57509395945050505050565b600061041482610b09565b61047a5760405162461bcd60e51b815260206004820152602c60248201527f4552433732313a20617070726f76656420717565727920666f72206e6f6e657860448201526b34b9ba32b73a103a37b5b2b760a11b60648201526084015b60405180910390fd5b506000908152600460205260409020546001600160a01b031690565b60006104a18261067e565b9050806001600160a01b0316836001600160a01b0316141561050f5760405162461bcd60e51b815260206004820152602160248201527f4552433732313a20617070726f76616c20746f2063757272656e74206f776e656044820152603960f91b6064820152608401610471565b336001600160a01b038216148061052b575061052b8133610a3b565b6105985760405162461bcd60e51b815260206004820152603860248201527f4552433732313a20617070726f76652063616c6c6572206973206e6f74206f776044820152771b995c881b9bdc88185c1c1c9bdd995908199bdc88185b1b60421b6064820152608401610471565b6105a28383610b26565b505050565b6105b13382610b94565b6105cd5760405162461bcd60e51b8152600401610471906115ef565b6105a2838383610c5e565b6000818152600c602090815260409182902080548351818402810184019094528084526060939283018282801561063857602002820191906000526020600020905b81546001600160a01b0316815260019091019060200180831161061a575b50505050509050919050565b6105a2838383604051806020016040528060008152506107e0565b610667610dfa565b805161067a90600b90602084019061119a565b5050565b6000818152600260205260408120546001600160a01b0316806103185760405162461bcd60e51b815260206004820152602960248201527f4552433732313a206f776e657220717565727920666f72206e6f6e657869737460448201526832b73a103a37b5b2b760b91b6064820152608401610471565b60006001600160a01b0382166107605760405162461bcd60e51b815260206004820152602a60248201527f4552433732313a2062616c616e636520717565727920666f7220746865207a65604482015269726f206164647265737360b01b6064820152608401610471565b506001600160a01b031660009081526003602052604090205490565b336107856107b7565b6001600160a01b0316146107ab5760405162461bcd60e51b815260040161047190611640565b6107b56000610e4f565b565b6006546001600160a01b031690565b60606001805461038f906115b4565b61067a338383610ea1565b6107ea3383610b94565b6108065760405162461bcd60e51b8152600401610471906115ef565b61081284848484610f6c565b50505050565b600a8054610825906115b4565b80601f0160208091040260200160405190810160405280929190818152602001828054610851906115b4565b801561089e5780601f106108735761010080835404028352916020019161089e565b820191906000526020600020905b81548152906001019060200180831161088157829003601f168201915b505050505081565b60606108b182610b09565b6109155760405162461bcd60e51b815260206004820152602f60248201527f4552433732314d657461646174613a2055524920717565727920666f72206e6f60448201526e3732bc34b9ba32b73a103a37b5b2b760891b6064820152608401610471565b600061092c60408051602081019091526000815290565b9050600081511161094c5760405180602001604052806000815250610977565b8061095684610f9f565b604051602001610967929190611675565b6040516020818303038152906040525b9392505050565b6007546001600160a01b0316321461099557600080fd5b6000828152600c602090815260408083208054600181810183558286529385200180546001600160a01b0387166001600160a01b03199182168117909255600d8054958601815586527fd7b6990105719101dabeb77144f2a3385c8033acd3af97e9423a695e81ad1eb5909401805490941681179093559051909285917f34bec8f7def8237f9a30ac54aebff5a5acd1923d5eae92855efdc30a8cdb7e259190a3505050565b6001600160a01b03918216600090815260056020908152604080832093909416825291909152205460ff1690565b33610a726107b7565b6001600160a01b031614610a985760405162461bcd60e51b815260040161047190611640565b6001600160a01b038116610afd5760405162461bcd60e51b815260206004820152602660248201527f4f776e61626c653a206e6577206f776e657220697320746865207a65726f206160448201526564647265737360d01b6064820152608401610471565b610b0681610e4f565b50565b6000908152600260205260409020546001600160a01b0316151590565b600081815260046020526040902080546001600160a01b0319166001600160a01b0384169081179091558190610b5b8261067e565b6001600160a01b03167f8c5be1e5ebec7d5bd14f71427d1e84f3dd0314c0f7b2291e5b200ac8c7c3b92560405160405180910390a45050565b6000610b9f82610b09565b610c005760405162461bcd60e51b815260206004820152602c60248201527f4552433732313a206f70657261746f7220717565727920666f72206e6f6e657860448201526b34b9ba32b73a103a37b5b2b760a11b6064820152608401610471565b6000610c0b8361067e565b9050806001600160a01b0316846001600160a01b03161480610c325750610c328185610a3b565b80610c565750836001600160a01b0316610c4b84610409565b6001600160a01b0316145b949350505050565b826001600160a01b0316610c718261067e565b6001600160a01b031614610cd55760405162461bcd60e51b815260206004820152602560248201527f4552433732313a207472616e736665722066726f6d20696e636f72726563742060448201526437bbb732b960d91b6064820152608401610471565b6001600160a01b038216610d375760405162461bcd60e51b8152602060048201526024808201527f4552433732313a207472616e7366657220746f20746865207a65726f206164646044820152637265737360e01b6064820152608401610471565b610d42600082610b26565b6001600160a01b0383166000908152600360205260408120805460019290610d6b9084906116ba565b90915550506001600160a01b0382166000908152600360205260408120805460019290610d999084906116d1565b909155505060008181526002602052604080822080546001600160a01b0319166001600160a01b0386811691821790925591518493918716917fddf252ad1be2c89b69c2b068fc378daa952ba7f163c4a11628f55a4df523b3ef91a4505050565b6007546001600160a01b031633146107b55760405162461bcd60e51b81526020600482015260186024820152772cb7ba903237b73a103430bb32903832b936b4b9b9b4b7b760411b6044820152606401610471565b600680546001600160a01b038381166001600160a01b0319831681179093556040519116919082907f8be0079c531659141344cd1fd0a4f28419497f9722a3daafe3b4186f6b6457e090600090a35050565b816001600160a01b0316836001600160a01b03161415610eff5760405162461bcd60e51b815260206004820152601960248201527822a9219b99189d1030b8383937bb32903a379031b0b63632b960391b6044820152606401610471565b6001600160a01b03838116600081815260056020908152604080832094871680845294825291829020805460ff191686151590811790915591519182527f17307eab39ab6107e8899845ad3d59bd9653f200f220920489ca2b5937696c31910160405180910390a3505050565b610f77848484610c5e565b610f838484848461109c565b6108125760405162461bcd60e51b8152600401610471906116e9565b606081610fc35750506040805180820190915260018152600360fc1b602082015290565b8160005b8115610fed5780610fd78161173b565b9150610fe69050600a8361176c565b9150610fc7565b6000816001600160401b03811115611007576110076113b9565b6040519080825280601f01601f191660200182016040528015611031576020820181803683370190505b5090505b8415610c56576110466001836116ba565b9150611053600a86611780565b61105e9060306116d1565b60f81b81838151811061107357611073611794565b60200101906001600160f81b031916908160001a905350611095600a8661176c565b9450611035565b60006001600160a01b0384163b1561118f57604051630a85bd0160e11b81526001600160a01b0385169063150b7a02906110e09033908990889088906004016117aa565b6020604051808303816000875af192505050801561111b575060408051601f3d908101601f19168201909252611118918101906117e7565b60015b611175573d808015611149576040519150601f19603f3d011682016040523d82523d6000602084013e61114e565b606091505b50805161116d5760405162461bcd60e51b8152600401610471906116e9565b805181602001fd5b6001600160e01b031916630a85bd0160e11b149050610c56565b506001949350505050565b8280546111a6906115b4565b90600052602060002090601f0160209004810192826111c8576000855561120e565b82601f106111e157805160ff191683800117855561120e565b8280016001018555821561120e579182015b8281111561120e5782518255916020019190600101906111f3565b5061121a92915061121e565b5090565b5b8082111561121a576000815560010161121f565b6001600160e01b031981168114610b0657600080fd5b60006020828403121561125b57600080fd5b813561097781611233565b6020808252825182820181905260009190848201906040850190845b818110156112a75783516001600160a01b031683529284019291840191600101611282565b50909695505050505050565b60005b838110156112ce5781810151838201526020016112b6565b838111156108125750506000910152565b600081518084526112f78160208601602086016112b3565b601f01601f19169290920160200192915050565b60208152600061097760208301846112df565b60006020828403121561133057600080fd5b5035919050565b80356001600160a01b038116811461134e57600080fd5b919050565b6000806040838503121561136657600080fd5b61136f83611337565b946020939093013593505050565b60008060006060848603121561139257600080fd5b61139b84611337565b92506113a960208501611337565b9150604084013590509250925092565b634e487b7160e01b600052604160045260246000fd5b60006001600160401b03808411156113e9576113e96113b9565b604051601f8501601f19908116603f01168101908282118183101715611411576114116113b9565b8160405280935085815286868601111561142a57600080fd5b858560208301376000602087830101525050509392505050565b60006020828403121561145657600080fd5b81356001600160401b0381111561146c57600080fd5b8201601f8101841361147d57600080fd5b610c56848235602084016113cf565b60006020828403121561149e57600080fd5b61097782611337565b600080604083850312156114ba57600080fd5b6114c383611337565b9150602083013580151581146114d857600080fd5b809150509250929050565b600080600080608085870312156114f957600080fd5b61150285611337565b935061151060208601611337565b92506040850135915060608501356001600160401b0381111561153257600080fd5b8501601f8101871361154357600080fd5b611552878235602084016113cf565b91505092959194509250565b6000806040838503121561157157600080fd5b8235915061158160208401611337565b90509250929050565b6000806040838503121561159d57600080fd5b6115a683611337565b915061158160208401611337565b600181811c908216806115c857607f821691505b602082108114156115e957634e487b7160e01b600052602260045260246000fd5b50919050565b60208082526031908201527f4552433732313a207472616e736665722063616c6c6572206973206e6f74206f6040820152701ddb995c881b9bdc88185c1c1c9bdd9959607a1b606082015260800190565b6020808252818101527f4f776e61626c653a2063616c6c6572206973206e6f7420746865206f776e6572604082015260600190565b600083516116878184602088016112b3565b83519083019061169b8183602088016112b3565b01949350505050565b634e487b7160e01b600052601160045260246000fd5b6000828210156116cc576116cc6116a4565b500390565b600082198211156116e4576116e46116a4565b500190565b60208082526032908201527f4552433732313a207472616e7366657220746f206e6f6e20455243373231526560408201527131b2b4bb32b91034b6b83632b6b2b73a32b960711b606082015260800190565b600060001982141561174f5761174f6116a4565b5060010190565b634e487b7160e01b600052601260045260246000fd5b60008261177b5761177b611756565b500490565b60008261178f5761178f611756565b500690565b634e487b7160e01b600052603260045260246000fd5b6001600160a01b03858116825284166020820152604081018390526080606082018190526000906117dd908301846112df565b9695505050505050565b6000602082840312156117f957600080fd5b81516109778161123356fea26469706673582212202f9a0083ef05ed1424d932a903972421a84e3dfa6454c3dde70a6e343072127264736f6c634300080b0033",
  "immutableReferences": {},
  "source": "// SPDX-License-Identifier: MIT\r\npragma solidity ^0.8.4;\r\npragma experimental ABIEncoderV2;\r\n\r\nimport \"@openzeppelin/contracts/utils/Address.sol\";\r\nimport \"@openzeppelin/contracts/access/AccessControl.sol\";\r\nimport \"@openzeppelin/contracts/access/Ownable.sol\";\r\nimport \"@openzeppelin/contracts/token/ERC721/ERC721.sol\";\r\n\r\ncontract PicardyProfile is ERC721, Ownable {\r\n\r\n    event NewProductAdded (uint indexed productId, address indexed productAddress);\r\n\r\n    address artisteAddress;\r\n    string artisteName;\r\n    string artisteHandle;\r\n    string public baseExtension = \".json\";\r\n    string baseURI;\r\n\r\n    mapping (uint => address[]) productMap;\r\n    address[] products;\r\n\r\n    modifier onlyCreator {\r\n        _onlyCreator();\r\n        _;\r\n    }\r\n\r\n    constructor(address _artisteAddress, string memory _artisteName, string memory _artisteHandle) ERC721(_artisteName, _artisteHandle){\r\n        artisteAddress = _artisteAddress;\r\n        artisteName = _artisteName;\r\n        artisteHandle = _artisteHandle;\r\n        _mint(_artisteAddress, 0);\r\n        transferOwnership(artisteAddress);\r\n    }\r\n\r\n    function addProduct(uint _productId, address _productAddress) external {\r\n        require(tx.origin == artisteAddress);\r\n        address[] storage newProduct = productMap[_productId];\r\n        newProduct.push(_productAddress);\r\n        products.push(_productAddress);\r\n\r\n        emit NewProductAdded(_productId, _productAddress);\r\n    }\r\n\r\n    function setBaseURI(string memory _newBaseURI) external onlyCreator {\r\n    baseURI = _newBaseURI;\r\n    }\r\n\r\n    function getProductsById(uint _productId) external view returns(address[] memory){\r\n        return productMap[_productId];\r\n    }\r\n\r\n    function getAllProducts() external view returns(address[] memory){\r\n        return products;\r\n    }\r\n\r\n    function getArtiste() external view returns(address){\r\n        return artisteAddress;\r\n    }\r\n\r\n    function _onlyCreator() internal view {\r\n        require (msg.sender == artisteAddress, \"You dont have permission\");\r\n    }\r\n    \r\n}\r\n\r\ninterface IPicardyProfile{\r\n    \r\n    function addProduct(uint _productId, address _productAddress) external ;\r\n    \r\n    function getProductsById(uint _productId) external view returns(address[] memory);\r\n\r\n    function getAllProducts() external view returns(address[] memory);\r\n\r\n    function getArtiste() external view returns(address);\r\n}\r\n",
  "sourcePath": "C:\\Users\\USER\\Desktop\\Picardy_Protocol\\contracts\\Users\\PicardyProfile.sol",
  "compiler": {
    "name": "solc",
    "version": "0.8.11+commit.d7f03943.Emscripten.clang"
  },
  "schemaVersion": "3.4.6",
  "updatedAt": "2022-05-28T01:32:57.213Z",
  "devdoc": {
    "kind": "dev",
    "methods": {
      "approve(address,uint256)": {
        "details": "See {IERC721-approve}."
      },
      "balanceOf(address)": {
        "details": "See {IERC721-balanceOf}."
      },
      "getApproved(uint256)": {
        "details": "See {IERC721-getApproved}."
      },
      "isApprovedForAll(address,address)": {
        "details": "See {IERC721-isApprovedForAll}."
      },
      "name()": {
        "details": "See {IERC721Metadata-name}."
      },
      "owner()": {
        "details": "Returns the address of the current owner."
      },
      "ownerOf(uint256)": {
        "details": "See {IERC721-ownerOf}."
      },
      "renounceOwnership()": {
        "details": "Leaves the contract without owner. It will not be possible to call `onlyOwner` functions anymore. Can only be called by the current owner. NOTE: Renouncing ownership will leave the contract without an owner, thereby removing any functionality that is only available to the owner."
      },
      "safeTransferFrom(address,address,uint256)": {
        "details": "See {IERC721-safeTransferFrom}."
      },
      "safeTransferFrom(address,address,uint256,bytes)": {
        "details": "See {IERC721-safeTransferFrom}."
      },
      "setApprovalForAll(address,bool)": {
        "details": "See {IERC721-setApprovalForAll}."
      },
      "supportsInterface(bytes4)": {
        "details": "See {IERC165-supportsInterface}."
      },
      "symbol()": {
        "details": "See {IERC721Metadata-symbol}."
      },
      "tokenURI(uint256)": {
        "details": "See {IERC721Metadata-tokenURI}."
      },
      "transferFrom(address,address,uint256)": {
        "details": "See {IERC721-transferFrom}."
      },
      "transferOwnership(address)": {
        "details": "Transfers ownership of the contract to a new account (`newOwner`). Can only be called by the current owner."
      }
    },
    "version": 1
  },
  "userdoc": {
    "kind": "user",
    "methods": {},
    "version": 1
  }
}