{
  "contractName": "PicardyVault",
  "abi": [
    {
      "inputs": [
        {
          "internalType": "address",
          "name": "_vaultToken",
          "type": "address"
        }
      ],
      "stateMutability": "nonpayable",
      "type": "constructor"
    },
    {
      "anonymous": false,
      "inputs": [
        {
          "indexed": true,
          "internalType": "uint256",
          "name": "amount",
          "type": "uint256"
        },
        {
          "indexed": true,
          "internalType": "address",
          "name": "to",
          "type": "address"
        }
      ],
      "name": "FundsWithdrawn",
      "type": "event"
    },
    {
      "anonymous": false,
      "inputs": [
        {
          "indexed": true,
          "internalType": "address",
          "name": "investor",
          "type": "address"
        }
      ],
      "name": "NewFundInvestor",
      "type": "event"
    },
    {
      "anonymous": false,
      "inputs": [
        {
          "indexed": true,
          "internalType": "address",
          "name": "previousOwner",
          "type": "address"
        },
        {
          "indexed": true,
          "internalType": "address",
          "name": "newOwner",
          "type": "address"
        }
      ],
      "name": "OwnershipTransferred",
      "type": "event"
    },
    {
      "inputs": [],
      "name": "VAULT_TOKEN",
      "outputs": [
        {
          "internalType": "contract IERC20",
          "name": "",
          "type": "address"
        }
      ],
      "stateMutability": "view",
      "type": "function"
    },
    {
      "inputs": [],
      "name": "owner",
      "outputs": [
        {
          "internalType": "address",
          "name": "",
          "type": "address"
        }
      ],
      "stateMutability": "view",
      "type": "function"
    },
    {
      "inputs": [],
      "name": "renounceOwnership",
      "outputs": [],
      "stateMutability": "nonpayable",
      "type": "function"
    },
    {
      "inputs": [
        {
          "internalType": "address",
          "name": "newOwner",
          "type": "address"
        }
      ],
      "name": "transferOwnership",
      "outputs": [],
      "stateMutability": "nonpayable",
      "type": "function"
    },
    {
      "inputs": [
        {
          "internalType": "uint256",
          "name": "_amount",
          "type": "uint256"
        }
      ],
      "name": "JoinVault",
      "outputs": [],
      "stateMutability": "nonpayable",
      "type": "function"
    },
    {
      "inputs": [
        {
          "internalType": "uint256",
          "name": "_amount",
          "type": "uint256"
        }
      ],
      "name": "vaultOwnerWithdraw",
      "outputs": [],
      "stateMutability": "nonpayable",
      "type": "function"
    },
    {
      "inputs": [
        {
          "internalType": "uint256",
          "name": "_amount",
          "type": "uint256"
        },
        {
          "internalType": "address",
          "name": "_to",
          "type": "address"
        }
      ],
      "name": "withdraw",
      "outputs": [],
      "stateMutability": "nonpayable",
      "type": "function"
    },
    {
      "inputs": [],
      "name": "getShareAmount",
      "outputs": [
        {
          "internalType": "uint256",
          "name": "",
          "type": "uint256"
        }
      ],
      "stateMutability": "view",
      "type": "function"
    },
    {
      "inputs": [],
      "name": "getSharesValue",
      "outputs": [
        {
          "internalType": "uint256",
          "name": "",
          "type": "uint256"
        }
      ],
      "stateMutability": "view",
      "type": "function"
    },
    {
      "inputs": [],
      "name": "getVaultSharesAddress",
      "outputs": [
        {
          "internalType": "address",
          "name": "",
          "type": "address"
        }
      ],
      "stateMutability": "view",
      "type": "function"
    }
  ],
  "bytecode": "0x60a060405234801561001057600080fd5b50604051611ca2380380611ca283398101604081905261002f916100fe565b61003833610053565b6001600160a01b03811660805261004d6100a3565b5061012e565b600080546001600160a01b038381166001600160a01b0319831681178455604051919092169283917f8be0079c531659141344cd1fd0a4f28419497f9722a3daafe3b4186f6b6457e09190a35050565b60006040516100b1906100f1565b604051809103906000f0801580156100cd573d6000803e3d6000fd5b50600380546001600160a01b0319166001600160a01b039290921691909117905550565b610f5f80610d4383390190565b60006020828403121561011057600080fd5b81516001600160a01b038116811461012757600080fd5b9392505050565b608051610bdf6101646000396000818160cf015281816101a9015281816102410152818161044101526108d80152610bdf6000f3fe608060405234801561001057600080fd5b506004361061008d5760003560e01c8062f714ce1461009257806336fb15b4146100a75780634499d14b146100ca5780634bef17bf146100f1578063656a06cf14610107578063715018a61461011a5780638da5cb5b146101225780639bc3d6c01461012a578063dd5d4d6f1461013d578063f2fde38b14610145575b600080fd5b6100a56100a0366004610a14565b610158565b005b6003546001600160a01b03165b6040516100c19190610a40565b60405180910390f35b6100b47f000000000000000000000000000000000000000000000000000000000000000081565b6100f96102f8565b6040519081526020016100c1565b6100a5610115366004610a54565b61040e565b6100a56104ee565b6100b4610529565b6100a5610138366004610a54565b610538565b6100f961055c565b6100a5610153366004610a6d565b6105d3565b33610161610529565b6001600160a01b0316146101905760405162461bcd60e51b815260040161018790610a8f565b60405180910390fd5b6040516370a0823160e01b815282906001600160a01b037f000000000000000000000000000000000000000000000000000000000000000016906370a08231906101de903090600401610a40565b602060405180830381865afa1580156101fb573d6000803e3d6000fd5b505050506040513d601f19601f8201168201806040525081019061021f9190610ac4565b101561022a57600080fd5b6040516323b872dd60e01b81526001600160a01b037f000000000000000000000000000000000000000000000000000000000000000016906323b872dd9061027a90309085908790600401610add565b6020604051808303816000875af1158015610299573d6000803e3d6000fd5b505050506040513d601f19601f820116820180604052508101906102bd9190610b01565b506040516001600160a01b0382169083907f6141b54b56b8a52a8c6f5cd2a857f6117b18ffbf4d46bd3106f300a839cbf5ea90600090a35050565b600080600360009054906101000a90046001600160a01b03166001600160a01b03166318160ddd6040518163ffffffff1660e01b8152600401602060405180830381865afa15801561034e573d6000803e3d6000fd5b505050506040513d601f19601f820116820180604052508101906103729190610ac4565b6003546040516370a0823160e01b81529192506000916001600160a01b03909116906370a08231906103a8903390600401610a40565b602060405180830381865afa1580156103c5573d6000803e3d6000fd5b505050506040513d601f19601f820116820180604052508101906103e99190610ac4565b9050600082600154836103fc9190610b39565b6104069190610b58565b949350505050565b80600160008282546104209190610b7a565b909155505060405163a9059cbb60e01b8152306004820152602481018290527f00000000000000000000000000000000000000000000000000000000000000006001600160a01b03169063a9059cbb906044016020604051808303816000875af1158015610492573d6000803e3d6000fd5b505050506040513d601f19601f820116820180604052508101906104b69190610b01565b506104c081610670565b60405133907fa37192df86fa67271dc1f2281b6305c64e57625c81b4887f7308608979ada21a90600090a250565b336104f7610529565b6001600160a01b03161461051d5760405162461bcd60e51b815260040161018790610a8f565b6105276000610724565b565b6000546001600160a01b031690565b806001600082825461054a9190610b92565b90915550610559905081610774565b50565b6003546040516370a0823160e01b81526000916001600160a01b0316906370a082319061058d903390600401610a40565b602060405180830381865afa1580156105aa573d6000803e3d6000fd5b505050506040513d601f19601f820116820180604052508101906105ce9190610ac4565b905090565b336105dc610529565b6001600160a01b0316146106025760405162461bcd60e51b815260040161018790610a8f565b6001600160a01b0381166106675760405162461bcd60e51b815260206004820152602660248201527f4f776e61626c653a206e6577206f776e657220697320746865207a65726f206160448201526564647265737360d01b6064820152608401610187565b61055981610724565b600080600360009054906101000a90046001600160a01b03166001600160a01b03166318160ddd6040518163ffffffff1660e01b8152600401602060405180830381865afa1580156106c6573d6000803e3d6000fd5b505050506040513d601f19601f820116820180604052508101906106ea9190610ac4565b905080610702578291506106fd8261095a565b505050565b60015461070f8285610b39565b6107199190610b58565b91506106fd8261095a565b600080546001600160a01b038381166001600160a01b0319831681178455604051919092169283917f8be0079c531659141344cd1fd0a4f28419497f9722a3daafe3b4186f6b6457e09190a35050565b600354604080516318160ddd60e01b815290516000926001600160a01b0316916318160ddd9160048083019260209291908290030181865afa1580156107be573d6000803e3d6000fd5b505050506040513d601f19601f820116820180604052508101906107e29190610ac4565b6003546040516370a0823160e01b815291925083916001600160a01b03909116906370a0823190610817903390600401610a40565b602060405180830381865afa158015610834573d6000803e3d6000fd5b505050506040513d601f19601f820116820180604052508101906108589190610ac4565b101561089b5760405162461bcd60e51b81526020600482015260126024820152712737ba10309039b430b932903437b63232b960711b6044820152606401610187565b600081600154846108ac9190610b39565b6108b69190610b58565b90506108c1836109c5565b6040516323b872dd60e01b81526001600160a01b037f000000000000000000000000000000000000000000000000000000000000000016906323b872dd9061091190309033908690600401610add565b6020604051808303816000875af1158015610930573d6000803e3d6000fd5b505050506040513d601f19601f820116820180604052508101906109549190610b01565b50505050565b6003546040516394bf804d60e01b8152600481018390523360248201526001600160a01b039091169081906394bf804d906044015b600060405180830381600087803b1580156109a957600080fd5b505af11580156109bd573d6000803e3d6000fd5b505050505050565b600354604051630852cd8d60e31b8152600481018390526001600160a01b039091169081906342966c689060240161098f565b80356001600160a01b0381168114610a0f57600080fd5b919050565b60008060408385031215610a2757600080fd5b82359150610a37602084016109f8565b90509250929050565b6001600160a01b0391909116815260200190565b600060208284031215610a6657600080fd5b5035919050565b600060208284031215610a7f57600080fd5b610a88826109f8565b9392505050565b6020808252818101527f4f776e61626c653a2063616c6c6572206973206e6f7420746865206f776e6572604082015260600190565b600060208284031215610ad657600080fd5b5051919050565b6001600160a01b039384168152919092166020820152604081019190915260600190565b600060208284031215610b1357600080fd5b81518015158114610a8857600080fd5b634e487b7160e01b600052601160045260246000fd5b6000816000190483118215151615610b5357610b53610b23565b500290565b600082610b7557634e487b7160e01b600052601260045260246000fd5b500490565b60008219821115610b8d57610b8d610b23565b500190565b600082821015610ba457610ba4610b23565b50039056fea264697066735822122056c97f6e9f837210f46f5701fb508d142883aa41cceac16e272aa7d2d9d3a6d264736f6c634300080b003360806040523480156200001157600080fd5b50604080518082018252601381527f50696361726479205661756c7420546f6b656e00000000000000000000000000602080830191825283518085019094526007845266282b2a37b5b2b760c91b908401528151919291620000769160039162000105565b5080516200008c90600490602084019062000105565b505050620000a9620000a3620000af60201b60201c565b620000b3565b620001e8565b3390565b600580546001600160a01b038381166001600160a01b0319831681179093556040519116919082907f8be0079c531659141344cd1fd0a4f28419497f9722a3daafe3b4186f6b6457e090600090a35050565b8280546200011390620001ab565b90600052602060002090601f01602090048101928262000137576000855562000182565b82601f106200015257805160ff191683800117855562000182565b8280016001018555821562000182579182015b828111156200018257825182559160200191906001019062000165565b506200019092915062000194565b5090565b5b8082111562000190576000815560010162000195565b600181811c90821680620001c057607f821691505b60208210811415620001e257634e487b7160e01b600052602260045260246000fd5b50919050565b610d6780620001f86000396000f3fe608060405234801561001057600080fd5b50600436106100d05760003560e01c806306fdde03146100d5578063095ea7b3146100f357806318160ddd1461011657806323b872dd14610128578063313ce5671461013b578063395093511461014a57806342966c681461015d57806370a0823114610172578063715018a61461019b5780638da5cb5b146101a357806394bf804d146101c357806395d89b41146101d6578063a457c2d7146101de578063a9059cbb146101f1578063dd62ed3e14610204578063f2fde38b14610217575b600080fd5b6100dd61022a565b6040516100ea9190610af4565b60405180910390f35b610106610101366004610b65565b6102bc565b60405190151581526020016100ea565b6002545b6040519081526020016100ea565b610106610136366004610b8f565b6102d4565b604051601281526020016100ea565b610106610158366004610b65565b6102f8565b61017061016b366004610bcb565b61031a565b005b61011a610180366004610be4565b6001600160a01b031660009081526020819052604090205490565b61017061035f565b6101ab61039a565b6040516001600160a01b0390911681526020016100ea565b6101706101d1366004610c06565b6103a9565b6100dd6103e6565b6101066101ec366004610b65565b6103f5565b6101066101ff366004610b65565b610470565b61011a610212366004610c32565b61047e565b610170610225366004610be4565b6104a9565b60606003805461023990610c5c565b80601f016020809104026020016040519081016040528092919081815260200182805461026590610c5c565b80156102b25780601f10610287576101008083540402835291602001916102b2565b820191906000526020600020905b81548152906001019060200180831161029557829003601f168201915b5050505050905090565b6000336102ca818585610546565b5060019392505050565b6000336102e285828561066b565b6102ed8585856106e5565b506001949350505050565b6000336102ca81858561030b838361047e565b6103159190610cad565b610546565b3361032361039a565b6001600160a01b0316146103525760405162461bcd60e51b815260040161034990610cc5565b60405180910390fd5b61035c32826108a1565b50565b3361036861039a565b6001600160a01b03161461038e5760405162461bcd60e51b815260040161034990610cc5565b61039860006109d5565b565b6005546001600160a01b031690565b336103b261039a565b6001600160a01b0316146103d85760405162461bcd60e51b815260040161034990610cc5565b6103e28183610a27565b5050565b60606004805461023990610c5c565b60003381610403828661047e565b9050838110156104635760405162461bcd60e51b815260206004820152602560248201527f45524332303a2064656372656173656420616c6c6f77616e63652062656c6f77604482015264207a65726f60d81b6064820152608401610349565b6102ed8286868403610546565b6000336102ca8185856106e5565b6001600160a01b03918216600090815260016020908152604080832093909416825291909152205490565b336104b261039a565b6001600160a01b0316146104d85760405162461bcd60e51b815260040161034990610cc5565b6001600160a01b03811661053d5760405162461bcd60e51b815260206004820152602660248201527f4f776e61626c653a206e6577206f776e657220697320746865207a65726f206160448201526564647265737360d01b6064820152608401610349565b61035c816109d5565b6001600160a01b0383166105a85760405162461bcd60e51b8152602060048201526024808201527f45524332303a20617070726f76652066726f6d20746865207a65726f206164646044820152637265737360e01b6064820152608401610349565b6001600160a01b0382166106095760405162461bcd60e51b815260206004820152602260248201527f45524332303a20617070726f766520746f20746865207a65726f206164647265604482015261737360f01b6064820152608401610349565b6001600160a01b0383811660008181526001602090815260408083209487168084529482529182902085905590518481527f8c5be1e5ebec7d5bd14f71427d1e84f3dd0314c0f7b2291e5b200ac8c7c3b92591015b60405180910390a3505050565b6000610677848461047e565b905060001981146106df57818110156106d25760405162461bcd60e51b815260206004820152601d60248201527f45524332303a20696e73756666696369656e7420616c6c6f77616e63650000006044820152606401610349565b6106df8484848403610546565b50505050565b6001600160a01b0383166107495760405162461bcd60e51b815260206004820152602560248201527f45524332303a207472616e736665722066726f6d20746865207a65726f206164604482015264647265737360d81b6064820152608401610349565b6001600160a01b0382166107ab5760405162461bcd60e51b815260206004820152602360248201527f45524332303a207472616e7366657220746f20746865207a65726f206164647260448201526265737360e81b6064820152608401610349565b6001600160a01b038316600090815260208190526040902054818110156108235760405162461bcd60e51b815260206004820152602660248201527f45524332303a207472616e7366657220616d6f756e7420657863656564732062604482015265616c616e636560d01b6064820152608401610349565b6001600160a01b0380851660009081526020819052604080822085850390559185168152908120805484929061085a908490610cad565b92505081905550826001600160a01b0316846001600160a01b0316600080516020610d128339815191528460405161089491815260200190565b60405180910390a36106df565b6001600160a01b0382166109015760405162461bcd60e51b815260206004820152602160248201527f45524332303a206275726e2066726f6d20746865207a65726f206164647265736044820152607360f81b6064820152608401610349565b6001600160a01b038216600090815260208190526040902054818110156109755760405162461bcd60e51b815260206004820152602260248201527f45524332303a206275726e20616d6f756e7420657863656564732062616c616e604482015261636560f01b6064820152608401610349565b6001600160a01b03831660009081526020819052604081208383039055600280548492906109a4908490610cfa565b90915550506040518281526000906001600160a01b03851690600080516020610d128339815191529060200161065e565b600580546001600160a01b038381166001600160a01b0319831681179093556040519116919082907f8be0079c531659141344cd1fd0a4f28419497f9722a3daafe3b4186f6b6457e090600090a35050565b6001600160a01b038216610a7d5760405162461bcd60e51b815260206004820152601f60248201527f45524332303a206d696e7420746f20746865207a65726f2061646472657373006044820152606401610349565b8060026000828254610a8f9190610cad565b90915550506001600160a01b03821660009081526020819052604081208054839290610abc908490610cad565b90915550506040518181526001600160a01b03831690600090600080516020610d128339815191529060200160405180910390a35050565b600060208083528351808285015260005b81811015610b2157858101830151858201604001528201610b05565b81811115610b33576000604083870101525b50601f01601f1916929092016040019392505050565b80356001600160a01b0381168114610b6057600080fd5b919050565b60008060408385031215610b7857600080fd5b610b8183610b49565b946020939093013593505050565b600080600060608486031215610ba457600080fd5b610bad84610b49565b9250610bbb60208501610b49565b9150604084013590509250925092565b600060208284031215610bdd57600080fd5b5035919050565b600060208284031215610bf657600080fd5b610bff82610b49565b9392505050565b60008060408385031215610c1957600080fd5b82359150610c2960208401610b49565b90509250929050565b60008060408385031215610c4557600080fd5b610c4e83610b49565b9150610c2960208401610b49565b600181811c90821680610c7057607f821691505b60208210811415610c9157634e487b7160e01b600052602260045260246000fd5b50919050565b634e487b7160e01b600052601160045260246000fd5b60008219821115610cc057610cc0610c97565b500190565b6020808252818101527f4f776e61626c653a2063616c6c6572206973206e6f7420746865206f776e6572604082015260600190565b600082821015610d0c57610d0c610c97565b50039056feddf252ad1be2c89b69c2b068fc378daa952ba7f163c4a11628f55a4df523b3efa26469706673582212206b90fedb96f9fd8c16b9bc226cf30d1e7bde1951385028f552a7d6048407a91b64736f6c634300080b0033",
  "immutableReferences": {
    "11942": [
      {
        "length": 32,
        "start": 207
      },
      {
        "length": 32,
        "start": 425
      },
      {
        "length": 32,
        "start": 577
      },
      {
        "length": 32,
        "start": 1089
      },
      {
        "length": 32,
        "start": 2264
      }
    ]
  },
  "source": "/**\r\n    @author Blok Hamster \r\n */\r\n\r\n// SPDX-License-Identifier: MIT\r\npragma solidity ^0.8.4;\r\npragma experimental ABIEncoderV2;\r\n\r\nimport \"../Tokens/VSToken.sol\";\r\nimport \"@openzeppelin/contracts/token/ERC20/IERC20.sol\";\r\nimport \"@openzeppelin/contracts/access/Ownable.sol\";\r\n\r\n\r\ncontract PicardyVault is Ownable {\r\n\r\n    event FundsWithdrawn(uint indexed amount, address indexed to);\r\n    event NewFundInvestor(address indexed investor);\r\n   \r\n    uint vaultBalance;\r\n    mapping (address => uint) UserShares;\r\n    IERC20 public immutable VAULT_TOKEN;\r\n    VSToken vsToken;\r\n\r\n    constructor (address _vaultToken){\r\n        VAULT_TOKEN = IERC20(_vaultToken);\r\n        _start();\r\n    }\r\n\r\n    /**\r\n    \r\n     */\r\n    function JoinVault(uint _amount) external {\r\n        vaultBalance += _amount;\r\n        VAULT_TOKEN.transfer(address(this), _amount);\r\n        _mintShares(_amount);\r\n\r\n        emit NewFundInvestor(msg.sender);\r\n    }\r\n\r\n\r\n    /**\r\n    \r\n     */\r\n    function vaultOwnerWithdraw(uint _amount) external {\r\n        vaultBalance -= _amount;\r\n        _burnShares(_amount);\r\n    }\r\n\r\n    function withdraw(uint _amount, address _to) external onlyOwner{\r\n        require(IERC20(VAULT_TOKEN).balanceOf(address(this)) >= _amount);\r\n        IERC20(VAULT_TOKEN).transferFrom(address(this), _to, _amount);\r\n\r\n        emit FundsWithdrawn(_amount , _to);\r\n    }\r\n\r\n    /**\r\n    \r\n     */\r\n    function getShareAmount() external view returns(uint){\r\n        return IERC20(vsToken).balanceOf(msg.sender);\r\n    }\r\n\r\n    /**\r\n    \r\n     */\r\n    function getSharesValue() external view returns (uint){\r\n        uint totalSupply = (IERC20(vsToken).totalSupply());\r\n        uint sharesBalance = IERC20(vsToken).balanceOf(msg.sender);\r\n        uint shareValue = (sharesBalance * vaultBalance) / totalSupply;\r\n\r\n        return shareValue;\r\n    }\r\n\r\n    function getVaultSharesAddress() external view returns(address){\r\n        return address(vsToken);\r\n    }\r\n\r\n\r\n    \r\n    // SEND TO COMPOUND FINANCE//\r\n\r\n    /**\r\n    \r\n     */\r\n    function supplyTo() internal {\r\n\r\n    }\r\n\r\n\r\n    /**\r\n    \r\n     */\r\n    function returnFrom() internal {\r\n\r\n    }\r\n\r\n    \r\n    // INTERNAL FUNCTIONS//\r\n\r\n    /**\r\n    \r\n     */\r\n    function _start() internal {\r\n        VSToken newVSToken = new VSToken();\r\n        vsToken = newVSToken; \r\n    }\r\n\r\n    \r\n    /**\r\n        The volt shares mint calculation\r\n        a = amount\r\n        b = balance before mint \r\n        t = total supply of shares\r\n        s = shares to mint \r\n\r\n        s = at/b\r\n    */\r\n    function _mintShares(uint _amount) internal {\r\n        uint shares;\r\n        uint totalSupply = IERC20(vsToken).totalSupply();\r\n\r\n        if(totalSupply == 0 ){\r\n            shares = _amount;\r\n            _mint(shares);\r\n        } else {\r\n            shares = (_amount * totalSupply) / vaultBalance;\r\n            _mint(shares);\r\n        }\r\n       \r\n    }\r\n\r\n    /**\r\n    \r\n     */\r\n    function _mint(uint _amount) internal {\r\n        VSToken newVSToken = VSToken(vsToken);\r\n        newVSToken.mint(_amount, msg.sender);\r\n    }\r\n\r\n\r\n    /**\r\n        The volt shares burn calculation\r\n        a = amount\r\n        b = balance before burn \r\n        t = total supply of shares\r\n        s = shares to burn \r\n\r\n        a = sb/t\r\n    */\r\n    function _burnShares(uint _amount) internal {\r\n        uint totalSupply = IERC20(vsToken).totalSupply();\r\n        \r\n        require(IERC20(vsToken).balanceOf(msg.sender) >= _amount, \"Not a share holder\");\r\n        uint toWithdraw = (_amount * vaultBalance) / totalSupply;\r\n        _burn(_amount);\r\n        VAULT_TOKEN.transferFrom(address(this), msg.sender, toWithdraw);\r\n\r\n    }\r\n\r\n    /**\r\n    \r\n     */\r\n    function _burn(uint _amount) internal {\r\n        VSToken newVSToken = VSToken(vsToken);\r\n        newVSToken.burn(_amount);\r\n    }\r\n\r\n}\r\n\r\ninterface IPicardyVault{\r\n    \r\n    function JoinVault(uint _amount) external;\r\n    \r\n    function vaultOwnerWithdraw(uint _amount) external;\r\n    \r\n    function getShareAmount() external view returns(uint);\r\n    \r\n    function getSharesValue() external view returns (uint);\r\n\r\n}",
  "sourcePath": "C:\\Users\\USER\\Desktop\\Picardy_Protocol\\contracts\\Products\\PicardyVault.sol",
  "compiler": {
    "name": "solc",
    "version": "0.8.11+commit.d7f03943.Emscripten.clang"
  },
  "schemaVersion": "3.4.6",
  "updatedAt": "2022-05-28T01:32:57.117Z",
  "devdoc": {
    "kind": "dev",
    "methods": {
      "owner()": {
        "details": "Returns the address of the current owner."
      },
      "renounceOwnership()": {
        "details": "Leaves the contract without owner. It will not be possible to call `onlyOwner` functions anymore. Can only be called by the current owner. NOTE: Renouncing ownership will leave the contract without an owner, thereby removing any functionality that is only available to the owner."
      },
      "transferOwnership(address)": {
        "details": "Transfers ownership of the contract to a new account (`newOwner`). Can only be called by the current owner."
      }
    },
    "version": 1
  },
  "userdoc": {
    "kind": "user",
    "methods": {},
    "version": 1
  }
}