{
  "contractName": "PicardyGovernor",
  "abi": [
    {
      "inputs": [],
      "stateMutability": "nonpayable",
      "type": "constructor"
    },
    {
      "anonymous": false,
      "inputs": [
        {
          "indexed": false,
          "internalType": "address",
          "name": "previousAdmin",
          "type": "address"
        },
        {
          "indexed": false,
          "internalType": "address",
          "name": "newAdmin",
          "type": "address"
        }
      ],
      "name": "AdminChanged",
      "type": "event"
    },
    {
      "anonymous": false,
      "inputs": [
        {
          "indexed": true,
          "internalType": "address",
          "name": "beacon",
          "type": "address"
        }
      ],
      "name": "BeaconUpgraded",
      "type": "event"
    },
    {
      "anonymous": false,
      "inputs": [
        {
          "indexed": true,
          "internalType": "address",
          "name": "previousOwner",
          "type": "address"
        },
        {
          "indexed": true,
          "internalType": "address",
          "name": "newOwner",
          "type": "address"
        }
      ],
      "name": "OwnershipTransferred",
      "type": "event"
    },
    {
      "anonymous": false,
      "inputs": [
        {
          "indexed": false,
          "internalType": "uint256",
          "name": "proposalId",
          "type": "uint256"
        }
      ],
      "name": "ProposalCanceled",
      "type": "event"
    },
    {
      "anonymous": false,
      "inputs": [
        {
          "indexed": false,
          "internalType": "uint256",
          "name": "proposalId",
          "type": "uint256"
        },
        {
          "indexed": false,
          "internalType": "address",
          "name": "proposer",
          "type": "address"
        },
        {
          "indexed": false,
          "internalType": "address[]",
          "name": "targets",
          "type": "address[]"
        },
        {
          "indexed": false,
          "internalType": "uint256[]",
          "name": "values",
          "type": "uint256[]"
        },
        {
          "indexed": false,
          "internalType": "string[]",
          "name": "signatures",
          "type": "string[]"
        },
        {
          "indexed": false,
          "internalType": "bytes[]",
          "name": "calldatas",
          "type": "bytes[]"
        },
        {
          "indexed": false,
          "internalType": "uint256",
          "name": "startBlock",
          "type": "uint256"
        },
        {
          "indexed": false,
          "internalType": "uint256",
          "name": "endBlock",
          "type": "uint256"
        },
        {
          "indexed": false,
          "internalType": "string",
          "name": "description",
          "type": "string"
        }
      ],
      "name": "ProposalCreated",
      "type": "event"
    },
    {
      "anonymous": false,
      "inputs": [
        {
          "indexed": false,
          "internalType": "uint256",
          "name": "proposalId",
          "type": "uint256"
        }
      ],
      "name": "ProposalExecuted",
      "type": "event"
    },
    {
      "anonymous": false,
      "inputs": [
        {
          "indexed": false,
          "internalType": "uint256",
          "name": "proposalId",
          "type": "uint256"
        },
        {
          "indexed": false,
          "internalType": "uint256",
          "name": "eta",
          "type": "uint256"
        }
      ],
      "name": "ProposalQueued",
      "type": "event"
    },
    {
      "anonymous": false,
      "inputs": [
        {
          "indexed": false,
          "internalType": "uint256",
          "name": "oldProposalThreshold",
          "type": "uint256"
        },
        {
          "indexed": false,
          "internalType": "uint256",
          "name": "newProposalThreshold",
          "type": "uint256"
        }
      ],
      "name": "ProposalThresholdSet",
      "type": "event"
    },
    {
      "anonymous": false,
      "inputs": [
        {
          "indexed": false,
          "internalType": "uint256",
          "name": "oldQuorumNumerator",
          "type": "uint256"
        },
        {
          "indexed": false,
          "internalType": "uint256",
          "name": "newQuorumNumerator",
          "type": "uint256"
        }
      ],
      "name": "QuorumNumeratorUpdated",
      "type": "event"
    },
    {
      "anonymous": false,
      "inputs": [
        {
          "indexed": false,
          "internalType": "address",
          "name": "oldTimelock",
          "type": "address"
        },
        {
          "indexed": false,
          "internalType": "address",
          "name": "newTimelock",
          "type": "address"
        }
      ],
      "name": "TimelockChange",
      "type": "event"
    },
    {
      "anonymous": false,
      "inputs": [
        {
          "indexed": true,
          "internalType": "address",
          "name": "implementation",
          "type": "address"
        }
      ],
      "name": "Upgraded",
      "type": "event"
    },
    {
      "anonymous": false,
      "inputs": [
        {
          "indexed": true,
          "internalType": "address",
          "name": "voter",
          "type": "address"
        },
        {
          "indexed": false,
          "internalType": "uint256",
          "name": "proposalId",
          "type": "uint256"
        },
        {
          "indexed": false,
          "internalType": "uint8",
          "name": "support",
          "type": "uint8"
        },
        {
          "indexed": false,
          "internalType": "uint256",
          "name": "weight",
          "type": "uint256"
        },
        {
          "indexed": false,
          "internalType": "string",
          "name": "reason",
          "type": "string"
        }
      ],
      "name": "VoteCast",
      "type": "event"
    },
    {
      "anonymous": false,
      "inputs": [
        {
          "indexed": false,
          "internalType": "uint256",
          "name": "oldVotingDelay",
          "type": "uint256"
        },
        {
          "indexed": false,
          "internalType": "uint256",
          "name": "newVotingDelay",
          "type": "uint256"
        }
      ],
      "name": "VotingDelaySet",
      "type": "event"
    },
    {
      "anonymous": false,
      "inputs": [
        {
          "indexed": false,
          "internalType": "uint256",
          "name": "oldVotingPeriod",
          "type": "uint256"
        },
        {
          "indexed": false,
          "internalType": "uint256",
          "name": "newVotingPeriod",
          "type": "uint256"
        }
      ],
      "name": "VotingPeriodSet",
      "type": "event"
    },
    {
      "inputs": [],
      "name": "BALLOT_TYPEHASH",
      "outputs": [
        {
          "internalType": "bytes32",
          "name": "",
          "type": "bytes32"
        }
      ],
      "stateMutability": "view",
      "type": "function"
    },
    {
      "inputs": [],
      "name": "COUNTING_MODE",
      "outputs": [
        {
          "internalType": "string",
          "name": "",
          "type": "string"
        }
      ],
      "stateMutability": "pure",
      "type": "function"
    },
    {
      "inputs": [
        {
          "internalType": "uint256",
          "name": "proposalId",
          "type": "uint256"
        }
      ],
      "name": "cancel",
      "outputs": [],
      "stateMutability": "nonpayable",
      "type": "function"
    },
    {
      "inputs": [
        {
          "internalType": "uint256",
          "name": "proposalId",
          "type": "uint256"
        },
        {
          "internalType": "uint8",
          "name": "support",
          "type": "uint8"
        }
      ],
      "name": "castVote",
      "outputs": [
        {
          "internalType": "uint256",
          "name": "",
          "type": "uint256"
        }
      ],
      "stateMutability": "nonpayable",
      "type": "function"
    },
    {
      "inputs": [
        {
          "internalType": "uint256",
          "name": "proposalId",
          "type": "uint256"
        },
        {
          "internalType": "uint8",
          "name": "support",
          "type": "uint8"
        },
        {
          "internalType": "uint8",
          "name": "v",
          "type": "uint8"
        },
        {
          "internalType": "bytes32",
          "name": "r",
          "type": "bytes32"
        },
        {
          "internalType": "bytes32",
          "name": "s",
          "type": "bytes32"
        }
      ],
      "name": "castVoteBySig",
      "outputs": [
        {
          "internalType": "uint256",
          "name": "",
          "type": "uint256"
        }
      ],
      "stateMutability": "nonpayable",
      "type": "function"
    },
    {
      "inputs": [
        {
          "internalType": "uint256",
          "name": "proposalId",
          "type": "uint256"
        },
        {
          "internalType": "uint8",
          "name": "support",
          "type": "uint8"
        },
        {
          "internalType": "string",
          "name": "reason",
          "type": "string"
        }
      ],
      "name": "castVoteWithReason",
      "outputs": [
        {
          "internalType": "uint256",
          "name": "",
          "type": "uint256"
        }
      ],
      "stateMutability": "nonpayable",
      "type": "function"
    },
    {
      "inputs": [
        {
          "internalType": "address[]",
          "name": "targets",
          "type": "address[]"
        },
        {
          "internalType": "uint256[]",
          "name": "values",
          "type": "uint256[]"
        },
        {
          "internalType": "bytes[]",
          "name": "calldatas",
          "type": "bytes[]"
        },
        {
          "internalType": "bytes32",
          "name": "descriptionHash",
          "type": "bytes32"
        }
      ],
      "name": "execute",
      "outputs": [
        {
          "internalType": "uint256",
          "name": "",
          "type": "uint256"
        }
      ],
      "stateMutability": "payable",
      "type": "function"
    },
    {
      "inputs": [
        {
          "internalType": "uint256",
          "name": "proposalId",
          "type": "uint256"
        }
      ],
      "name": "execute",
      "outputs": [],
      "stateMutability": "payable",
      "type": "function"
    },
    {
      "inputs": [
        {
          "internalType": "uint256",
          "name": "proposalId",
          "type": "uint256"
        }
      ],
      "name": "getActions",
      "outputs": [
        {
          "internalType": "address[]",
          "name": "targets",
          "type": "address[]"
        },
        {
          "internalType": "uint256[]",
          "name": "values",
          "type": "uint256[]"
        },
        {
          "internalType": "string[]",
          "name": "signatures",
          "type": "string[]"
        },
        {
          "internalType": "bytes[]",
          "name": "calldatas",
          "type": "bytes[]"
        }
      ],
      "stateMutability": "view",
      "type": "function"
    },
    {
      "inputs": [
        {
          "internalType": "uint256",
          "name": "proposalId",
          "type": "uint256"
        },
        {
          "internalType": "address",
          "name": "voter",
          "type": "address"
        }
      ],
      "name": "getReceipt",
      "outputs": [
        {
          "components": [
            {
              "internalType": "bool",
              "name": "hasVoted",
              "type": "bool"
            },
            {
              "internalType": "uint8",
              "name": "support",
              "type": "uint8"
            },
            {
              "internalType": "uint96",
              "name": "votes",
              "type": "uint96"
            }
          ],
          "internalType": "struct IGovernorCompatibilityBravoUpgradeable.Receipt",
          "name": "",
          "type": "tuple"
        }
      ],
      "stateMutability": "view",
      "type": "function"
    },
    {
      "inputs": [
        {
          "internalType": "uint256",
          "name": "proposalId",
          "type": "uint256"
        },
        {
          "internalType": "address",
          "name": "account",
          "type": "address"
        }
      ],
      "name": "hasVoted",
      "outputs": [
        {
          "internalType": "bool",
          "name": "",
          "type": "bool"
        }
      ],
      "stateMutability": "view",
      "type": "function"
    },
    {
      "inputs": [
        {
          "internalType": "address[]",
          "name": "targets",
          "type": "address[]"
        },
        {
          "internalType": "uint256[]",
          "name": "values",
          "type": "uint256[]"
        },
        {
          "internalType": "bytes[]",
          "name": "calldatas",
          "type": "bytes[]"
        },
        {
          "internalType": "bytes32",
          "name": "descriptionHash",
          "type": "bytes32"
        }
      ],
      "name": "hashProposal",
      "outputs": [
        {
          "internalType": "uint256",
          "name": "",
          "type": "uint256"
        }
      ],
      "stateMutability": "pure",
      "type": "function"
    },
    {
      "inputs": [],
      "name": "name",
      "outputs": [
        {
          "internalType": "string",
          "name": "",
          "type": "string"
        }
      ],
      "stateMutability": "view",
      "type": "function"
    },
    {
      "inputs": [],
      "name": "owner",
      "outputs": [
        {
          "internalType": "address",
          "name": "",
          "type": "address"
        }
      ],
      "stateMutability": "view",
      "type": "function"
    },
    {
      "inputs": [
        {
          "internalType": "uint256",
          "name": "proposalId",
          "type": "uint256"
        }
      ],
      "name": "proposalDeadline",
      "outputs": [
        {
          "internalType": "uint256",
          "name": "",
          "type": "uint256"
        }
      ],
      "stateMutability": "view",
      "type": "function"
    },
    {
      "inputs": [
        {
          "internalType": "uint256",
          "name": "proposalId",
          "type": "uint256"
        }
      ],
      "name": "proposalEta",
      "outputs": [
        {
          "internalType": "uint256",
          "name": "",
          "type": "uint256"
        }
      ],
      "stateMutability": "view",
      "type": "function"
    },
    {
      "inputs": [
        {
          "internalType": "uint256",
          "name": "proposalId",
          "type": "uint256"
        }
      ],
      "name": "proposalSnapshot",
      "outputs": [
        {
          "internalType": "uint256",
          "name": "",
          "type": "uint256"
        }
      ],
      "stateMutability": "view",
      "type": "function"
    },
    {
      "inputs": [
        {
          "internalType": "uint256",
          "name": "proposalId",
          "type": "uint256"
        }
      ],
      "name": "proposals",
      "outputs": [
        {
          "internalType": "uint256",
          "name": "id",
          "type": "uint256"
        },
        {
          "internalType": "address",
          "name": "proposer",
          "type": "address"
        },
        {
          "internalType": "uint256",
          "name": "eta",
          "type": "uint256"
        },
        {
          "internalType": "uint256",
          "name": "startBlock",
          "type": "uint256"
        },
        {
          "internalType": "uint256",
          "name": "endBlock",
          "type": "uint256"
        },
        {
          "internalType": "uint256",
          "name": "forVotes",
          "type": "uint256"
        },
        {
          "internalType": "uint256",
          "name": "againstVotes",
          "type": "uint256"
        },
        {
          "internalType": "uint256",
          "name": "abstainVotes",
          "type": "uint256"
        },
        {
          "internalType": "bool",
          "name": "canceled",
          "type": "bool"
        },
        {
          "internalType": "bool",
          "name": "executed",
          "type": "bool"
        }
      ],
      "stateMutability": "view",
      "type": "function"
    },
    {
      "inputs": [],
      "name": "proxiableUUID",
      "outputs": [
        {
          "internalType": "bytes32",
          "name": "",
          "type": "bytes32"
        }
      ],
      "stateMutability": "view",
      "type": "function"
    },
    {
      "inputs": [
        {
          "internalType": "address[]",
          "name": "targets",
          "type": "address[]"
        },
        {
          "internalType": "uint256[]",
          "name": "values",
          "type": "uint256[]"
        },
        {
          "internalType": "bytes[]",
          "name": "calldatas",
          "type": "bytes[]"
        },
        {
          "internalType": "bytes32",
          "name": "descriptionHash",
          "type": "bytes32"
        }
      ],
      "name": "queue",
      "outputs": [
        {
          "internalType": "uint256",
          "name": "",
          "type": "uint256"
        }
      ],
      "stateMutability": "nonpayable",
      "type": "function"
    },
    {
      "inputs": [
        {
          "internalType": "uint256",
          "name": "proposalId",
          "type": "uint256"
        }
      ],
      "name": "queue",
      "outputs": [],
      "stateMutability": "nonpayable",
      "type": "function"
    },
    {
      "inputs": [],
      "name": "quorumDenominator",
      "outputs": [
        {
          "internalType": "uint256",
          "name": "",
          "type": "uint256"
        }
      ],
      "stateMutability": "view",
      "type": "function"
    },
    {
      "inputs": [],
      "name": "quorumNumerator",
      "outputs": [
        {
          "internalType": "uint256",
          "name": "",
          "type": "uint256"
        }
      ],
      "stateMutability": "view",
      "type": "function"
    },
    {
      "inputs": [],
      "name": "quorumVotes",
      "outputs": [
        {
          "internalType": "uint256",
          "name": "",
          "type": "uint256"
        }
      ],
      "stateMutability": "view",
      "type": "function"
    },
    {
      "inputs": [
        {
          "internalType": "address",
          "name": "target",
          "type": "address"
        },
        {
          "internalType": "uint256",
          "name": "value",
          "type": "uint256"
        },
        {
          "internalType": "bytes",
          "name": "data",
          "type": "bytes"
        }
      ],
      "name": "relay",
      "outputs": [],
      "stateMutability": "nonpayable",
      "type": "function"
    },
    {
      "inputs": [],
      "name": "renounceOwnership",
      "outputs": [],
      "stateMutability": "nonpayable",
      "type": "function"
    },
    {
      "inputs": [
        {
          "internalType": "uint256",
          "name": "newProposalThreshold",
          "type": "uint256"
        }
      ],
      "name": "setProposalThreshold",
      "outputs": [],
      "stateMutability": "nonpayable",
      "type": "function"
    },
    {
      "inputs": [
        {
          "internalType": "uint256",
          "name": "newVotingDelay",
          "type": "uint256"
        }
      ],
      "name": "setVotingDelay",
      "outputs": [],
      "stateMutability": "nonpayable",
      "type": "function"
    },
    {
      "inputs": [
        {
          "internalType": "uint256",
          "name": "newVotingPeriod",
          "type": "uint256"
        }
      ],
      "name": "setVotingPeriod",
      "outputs": [],
      "stateMutability": "nonpayable",
      "type": "function"
    },
    {
      "inputs": [],
      "name": "timelock",
      "outputs": [
        {
          "internalType": "address",
          "name": "",
          "type": "address"
        }
      ],
      "stateMutability": "view",
      "type": "function"
    },
    {
      "inputs": [],
      "name": "token",
      "outputs": [
        {
          "internalType": "contract IVotesUpgradeable",
          "name": "",
          "type": "address"
        }
      ],
      "stateMutability": "view",
      "type": "function"
    },
    {
      "inputs": [
        {
          "internalType": "address",
          "name": "newOwner",
          "type": "address"
        }
      ],
      "name": "transferOwnership",
      "outputs": [],
      "stateMutability": "nonpayable",
      "type": "function"
    },
    {
      "inputs": [
        {
          "internalType": "uint256",
          "name": "newQuorumNumerator",
          "type": "uint256"
        }
      ],
      "name": "updateQuorumNumerator",
      "outputs": [],
      "stateMutability": "nonpayable",
      "type": "function"
    },
    {
      "inputs": [
        {
          "internalType": "contract TimelockControllerUpgradeable",
          "name": "newTimelock",
          "type": "address"
        }
      ],
      "name": "updateTimelock",
      "outputs": [],
      "stateMutability": "nonpayable",
      "type": "function"
    },
    {
      "inputs": [
        {
          "internalType": "address",
          "name": "newImplementation",
          "type": "address"
        }
      ],
      "name": "upgradeTo",
      "outputs": [],
      "stateMutability": "nonpayable",
      "type": "function"
    },
    {
      "inputs": [
        {
          "internalType": "address",
          "name": "newImplementation",
          "type": "address"
        },
        {
          "internalType": "bytes",
          "name": "data",
          "type": "bytes"
        }
      ],
      "name": "upgradeToAndCall",
      "outputs": [],
      "stateMutability": "payable",
      "type": "function"
    },
    {
      "inputs": [],
      "name": "version",
      "outputs": [
        {
          "internalType": "string",
          "name": "",
          "type": "string"
        }
      ],
      "stateMutability": "view",
      "type": "function"
    },
    {
      "stateMutability": "payable",
      "type": "receive"
    },
    {
      "inputs": [
        {
          "internalType": "contract IVotesUpgradeable",
          "name": "_token",
          "type": "address"
        },
        {
          "internalType": "contract TimelockControllerUpgradeable",
          "name": "_timelock",
          "type": "address"
        }
      ],
      "name": "initialize",
      "outputs": [],
      "stateMutability": "nonpayable",
      "type": "function"
    },
    {
      "inputs": [],
      "name": "votingDelay",
      "outputs": [
        {
          "internalType": "uint256",
          "name": "",
          "type": "uint256"
        }
      ],
      "stateMutability": "view",
      "type": "function"
    },
    {
      "inputs": [],
      "name": "votingPeriod",
      "outputs": [
        {
          "internalType": "uint256",
          "name": "",
          "type": "uint256"
        }
      ],
      "stateMutability": "view",
      "type": "function"
    },
    {
      "inputs": [
        {
          "internalType": "uint256",
          "name": "blockNumber",
          "type": "uint256"
        }
      ],
      "name": "quorum",
      "outputs": [
        {
          "internalType": "uint256",
          "name": "",
          "type": "uint256"
        }
      ],
      "stateMutability": "view",
      "type": "function"
    },
    {
      "inputs": [
        {
          "internalType": "address",
          "name": "account",
          "type": "address"
        },
        {
          "internalType": "uint256",
          "name": "blockNumber",
          "type": "uint256"
        }
      ],
      "name": "getVotes",
      "outputs": [
        {
          "internalType": "uint256",
          "name": "",
          "type": "uint256"
        }
      ],
      "stateMutability": "view",
      "type": "function"
    },
    {
      "inputs": [
        {
          "internalType": "uint256",
          "name": "proposalId",
          "type": "uint256"
        }
      ],
      "name": "state",
      "outputs": [
        {
          "internalType": "enum IGovernorUpgradeable.ProposalState",
          "name": "",
          "type": "uint8"
        }
      ],
      "stateMutability": "view",
      "type": "function"
    },
    {
      "inputs": [
        {
          "internalType": "address[]",
          "name": "targets",
          "type": "address[]"
        },
        {
          "internalType": "uint256[]",
          "name": "values",
          "type": "uint256[]"
        },
        {
          "internalType": "bytes[]",
          "name": "calldatas",
          "type": "bytes[]"
        },
        {
          "internalType": "string",
          "name": "description",
          "type": "string"
        }
      ],
      "name": "propose",
      "outputs": [
        {
          "internalType": "uint256",
          "name": "",
          "type": "uint256"
        }
      ],
      "stateMutability": "nonpayable",
      "type": "function"
    },
    {
      "inputs": [
        {
          "internalType": "address[]",
          "name": "targets",
          "type": "address[]"
        },
        {
          "internalType": "uint256[]",
          "name": "values",
          "type": "uint256[]"
        },
        {
          "internalType": "string[]",
          "name": "signatures",
          "type": "string[]"
        },
        {
          "internalType": "bytes[]",
          "name": "calldatas",
          "type": "bytes[]"
        },
        {
          "internalType": "string",
          "name": "description",
          "type": "string"
        }
      ],
      "name": "propose",
      "outputs": [
        {
          "internalType": "uint256",
          "name": "",
          "type": "uint256"
        }
      ],
      "stateMutability": "nonpayable",
      "type": "function"
    },
    {
      "inputs": [],
      "name": "proposalThreshold",
      "outputs": [
        {
          "internalType": "uint256",
          "name": "",
          "type": "uint256"
        }
      ],
      "stateMutability": "view",
      "type": "function"
    },
    {
      "inputs": [
        {
          "internalType": "bytes4",
          "name": "interfaceId",
          "type": "bytes4"
        }
      ],
      "name": "supportsInterface",
      "outputs": [
        {
          "internalType": "bool",
          "name": "",
          "type": "bool"
        }
      ],
      "stateMutability": "view",
      "type": "function"
    }
  ],
  "bytecode": "0x60a0604052306080523480156200001557600080fd5b50600054610100900460ff16620000335760005460ff16156200003d565b6200003d620000e2565b620000a55760405162461bcd60e51b815260206004820152602e60248201527f496e697469616c697a61626c653a20636f6e747261637420697320616c72656160448201526d191e481a5b9a5d1a585b1a5e995960921b606482015260840160405180910390fd5b600054610100900460ff16158015620000c8576000805461ffff19166101011790555b8015620000db576000805461ff00191690555b506200010f565b6000620000fa306200010060201b620021031760201c565b15905090565b6001600160a01b03163b151590565b608051614f3162000147600039600081816110a6015281816110e60152818161164f0152818161168f015261170b0152614f316000f3fe60806040526004361061021c5760003560e01c8063013cf08b1461024457806301ffc9a7146102bf57806302a251a3146102ef57806306f3f9e61461031257806306fdde0314610332578063160cbed71461035457806324bc1a64146103745780632656227d146103895780632d63f6931461039c578063328dd982146103bc5780633659cfe6146103ec5780633932abb11461040c5780633bccf4fd146104215780633e4f49e61461044157806340e58ee51461046e578063438596321461048e578063485cc955146104d95780634f1ef286146104f957806352d1902d1461050c57806354fd4d5014610521578063567813881461053657806370b0f66014610556578063715018a6146105765780637b3c71d31461058b5780637d5e81e2146105ab5780638da5cb5b146105cb57806397c3d334146105f8578063a7713a701461060c578063a890c91014610622578063ab58fb8e14610642578063b58131b014610662578063c01f9e3714610677578063c28bc2fa14610697578063c59057e4146106b7578063d33219b4146106d7578063da95691a146106ec578063dd4e2ba51461070c578063ddf0b0091461074f578063deaaa7cc1461076f578063e23a9a5214610791578063ea0217cf1461085c578063eb9019d41461087c578063ece40cc11461089c578063f2fde38b146108bc578063f8ce560a146108dc578063fc0c546a146108fc578063fe0d94c11461091d57600080fd5b3661023f573061022a610930565b6001600160a01b03161461023d57600080fd5b005b600080fd5b34801561025057600080fd5b5061026461025f366004614081565b61093f565b604080519a8b526001600160a01b0390991660208b0152978901969096526060880194909452608087019290925260a086015260c085015260e084015215156101008301521515610120820152610140015b60405180910390f35b3480156102cb57600080fd5b506102df6102da36600461409a565b6109e9565b60405190151581526020016102b6565b3480156102fb57600080fd5b506103046109fa565b6040519081526020016102b6565b34801561031e57600080fd5b5061023d61032d366004614081565b610a06565b34801561033e57600080fd5b50610347610a53565b6040516102b6919061411c565b34801561036057600080fd5b5061030461036f36600461436a565b610ae6565b34801561038057600080fd5b50610304610ce8565b61030461039736600461436a565b610cf8565b3480156103a857600080fd5b506103046103b7366004614081565b610dd1565b3480156103c857600080fd5b506103dc6103d7366004614081565b610e09565b6040516102b694939291906144c2565b3480156103f857600080fd5b5061023d61040736600461450f565b61109b565b34801561041857600080fd5b50610304611161565b34801561042d57600080fd5b5061030461043c366004614542565b61116d565b34801561044d57600080fd5b5061046161045c366004614081565b6111ef565b6040516102b691906145a6565b34801561047a57600080fd5b5061023d610489366004614081565b6111fa565b34801561049a57600080fd5b506102df6104a93660046145ce565b6000828152610193602090815260408083206001600160a01b038516845260080190915290205460ff1692915050565b3480156104e557600080fd5b5061023d6104f43660046145fe565b611513565b61023d61050736600461462c565b611644565b34801561051857600080fd5b506103046116fe565b34801561052d57600080fd5b506103476117ac565b34801561054257600080fd5b5061030461055136600461467b565b6117c7565b34801561056257600080fd5b5061023d610571366004614081565b6117f0565b34801561058257600080fd5b5061023d611831565b34801561059757600080fd5b506103046105a63660046146ef565b61186c565b3480156105b757600080fd5b506103046105c6366004614748565b6118be565b3480156105d757600080fd5b506105e06118d5565b6040516001600160a01b0390911681526020016102b6565b34801561060457600080fd5b506064610304565b34801561061857600080fd5b506101f854610304565b34801561062e57600080fd5b5061023d61063d36600461450f565b6118e5565b34801561064e57600080fd5b5061030461065d366004614081565b611926565b34801561066e57600080fd5b506103046119c3565b34801561068357600080fd5b50610304610692366004614081565b6119cf565b3480156106a357600080fd5b5061023d6106b23660046147f4565b6119ff565b3480156106c357600080fd5b506103046106d236600461436a565b611a80565b3480156106e357600080fd5b506105e0611aba565b3480156106f857600080fd5b50610304610707366004614837565b611aca565b34801561071857600080fd5b5060408051808201909152601a815279737570706f72743d627261766f2671756f72756d3d627261766f60301b6020820152610347565b34801561075b57600080fd5b5061023d61076a366004614081565b611aef565b34801561077b57600080fd5b50610304600080516020614e4c83398151915281565b34801561079d57600080fd5b5061082c6107ac3660046145ce565b6040805160608101825260008082526020820181905291810191909152506000918252610193602090815260408084206001600160a01b0393909316845260089092018152918190208151606081018352905460ff8082161515835261010082041693820193909352620100009092046001600160601b03169082015290565b6040805182511515815260208084015160ff1690820152918101516001600160601b0316908201526060016102b6565b34801561086857600080fd5b5061023d610877366004614081565b611d5e565b34801561088857600080fd5b50610304610897366004614908565b611d9f565b3480156108a857600080fd5b5061023d6108b7366004614081565b611dab565b3480156108c857600080fd5b5061023d6108d736600461450f565b611dec565b3480156108e857600080fd5b506103046108f7366004614081565b611e89565b34801561090857600080fd5b506101c5546105e0906001600160a01b031681565b61023d61092b366004614081565b611e94565b600061093a611aba565b905090565b80600080808080808080806109538a611926565b975061095e8b610dd1565b96506109698b6119cf565b60008c81526101936020526040812080546005820154600683015460078401546001600160a01b039093169e50949a5098509296509194506109aa8d6111ef565b905060028160078111156109c0576109c0614590565b14935060078160078111156109d7576109d7614590565b14925050509193959799509193959799565b60006109f482612112565b92915050565b600061093a6101625490565b610a0e610930565b6001600160a01b0316336001600160a01b031614610a475760405162461bcd60e51b8152600401610a3e90614934565b60405180910390fd5b610a5081612137565b50565b606061012f8054610a6390614966565b80601f0160208091040260200160405190810160405280929190818152602001828054610a8f90614966565b8015610adc5780601f10610ab157610100808354040283529160200191610adc565b820191906000526020600020905b815481529060010190602001808311610abf57829003601f168201915b5050505050905090565b600080610af586868686611a80565b90506004610b02826111ef565b6007811115610b1357610b13614590565b14610b305760405162461bcd60e51b8152600401610a3e906149a1565b61022a546040805163793d064960e11b815290516000926001600160a01b03169163f27a0c929160048083019260209291908290030181865afa158015610b7b573d6000803e3d6000fd5b505050506040513d601f19601f82011682018060405250810190610b9f91906149e2565b61022a5460405163b1c5f42760e01b81529192506001600160a01b03169063b1c5f42790610bda908a908a908a906000908b906004016149fb565b602060405180830381865afa158015610bf7573d6000803e3d6000fd5b505050506040513d601f19601f82011682018060405250810190610c1b91906149e2565b600083815261022b60205260408082209290925561022a5491516308f2a0bb60e41b81526001600160a01b0390921691638f2a0bb091610c68918b918b918b91908b908990600401614a49565b600060405180830381600087803b158015610c8257600080fd5b505af1158015610c96573d6000803e3d6000fd5b505050507f9a2e42fd6722813d69113e7d0079d3d940171428df7373df9c7f7617cfda2892828242610cc89190614ab7565b604051610cd6929190614acf565b60405180910390a15095945050505050565b600061093a6108f7600143614add565b600080610d0786868686611a80565b90506000610d14826111ef565b90506004816007811115610d2a57610d2a614590565b1480610d4757506005816007811115610d4557610d45614590565b145b610d635760405162461bcd60e51b8152600401610a3e906149a1565b6000828152610130602052604090819020600201805460ff19166001179055517f712ae1383f79ac853f8d882153778e0260ef8f03b504e2866e0593e04d2b291f90610db29084815260200190565b60405180910390a1610dc78288888888612201565b5095945050505050565b6000818152610130602090815260408083208151928301909152546001600160401b0316908190525b6001600160401b031692915050565b6060806060806000610193600087815260200190815260200160002090508060010181600201826003018360040183805480602002602001604051908101604052809291908181526020018280548015610e8c57602002820191906000526020600020905b81546001600160a01b03168152600190910190602001808311610e6e575b5050505050935082805480602002602001604051908101604052809291908181526020018280548015610ede57602002820191906000526020600020905b815481526020019060010190808311610eca575b5050505050925081805480602002602001604051908101604052809291908181526020016000905b82821015610fb2578382906000526020600020018054610f2590614966565b80601f0160208091040260200160405190810160405280929190818152602001828054610f5190614966565b8015610f9e5780601f10610f7357610100808354040283529160200191610f9e565b820191906000526020600020905b815481529060010190602001808311610f8157829003601f168201915b505050505081526020019060010190610f06565b50505050915080805480602002602001604051908101604052809291908181526020016000905b82821015611085578382906000526020600020018054610ff890614966565b80601f016020809104026020016040519081016040528092919081815260200182805461102490614966565b80156110715780601f1061104657610100808354040283529160200191611071565b820191906000526020600020905b81548152906001019060200180831161105457829003601f168201915b505050505081526020019060010190610fd9565b5050505090509450945094509450509193509193565b306001600160a01b037f00000000000000000000000000000000000000000000000000000000000000001614156110e45760405162461bcd60e51b8152600401610a3e90614af4565b7f00000000000000000000000000000000000000000000000000000000000000006001600160a01b031661111661220e565b6001600160a01b03161461113c5760405162461bcd60e51b8152600401610a3e90614b2e565b6111458161222a565b60408051600080825260208201909252610a5091839190612259565b600061093a6101615490565b60408051600080516020614e4c833981519152602082015290810186905260ff8516606082015260009081906111c7906111bf90608001604051602081830303815290604052805190602001206123c4565b868686612412565b90506111e487828860405180602001604052806000815250612430565b979650505050505050565b60006109f48261253b565b60008181526101936020526040902080546001600160a01b0316336001600160a01b03161480611249575061122d6119c3565b8154611247906001600160a01b0316610897600143614add565b105b6112a55760405162461bcd60e51b815260206004820152602760248201527f476f7665726e6f72427261766f3a2070726f706f7365722061626f76652074686044820152661c995cda1bdb1960ca1b6064820152608401610a3e565b61150e8160010180548060200260200160405190810160405280929190818152602001828054801561130057602002820191906000526020600020905b81546001600160a01b031681526001909101906020018083116112e2575b50505050508260020180548060200260200160405190810160405280929190818152602001828054801561135357602002820191906000526020600020905b81548152602001906001019080831161133f575b505050505061150484600301805480602002602001604051908101604052809291908181526020016000905b8282101561142b57838290600052602060002001805461139e90614966565b80601f01602080910402602001604051908101604052809291908181526020018280546113ca90614966565b80156114175780601f106113ec57610100808354040283529160200191611417565b820191906000526020600020905b8154815290600101906020018083116113fa57829003601f168201915b50505050508152602001906001019061137f565b50505060048701805460408051602080840282018101909252828152935060009084015b828210156114fb57838290600052602060002001805461146e90614966565b80601f016020809104026020016040519081016040528092919081815260200182805461149a90614966565b80156114e75780601f106114bc576101008083540402835291602001916114e7565b820191906000526020600020905b8154815290600101906020018083116114ca57829003601f168201915b50505050508152602001906001019061144f565b50505050612688565b84600901546127ba565b505050565b600054610100900460ff1661152e5760005460ff1615611536565b6115366127c8565b6115995760405162461bcd60e51b815260206004820152602e60248201527f496e697469616c697a61626c653a20636f6e747261637420697320616c72656160448201526d191e481a5b9a5d1a585b1a5e995960921b6064820152608401610a3e565b600054610100900460ff161580156115bb576000805461ffff19166101011790555b6115eb6040518060400160405280600f81526020016e2834b1b0b9323ca3b7bb32b93737b960891b8152506127d9565b6115fa600161b2fa600061281a565b61160261284c565b61160b83612873565b61161560146128a3565b61161e826128d3565b611626612903565b61162e61284c565b801561150e576000805461ff0019169055505050565b306001600160a01b037f000000000000000000000000000000000000000000000000000000000000000016141561168d5760405162461bcd60e51b8152600401610a3e90614af4565b7f00000000000000000000000000000000000000000000000000000000000000006001600160a01b03166116bf61220e565b6001600160a01b0316146116e55760405162461bcd60e51b8152600401610a3e90614b2e565b6116ee8261222a565b6116fa82826001612259565b5050565b6000306001600160a01b037f000000000000000000000000000000000000000000000000000000000000000016146117995760405162461bcd60e51b815260206004820152603860248201527f555550535570677261646561626c653a206d757374206e6f742062652063616c6044820152771b1959081d1a1c9bdd59da0819195b1959d85d1958d85b1b60421b6064820152608401610a3e565b50600080516020614e8c83398151915290565b6040805180820190915260018152603160f81b602082015290565b6000803390506117e884828560405180602001604052806000815250612430565b949350505050565b6117f8610930565b6001600160a01b0316336001600160a01b0316146118285760405162461bcd60e51b8152600401610a3e90614934565b610a5081612932565b3361183a6118d5565b6001600160a01b0316146118605760405162461bcd60e51b8152600401610a3e90614b68565b61186a6000612974565b565b6000803390506118b486828787878080601f01602080910402602001604051908101604052809392919081815260200183838082843760009201919091525061243092505050565b9695505050505050565b60006118cc858585856129c7565b95945050505050565b61025c546001600160a01b031690565b6118ed610930565b6001600160a01b0316336001600160a01b03161461191d5760405162461bcd60e51b8152600401610a3e90614934565b610a5081612a2f565b61022a54600082815261022b602052604080822054905163d45c443560e01b81526004810191909152909182916001600160a01b039091169063d45c443590602401602060405180830381865afa158015611985573d6000803e3d6000fd5b505050506040513d601f19601f820116820180604052508101906119a991906149e2565b9050806001146119b957806119bc565b60005b9392505050565b600061093a6101635490565b6000818152610130602090815260408083208151928301909152600101546001600160401b031690819052610dfa565b611a07610930565b6001600160a01b0316336001600160a01b031614611a375760405162461bcd60e51b8152600401610a3e90614934565b611a798483838080601f016020809104026020016040519081016040528093929190818152602001838380828437600092019190915250889250612a9a915050565b5050505050565b600084848484604051602001611a999493929190614b9d565b60408051601f19818403018152919052805160209091012095945050505050565b61022a546001600160a01b031690565b6000611ada338787878787612ac0565b6118b48686611ae98787612688565b856118be565b60008181526101936020908152604091829020600181018054845181850281018501909552808552919361150e93909290830182828015611b5957602002820191906000526020600020905b81546001600160a01b03168152600190910190602001808311611b3b575b505050505082600201805480602002602001604051908101604052809291908181526020018280548015611bac57602002820191906000526020600020905b815481526020019060010190808311611b98575b5050505050611d5484600301805480602002602001604051908101604052809291908181526020016000905b82821015611c84578382906000526020600020018054611bf790614966565b80601f0160208091040260200160405190810160405280929190818152602001828054611c2390614966565b8015611c705780601f10611c4557610100808354040283529160200191611c70565b820191906000526020600020905b815481529060010190602001808311611c5357829003601f168201915b505050505081526020019060010190611bd8565b50505060048701805460408051602080840282018101909252828152935060009084015b828210156114fb578382906000526020600020018054611cc790614966565b80601f0160208091040260200160405190810160405280929190818152602001828054611cf390614966565b8015611d405780601f10611d1557610100808354040283529160200191611d40565b820191906000526020600020905b815481529060010190602001808311611d2357829003601f168201915b505050505081526020019060010190611ca8565b8460090154610ae6565b611d66610930565b6001600160a01b0316336001600160a01b031614611d965760405162461bcd60e51b8152600401610a3e90614934565b610a5081612b7e565b60006119bc8383612c20565b611db3610930565b6001600160a01b0316336001600160a01b031614611de35760405162461bcd60e51b8152600401610a3e90614934565b610a5081612c97565b33611df56118d5565b6001600160a01b031614611e1b5760405162461bcd60e51b8152600401610a3e90614b68565b6001600160a01b038116611e805760405162461bcd60e51b815260206004820152602660248201527f4f776e61626c653a206e6577206f776e657220697320746865207a65726f206160448201526564647265737360d01b6064820152608401610a3e565b610a5081612974565b60006109f482612cd9565b60008181526101936020908152604091829020600181018054845181850281018501909552808552919361150e93909290830182828015611efe57602002820191906000526020600020905b81546001600160a01b03168152600190910190602001808311611ee0575b505050505082600201805480602002602001604051908101604052809291908181526020018280548015611f5157602002820191906000526020600020905b815481526020019060010190808311611f3d575b50505050506120f984600301805480602002602001604051908101604052809291908181526020016000905b82821015612029578382906000526020600020018054611f9c90614966565b80601f0160208091040260200160405190810160405280929190818152602001828054611fc890614966565b80156120155780601f10611fea57610100808354040283529160200191612015565b820191906000526020600020905b815481529060010190602001808311611ff857829003601f168201915b505050505081526020019060010190611f7d565b50505060048701805460408051602080840282018101909252828152935060009084015b828210156114fb57838290600052602060002001805461206c90614966565b80601f016020809104026020016040519081016040528092919081815260200182805461209890614966565b80156120e55780601f106120ba576101008083540402835291602001916120e5565b820191906000526020600020905b8154815290600101906020018083116120c857829003601f168201915b50505050508152602001906001019061204d565b8460090154610cf8565b6001600160a01b03163b151590565b60006001600160e01b03198216636e665ced60e01b14806109f457506109f482612d63565b60648111156121ba5760405162461bcd60e51b815260206004820152604360248201527f476f7665726e6f72566f74657351756f72756d4672616374696f6e3a2071756f60448201527f72756d4e756d657261746f72206f7665722071756f72756d44656e6f6d696e616064820152623a37b960e91b608482015260a401610a3e565b6101f88054908290556040517f0553476bf02ef2726e8ce5ced78d63e26e602e4a2257b1f559418e24b4633997906121f59083908590614acf565b60405180910390a15050565b611a798585858585612d98565b600080516020614e8c833981519152546001600160a01b031690565b336122336118d5565b6001600160a01b031614610a505760405162461bcd60e51b8152600401610a3e90614b68565b7f4910fdfa16fed3260ed0e7147f7cc6da11a60208b5b9406d12a635614ffd91435460ff161561228c5761150e83612e0d565b826001600160a01b03166352d1902d6040518163ffffffff1660e01b8152600401602060405180830381865afa9250505080156122e6575060408051601f3d908101601f191682019092526122e3918101906149e2565b60015b6123495760405162461bcd60e51b815260206004820152602e60248201527f45524331393637557067726164653a206e657720696d706c656d656e7461746960448201526d6f6e206973206e6f74205555505360901b6064820152608401610a3e565b600080516020614e8c83398151915281146123b85760405162461bcd60e51b815260206004820152602960248201527f45524331393637557067726164653a20756e737570706f727465642070726f786044820152681a58589b195555525160ba1b6064820152608401610a3e565b5061150e838383612ea7565b60006109f46123d1612ed2565b8360405161190160f01b6020820152602281018390526042810182905260009060620160405160208183030381529060405280519060200120905092915050565b600080600061242387878787612f4d565b91509150610dc781613030565b600084815261013060205260408120600161244a876111ef565b600781111561245b5761245b614590565b146124b45760405162461bcd60e51b815260206004820152602360248201527f476f7665726e6f723a20766f7465206e6f742063757272656e746c792061637460448201526269766560e81b6064820152608401610a3e565b604080516020810190915281546001600160401b0316908190526000906124dc908790611d9f565b90506124ea878787846131e6565b856001600160a01b03167fb8e138887d0aa13bab447e82de9d5c1777041ecd21ca36ba824ff1e6c07ddda4888784886040516125299493929190614be8565b60405180910390a29695505050505050565b60008061254783613387565b9050600481600781111561255d5761255d614590565b146125685792915050565b600083815261022b602052604090205480612584575092915050565b61022a54604051632ab0f52960e01b8152600481018390526001600160a01b0390911690632ab0f52990602401602060405180830381865afa1580156125ce573d6000803e3d6000fd5b505050506040513d601f19601f820116820180604052508101906125f29190614c10565b15612601575060079392505050565b61022a54604051632c258a9f60e11b8152600481018390526001600160a01b039091169063584b153e90602401602060405180830381865afa15801561264b573d6000803e3d6000fd5b505050506040513d601f19601f8201168201806040525081019061266f9190614c10565b1561267e575060059392505050565b5060029392505050565b6060600082516001600160401b038111156126a5576126a561412f565b6040519080825280602002602001820160405280156126d857816020015b60608152602001906001900390816126c35790505b50905060005b84518110156127b2578481815181106126f9576126f9614c32565b6020026020010151516000146127695784818151811061271b5761271b614c32565b60200260200101518051906020012084828151811061273c5761273c614c32565b6020026020010151604051602001612755929190614c48565b604051602081830303815290604052612784565b83818151811061277b5761277b614c32565b60200260200101515b82828151811061279657612796614c32565b6020026020010181905250806127ab90614c79565b90506126de565b509392505050565b60006118cc85858585613498565b60006127d330612103565b15905090565b600054610100900460ff166128005760405162461bcd60e51b8152600401610a3e90614c94565b6128118161280c6117ac565b61354e565b610a508161358f565b600054610100900460ff166128415760405162461bcd60e51b8152600401610a3e90614c94565b61150e8383836135ca565b600054610100900460ff1661186a5760405162461bcd60e51b8152600401610a3e90614c94565b600054610100900460ff1661289a5760405162461bcd60e51b8152600401610a3e90614c94565b610a508161360c565b600054610100900460ff166128ca5760405162461bcd60e51b8152600401610a3e90614c94565b610a5081613656565b600054610100900460ff166128fa5760405162461bcd60e51b8152600401610a3e90614c94565b610a508161367d565b600054610100900460ff1661292a5760405162461bcd60e51b8152600401610a3e90614c94565b61186a6136a4565b7fc565b045403dc03c2eea82b81a0465edad9e2e7fc4d97e11421c209da93d7a936101615482604051612966929190614acf565b60405180910390a161016155565b61025c80546001600160a01b038381166001600160a01b0319831681179093556040519116919082907f8be0079c531659141344cd1fd0a4f28419497f9722a3daafe3b4186f6b6457e090600090a35050565b6000612a2333868686516001600160401b038111156129e8576129e861412f565b604051908082528060200260200182016040528015612a1b57816020015b6060815260200190600190039081612a065790505b508787612ac0565b6118cc858585856136d4565b61022a54604080516001600160a01b03928316815291831660208301527f08f74ea46ef7894f65eabfb5e6e695de773a000b47c529ab559178069b226401910160405180910390a161022a80546001600160a01b0319166001600160a01b0392909216919091179055565b60606117e8848484604051806060016040528060298152602001614eac6029913961398a565b805160208201206000612ade8787612ad88888612688565b85611a80565b600081815261019360205260409020600981015491925090612b735780546001600160a01b0319166001600160a01b038a161781558751612b2890600183019060208b0190613e37565b508651612b3e90600283019060208a0190613e98565b508551612b549060038301906020890190613ed3565b508451612b6a9060048301906020880190613f2c565b50600981018390555b505050505050505050565b60008111612bde5760405162461bcd60e51b815260206004820152602760248201527f476f7665726e6f7253657474696e67733a20766f74696e6720706572696f6420604482015266746f6f206c6f7760c81b6064820152608401610a3e565b7f7e3f7f0708a84de9203036abaa450dccc85ad5ff52f78c170f3edb55cf5e88286101625482604051612c12929190614acf565b60405180910390a161016255565b6101c554604051630748d63560e31b81526001600160a01b038481166004830152602482018490526000921690633a46b1a890604401602060405180830381865afa158015612c73573d6000803e3d6000fd5b505050506040513d601f19601f820116820180604052508101906119bc91906149e2565b7fccb45da8d5717e6c4544694297c4ba5cf151d455c9bb0ed4fc7a38411bc054616101635482604051612ccb929190614acf565b60405180910390a161016355565b600060646101f8546101c554604051632394e7a360e21b8152600481018690526001600160a01b0390911690638e539e8c90602401602060405180830381865afa158015612d2b573d6000803e3d6000fd5b505050506040513d601f19601f82011682018060405250810190612d4f91906149e2565b612d599190614cdf565b6109f49190614cfe565b60006001600160e01b0319821663bf26d89760e01b14806109f457506301ffc9a760e01b6001600160e01b03198316146109f4565b61022a5460405163e38335e560e01b81526001600160a01b039091169063e38335e5903490612dd49088908890889060009089906004016149fb565b6000604051808303818588803b158015612ded57600080fd5b505af1158015612e01573d6000803e3d6000fd5b50505050505050505050565b612e1681612103565b612e785760405162461bcd60e51b815260206004820152602d60248201527f455243313936373a206e657720696d706c656d656e746174696f6e206973206e60448201526c1bdd08184818dbdb9d1c9858dd609a1b6064820152608401610a3e565b600080516020614e8c83398151915280546001600160a01b0319166001600160a01b0392909216919091179055565b612eb083613aae565b600082511180612ebd5750805b1561150e57612ecc8383613aee565b50505050565b600061093a7f8b73c3c69bb8fe3d512ecc4cf759cc79239f7b179b0ffacaa9a75d522b39400f612f0160655490565b6066546040805160208101859052908101839052606081018290524660808201523060a082015260009060c0016040516020818303038152906040528051906020012090509392505050565b6000806fa2a8918ca85bafe22016d0b997e4df60600160ff1b03831115612f7a5750600090506003613027565b8460ff16601b14158015612f9257508460ff16601c14155b15612fa35750600090506004613027565b6040805160008082526020820180845289905260ff881692820192909252606081018690526080810185905260019060a0016020604051602081039080840390855afa158015612ff7573d6000803e3d6000fd5b5050604051601f1901519150506001600160a01b03811661302057600060019250925050613027565b9150600090505b94509492505050565b600081600481111561304457613044614590565b141561304d5750565b600181600481111561306157613061614590565b14156130aa5760405162461bcd60e51b815260206004820152601860248201527745434453413a20696e76616c6964207369676e617475726560401b6044820152606401610a3e565b60028160048111156130be576130be614590565b141561310c5760405162461bcd60e51b815260206004820152601f60248201527f45434453413a20696e76616c6964207369676e6174757265206c656e677468006044820152606401610a3e565b600381600481111561312057613120614590565b14156131795760405162461bcd60e51b815260206004820152602260248201527f45434453413a20696e76616c6964207369676e6174757265202773272076616c604482015261756560f01b6064820152608401610a3e565b600481600481111561318d5761318d614590565b1415610a505760405162461bcd60e51b815260206004820152602260248201527f45434453413a20696e76616c6964207369676e6174757265202776272076616c604482015261756560f01b6064820152608401610a3e565b6000848152610193602090815260408083206001600160a01b038716845260088101909252909120805460ff16156132765760405162461bcd60e51b815260206004820152602d60248201527f476f7665726e6f72436f6d7061746962696c697479427261766f3a20766f746560448201526c08185b1c9958591e4818d85cdd609a1b6064820152608401610a3e565b805460ff85166101000261ffff1990911617600117815561329683613bd7565b81546001600160601b0391909116620100000262010000600160701b031990911617815560ff84166132e157828260060160008282546132d69190614ab7565b9091555061337f9050565b60ff84166001141561330157828260050160008282546132d69190614ab7565b60ff84166002141561332157828260070160008282546132d69190614ab7565b60405162461bcd60e51b815260206004820152602d60248201527f476f7665726e6f72436f6d7061746962696c697479427261766f3a20696e766160448201526c6c696420766f7465207479706560981b6064820152608401610a3e565b505050505050565b600081815261013060205260408120600281015460ff16156133ac5750600792915050565b6002810154610100900460ff16156133c75750600292915050565b60006133d284610dd1565b9050806134215760405162461bcd60e51b815260206004820152601d60248201527f476f7665726e6f723a20756e6b6e6f776e2070726f706f73616c2069640000006044820152606401610a3e565b438110613432575060009392505050565b600061343d856119cf565b905043811061345157506001949350505050565b61345a85613c43565b801561347d57506000858152610193602052604090206006810154600590910154115b1561348d57506004949350505050565b506003949350505050565b6000806134a786868686613c6c565b600081815261022b6020526040902054909150156118cc5761022a54600082815261022b60205260409081902054905163c4d252f560e01b81526001600160a01b039092169163c4d252f5916135039160040190815260200190565b600060405180830381600087803b15801561351d57600080fd5b505af1158015613531573d6000803e3d6000fd5b505050600082815261022b60205260408120555095945050505050565b600054610100900460ff166135755760405162461bcd60e51b8152600401610a3e90614c94565b815160209283012081519190920120606591909155606655565b600054610100900460ff166135b65760405162461bcd60e51b8152600401610a3e90614c94565b80516116fa9061012f906020840190613f85565b600054610100900460ff166135f15760405162461bcd60e51b8152600401610a3e90614c94565b6135fa83612932565b61360382612b7e565b61150e81612c97565b600054610100900460ff166136335760405162461bcd60e51b8152600401610a3e90614c94565b6101c580546001600160a01b0319166001600160a01b0392909216919091179055565b600054610100900460ff16610a475760405162461bcd60e51b8152600401610a3e90614c94565b600054610100900460ff1661191d5760405162461bcd60e51b8152600401610a3e90614c94565b600054610100900460ff166136cb5760405162461bcd60e51b8152600401610a3e90614c94565b61186a33612974565b60006136de6119c3565b6136ed33610897600143614add565b101561376d5760405162461bcd60e51b815260206004820152604360248201527f476f7665726e6f72436f6d7061746962696c697479427261766f3a2070726f7060448201527f6f73657220766f7465732062656c6f772070726f706f73616c207468726573686064820152621bdb1960ea1b608482015260a401610a3e565b60006137828686868680519060200120611a80565b905084518651146137a55760405162461bcd60e51b8152600401610a3e90614d20565b83518651146137c65760405162461bcd60e51b8152600401610a3e90614d20565b60008651116138125760405162461bcd60e51b815260206004820152601860248201527711dbdd995c9b9bdc8e88195b5c1d1e481c1c9bdc1bdcd85b60421b6044820152606401610a3e565b60008181526101306020908152604091829020825191820190925281546001600160401b031690819052156138935760405162461bcd60e51b815260206004820152602160248201527f476f7665726e6f723a2070726f706f73616c20616c72656164792065786973746044820152607360f81b6064820152608401610a3e565b60006138a56138a0611161565b613d79565b6138ae43613d79565b6138b89190614d61565b905060006138c76138a06109fa565b6138d19083614d61565b90506138dd8383613de1565b6138ea6001840182613de1565b7f7d84a6263ae0d98d3329bd7b46bb4e8d6f98cd35a7adb45c274c8b7fd5ebd5e084338b8b8d516001600160401b038111156139285761392861412f565b60405190808252806020026020018201604052801561395b57816020015b60608152602001906001900390816139465790505b508c88888e60405161397599989796959493929190614d8c565b60405180910390a15091979650505050505050565b6060824710156139eb5760405162461bcd60e51b815260206004820152602660248201527f416464726573733a20696e73756666696369656e742062616c616e636520666f6044820152651c8818d85b1b60d21b6064820152608401610a3e565b6139f485612103565b613a405760405162461bcd60e51b815260206004820152601d60248201527f416464726573733a2063616c6c20746f206e6f6e2d636f6e74726163740000006044820152606401610a3e565b600080866001600160a01b03168587604051613a5c9190614e2f565b60006040518083038185875af1925050503d8060008114613a99576040519150601f19603f3d011682016040523d82523d6000602084013e613a9e565b606091505b50915091506111e4828286613dfe565b613ab781612e0d565b6040516001600160a01b038216907fbc7cd75a20ee27fd9adebab32041f755214dbc6bffa90cc0225b39da2e5c2d3b90600090a250565b6060613af983612103565b613b545760405162461bcd60e51b815260206004820152602660248201527f416464726573733a2064656c65676174652063616c6c20746f206e6f6e2d636f6044820152651b9d1c9858dd60d21b6064820152608401610a3e565b600080846001600160a01b031684604051613b6f9190614e2f565b600060405180830381855af49150503d8060008114613baa576040519150601f19603f3d011682016040523d82523d6000602084013e613baf565b606091505b50915091506118cc8282604051806060016040528060278152602001614ed560279139613dfe565b60006001600160601b03821115613c3f5760405162461bcd60e51b815260206004820152602660248201527f53616665436173743a2076616c756520646f65736e27742066697420696e203960448201526536206269747360d01b6064820152608401610a3e565b5090565b6000818152610193602052604081206005810154613c636108f785610dd1565b11159392505050565b600080613c7b86868686611a80565b90506000613c88826111ef565b90506002816007811115613c9e57613c9e614590565b14158015613cbe57506006816007811115613cbb57613cbb614590565b14155b8015613cdc57506007816007811115613cd957613cd9614590565b14155b613d285760405162461bcd60e51b815260206004820152601d60248201527f476f7665726e6f723a2070726f706f73616c206e6f74206163746976650000006044820152606401610a3e565b6000828152610130602052604090819020600201805461ff001916610100179055517f789cf55be980739dad1d0699b93b58e806b51c9d96619bfa8fe0a28abaa7b30c90610cd69084815260200190565b60006001600160401b03821115613c3f5760405162461bcd60e51b815260206004820152602660248201527f53616665436173743a2076616c756520646f65736e27742066697420696e203660448201526534206269747360d01b6064820152608401610a3e565b81546001600160401b0319166001600160401b0391909116179055565b60608315613e0d5750816119bc565b825115613e1d5782518084602001fd5b8160405162461bcd60e51b8152600401610a3e919061411c565b828054828255906000526020600020908101928215613e8c579160200282015b82811115613e8c57825182546001600160a01b0319166001600160a01b03909116178255602090920191600190910190613e57565b50613c3f929150613ff8565b828054828255906000526020600020908101928215613e8c579160200282015b82811115613e8c578251825591602001919060010190613eb8565b828054828255906000526020600020908101928215613f20579160200282015b82811115613f205782518051613f10918491602090910190613f85565b5091602001919060010190613ef3565b50613c3f92915061400d565b828054828255906000526020600020908101928215613f79579160200282015b82811115613f795782518051613f69918491602090910190613f85565b5091602001919060010190613f4c565b50613c3f92915061402a565b828054613f9190614966565b90600052602060002090601f016020900481019282613fb35760008555613e8c565b82601f10613fcc57805160ff1916838001178555613e8c565b82800160010185558215613e8c5791820182811115613e8c578251825591602001919060010190613eb8565b5b80821115613c3f5760008155600101613ff9565b80821115613c3f5760006140218282614047565b5060010161400d565b80821115613c3f57600061403e8282614047565b5060010161402a565b50805461405390614966565b6000825580601f10614063575050565b601f016020900490600052602060002090810190610a509190613ff8565b60006020828403121561409357600080fd5b5035919050565b6000602082840312156140ac57600080fd5b81356001600160e01b0319811681146119bc57600080fd5b60005b838110156140df5781810151838201526020016140c7565b83811115612ecc5750506000910152565b600081518084526141088160208601602086016140c4565b601f01601f19169290920160200192915050565b6020815260006119bc60208301846140f0565b634e487b7160e01b600052604160045260246000fd5b604051601f8201601f191681016001600160401b038111828210171561416d5761416d61412f565b604052919050565b60006001600160401b0382111561418e5761418e61412f565b5060051b60200190565b6001600160a01b0381168114610a5057600080fd5b600082601f8301126141be57600080fd5b813560206141d36141ce83614175565b614145565b82815260059290921b840181019181810190868411156141f257600080fd5b8286015b8481101561421657803561420981614198565b83529183019183016141f6565b509695505050505050565b600082601f83011261423257600080fd5b813560206142426141ce83614175565b82815260059290921b8401810191818101908684111561426157600080fd5b8286015b848110156142165780358352918301918301614265565b600082601f83011261428d57600080fd5b81356001600160401b038111156142a6576142a661412f565b6142b9601f8201601f1916602001614145565b8181528460208386010111156142ce57600080fd5b816020850160208301376000918101602001919091529392505050565b600082601f8301126142fc57600080fd5b8135602061430c6141ce83614175565b82815260059290921b8401810191818101908684111561432b57600080fd5b8286015b848110156142165780356001600160401b0381111561434e5760008081fd5b61435c8986838b010161427c565b84525091830191830161432f565b6000806000806080858703121561438057600080fd5b84356001600160401b038082111561439757600080fd5b6143a3888389016141ad565b955060208701359150808211156143b957600080fd5b6143c588838901614221565b945060408701359150808211156143db57600080fd5b506143e8878288016142eb565b949793965093946060013593505050565b600081518084526020808501945080840160005b838110156144325781516001600160a01b03168752958201959082019060010161440d565b509495945050505050565b600081518084526020808501945080840160005b8381101561443257815187529582019590820190600101614451565b600081518084526020808501808196508360051b8101915082860160005b858110156144b55782840389526144a38483516140f0565b9885019893509084019060010161448b565b5091979650505050505050565b6080815260006144d560808301876143f9565b82810360208401526144e7818761443d565b905082810360408401526144fb818661446d565b905082810360608401526111e4818561446d565b60006020828403121561452157600080fd5b81356119bc81614198565b803560ff8116811461453d57600080fd5b919050565b600080600080600060a0868803121561455a57600080fd5b8535945061456a6020870161452c565b93506145786040870161452c565b94979396509394606081013594506080013592915050565b634e487b7160e01b600052602160045260246000fd5b60208101600883106145c857634e487b7160e01b600052602160045260246000fd5b91905290565b600080604083850312156145e157600080fd5b8235915060208301356145f381614198565b809150509250929050565b6000806040838503121561461157600080fd5b823561461c81614198565b915060208301356145f381614198565b6000806040838503121561463f57600080fd5b823561464a81614198565b915060208301356001600160401b0381111561466557600080fd5b6146718582860161427c565b9150509250929050565b6000806040838503121561468e57600080fd5b8235915061469e6020840161452c565b90509250929050565b60008083601f8401126146b957600080fd5b5081356001600160401b038111156146d057600080fd5b6020830191508360208285010111156146e857600080fd5b9250929050565b6000806000806060858703121561470557600080fd5b843593506147156020860161452c565b925060408501356001600160401b0381111561473057600080fd5b61473c878288016146a7565b95989497509550505050565b6000806000806080858703121561475e57600080fd5b84356001600160401b038082111561477557600080fd5b614781888389016141ad565b9550602087013591508082111561479757600080fd5b6147a388838901614221565b945060408701359150808211156147b957600080fd5b6147c5888389016142eb565b935060608701359150808211156147db57600080fd5b506147e88782880161427c565b91505092959194509250565b6000806000806060858703121561480a57600080fd5b843561481581614198565b93506020850135925060408501356001600160401b0381111561473057600080fd5b600080600080600060a0868803121561484f57600080fd5b85356001600160401b038082111561486657600080fd5b61487289838a016141ad565b9650602088013591508082111561488857600080fd5b61489489838a01614221565b955060408801359150808211156148aa57600080fd5b6148b689838a016142eb565b945060608801359150808211156148cc57600080fd5b6148d889838a016142eb565b935060808801359150808211156148ee57600080fd5b506148fb8882890161427c565b9150509295509295909350565b6000806040838503121561491b57600080fd5b823561492681614198565b946020939093013593505050565b602080825260189082015277476f7665726e6f723a206f6e6c79476f7665726e616e636560401b604082015260600190565b600181811c9082168061497a57607f821691505b6020821081141561499b57634e487b7160e01b600052602260045260246000fd5b50919050565b60208082526021908201527f476f7665726e6f723a2070726f706f73616c206e6f74207375636365737366756040820152601b60fa1b606082015260800190565b6000602082840312156149f457600080fd5b5051919050565b60a081526000614a0e60a08301886143f9565b8281036020840152614a20818861443d565b90508281036040840152614a34818761446d565b60608401959095525050608001529392505050565b60c081526000614a5c60c08301896143f9565b8281036020840152614a6e818961443d565b90508281036040840152614a82818861446d565b60608401969096525050608081019290925260a0909101529392505050565b634e487b7160e01b600052601160045260246000fd5b60008219821115614aca57614aca614aa1565b500190565b918252602082015260400190565b600082821015614aef57614aef614aa1565b500390565b6020808252602c90820152600080516020614e6c83398151915260408201526b19195b1959d85d1958d85b1b60a21b606082015260800190565b6020808252602c90820152600080516020614e6c83398151915260408201526b6163746976652070726f787960a01b606082015260800190565b6020808252818101527f4f776e61626c653a2063616c6c6572206973206e6f7420746865206f776e6572604082015260600190565b608081526000614bb060808301876143f9565b8281036020840152614bc2818761443d565b90508281036040840152614bd6818661446d565b91505082606083015295945050505050565b84815260ff841660208201528260408201526080606082015260006118b460808301846140f0565b600060208284031215614c2257600080fd5b815180151581146119bc57600080fd5b634e487b7160e01b600052603260045260246000fd5b6001600160e01b0319831681528151600090614c6b8160048501602087016140c4565b919091016004019392505050565b6000600019821415614c8d57614c8d614aa1565b5060010190565b6020808252602b908201527f496e697469616c697a61626c653a20636f6e7472616374206973206e6f74206960408201526a6e697469616c697a696e6760a81b606082015260800190565b6000816000190483118215151615614cf957614cf9614aa1565b500290565b600082614d1b57634e487b7160e01b600052601260045260246000fd5b500490565b60208082526021908201527f476f7665726e6f723a20696e76616c69642070726f706f73616c206c656e67746040820152600d60fb1b606082015260800190565b60006001600160401b03828116848216808303821115614d8357614d83614aa1565b01949350505050565b8981526001600160a01b038916602082015261012060408201819052600090614db78382018b6143f9565b90508281036060840152614dcb818a61443d565b90508281036080840152614ddf818961446d565b905082810360a0840152614df3818861446d565b6001600160401b0387811660c0860152861660e08501528381036101008501529050614e1f81856140f0565b9c9b505050505050505050505050565b60008251614e418184602087016140c4565b919091019291505056fe150214d74d59b7d1e90c73fc22ef3d991dd0a76b046543d4d80ab92d2a50328f46756e6374696f6e206d7573742062652063616c6c6564207468726f75676820360894a13ba1a3210667c828492db98dca3e2076cc3735a920a3ca505d382bbc416464726573733a206c6f772d6c6576656c2063616c6c20776974682076616c7565206661696c6564416464726573733a206c6f772d6c6576656c2064656c65676174652063616c6c206661696c6564a2646970667358221220dde91dd7a0ec31f75b4ae8940149d3a5a54a55f8a61c96c26c15608f1e493f4e64736f6c634300080b0033",
  "immutableReferences": {
    "4871": [
      {
        "length": 32,
        "start": 4262
      },
      {
        "length": 32,
        "start": 4326
      },
      {
        "length": 32,
        "start": 5711
      },
      {
        "length": 32,
        "start": 5775
      },
      {
        "length": 32,
        "start": 5899
      }
    ]
  },
  "source": "// SPDX-License-Identifier: MIT\r\npragma solidity ^0.8.7;\r\n\r\nimport \"@openzeppelin/contracts-upgradeable/governance/GovernorUpgradeable.sol\";\r\nimport \"@openzeppelin/contracts-upgradeable/governance/extensions/GovernorSettingsUpgradeable.sol\";\r\nimport \"@openzeppelin/contracts-upgradeable/governance/compatibility/GovernorCompatibilityBravoUpgradeable.sol\";\r\nimport \"@openzeppelin/contracts-upgradeable/governance/extensions/GovernorVotesUpgradeable.sol\";\r\nimport \"@openzeppelin/contracts-upgradeable/governance/extensions/GovernorVotesQuorumFractionUpgradeable.sol\";\r\nimport \"@openzeppelin/contracts-upgradeable/governance/extensions/GovernorTimelockControlUpgradeable.sol\";\r\nimport \"@openzeppelin/contracts-upgradeable/proxy/utils/Initializable.sol\";\r\nimport \"@openzeppelin/contracts-upgradeable/access/OwnableUpgradeable.sol\";\r\nimport \"@openzeppelin/contracts-upgradeable/proxy/utils/UUPSUpgradeable.sol\";\r\n\r\ncontract PicardyGovernor is Initializable, GovernorUpgradeable, GovernorSettingsUpgradeable, GovernorCompatibilityBravoUpgradeable, GovernorVotesUpgradeable, GovernorVotesQuorumFractionUpgradeable, GovernorTimelockControlUpgradeable, OwnableUpgradeable, UUPSUpgradeable {\r\n    /// @custom:oz-upgrades-unsafe-allow constructor\r\n    constructor() initializer {}\r\n\r\n    function initialize(IVotesUpgradeable _token, TimelockControllerUpgradeable _timelock)\r\n        initializer public\r\n    {\r\n        __Governor_init(\"PicardyGovernor\");\r\n        __GovernorSettings_init(1 /* 1 block */, 45818 /* 1 week */, 0);\r\n        __GovernorCompatibilityBravo_init();\r\n        __GovernorVotes_init(_token);\r\n        __GovernorVotesQuorumFraction_init(20);\r\n        __GovernorTimelockControl_init(_timelock);\r\n        __Ownable_init();\r\n        __UUPSUpgradeable_init();\r\n    }\r\n\r\n    function _authorizeUpgrade(address newImplementation)\r\n        internal\r\n        onlyOwner\r\n        override\r\n    {}\r\n\r\n    // The following functions are overrides required by Solidity.\r\n\r\n    function votingDelay()\r\n        public\r\n        view\r\n        override(IGovernorUpgradeable, GovernorSettingsUpgradeable)\r\n        returns (uint256)\r\n    {\r\n        return super.votingDelay();\r\n    }\r\n\r\n    function votingPeriod()\r\n        public\r\n        view\r\n        override(IGovernorUpgradeable, GovernorSettingsUpgradeable)\r\n        returns (uint256)\r\n    {\r\n        return super.votingPeriod();\r\n    }\r\n\r\n    function quorum(uint256 blockNumber)\r\n        public\r\n        view\r\n        override(IGovernorUpgradeable, GovernorVotesQuorumFractionUpgradeable)\r\n        returns (uint256)\r\n    {\r\n        return super.quorum(blockNumber);\r\n    }\r\n\r\n    function getVotes(address account, uint256 blockNumber)\r\n        public\r\n        view\r\n        override(IGovernorUpgradeable, GovernorVotesUpgradeable)\r\n        returns (uint256)\r\n    {\r\n        return super.getVotes(account, blockNumber);\r\n    }\r\n\r\n    function state(uint256 proposalId)\r\n        public\r\n        view\r\n        override(GovernorUpgradeable, IGovernorUpgradeable, GovernorTimelockControlUpgradeable)\r\n        returns (ProposalState)\r\n    {\r\n        return super.state(proposalId);\r\n    }\r\n\r\n    function propose(address[] memory targets, uint256[] memory values, bytes[] memory calldatas, string memory description)\r\n        public\r\n        override(GovernorUpgradeable, GovernorCompatibilityBravoUpgradeable, IGovernorUpgradeable)\r\n        returns (uint256)\r\n    {\r\n        return super.propose(targets, values, calldatas, description);\r\n    }\r\n\r\n    function proposalThreshold()\r\n        public\r\n        view\r\n        override(GovernorUpgradeable, GovernorSettingsUpgradeable)\r\n        returns (uint256)\r\n    {\r\n        return super.proposalThreshold();\r\n    }\r\n\r\n    function _execute(uint256 proposalId, address[] memory targets, uint256[] memory values, bytes[] memory calldatas, bytes32 descriptionHash)\r\n        internal\r\n        override(GovernorUpgradeable, GovernorTimelockControlUpgradeable)\r\n    {\r\n        super._execute(proposalId, targets, values, calldatas, descriptionHash);\r\n    }\r\n\r\n    function _cancel(address[] memory targets, uint256[] memory values, bytes[] memory calldatas, bytes32 descriptionHash)\r\n        internal\r\n        override(GovernorUpgradeable, GovernorTimelockControlUpgradeable)\r\n        returns (uint256)\r\n    {\r\n        return super._cancel(targets, values, calldatas, descriptionHash);\r\n    }\r\n\r\n    function _executor()\r\n        internal\r\n        view\r\n        override(GovernorUpgradeable, GovernorTimelockControlUpgradeable)\r\n        returns (address)\r\n    {\r\n        return super._executor();\r\n    }\r\n\r\n    function supportsInterface(bytes4 interfaceId)\r\n        public\r\n        view\r\n        override(GovernorUpgradeable, IERC165Upgradeable, GovernorTimelockControlUpgradeable)\r\n        returns (bool)\r\n    {\r\n        return super.supportsInterface(interfaceId);\r\n    }\r\n}",
  "sourcePath": "C:\\Users\\USER\\Desktop\\Picardy_Protocol\\contracts\\Governance\\GovonorControl.sol",
  "compiler": {
    "name": "solc",
    "version": "0.8.11+commit.d7f03943.Emscripten.clang"
  },
  "schemaVersion": "3.4.6",
  "updatedAt": "2022-05-27T16:24:58.525Z",
  "devdoc": {
    "kind": "dev",
    "methods": {
      "COUNTING_MODE()": {
        "details": "A description of the possible `support` values for {castVote} and the way these votes are counted, meant to be consumed by UIs to show correct vote options and interpret the results. The string is a URL-encoded sequence of key-value pairs that each describe one aspect, for example `support=bravo&quorum=for,abstain`. There are 2 standard keys: `support` and `quorum`. - `support=bravo` refers to the vote options 0 = Against, 1 = For, 2 = Abstain, as in `GovernorBravo`. - `quorum=bravo` means that only For votes are counted towards quorum. - `quorum=for,abstain` means that both For and Abstain votes are counted towards quorum. NOTE: The string can be decoded by the standard https://developer.mozilla.org/en-US/docs/Web/API/URLSearchParams[`URLSearchParams`] JavaScript class."
      },
      "cancel(uint256)": {
        "details": "Cancels a proposal only if sender is the proposer, or proposer delegates dropped below proposal threshold."
      },
      "castVote(uint256,uint8)": {
        "details": "See {IGovernor-castVote}."
      },
      "castVoteBySig(uint256,uint8,uint8,bytes32,bytes32)": {
        "details": "See {IGovernor-castVoteBySig}."
      },
      "castVoteWithReason(uint256,uint8,string)": {
        "details": "See {IGovernor-castVoteWithReason}."
      },
      "constructor": {
        "custom:oz-upgrades-unsafe-allow": "constructor"
      },
      "execute(address[],uint256[],bytes[],bytes32)": {
        "details": "See {IGovernor-execute}."
      },
      "execute(uint256)": {
        "details": "See {IGovernorCompatibilityBravo-execute}."
      },
      "getActions(uint256)": {
        "details": "See {IGovernorCompatibilityBravo-getActions}."
      },
      "getReceipt(uint256,address)": {
        "details": "See {IGovernorCompatibilityBravo-getReceipt}."
      },
      "hasVoted(uint256,address)": {
        "details": "See {IGovernor-hasVoted}."
      },
      "hashProposal(address[],uint256[],bytes[],bytes32)": {
        "details": "See {IGovernor-hashProposal}. The proposal id is produced by hashing the RLC encoded `targets` array, the `values` array, the `calldatas` array and the descriptionHash (bytes32 which itself is the keccak256 hash of the description string). This proposal id can be produced from the proposal data which is part of the {ProposalCreated} event. It can even be computed in advance, before the proposal is submitted. Note that the chainId and the governor address are not part of the proposal id computation. Consequently, the same proposal (with same operation and same description) will have the same id if submitted on multiple governors accross multiple networks. This also means that in order to execute the same operation twice (on the same governor) the proposer will have to change the description in order to avoid proposal id conflicts."
      },
      "name()": {
        "details": "See {IGovernor-name}."
      },
      "owner()": {
        "details": "Returns the address of the current owner."
      },
      "proposalDeadline(uint256)": {
        "details": "See {IGovernor-proposalDeadline}."
      },
      "proposalEta(uint256)": {
        "details": "Public accessor to check the eta of a queued proposal"
      },
      "proposalSnapshot(uint256)": {
        "details": "See {IGovernor-proposalSnapshot}."
      },
      "proposals(uint256)": {
        "details": "See {IGovernorCompatibilityBravo-proposals}."
      },
      "propose(address[],uint256[],string[],bytes[],string)": {
        "details": "See {IGovernorCompatibilityBravo-propose}."
      },
      "proxiableUUID()": {
        "details": "Implementation of the ERC1822 {proxiableUUID} function. This returns the storage slot used by the implementation. It is used to validate that the this implementation remains valid after an upgrade. IMPORTANT: A proxy pointing at a proxiable contract should not be considered proxiable itself, because this risks bricking a proxy that upgrades to it, by delegating to itself until out of gas. Thus it is critical that this function revert if invoked through a proxy. This is guaranteed by the `notDelegated` modifier."
      },
      "queue(address[],uint256[],bytes[],bytes32)": {
        "details": "Function to queue a proposal to the timelock."
      },
      "queue(uint256)": {
        "details": "See {IGovernorCompatibilityBravo-queue}."
      },
      "quorumDenominator()": {
        "details": "Returns the quorum denominator. Defaults to 100, but may be overridden."
      },
      "quorumNumerator()": {
        "details": "Returns the current quorum numerator. See {quorumDenominator}."
      },
      "quorumVotes()": {
        "details": "See {IGovernorCompatibilityBravo-quorumVotes}."
      },
      "relay(address,uint256,bytes)": {
        "details": "Relays a transaction or function call to an arbitrary target. In cases where the governance executor is some contract other than the governor itself, like when using a timelock, this function can be invoked in a governance proposal to recover tokens or Ether that was sent to the governor contract by mistake. Note that if the executor is simply the governor itself, use of `relay` is redundant."
      },
      "renounceOwnership()": {
        "details": "Leaves the contract without owner. It will not be possible to call `onlyOwner` functions anymore. Can only be called by the current owner. NOTE: Renouncing ownership will leave the contract without an owner, thereby removing any functionality that is only available to the owner."
      },
      "setProposalThreshold(uint256)": {
        "details": "Update the proposal threshold. This operation can only be performed through a governance proposal. Emits a {ProposalThresholdSet} event."
      },
      "setVotingDelay(uint256)": {
        "details": "Update the voting delay. This operation can only be performed through a governance proposal. Emits a {VotingDelaySet} event."
      },
      "setVotingPeriod(uint256)": {
        "details": "Update the voting period. This operation can only be performed through a governance proposal. Emits a {VotingPeriodSet} event."
      },
      "timelock()": {
        "details": "Public accessor to check the address of the timelock"
      },
      "transferOwnership(address)": {
        "details": "Transfers ownership of the contract to a new account (`newOwner`). Can only be called by the current owner."
      },
      "updateQuorumNumerator(uint256)": {
        "details": "Changes the quorum numerator. Emits a {QuorumNumeratorUpdated} event. Requirements: - Must be called through a governance proposal. - New numerator must be smaller or equal to the denominator."
      },
      "updateTimelock(address)": {
        "details": "Public endpoint to update the underlying timelock instance. Restricted to the timelock itself, so updates must be proposed, scheduled, and executed through governance proposals. CAUTION: It is not recommended to change the timelock while there are other queued governance proposals."
      },
      "upgradeTo(address)": {
        "details": "Upgrade the implementation of the proxy to `newImplementation`. Calls {_authorizeUpgrade}. Emits an {Upgraded} event."
      },
      "upgradeToAndCall(address,bytes)": {
        "details": "Upgrade the implementation of the proxy to `newImplementation`, and subsequently execute the function call encoded in `data`. Calls {_authorizeUpgrade}. Emits an {Upgraded} event."
      },
      "version()": {
        "details": "See {IGovernor-version}."
      }
    },
    "version": 1
  },
  "userdoc": {
    "kind": "user",
    "methods": {
      "COUNTING_MODE()": {
        "notice": "module:voting"
      }
    },
    "version": 1
  }
}