{
  "contractName": "PicardyHub",
  "abi": [
    {
      "inputs": [
        {
          "internalType": "address",
          "name": "_picardyToken",
          "type": "address"
        },
        {
          "internalType": "address",
          "name": "_followFactory",
          "type": "address"
        }
      ],
      "stateMutability": "nonpayable",
      "type": "constructor"
    },
    {
      "anonymous": false,
      "inputs": [
        {
          "indexed": true,
          "internalType": "address",
          "name": "tokenAddress",
          "type": "address"
        },
        {
          "indexed": true,
          "internalType": "address",
          "name": "creator",
          "type": "address"
        },
        {
          "indexed": true,
          "internalType": "uint256",
          "name": "time",
          "type": "uint256"
        }
      ],
      "name": "NewArtisteToken",
      "type": "event"
    },
    {
      "anonymous": false,
      "inputs": [
        {
          "indexed": true,
          "internalType": "uint256",
          "name": "time",
          "type": "uint256"
        }
      ],
      "name": "NewProfileCreated",
      "type": "event"
    },
    {
      "anonymous": false,
      "inputs": [
        {
          "indexed": true,
          "internalType": "address",
          "name": "previousOwner",
          "type": "address"
        },
        {
          "indexed": true,
          "internalType": "address",
          "name": "newOwner",
          "type": "address"
        }
      ],
      "name": "OwnershipTransferred",
      "type": "event"
    },
    {
      "inputs": [],
      "name": "followFactoryAddress",
      "outputs": [
        {
          "internalType": "address",
          "name": "",
          "type": "address"
        }
      ],
      "stateMutability": "view",
      "type": "function"
    },
    {
      "inputs": [],
      "name": "owner",
      "outputs": [
        {
          "internalType": "address",
          "name": "",
          "type": "address"
        }
      ],
      "stateMutability": "view",
      "type": "function"
    },
    {
      "inputs": [],
      "name": "renounceOwnership",
      "outputs": [],
      "stateMutability": "nonpayable",
      "type": "function"
    },
    {
      "inputs": [
        {
          "internalType": "address",
          "name": "newOwner",
          "type": "address"
        }
      ],
      "name": "transferOwnership",
      "outputs": [],
      "stateMutability": "nonpayable",
      "type": "function"
    },
    {
      "inputs": [
        {
          "internalType": "string",
          "name": "_name",
          "type": "string"
        },
        {
          "internalType": "string",
          "name": "_handle",
          "type": "string"
        }
      ],
      "name": "createProfile",
      "outputs": [
        {
          "internalType": "bool",
          "name": "",
          "type": "bool"
        }
      ],
      "stateMutability": "nonpayable",
      "type": "function"
    },
    {
      "inputs": [
        {
          "internalType": "string",
          "name": "_handle",
          "type": "string"
        }
      ],
      "name": "followCreator",
      "outputs": [],
      "stateMutability": "nonpayable",
      "type": "function"
    },
    {
      "inputs": [
        {
          "internalType": "string",
          "name": "_handle",
          "type": "string"
        }
      ],
      "name": "unfollowCreator",
      "outputs": [],
      "stateMutability": "nonpayable",
      "type": "function"
    },
    {
      "inputs": [
        {
          "internalType": "uint256",
          "name": "_profileId",
          "type": "uint256"
        }
      ],
      "name": "checkIsCreator",
      "outputs": [
        {
          "internalType": "bool",
          "name": "",
          "type": "bool"
        }
      ],
      "stateMutability": "view",
      "type": "function"
    },
    {
      "inputs": [
        {
          "internalType": "address",
          "name": "_vaultToken",
          "type": "address"
        }
      ],
      "name": "createVault",
      "outputs": [],
      "stateMutability": "nonpayable",
      "type": "function"
    },
    {
      "inputs": [
        {
          "internalType": "uint256",
          "name": "_profileId",
          "type": "uint256"
        }
      ],
      "name": "getProfileAddress",
      "outputs": [
        {
          "internalType": "address",
          "name": "",
          "type": "address"
        }
      ],
      "stateMutability": "view",
      "type": "function"
    },
    {
      "inputs": [
        {
          "internalType": "uint256",
          "name": "_profileId",
          "type": "uint256"
        }
      ],
      "name": "getProfileName",
      "outputs": [
        {
          "internalType": "string",
          "name": "",
          "type": "string"
        }
      ],
      "stateMutability": "view",
      "type": "function"
    },
    {
      "inputs": [
        {
          "internalType": "string",
          "name": "_handle",
          "type": "string"
        }
      ],
      "name": "getProfileId",
      "outputs": [
        {
          "internalType": "uint256",
          "name": "",
          "type": "uint256"
        }
      ],
      "stateMutability": "view",
      "type": "function"
    },
    {
      "inputs": [
        {
          "internalType": "string",
          "name": "_handle",
          "type": "string"
        }
      ],
      "name": "getProfileIdByHandle",
      "outputs": [
        {
          "internalType": "uint256",
          "name": "",
          "type": "uint256"
        }
      ],
      "stateMutability": "view",
      "type": "function"
    },
    {
      "inputs": [
        {
          "internalType": "uint256",
          "name": "_profileId",
          "type": "uint256"
        }
      ],
      "name": "getHandle",
      "outputs": [
        {
          "internalType": "string",
          "name": "",
          "type": "string"
        }
      ],
      "stateMutability": "view",
      "type": "function"
    },
    {
      "inputs": [
        {
          "internalType": "uint256",
          "name": "_vaultId",
          "type": "uint256"
        }
      ],
      "name": "getVaultAddress",
      "outputs": [
        {
          "internalType": "contract PicardyVault",
          "name": "",
          "type": "address"
        }
      ],
      "stateMutability": "view",
      "type": "function"
    },
    {
      "inputs": [
        {
          "internalType": "string",
          "name": "_handle",
          "type": "string"
        }
      ],
      "name": "getProfilDetails",
      "outputs": [
        {
          "internalType": "address",
          "name": "",
          "type": "address"
        },
        {
          "internalType": "address",
          "name": "",
          "type": "address"
        },
        {
          "internalType": "uint256",
          "name": "",
          "type": "uint256"
        },
        {
          "internalType": "string",
          "name": "",
          "type": "string"
        }
      ],
      "stateMutability": "view",
      "type": "function"
    },
    {
      "inputs": [
        {
          "internalType": "string",
          "name": "_handle",
          "type": "string"
        }
      ],
      "name": "checkHandle",
      "outputs": [
        {
          "internalType": "bool",
          "name": "",
          "type": "bool"
        }
      ],
      "stateMutability": "view",
      "type": "function"
    },
    {
      "inputs": [
        {
          "internalType": "string",
          "name": "_handle",
          "type": "string"
        },
        {
          "internalType": "address",
          "name": "_followAddress",
          "type": "address"
        }
      ],
      "name": "updateCreatorFollow",
      "outputs": [],
      "stateMutability": "nonpayable",
      "type": "function"
    }
  ],
  "bytecode": "0x60c06040523480156200001157600080fd5b5060405162005ed538038062005ed58339810160408190526200003491620000c4565b6200003f3362000057565b6001600160a01b039182166080521660a052620000fc565b600080546001600160a01b038381166001600160a01b0319831681178455604051919092169283917f8be0079c531659141344cd1fd0a4f28419497f9722a3daafe3b4186f6b6457e09190a35050565b80516001600160a01b0381168114620000bf57600080fd5b919050565b60008060408385031215620000d857600080fd5b620000e383620000a7565b9150620000f360208401620000a7565b90509250929050565b60805160a051615da86200012d6000396000818161015501528181610c540152610da2015260005050615da86000f3fe60806040523480156200001157600080fd5b5060043610620000fa5760003560e01c806320fa728a14620000ff5780633bf03cbc146200012957806365f5cca9146200014f578063715018a6146200018657806374a2b288146200019257806388f6b1dd14620001a95780638da5cb5b14620001c0578063936bca1114620001ca578063b4bd6f4614620001e1578063ba1feb8a14620001f8578063bb4bfb221462000220578063bde9afa51462000237578063db8ce08c146200024e578063e6bd26a2146200027e578063ec4a1c5214620002ad578063ec81d19414620002d6578063f2fde38b14620002ed578063f58c66781462000304575b600080fd5b6200011662000110366004620010e7565b6200031b565b6040519081526020015b60405180910390f35b620001406200013a36600462001127565b62000345565b6040516200012091906200119e565b620001777f000000000000000000000000000000000000000000000000000000000000000081565b604051620001209190620011ba565b62000190620003f4565b005b62000116620001a336600462001212565b6200043f565b62000190620001ba366004620010e7565b6200046d565b620001776200047b565b62000190620001db366004620010e7565b6200048a565b62000190620001f23660046200126d565b62000495565b6200020f620002093660046200128d565b620005d6565b604051901515815260200162000120565b6200019062000231366004620012f7565b620006cf565b6200020f6200024836600462001212565b6200072a565b620001776200025f36600462001127565b600090815260046020819052604090912001546001600160a01b031690565b620001776200028f36600462001127565b6000908152600660205260409020600101546001600160a01b031690565b620002c4620002be366004620010e7565b62000770565b60405162000120949392919062001353565b62000140620002e736600462001127565b6200086e565b62000190620002fe3660046200126d565b6200091b565b6200020f6200031536600462001127565b620009c1565b60006003826040516200032f919062001392565b9081526020016040518091039020549050919050565b6000818152600460205260408120600101805460609291906200036890620013b0565b80601f01602080910402602001604051908101604052809291908181526020018280546200039690620013b0565b8015620003e75780601f10620003bb57610100808354040283529160200191620003e7565b820191906000526020600020905b815481529060010190602001808311620003c957829003601f168201915b5093979650505050505050565b33620003ff6200047b565b6001600160a01b031614620004315760405162461bcd60e51b81526004016200042890620013ed565b60405180910390fd5b6200043d6000620009ea565b565b6000600383836040516200045592919062001422565b90815260200160405180910390205490505b92915050565b620004788162000a3a565b50565b6000546001600160a01b031690565b620004788162000b37565b33620004a06200047b565b6001600160a01b031614620004c95760405162461bcd60e51b81526004016200042890620013ed565b600854600090620004dc90600162001432565b9050600082604051620004ef9062000f7b565b620004fb9190620011ba565b604051809103906000f08015801562000518573d6000803e3d6000fd5b506040805180820182528481526001600160a01b03928316602080830191825260088054600181810183556000928352855160029092027ff3f7a9fe364faab93b216da50a3214154f22a0a2b415b23a84c8169e8b636ee381019290925584517ff3f7a9fe364faab93b216da50a3214154f22a0a2b415b23a84c8169e8b636ee490920180549289166001600160a01b0319938416179055988252600690925293909320915182555194018054949092169316929092179091555050565b3360009081526002602052604081205460ff1615620006295760405162461bcd60e51b815260206004820152600e60248201526d50726f66696c652045786973747360901b604482015260640162000428565b6005826040516200063b919062001392565b9081526040519081900360200190205460ff16156200068d5760405162461bcd60e51b815260206004820152600d60248201526c48616e646c652045786973747360981b604482015260640162000428565b62000699838362000be8565b505060405142907f44845e2a9a1c91ce4d0d2b203ee30cf569e57dd2148df20779b77c338f02414890600090a250600192915050565b600060038484604051620006e592919062001422565b90815260408051602092819003830190205460009081526004909252902060050180546001600160a01b0319166001600160a01b039390931692909217909155505050565b6000600583836040516200074092919062001422565b9081526040519081900360200190205460ff16151560011415620007675750600162000467565b50600062000467565b6000806000606060006003866040516200078b919062001392565b9081526040805160209281900383019020546000818152600493849052918220928301548354600190940180549295506001600160a01b0391821694919091169291620007d890620013b0565b80601f01602080910402602001604051908101604052809291908181526020018280546200080690620013b0565b8015620008575780601f106200082b5761010080835404028352916020019162000857565b820191906000526020600020905b8154815290600101906020018083116200083957829003601f168201915b50969d959c50969a50919850929650505050505050565b60008181526004602052604090206002018054606091906200089090620013b0565b80601f0160208091040260200160405190810160405280929190818152602001828054620008be90620013b0565b80156200090f5780601f10620008e3576101008083540402835291602001916200090f565b820191906000526020600020905b815481529060010190602001808311620008f157829003601f168201915b50505050509050919050565b33620009266200047b565b6001600160a01b0316146200094f5760405162461bcd60e51b81526004016200042890620013ed565b6001600160a01b038116620009b65760405162461bcd60e51b815260206004820152602660248201527f4f776e61626c653a206e6577206f776e657220697320746865207a65726f206160448201526564647265737360d01b606482015260840162000428565b6200047881620009ea565b60008181526007602052604081205460ff161515600114620009e257600080fd5b506001919050565b600080546001600160a01b038381166001600160a01b0319831681178455604051919092169283917f8be0079c531659141344cd1fd0a4f28419497f9722a3daafe3b4186f6b6457e09190a35050565b60058160405162000a4c919062001392565b9081526040519081900360200190205460ff16151560011462000a835760405162461bcd60e51b8152600401620004289062001459565b600060038260405162000a97919062001392565b90815260408051602092819003830181205460008181526004948590529290922060050154631819619160e01b82529193506001600160a01b0390911691829163181961919162000aeb91339101620011ba565b6020604051808303816000875af115801562000b0b573d6000803e3d6000fd5b505050506040513d601f19601f8201168201806040525081019062000b31919062001488565b50505050565b60058160405162000b49919062001392565b9081526040519081900360200190205460ff16151560011462000b805760405162461bcd60e51b8152600401620004289062001459565b600060038260405162000b94919062001392565b90815260408051602092819003830181205460008181526004948590529290922060050154634d90bc3760e01b82529193506001600160a01b03909116918291634d90bc379162000aeb91339101620011ba565b600080600062000bf762000f67565b905060003386863060405162000c0d9062000f89565b62000c1c9493929190620014ac565b604051809103906000f08015801562000c39573d6000803e3d6000fd5b50604051638d9dcac560e01b81529091506001600160a01b037f00000000000000000000000000000000000000000000000000000000000000001690638d9dcac59062000c8d9088903390600401620014f9565b6020604051808303816000875af115801562000cad573d6000803e3d6000fd5b505050506040513d601f19601f8201168201806040525081019062000cd3919062001488565b508160038660405162000ce7919062001392565b908152604080516020928190038301812093909355336000908152600290925290208054600160ff1990911681179091559060059062000d2990889062001392565b908152604080519182900360209081018320805494151560ff199586161790556001805480820182557fb10e2d527612073b26eecdfd717e6a320cf44b4afac2b0732d9fcbe2b7fa0cf60187905560008781526007909252918120805490941690911790925562122d6b60e81b81526001600160a01b037f0000000000000000000000000000000000000000000000000000000000000000169063122d6b009062000dd99089906004016200119e565b602060405180830381865afa15801562000df7573d6000803e3d6000fd5b505050506040513d601f19601f8201168201806040525081019062000e1d919062001525565b6040805160c08101825233815260208082018b81528284018b9052606083018890526001600160a01b03878116608085015285811660a085015260008981526004845294909420835181546001600160a01b0319169516949094178455518051949550919384939262000e9892600185019291019062000f97565b506040820151805162000eb691600284019160209091019062000f97565b50606082015160038201556080820151600480830180546001600160a01b03199081166001600160a01b039485161790915560a090940151600590930180549094169282169290921790925560405163c12d972f60e01b81529185169163c12d972f9162000f2791869101620011ba565b600060405180830381600087803b15801562000f4257600080fd5b505af115801562000f57573d6000803e3d6000fd5b50505050505050505b9250929050565b600180546000918291620004679162001432565b612406806200154683390190565b612427806200394c83390190565b82805462000fa590620013b0565b90600052602060002090601f01602090048101928262000fc9576000855562001014565b82601f1062000fe457805160ff191683800117855562001014565b8280016001018555821562001014579182015b828111156200101457825182559160200191906001019062000ff7565b506200102292915062001026565b5090565b5b8082111562001022576000815560010162001027565b634e487b7160e01b600052604160045260246000fd5b600082601f8301126200106557600080fd5b81356001600160401b03808211156200108257620010826200103d565b604051601f8301601f19908116603f01168101908282118183101715620010ad57620010ad6200103d565b81604052838152866020858801011115620010c757600080fd5b836020870160208301376000602085830101528094505050505092915050565b600060208284031215620010fa57600080fd5b81356001600160401b038111156200111157600080fd5b6200111f8482850162001053565b949350505050565b6000602082840312156200113a57600080fd5b5035919050565b60005b838110156200115e57818101518382015260200162001144565b8381111562000b315750506000910152565b600081518084526200118a81602086016020860162001141565b601f01601f19169290920160200192915050565b602081526000620011b3602083018462001170565b9392505050565b6001600160a01b0391909116815260200190565b60008083601f840112620011e157600080fd5b5081356001600160401b03811115620011f957600080fd5b60208301915083602082850101111562000f6057600080fd5b600080602083850312156200122657600080fd5b82356001600160401b038111156200123d57600080fd5b6200124b85828601620011ce565b90969095509350505050565b6001600160a01b03811681146200047857600080fd5b6000602082840312156200128057600080fd5b8135620011b38162001257565b60008060408385031215620012a157600080fd5b82356001600160401b0380821115620012b957600080fd5b620012c78683870162001053565b93506020850135915080821115620012de57600080fd5b50620012ed8582860162001053565b9150509250929050565b6000806000604084860312156200130d57600080fd5b83356001600160401b038111156200132457600080fd5b6200133286828701620011ce565b9094509250506020840135620013488162001257565b809150509250925092565b6001600160a01b0385811682528416602082015260408101839052608060608201819052600090620013889083018462001170565b9695505050505050565b60008251620013a681846020870162001141565b9190910192915050565b600181811c90821680620013c557607f821691505b60208210811415620013e757634e487b7160e01b600052602260045260246000fd5b50919050565b6020808252818101527f4f776e61626c653a2063616c6c6572206973206e6f7420746865206f776e6572604082015260600190565b8183823760009101908152919050565b600082198211156200145457634e487b7160e01b600052601160045260246000fd5b500190565b60208082526015908201527412185b991b1948191bd95cc81b9bdd08195e1a5cdd605a1b604082015260600190565b6000602082840312156200149b57600080fd5b81518015158114620011b357600080fd5b600060018060a01b03808716835260806020840152620014d0608084018762001170565b8381036040850152620014e4818762001170565b92505080841660608401525095945050505050565b6040815260006200150e604083018562001170565b905060018060a01b03831660208301529392505050565b6000602082840312156200153857600080fd5b8151620011b3816200125756fe60a060405262278d006002553480156200001857600080fd5b5060405162002406380380620024068339810160408190526200003b9162000139565b620000463362000079565b6001600160a01b0381166080819052600680546001600160a01b031916909117905562000072620000c9565b506200016b565b600080546001600160a01b038381166001600160a01b0319831681178455604051919092169283917f8be0079c531659141344cd1fd0a4f28419497f9722a3daafe3b4186f6b6457e09190a35050565b600030604051620000da906200012b565b6001600160a01b039091168152602001604051809103906000f08015801562000107573d6000803e3d6000fd5b50600580546001600160a01b0319166001600160a01b039290921691909117905550565b61107f806200138783390190565b6000602082840312156200014c57600080fd5b81516001600160a01b03811681146200016457600080fd5b9392505050565b6080516111f262000195600039600081816101240152818161024401526102dc01526111f26000f3fe608060405234801561001057600080fd5b50600436106100cf5760003560e01c8062f714ce146100d45780630bf6cc08146100e957806336fb15b4146101055780634499d14b1461011f5780634bef17bf14610146578063715018a61461014e5780637a33f63c146101565780638da5cb5b14610169578063a4f221bb14610171578063b6a1a08e14610184578063d9d479a414610197578063dcf2fc50146101aa578063dd5d4d6f146101bd578063eb46f7ed146101c5578063ed12e8ef146101d8578063f2fde38b146101e0575b600080fd5b6100e76100e2366004610fe4565b6101f3565b005b6100f260015481565b6040519081526020015b60405180910390f35b6005546001600160a01b03165b6040516100fc9190611010565b6101127f000000000000000000000000000000000000000000000000000000000000000081565b6100f2610393565b6100e76104a9565b6100f2610164366004611024565b6104e4565b610112610572565b6100e761017f366004611046565b610581565b6100e7610192366004611046565b61061a565b6100e76101a5366004611024565b61080f565b6100e76101b8366004611046565b610857565b6100f26109bb565b6100f26101d3366004611046565b610a32565b6001546100f2565b6100e76101ee366004611024565b610a59565b336101fc610572565b6001600160a01b03161461022b5760405162461bcd60e51b81526004016102229061105f565b60405180910390fd5b6040516370a0823160e01b815282906001600160a01b037f000000000000000000000000000000000000000000000000000000000000000016906370a0823190610279903090600401611010565b602060405180830381865afa158015610296573d6000803e3d6000fd5b505050506040513d601f19601f820116820180604052508101906102ba9190611094565b10156102c557600080fd5b6040516323b872dd60e01b81526001600160a01b037f000000000000000000000000000000000000000000000000000000000000000016906323b872dd90610315903090859087906004016110ad565b6020604051808303816000875af1158015610334573d6000803e3d6000fd5b505050506040513d601f19601f8201168201806040525081019061035891906110d1565b506040516001600160a01b0382169083907f6141b54b56b8a52a8c6f5cd2a857f6117b18ffbf4d46bd3106f300a839cbf5ea90600090a35050565b600080600560009054906101000a90046001600160a01b03166001600160a01b03166318160ddd6040518163ffffffff1660e01b8152600401602060405180830381865afa1580156103e9573d6000803e3d6000fd5b505050506040513d601f19601f8201168201806040525081019061040d9190611094565b6005546040516370a0823160e01b81529192506000916001600160a01b03909116906370a0823190610443903390600401611010565b602060405180830381865afa158015610460573d6000803e3d6000fd5b505050506040513d601f19601f820116820180604052508101906104849190611094565b9050600082600154836104979190611109565b6104a19190611128565b949350505050565b336104b2610572565b6001600160a01b0316146104d85760405162461bcd60e51b81526004016102229061105f565b6104e26000610af2565b565b6005546040516370a0823160e01b8152600091829182916001600160a01b0316906370a0823190610519908790600401611010565b602060405180830381865afa158015610536573d6000803e3d6000fd5b505050506040513d601f19601f8201168201806040525081019061055a9190611094565b11156105685750600161056c565b5060005b92915050565b6000546001600160a01b031690565b61058a81610b42565b6005546040516370a0823160e01b81526001600160a01b03909116906370a08231906105ba903390600401611010565b602060405180830381865afa1580156105d7573d6000803e3d6000fd5b505050506040513d601f19601f820116820180604052508101906105fb9190611094565b61061757336000908152600460205260409020805460ff191690555b50565b3360009081526004602052604090205460ff1615156001146106735760405162461bcd60e51b81526020600482015260126024820152712737ba1020902b30bab63a1026b2b6b132b960711b6044820152606401610222565b6006546040516370a0823160e01b815282916001600160a01b0316906370a08231906106a3903390600401611010565b602060405180830381865afa1580156106c0573d6000803e3d6000fd5b505050506040513d601f19601f820116820180604052508101906106e49190611094565b116107245760405162461bcd60e51b815260206004820152601060248201526f2737ba1022b737bab3b4102a37b5b2b760811b6044820152606401610222565b6006546040516323b872dd60e01b81526001600160a01b03909116906323b872dd90610758903390309086906004016110ad565b6020604051808303816000875af1158015610777573d6000803e3d6000fd5b505050506040513d601f19601f8201168201806040525081019061079b91906110d1565b5080600160008282546107ae919061114a565b909155506107bd905081610e76565b336000818152600460209081526040808320805460ff191660011790556003909152808220429055518392917fccdf17eb8a97f2b465f6808249b92fa225a1486cc104357a413adfb667d6d75191a350565b6005546001600160a01b0316331461082657600080fd5b6001600160a01b03166000908152600460209081526040808320805460ff1916600117905560039091529020429055565b6006546040516370a0823160e01b815282916001600160a01b0316906370a0823190610887903390600401611010565b602060405180830381865afa1580156108a4573d6000803e3d6000fd5b505050506040513d601f19601f820116820180604052508101906108c89190611094565b116108d257600080fd5b6006546040516323b872dd60e01b81526001600160a01b03909116906323b872dd90610906903390309086906004016110ad565b6020604051808303816000875af1158015610925573d6000803e3d6000fd5b505050506040513d601f19601f8201168201806040525081019061094991906110d1565b50806001600082825461095c919061114a565b9091555061096b905081610e76565b336000818152600460209081526040808320805460ff191660011790556003909152808220429055517fa37192df86fa67271dc1f2281b6305c64e57625c81b4887f7308608979ada21a9190a250565b6005546040516370a0823160e01b81526000916001600160a01b0316906370a08231906109ec903390600401611010565b602060405180830381865afa158015610a09573d6000803e3d6000fd5b505050506040513d601f19601f82011682018060405250810190610a2d9190611094565b905090565b6000808260016000828254610a47919061114a565b91829055506001819055949350505050565b33610a62610572565b6001600160a01b031614610a885760405162461bcd60e51b81526004016102229061105f565b6001600160a01b038116610aed5760405162461bcd60e51b815260206004820152602660248201527f4f776e61626c653a206e6577206f776e657220697320746865207a65726f206160448201526564647265737360d01b6064820152608401610222565b610617815b600080546001600160a01b038381166001600160a01b0319831681178455604051919092169283917f8be0079c531659141344cd1fd0a4f28419497f9722a3daafe3b4186f6b6457e09190a35050565b6005546040516370a0823160e01b81526000916001600160a01b0316906370a0823190610b73903390600401611010565b602060405180830381865afa158015610b90573d6000803e3d6000fd5b505050506040513d601f19601f82011682018060405250810190610bb49190611094565b11610bd15760405162461bcd60e51b815260040161022290611162565b600554604080516318160ddd60e01b815290516000926001600160a01b0316916318160ddd9160048083019260209291908290030181865afa158015610c1b573d6000803e3d6000fd5b505050506040513d601f19601f82011682018060405250810190610c3f9190611094565b9050600081600154610c519190611128565b6005546040516370a0823160e01b81529192506000916001600160a01b03909116906370a0823190610c87903390600401611010565b602060405180830381865afa158015610ca4573d6000803e3d6000fd5b505050506040513d601f19601f82011682018060405250810190610cc89190611094565b90506000610cd68383611109565b90506000610ce48487611128565b905085821015610d2b5760405162461bcd60e51b81526020600482015260126024820152714e6f7420656e6f7567682062616c616e636560701b6044820152606401610222565b6005546040516370a0823160e01b815282916001600160a01b0316906370a0823190610d5b903390600401611010565b602060405180830381865afa158015610d78573d6000803e3d6000fd5b505050506040513d601f19601f82011682018060405250810190610d9c9190611094565b11610db95760405162461bcd60e51b815260040161022290611162565b60008560015488610dca9190611109565b610dd49190611128565b90508060016000828254610de8919061118e565b90915550610df7905082610f2a565b60065460405163a9059cbb60e01b8152336004820152602481018390526001600160a01b039091169063a9059cbb906044016020604051808303816000875af1158015610e48573d6000803e3d6000fd5b505050506040513d601f19601f82011682018060405250810190610e6c91906110d1565b5050505050505050565b600080600560009054906101000a90046001600160a01b03166001600160a01b03166318160ddd6040518163ffffffff1660e01b8152600401602060405180830381865afa158015610ecc573d6000803e3d6000fd5b505050506040513d601f19601f82011682018060405250810190610ef09190611094565b905080610f0857829150610f0382610f94565b505050565b600154610f158285611109565b610f1f9190611128565b9150610f0382610f94565b600554604051633f34d4cf60e21b81526001600160a01b0390911690819063fcd3533c90610f5e90859033906004016111a5565b600060405180830381600087803b158015610f7857600080fd5b505af1158015610f8c573d6000803e3d6000fd5b505050505050565b6005546040516394bf804d60e01b81526001600160a01b039091169081906394bf804d90610f5e90859033906004016111a5565b80356001600160a01b0381168114610fdf57600080fd5b919050565b60008060408385031215610ff757600080fd5b8235915061100760208401610fc8565b90509250929050565b6001600160a01b0391909116815260200190565b60006020828403121561103657600080fd5b61103f82610fc8565b9392505050565b60006020828403121561105857600080fd5b5035919050565b6020808252818101527f4f776e61626c653a2063616c6c6572206973206e6f7420746865206f776e6572604082015260600190565b6000602082840312156110a657600080fd5b5051919050565b6001600160a01b039384168152919092166020820152604081019190915260600190565b6000602082840312156110e357600080fd5b8151801515811461103f57600080fd5b634e487b7160e01b600052601160045260246000fd5b6000816000190483118215151615611123576111236110f3565b500290565b60008261114557634e487b7160e01b600052601260045260246000fd5b500490565b6000821982111561115d5761115d6110f3565b500190565b6020808252601290820152712737ba10309039b430b932903437b63232b960711b604082015260600190565b6000828210156111a0576111a06110f3565b500390565b9182526001600160a01b031660208201526040019056fea2646970667358221220721de727a49f41d288fdc21ce5d2ae53c734a88f467ba94445d0de7a54cf980264736f6c634300080b003360a06040523480156200001157600080fd5b506040516200107f3803806200107f8339810160408190526200003491620001d9565b604080518082018252601381527f50696361726479205661756c7420546f6b656e000000000000000000000000006020808301918252835180850190945260078452662b29aa37b5b2b760c91b908401528151919291620000989160039162000133565b508051620000ae90600490602084019062000133565b505050620000cb620000c5620000dd60201b60201c565b620000e1565b6001600160a01b031660805262000248565b3390565b600580546001600160a01b038381166001600160a01b0319831681179093556040519116919082907f8be0079c531659141344cd1fd0a4f28419497f9722a3daafe3b4186f6b6457e090600090a35050565b82805462000141906200020b565b90600052602060002090601f016020900481019282620001655760008555620001b0565b82601f106200018057805160ff1916838001178555620001b0565b82800160010185558215620001b0579182015b82811115620001b057825182559160200191906001019062000193565b50620001be929150620001c2565b5090565b5b80821115620001be5760008155600101620001c3565b600060208284031215620001ec57600080fd5b81516001600160a01b03811681146200020457600080fd5b9392505050565b600181811c908216806200022057607f821691505b602082108114156200024257634e487b7160e01b600052602260045260246000fd5b50919050565b608051610e146200026b6000396000818161016d01526104750152610e146000f3fe608060405234801561001057600080fd5b50600436106100db5760003560e01c806306fdde03146100e0578063095ea7b3146100fe57806318160ddd1461012157806323b872dd14610133578063313ce567146101465780633950935114610155578063411557d11461016857806370a082311461019c578063715018a6146101c55780638da5cb5b146101cf57806394bf804d146101d757806395d89b41146101ea578063a457c2d7146101f2578063a9059cbb14610205578063dd62ed3e14610218578063f2fde38b1461022b578063fcd3533c1461023e575b600080fd5b6100e8610251565b6040516100f59190610ba6565b60405180910390f35b61011161010c366004610c17565b6102e3565b60405190151581526020016100f5565b6002545b6040519081526020016100f5565b610111610141366004610c41565b6102fb565b604051601281526020016100f5565b610111610163366004610c17565b61031f565b61018f7f000000000000000000000000000000000000000000000000000000000000000081565b6040516100f59190610c7d565b6101256101aa366004610c91565b6001600160a01b031660009081526020819052604090205490565b6101cd610341565b005b61018f610385565b6101cd6101e5366004610cb3565b610394565b6100e86103d1565b610111610200366004610c17565b6103e0565b610111610213366004610c17565b61045b565b610125610226366004610cdf565b6104e6565b6101cd610239366004610c91565b610511565b6101cd61024c366004610cb3565b6105b1565b60606003805461026090610d09565b80601f016020809104026020016040519081016040528092919081815260200182805461028c90610d09565b80156102d95780601f106102ae576101008083540402835291602001916102d9565b820191906000526020600020905b8154815290600101906020018083116102bc57829003601f168201915b5050505050905090565b6000336102f18185856105ea565b5060019392505050565b60003361030985828561070f565b610314858585610789565b506001949350505050565b6000336102f181858561033283836104e6565b61033c9190610d5a565b6105ea565b3361034a610385565b6001600160a01b0316146103795760405162461bcd60e51b815260040161037090610d72565b60405180910390fd5b6103836000610945565b565b6005546001600160a01b031690565b3361039d610385565b6001600160a01b0316146103c35760405162461bcd60e51b815260040161037090610d72565b6103cd8183610997565b5050565b60606004805461026090610d09565b600033816103ee82866104e6565b90508381101561044e5760405162461bcd60e51b815260206004820152602560248201527f45524332303a2064656372656173656420616c6c6f77616e63652062656c6f77604482015264207a65726f60d81b6064820152608401610370565b61031482868684036105ea565b6040516336751e6960e21b81526000906001600160a01b037f0000000000000000000000000000000000000000000000000000000000000000169063d9d479a4906104aa908690600401610c7d565b600060405180830381600087803b1580156104c457600080fd5b505af11580156104d8573d6000803e3d6000fd5b505050506102f18383610a64565b6001600160a01b03918216600090815260016020908152604080832093909416825291909152205490565b3361051a610385565b6001600160a01b0316146105405760405162461bcd60e51b815260040161037090610d72565b6001600160a01b0381166105a55760405162461bcd60e51b815260206004820152602660248201527f4f776e61626c653a206e6577206f776e657220697320746865207a65726f206160448201526564647265737360d01b6064820152608401610370565b6105ae81610945565b50565b336105ba610385565b6001600160a01b0316146105e05760405162461bcd60e51b815260040161037090610d72565b6103cd8183610a72565b6001600160a01b03831661064c5760405162461bcd60e51b8152602060048201526024808201527f45524332303a20617070726f76652066726f6d20746865207a65726f206164646044820152637265737360e01b6064820152608401610370565b6001600160a01b0382166106ad5760405162461bcd60e51b815260206004820152602260248201527f45524332303a20617070726f766520746f20746865207a65726f206164647265604482015261737360f01b6064820152608401610370565b6001600160a01b0383811660008181526001602090815260408083209487168084529482529182902085905590518481527f8c5be1e5ebec7d5bd14f71427d1e84f3dd0314c0f7b2291e5b200ac8c7c3b92591015b60405180910390a3505050565b600061071b84846104e6565b9050600019811461078357818110156107765760405162461bcd60e51b815260206004820152601d60248201527f45524332303a20696e73756666696369656e7420616c6c6f77616e63650000006044820152606401610370565b61078384848484036105ea565b50505050565b6001600160a01b0383166107ed5760405162461bcd60e51b815260206004820152602560248201527f45524332303a207472616e736665722066726f6d20746865207a65726f206164604482015264647265737360d81b6064820152608401610370565b6001600160a01b03821661084f5760405162461bcd60e51b815260206004820152602360248201527f45524332303a207472616e7366657220746f20746865207a65726f206164647260448201526265737360e81b6064820152608401610370565b6001600160a01b038316600090815260208190526040902054818110156108c75760405162461bcd60e51b815260206004820152602660248201527f45524332303a207472616e7366657220616d6f756e7420657863656564732062604482015265616c616e636560d01b6064820152608401610370565b6001600160a01b038085166000908152602081905260408082208585039055918516815290812080548492906108fe908490610d5a565b92505081905550826001600160a01b0316846001600160a01b0316600080516020610dbf8339815191528460405161093891815260200190565b60405180910390a3610783565b600580546001600160a01b038381166001600160a01b0319831681179093556040519116919082907f8be0079c531659141344cd1fd0a4f28419497f9722a3daafe3b4186f6b6457e090600090a35050565b6001600160a01b0382166109ed5760405162461bcd60e51b815260206004820152601f60248201527f45524332303a206d696e7420746f20746865207a65726f2061646472657373006044820152606401610370565b80600260008282546109ff9190610d5a565b90915550506001600160a01b03821660009081526020819052604081208054839290610a2c908490610d5a565b90915550506040518181526001600160a01b03831690600090600080516020610dbf8339815191529060200160405180910390a35050565b6000336102f1818585610789565b6001600160a01b038216610ad25760405162461bcd60e51b815260206004820152602160248201527f45524332303a206275726e2066726f6d20746865207a65726f206164647265736044820152607360f81b6064820152608401610370565b6001600160a01b03821660009081526020819052604090205481811015610b465760405162461bcd60e51b815260206004820152602260248201527f45524332303a206275726e20616d6f756e7420657863656564732062616c616e604482015261636560f01b6064820152608401610370565b6001600160a01b0383166000908152602081905260408120838303905560028054849290610b75908490610da7565b90915550506040518281526000906001600160a01b03851690600080516020610dbf83398151915290602001610702565b600060208083528351808285015260005b81811015610bd357858101830151858201604001528201610bb7565b81811115610be5576000604083870101525b50601f01601f1916929092016040019392505050565b80356001600160a01b0381168114610c1257600080fd5b919050565b60008060408385031215610c2a57600080fd5b610c3383610bfb565b946020939093013593505050565b600080600060608486031215610c5657600080fd5b610c5f84610bfb565b9250610c6d60208501610bfb565b9150604084013590509250925092565b6001600160a01b0391909116815260200190565b600060208284031215610ca357600080fd5b610cac82610bfb565b9392505050565b60008060408385031215610cc657600080fd5b82359150610cd660208401610bfb565b90509250929050565b60008060408385031215610cf257600080fd5b610cfb83610bfb565b9150610cd660208401610bfb565b600181811c90821680610d1d57607f821691505b60208210811415610d3e57634e487b7160e01b600052602260045260246000fd5b50919050565b634e487b7160e01b600052601160045260246000fd5b60008219821115610d6d57610d6d610d44565b500190565b6020808252818101527f4f776e61626c653a2063616c6c6572206973206e6f7420746865206f776e6572604082015260600190565b600082821015610db957610db9610d44565b50039056feddf252ad1be2c89b69c2b068fc378daa952ba7f163c4a11628f55a4df523b3efa26469706673582212205991d1386ec57b7c1c59c4cd80c9c05661264a4c0b02ac2148545afbb024783c64736f6c634300080b003360c06040526005608081905264173539b7b760d91b60a09081526200002891600c9190620003a5565b503480156200003657600080fd5b506040516200242738038062002427833981016040819052620000599162000535565b82518390839062000072906000906020850190620003a5565b50805162000088906001906020840190620003a5565b505050620000a56200009f6200013260201b60201c565b62000136565b600880546001600160a01b0319166001600160a01b0386161790558251620000d590600a906020860190620003a5565b508151620000eb90600b906020850190620003a5565b50620000f984600062000188565b600780546001600160a01b0319166001600160a01b0383811691909117909155600854620001289116620002d4565b5050505062000629565b3390565b600680546001600160a01b038381166001600160a01b0319831681179093556040519116919082907f8be0079c531659141344cd1fd0a4f28419497f9722a3daafe3b4186f6b6457e090600090a35050565b6001600160a01b038216620001e45760405162461bcd60e51b815260206004820181905260248201527f4552433732313a206d696e7420746f20746865207a65726f206164647265737360448201526064015b60405180910390fd5b6000818152600260205260409020546001600160a01b0316156200024b5760405162461bcd60e51b815260206004820152601c60248201527f4552433732313a20746f6b656e20616c7265616479206d696e746564000000006044820152606401620001db565b6001600160a01b038216600090815260036020526040812080546001929062000276908490620005c5565b909155505060008181526002602052604080822080546001600160a01b0319166001600160a01b03861690811790915590518392907fddf252ad1be2c89b69c2b068fc378daa952ba7f163c4a11628f55a4df523b3ef908290a45050565b6006546001600160a01b03163314620003305760405162461bcd60e51b815260206004820181905260248201527f4f776e61626c653a2063616c6c6572206973206e6f7420746865206f776e65726044820152606401620001db565b6001600160a01b038116620003975760405162461bcd60e51b815260206004820152602660248201527f4f776e61626c653a206e6577206f776e657220697320746865207a65726f206160448201526564647265737360d01b6064820152608401620001db565b620003a28162000136565b50565b828054620003b390620005ec565b90600052602060002090601f016020900481019282620003d7576000855562000422565b82601f10620003f257805160ff191683800117855562000422565b8280016001018555821562000422579182015b828111156200042257825182559160200191906001019062000405565b506200043092915062000434565b5090565b5b8082111562000430576000815560010162000435565b80516001600160a01b03811681146200046357600080fd5b919050565b634e487b7160e01b600052604160045260246000fd5b600082601f8301126200049057600080fd5b81516001600160401b0380821115620004ad57620004ad62000468565b604051601f8301601f19908116603f01168101908282118183101715620004d857620004d862000468565b81604052838152602092508683858801011115620004f557600080fd5b600091505b83821015620005195785820183015181830184015290820190620004fa565b838211156200052b5760008385830101525b9695505050505050565b600080600080608085870312156200054c57600080fd5b62000557856200044b565b60208601519094506001600160401b03808211156200057557600080fd5b62000583888389016200047e565b945060408701519150808211156200059a57600080fd5b50620005a9878288016200047e565b925050620005ba606086016200044b565b905092959194509250565b60008219821115620005e757634e487b7160e01b600052601160045260246000fd5b500190565b600181811c908216806200060157607f821691505b602082108114156200062357634e487b7160e01b600052602260045260246000fd5b50919050565b611dee80620006396000396000f3fe608060405234801561001057600080fd5b506004361061016a5760003560e01c806301ffc9a71461016f57806302ee3a521461019757806306fdde03146101ac578063081812fc146101c1578063095ea7b3146101e15780630d79f561146101f657806323b872dd146101fe578063260777fe146102115780633314cb8f14610227578063416b187e1461023a57806342842e0e14610240578063514f64771461025357806355f804b3146102665780636352211e14610279578063639a71b21461028c57806370a082311461029f578063715018a6146102b25780637865bc11146102ba5780638da5cb5b146102c257806393ec8542146102ca57806395d89b41146102dd578063a22cb465146102e5578063a433ccc7146102f8578063b88d4fde14610300578063c12d972f14610313578063c668286214610326578063c87b56dd1461032e578063de4e49ca14610341578063e985e9c514610352578063f2fde38b14610365575b600080fd5b61018261017d366004611641565b610378565b60405190151581526020015b60405180910390f35b61019f6103ca565b60405161018e919061165e565b6101b461042c565b60405161018e9190611703565b6101d46101cf366004611716565b6104b5565b60405161018e919061172f565b6101f46101ef366004611758565b610542565b005b61019f610653565b6101f461020c366004611784565b6106ca565b6102196106fb565b60405190815260200161018e565b61019f610235366004611716565b610769565b306101d4565b6101f461024e366004611784565b6107d5565b6101f4610261366004611882565b6107f0565b6101f46102743660046118da565b6108e0565b6101d4610287366004611716565b6108ff565b6101d461029a36600461190e565b610976565b6102196102ad366004611954565b6109b3565b6101f4610a3a565b6101f4610a75565b6101d4610b16565b6101f46102d83660046118da565b610b25565b6101b4610ba1565b6101f46102f336600461197f565b610bb0565b6101f4610bbb565b6101f461030e3660046119b8565b610c5c565b6101f4610321366004611954565b610c94565b6101b4610ccd565b6101b461033c366004611716565b610d5b565b6008546001600160a01b03166101d4565b610182610360366004611a37565b610e33565b6101f4610373366004611954565b610e61565b60006001600160e01b031982166380ac58cd60e01b14806103a957506001600160e01b03198216635b5e139f60e01b145b806103c457506301ffc9a760e01b6001600160e01b03198316145b92915050565b6060601080548060200260200160405190810160405280929190818152602001828054801561042257602002820191906000526020600020905b81546001600160a01b03168152600190910190602001808311610404575b5050505050905090565b60606000805461043b90611a65565b80601f016020809104026020016040519081016040528092919081815260200182805461046790611a65565b80156104225780601f1061048957610100808354040283529160200191610422565b820191906000526020600020905b81548152906001019060200180831161049757509395945050505050565b60006104c082610f01565b6105265760405162461bcd60e51b815260206004820152602c60248201527f4552433732313a20617070726f76656420717565727920666f72206e6f6e657860448201526b34b9ba32b73a103a37b5b2b760a11b60648201526084015b60405180910390fd5b506000908152600460205260409020546001600160a01b031690565b600061054d826108ff565b9050806001600160a01b0316836001600160a01b031614156105bb5760405162461bcd60e51b815260206004820152602160248201527f4552433732313a20617070726f76616c20746f2063757272656e74206f776e656044820152603960f91b606482015260840161051d565b336001600160a01b03821614806105d757506105d78133610e33565b6106445760405162461bcd60e51b815260206004820152603860248201527f4552433732313a20617070726f76652063616c6c6572206973206e6f74206f776044820152771b995c881b9bdc88185c1c1c9bdd995908199bdc88185b1b60421b606482015260840161051d565b61064e8383610f1e565b505050565b60095460408051630d79f56160e01b815290516060926001600160a01b031691630d79f5619160048083019260009291908290030181865afa15801561069d573d6000803e3d6000fd5b505050506040513d6000823e601f3d908101601f191682016040526106c59190810190611aa0565b905090565b6106d43382610f8c565b6106f05760405162461bcd60e51b815260040161051d90611b51565b61064e838383611056565b60095460408051631303bbff60e11b815290516000926001600160a01b03169163260777fe9160048083019260209291908290030181865afa158015610745573d6000803e3d6000fd5b505050506040513d601f19601f820116820180604052508101906106c59190611ba2565b6000818152600e60209081526040918290208054835181840281018401909452808452606093928301828280156107c957602002820191906000526020600020905b81546001600160a01b031681526001909101906020018083116107ab575b50505050509050919050565b61064e83838360405180602001604052806000815250610c5c565b6008546001600160a01b0316321461080757600080fd5b6000838152600e60209081526040808320600f90925291829020915190918491610832908590611bbb565b9081526040516020918190038201812080546001600160a01b03199081166001600160a01b0395861617909155845460018181018755600087815294852090910180548316958916958617905560108054918201815584527f1b6847dc741a1b0cd08d278845f9d819d87b734759afb55fe2de5cb82a9ae6720180549091168417905586917f34bec8f7def8237f9a30ac54aebff5a5acd1923d5eae92855efdc30a8cdb7e2591a350505050565b6108e86111f2565b80516108fb90600d906020840190611592565b5050565b6000818152600260205260408120546001600160a01b0316806103c45760405162461bcd60e51b815260206004820152602960248201527f4552433732313a206f776e657220717565727920666f72206e6f6e657869737460448201526832b73a103a37b5b2b760b91b606482015260840161051d565b6000828152600f60205260408082209051610992908490611bbb565b908152604051908190036020019020546001600160a01b0316905092915050565b60006001600160a01b038216610a1e5760405162461bcd60e51b815260206004820152602a60248201527f4552433732313a2062616c616e636520717565727920666f7220746865207a65604482015269726f206164647265737360b01b606482015260840161051d565b506001600160a01b031660009081526003602052604090205490565b33610a43610b16565b6001600160a01b031614610a695760405162461bcd60e51b815260040161051d90611bd7565b610a736000611247565b565b600954604051631819619160e01b81526001600160a01b0390911690631819619190610aa590339060040161172f565b6020604051808303816000875af1158015610ac4573d6000803e3d6000fd5b505050506040513d601f19601f82011682018060405250810190610ae89190611c0c565b5060405133907feec2b0215309af7425b7c70d86d811dac004320e90dc1518a084d40840c663cc90600090a2565b6006546001600160a01b031690565b6008546001600160a01b03163314610b3c57600080fd5b60095460405163a0bcfc7f60e01b81526001600160a01b039091169063a0bcfc7f90610b6c908490600401611703565b600060405180830381600087803b158015610b8657600080fd5b505af1158015610b9a573d6000803e3d6000fd5b5050505050565b60606001805461043b90611a65565b6108fb338383611299565b600954604051634d90bc3760e01b81526001600160a01b0390911690634d90bc3790610beb90339060040161172f565b6020604051808303816000875af1158015610c0a573d6000803e3d6000fd5b505050506040513d601f19601f82011682018060405250810190610c2e9190611c0c565b5060405133907f4cc7d9539ce01437cdeb528a3129c5cda0d65929048a1f9942d9dae632e7037090600090a2565b610c663383610f8c565b610c825760405162461bcd60e51b815260040161051d90611b51565b610c8e84848484611364565b50505050565b6007546001600160a01b03163314610cab57600080fd5b600980546001600160a01b0319166001600160a01b0392909216919091179055565b600c8054610cda90611a65565b80601f0160208091040260200160405190810160405280929190818152602001828054610d0690611a65565b8015610d535780601f10610d2857610100808354040283529160200191610d53565b820191906000526020600020905b815481529060010190602001808311610d3657829003601f168201915b505050505081565b6060610d6682610f01565b610dca5760405162461bcd60e51b815260206004820152602f60248201527f4552433732314d657461646174613a2055524920717565727920666f72206e6f60448201526e3732bc34b9ba32b73a103a37b5b2b760891b606482015260840161051d565b6000610de160408051602081019091526000815290565b90506000815111610e015760405180602001604052806000815250610e2c565b80610e0b84611397565b604051602001610e1c929190611c29565b6040516020818303038152906040525b9392505050565b6001600160a01b03918216600090815260056020908152604080832093909416825291909152205460ff1690565b33610e6a610b16565b6001600160a01b031614610e905760405162461bcd60e51b815260040161051d90611bd7565b6001600160a01b038116610ef55760405162461bcd60e51b815260206004820152602660248201527f4f776e61626c653a206e6577206f776e657220697320746865207a65726f206160448201526564647265737360d01b606482015260840161051d565b610efe81611247565b50565b6000908152600260205260409020546001600160a01b0316151590565b600081815260046020526040902080546001600160a01b0319166001600160a01b0384169081179091558190610f53826108ff565b6001600160a01b03167f8c5be1e5ebec7d5bd14f71427d1e84f3dd0314c0f7b2291e5b200ac8c7c3b92560405160405180910390a45050565b6000610f9782610f01565b610ff85760405162461bcd60e51b815260206004820152602c60248201527f4552433732313a206f70657261746f7220717565727920666f72206e6f6e657860448201526b34b9ba32b73a103a37b5b2b760a11b606482015260840161051d565b6000611003836108ff565b9050806001600160a01b0316846001600160a01b0316148061102a575061102a8185610e33565b8061104e5750836001600160a01b0316611043846104b5565b6001600160a01b0316145b949350505050565b826001600160a01b0316611069826108ff565b6001600160a01b0316146110cd5760405162461bcd60e51b815260206004820152602560248201527f4552433732313a207472616e736665722066726f6d20696e636f72726563742060448201526437bbb732b960d91b606482015260840161051d565b6001600160a01b03821661112f5760405162461bcd60e51b8152602060048201526024808201527f4552433732313a207472616e7366657220746f20746865207a65726f206164646044820152637265737360e01b606482015260840161051d565b61113a600082610f1e565b6001600160a01b0383166000908152600360205260408120805460019290611163908490611c6e565b90915550506001600160a01b0382166000908152600360205260408120805460019290611191908490611c85565b909155505060008181526002602052604080822080546001600160a01b0319166001600160a01b0386811691821790925591518493918716917fddf252ad1be2c89b69c2b068fc378daa952ba7f163c4a11628f55a4df523b3ef91a4505050565b6008546001600160a01b03163314610a735760405162461bcd60e51b81526020600482015260186024820152772cb7ba903237b73a103430bb32903832b936b4b9b9b4b7b760411b604482015260640161051d565b600680546001600160a01b038381166001600160a01b0319831681179093556040519116919082907f8be0079c531659141344cd1fd0a4f28419497f9722a3daafe3b4186f6b6457e090600090a35050565b816001600160a01b0316836001600160a01b031614156112f75760405162461bcd60e51b815260206004820152601960248201527822a9219b99189d1030b8383937bb32903a379031b0b63632b960391b604482015260640161051d565b6001600160a01b03838116600081815260056020908152604080832094871680845294825291829020805460ff191686151590811790915591519182527f17307eab39ab6107e8899845ad3d59bd9653f200f220920489ca2b5937696c31910160405180910390a3505050565b61136f848484611056565b61137b84848484611494565b610c8e5760405162461bcd60e51b815260040161051d90611c9d565b6060816113bb5750506040805180820190915260018152600360fc1b602082015290565b8160005b81156113e557806113cf81611cef565b91506113de9050600a83611d20565b91506113bf565b6000816001600160401b038111156113ff576113ff6117c5565b6040519080825280601f01601f191660200182016040528015611429576020820181803683370190505b5090505b841561104e5761143e600183611c6e565b915061144b600a86611d34565b611456906030611c85565b60f81b81838151811061146b5761146b611d48565b60200101906001600160f81b031916908160001a90535061148d600a86611d20565b945061142d565b60006001600160a01b0384163b1561158757604051630a85bd0160e11b81526001600160a01b0385169063150b7a02906114d8903390899088908890600401611d5e565b6020604051808303816000875af1925050508015611513575060408051601f3d908101601f1916820190925261151091810190611d9b565b60015b61156d573d808015611541576040519150601f19603f3d011682016040523d82523d6000602084013e611546565b606091505b5080516115655760405162461bcd60e51b815260040161051d90611c9d565b805181602001fd5b6001600160e01b031916630a85bd0160e11b14905061104e565b506001949350505050565b82805461159e90611a65565b90600052602060002090601f0160209004810192826115c05760008555611606565b82601f106115d957805160ff1916838001178555611606565b82800160010185558215611606579182015b828111156116065782518255916020019190600101906115eb565b50611612929150611616565b5090565b5b808211156116125760008155600101611617565b6001600160e01b031981168114610efe57600080fd5b60006020828403121561165357600080fd5b8135610e2c8161162b565b6020808252825182820181905260009190848201906040850190845b8181101561169f5783516001600160a01b03168352928401929184019160010161167a565b50909695505050505050565b60005b838110156116c65781810151838201526020016116ae565b83811115610c8e5750506000910152565b600081518084526116ef8160208601602086016116ab565b601f01601f19169290920160200192915050565b602081526000610e2c60208301846116d7565b60006020828403121561172857600080fd5b5035919050565b6001600160a01b0391909116815260200190565b6001600160a01b0381168114610efe57600080fd5b6000806040838503121561176b57600080fd5b823561177681611743565b946020939093013593505050565b60008060006060848603121561179957600080fd5b83356117a481611743565b925060208401356117b481611743565b929592945050506040919091013590565b634e487b7160e01b600052604160045260246000fd5b604051601f8201601f191681016001600160401b0381118282101715611803576118036117c5565b604052919050565b60006001600160401b03831115611824576118246117c5565b611837601f8401601f19166020016117db565b905082815283838301111561184b57600080fd5b828260208301376000602084830101529392505050565b600082601f83011261187357600080fd5b610e2c8383356020850161180b565b60008060006060848603121561189757600080fd5b8335925060208401356118a981611743565b915060408401356001600160401b038111156118c457600080fd5b6118d086828701611862565b9150509250925092565b6000602082840312156118ec57600080fd5b81356001600160401b0381111561190257600080fd5b61104e84828501611862565b6000806040838503121561192157600080fd5b8235915060208301356001600160401b0381111561193e57600080fd5b61194a85828601611862565b9150509250929050565b60006020828403121561196657600080fd5b8135610e2c81611743565b8015158114610efe57600080fd5b6000806040838503121561199257600080fd5b823561199d81611743565b915060208301356119ad81611971565b809150509250929050565b600080600080608085870312156119ce57600080fd5b84356119d981611743565b935060208501356119e981611743565b92506040850135915060608501356001600160401b03811115611a0b57600080fd5b8501601f81018713611a1c57600080fd5b611a2b8782356020840161180b565b91505092959194509250565b60008060408385031215611a4a57600080fd5b8235611a5581611743565b915060208301356119ad81611743565b600181811c90821680611a7957607f821691505b60208210811415611a9a57634e487b7160e01b600052602260045260246000fd5b50919050565b60006020808385031215611ab357600080fd5b82516001600160401b0380821115611aca57600080fd5b818501915085601f830112611ade57600080fd5b815181811115611af057611af06117c5565b8060051b9150611b018483016117db565b8181529183018401918481019088841115611b1b57600080fd5b938501935b83851015611b455784519250611b3583611743565b8282529385019390850190611b20565b98975050505050505050565b60208082526031908201527f4552433732313a207472616e736665722063616c6c6572206973206e6f74206f6040820152701ddb995c881b9bdc88185c1c1c9bdd9959607a1b606082015260800190565b600060208284031215611bb457600080fd5b5051919050565b60008251611bcd8184602087016116ab565b9190910192915050565b6020808252818101527f4f776e61626c653a2063616c6c6572206973206e6f7420746865206f776e6572604082015260600190565b600060208284031215611c1e57600080fd5b8151610e2c81611971565b60008351611c3b8184602088016116ab565b835190830190611c4f8183602088016116ab565b01949350505050565b634e487b7160e01b600052601160045260246000fd5b600082821015611c8057611c80611c58565b500390565b60008219821115611c9857611c98611c58565b500190565b60208082526032908201527f4552433732313a207472616e7366657220746f206e6f6e20455243373231526560408201527131b2b4bb32b91034b6b83632b6b2b73a32b960711b606082015260800190565b6000600019821415611d0357611d03611c58565b5060010190565b634e487b7160e01b600052601260045260246000fd5b600082611d2f57611d2f611d0a565b500490565b600082611d4357611d43611d0a565b500690565b634e487b7160e01b600052603260045260246000fd5b6001600160a01b0385811682528416602082015260408101839052608060608201819052600090611d91908301846116d7565b9695505050505050565b600060208284031215611dad57600080fd5b8151610e2c8161162b56fea2646970667358221220d318d4dc8d152f12d4378f6ae3ee3a4963f48d4cc83d0e96650f70b1470818f364736f6c634300080b0033a264697066735822122067210d744823ab4672067fb92eb23c7b2dc1a57f8bf981a4a895b0a780e876cc64736f6c634300080b0033",
  "immutableReferences": {
    "10642": [
      {
        "length": 32,
        "start": 341
      },
      {
        "length": 32,
        "start": 3156
      },
      {
        "length": 32,
        "start": 3490
      }
    ]
  },
  "source": "/**\r\n    @author Blok Hamster \r\n */\r\n\r\n// SPDX-License-Identifier: MIT\r\npragma solidity ^0.8.4;\r\npragma experimental ABIEncoderV2;\r\n\r\nimport \"./Users/PicardyProfile.sol\";\r\nimport \"./Products/PicardyVault.sol\";\r\nimport \"@openzeppelin/contracts/access/Ownable.sol\";\r\nimport {ICreatorFollowInterface} from \"./Users/CreatorFollow.sol\";\r\nimport {IFollowFactory} from \"./Factory/FollowFactory.sol\";\r\n\r\ncontract PicardyHub is Ownable {\r\n\r\n    event NewProfileCreated(uint indexed time);\r\n    event NewArtisteToken(address indexed tokenAddress, address indexed creator, uint indexed time);\r\n\r\n    struct Profile{\r\n        address creator;\r\n        string name;\r\n        string handle;\r\n        uint profileId;\r\n        address profileAddress;\r\n        address creatorFollow;\r\n    }\r\n\r\n    struct Vault{\r\n        uint Id;\r\n        PicardyVault picardyVaultAddress;\r\n    }\r\n\r\n    address immutable PICARDY_TOKEN;\r\n    address public immutable followFactoryAddress;\r\n    uint[] profileIdLog;\r\n\r\n    mapping (address => bool) isCreator;\r\n    mapping (string => uint) handleToProfileId;\r\n    mapping (uint => Profile) profileMap;\r\n    mapping (string => bool) handleExist;\r\n    mapping (uint => Vault) vaultMap;\r\n    mapping (uint => bool) profileExist;\r\n\r\n    Vault[] vaultsLog;\r\n    \r\n\r\n    modifier onlyCreator(){\r\n        _onlyCreator();\r\n        _;\r\n    }\r\n\r\n    constructor(address _picardyToken, address _followFactory) {\r\n       PICARDY_TOKEN = _picardyToken;\r\n       followFactoryAddress = _followFactory;\r\n    }\r\n\r\n\r\n    /**\r\n        @dev this function creates a new ERC712 Profile contract \r\n        @param _name is the profile or creator name\r\n        @param _handle is the profile creator handle\r\n    \r\n     */\r\n    function createProfile(string memory _name, string memory _handle) external returns(bool){\r\n        require(isCreator[msg.sender] == false, \"Profile Exists\");\r\n        require(handleExist[_handle] == false, \"Handle Exists\");\r\n        \r\n        _createProfile(_name, _handle);\r\n\r\n        emit NewProfileCreated(block.timestamp);\r\n\r\n        return true;\r\n    }\r\n\r\n    function followCreator(string memory _handle) external {\r\n        _followCreator(_handle);\r\n    }\r\n\r\n    function unfollowCreator(string memory _handle) external {\r\n        _unfollowCreator(_handle);\r\n    }\r\n\r\n\r\n    function checkIsCreator(uint _profileId) external view returns(bool){\r\n        require(profileExist[_profileId] == true);   \r\n        return true;\r\n    }\r\n\r\n    function createVault(address _vaultToken) external onlyOwner{\r\n        uint vaultId = vaultsLog.length + 1;\r\n        PicardyVault newPicardyVault = new PicardyVault(_vaultToken);\r\n\r\n        Vault memory newVault = Vault(vaultId, newPicardyVault);\r\n        vaultsLog.push(newVault);\r\n        vaultMap[vaultId] = newVault;\r\n    }    \r\n\r\n    function getProfileAddress(uint _profileId) external view returns (address){\r\n        address newProfileAddress = profileMap[_profileId].profileAddress;\r\n        return newProfileAddress;\r\n    }\r\n\r\n    function getProfileName(uint _profileId) external view returns (string memory){\r\n        string memory name =  profileMap[_profileId].name;\r\n        return name;\r\n    }\r\n\r\n    function getProfileId(string calldata _handle) external view returns(uint){\r\n        return handleToProfileId[_handle];\r\n    }\r\n\r\n    function getProfileIdByHandle(string memory _handle) external view returns(uint){\r\n        return handleToProfileId[_handle];\r\n    }\r\n\r\n    function getHandle(uint _profileId) external view returns(string memory){\r\n        return profileMap[_profileId].handle;\r\n    }\r\n\r\n    function getVaultAddress(uint _vaultId) external view returns(PicardyVault){\r\n        return vaultMap[_vaultId].picardyVaultAddress;\r\n    }\r\n\r\n    function getProfilDetails(string memory _handle) external view returns(address, address, uint, string memory){\r\n        uint profileId = handleToProfileId[_handle];\r\n        address profileAddress = profileMap[profileId].profileAddress;\r\n        address creator = profileMap[profileId].creator;\r\n        string memory name = profileMap[profileId].name;\r\n\r\n        return (profileAddress, creator, profileId, name);\r\n    }\r\n\r\n    function checkHandle(string calldata _handle) external view returns(bool){\r\n        if (handleExist[_handle] == true){\r\n            return true;\r\n        } else {\r\n            return false;\r\n        }\r\n    }\r\n\r\n    function updateCreatorFollow(string calldata _handle, address _followAddress) external {\r\n        uint profileId = handleToProfileId[_handle];\r\n        profileMap[profileId].creatorFollow = _followAddress;\r\n    }\r\n\r\n    // INTERNAL FUNCTIONS//\r\n\r\n    function _createProfile(string memory _name, string memory _handle) internal returns(bool success, uint _profileId){\r\n        uint newProfileId = _nextProfileId();\r\n        PicardyProfile newPicardyProfile = new PicardyProfile(msg.sender, _name, _handle, address(this));\r\n        IFollowFactory(followFactoryAddress).createFollowToken(_handle, msg.sender);\r\n        \r\n        handleToProfileId[_handle] = newProfileId;\r\n        \r\n        isCreator[msg.sender] = true;\r\n        handleExist[_handle] = true;\r\n        profileIdLog.push(newProfileId);\r\n        profileExist[newProfileId] = true;\r\n\r\n        address followAddress = IFollowFactory(followFactoryAddress).getCreatorFollowAddress(_handle);\r\n        Profile memory newProfile = Profile(msg.sender, _name, _handle, newProfileId, address(newPicardyProfile), followAddress);\r\n        profileMap[newProfileId] = newProfile;\r\n    \r\n        \r\n        IPicardyProfile(address(newPicardyProfile)).updateFollowAddress(followAddress);\r\n        \r\n        return (success, _profileId);\r\n\r\n    }\r\n\r\n    function _followCreator(string memory _handle) internal {\r\n        require(handleExist[_handle] == true, \"Handle does not exist\");\r\n        uint newProfileId = handleToProfileId[_handle];\r\n        address followAddress = address(profileMap[newProfileId].creatorFollow);\r\n        ICreatorFollowInterface(followAddress).followCreator(msg.sender);\r\n    }\r\n\r\n    function _unfollowCreator(string memory _handle) internal {\r\n        require(handleExist[_handle] == true, \"Handle does not exist\");\r\n        uint newProfileId = handleToProfileId[_handle];\r\n        address followAddress = address(profileMap[newProfileId].creatorFollow);\r\n        ICreatorFollowInterface(followAddress).unfollowCreator(msg.sender);\r\n    }\r\n\r\n\r\n    function _onlyCreator() internal view {\r\n        require(isCreator[msg.sender] == true, \"Not Creator\");\r\n    }\r\n\r\n    function _nextProfileId() internal view returns(uint){\r\n        uint newProfileId = profileIdLog.length + 1;\r\n        return newProfileId;\r\n    }\r\n\r\n}\r\n\r\ninterface IPicardyHub{\r\n    \r\n    function createProfile(string memory _name, string memory _handle) external;\r\n    \r\n    function checkIsCreator(uint _profileId) external view returns(bool);\r\n    \r\n    function getProfileAddress(uint _profileId) external view returns (address);\r\n    \r\n    function getProfileName(uint _profileId) external view returns (string memory);\r\n\r\n    function getProfileId(address _profileOwner) external view returns(uint);\r\n\r\n    function checkHandle(string calldata _handle) external view returns(bool);\r\n\r\n    function followCreator(string memory _handle) external;\r\n\r\n    function unfollowCreator(string memory _handle) external;\r\n\r\n     function getHandle(uint _profileId) external view returns(string memory);\r\n}",
  "sourcePath": "C:\\Users\\USER\\Desktop\\Projects\\Picardy_Protocol\\contracts\\PicardyHub.sol",
  "compiler": {
    "name": "solc",
    "version": "0.8.11+commit.d7f03943.Emscripten.clang"
  },
  "schemaVersion": "3.4.6",
  "updatedAt": "2022-08-18T20:31:17.149Z",
  "devdoc": {
    "kind": "dev",
    "methods": {
      "createProfile(string,string)": {
        "details": "this function creates a new ERC712 Profile contract ",
        "params": {
          "_handle": "is the profile creator handle",
          "_name": "is the profile or creator name"
        }
      },
      "owner()": {
        "details": "Returns the address of the current owner."
      },
      "renounceOwnership()": {
        "details": "Leaves the contract without owner. It will not be possible to call `onlyOwner` functions anymore. Can only be called by the current owner. NOTE: Renouncing ownership will leave the contract without an owner, thereby removing any functionality that is only available to the owner."
      },
      "transferOwnership(address)": {
        "details": "Transfers ownership of the contract to a new account (`newOwner`). Can only be called by the current owner."
      }
    },
    "version": 1
  },
  "userdoc": {
    "kind": "user",
    "methods": {},
    "version": 1
  }
}