{
  "contractName": "PicardyNftBase",
  "abi": [
    {
      "inputs": [
        {
          "internalType": "uint256",
          "name": "_maxSupply",
          "type": "uint256"
        },
        {
          "internalType": "uint256",
          "name": "_maxMintAmount",
          "type": "uint256"
        },
        {
          "internalType": "uint256",
          "name": "_cost",
          "type": "uint256"
        },
        {
          "internalType": "string",
          "name": "_name",
          "type": "string"
        },
        {
          "internalType": "string",
          "name": "_symbol",
          "type": "string"
        },
        {
          "internalType": "string",
          "name": "_initBaseURI",
          "type": "string"
        },
        {
          "internalType": "address",
          "name": "_creator",
          "type": "address"
        }
      ],
      "stateMutability": "nonpayable",
      "type": "constructor"
    },
    {
      "anonymous": false,
      "inputs": [
        {
          "indexed": true,
          "internalType": "address",
          "name": "owner",
          "type": "address"
        },
        {
          "indexed": true,
          "internalType": "address",
          "name": "approved",
          "type": "address"
        },
        {
          "indexed": true,
          "internalType": "uint256",
          "name": "tokenId",
          "type": "uint256"
        }
      ],
      "name": "Approval",
      "type": "event"
    },
    {
      "anonymous": false,
      "inputs": [
        {
          "indexed": true,
          "internalType": "address",
          "name": "owner",
          "type": "address"
        },
        {
          "indexed": true,
          "internalType": "address",
          "name": "operator",
          "type": "address"
        },
        {
          "indexed": false,
          "internalType": "bool",
          "name": "approved",
          "type": "bool"
        }
      ],
      "name": "ApprovalForAll",
      "type": "event"
    },
    {
      "anonymous": false,
      "inputs": [
        {
          "indexed": true,
          "internalType": "address",
          "name": "previousOwner",
          "type": "address"
        },
        {
          "indexed": true,
          "internalType": "address",
          "name": "newOwner",
          "type": "address"
        }
      ],
      "name": "OwnershipTransferred",
      "type": "event"
    },
    {
      "anonymous": false,
      "inputs": [
        {
          "indexed": false,
          "internalType": "address",
          "name": "account",
          "type": "address"
        }
      ],
      "name": "Paused",
      "type": "event"
    },
    {
      "anonymous": false,
      "inputs": [
        {
          "indexed": true,
          "internalType": "address",
          "name": "from",
          "type": "address"
        },
        {
          "indexed": true,
          "internalType": "address",
          "name": "to",
          "type": "address"
        },
        {
          "indexed": true,
          "internalType": "uint256",
          "name": "tokenId",
          "type": "uint256"
        }
      ],
      "name": "Transfer",
      "type": "event"
    },
    {
      "anonymous": false,
      "inputs": [
        {
          "indexed": false,
          "internalType": "address",
          "name": "account",
          "type": "address"
        }
      ],
      "name": "Unpaused",
      "type": "event"
    },
    {
      "inputs": [
        {
          "internalType": "address",
          "name": "to",
          "type": "address"
        },
        {
          "internalType": "uint256",
          "name": "tokenId",
          "type": "uint256"
        }
      ],
      "name": "approve",
      "outputs": [],
      "stateMutability": "nonpayable",
      "type": "function"
    },
    {
      "inputs": [
        {
          "internalType": "address",
          "name": "owner",
          "type": "address"
        }
      ],
      "name": "balanceOf",
      "outputs": [
        {
          "internalType": "uint256",
          "name": "",
          "type": "uint256"
        }
      ],
      "stateMutability": "view",
      "type": "function"
    },
    {
      "inputs": [],
      "name": "baseExtension",
      "outputs": [
        {
          "internalType": "string",
          "name": "",
          "type": "string"
        }
      ],
      "stateMutability": "view",
      "type": "function"
    },
    {
      "inputs": [],
      "name": "cost",
      "outputs": [
        {
          "internalType": "uint256",
          "name": "",
          "type": "uint256"
        }
      ],
      "stateMutability": "view",
      "type": "function"
    },
    {
      "inputs": [],
      "name": "creator",
      "outputs": [
        {
          "internalType": "address",
          "name": "",
          "type": "address"
        }
      ],
      "stateMutability": "view",
      "type": "function"
    },
    {
      "inputs": [
        {
          "internalType": "uint256",
          "name": "tokenId",
          "type": "uint256"
        }
      ],
      "name": "getApproved",
      "outputs": [
        {
          "internalType": "address",
          "name": "",
          "type": "address"
        }
      ],
      "stateMutability": "view",
      "type": "function"
    },
    {
      "inputs": [
        {
          "internalType": "address",
          "name": "owner",
          "type": "address"
        },
        {
          "internalType": "address",
          "name": "operator",
          "type": "address"
        }
      ],
      "name": "isApprovedForAll",
      "outputs": [
        {
          "internalType": "bool",
          "name": "",
          "type": "bool"
        }
      ],
      "stateMutability": "view",
      "type": "function"
    },
    {
      "inputs": [],
      "name": "maxMintAmount",
      "outputs": [
        {
          "internalType": "uint256",
          "name": "",
          "type": "uint256"
        }
      ],
      "stateMutability": "view",
      "type": "function"
    },
    {
      "inputs": [],
      "name": "maxSupply",
      "outputs": [
        {
          "internalType": "uint256",
          "name": "",
          "type": "uint256"
        }
      ],
      "stateMutability": "view",
      "type": "function"
    },
    {
      "inputs": [],
      "name": "name",
      "outputs": [
        {
          "internalType": "string",
          "name": "",
          "type": "string"
        }
      ],
      "stateMutability": "view",
      "type": "function"
    },
    {
      "inputs": [],
      "name": "owner",
      "outputs": [
        {
          "internalType": "address",
          "name": "",
          "type": "address"
        }
      ],
      "stateMutability": "view",
      "type": "function"
    },
    {
      "inputs": [
        {
          "internalType": "uint256",
          "name": "tokenId",
          "type": "uint256"
        }
      ],
      "name": "ownerOf",
      "outputs": [
        {
          "internalType": "address",
          "name": "",
          "type": "address"
        }
      ],
      "stateMutability": "view",
      "type": "function"
    },
    {
      "inputs": [],
      "name": "paused",
      "outputs": [
        {
          "internalType": "bool",
          "name": "",
          "type": "bool"
        }
      ],
      "stateMutability": "view",
      "type": "function"
    },
    {
      "inputs": [],
      "name": "picardyToken",
      "outputs": [
        {
          "internalType": "address",
          "name": "",
          "type": "address"
        }
      ],
      "stateMutability": "view",
      "type": "function"
    },
    {
      "inputs": [],
      "name": "renounceOwnership",
      "outputs": [],
      "stateMutability": "nonpayable",
      "type": "function"
    },
    {
      "inputs": [],
      "name": "revealed",
      "outputs": [
        {
          "internalType": "bool",
          "name": "",
          "type": "bool"
        }
      ],
      "stateMutability": "view",
      "type": "function"
    },
    {
      "inputs": [
        {
          "internalType": "address",
          "name": "from",
          "type": "address"
        },
        {
          "internalType": "address",
          "name": "to",
          "type": "address"
        },
        {
          "internalType": "uint256",
          "name": "tokenId",
          "type": "uint256"
        }
      ],
      "name": "safeTransferFrom",
      "outputs": [],
      "stateMutability": "nonpayable",
      "type": "function"
    },
    {
      "inputs": [
        {
          "internalType": "address",
          "name": "from",
          "type": "address"
        },
        {
          "internalType": "address",
          "name": "to",
          "type": "address"
        },
        {
          "internalType": "uint256",
          "name": "tokenId",
          "type": "uint256"
        },
        {
          "internalType": "bytes",
          "name": "_data",
          "type": "bytes"
        }
      ],
      "name": "safeTransferFrom",
      "outputs": [],
      "stateMutability": "nonpayable",
      "type": "function"
    },
    {
      "inputs": [],
      "name": "saleCount",
      "outputs": [
        {
          "internalType": "uint256",
          "name": "",
          "type": "uint256"
        }
      ],
      "stateMutability": "view",
      "type": "function"
    },
    {
      "inputs": [
        {
          "internalType": "address",
          "name": "operator",
          "type": "address"
        },
        {
          "internalType": "bool",
          "name": "approved",
          "type": "bool"
        }
      ],
      "name": "setApprovalForAll",
      "outputs": [],
      "stateMutability": "nonpayable",
      "type": "function"
    },
    {
      "inputs": [
        {
          "internalType": "bytes4",
          "name": "interfaceId",
          "type": "bytes4"
        }
      ],
      "name": "supportsInterface",
      "outputs": [
        {
          "internalType": "bool",
          "name": "",
          "type": "bool"
        }
      ],
      "stateMutability": "view",
      "type": "function"
    },
    {
      "inputs": [],
      "name": "symbol",
      "outputs": [
        {
          "internalType": "string",
          "name": "",
          "type": "string"
        }
      ],
      "stateMutability": "view",
      "type": "function"
    },
    {
      "inputs": [
        {
          "internalType": "uint256",
          "name": "index",
          "type": "uint256"
        }
      ],
      "name": "tokenByIndex",
      "outputs": [
        {
          "internalType": "uint256",
          "name": "",
          "type": "uint256"
        }
      ],
      "stateMutability": "view",
      "type": "function"
    },
    {
      "inputs": [
        {
          "internalType": "address",
          "name": "owner",
          "type": "address"
        },
        {
          "internalType": "uint256",
          "name": "index",
          "type": "uint256"
        }
      ],
      "name": "tokenOfOwnerByIndex",
      "outputs": [
        {
          "internalType": "uint256",
          "name": "",
          "type": "uint256"
        }
      ],
      "stateMutability": "view",
      "type": "function"
    },
    {
      "inputs": [],
      "name": "totalSupply",
      "outputs": [
        {
          "internalType": "uint256",
          "name": "",
          "type": "uint256"
        }
      ],
      "stateMutability": "view",
      "type": "function"
    },
    {
      "inputs": [
        {
          "internalType": "address",
          "name": "from",
          "type": "address"
        },
        {
          "internalType": "address",
          "name": "to",
          "type": "address"
        },
        {
          "internalType": "uint256",
          "name": "tokenId",
          "type": "uint256"
        }
      ],
      "name": "transferFrom",
      "outputs": [],
      "stateMutability": "nonpayable",
      "type": "function"
    },
    {
      "inputs": [
        {
          "internalType": "address",
          "name": "newOwner",
          "type": "address"
        }
      ],
      "name": "transferOwnership",
      "outputs": [],
      "stateMutability": "nonpayable",
      "type": "function"
    },
    {
      "inputs": [
        {
          "internalType": "uint256",
          "name": "_mintAmount",
          "type": "uint256"
        }
      ],
      "name": "buyRoyalty",
      "outputs": [],
      "stateMutability": "nonpayable",
      "type": "function"
    },
    {
      "inputs": [
        {
          "internalType": "address",
          "name": "_owner",
          "type": "address"
        }
      ],
      "name": "walletOfOwner",
      "outputs": [
        {
          "internalType": "uint256[]",
          "name": "",
          "type": "uint256[]"
        }
      ],
      "stateMutability": "view",
      "type": "function"
    },
    {
      "inputs": [
        {
          "internalType": "uint256",
          "name": "tokenId",
          "type": "uint256"
        }
      ],
      "name": "tokenURI",
      "outputs": [
        {
          "internalType": "string",
          "name": "",
          "type": "string"
        }
      ],
      "stateMutability": "view",
      "type": "function"
    },
    {
      "inputs": [],
      "name": "reveal",
      "outputs": [],
      "stateMutability": "nonpayable",
      "type": "function"
    },
    {
      "inputs": [
        {
          "internalType": "uint256",
          "name": "_newmaxMintAmount",
          "type": "uint256"
        }
      ],
      "name": "setmaxMintAmount",
      "outputs": [],
      "stateMutability": "nonpayable",
      "type": "function"
    },
    {
      "inputs": [
        {
          "internalType": "string",
          "name": "_newBaseURI",
          "type": "string"
        }
      ],
      "name": "setBaseURI",
      "outputs": [],
      "stateMutability": "nonpayable",
      "type": "function"
    },
    {
      "inputs": [
        {
          "internalType": "uint256",
          "name": "_cost",
          "type": "uint256"
        }
      ],
      "name": "setCost",
      "outputs": [],
      "stateMutability": "nonpayable",
      "type": "function"
    },
    {
      "inputs": [
        {
          "internalType": "string",
          "name": "_newBaseExtension",
          "type": "string"
        }
      ],
      "name": "setBaseExtension",
      "outputs": [],
      "stateMutability": "nonpayable",
      "type": "function"
    },
    {
      "inputs": [],
      "name": "pause",
      "outputs": [],
      "stateMutability": "nonpayable",
      "type": "function"
    },
    {
      "inputs": [],
      "name": "unpause",
      "outputs": [],
      "stateMutability": "nonpayable",
      "type": "function"
    },
    {
      "inputs": [],
      "name": "withdraw",
      "outputs": [],
      "stateMutability": "nonpayable",
      "type": "function"
    },
    {
      "inputs": [],
      "name": "getHolders",
      "outputs": [
        {
          "internalType": "address[]",
          "name": "",
          "type": "address[]"
        }
      ],
      "stateMutability": "view",
      "type": "function"
    },
    {
      "inputs": [],
      "name": "getSaleCount",
      "outputs": [
        {
          "internalType": "uint256",
          "name": "",
          "type": "uint256"
        }
      ],
      "stateMutability": "view",
      "type": "function"
    },
    {
      "inputs": [
        {
          "internalType": "address",
          "name": "_holder",
          "type": "address"
        }
      ],
      "name": "addHolder",
      "outputs": [],
      "stateMutability": "nonpayable",
      "type": "function"
    },
    {
      "inputs": [
        {
          "internalType": "address",
          "name": "_holder",
          "type": "address"
        }
      ],
      "name": "removeHolder",
      "outputs": [],
      "stateMutability": "nonpayable",
      "type": "function"
    }
  ],
  "bytecode": "0x60c06040526005608081905264173539b7b760d91b60a09081526200002891600c9190620001c4565b506011805460ff191690553480156200004057600080fd5b5060405162002c1f38038062002c1f833981016040819052620000639162000337565b8351849084906200007c906000906020850190620001c4565b50805162000092906001906020840190620001c4565b5050600a805460ff1916905550620000aa33620000ec565b600d879055600e869055601280546001600160a01b0319166001600160a01b038316179055600f859055620000df8262000146565b5050505050505062000448565b600a80546001600160a01b03838116610100818102610100600160a81b031985161790945560405193909204169182907f8be0079c531659141344cd1fd0a4f28419497f9722a3daafe3b4186f6b6457e090600090a35050565b600a546001600160a01b03610100909104163314620001ab5760405162461bcd60e51b815260206004820181905260248201527f4f776e61626c653a2063616c6c6572206973206e6f7420746865206f776e6572604482015260640160405180910390fd5b8051620001c090600b906020840190620001c4565b5050565b828054620001d2906200040b565b90600052602060002090601f016020900481019282620001f6576000855562000241565b82601f106200021157805160ff191683800117855562000241565b8280016001018555821562000241579182015b828111156200024157825182559160200191906001019062000224565b506200024f92915062000253565b5090565b5b808211156200024f576000815560010162000254565b634e487b7160e01b600052604160045260246000fd5b600082601f8301126200029257600080fd5b81516001600160401b0380821115620002af57620002af6200026a565b604051601f8301601f19908116603f01168101908282118183101715620002da57620002da6200026a565b81604052838152602092508683858801011115620002f757600080fd5b600091505b838210156200031b5785820183015181830184015290820190620002fc565b838211156200032d5760008385830101525b9695505050505050565b600080600080600080600060e0888a0312156200035357600080fd5b8751602089015160408a015160608b015192995090975095506001600160401b03808211156200038257600080fd5b620003908b838c0162000280565b955060808a0151915080821115620003a757600080fd5b620003b58b838c0162000280565b945060a08a0151915080821115620003cc57600080fd5b50620003db8a828b0162000280565b60c08a015190935090506001600160a01b0381168114620003fb57600080fd5b8091505092959891949750929550565b600181811c908216806200042057607f821691505b602082108114156200044257634e487b7160e01b600052602260045260246000fd5b50919050565b6127c780620004586000396000f3fe608060405234801561001057600080fd5b50600436106101ee5760003560e01c806301ffc9a7146101f357806302d05d3f1461021b57806306fdde031461023b578063081812fc14610250578063095ea7b31461026357806313faede61461027857806318160ddd1461028f578063239c70ae1461029757806323b872dd146102a05780632f745c59146102b35780633ccfd60b146102c65780633f4ba83a146102ce57806342842e0e146102d6578063438b6300146102e957806344a0d68a146103095780634f6ccce71461031c578063518302271461032f57806355f804b31461033c5780635c975abb1461034f5780635fe8e7cc1461035a5780636352211e1461036f5780636d005ca11461038257806370a082311461039a578063715018a6146103ad578063755b9162146103b55780637f00c7a6146103c85780638456cb59146103db5780638da5cb5b146103e35780638dd42808146103eb57806395d89b41146103fe578063a1e89aec14610406578063a22cb4651461040f578063a475b5dd14610422578063ac1e17df1461042a578063b88d4fde1461043d578063c24521c614610450578063c668286214610458578063c87b56dd14610460578063d5abeb0114610473578063da3ef23f1461047c578063e985e9c51461048f578063f2fde38b146104a2575b600080fd5b610206610201366004612040565b6104b5565b60405190151581526020015b60405180910390f35b60125461022e906001600160a01b031681565b604051610212919061205d565b6102436104e0565b60405161021291906120c9565b61022e61025e3660046120dc565b610572565b610276610271366004612111565b6105ff565b005b610281600f5481565b604051908152602001610212565b600854610281565b610281600e5481565b6102766102ae36600461213b565b610710565b6102816102c1366004612111565b610741565b6102766107d7565b610276610999565b6102766102e436600461213b565b6109d2565b6102fc6102f7366004612177565b6109ed565b6040516102129190612192565b6102766103173660046120dc565b610a8e565b61028161032a3660046120dc565b610ac2565b6011546102069060ff1681565b61027661034a366004612261565b610b55565b600a5460ff16610206565b610362610b9b565b60405161021291906122a9565b61022e61037d3660046120dc565b610bfc565b60115461022e9061010090046001600160a01b031681565b6102816103a8366004612177565b610c73565b610276610cfa565b6102766103c33660046120dc565b610d33565b6102766103d63660046120dc565b610f47565b610276610f7b565b61022e610fb2565b6102766103f9366004612177565b610fc6565b6102436110c7565b61028160105481565b61027661041d3660046122f8565b6110d6565b6102766110e1565b610276610438366004612177565b61111f565b61027661044b36600461232f565b61118e565b601054610281565b6102436111c0565b61024361046e3660046120dc565b61124e565b610281600d5481565b61027661048a366004612261565b61131c565b61020661049d3660046123aa565b61135e565b6102766104b0366004612177565b61138c565b60006001600160e01b0319821663780e9d6360e01b14806104da57506104da8261142c565b92915050565b6060600080546104ef906123dd565b80601f016020809104026020016040519081016040528092919081815260200182805461051b906123dd565b80156105685780601f1061053d57610100808354040283529160200191610568565b820191906000526020600020905b81548152906001019060200180831161054b57829003601f168201915b5050505050905090565b600061057d8261147c565b6105e35760405162461bcd60e51b815260206004820152602c60248201527f4552433732313a20617070726f76656420717565727920666f72206e6f6e657860448201526b34b9ba32b73a103a37b5b2b760a11b60648201526084015b60405180910390fd5b506000908152600460205260409020546001600160a01b031690565b600061060a82610bfc565b9050806001600160a01b0316836001600160a01b031614156106785760405162461bcd60e51b815260206004820152602160248201527f4552433732313a20617070726f76616c20746f2063757272656e74206f776e656044820152603960f91b60648201526084016105da565b336001600160a01b03821614806106945750610694813361135e565b6107015760405162461bcd60e51b815260206004820152603860248201527f4552433732313a20617070726f76652063616c6c6572206973206e6f74206f776044820152771b995c881b9bdc88185c1c1c9bdd995908199bdc88185b1b60421b60648201526084016105da565b61070b8383611499565b505050565b61071a3382611507565b6107365760405162461bcd60e51b81526004016105da90612418565b61070b8383836115d1565b600061074c83610c73565b82106107ae5760405162461bcd60e51b815260206004820152602b60248201527f455243373231456e756d657261626c653a206f776e657220696e646578206f7560448201526a74206f6620626f756e647360a81b60648201526084016105da565b506001600160a01b03919091166000908152600660209081526040808320938352929052205490565b6012546001600160a01b031633146107ee57600080fd5b6011546040516370a0823160e01b815260009161010090046001600160a01b0316906370a082319061082490309060040161205d565b602060405180830381865afa158015610841573d6000803e3d6000fd5b505050506040513d601f19601f820116820180604052508101906108659190612469565b905060006064610876836005612498565b61088091906124cd565b9050600061088e82846124e1565b6011546012546040516323b872dd60e01b81529293506001600160a01b036101009092048216926323b872dd926108ce92309291169086906004016124f8565b6020604051808303816000875af11580156108ed573d6000803e3d6000fd5b505050506040513d601f19601f82011682018060405250810190610911919061251c565b506011546014546040516323b872dd60e01b81526101009092046001600160a01b03908116926323b872dd9261095092309291169087906004016124f8565b6020604051808303816000875af115801561096f573d6000803e3d6000fd5b505050506040513d601f19601f82011682018060405250810190610993919061251c565b50505050565b336109a2610fb2565b6001600160a01b0316146109c85760405162461bcd60e51b81526004016105da90612539565b6109d0611766565b565b61070b8383836040518060200160405280600081525061118e565b606060006109fa83610c73565b90506000816001600160401b03811115610a1657610a166121d6565b604051908082528060200260200182016040528015610a3f578160200160208202803683370190505b50905060005b82811015610a8657610a578582610741565b828281518110610a6957610a6961256e565b602090810291909101015280610a7e81612584565b915050610a45565b509392505050565b33610a97610fb2565b6001600160a01b031614610abd5760405162461bcd60e51b81526004016105da90612539565b600f55565b6000610acd60085490565b8210610b305760405162461bcd60e51b815260206004820152602c60248201527f455243373231456e756d657261626c653a20676c6f62616c20696e646578206f60448201526b7574206f6620626f756e647360a01b60648201526084016105da565b60088281548110610b4357610b4361256e565b90600052602060002001549050919050565b33610b5e610fb2565b6001600160a01b031614610b845760405162461bcd60e51b81526004016105da90612539565b8051610b9790600b906020840190611f91565b5050565b6060601380548060200260200160405190810160405280929190818152602001828054801561056857602002820191906000526020600020905b81546001600160a01b03168152600190910190602001808311610bd5575050505050905090565b6000818152600260205260408120546001600160a01b0316806104da5760405162461bcd60e51b815260206004820152602960248201527f4552433732313a206f776e657220717565727920666f72206e6f6e657869737460448201526832b73a103a37b5b2b760b91b60648201526084016105da565b60006001600160a01b038216610cde5760405162461bcd60e51b815260206004820152602a60248201527f4552433732313a2062616c616e636520717565727920666f7220746865207a65604482015269726f206164647265737360b01b60648201526084016105da565b506001600160a01b031660009081526003602052604090205490565b33610d03610fb2565b6001600160a01b031614610d295760405162461bcd60e51b81526004016105da90612539565b6109d060006117f3565b33610d3c610fb2565b6001600160a01b031614610d625760405162461bcd60e51b81526004016105da90612539565b80600f54610d709190612498565b6011546040516370a0823160e01b81526101009091046001600160a01b0316906370a0823190610da490339060040161205d565b602060405180830381865afa158015610dc1573d6000803e3d6000fd5b505050506040513d601f19601f82011682018060405250810190610de59190612469565b1015610df057600080fd5b6000610dfb60085490565b905060008211610e0a57600080fd5b600e54821115610e1957600080fd5b600d54610e26838361259f565b1115610e3157600080fd5b600082600f54610e419190612498565b6012549091506001600160a01b03163314610ed15760115460405163a9059cbb60e01b8152306004820152602481018390526101009091046001600160a01b03169063a9059cbb906044016020604051808303816000875af1158015610eab573d6000803e3d6000fd5b505050506040513d601f19601f82011682018060405250810190610ecf919061251c565b505b6013805460018101825560009182526000805160206127528339815191520180546001600160a01b0319163317905560108054859290610f1290849061259f565b90915550600190505b83811161099357610f3533610f30838661259f565b61184d565b80610f3f81612584565b915050610f1b565b33610f50610fb2565b6001600160a01b031614610f765760405162461bcd60e51b81526004016105da90612539565b600e55565b33610f84610fb2565b6001600160a01b031614610faa5760405162461bcd60e51b81526004016105da90612539565b6109d0611867565b600a5461010090046001600160a01b031690565b33610fcf610fb2565b6001600160a01b031614610ff55760405162461bcd60e51b81526004016105da90612539565b60005b601354811015610b9757816001600160a01b03166013828154811061101f5761101f61256e565b6000918252602090912001546001600160a01b031614156110b5576013805461104a906001906124e1565b8154811061105a5761105a61256e565b600091825260209091200154601380546001600160a01b0390921691839081106110865761108661256e565b9060005260206000200160006101000a8154816001600160a01b0302191690836001600160a01b031602179055505b806110bf81612584565b915050610ff8565b6060600180546104ef906123dd565b610b973383836118e2565b336110ea610fb2565b6001600160a01b0316146111105760405162461bcd60e51b81526004016105da90612539565b6011805460ff19166001179055565b33611128610fb2565b6001600160a01b03161461114e5760405162461bcd60e51b81526004016105da90612539565b601380546001810182556000919091526000805160206127528339815191520180546001600160a01b0319166001600160a01b0392909216919091179055565b6111983383611507565b6111b45760405162461bcd60e51b81526004016105da90612418565b610993848484846119ad565b600c80546111cd906123dd565b80601f01602080910402602001604051908101604052809291908181526020018280546111f9906123dd565b80156112465780601f1061121b57610100808354040283529160200191611246565b820191906000526020600020905b81548152906001019060200180831161122957829003601f168201915b505050505081565b60606112598261147c565b6112bd5760405162461bcd60e51b815260206004820152602f60248201527f4552433732314d657461646174613a2055524920717565727920666f72206e6f60448201526e3732bc34b9ba32b73a103a37b5b2b760891b60648201526084016105da565b60006112c76119e0565b905060008151116112e75760405180602001604052806000815250611315565b806112f1846119ef565b600c604051602001611305939291906125b7565b6040516020818303038152906040525b9392505050565b33611325610fb2565b6001600160a01b03161461134b5760405162461bcd60e51b81526004016105da90612539565b8051610b9790600c906020840190611f91565b6001600160a01b03918216600090815260056020908152604080832093909416825291909152205460ff1690565b33611395610fb2565b6001600160a01b0316146113bb5760405162461bcd60e51b81526004016105da90612539565b6001600160a01b0381166114205760405162461bcd60e51b815260206004820152602660248201527f4f776e61626c653a206e6577206f776e657220697320746865207a65726f206160448201526564647265737360d01b60648201526084016105da565b611429816117f3565b50565b60006001600160e01b031982166380ac58cd60e01b148061145d57506001600160e01b03198216635b5e139f60e01b145b806104da57506301ffc9a760e01b6001600160e01b03198316146104da565b6000908152600260205260409020546001600160a01b0316151590565b600081815260046020526040902080546001600160a01b0319166001600160a01b03841690811790915581906114ce82610bfc565b6001600160a01b03167f8c5be1e5ebec7d5bd14f71427d1e84f3dd0314c0f7b2291e5b200ac8c7c3b92560405160405180910390a45050565b60006115128261147c565b6115735760405162461bcd60e51b815260206004820152602c60248201527f4552433732313a206f70657261746f7220717565727920666f72206e6f6e657860448201526b34b9ba32b73a103a37b5b2b760a11b60648201526084016105da565b600061157e83610bfc565b9050806001600160a01b0316846001600160a01b031614806115a557506115a5818561135e565b806115c95750836001600160a01b03166115be84610572565b6001600160a01b0316145b949350505050565b826001600160a01b03166115e482610bfc565b6001600160a01b0316146116485760405162461bcd60e51b815260206004820152602560248201527f4552433732313a207472616e736665722066726f6d20696e636f72726563742060448201526437bbb732b960d91b60648201526084016105da565b6001600160a01b0382166116aa5760405162461bcd60e51b8152602060048201526024808201527f4552433732313a207472616e7366657220746f20746865207a65726f206164646044820152637265737360e01b60648201526084016105da565b6116b5838383611aec565b6116c0600082611499565b6001600160a01b03831660009081526003602052604081208054600192906116e99084906124e1565b90915550506001600160a01b038216600090815260036020526040812080546001929061171790849061259f565b909155505060008181526002602052604080822080546001600160a01b0319166001600160a01b03868116918217909255915184939187169160008051602061277283398151915291a4505050565b600a5460ff166117af5760405162461bcd60e51b815260206004820152601460248201527314185d5cd8589b194e881b9bdd081c185d5cd95960621b60448201526064016105da565b600a805460ff191690557f5db9ee0a495bf2e6ff9c91a7834c1ba4fdd244a5e8aa4e537bd38aeae4b073aa335b6040516117e9919061205d565b60405180910390a1565b600a80546001600160a01b03838116610100818102610100600160a81b031985161790945560405193909204169182907f8be0079c531659141344cd1fd0a4f28419497f9722a3daafe3b4186f6b6457e090600090a35050565b610b97828260405180602001604052806000815250611ba4565b600a5460ff16156118ad5760405162461bcd60e51b815260206004820152601060248201526f14185d5cd8589b194e881c185d5cd95960821b60448201526064016105da565b600a805460ff191660011790557f62e78cea01bee320cd4e420270b5ea74000d11b0c9f74754ebdbfc544b05a2586117dc3390565b816001600160a01b0316836001600160a01b031614156119405760405162461bcd60e51b815260206004820152601960248201527822a9219b99189d1030b8383937bb32903a379031b0b63632b960391b60448201526064016105da565b6001600160a01b03838116600081815260056020908152604080832094871680845294825291829020805460ff191686151590811790915591519182527f17307eab39ab6107e8899845ad3d59bd9653f200f220920489ca2b5937696c31910160405180910390a3505050565b6119b88484846115d1565b6119c484848484611bd7565b6109935760405162461bcd60e51b81526004016105da9061267b565b6060600b80546104ef906123dd565b606081611a135750506040805180820190915260018152600360fc1b602082015290565b8160005b8115611a3d5780611a2781612584565b9150611a369050600a836124cd565b9150611a17565b6000816001600160401b03811115611a5757611a576121d6565b6040519080825280601f01601f191660200182016040528015611a81576020820181803683370190505b5090505b84156115c957611a966001836124e1565b9150611aa3600a866126cd565b611aae90603061259f565b60f81b818381518110611ac357611ac361256e565b60200101906001600160f81b031916908160001a905350611ae5600a866124cd565b9450611a85565b6001600160a01b038316611b4757611b4281600880546000838152600960205260408120829055600182018355919091527ff3f7a9fe364faab93b216da50a3214154f22a0a2b415b23a84c8169e8b636ee30155565b611b6a565b816001600160a01b0316836001600160a01b031614611b6a57611b6a8382611cd5565b6001600160a01b038216611b815761070b81611d72565b826001600160a01b0316826001600160a01b03161461070b5761070b8282611e21565b611bae8383611e65565b611bbb6000848484611bd7565b61070b5760405162461bcd60e51b81526004016105da9061267b565b60006001600160a01b0384163b15611cca57604051630a85bd0160e11b81526001600160a01b0385169063150b7a0290611c1b9033908990889088906004016126e1565b6020604051808303816000875af1925050508015611c56575060408051601f3d908101601f19168201909252611c539181019061271e565b60015b611cb0573d808015611c84576040519150601f19603f3d011682016040523d82523d6000602084013e611c89565b606091505b508051611ca85760405162461bcd60e51b81526004016105da9061267b565b805181602001fd5b6001600160e01b031916630a85bd0160e11b1490506115c9565b506001949350505050565b60006001611ce284610c73565b611cec91906124e1565b600083815260076020526040902054909150808214611d3f576001600160a01b03841660009081526006602090815260408083208584528252808320548484528184208190558352600790915290208190555b5060009182526007602090815260408084208490556001600160a01b039094168352600681528383209183525290812055565b600854600090611d84906001906124e1565b60008381526009602052604081205460088054939450909284908110611dac57611dac61256e565b906000526020600020015490508060088381548110611dcd57611dcd61256e565b6000918252602080832090910192909255828152600990915260408082208490558582528120556008805480611e0557611e0561273b565b6001900381819060005260206000200160009055905550505050565b6000611e2c83610c73565b6001600160a01b039093166000908152600660209081526040808320868452825280832085905593825260079052919091209190915550565b6001600160a01b038216611ebb5760405162461bcd60e51b815260206004820181905260248201527f4552433732313a206d696e7420746f20746865207a65726f206164647265737360448201526064016105da565b611ec48161147c565b15611f105760405162461bcd60e51b815260206004820152601c60248201527b115490cdcc8c4e881d1bdad95b88185b1c9958591e481b5a5b9d195960221b60448201526064016105da565b611f1c60008383611aec565b6001600160a01b0382166000908152600360205260408120805460019290611f4590849061259f565b909155505060008181526002602052604080822080546001600160a01b0319166001600160a01b0386169081179091559051839290600080516020612772833981519152908290a45050565b828054611f9d906123dd565b90600052602060002090601f016020900481019282611fbf5760008555612005565b82601f10611fd857805160ff1916838001178555612005565b82800160010185558215612005579182015b82811115612005578251825591602001919060010190611fea565b50612011929150612015565b5090565b5b808211156120115760008155600101612016565b6001600160e01b03198116811461142957600080fd5b60006020828403121561205257600080fd5b81356113158161202a565b6001600160a01b0391909116815260200190565b60005b8381101561208c578181015183820152602001612074565b838111156109935750506000910152565b600081518084526120b5816020860160208601612071565b601f01601f19169290920160200192915050565b602081526000611315602083018461209d565b6000602082840312156120ee57600080fd5b5035919050565b80356001600160a01b038116811461210c57600080fd5b919050565b6000806040838503121561212457600080fd5b61212d836120f5565b946020939093013593505050565b60008060006060848603121561215057600080fd5b612159846120f5565b9250612167602085016120f5565b9150604084013590509250925092565b60006020828403121561218957600080fd5b611315826120f5565b6020808252825182820181905260009190848201906040850190845b818110156121ca578351835292840192918401916001016121ae565b50909695505050505050565b634e487b7160e01b600052604160045260246000fd5b60006001600160401b0380841115612206576122066121d6565b604051601f8501601f19908116603f0116810190828211818310171561222e5761222e6121d6565b8160405280935085815286868601111561224757600080fd5b858560208301376000602087830101525050509392505050565b60006020828403121561227357600080fd5b81356001600160401b0381111561228957600080fd5b8201601f8101841361229a57600080fd5b6115c9848235602084016121ec565b6020808252825182820181905260009190848201906040850190845b818110156121ca5783516001600160a01b0316835292840192918401916001016122c5565b801515811461142957600080fd5b6000806040838503121561230b57600080fd5b612314836120f5565b91506020830135612324816122ea565b809150509250929050565b6000806000806080858703121561234557600080fd5b61234e856120f5565b935061235c602086016120f5565b92506040850135915060608501356001600160401b0381111561237e57600080fd5b8501601f8101871361238f57600080fd5b61239e878235602084016121ec565b91505092959194509250565b600080604083850312156123bd57600080fd5b6123c6836120f5565b91506123d4602084016120f5565b90509250929050565b600181811c908216806123f157607f821691505b6020821081141561241257634e487b7160e01b600052602260045260246000fd5b50919050565b60208082526031908201527f4552433732313a207472616e736665722063616c6c6572206973206e6f74206f6040820152701ddb995c881b9bdc88185c1c1c9bdd9959607a1b606082015260800190565b60006020828403121561247b57600080fd5b5051919050565b634e487b7160e01b600052601160045260246000fd5b60008160001904831182151516156124b2576124b2612482565b500290565b634e487b7160e01b600052601260045260246000fd5b6000826124dc576124dc6124b7565b500490565b6000828210156124f3576124f3612482565b500390565b6001600160a01b039384168152919092166020820152604081019190915260600190565b60006020828403121561252e57600080fd5b8151611315816122ea565b6020808252818101527f4f776e61626c653a2063616c6c6572206973206e6f7420746865206f776e6572604082015260600190565b634e487b7160e01b600052603260045260246000fd5b600060001982141561259857612598612482565b5060010190565b600082198211156125b2576125b2612482565b500190565b6000845160206125ca8285838a01612071565b8551918401916125dd8184848a01612071565b8554920191600090600181811c90808316806125fa57607f831692505b85831081141561261857634e487b7160e01b85526022600452602485fd5b80801561262c576001811461263d5761266a565b60ff1985168852838801955061266a565b60008b81526020902060005b858110156126625781548a820152908401908801612649565b505083880195505b50939b9a5050505050505050505050565b60208082526032908201527f4552433732313a207472616e7366657220746f206e6f6e20455243373231526560408201527131b2b4bb32b91034b6b83632b6b2b73a32b960711b606082015260800190565b6000826126dc576126dc6124b7565b500690565b6001600160a01b03858116825284166020820152604081018390526080606082018190526000906127149083018461209d565b9695505050505050565b60006020828403121561273057600080fd5b81516113158161202a565b634e487b7160e01b600052603160045260246000fdfe66de8ffda797e3de9c05e8fc57b3bf0ec28a930d40b0d285d93c06501cf6a090ddf252ad1be2c89b69c2b068fc378daa952ba7f163c4a11628f55a4df523b3efa26469706673582212205e8d86eceb23dcd4e684acb85b2059796c80c8f201caae9582cf3771567878e664736f6c634300080b0033",
  "immutableReferences": {},
  "source": "// SPDX-License-Identifier: MIT\r\npragma solidity ^0.8.4;\r\npragma experimental ABIEncoderV2;\r\n\r\nimport \"@openzeppelin/contracts/token/ERC721/extensions/ERC721Enumerable.sol\";\r\nimport \"@openzeppelin/contracts/security/Pausable.sol\";\r\nimport \"@openzeppelin/contracts/access/Ownable.sol\";\r\nimport \"@openzeppelin/contracts/token/ERC20/IERC20.sol\";\r\n\r\ncontract PicardyNftBase is ERC721Enumerable, Pausable, Ownable {\r\n  using Strings for uint256;\r\n  \r\n\r\n  string baseURI;\r\n  string public baseExtension = \".json\";\r\n  uint256 public maxSupply;\r\n  uint256 public maxMintAmount;\r\n  uint256 public cost;\r\n  uint public saleCount;\r\n  bool public revealed = false;\r\n  address  public picardyToken;\r\n  address public creator;\r\n  address[] holders;\r\n  address txFeeAddress;\r\n\r\n  constructor(\r\n    uint _maxSupply,\r\n    uint _maxMintAmount,\r\n    uint _cost,\r\n    string memory _name,\r\n    string memory _symbol,\r\n    string memory _initBaseURI,\r\n    address _creator\r\n  ) ERC721(_name, _symbol) {\r\n    maxSupply = _maxSupply;\r\n    maxMintAmount = _maxMintAmount;\r\n    creator = _creator;\r\n    cost = _cost;\r\n    setBaseURI(_initBaseURI);\r\n  }\r\n\r\n  // internal\r\n  function _baseURI() internal view virtual override returns (string memory) {\r\n    return baseURI;\r\n  }\r\n\r\n  // public\r\n  function buyRoyalty(uint256 _mintAmount) public onlyOwner {\r\n    require(IERC20(picardyToken).balanceOf(msg.sender) >= cost * _mintAmount);\r\n\r\n    uint256 supply = totalSupply();\r\n    require(_mintAmount > 0);\r\n    require(_mintAmount <= maxMintAmount);\r\n    require(supply + _mintAmount <= maxSupply);\r\n\r\n    uint toPay = cost * _mintAmount;\r\n\r\n    if (msg.sender != creator) {\r\n      IERC20(picardyToken).transfer(address(this), toPay);\r\n    }\r\n\r\n    holders.push(msg.sender);\r\n    saleCount += _mintAmount;\r\n\r\n    for (uint256 i = 1; i <= _mintAmount; i++) {\r\n      _safeMint(msg.sender, supply + i);\r\n    }\r\n  }\r\n\r\n  function walletOfOwner(address _owner)\r\n    public\r\n    view\r\n    returns (uint256[] memory)\r\n  {\r\n    uint256 ownerTokenCount = balanceOf(_owner);\r\n    uint256[] memory tokenIds = new uint256[](ownerTokenCount);\r\n    for (uint256 i; i < ownerTokenCount; i++) {\r\n      tokenIds[i] = tokenOfOwnerByIndex(_owner, i);\r\n    }\r\n    return tokenIds;\r\n  }\r\n\r\n  function tokenURI(uint256 tokenId)\r\n    public\r\n    view\r\n    virtual\r\n    override\r\n    returns (string memory)\r\n  {\r\n    require(\r\n      _exists(tokenId),\r\n      \"ERC721Metadata: URI query for nonexistent token\"\r\n    );\r\n\r\n    string memory currentBaseURI = _baseURI();\r\n    return bytes(currentBaseURI).length > 0\r\n        ? string(abi.encodePacked(currentBaseURI, tokenId.toString(), baseExtension))\r\n        : \"\";\r\n  }\r\n\r\n  //only owner\r\n  function reveal() public onlyOwner {\r\n      revealed = true;\r\n  }\r\n\r\n\r\n  function setmaxMintAmount(uint256 _newmaxMintAmount) public onlyOwner {\r\n    maxMintAmount = _newmaxMintAmount;\r\n  }\r\n\r\n  function setBaseURI(string memory _newBaseURI) public onlyOwner {\r\n    baseURI = _newBaseURI;\r\n  }\r\n\r\n  function setCost(uint256 _cost) public onlyOwner {\r\n    cost = _cost;\r\n  }\r\n\r\n  function setBaseExtension(string memory _newBaseExtension) public onlyOwner {\r\n    baseExtension = _newBaseExtension;\r\n  }\r\n\r\n  function pause() public onlyOwner {\r\n        _pause();\r\n    }\r\n\r\n  function unpause() public onlyOwner {\r\n        _unpause();\r\n    }\r\n \r\n  function withdraw() public {\r\n    require(msg.sender == creator);\r\n\r\n    uint balance = IERC20(picardyToken).balanceOf(address(this));\r\n    uint txFee = balance * 5 / 100;\r\n    uint toWithdraw = balance - txFee;\r\n\r\n    IERC20(picardyToken).transferFrom(address(this), creator, toWithdraw);\r\n    IERC20(picardyToken).transferFrom(address(this), txFeeAddress, txFee);\r\n    \r\n  }\r\n\r\n  function getHolders() public view returns (address[] memory){\r\n    return holders;\r\n  }\r\n\r\n  function getSaleCount() public view returns (uint){\r\n    return saleCount;\r\n  }\r\n\r\n  function addHolder(address _holder) public onlyOwner{\r\n    holders.push(_holder);\r\n  }\r\n\r\n  function removeHolder(address _holder) public onlyOwner{\r\n    \r\n    for(uint i; i < holders.length; i++){\r\n      if(holders[i] == _holder){\r\n        holders[i] = holders[holders.length - 1];\r\n      }\r\n      holders.pop;\r\n    }\r\n  }\r\n}",
  "sourcePath": "C:\\Users\\USER\\Desktop\\Picardy_Protocol\\contracts\\Tokens\\PicardyNftBase.sol",
  "compiler": {
    "name": "solc",
    "version": "0.8.11+commit.d7f03943.Emscripten.clang"
  },
  "schemaVersion": "3.4.6",
  "updatedAt": "2022-06-07T09:43:09.989Z",
  "devdoc": {
    "kind": "dev",
    "methods": {
      "approve(address,uint256)": {
        "details": "See {IERC721-approve}."
      },
      "balanceOf(address)": {
        "details": "See {IERC721-balanceOf}."
      },
      "getApproved(uint256)": {
        "details": "See {IERC721-getApproved}."
      },
      "isApprovedForAll(address,address)": {
        "details": "See {IERC721-isApprovedForAll}."
      },
      "name()": {
        "details": "See {IERC721Metadata-name}."
      },
      "owner()": {
        "details": "Returns the address of the current owner."
      },
      "ownerOf(uint256)": {
        "details": "See {IERC721-ownerOf}."
      },
      "paused()": {
        "details": "Returns true if the contract is paused, and false otherwise."
      },
      "renounceOwnership()": {
        "details": "Leaves the contract without owner. It will not be possible to call `onlyOwner` functions anymore. Can only be called by the current owner. NOTE: Renouncing ownership will leave the contract without an owner, thereby removing any functionality that is only available to the owner."
      },
      "safeTransferFrom(address,address,uint256)": {
        "details": "See {IERC721-safeTransferFrom}."
      },
      "safeTransferFrom(address,address,uint256,bytes)": {
        "details": "See {IERC721-safeTransferFrom}."
      },
      "setApprovalForAll(address,bool)": {
        "details": "See {IERC721-setApprovalForAll}."
      },
      "supportsInterface(bytes4)": {
        "details": "See {IERC165-supportsInterface}."
      },
      "symbol()": {
        "details": "See {IERC721Metadata-symbol}."
      },
      "tokenByIndex(uint256)": {
        "details": "See {IERC721Enumerable-tokenByIndex}."
      },
      "tokenOfOwnerByIndex(address,uint256)": {
        "details": "See {IERC721Enumerable-tokenOfOwnerByIndex}."
      },
      "tokenURI(uint256)": {
        "details": "See {IERC721Metadata-tokenURI}."
      },
      "totalSupply()": {
        "details": "See {IERC721Enumerable-totalSupply}."
      },
      "transferFrom(address,address,uint256)": {
        "details": "See {IERC721-transferFrom}."
      },
      "transferOwnership(address)": {
        "details": "Transfers ownership of the contract to a new account (`newOwner`). Can only be called by the current owner."
      }
    },
    "version": 1
  },
  "userdoc": {
    "kind": "user",
    "methods": {},
    "version": 1
  }
}