{
  "contractName": "PicardyArtiste",
  "abi": [
    {
      "inputs": [
        {
          "internalType": "address",
          "name": "_artisteAddress",
          "type": "address"
        },
        {
          "internalType": "string",
          "name": "_artisteName",
          "type": "string"
        }
      ],
      "stateMutability": "nonpayable",
      "type": "constructor"
    },
    {
      "anonymous": false,
      "inputs": [
        {
          "indexed": true,
          "internalType": "address",
          "name": "previousOwner",
          "type": "address"
        },
        {
          "indexed": true,
          "internalType": "address",
          "name": "newOwner",
          "type": "address"
        }
      ],
      "name": "OwnershipTransferred",
      "type": "event"
    },
    {
      "inputs": [],
      "name": "owner",
      "outputs": [
        {
          "internalType": "address",
          "name": "",
          "type": "address"
        }
      ],
      "stateMutability": "view",
      "type": "function"
    },
    {
      "inputs": [],
      "name": "renounceOwnership",
      "outputs": [],
      "stateMutability": "nonpayable",
      "type": "function"
    },
    {
      "inputs": [
        {
          "internalType": "address",
          "name": "newOwner",
          "type": "address"
        }
      ],
      "name": "transferOwnership",
      "outputs": [],
      "stateMutability": "nonpayable",
      "type": "function"
    },
    {
      "inputs": [
        {
          "internalType": "uint256",
          "name": "_productId",
          "type": "uint256"
        },
        {
          "internalType": "address",
          "name": "_productAddress",
          "type": "address"
        }
      ],
      "name": "addProduct",
      "outputs": [],
      "stateMutability": "nonpayable",
      "type": "function"
    },
    {
      "inputs": [
        {
          "internalType": "uint256",
          "name": "_productId",
          "type": "uint256"
        }
      ],
      "name": "getProductsById",
      "outputs": [
        {
          "internalType": "address[]",
          "name": "",
          "type": "address[]"
        }
      ],
      "stateMutability": "view",
      "type": "function"
    },
    {
      "inputs": [],
      "name": "getAllProducts",
      "outputs": [
        {
          "internalType": "address[]",
          "name": "",
          "type": "address[]"
        }
      ],
      "stateMutability": "view",
      "type": "function"
    },
    {
      "inputs": [],
      "name": "getArtiste",
      "outputs": [
        {
          "internalType": "address",
          "name": "",
          "type": "address"
        }
      ],
      "stateMutability": "view",
      "type": "function"
    }
  ],
  "bytecode": "0x608060405234801561001057600080fd5b506040516107d03803806107d083398101604081905261002f9161016d565b6100383361006e565b600180546001600160a01b0319166001600160a01b03841617905580516100669060029060208401906100be565b50505061029a565b600080546001600160a01b038381166001600160a01b0319831681178455604051919092169283917f8be0079c531659141344cd1fd0a4f28419497f9722a3daafe3b4186f6b6457e09190a35050565b8280546100ca9061025f565b90600052602060002090601f0160209004810192826100ec5760008555610132565b82601f1061010557805160ff1916838001178555610132565b82800160010185558215610132579182015b82811115610132578251825591602001919060010190610117565b5061013e929150610142565b5090565b5b8082111561013e5760008155600101610143565b634e487b7160e01b600052604160045260246000fd5b6000806040838503121561018057600080fd5b82516001600160a01b038116811461019757600080fd5b602084810151919350906001600160401b03808211156101b657600080fd5b818601915086601f8301126101ca57600080fd5b8151818111156101dc576101dc610157565b604051601f8201601f19908116603f0116810190838211818310171561020457610204610157565b81604052828152898684870101111561021c57600080fd5b600093505b8284101561023e5784840186015181850187015292850192610221565b8284111561024f5760008684830101525b8096505050505050509250929050565b600181811c9082168061027357607f821691505b6020821081141561029457634e487b7160e01b600052602260045260246000fd5b50919050565b610527806102a96000396000f3fe608060405234801561001057600080fd5b506004361061006d5760003560e01c806302ee3a52146100725780633314cb8f14610090578063715018a6146100a35780638da5cb5b146100ad578063dd57cd46146100cd578063de4e49ca146100e0578063f2fde38b146100f1575b600080fd5b61007a610104565b60405161008791906103ec565b60405180910390f35b61007a61009e366004610439565b610166565b6100ab6101d2565b005b6100b5610216565b6040516001600160a01b039091168152602001610087565b6100ab6100db36600461046e565b610225565b6001546001600160a01b03166100b5565b6100ab6100ff36600461049a565b6102fc565b6060600580548060200260200160405190810160405280929190818152602001828054801561015c57602002820191906000526020600020905b81546001600160a01b0316815260019091019060200180831161013e575b5050505050905090565b6000818152600360209081526040918290208054835181840281018401909452808452606093928301828280156101c657602002820191906000526020600020905b81546001600160a01b031681526001909101906020018083116101a8575b50505050509050919050565b336101db610216565b6001600160a01b03161461020a5760405162461bcd60e51b8152600401610201906104bc565b60405180910390fd5b610214600061039c565b565b6000546001600160a01b031690565b3361022e610216565b6001600160a01b0316146102545760405162461bcd60e51b8152600401610201906104bc565b60008281526004602052604090205460ff161561027057600080fd5b60008281526003602090815260408083208054600181810183559185528385200180546001600160a01b039096166001600160a01b03199687168117909155600580548084019091557f036b6384b5eca791c62761152d0c79bb0604c104a5fb6f4eb0703f3154bb3db0018054909616179094559382526004905291909120805460ff19169091179055565b33610305610216565b6001600160a01b03161461032b5760405162461bcd60e51b8152600401610201906104bc565b6001600160a01b0381166103905760405162461bcd60e51b815260206004820152602660248201527f4f776e61626c653a206e6577206f776e657220697320746865207a65726f206160448201526564647265737360d01b6064820152608401610201565b6103998161039c565b50565b600080546001600160a01b038381166001600160a01b0319831681178455604051919092169283917f8be0079c531659141344cd1fd0a4f28419497f9722a3daafe3b4186f6b6457e09190a35050565b6020808252825182820181905260009190848201906040850190845b8181101561042d5783516001600160a01b031683529284019291840191600101610408565b50909695505050505050565b60006020828403121561044b57600080fd5b5035919050565b80356001600160a01b038116811461046957600080fd5b919050565b6000806040838503121561048157600080fd5b8235915061049160208401610452565b90509250929050565b6000602082840312156104ac57600080fd5b6104b582610452565b9392505050565b6020808252818101527f4f776e61626c653a2063616c6c6572206973206e6f7420746865206f776e657260408201526060019056fea2646970667358221220a7c82f2bd1fa29d43416600a850c55169aea8c3a96072a30791057e1f4b852c664736f6c634300080b0033",
  "immutableReferences": {},
  "source": "pragma solidity ^0.8.4;\r\npragma experimental ABIEncoderV2;\r\n\r\nimport \"@openzeppelin/contracts/utils/Address.sol\";\r\nimport \"@openzeppelin/contracts/access/AccessControl.sol\";\r\nimport \"@openzeppelin/contracts/access/Ownable.sol\";\r\n\r\n\r\n//import \"@openzeppelin/contracts/token/ERC20/IERC20.sol\";\r\n//import \"../Products/CroudFundNonRefundable.sol\";\r\n//import \"../Products/CroudFundRefundable.sol\";\r\n//import \"../Tokens/PicardyArtisteToken.sol\";\r\n\r\n\r\ncontract PicardyArtiste is Ownable {\r\n\r\n    address artisteAddress;\r\n    string artisteName;\r\n\r\n    mapping (uint => address[]) productMap;\r\n    mapping (uint => bool) activeProduct;\r\n    address[] products;\r\n\r\n    constructor(address _artisteAddress, string memory _artisteName){\r\n        artisteAddress = _artisteAddress;\r\n        artisteName = _artisteName;\r\n    }\r\n\r\n    function addProduct(uint _productId, address _productAddress) external onlyOwner {\r\n        require(!activeProduct[_productId]);\r\n        address[] storage newProduct = productMap[_productId];\r\n        newProduct.push(_productAddress);\r\n        products.push(_productAddress);\r\n        activeProduct[_productId] = true;\r\n    }\r\n\r\n    function getProductsById(uint _productId) external view returns(address[] memory){\r\n        return productMap[_productId];\r\n    }\r\n\r\n    function getAllProducts() external view returns(address[] memory){\r\n        return products;\r\n    }\r\n\r\n    function getArtiste() external view returns(address){\r\n        return artisteAddress;\r\n    }\r\n    \r\n}\r\n",
  "sourcePath": "C:\\Users\\USER\\Desktop\\Picardy_Protocol\\contracts\\Users\\Artiste.sol",
  "compiler": {
    "name": "solc",
    "version": "0.8.11+commit.d7f03943.Emscripten.clang"
  },
  "schemaVersion": "3.4.6",
  "updatedAt": "2022-05-18T15:32:59.776Z",
  "devdoc": {
    "kind": "dev",
    "methods": {
      "owner()": {
        "details": "Returns the address of the current owner."
      },
      "renounceOwnership()": {
        "details": "Leaves the contract without owner. It will not be possible to call `onlyOwner` functions anymore. Can only be called by the current owner. NOTE: Renouncing ownership will leave the contract without an owner, thereby removing any functionality that is only available to the owner."
      },
      "transferOwnership(address)": {
        "details": "Transfers ownership of the contract to a new account (`newOwner`). Can only be called by the current owner."
      }
    },
    "version": 1
  },
  "userdoc": {
    "kind": "user",
    "methods": {},
    "version": 1
  }
}