{
  "contractName": "PicardyProfile",
  "abi": [
    {
      "inputs": [
        {
          "internalType": "address",
          "name": "_artisteAddress",
          "type": "address"
        },
        {
          "internalType": "string",
          "name": "_artisteName",
          "type": "string"
        },
        {
          "internalType": "string",
          "name": "_artisteHandle",
          "type": "string"
        },
        {
          "internalType": "address",
          "name": "_PICARDY_HUB",
          "type": "address"
        }
      ],
      "stateMutability": "nonpayable",
      "type": "constructor"
    },
    {
      "anonymous": false,
      "inputs": [
        {
          "indexed": true,
          "internalType": "address",
          "name": "owner",
          "type": "address"
        },
        {
          "indexed": true,
          "internalType": "address",
          "name": "approved",
          "type": "address"
        },
        {
          "indexed": true,
          "internalType": "uint256",
          "name": "tokenId",
          "type": "uint256"
        }
      ],
      "name": "Approval",
      "type": "event"
    },
    {
      "anonymous": false,
      "inputs": [
        {
          "indexed": true,
          "internalType": "address",
          "name": "owner",
          "type": "address"
        },
        {
          "indexed": true,
          "internalType": "address",
          "name": "operator",
          "type": "address"
        },
        {
          "indexed": false,
          "internalType": "bool",
          "name": "approved",
          "type": "bool"
        }
      ],
      "name": "ApprovalForAll",
      "type": "event"
    },
    {
      "anonymous": false,
      "inputs": [
        {
          "indexed": true,
          "internalType": "address",
          "name": "follower",
          "type": "address"
        }
      ],
      "name": "Followed",
      "type": "event"
    },
    {
      "anonymous": false,
      "inputs": [
        {
          "indexed": true,
          "internalType": "uint256",
          "name": "productId",
          "type": "uint256"
        },
        {
          "indexed": true,
          "internalType": "address",
          "name": "productAddress",
          "type": "address"
        }
      ],
      "name": "NewProductAdded",
      "type": "event"
    },
    {
      "anonymous": false,
      "inputs": [
        {
          "indexed": true,
          "internalType": "address",
          "name": "previousOwner",
          "type": "address"
        },
        {
          "indexed": true,
          "internalType": "address",
          "name": "newOwner",
          "type": "address"
        }
      ],
      "name": "OwnershipTransferred",
      "type": "event"
    },
    {
      "anonymous": false,
      "inputs": [
        {
          "indexed": true,
          "internalType": "address",
          "name": "from",
          "type": "address"
        },
        {
          "indexed": true,
          "internalType": "address",
          "name": "to",
          "type": "address"
        },
        {
          "indexed": true,
          "internalType": "uint256",
          "name": "tokenId",
          "type": "uint256"
        }
      ],
      "name": "Transfer",
      "type": "event"
    },
    {
      "anonymous": false,
      "inputs": [
        {
          "indexed": true,
          "internalType": "address",
          "name": "follower",
          "type": "address"
        }
      ],
      "name": "Unfollowed",
      "type": "event"
    },
    {
      "inputs": [
        {
          "internalType": "address",
          "name": "to",
          "type": "address"
        },
        {
          "internalType": "uint256",
          "name": "tokenId",
          "type": "uint256"
        }
      ],
      "name": "approve",
      "outputs": [],
      "stateMutability": "nonpayable",
      "type": "function"
    },
    {
      "inputs": [
        {
          "internalType": "address",
          "name": "owner",
          "type": "address"
        }
      ],
      "name": "balanceOf",
      "outputs": [
        {
          "internalType": "uint256",
          "name": "",
          "type": "uint256"
        }
      ],
      "stateMutability": "view",
      "type": "function"
    },
    {
      "inputs": [],
      "name": "baseExtension",
      "outputs": [
        {
          "internalType": "string",
          "name": "",
          "type": "string"
        }
      ],
      "stateMutability": "view",
      "type": "function"
    },
    {
      "inputs": [
        {
          "internalType": "uint256",
          "name": "tokenId",
          "type": "uint256"
        }
      ],
      "name": "getApproved",
      "outputs": [
        {
          "internalType": "address",
          "name": "",
          "type": "address"
        }
      ],
      "stateMutability": "view",
      "type": "function"
    },
    {
      "inputs": [
        {
          "internalType": "address",
          "name": "owner",
          "type": "address"
        },
        {
          "internalType": "address",
          "name": "operator",
          "type": "address"
        }
      ],
      "name": "isApprovedForAll",
      "outputs": [
        {
          "internalType": "bool",
          "name": "",
          "type": "bool"
        }
      ],
      "stateMutability": "view",
      "type": "function"
    },
    {
      "inputs": [],
      "name": "name",
      "outputs": [
        {
          "internalType": "string",
          "name": "",
          "type": "string"
        }
      ],
      "stateMutability": "view",
      "type": "function"
    },
    {
      "inputs": [],
      "name": "owner",
      "outputs": [
        {
          "internalType": "address",
          "name": "",
          "type": "address"
        }
      ],
      "stateMutability": "view",
      "type": "function"
    },
    {
      "inputs": [
        {
          "internalType": "uint256",
          "name": "tokenId",
          "type": "uint256"
        }
      ],
      "name": "ownerOf",
      "outputs": [
        {
          "internalType": "address",
          "name": "",
          "type": "address"
        }
      ],
      "stateMutability": "view",
      "type": "function"
    },
    {
      "inputs": [],
      "name": "renounceOwnership",
      "outputs": [],
      "stateMutability": "nonpayable",
      "type": "function"
    },
    {
      "inputs": [
        {
          "internalType": "address",
          "name": "from",
          "type": "address"
        },
        {
          "internalType": "address",
          "name": "to",
          "type": "address"
        },
        {
          "internalType": "uint256",
          "name": "tokenId",
          "type": "uint256"
        }
      ],
      "name": "safeTransferFrom",
      "outputs": [],
      "stateMutability": "nonpayable",
      "type": "function"
    },
    {
      "inputs": [
        {
          "internalType": "address",
          "name": "from",
          "type": "address"
        },
        {
          "internalType": "address",
          "name": "to",
          "type": "address"
        },
        {
          "internalType": "uint256",
          "name": "tokenId",
          "type": "uint256"
        },
        {
          "internalType": "bytes",
          "name": "_data",
          "type": "bytes"
        }
      ],
      "name": "safeTransferFrom",
      "outputs": [],
      "stateMutability": "nonpayable",
      "type": "function"
    },
    {
      "inputs": [
        {
          "internalType": "address",
          "name": "operator",
          "type": "address"
        },
        {
          "internalType": "bool",
          "name": "approved",
          "type": "bool"
        }
      ],
      "name": "setApprovalForAll",
      "outputs": [],
      "stateMutability": "nonpayable",
      "type": "function"
    },
    {
      "inputs": [
        {
          "internalType": "bytes4",
          "name": "interfaceId",
          "type": "bytes4"
        }
      ],
      "name": "supportsInterface",
      "outputs": [
        {
          "internalType": "bool",
          "name": "",
          "type": "bool"
        }
      ],
      "stateMutability": "view",
      "type": "function"
    },
    {
      "inputs": [],
      "name": "symbol",
      "outputs": [
        {
          "internalType": "string",
          "name": "",
          "type": "string"
        }
      ],
      "stateMutability": "view",
      "type": "function"
    },
    {
      "inputs": [
        {
          "internalType": "uint256",
          "name": "tokenId",
          "type": "uint256"
        }
      ],
      "name": "tokenURI",
      "outputs": [
        {
          "internalType": "string",
          "name": "",
          "type": "string"
        }
      ],
      "stateMutability": "view",
      "type": "function"
    },
    {
      "inputs": [
        {
          "internalType": "address",
          "name": "from",
          "type": "address"
        },
        {
          "internalType": "address",
          "name": "to",
          "type": "address"
        },
        {
          "internalType": "uint256",
          "name": "tokenId",
          "type": "uint256"
        }
      ],
      "name": "transferFrom",
      "outputs": [],
      "stateMutability": "nonpayable",
      "type": "function"
    },
    {
      "inputs": [
        {
          "internalType": "address",
          "name": "newOwner",
          "type": "address"
        }
      ],
      "name": "transferOwnership",
      "outputs": [],
      "stateMutability": "nonpayable",
      "type": "function"
    },
    {
      "inputs": [
        {
          "internalType": "uint256",
          "name": "_productId",
          "type": "uint256"
        },
        {
          "internalType": "address",
          "name": "_productAddress",
          "type": "address"
        },
        {
          "internalType": "string",
          "name": "_description",
          "type": "string"
        }
      ],
      "name": "addProduct",
      "outputs": [],
      "stateMutability": "nonpayable",
      "type": "function"
    },
    {
      "inputs": [
        {
          "internalType": "string",
          "name": "_baseUri",
          "type": "string"
        }
      ],
      "name": "setCreatorFollowBaseUri",
      "outputs": [],
      "stateMutability": "nonpayable",
      "type": "function"
    },
    {
      "inputs": [],
      "name": "follow",
      "outputs": [],
      "stateMutability": "nonpayable",
      "type": "function"
    },
    {
      "inputs": [],
      "name": "unfollow",
      "outputs": [],
      "stateMutability": "nonpayable",
      "type": "function"
    },
    {
      "inputs": [],
      "name": "getFollowers",
      "outputs": [
        {
          "internalType": "address[]",
          "name": "",
          "type": "address[]"
        }
      ],
      "stateMutability": "view",
      "type": "function"
    },
    {
      "inputs": [],
      "name": "getFollowCount",
      "outputs": [
        {
          "internalType": "uint256",
          "name": "",
          "type": "uint256"
        }
      ],
      "stateMutability": "view",
      "type": "function"
    },
    {
      "inputs": [
        {
          "internalType": "string",
          "name": "_newBaseURI",
          "type": "string"
        }
      ],
      "name": "setBaseURI",
      "outputs": [],
      "stateMutability": "nonpayable",
      "type": "function"
    },
    {
      "inputs": [
        {
          "internalType": "uint256",
          "name": "_productId",
          "type": "uint256"
        }
      ],
      "name": "getProductsById",
      "outputs": [
        {
          "internalType": "address[]",
          "name": "",
          "type": "address[]"
        }
      ],
      "stateMutability": "view",
      "type": "function"
    },
    {
      "inputs": [],
      "name": "getAllProducts",
      "outputs": [
        {
          "internalType": "address[]",
          "name": "",
          "type": "address[]"
        }
      ],
      "stateMutability": "view",
      "type": "function"
    },
    {
      "inputs": [
        {
          "internalType": "uint256",
          "name": "_productId",
          "type": "uint256"
        },
        {
          "internalType": "string",
          "name": "_description",
          "type": "string"
        }
      ],
      "name": "getProductAddress",
      "outputs": [
        {
          "internalType": "address",
          "name": "",
          "type": "address"
        }
      ],
      "stateMutability": "view",
      "type": "function"
    },
    {
      "inputs": [],
      "name": "getArtiste",
      "outputs": [
        {
          "internalType": "address",
          "name": "",
          "type": "address"
        }
      ],
      "stateMutability": "view",
      "type": "function"
    },
    {
      "inputs": [],
      "name": "getFollowAddress",
      "outputs": [
        {
          "internalType": "address",
          "name": "",
          "type": "address"
        }
      ],
      "stateMutability": "view",
      "type": "function"
    },
    {
      "inputs": [
        {
          "internalType": "address",
          "name": "_creatorFollowAddress",
          "type": "address"
        }
      ],
      "name": "updateFollowAddress",
      "outputs": [],
      "stateMutability": "nonpayable",
      "type": "function"
    }
  ],
  "bytecode": "0x60c06040526005608081905264173539b7b760d91b60a09081526200002891600c9190620003a5565b503480156200003657600080fd5b506040516200242738038062002427833981016040819052620000599162000535565b82518390839062000072906000906020850190620003a5565b50805162000088906001906020840190620003a5565b505050620000a56200009f6200013260201b60201c565b62000136565b600880546001600160a01b0319166001600160a01b0386161790558251620000d590600a906020860190620003a5565b508151620000eb90600b906020850190620003a5565b50620000f984600062000188565b600780546001600160a01b0319166001600160a01b0383811691909117909155600854620001289116620002d4565b5050505062000629565b3390565b600680546001600160a01b038381166001600160a01b0319831681179093556040519116919082907f8be0079c531659141344cd1fd0a4f28419497f9722a3daafe3b4186f6b6457e090600090a35050565b6001600160a01b038216620001e45760405162461bcd60e51b815260206004820181905260248201527f4552433732313a206d696e7420746f20746865207a65726f206164647265737360448201526064015b60405180910390fd5b6000818152600260205260409020546001600160a01b0316156200024b5760405162461bcd60e51b815260206004820152601c60248201527f4552433732313a20746f6b656e20616c7265616479206d696e746564000000006044820152606401620001db565b6001600160a01b038216600090815260036020526040812080546001929062000276908490620005c5565b909155505060008181526002602052604080822080546001600160a01b0319166001600160a01b03861690811790915590518392907fddf252ad1be2c89b69c2b068fc378daa952ba7f163c4a11628f55a4df523b3ef908290a45050565b6006546001600160a01b03163314620003305760405162461bcd60e51b815260206004820181905260248201527f4f776e61626c653a2063616c6c6572206973206e6f7420746865206f776e65726044820152606401620001db565b6001600160a01b038116620003975760405162461bcd60e51b815260206004820152602660248201527f4f776e61626c653a206e6577206f776e657220697320746865207a65726f206160448201526564647265737360d01b6064820152608401620001db565b620003a28162000136565b50565b828054620003b390620005ec565b90600052602060002090601f016020900481019282620003d7576000855562000422565b82601f10620003f257805160ff191683800117855562000422565b8280016001018555821562000422579182015b828111156200042257825182559160200191906001019062000405565b506200043092915062000434565b5090565b5b8082111562000430576000815560010162000435565b80516001600160a01b03811681146200046357600080fd5b919050565b634e487b7160e01b600052604160045260246000fd5b600082601f8301126200049057600080fd5b81516001600160401b0380821115620004ad57620004ad62000468565b604051601f8301601f19908116603f01168101908282118183101715620004d857620004d862000468565b81604052838152602092508683858801011115620004f557600080fd5b600091505b83821015620005195785820183015181830184015290820190620004fa565b838211156200052b5760008385830101525b9695505050505050565b600080600080608085870312156200054c57600080fd5b62000557856200044b565b60208601519094506001600160401b03808211156200057557600080fd5b62000583888389016200047e565b945060408701519150808211156200059a57600080fd5b50620005a9878288016200047e565b925050620005ba606086016200044b565b905092959194509250565b60008219821115620005e757634e487b7160e01b600052601160045260246000fd5b500190565b600181811c908216806200060157607f821691505b602082108114156200062357634e487b7160e01b600052602260045260246000fd5b50919050565b611dee80620006396000396000f3fe608060405234801561001057600080fd5b506004361061016a5760003560e01c806301ffc9a71461016f57806302ee3a521461019757806306fdde03146101ac578063081812fc146101c1578063095ea7b3146101e15780630d79f561146101f657806323b872dd146101fe578063260777fe146102115780633314cb8f14610227578063416b187e1461023a57806342842e0e14610240578063514f64771461025357806355f804b3146102665780636352211e14610279578063639a71b21461028c57806370a082311461029f578063715018a6146102b25780637865bc11146102ba5780638da5cb5b146102c257806393ec8542146102ca57806395d89b41146102dd578063a22cb465146102e5578063a433ccc7146102f8578063b88d4fde14610300578063c12d972f14610313578063c668286214610326578063c87b56dd1461032e578063de4e49ca14610341578063e985e9c514610352578063f2fde38b14610365575b600080fd5b61018261017d366004611641565b610378565b60405190151581526020015b60405180910390f35b61019f6103ca565b60405161018e919061165e565b6101b461042c565b60405161018e9190611703565b6101d46101cf366004611716565b6104b5565b60405161018e919061172f565b6101f46101ef366004611758565b610542565b005b61019f610653565b6101f461020c366004611784565b6106ca565b6102196106fb565b60405190815260200161018e565b61019f610235366004611716565b610769565b306101d4565b6101f461024e366004611784565b6107d5565b6101f4610261366004611882565b6107f0565b6101f46102743660046118da565b6108e0565b6101d4610287366004611716565b6108ff565b6101d461029a36600461190e565b610976565b6102196102ad366004611954565b6109b3565b6101f4610a3a565b6101f4610a75565b6101d4610b16565b6101f46102d83660046118da565b610b25565b6101b4610ba1565b6101f46102f336600461197f565b610bb0565b6101f4610bbb565b6101f461030e3660046119b8565b610c5c565b6101f4610321366004611954565b610c94565b6101b4610ccd565b6101b461033c366004611716565b610d5b565b6008546001600160a01b03166101d4565b610182610360366004611a37565b610e33565b6101f4610373366004611954565b610e61565b60006001600160e01b031982166380ac58cd60e01b14806103a957506001600160e01b03198216635b5e139f60e01b145b806103c457506301ffc9a760e01b6001600160e01b03198316145b92915050565b6060601080548060200260200160405190810160405280929190818152602001828054801561042257602002820191906000526020600020905b81546001600160a01b03168152600190910190602001808311610404575b5050505050905090565b60606000805461043b90611a65565b80601f016020809104026020016040519081016040528092919081815260200182805461046790611a65565b80156104225780601f1061048957610100808354040283529160200191610422565b820191906000526020600020905b81548152906001019060200180831161049757509395945050505050565b60006104c082610f01565b6105265760405162461bcd60e51b815260206004820152602c60248201527f4552433732313a20617070726f76656420717565727920666f72206e6f6e657860448201526b34b9ba32b73a103a37b5b2b760a11b60648201526084015b60405180910390fd5b506000908152600460205260409020546001600160a01b031690565b600061054d826108ff565b9050806001600160a01b0316836001600160a01b031614156105bb5760405162461bcd60e51b815260206004820152602160248201527f4552433732313a20617070726f76616c20746f2063757272656e74206f776e656044820152603960f91b606482015260840161051d565b336001600160a01b03821614806105d757506105d78133610e33565b6106445760405162461bcd60e51b815260206004820152603860248201527f4552433732313a20617070726f76652063616c6c6572206973206e6f74206f776044820152771b995c881b9bdc88185c1c1c9bdd995908199bdc88185b1b60421b606482015260840161051d565b61064e8383610f1e565b505050565b60095460408051630d79f56160e01b815290516060926001600160a01b031691630d79f5619160048083019260009291908290030181865afa15801561069d573d6000803e3d6000fd5b505050506040513d6000823e601f3d908101601f191682016040526106c59190810190611aa0565b905090565b6106d43382610f8c565b6106f05760405162461bcd60e51b815260040161051d90611b51565b61064e838383611056565b60095460408051631303bbff60e11b815290516000926001600160a01b03169163260777fe9160048083019260209291908290030181865afa158015610745573d6000803e3d6000fd5b505050506040513d601f19601f820116820180604052508101906106c59190611ba2565b6000818152600e60209081526040918290208054835181840281018401909452808452606093928301828280156107c957602002820191906000526020600020905b81546001600160a01b031681526001909101906020018083116107ab575b50505050509050919050565b61064e83838360405180602001604052806000815250610c5c565b6008546001600160a01b0316321461080757600080fd5b6000838152600e60209081526040808320600f90925291829020915190918491610832908590611bbb565b9081526040516020918190038201812080546001600160a01b03199081166001600160a01b0395861617909155845460018181018755600087815294852090910180548316958916958617905560108054918201815584527f1b6847dc741a1b0cd08d278845f9d819d87b734759afb55fe2de5cb82a9ae6720180549091168417905586917f34bec8f7def8237f9a30ac54aebff5a5acd1923d5eae92855efdc30a8cdb7e2591a350505050565b6108e86111f2565b80516108fb90600d906020840190611592565b5050565b6000818152600260205260408120546001600160a01b0316806103c45760405162461bcd60e51b815260206004820152602960248201527f4552433732313a206f776e657220717565727920666f72206e6f6e657869737460448201526832b73a103a37b5b2b760b91b606482015260840161051d565b6000828152600f60205260408082209051610992908490611bbb565b908152604051908190036020019020546001600160a01b0316905092915050565b60006001600160a01b038216610a1e5760405162461bcd60e51b815260206004820152602a60248201527f4552433732313a2062616c616e636520717565727920666f7220746865207a65604482015269726f206164647265737360b01b606482015260840161051d565b506001600160a01b031660009081526003602052604090205490565b33610a43610b16565b6001600160a01b031614610a695760405162461bcd60e51b815260040161051d90611bd7565b610a736000611247565b565b600954604051631819619160e01b81526001600160a01b0390911690631819619190610aa590339060040161172f565b6020604051808303816000875af1158015610ac4573d6000803e3d6000fd5b505050506040513d601f19601f82011682018060405250810190610ae89190611c0c565b5060405133907feec2b0215309af7425b7c70d86d811dac004320e90dc1518a084d40840c663cc90600090a2565b6006546001600160a01b031690565b6008546001600160a01b03163314610b3c57600080fd5b60095460405163a0bcfc7f60e01b81526001600160a01b039091169063a0bcfc7f90610b6c908490600401611703565b600060405180830381600087803b158015610b8657600080fd5b505af1158015610b9a573d6000803e3d6000fd5b5050505050565b60606001805461043b90611a65565b6108fb338383611299565b600954604051634d90bc3760e01b81526001600160a01b0390911690634d90bc3790610beb90339060040161172f565b6020604051808303816000875af1158015610c0a573d6000803e3d6000fd5b505050506040513d601f19601f82011682018060405250810190610c2e9190611c0c565b5060405133907f4cc7d9539ce01437cdeb528a3129c5cda0d65929048a1f9942d9dae632e7037090600090a2565b610c663383610f8c565b610c825760405162461bcd60e51b815260040161051d90611b51565b610c8e84848484611364565b50505050565b6007546001600160a01b03163314610cab57600080fd5b600980546001600160a01b0319166001600160a01b0392909216919091179055565b600c8054610cda90611a65565b80601f0160208091040260200160405190810160405280929190818152602001828054610d0690611a65565b8015610d535780601f10610d2857610100808354040283529160200191610d53565b820191906000526020600020905b815481529060010190602001808311610d3657829003601f168201915b505050505081565b6060610d6682610f01565b610dca5760405162461bcd60e51b815260206004820152602f60248201527f4552433732314d657461646174613a2055524920717565727920666f72206e6f60448201526e3732bc34b9ba32b73a103a37b5b2b760891b606482015260840161051d565b6000610de160408051602081019091526000815290565b90506000815111610e015760405180602001604052806000815250610e2c565b80610e0b84611397565b604051602001610e1c929190611c29565b6040516020818303038152906040525b9392505050565b6001600160a01b03918216600090815260056020908152604080832093909416825291909152205460ff1690565b33610e6a610b16565b6001600160a01b031614610e905760405162461bcd60e51b815260040161051d90611bd7565b6001600160a01b038116610ef55760405162461bcd60e51b815260206004820152602660248201527f4f776e61626c653a206e6577206f776e657220697320746865207a65726f206160448201526564647265737360d01b606482015260840161051d565b610efe81611247565b50565b6000908152600260205260409020546001600160a01b0316151590565b600081815260046020526040902080546001600160a01b0319166001600160a01b0384169081179091558190610f53826108ff565b6001600160a01b03167f8c5be1e5ebec7d5bd14f71427d1e84f3dd0314c0f7b2291e5b200ac8c7c3b92560405160405180910390a45050565b6000610f9782610f01565b610ff85760405162461bcd60e51b815260206004820152602c60248201527f4552433732313a206f70657261746f7220717565727920666f72206e6f6e657860448201526b34b9ba32b73a103a37b5b2b760a11b606482015260840161051d565b6000611003836108ff565b9050806001600160a01b0316846001600160a01b0316148061102a575061102a8185610e33565b8061104e5750836001600160a01b0316611043846104b5565b6001600160a01b0316145b949350505050565b826001600160a01b0316611069826108ff565b6001600160a01b0316146110cd5760405162461bcd60e51b815260206004820152602560248201527f4552433732313a207472616e736665722066726f6d20696e636f72726563742060448201526437bbb732b960d91b606482015260840161051d565b6001600160a01b03821661112f5760405162461bcd60e51b8152602060048201526024808201527f4552433732313a207472616e7366657220746f20746865207a65726f206164646044820152637265737360e01b606482015260840161051d565b61113a600082610f1e565b6001600160a01b0383166000908152600360205260408120805460019290611163908490611c6e565b90915550506001600160a01b0382166000908152600360205260408120805460019290611191908490611c85565b909155505060008181526002602052604080822080546001600160a01b0319166001600160a01b0386811691821790925591518493918716917fddf252ad1be2c89b69c2b068fc378daa952ba7f163c4a11628f55a4df523b3ef91a4505050565b6008546001600160a01b03163314610a735760405162461bcd60e51b81526020600482015260186024820152772cb7ba903237b73a103430bb32903832b936b4b9b9b4b7b760411b604482015260640161051d565b600680546001600160a01b038381166001600160a01b0319831681179093556040519116919082907f8be0079c531659141344cd1fd0a4f28419497f9722a3daafe3b4186f6b6457e090600090a35050565b816001600160a01b0316836001600160a01b031614156112f75760405162461bcd60e51b815260206004820152601960248201527822a9219b99189d1030b8383937bb32903a379031b0b63632b960391b604482015260640161051d565b6001600160a01b03838116600081815260056020908152604080832094871680845294825291829020805460ff191686151590811790915591519182527f17307eab39ab6107e8899845ad3d59bd9653f200f220920489ca2b5937696c31910160405180910390a3505050565b61136f848484611056565b61137b84848484611494565b610c8e5760405162461bcd60e51b815260040161051d90611c9d565b6060816113bb5750506040805180820190915260018152600360fc1b602082015290565b8160005b81156113e557806113cf81611cef565b91506113de9050600a83611d20565b91506113bf565b6000816001600160401b038111156113ff576113ff6117c5565b6040519080825280601f01601f191660200182016040528015611429576020820181803683370190505b5090505b841561104e5761143e600183611c6e565b915061144b600a86611d34565b611456906030611c85565b60f81b81838151811061146b5761146b611d48565b60200101906001600160f81b031916908160001a90535061148d600a86611d20565b945061142d565b60006001600160a01b0384163b1561158757604051630a85bd0160e11b81526001600160a01b0385169063150b7a02906114d8903390899088908890600401611d5e565b6020604051808303816000875af1925050508015611513575060408051601f3d908101601f1916820190925261151091810190611d9b565b60015b61156d573d808015611541576040519150601f19603f3d011682016040523d82523d6000602084013e611546565b606091505b5080516115655760405162461bcd60e51b815260040161051d90611c9d565b805181602001fd5b6001600160e01b031916630a85bd0160e11b14905061104e565b506001949350505050565b82805461159e90611a65565b90600052602060002090601f0160209004810192826115c05760008555611606565b82601f106115d957805160ff1916838001178555611606565b82800160010185558215611606579182015b828111156116065782518255916020019190600101906115eb565b50611612929150611616565b5090565b5b808211156116125760008155600101611617565b6001600160e01b031981168114610efe57600080fd5b60006020828403121561165357600080fd5b8135610e2c8161162b565b6020808252825182820181905260009190848201906040850190845b8181101561169f5783516001600160a01b03168352928401929184019160010161167a565b50909695505050505050565b60005b838110156116c65781810151838201526020016116ae565b83811115610c8e5750506000910152565b600081518084526116ef8160208601602086016116ab565b601f01601f19169290920160200192915050565b602081526000610e2c60208301846116d7565b60006020828403121561172857600080fd5b5035919050565b6001600160a01b0391909116815260200190565b6001600160a01b0381168114610efe57600080fd5b6000806040838503121561176b57600080fd5b823561177681611743565b946020939093013593505050565b60008060006060848603121561179957600080fd5b83356117a481611743565b925060208401356117b481611743565b929592945050506040919091013590565b634e487b7160e01b600052604160045260246000fd5b604051601f8201601f191681016001600160401b0381118282101715611803576118036117c5565b604052919050565b60006001600160401b03831115611824576118246117c5565b611837601f8401601f19166020016117db565b905082815283838301111561184b57600080fd5b828260208301376000602084830101529392505050565b600082601f83011261187357600080fd5b610e2c8383356020850161180b565b60008060006060848603121561189757600080fd5b8335925060208401356118a981611743565b915060408401356001600160401b038111156118c457600080fd5b6118d086828701611862565b9150509250925092565b6000602082840312156118ec57600080fd5b81356001600160401b0381111561190257600080fd5b61104e84828501611862565b6000806040838503121561192157600080fd5b8235915060208301356001600160401b0381111561193e57600080fd5b61194a85828601611862565b9150509250929050565b60006020828403121561196657600080fd5b8135610e2c81611743565b8015158114610efe57600080fd5b6000806040838503121561199257600080fd5b823561199d81611743565b915060208301356119ad81611971565b809150509250929050565b600080600080608085870312156119ce57600080fd5b84356119d981611743565b935060208501356119e981611743565b92506040850135915060608501356001600160401b03811115611a0b57600080fd5b8501601f81018713611a1c57600080fd5b611a2b8782356020840161180b565b91505092959194509250565b60008060408385031215611a4a57600080fd5b8235611a5581611743565b915060208301356119ad81611743565b600181811c90821680611a7957607f821691505b60208210811415611a9a57634e487b7160e01b600052602260045260246000fd5b50919050565b60006020808385031215611ab357600080fd5b82516001600160401b0380821115611aca57600080fd5b818501915085601f830112611ade57600080fd5b815181811115611af057611af06117c5565b8060051b9150611b018483016117db565b8181529183018401918481019088841115611b1b57600080fd5b938501935b83851015611b455784519250611b3583611743565b8282529385019390850190611b20565b98975050505050505050565b60208082526031908201527f4552433732313a207472616e736665722063616c6c6572206973206e6f74206f6040820152701ddb995c881b9bdc88185c1c1c9bdd9959607a1b606082015260800190565b600060208284031215611bb457600080fd5b5051919050565b60008251611bcd8184602087016116ab565b9190910192915050565b6020808252818101527f4f776e61626c653a2063616c6c6572206973206e6f7420746865206f776e6572604082015260600190565b600060208284031215611c1e57600080fd5b8151610e2c81611971565b60008351611c3b8184602088016116ab565b835190830190611c4f8183602088016116ab565b01949350505050565b634e487b7160e01b600052601160045260246000fd5b600082821015611c8057611c80611c58565b500390565b60008219821115611c9857611c98611c58565b500190565b60208082526032908201527f4552433732313a207472616e7366657220746f206e6f6e20455243373231526560408201527131b2b4bb32b91034b6b83632b6b2b73a32b960711b606082015260800190565b6000600019821415611d0357611d03611c58565b5060010190565b634e487b7160e01b600052601260045260246000fd5b600082611d2f57611d2f611d0a565b500490565b600082611d4357611d43611d0a565b500690565b634e487b7160e01b600052603260045260246000fd5b6001600160a01b0385811682528416602082015260408101839052608060608201819052600090611d91908301846116d7565b9695505050505050565b600060208284031215611dad57600080fd5b8151610e2c8161162b56fea2646970667358221220d318d4dc8d152f12d4378f6ae3ee3a4963f48d4cc83d0e96650f70b1470818f364736f6c634300080b0033",
  "immutableReferences": {},
  "source": "// SPDX-License-Identifier: MIT \r\npragma solidity ^0.8.4;\r\npragma experimental ABIEncoderV2;\r\n\r\nimport \"@openzeppelin/contracts/utils/Address.sol\";\r\nimport \"@openzeppelin/contracts/access/AccessControl.sol\";\r\nimport \"@openzeppelin/contracts/access/Ownable.sol\";\r\nimport \"@openzeppelin/contracts/token/ERC721/ERC721.sol\";\r\n//import \"./CreatorFollow.sol\";\r\nimport {ICreatorFollowInterface} from \"./CreatorFollow.sol\";\r\n\r\ncontract PicardyProfile is ERC721, Ownable {\r\n\r\n    event NewProductAdded (uint indexed productId, address indexed productAddress);\r\n    event Followed(address indexed follower);\r\n    event Unfollowed(address indexed follower);\r\n    \r\n    address PICARDY_HUB;\r\n    address artisteAddress;\r\n    address creatorFollowAddress;\r\n    string artisteName;\r\n    string artisteHandle;\r\n    string public baseExtension = \".json\";\r\n    string baseURI;\r\n\r\n    mapping (uint => address[]) productMap;\r\n    mapping (uint => mapping(string => address)) exactProductAddressMap;\r\n    address[] products;\r\n\r\n    modifier onlyCreator {\r\n        _onlyCreator();\r\n        _;\r\n    }\r\n\r\n    constructor(address _artisteAddress, string memory _artisteName, string memory _artisteHandle, address _PICARDY_HUB) ERC721(_artisteName, _artisteHandle){\r\n        artisteAddress = _artisteAddress;\r\n        artisteName = _artisteName;\r\n        artisteHandle = _artisteHandle;\r\n        _mint(_artisteAddress, 0);\r\n        PICARDY_HUB = _PICARDY_HUB;\r\n        transferOwnership(artisteAddress);\r\n    }\r\n\r\n    function addProduct(uint _productId, address _productAddress, string memory _description) external {\r\n        require(tx.origin == artisteAddress);\r\n        address[] storage newProduct = productMap[_productId];\r\n        exactProductAddressMap[_productId][_description] = _productAddress;\r\n        newProduct.push(_productAddress);\r\n        products.push(_productAddress);\r\n\r\n        emit NewProductAdded(_productId, _productAddress);\r\n    }\r\n\r\n    function setCreatorFollowBaseUri(string memory _baseUri) external {\r\n        require(msg.sender == artisteAddress);\r\n        ICreatorFollowInterface(creatorFollowAddress).setBaseUri(_baseUri);\r\n    }\r\n\r\n    function follow() external {\r\n        ICreatorFollowInterface(creatorFollowAddress).followCreator(msg.sender);\r\n\r\n        emit Followed(msg.sender);\r\n    }\r\n\r\n    function unfollow() external {\r\n        ICreatorFollowInterface(creatorFollowAddress).unfollowCreator(msg.sender);\r\n\r\n        emit Unfollowed(msg.sender);\r\n    }\r\n\r\n    function getFollowers() external view returns (address[] memory) {\r\n        return ICreatorFollowInterface(creatorFollowAddress).getFollowers();\r\n    }\r\n\r\n    function getFollowCount() external view returns (uint) {\r\n        return ICreatorFollowInterface(creatorFollowAddress).getFollowCount();\r\n    }\r\n\r\n    function setBaseURI(string memory _newBaseURI) external onlyCreator {\r\n    baseURI = _newBaseURI;\r\n    }\r\n\r\n    function getProductsById(uint _productId) external view returns(address[] memory){\r\n        return productMap[_productId];\r\n    }\r\n\r\n    function getAllProducts() external view returns(address[] memory){\r\n        return products;\r\n    }\r\n\r\n    function getProductAddress(uint _productId, string memory _description) external view returns(address){\r\n        return exactProductAddressMap[_productId][_description];\r\n    }\r\n\r\n    function getArtiste() external view returns(address){\r\n        return artisteAddress;\r\n    }\r\n\r\n    function _onlyCreator() internal view {\r\n        require (msg.sender == artisteAddress, \"You dont have permission\");\r\n    }\r\n\r\n    function getFollowAddress() external view returns(address){\r\n        return address(this);\r\n    }\r\n\r\n    function updateFollowAddress(address _creatorFollowAddress) external {\r\n        require(msg.sender == PICARDY_HUB);\r\n        creatorFollowAddress = _creatorFollowAddress;\r\n    }\r\n\r\n    // Internal Functions\r\n    \r\n}\r\n\r\ninterface IPicardyProfile{\r\n    \r\n    function addProduct(uint _productId, address _productAddress, string memory _description) external ;\r\n    \r\n    function getProductsById(uint _productId) external view returns(address[] memory);\r\n\r\n    function getAllProducts() external view returns(address[] memory);\r\n    \r\n    function getFollowAddress() external view returns(address);\r\n    \r\n    function updateFollowAddress(address _creatorFollowAddress) external;\r\n\r\n    function getArtiste() external view returns(address);\r\n\r\n    function follow() external;\r\n\r\n    function unfollow() external;\r\n}\r\n",
  "sourcePath": "C:\\Users\\USER\\Desktop\\Projects\\Picardy_Protocol\\contracts\\Users\\PicardyProfile.sol",
  "compiler": {
    "name": "solc",
    "version": "0.8.11+commit.d7f03943.Emscripten.clang"
  },
  "schemaVersion": "3.4.6",
  "updatedAt": "2022-08-18T20:31:17.566Z",
  "devdoc": {
    "kind": "dev",
    "methods": {
      "approve(address,uint256)": {
        "details": "See {IERC721-approve}."
      },
      "balanceOf(address)": {
        "details": "See {IERC721-balanceOf}."
      },
      "getApproved(uint256)": {
        "details": "See {IERC721-getApproved}."
      },
      "isApprovedForAll(address,address)": {
        "details": "See {IERC721-isApprovedForAll}."
      },
      "name()": {
        "details": "See {IERC721Metadata-name}."
      },
      "owner()": {
        "details": "Returns the address of the current owner."
      },
      "ownerOf(uint256)": {
        "details": "See {IERC721-ownerOf}."
      },
      "renounceOwnership()": {
        "details": "Leaves the contract without owner. It will not be possible to call `onlyOwner` functions anymore. Can only be called by the current owner. NOTE: Renouncing ownership will leave the contract without an owner, thereby removing any functionality that is only available to the owner."
      },
      "safeTransferFrom(address,address,uint256)": {
        "details": "See {IERC721-safeTransferFrom}."
      },
      "safeTransferFrom(address,address,uint256,bytes)": {
        "details": "See {IERC721-safeTransferFrom}."
      },
      "setApprovalForAll(address,bool)": {
        "details": "See {IERC721-setApprovalForAll}."
      },
      "supportsInterface(bytes4)": {
        "details": "See {IERC165-supportsInterface}."
      },
      "symbol()": {
        "details": "See {IERC721Metadata-symbol}."
      },
      "tokenURI(uint256)": {
        "details": "See {IERC721Metadata-tokenURI}."
      },
      "transferFrom(address,address,uint256)": {
        "details": "See {IERC721-transferFrom}."
      },
      "transferOwnership(address)": {
        "details": "Transfers ownership of the contract to a new account (`newOwner`). Can only be called by the current owner."
      }
    },
    "version": 1
  },
  "userdoc": {
    "kind": "user",
    "methods": {},
    "version": 1
  }
}