{
  "contractName": "PicardyGovonor",
  "abi": [
    {
      "inputs": [],
      "stateMutability": "nonpayable",
      "type": "constructor"
    },
    {
      "anonymous": false,
      "inputs": [
        {
          "indexed": false,
          "internalType": "uint256",
          "name": "proposalId",
          "type": "uint256"
        }
      ],
      "name": "ProposalCanceled",
      "type": "event"
    },
    {
      "anonymous": false,
      "inputs": [
        {
          "indexed": false,
          "internalType": "uint256",
          "name": "proposalId",
          "type": "uint256"
        },
        {
          "indexed": false,
          "internalType": "address",
          "name": "proposer",
          "type": "address"
        },
        {
          "indexed": false,
          "internalType": "address[]",
          "name": "targets",
          "type": "address[]"
        },
        {
          "indexed": false,
          "internalType": "uint256[]",
          "name": "values",
          "type": "uint256[]"
        },
        {
          "indexed": false,
          "internalType": "string[]",
          "name": "signatures",
          "type": "string[]"
        },
        {
          "indexed": false,
          "internalType": "bytes[]",
          "name": "calldatas",
          "type": "bytes[]"
        },
        {
          "indexed": false,
          "internalType": "uint256",
          "name": "startBlock",
          "type": "uint256"
        },
        {
          "indexed": false,
          "internalType": "uint256",
          "name": "endBlock",
          "type": "uint256"
        },
        {
          "indexed": false,
          "internalType": "string",
          "name": "description",
          "type": "string"
        }
      ],
      "name": "ProposalCreated",
      "type": "event"
    },
    {
      "anonymous": false,
      "inputs": [
        {
          "indexed": false,
          "internalType": "uint256",
          "name": "proposalId",
          "type": "uint256"
        }
      ],
      "name": "ProposalExecuted",
      "type": "event"
    },
    {
      "anonymous": false,
      "inputs": [
        {
          "indexed": false,
          "internalType": "uint256",
          "name": "proposalId",
          "type": "uint256"
        },
        {
          "indexed": false,
          "internalType": "uint256",
          "name": "eta",
          "type": "uint256"
        }
      ],
      "name": "ProposalQueued",
      "type": "event"
    },
    {
      "anonymous": false,
      "inputs": [
        {
          "indexed": false,
          "internalType": "uint256",
          "name": "oldProposalThreshold",
          "type": "uint256"
        },
        {
          "indexed": false,
          "internalType": "uint256",
          "name": "newProposalThreshold",
          "type": "uint256"
        }
      ],
      "name": "ProposalThresholdSet",
      "type": "event"
    },
    {
      "anonymous": false,
      "inputs": [
        {
          "indexed": false,
          "internalType": "uint256",
          "name": "oldQuorumNumerator",
          "type": "uint256"
        },
        {
          "indexed": false,
          "internalType": "uint256",
          "name": "newQuorumNumerator",
          "type": "uint256"
        }
      ],
      "name": "QuorumNumeratorUpdated",
      "type": "event"
    },
    {
      "anonymous": false,
      "inputs": [
        {
          "indexed": false,
          "internalType": "address",
          "name": "oldTimelock",
          "type": "address"
        },
        {
          "indexed": false,
          "internalType": "address",
          "name": "newTimelock",
          "type": "address"
        }
      ],
      "name": "TimelockChange",
      "type": "event"
    },
    {
      "anonymous": false,
      "inputs": [
        {
          "indexed": true,
          "internalType": "address",
          "name": "voter",
          "type": "address"
        },
        {
          "indexed": false,
          "internalType": "uint256",
          "name": "proposalId",
          "type": "uint256"
        },
        {
          "indexed": false,
          "internalType": "uint8",
          "name": "support",
          "type": "uint8"
        },
        {
          "indexed": false,
          "internalType": "uint256",
          "name": "weight",
          "type": "uint256"
        },
        {
          "indexed": false,
          "internalType": "string",
          "name": "reason",
          "type": "string"
        }
      ],
      "name": "VoteCast",
      "type": "event"
    },
    {
      "anonymous": false,
      "inputs": [
        {
          "indexed": false,
          "internalType": "uint256",
          "name": "oldVotingDelay",
          "type": "uint256"
        },
        {
          "indexed": false,
          "internalType": "uint256",
          "name": "newVotingDelay",
          "type": "uint256"
        }
      ],
      "name": "VotingDelaySet",
      "type": "event"
    },
    {
      "anonymous": false,
      "inputs": [
        {
          "indexed": false,
          "internalType": "uint256",
          "name": "oldVotingPeriod",
          "type": "uint256"
        },
        {
          "indexed": false,
          "internalType": "uint256",
          "name": "newVotingPeriod",
          "type": "uint256"
        }
      ],
      "name": "VotingPeriodSet",
      "type": "event"
    },
    {
      "inputs": [],
      "name": "BALLOT_TYPEHASH",
      "outputs": [
        {
          "internalType": "bytes32",
          "name": "",
          "type": "bytes32"
        }
      ],
      "stateMutability": "view",
      "type": "function"
    },
    {
      "inputs": [],
      "name": "COUNTING_MODE",
      "outputs": [
        {
          "internalType": "string",
          "name": "",
          "type": "string"
        }
      ],
      "stateMutability": "pure",
      "type": "function"
    },
    {
      "inputs": [
        {
          "internalType": "uint256",
          "name": "proposalId",
          "type": "uint256"
        }
      ],
      "name": "cancel",
      "outputs": [],
      "stateMutability": "nonpayable",
      "type": "function"
    },
    {
      "inputs": [
        {
          "internalType": "uint256",
          "name": "proposalId",
          "type": "uint256"
        },
        {
          "internalType": "uint8",
          "name": "support",
          "type": "uint8"
        }
      ],
      "name": "castVote",
      "outputs": [
        {
          "internalType": "uint256",
          "name": "",
          "type": "uint256"
        }
      ],
      "stateMutability": "nonpayable",
      "type": "function"
    },
    {
      "inputs": [
        {
          "internalType": "uint256",
          "name": "proposalId",
          "type": "uint256"
        },
        {
          "internalType": "uint8",
          "name": "support",
          "type": "uint8"
        },
        {
          "internalType": "uint8",
          "name": "v",
          "type": "uint8"
        },
        {
          "internalType": "bytes32",
          "name": "r",
          "type": "bytes32"
        },
        {
          "internalType": "bytes32",
          "name": "s",
          "type": "bytes32"
        }
      ],
      "name": "castVoteBySig",
      "outputs": [
        {
          "internalType": "uint256",
          "name": "",
          "type": "uint256"
        }
      ],
      "stateMutability": "nonpayable",
      "type": "function"
    },
    {
      "inputs": [
        {
          "internalType": "uint256",
          "name": "proposalId",
          "type": "uint256"
        },
        {
          "internalType": "uint8",
          "name": "support",
          "type": "uint8"
        },
        {
          "internalType": "string",
          "name": "reason",
          "type": "string"
        }
      ],
      "name": "castVoteWithReason",
      "outputs": [
        {
          "internalType": "uint256",
          "name": "",
          "type": "uint256"
        }
      ],
      "stateMutability": "nonpayable",
      "type": "function"
    },
    {
      "inputs": [
        {
          "internalType": "address[]",
          "name": "targets",
          "type": "address[]"
        },
        {
          "internalType": "uint256[]",
          "name": "values",
          "type": "uint256[]"
        },
        {
          "internalType": "bytes[]",
          "name": "calldatas",
          "type": "bytes[]"
        },
        {
          "internalType": "bytes32",
          "name": "descriptionHash",
          "type": "bytes32"
        }
      ],
      "name": "execute",
      "outputs": [
        {
          "internalType": "uint256",
          "name": "",
          "type": "uint256"
        }
      ],
      "stateMutability": "payable",
      "type": "function"
    },
    {
      "inputs": [
        {
          "internalType": "uint256",
          "name": "proposalId",
          "type": "uint256"
        }
      ],
      "name": "execute",
      "outputs": [],
      "stateMutability": "payable",
      "type": "function"
    },
    {
      "inputs": [
        {
          "internalType": "uint256",
          "name": "proposalId",
          "type": "uint256"
        }
      ],
      "name": "getActions",
      "outputs": [
        {
          "internalType": "address[]",
          "name": "targets",
          "type": "address[]"
        },
        {
          "internalType": "uint256[]",
          "name": "values",
          "type": "uint256[]"
        },
        {
          "internalType": "string[]",
          "name": "signatures",
          "type": "string[]"
        },
        {
          "internalType": "bytes[]",
          "name": "calldatas",
          "type": "bytes[]"
        }
      ],
      "stateMutability": "view",
      "type": "function"
    },
    {
      "inputs": [
        {
          "internalType": "uint256",
          "name": "proposalId",
          "type": "uint256"
        },
        {
          "internalType": "address",
          "name": "voter",
          "type": "address"
        }
      ],
      "name": "getReceipt",
      "outputs": [
        {
          "components": [
            {
              "internalType": "bool",
              "name": "hasVoted",
              "type": "bool"
            },
            {
              "internalType": "uint8",
              "name": "support",
              "type": "uint8"
            },
            {
              "internalType": "uint96",
              "name": "votes",
              "type": "uint96"
            }
          ],
          "internalType": "struct IGovernorCompatibilityBravoUpgradeable.Receipt",
          "name": "",
          "type": "tuple"
        }
      ],
      "stateMutability": "view",
      "type": "function"
    },
    {
      "inputs": [
        {
          "internalType": "uint256",
          "name": "proposalId",
          "type": "uint256"
        },
        {
          "internalType": "address",
          "name": "account",
          "type": "address"
        }
      ],
      "name": "hasVoted",
      "outputs": [
        {
          "internalType": "bool",
          "name": "",
          "type": "bool"
        }
      ],
      "stateMutability": "view",
      "type": "function"
    },
    {
      "inputs": [
        {
          "internalType": "address[]",
          "name": "targets",
          "type": "address[]"
        },
        {
          "internalType": "uint256[]",
          "name": "values",
          "type": "uint256[]"
        },
        {
          "internalType": "bytes[]",
          "name": "calldatas",
          "type": "bytes[]"
        },
        {
          "internalType": "bytes32",
          "name": "descriptionHash",
          "type": "bytes32"
        }
      ],
      "name": "hashProposal",
      "outputs": [
        {
          "internalType": "uint256",
          "name": "",
          "type": "uint256"
        }
      ],
      "stateMutability": "pure",
      "type": "function"
    },
    {
      "inputs": [],
      "name": "name",
      "outputs": [
        {
          "internalType": "string",
          "name": "",
          "type": "string"
        }
      ],
      "stateMutability": "view",
      "type": "function"
    },
    {
      "inputs": [
        {
          "internalType": "uint256",
          "name": "proposalId",
          "type": "uint256"
        }
      ],
      "name": "proposalDeadline",
      "outputs": [
        {
          "internalType": "uint256",
          "name": "",
          "type": "uint256"
        }
      ],
      "stateMutability": "view",
      "type": "function"
    },
    {
      "inputs": [
        {
          "internalType": "uint256",
          "name": "proposalId",
          "type": "uint256"
        }
      ],
      "name": "proposalEta",
      "outputs": [
        {
          "internalType": "uint256",
          "name": "",
          "type": "uint256"
        }
      ],
      "stateMutability": "view",
      "type": "function"
    },
    {
      "inputs": [
        {
          "internalType": "uint256",
          "name": "proposalId",
          "type": "uint256"
        }
      ],
      "name": "proposalSnapshot",
      "outputs": [
        {
          "internalType": "uint256",
          "name": "",
          "type": "uint256"
        }
      ],
      "stateMutability": "view",
      "type": "function"
    },
    {
      "inputs": [
        {
          "internalType": "uint256",
          "name": "proposalId",
          "type": "uint256"
        }
      ],
      "name": "proposals",
      "outputs": [
        {
          "internalType": "uint256",
          "name": "id",
          "type": "uint256"
        },
        {
          "internalType": "address",
          "name": "proposer",
          "type": "address"
        },
        {
          "internalType": "uint256",
          "name": "eta",
          "type": "uint256"
        },
        {
          "internalType": "uint256",
          "name": "startBlock",
          "type": "uint256"
        },
        {
          "internalType": "uint256",
          "name": "endBlock",
          "type": "uint256"
        },
        {
          "internalType": "uint256",
          "name": "forVotes",
          "type": "uint256"
        },
        {
          "internalType": "uint256",
          "name": "againstVotes",
          "type": "uint256"
        },
        {
          "internalType": "uint256",
          "name": "abstainVotes",
          "type": "uint256"
        },
        {
          "internalType": "bool",
          "name": "canceled",
          "type": "bool"
        },
        {
          "internalType": "bool",
          "name": "executed",
          "type": "bool"
        }
      ],
      "stateMutability": "view",
      "type": "function"
    },
    {
      "inputs": [
        {
          "internalType": "address[]",
          "name": "targets",
          "type": "address[]"
        },
        {
          "internalType": "uint256[]",
          "name": "values",
          "type": "uint256[]"
        },
        {
          "internalType": "bytes[]",
          "name": "calldatas",
          "type": "bytes[]"
        },
        {
          "internalType": "bytes32",
          "name": "descriptionHash",
          "type": "bytes32"
        }
      ],
      "name": "queue",
      "outputs": [
        {
          "internalType": "uint256",
          "name": "",
          "type": "uint256"
        }
      ],
      "stateMutability": "nonpayable",
      "type": "function"
    },
    {
      "inputs": [
        {
          "internalType": "uint256",
          "name": "proposalId",
          "type": "uint256"
        }
      ],
      "name": "queue",
      "outputs": [],
      "stateMutability": "nonpayable",
      "type": "function"
    },
    {
      "inputs": [],
      "name": "quorumDenominator",
      "outputs": [
        {
          "internalType": "uint256",
          "name": "",
          "type": "uint256"
        }
      ],
      "stateMutability": "view",
      "type": "function"
    },
    {
      "inputs": [],
      "name": "quorumNumerator",
      "outputs": [
        {
          "internalType": "uint256",
          "name": "",
          "type": "uint256"
        }
      ],
      "stateMutability": "view",
      "type": "function"
    },
    {
      "inputs": [],
      "name": "quorumVotes",
      "outputs": [
        {
          "internalType": "uint256",
          "name": "",
          "type": "uint256"
        }
      ],
      "stateMutability": "view",
      "type": "function"
    },
    {
      "inputs": [
        {
          "internalType": "address",
          "name": "target",
          "type": "address"
        },
        {
          "internalType": "uint256",
          "name": "value",
          "type": "uint256"
        },
        {
          "internalType": "bytes",
          "name": "data",
          "type": "bytes"
        }
      ],
      "name": "relay",
      "outputs": [],
      "stateMutability": "nonpayable",
      "type": "function"
    },
    {
      "inputs": [
        {
          "internalType": "uint256",
          "name": "newProposalThreshold",
          "type": "uint256"
        }
      ],
      "name": "setProposalThreshold",
      "outputs": [],
      "stateMutability": "nonpayable",
      "type": "function"
    },
    {
      "inputs": [
        {
          "internalType": "uint256",
          "name": "newVotingDelay",
          "type": "uint256"
        }
      ],
      "name": "setVotingDelay",
      "outputs": [],
      "stateMutability": "nonpayable",
      "type": "function"
    },
    {
      "inputs": [
        {
          "internalType": "uint256",
          "name": "newVotingPeriod",
          "type": "uint256"
        }
      ],
      "name": "setVotingPeriod",
      "outputs": [],
      "stateMutability": "nonpayable",
      "type": "function"
    },
    {
      "inputs": [],
      "name": "timelock",
      "outputs": [
        {
          "internalType": "address",
          "name": "",
          "type": "address"
        }
      ],
      "stateMutability": "view",
      "type": "function"
    },
    {
      "inputs": [],
      "name": "token",
      "outputs": [
        {
          "internalType": "contract IVotesUpgradeable",
          "name": "",
          "type": "address"
        }
      ],
      "stateMutability": "view",
      "type": "function"
    },
    {
      "inputs": [
        {
          "internalType": "uint256",
          "name": "newQuorumNumerator",
          "type": "uint256"
        }
      ],
      "name": "updateQuorumNumerator",
      "outputs": [],
      "stateMutability": "nonpayable",
      "type": "function"
    },
    {
      "inputs": [
        {
          "internalType": "contract TimelockControllerUpgradeable",
          "name": "newTimelock",
          "type": "address"
        }
      ],
      "name": "updateTimelock",
      "outputs": [],
      "stateMutability": "nonpayable",
      "type": "function"
    },
    {
      "inputs": [],
      "name": "version",
      "outputs": [
        {
          "internalType": "string",
          "name": "",
          "type": "string"
        }
      ],
      "stateMutability": "view",
      "type": "function"
    },
    {
      "stateMutability": "payable",
      "type": "receive"
    },
    {
      "inputs": [
        {
          "internalType": "contract IVotesUpgradeable",
          "name": "_token",
          "type": "address"
        },
        {
          "internalType": "contract TimelockControllerUpgradeable",
          "name": "_timelock",
          "type": "address"
        }
      ],
      "name": "initialize",
      "outputs": [],
      "stateMutability": "nonpayable",
      "type": "function"
    },
    {
      "inputs": [],
      "name": "votingDelay",
      "outputs": [
        {
          "internalType": "uint256",
          "name": "",
          "type": "uint256"
        }
      ],
      "stateMutability": "view",
      "type": "function"
    },
    {
      "inputs": [],
      "name": "votingPeriod",
      "outputs": [
        {
          "internalType": "uint256",
          "name": "",
          "type": "uint256"
        }
      ],
      "stateMutability": "view",
      "type": "function"
    },
    {
      "inputs": [
        {
          "internalType": "uint256",
          "name": "blockNumber",
          "type": "uint256"
        }
      ],
      "name": "quorum",
      "outputs": [
        {
          "internalType": "uint256",
          "name": "",
          "type": "uint256"
        }
      ],
      "stateMutability": "view",
      "type": "function"
    },
    {
      "inputs": [
        {
          "internalType": "address",
          "name": "account",
          "type": "address"
        },
        {
          "internalType": "uint256",
          "name": "blockNumber",
          "type": "uint256"
        }
      ],
      "name": "getVotes",
      "outputs": [
        {
          "internalType": "uint256",
          "name": "",
          "type": "uint256"
        }
      ],
      "stateMutability": "view",
      "type": "function"
    },
    {
      "inputs": [
        {
          "internalType": "uint256",
          "name": "proposalId",
          "type": "uint256"
        }
      ],
      "name": "state",
      "outputs": [
        {
          "internalType": "enum IGovernorUpgradeable.ProposalState",
          "name": "",
          "type": "uint8"
        }
      ],
      "stateMutability": "view",
      "type": "function"
    },
    {
      "inputs": [
        {
          "internalType": "address[]",
          "name": "targets",
          "type": "address[]"
        },
        {
          "internalType": "uint256[]",
          "name": "values",
          "type": "uint256[]"
        },
        {
          "internalType": "bytes[]",
          "name": "calldatas",
          "type": "bytes[]"
        },
        {
          "internalType": "string",
          "name": "description",
          "type": "string"
        }
      ],
      "name": "propose",
      "outputs": [
        {
          "internalType": "uint256",
          "name": "",
          "type": "uint256"
        }
      ],
      "stateMutability": "nonpayable",
      "type": "function"
    },
    {
      "inputs": [
        {
          "internalType": "address[]",
          "name": "targets",
          "type": "address[]"
        },
        {
          "internalType": "uint256[]",
          "name": "values",
          "type": "uint256[]"
        },
        {
          "internalType": "string[]",
          "name": "signatures",
          "type": "string[]"
        },
        {
          "internalType": "bytes[]",
          "name": "calldatas",
          "type": "bytes[]"
        },
        {
          "internalType": "string",
          "name": "description",
          "type": "string"
        }
      ],
      "name": "propose",
      "outputs": [
        {
          "internalType": "uint256",
          "name": "",
          "type": "uint256"
        }
      ],
      "stateMutability": "nonpayable",
      "type": "function"
    },
    {
      "inputs": [],
      "name": "proposalThreshold",
      "outputs": [
        {
          "internalType": "uint256",
          "name": "",
          "type": "uint256"
        }
      ],
      "stateMutability": "view",
      "type": "function"
    },
    {
      "inputs": [
        {
          "internalType": "bytes4",
          "name": "interfaceId",
          "type": "bytes4"
        }
      ],
      "name": "supportsInterface",
      "outputs": [
        {
          "internalType": "bool",
          "name": "",
          "type": "bool"
        }
      ],
      "stateMutability": "view",
      "type": "function"
    }
  ],
  "bytecode": "0x60806040523480156200001157600080fd5b50600060019054906101000a900460ff166200003c5760008054906101000a900460ff16156200004d565b6200004c6200010960201b60201c565b5b6200008f576040517f08c379a00000000000000000000000000000000000000000000000000000000081526004016200008690620001d1565b60405180910390fd5b60008060019054906101000a900460ff161590508015620000e0576001600060016101000a81548160ff02191690831515021790555060016000806101000a81548160ff0219169083151502179055505b8015620001025760008060016101000a81548160ff0219169083151502179055505b50620001f3565b600062000121306200012760201b620026a11760201c565b15905090565b6000808273ffffffffffffffffffffffffffffffffffffffff163b119050919050565b600082825260208201905092915050565b7f496e697469616c697a61626c653a20636f6e747261637420697320616c72656160008201527f647920696e697469616c697a6564000000000000000000000000000000000000602082015250565b6000620001b9602e836200014a565b9150620001c6826200015b565b604082019050919050565b60006020820190508181036000830152620001ec81620001aa565b9050919050565b61764480620002036000396000f3fe6080604052600436106101da5760003560e01c8063013cf08b1461022557806301ffc9a71461026b57806302a251a3146102a857806306f3f9e6146102d357806306fdde03146102fc578063160cbed71461032757806324bc1a64146103645780632656227d1461038f5780632d63f693146103bf578063328dd982146103fc5780633932abb11461043c5780633bccf4fd146104675780633e4f49e6146104a457806340e58ee5146104e1578063438596321461050a578063485cc9551461054757806354fd4d5014610570578063567813881461059b57806370b0f660146105d85780637b3c71d3146106015780637d5e81e21461063e57806397c3d3341461067b578063a7713a70146106a6578063a890c910146106d1578063ab58fb8e146106fa578063b58131b014610737578063c01f9e3714610762578063c28bc2fa1461079f578063c59057e4146107c8578063d33219b414610805578063da95691a14610830578063dd4e2ba51461086d578063ddf0b00914610898578063deaaa7cc146108c1578063e23a9a52146108ec578063ea0217cf14610929578063eb9019d414610952578063ece40cc11461098f578063f8ce560a146109b8578063fc0c546a146109f5578063fe0d94c114610a2057610220565b36610220573073ffffffffffffffffffffffffffffffffffffffff166101fe610a3c565b73ffffffffffffffffffffffffffffffffffffffff161461021e57600080fd5b005b600080fd5b34801561023157600080fd5b5061024c60048036038101906102479190614b64565b610a4b565b6040516102629a99989796959493929190614bfc565b60405180910390f35b34801561027757600080fd5b50610292600480360381019061028d9190614cf0565b610b41565b60405161029f9190614d1d565b60405180910390f35b3480156102b457600080fd5b506102bd610b53565b6040516102ca9190614d38565b60405180910390f35b3480156102df57600080fd5b506102fa60048036038101906102f59190614b64565b610b62565b005b34801561030857600080fd5b50610311610bea565b60405161031e9190614dec565b60405180910390f35b34801561033357600080fd5b5061034e60048036038101906103499190615211565b610c7d565b60405161035b9190614d38565b60405180910390f35b34801561037057600080fd5b50610379610f3b565b6040516103869190614d38565b60405180910390f35b6103a960048036038101906103a49190615211565b610f57565b6040516103b69190614d38565b60405180910390f35b3480156103cb57600080fd5b506103e660048036038101906103e19190614b64565b61108c565b6040516103f39190614d38565b60405180910390f35b34801561040857600080fd5b50610423600480360381019061041e9190614b64565b6110fb565b604051610433949392919061566b565b60405180910390f35b34801561044857600080fd5b506104516113b9565b60405161045e9190614d38565b60405180910390f35b34801561047357600080fd5b5061048e60048036038101906104899190615705565b6113c8565b60405161049b9190614d38565b60405180910390f35b3480156104b057600080fd5b506104cb60048036038101906104c69190614b64565b611452565b6040516104d891906157f7565b60405180910390f35b3480156104ed57600080fd5b5061050860048036038101906105039190614b64565b611464565b005b34801561051657600080fd5b50610531600480360381019061052c9190615812565b6117fd565b60405161053e9190614d1d565b60405180910390f35b34801561055357600080fd5b5061056e600480360381019061056991906158e0565b61186c565b005b34801561057c57600080fd5b506105856119c3565b6040516105929190614dec565b60405180910390f35b3480156105a757600080fd5b506105c260048036038101906105bd9190615920565b611a00565b6040516105cf9190614d38565b60405180910390f35b3480156105e457600080fd5b506105ff60048036038101906105fa9190614b64565b611a31565b005b34801561060d57600080fd5b50610628600480360381019061062391906159bb565b611ab9565b6040516106359190614d38565b60405180910390f35b34801561064a57600080fd5b5061066560048036038101906106609190615ad0565b611b21565b6040516106729190614d38565b60405180910390f35b34801561068757600080fd5b50610690611b39565b60405161069d9190614d38565b60405180910390f35b3480156106b257600080fd5b506106bb611b42565b6040516106c89190614d38565b60405180910390f35b3480156106dd57600080fd5b506106f860048036038101906106f39190615ba7565b611b4d565b005b34801561070657600080fd5b50610721600480360381019061071c9190614b64565b611bd5565b60405161072e9190614d38565b60405180910390f35b34801561074357600080fd5b5061074c611ca4565b6040516107599190614d38565b60405180910390f35b34801561076e57600080fd5b5061078960048036038101906107849190614b64565b611cb3565b6040516107969190614d38565b60405180910390f35b3480156107ab57600080fd5b506107c660048036038101906107c19190615c2a565b611d22565b005b3480156107d457600080fd5b506107ef60048036038101906107ea9190615211565b611df4565b6040516107fc9190614d38565b60405180910390f35b34801561081157600080fd5b5061081a611e30565b6040516108279190615c9e565b60405180910390f35b34801561083c57600080fd5b5061085760048036038101906108529190615d9a565b611e5b565b6040516108649190614d38565b60405180910390f35b34801561087957600080fd5b50610882611e92565b60405161088f9190614dec565b60405180910390f35b3480156108a457600080fd5b506108bf60048036038101906108ba9190614b64565b611ecf565b005b3480156108cd57600080fd5b506108d6612185565b6040516108e39190615eb0565b60405180910390f35b3480156108f857600080fd5b50610913600480360381019061090e9190615812565b6121a9565b6040516109209190615f52565b60405180910390f35b34801561093557600080fd5b50610950600480360381019061094b9190614b64565b61228e565b005b34801561095e57600080fd5b5061097960048036038101906109749190615f6d565b612316565b6040516109869190614d38565b60405180910390f35b34801561099b57600080fd5b506109b660048036038101906109b19190614b64565b61232a565b005b3480156109c457600080fd5b506109df60048036038101906109da9190614b64565b6123b2565b6040516109ec9190614d38565b60405180910390f35b348015610a0157600080fd5b50610a0a6123c4565b604051610a17919061600c565b60405180910390f35b610a3a6004803603810190610a359190614b64565b6123eb565b005b6000610a466126c4565b905090565b6000806000806000806000806000808a9950610a668b611bd5565b9750610a718b61108c565b9650610a7c8b611cb3565b9550600061019360008d815260200190815260200160002090508060000160009054906101000a900473ffffffffffffffffffffffffffffffffffffffff1699508060050154955080600601549450806007015493506000610add8d611452565b905060026007811115610af357610af2615780565b5b816007811115610b0657610b05615780565b5b149350600780811115610b1c57610b1b615780565b5b816007811115610b2f57610b2e615780565b5b14925050509193959799509193959799565b6000610b4c826126ef565b9050919050565b6000610b5d612769565b905090565b610b6a610a3c565b73ffffffffffffffffffffffffffffffffffffffff16610b88612774565b73ffffffffffffffffffffffffffffffffffffffff1614610bde576040517f08c379a0000000000000000000000000000000000000000000000000000000008152600401610bd590616073565b60405180910390fd5b610be78161277c565b50565b606061012f8054610bfa906160c2565b80601f0160208091040260200160405190810160405280929190818152602001828054610c26906160c2565b8015610c735780601f10610c4857610100808354040283529160200191610c73565b820191906000526020600020905b815481529060010190602001808311610c5657829003601f168201915b5050505050905090565b600080610c8c86868686611df4565b905060046007811115610ca257610ca1615780565b5b610cab82611452565b6007811115610cbd57610cbc615780565b5b14610cfd576040517f08c379a0000000000000000000000000000000000000000000000000000000008152600401610cf490616166565b60405180910390fd5b600061022a60009054906101000a900473ffffffffffffffffffffffffffffffffffffffff1673ffffffffffffffffffffffffffffffffffffffff1663f27a0c926040518163ffffffff1660e01b8152600401602060405180830381865afa158015610d6d573d6000803e3d6000fd5b505050506040513d601f19601f82011682018060405250810190610d91919061619b565b905061022a60009054906101000a900473ffffffffffffffffffffffffffffffffffffffff1673ffffffffffffffffffffffffffffffffffffffff1663b1c5f4278888886000896040518663ffffffff1660e01b8152600401610df8959493929190616210565b602060405180830381865afa158015610e15573d6000803e3d6000fd5b505050506040513d601f19601f82011682018060405250810190610e39919061628d565b61022b60008481526020019081526020016000208190555061022a60009054906101000a900473ffffffffffffffffffffffffffffffffffffffff1673ffffffffffffffffffffffffffffffffffffffff16638f2a0bb0888888600089876040518763ffffffff1660e01b8152600401610eb8969594939291906162ba565b600060405180830381600087803b158015610ed257600080fd5b505af1158015610ee6573d6000803e3d6000fd5b505050507f9a2e42fd6722813d69113e7d0079d3d940171428df7373df9c7f7617cfda2892828242610f18919061635f565b604051610f269291906163b5565b60405180910390a18192505050949350505050565b6000610f52600143610f4d91906163de565b6123b2565b905090565b600080610f6686868686611df4565b90506000610f7382611452565b905060046007811115610f8957610f88615780565b5b816007811115610f9c57610f9b615780565b5b1480610fcc575060056007811115610fb757610fb6615780565b5b816007811115610fca57610fc9615780565b5b145b61100b576040517f08c379a000000000000000000000000000000000000000000000000000000000815260040161100290616166565b60405180910390fd5b6001610130600084815260200190815260200160002060020160006101000a81548160ff0219169083151502179055507f712ae1383f79ac853f8d882153778e0260ef8f03b504e2866e0593e04d2b291f8260405161106a9190614d38565b60405180910390a161107f8288888888612813565b8192505050949350505050565b60006110ea61013060008481526020019081526020016000206000016040518060200160405290816000820160009054906101000a900467ffffffffffffffff1667ffffffffffffffff1667ffffffffffffffff1681525050612827565b67ffffffffffffffff169050919050565b60608060608060006101936000878152602001908152602001600020905080600101816002018260030183600401838054806020026020016040519081016040528092919081815260200182805480156111aa57602002820191906000526020600020905b8160009054906101000a900473ffffffffffffffffffffffffffffffffffffffff1673ffffffffffffffffffffffffffffffffffffffff1681526020019060010190808311611160575b50505050509350828054806020026020016040519081016040528092919081815260200182805480156111fc57602002820191906000526020600020905b8154815260200190600101908083116111e8575b5050505050925081805480602002602001604051908101604052809291908181526020016000905b828210156112d0578382906000526020600020018054611243906160c2565b80601f016020809104026020016040519081016040528092919081815260200182805461126f906160c2565b80156112bc5780601f10611291576101008083540402835291602001916112bc565b820191906000526020600020905b81548152906001019060200180831161129f57829003601f168201915b505050505081526020019060010190611224565b50505050915080805480602002602001604051908101604052809291908181526020016000905b828210156113a3578382906000526020600020018054611316906160c2565b80601f0160208091040260200160405190810160405280929190818152602001828054611342906160c2565b801561138f5780601f106113645761010080835404028352916020019161138f565b820191906000526020600020905b81548152906001019060200180831161137257829003601f168201915b5050505050815260200190600101906112f7565b5050505090509450945094509450509193509193565b60006113c3612835565b905090565b6000806114296114217f150214d74d59b7d1e90c73fc22ef3d991dd0a76b046543d4d80ab92d2a50328f898960405160200161140693929190616421565b60405160208183030381529060405280519060200120612840565b86868661285a565b905061144687828860405180602001604052806000815250612885565b91505095945050505050565b600061145d826129da565b9050919050565b6000610193600083815260200190815260200160002090508060000160009054906101000a900473ffffffffffffffffffffffffffffffffffffffff1673ffffffffffffffffffffffffffffffffffffffff166114bf612774565b73ffffffffffffffffffffffffffffffffffffffff16148061152057506114e4611ca4565b61151e8260000160009054906101000a900473ffffffffffffffffffffffffffffffffffffffff1660014361151991906163de565b612316565b105b61155f576040517f08c379a0000000000000000000000000000000000000000000000000000000008152600401611556906164ca565b60405180910390fd5b6117f8816001018054806020026020016040519081016040528092919081815260200182805480156115e657602002820191906000526020600020905b8160009054906101000a900473ffffffffffffffffffffffffffffffffffffffff1673ffffffffffffffffffffffffffffffffffffffff168152602001906001019080831161159c575b50505050508260020180548060200260200160405190810160405280929190818152602001828054801561163957602002820191906000526020600020905b815481526020019060010190808311611625575b50505050506117ee84600301805480602002602001604051908101604052809291908181526020016000905b82821015611711578382906000526020600020018054611684906160c2565b80601f01602080910402602001604051908101604052809291908181526020018280546116b0906160c2565b80156116fd5780601f106116d2576101008083540402835291602001916116fd565b820191906000526020600020905b8154815290600101906020018083116116e057829003601f168201915b505050505081526020019060010190611665565b5050505085600401805480602002602001604051908101604052809291908181526020016000905b828210156117e5578382906000526020600020018054611758906160c2565b80601f0160208091040260200160405190810160405280929190818152602001828054611784906160c2565b80156117d15780601f106117a6576101008083540402835291602001916117d1565b820191906000526020600020905b8154815290600101906020018083116117b457829003601f168201915b505050505081526020019060010190611739565b50505050612bb1565b8460090154612ced565b505050565b6000610193600084815260200190815260200160002060080160008373ffffffffffffffffffffffffffffffffffffffff1673ffffffffffffffffffffffffffffffffffffffff16815260200190815260200160002060000160009054906101000a900460ff16905092915050565b600060019054906101000a900460ff166118945760008054906101000a900460ff161561189d565b61189c612d05565b5b6118dc576040517f08c379a00000000000000000000000000000000000000000000000000000000081526004016118d39061655c565b60405180910390fd5b60008060019054906101000a900460ff16159050801561192c576001600060016101000a81548160ff02191690831515021790555060016000806101000a81548160ff0219169083151502179055505b61196a6040518060400160405280600e81526020017f50696361726479476f766f6e6f72000000000000000000000000000000000000815250612d16565b611979600161b2fa6000612d82565b611981612de1565b61198a83612e32565b6119946014612e8d565b61199d82612ee8565b80156119be5760008060016101000a81548160ff0219169083151502179055505b505050565b60606040518060400160405280600181526020017f3100000000000000000000000000000000000000000000000000000000000000815250905090565b600080611a0b612774565b9050611a2884828560405180602001604052806000815250612885565b91505092915050565b611a39610a3c565b73ffffffffffffffffffffffffffffffffffffffff16611a57612774565b73ffffffffffffffffffffffffffffffffffffffff1614611aad576040517f08c379a0000000000000000000000000000000000000000000000000000000008152600401611aa490616073565b60405180910390fd5b611ab681612f43565b50565b600080611ac4612774565b9050611b1686828787878080601f016020809104026020016040519081016040528093929190818152602001838380828437600081840152601f19601f82011690508083019250505050505050612885565b915050949350505050565b6000611b2f85858585612f8a565b9050949350505050565b60006064905090565b60006101f854905090565b611b55610a3c565b73ffffffffffffffffffffffffffffffffffffffff16611b73612774565b73ffffffffffffffffffffffffffffffffffffffff1614611bc9576040517f08c379a0000000000000000000000000000000000000000000000000000000008152600401611bc090616073565b60405180910390fd5b611bd281613005565b50565b60008061022a60009054906101000a900473ffffffffffffffffffffffffffffffffffffffff1673ffffffffffffffffffffffffffffffffffffffff1663d45c443561022b6000868152602001908152602001600020546040518263ffffffff1660e01b8152600401611c489190615eb0565b602060405180830381865afa158015611c65573d6000803e3d6000fd5b505050506040513d601f19601f82011682018060405250810190611c89919061619b565b905060018114611c995780611c9c565b60005b915050919050565b6000611cae6130a6565b905090565b6000611d1161013060008481526020019081526020016000206001016040518060200160405290816000820160009054906101000a900467ffffffffffffffff1667ffffffffffffffff1667ffffffffffffffff1681525050612827565b67ffffffffffffffff169050919050565b611d2a610a3c565b73ffffffffffffffffffffffffffffffffffffffff16611d48612774565b73ffffffffffffffffffffffffffffffffffffffff1614611d9e576040517f08c379a0000000000000000000000000000000000000000000000000000000008152600401611d9590616073565b60405180910390fd5b611ded8483838080601f016020809104026020016040519081016040528093929190818152602001838380828437600081840152601f19601f82011690508083019250505050505050856130b1565b5050505050565b600084848484604051602001611e0d949392919061657c565b6040516020818303038152906040528051906020012060001c9050949350505050565b600061022a60009054906101000a900473ffffffffffffffffffffffffffffffffffffffff16905090565b6000611e72611e68612774565b87878787876130e0565b611e878686611e818787612bb1565b85611b21565b905095945050505050565b60606040518060400160405280601a81526020017f737570706f72743d627261766f2671756f72756d3d627261766f000000000000815250905090565b60006101936000838152602001908152602001600020905061218081600101805480602002602001604051908101604052809291908181526020018280548015611f6e57602002820191906000526020600020905b8160009054906101000a900473ffffffffffffffffffffffffffffffffffffffff1673ffffffffffffffffffffffffffffffffffffffff1681526020019060010190808311611f24575b505050505082600201805480602002602001604051908101604052809291908181526020018280548015611fc157602002820191906000526020600020905b815481526020019060010190808311611fad575b505050505061217684600301805480602002602001604051908101604052809291908181526020016000905b8282101561209957838290600052602060002001805461200c906160c2565b80601f0160208091040260200160405190810160405280929190818152602001828054612038906160c2565b80156120855780601f1061205a57610100808354040283529160200191612085565b820191906000526020600020905b81548152906001019060200180831161206857829003601f168201915b505050505081526020019060010190611fed565b5050505085600401805480602002602001604051908101604052809291908181526020016000905b8282101561216d5783829060005260206000200180546120e0906160c2565b80601f016020809104026020016040519081016040528092919081815260200182805461210c906160c2565b80156121595780601f1061212e57610100808354040283529160200191612159565b820191906000526020600020905b81548152906001019060200180831161213c57829003601f168201915b5050505050815260200190600101906120c1565b50505050612bb1565b8460090154610c7d565b505050565b7f150214d74d59b7d1e90c73fc22ef3d991dd0a76b046543d4d80ab92d2a50328f81565b6121b161475e565b610193600084815260200190815260200160002060080160008373ffffffffffffffffffffffffffffffffffffffff1673ffffffffffffffffffffffffffffffffffffffff1681526020019081526020016000206040518060600160405290816000820160009054906101000a900460ff161515151581526020016000820160019054906101000a900460ff1660ff1660ff1681526020016000820160029054906101000a90046bffffffffffffffffffffffff166bffffffffffffffffffffffff166bffffffffffffffffffffffff1681525050905092915050565b612296610a3c565b73ffffffffffffffffffffffffffffffffffffffff166122b4612774565b73ffffffffffffffffffffffffffffffffffffffff161461230a576040517f08c379a000000000000000000000000000000000000000000000000000000000815260040161230190616073565b60405180910390fd5b612313816131e8565b50565b60006123228383613272565b905092915050565b612332610a3c565b73ffffffffffffffffffffffffffffffffffffffff16612350612774565b73ffffffffffffffffffffffffffffffffffffffff16146123a6576040517f08c379a000000000000000000000000000000000000000000000000000000000815260040161239d90616073565b60405180910390fd5b6123af8161331b565b50565b60006123bd82613362565b9050919050565b6101c560009054906101000a900473ffffffffffffffffffffffffffffffffffffffff1681565b60006101936000838152602001908152602001600020905061269c8160010180548060200260200160405190810160405280929190818152602001828054801561248a57602002820191906000526020600020905b8160009054906101000a900473ffffffffffffffffffffffffffffffffffffffff1673ffffffffffffffffffffffffffffffffffffffff1681526020019060010190808311612440575b5050505050826002018054806020026020016040519081016040528092919081815260200182805480156124dd57602002820191906000526020600020905b8154815260200190600101908083116124c9575b505050505061269284600301805480602002602001604051908101604052809291908181526020016000905b828210156125b5578382906000526020600020018054612528906160c2565b80601f0160208091040260200160405190810160405280929190818152602001828054612554906160c2565b80156125a15780601f10612576576101008083540402835291602001916125a1565b820191906000526020600020905b81548152906001019060200180831161258457829003601f168201915b505050505081526020019060010190612509565b5050505085600401805480602002602001604051908101604052809291908181526020016000905b828210156126895783829060005260206000200180546125fc906160c2565b80601f0160208091040260200160405190810160405280929190818152602001828054612628906160c2565b80156126755780601f1061264a57610100808354040283529160200191612675565b820191906000526020600020905b81548152906001019060200180831161265857829003601f168201915b5050505050815260200190600101906125dd565b50505050612bb1565b8460090154610f57565b505050565b6000808273ffffffffffffffffffffffffffffffffffffffff163b119050919050565b600061022a60009054906101000a900473ffffffffffffffffffffffffffffffffffffffff16905090565b60007f6e665ced000000000000000000000000000000000000000000000000000000007bffffffffffffffffffffffffffffffffffffffffffffffffffffffff1916827bffffffffffffffffffffffffffffffffffffffffffffffffffffffff1916148061276257506127618261342c565b5b9050919050565b600061016254905090565b600033905090565b612784611b39565b8111156127c6576040517f08c379a00000000000000000000000000000000000000000000000000000000081526004016127bd9061666e565b60405180910390fd5b60006101f8549050816101f8819055507f0553476bf02ef2726e8ce5ced78d63e26e602e4a2257b1f559418e24b463399781836040516128079291906163b5565b60405180910390a15050565b61282085858585856134a6565b5050505050565b600081600001519050919050565b600061016154905090565b600061285361284d613545565b83613585565b9050919050565b600080600061286b878787876135b8565b91509150612878816136c5565b8192505050949350505050565b60008061013060008781526020019081526020016000209050600160078111156128b2576128b1615780565b5b6128bb87611452565b60078111156128cd576128cc615780565b5b1461290d576040517f08c379a000000000000000000000000000000000000000000000000000000000815260040161290490616700565b60405180910390fd5b600061296b8661295c846000016040518060200160405290816000820160009054906101000a900467ffffffffffffffff1667ffffffffffffffff1667ffffffffffffffff1681525050612827565b67ffffffffffffffff16612316565b90506129798787878461389a565b8573ffffffffffffffffffffffffffffffffffffffff167fb8e138887d0aa13bab447e82de9d5c1777041ecd21ca36ba824ff1e6c07ddda4888784886040516129c59493929190616720565b60405180910390a28092505050949350505050565b6000806129e683613ac5565b9050600460078111156129fc576129fb615780565b5b816007811115612a0f57612a0e615780565b5b14612a1d5780915050612bac565b600061022b60008581526020019081526020016000205490506000801b811415612a4b578192505050612bac565b61022a60009054906101000a900473ffffffffffffffffffffffffffffffffffffffff1673ffffffffffffffffffffffffffffffffffffffff16632ab0f529826040518263ffffffff1660e01b8152600401612aa79190615eb0565b602060405180830381865afa158015612ac4573d6000803e3d6000fd5b505050506040513d601f19601f82011682018060405250810190612ae89190616798565b15612af857600792505050612bac565b61022a60009054906101000a900473ffffffffffffffffffffffffffffffffffffffff1673ffffffffffffffffffffffffffffffffffffffff1663584b153e826040518263ffffffff1660e01b8152600401612b549190615eb0565b602060405180830381865afa158015612b71573d6000803e3d6000fd5b505050506040513d601f19601f82011682018060405250810190612b959190616798565b15612ba557600592505050612bac565b6002925050505b919050565b60606000825167ffffffffffffffff811115612bd057612bcf614e13565b5b604051908082528060200260200182016040528015612c0357816020015b6060815260200190600190039081612bee5790505b50905060005b8451811015612ce2576000858281518110612c2757612c266167c5565b5b60200260200101515114612c9757848181518110612c4857612c476167c5565b5b602002602001015180519060200120848281518110612c6a57612c696167c5565b5b6020026020010151604051602001612c83929190616851565b604051602081830303815290604052612cb3565b838181518110612caa57612ca96167c5565b5b60200260200101515b828281518110612cc657612cc56167c5565b5b602002602001018190525080612cdb90616879565b9050612c09565b508091505092915050565b6000612cfb85858585613bdb565b9050949350505050565b6000612d10306126a1565b15905090565b600060019054906101000a900460ff16612d65576040517f08c379a0000000000000000000000000000000000000000000000000000000008152600401612d5c90616934565b60405180910390fd5b612d7681612d716119c3565b613cd1565b612d7f81613d4c565b50565b600060019054906101000a900460ff16612dd1576040517f08c379a0000000000000000000000000000000000000000000000000000000008152600401612dc890616934565b60405180910390fd5b612ddc838383613db6565b505050565b600060019054906101000a900460ff16612e30576040517f08c379a0000000000000000000000000000000000000000000000000000000008152600401612e2790616934565b60405180910390fd5b565b600060019054906101000a900460ff16612e81576040517f08c379a0000000000000000000000000000000000000000000000000000000008152600401612e7890616934565b60405180910390fd5b612e8a81613e25565b50565b600060019054906101000a900460ff16612edc576040517f08c379a0000000000000000000000000000000000000000000000000000000008152600401612ed390616934565b60405180910390fd5b612ee581613eb9565b50565b600060019054906101000a900460ff16612f37576040517f08c379a0000000000000000000000000000000000000000000000000000000008152600401612f2e90616934565b60405180910390fd5b612f4081613f14565b50565b7fc565b045403dc03c2eea82b81a0465edad9e2e7fc4d97e11421c209da93d7a936101615482604051612f779291906163b5565b60405180910390a1806101618190555050565b6000612fef612f97612774565b8686865167ffffffffffffffff811115612fb457612fb3614e13565b5b604051908082528060200260200182016040528015612fe757816020015b6060815260200190600190039081612fd25790505b5087876130e0565b612ffb85858585613f6f565b9050949350505050565b7f08f74ea46ef7894f65eabfb5e6e695de773a000b47c529ab559178069b22640161022a60009054906101000a900473ffffffffffffffffffffffffffffffffffffffff1682604051613059929190616954565b60405180910390a18061022a60006101000a81548173ffffffffffffffffffffffffffffffffffffffff021916908373ffffffffffffffffffffffffffffffffffffffff16021790555050565b600061016354905090565b60606130d78484846040518060600160405280602981526020016175e660299139614270565b90509392505050565b600081805190602001209050600061310387876130fd8888612bb1565b85611df4565b90506000610193600083815260200190815260200160002090506000801b816009015414156131dd57888160000160006101000a81548173ffffffffffffffffffffffffffffffffffffffff021916908373ffffffffffffffffffffffffffffffffffffffff16021790555087816001019080519060200190613187929190614792565b50868160020190805190602001906131a092919061481c565b50858160030190805190602001906131b9929190614869565b50848160040190805190602001906131d29291906148c9565b508281600901819055505b505050505050505050565b6000811161322b576040517f08c379a0000000000000000000000000000000000000000000000000000000008152600401613222906169ef565b60405180910390fd5b7f7e3f7f0708a84de9203036abaa450dccc85ad5ff52f78c170f3edb55cf5e8828610162548260405161325f9291906163b5565b60405180910390a1806101628190555050565b60006101c560009054906101000a900473ffffffffffffffffffffffffffffffffffffffff1673ffffffffffffffffffffffffffffffffffffffff16633a46b1a884846040518363ffffffff1660e01b81526004016132d2929190616a0f565b602060405180830381865afa1580156132ef573d6000803e3d6000fd5b505050506040513d601f19601f82011682018060405250810190613313919061619b565b905092915050565b7fccb45da8d5717e6c4544694297c4ba5cf151d455c9bb0ed4fc7a38411bc05461610163548260405161334f9291906163b5565b60405180910390a1806101638190555050565b600061336c611b39565b613374611b42565b6101c560009054906101000a900473ffffffffffffffffffffffffffffffffffffffff1673ffffffffffffffffffffffffffffffffffffffff16638e539e8c856040518263ffffffff1660e01b81526004016133d09190614d38565b602060405180830381865afa1580156133ed573d6000803e3d6000fd5b505050506040513d601f19601f82011682018060405250810190613411919061619b565b61341b9190616a38565b6134259190616ac1565b9050919050565b60007fbf26d897000000000000000000000000000000000000000000000000000000007bffffffffffffffffffffffffffffffffffffffffffffffffffffffff1916827bffffffffffffffffffffffffffffffffffffffffffffffffffffffff1916148061349f575061349e82614384565b5b9050919050565b61022a60009054906101000a900473ffffffffffffffffffffffffffffffffffffffff1673ffffffffffffffffffffffffffffffffffffffff1663e38335e5348686866000876040518763ffffffff1660e01b815260040161350c959493929190616210565b6000604051808303818588803b15801561352557600080fd5b505af1158015613539573d6000803e3d6000fd5b50505050505050505050565b60006135807f8b73c3c69bb8fe3d512ecc4cf759cc79239f7b179b0ffacaa9a75d522b39400f6135736143ee565b61357b6143f8565b614402565b905090565b6000828260405160200161359a929190616b6a565b60405160208183030381529060405280519060200120905092915050565b6000807f7fffffffffffffffffffffffffffffff5d576e7357a4501ddfe92f46681b20a08360001c11156135f35760006003915091506136bc565b601b8560ff161415801561360b5750601c8560ff1614155b1561361d5760006004915091506136bc565b6000600187878787604051600081526020016040526040516136429493929190616ba1565b6020604051602081039080840390855afa158015613664573d6000803e3d6000fd5b505050602060405103519050600073ffffffffffffffffffffffffffffffffffffffff168173ffffffffffffffffffffffffffffffffffffffff1614156136b3576000600192509250506136bc565b80600092509250505b94509492505050565b600060048111156136d9576136d8615780565b5b8160048111156136ec576136eb615780565b5b14156136f757613897565b6001600481111561370b5761370a615780565b5b81600481111561371e5761371d615780565b5b141561375f576040517f08c379a000000000000000000000000000000000000000000000000000000000815260040161375690616c32565b60405180910390fd5b6002600481111561377357613772615780565b5b81600481111561378657613785615780565b5b14156137c7576040517f08c379a00000000000000000000000000000000000000000000000000000000081526004016137be90616c9e565b60405180910390fd5b600360048111156137db576137da615780565b5b8160048111156137ee576137ed615780565b5b141561382f576040517f08c379a000000000000000000000000000000000000000000000000000000000815260040161382690616d30565b60405180910390fd5b60048081111561384257613841615780565b5b81600481111561385557613854615780565b5b1415613896576040517f08c379a000000000000000000000000000000000000000000000000000000000815260040161388d90616dc2565b60405180910390fd5b5b50565b60006101936000868152602001908152602001600020905060008160080160008673ffffffffffffffffffffffffffffffffffffffff1673ffffffffffffffffffffffffffffffffffffffff16815260200190815260200160002090508060000160009054906101000a900460ff1615613949576040517f08c379a000000000000000000000000000000000000000000000000000000000815260040161394090616e54565b60405180910390fd5b60018160000160006101000a81548160ff021916908315150217905550838160000160016101000a81548160ff021916908360ff16021790555061398c8361443c565b8160000160026101000a8154816bffffffffffffffffffffffff02191690836bffffffffffffffffffffffff160217905550600060028111156139d2576139d1615780565b5b60ff168460ff1614156139ff57828260060160008282546139f3919061635f565b92505081905550613abd565b60016002811115613a1357613a12615780565b5b60ff168460ff161415613a405782826005016000828254613a34919061635f565b92505081905550613abc565b600280811115613a5357613a52615780565b5b60ff168460ff161415613a805782826007016000828254613a74919061635f565b92505081905550613abb565b6040517f08c379a0000000000000000000000000000000000000000000000000000000008152600401613ab290616ee6565b60405180910390fd5b5b5b505050505050565b600080610130600084815260200190815260200160002090508060020160009054906101000a900460ff1615613aff576007915050613bd6565b8060020160019054906101000a900460ff1615613b20576002915050613bd6565b6000613b2b8461108c565b90506000811415613b71576040517f08c379a0000000000000000000000000000000000000000000000000000000008152600401613b6890616f52565b60405180910390fd5b438110613b8357600092505050613bd6565b6000613b8e85611cb3565b9050438110613ba35760019350505050613bd6565b613bac85614497565b8015613bbd5750613bbc856144d0565b5b15613bce5760049350505050613bd6565b600393505050505b919050565b600080613bea868686866144fc565b90506000801b61022b60008381526020019081526020016000205414613cc55761022a60009054906101000a900473ffffffffffffffffffffffffffffffffffffffff1673ffffffffffffffffffffffffffffffffffffffff1663c4d252f561022b6000848152602001908152602001600020546040518263ffffffff1660e01b8152600401613c7a9190615eb0565b600060405180830381600087803b158015613c9457600080fd5b505af1158015613ca8573d6000803e3d6000fd5b5050505061022b6000828152602001908152602001600020600090555b80915050949350505050565b600060019054906101000a900460ff16613d20576040517f08c379a0000000000000000000000000000000000000000000000000000000008152600401613d1790616934565b60405180910390fd5b600082805190602001209050600082805190602001209050816065819055508060668190555050505050565b600060019054906101000a900460ff16613d9b576040517f08c379a0000000000000000000000000000000000000000000000000000000008152600401613d9290616934565b60405180910390fd5b8061012f9080519060200190613db2929190614929565b5050565b600060019054906101000a900460ff16613e05576040517f08c379a0000000000000000000000000000000000000000000000000000000008152600401613dfc90616934565b60405180910390fd5b613e0e83612f43565b613e17826131e8565b613e208161331b565b505050565b600060019054906101000a900460ff16613e74576040517f08c379a0000000000000000000000000000000000000000000000000000000008152600401613e6b90616934565b60405180910390fd5b806101c560006101000a81548173ffffffffffffffffffffffffffffffffffffffff021916908373ffffffffffffffffffffffffffffffffffffffff16021790555050565b600060019054906101000a900460ff16613f08576040517f08c379a0000000000000000000000000000000000000000000000000000000008152600401613eff90616934565b60405180910390fd5b613f118161277c565b50565b600060019054906101000a900460ff16613f63576040517f08c379a0000000000000000000000000000000000000000000000000000000008152600401613f5a90616934565b60405180910390fd5b613f6c81613005565b50565b6000613f79611ca4565b613f8f33600143613f8a91906163de565b612316565b1015613fd0576040517f08c379a0000000000000000000000000000000000000000000000000000000008152600401613fc79061700a565b60405180910390fd5b6000613fe58686868680519060200120611df4565b9050845186511461402b576040517f08c379a00000000000000000000000000000000000000000000000000000000081526004016140229061709c565b60405180910390fd5b835186511461406f576040517f08c379a00000000000000000000000000000000000000000000000000000000081526004016140669061709c565b60405180910390fd5b60008651116140b3576040517f08c379a00000000000000000000000000000000000000000000000000000000081526004016140aa90617108565b60405180910390fd5b600061013060008381526020019081526020016000209050614114816000016040518060200160405290816000820160009054906101000a900467ffffffffffffffff1667ffffffffffffffff1667ffffffffffffffff1681525050614657565b614153576040517f08c379a000000000000000000000000000000000000000000000000000000000815260040161414a9061719a565b60405180910390fd5b60006141656141606113b9565b614671565b61416e43614671565b61417891906171ce565b9050600061418c614187610b53565b614671565b8261419791906171ce565b90506141af82846000016146c890919063ffffffff16565b6141c581846001016146c890919063ffffffff16565b7f7d84a6263ae0d98d3329bd7b46bb4e8d6f98cd35a7adb45c274c8b7fd5ebd5e0846141ef612774565b8b8b8d5167ffffffffffffffff81111561420c5761420b614e13565b5b60405190808252806020026020018201604052801561423f57816020015b606081526020019060019003908161422a5790505b508c88888e6040516142599998979695949392919061723d565b60405180910390a183945050505050949350505050565b6060824710156142b5576040517f08c379a00000000000000000000000000000000000000000000000000000000081526004016142ac9061735f565b60405180910390fd5b6142be856126a1565b6142fd576040517f08c379a00000000000000000000000000000000000000000000000000000000081526004016142f4906173cb565b60405180910390fd5b6000808673ffffffffffffffffffffffffffffffffffffffff16858760405161432691906173eb565b60006040518083038185875af1925050503d8060008114614363576040519150601f19603f3d011682016040523d82523d6000602084013e614368565b606091505b50915091506143788282866146f7565b92505050949350505050565b60007f01ffc9a7000000000000000000000000000000000000000000000000000000007bffffffffffffffffffffffffffffffffffffffffffffffffffffffff1916827bffffffffffffffffffffffffffffffffffffffffffffffffffffffff1916149050919050565b6000606554905090565b6000606654905090565b6000838383463060405160200161441d959493929190617402565b6040516020818303038152906040528051906020012090509392505050565b60006bffffffffffffffffffffffff801682111561448f576040517f08c379a0000000000000000000000000000000000000000000000000000000008152600401614486906174c7565b60405180910390fd5b819050919050565b6000806101936000848152602001908152602001600020905080600501546144c66144c18561108c565b6123b2565b1115915050919050565b600080610193600084815260200190815260200160002090508060060154816005015411915050919050565b60008061450b86868686611df4565b9050600061451882611452565b90506002600781111561452e5761452d615780565b5b81600781111561454157614540615780565b5b1415801561457457506006600781111561455e5761455d615780565b5b81600781111561457157614570615780565b5b14155b80156145a4575060078081111561458e5761458d615780565b5b8160078111156145a1576145a0615780565b5b14155b6145e3576040517f08c379a00000000000000000000000000000000000000000000000000000000081526004016145da90617533565b60405180910390fd5b6001610130600084815260200190815260200160002060020160016101000a81548160ff0219169083151502179055507f789cf55be980739dad1d0699b93b58e806b51c9d96619bfa8fe0a28abaa7b30c826040516146429190614d38565b60405180910390a18192505050949350505050565b600080826000015167ffffffffffffffff16149050919050565b600067ffffffffffffffff80168211156146c0576040517f08c379a00000000000000000000000000000000000000000000000000000000081526004016146b7906175c5565b60405180910390fd5b819050919050565b808260000160006101000a81548167ffffffffffffffff021916908367ffffffffffffffff1602179055505050565b6060831561470757829050614757565b60008351111561471a5782518084602001fd5b816040517f08c379a000000000000000000000000000000000000000000000000000000000815260040161474e9190614dec565b60405180910390fd5b9392505050565b6040518060600160405280600015158152602001600060ff16815260200160006bffffffffffffffffffffffff1681525090565b82805482825590600052602060002090810192821561480b579160200282015b8281111561480a5782518260006101000a81548173ffffffffffffffffffffffffffffffffffffffff021916908373ffffffffffffffffffffffffffffffffffffffff160217905550916020019190600101906147b2565b5b50905061481891906149af565b5090565b828054828255906000526020600020908101928215614858579160200282015b8281111561485757825182559160200191906001019061483c565b5b50905061486591906149af565b5090565b8280548282559060005260206000209081019282156148b8579160200282015b828111156148b75782518290805190602001906148a7929190614929565b5091602001919060010190614889565b5b5090506148c591906149cc565b5090565b828054828255906000526020600020908101928215614918579160200282015b828111156149175782518290805190602001906149079291906149f0565b50916020019190600101906148e9565b5b5090506149259190614a76565b5090565b828054614935906160c2565b90600052602060002090601f016020900481019282614957576000855561499e565b82601f1061497057805160ff191683800117855561499e565b8280016001018555821561499e579182015b8281111561499d578251825591602001919060010190614982565b5b5090506149ab91906149af565b5090565b5b808211156149c85760008160009055506001016149b0565b5090565b5b808211156149ec57600081816149e39190614a9a565b506001016149cd565b5090565b8280546149fc906160c2565b90600052602060002090601f016020900481019282614a1e5760008555614a65565b82601f10614a3757805160ff1916838001178555614a65565b82800160010185558215614a65579182015b82811115614a64578251825591602001919060010190614a49565b5b509050614a7291906149af565b5090565b5b80821115614a965760008181614a8d9190614ada565b50600101614a77565b5090565b508054614aa6906160c2565b6000825580601f10614ab85750614ad7565b601f016020900490600052602060002090810190614ad691906149af565b5b50565b508054614ae6906160c2565b6000825580601f10614af85750614b17565b601f016020900490600052602060002090810190614b1691906149af565b5b50565b6000604051905090565b600080fd5b600080fd5b6000819050919050565b614b4181614b2e565b8114614b4c57600080fd5b50565b600081359050614b5e81614b38565b92915050565b600060208284031215614b7a57614b79614b24565b5b6000614b8884828501614b4f565b91505092915050565b614b9a81614b2e565b82525050565b600073ffffffffffffffffffffffffffffffffffffffff82169050919050565b6000614bcb82614ba0565b9050919050565b614bdb81614bc0565b82525050565b60008115159050919050565b614bf681614be1565b82525050565b600061014082019050614c12600083018d614b91565b614c1f602083018c614bd2565b614c2c604083018b614b91565b614c39606083018a614b91565b614c466080830189614b91565b614c5360a0830188614b91565b614c6060c0830187614b91565b614c6d60e0830186614b91565b614c7b610100830185614bed565b614c89610120830184614bed565b9b9a5050505050505050505050565b60007fffffffff0000000000000000000000000000000000000000000000000000000082169050919050565b614ccd81614c98565b8114614cd857600080fd5b50565b600081359050614cea81614cc4565b92915050565b600060208284031215614d0657614d05614b24565b5b6000614d1484828501614cdb565b91505092915050565b6000602082019050614d326000830184614bed565b92915050565b6000602082019050614d4d6000830184614b91565b92915050565b600081519050919050565b600082825260208201905092915050565b60005b83811015614d8d578082015181840152602081019050614d72565b83811115614d9c576000848401525b50505050565b6000601f19601f8301169050919050565b6000614dbe82614d53565b614dc88185614d5e565b9350614dd8818560208601614d6f565b614de181614da2565b840191505092915050565b60006020820190508181036000830152614e068184614db3565b905092915050565b600080fd5b7f4e487b7100000000000000000000000000000000000000000000000000000000600052604160045260246000fd5b614e4b82614da2565b810181811067ffffffffffffffff82111715614e6a57614e69614e13565b5b80604052505050565b6000614e7d614b1a565b9050614e898282614e42565b919050565b600067ffffffffffffffff821115614ea957614ea8614e13565b5b602082029050602081019050919050565b600080fd5b614ec881614bc0565b8114614ed357600080fd5b50565b600081359050614ee581614ebf565b92915050565b6000614efe614ef984614e8e565b614e73565b90508083825260208201905060208402830185811115614f2157614f20614eba565b5b835b81811015614f4a5780614f368882614ed6565b845260208401935050602081019050614f23565b5050509392505050565b600082601f830112614f6957614f68614e0e565b5b8135614f79848260208601614eeb565b91505092915050565b600067ffffffffffffffff821115614f9d57614f9c614e13565b5b602082029050602081019050919050565b6000614fc1614fbc84614f82565b614e73565b90508083825260208201905060208402830185811115614fe457614fe3614eba565b5b835b8181101561500d5780614ff98882614b4f565b845260208401935050602081019050614fe6565b5050509392505050565b600082601f83011261502c5761502b614e0e565b5b813561503c848260208601614fae565b91505092915050565b600067ffffffffffffffff8211156150605761505f614e13565b5b602082029050602081019050919050565b600080fd5b600067ffffffffffffffff82111561509157615090614e13565b5b61509a82614da2565b9050602081019050919050565b82818337600083830152505050565b60006150c96150c484615076565b614e73565b9050828152602081018484840111156150e5576150e4615071565b5b6150f08482856150a7565b509392505050565b600082601f83011261510d5761510c614e0e565b5b813561511d8482602086016150b6565b91505092915050565b600061513961513484615045565b614e73565b9050808382526020820190506020840283018581111561515c5761515b614eba565b5b835b818110156151a357803567ffffffffffffffff81111561518157615180614e0e565b5b80860161518e89826150f8565b8552602085019450505060208101905061515e565b5050509392505050565b600082601f8301126151c2576151c1614e0e565b5b81356151d2848260208601615126565b91505092915050565b6000819050919050565b6151ee816151db565b81146151f957600080fd5b50565b60008135905061520b816151e5565b92915050565b6000806000806080858703121561522b5761522a614b24565b5b600085013567ffffffffffffffff81111561524957615248614b29565b5b61525587828801614f54565b945050602085013567ffffffffffffffff81111561527657615275614b29565b5b61528287828801615017565b935050604085013567ffffffffffffffff8111156152a3576152a2614b29565b5b6152af878288016151ad565b92505060606152c0878288016151fc565b91505092959194509250565b600081519050919050565b600082825260208201905092915050565b6000819050602082019050919050565b61530181614bc0565b82525050565b600061531383836152f8565b60208301905092915050565b6000602082019050919050565b6000615337826152cc565b61534181856152d7565b935061534c836152e8565b8060005b8381101561537d5781516153648882615307565b975061536f8361531f565b925050600181019050615350565b5085935050505092915050565b600081519050919050565b600082825260208201905092915050565b6000819050602082019050919050565b6153bf81614b2e565b82525050565b60006153d183836153b6565b60208301905092915050565b6000602082019050919050565b60006153f58261538a565b6153ff8185615395565b935061540a836153a6565b8060005b8381101561543b57815161542288826153c5565b975061542d836153dd565b92505060018101905061540e565b5085935050505092915050565b600081519050919050565b600082825260208201905092915050565b6000819050602082019050919050565b600082825260208201905092915050565b600061549082614d53565b61549a8185615474565b93506154aa818560208601614d6f565b6154b381614da2565b840191505092915050565b60006154ca8383615485565b905092915050565b6000602082019050919050565b60006154ea82615448565b6154f48185615453565b93508360208202850161550685615464565b8060005b85811015615542578484038952815161552385826154be565b945061552e836154d2565b925060208a0199505060018101905061550a565b50829750879550505050505092915050565b600081519050919050565b600082825260208201905092915050565b6000819050602082019050919050565b600081519050919050565b600082825260208201905092915050565b60006155a782615580565b6155b1818561558b565b93506155c1818560208601614d6f565b6155ca81614da2565b840191505092915050565b60006155e1838361559c565b905092915050565b6000602082019050919050565b600061560182615554565b61560b818561555f565b93508360208202850161561d85615570565b8060005b85811015615659578484038952815161563a85826155d5565b9450615645836155e9565b925060208a01995050600181019050615621565b50829750879550505050505092915050565b60006080820190508181036000830152615685818761532c565b9050818103602083015261569981866153ea565b905081810360408301526156ad81856154df565b905081810360608301526156c181846155f6565b905095945050505050565b600060ff82169050919050565b6156e2816156cc565b81146156ed57600080fd5b50565b6000813590506156ff816156d9565b92915050565b600080600080600060a0868803121561572157615720614b24565b5b600061572f88828901614b4f565b9550506020615740888289016156f0565b9450506040615751888289016156f0565b9350506060615762888289016151fc565b9250506080615773888289016151fc565b9150509295509295909350565b7f4e487b7100000000000000000000000000000000000000000000000000000000600052602160045260246000fd5b600881106157c0576157bf615780565b5b50565b60008190506157d1826157af565b919050565b60006157e1826157c3565b9050919050565b6157f1816157d6565b82525050565b600060208201905061580c60008301846157e8565b92915050565b6000806040838503121561582957615828614b24565b5b600061583785828601614b4f565b925050602061584885828601614ed6565b9150509250929050565b600061585d82614bc0565b9050919050565b61586d81615852565b811461587857600080fd5b50565b60008135905061588a81615864565b92915050565b600061589b82614ba0565b9050919050565b60006158ad82615890565b9050919050565b6158bd816158a2565b81146158c857600080fd5b50565b6000813590506158da816158b4565b92915050565b600080604083850312156158f7576158f6614b24565b5b60006159058582860161587b565b9250506020615916858286016158cb565b9150509250929050565b6000806040838503121561593757615936614b24565b5b600061594585828601614b4f565b9250506020615956858286016156f0565b9150509250929050565b600080fd5b60008083601f84011261597b5761597a614e0e565b5b8235905067ffffffffffffffff81111561599857615997615960565b5b6020830191508360018202830111156159b4576159b3614eba565b5b9250929050565b600080600080606085870312156159d5576159d4614b24565b5b60006159e387828801614b4f565b94505060206159f4878288016156f0565b935050604085013567ffffffffffffffff811115615a1557615a14614b29565b5b615a2187828801615965565b925092505092959194509250565b600067ffffffffffffffff821115615a4a57615a49614e13565b5b615a5382614da2565b9050602081019050919050565b6000615a73615a6e84615a2f565b614e73565b905082815260208101848484011115615a8f57615a8e615071565b5b615a9a8482856150a7565b509392505050565b600082601f830112615ab757615ab6614e0e565b5b8135615ac7848260208601615a60565b91505092915050565b60008060008060808587031215615aea57615ae9614b24565b5b600085013567ffffffffffffffff811115615b0857615b07614b29565b5b615b1487828801614f54565b945050602085013567ffffffffffffffff811115615b3557615b34614b29565b5b615b4187828801615017565b935050604085013567ffffffffffffffff811115615b6257615b61614b29565b5b615b6e878288016151ad565b925050606085013567ffffffffffffffff811115615b8f57615b8e614b29565b5b615b9b87828801615aa2565b91505092959194509250565b600060208284031215615bbd57615bbc614b24565b5b6000615bcb848285016158cb565b91505092915050565b60008083601f840112615bea57615be9614e0e565b5b8235905067ffffffffffffffff811115615c0757615c06615960565b5b602083019150836001820283011115615c2357615c22614eba565b5b9250929050565b60008060008060608587031215615c4457615c43614b24565b5b6000615c5287828801614ed6565b9450506020615c6387828801614b4f565b935050604085013567ffffffffffffffff811115615c8457615c83614b29565b5b615c9087828801615bd4565b925092505092959194509250565b6000602082019050615cb36000830184614bd2565b92915050565b600067ffffffffffffffff821115615cd457615cd3614e13565b5b602082029050602081019050919050565b6000615cf8615cf384615cb9565b614e73565b90508083825260208201905060208402830185811115615d1b57615d1a614eba565b5b835b81811015615d6257803567ffffffffffffffff811115615d4057615d3f614e0e565b5b808601615d4d8982615aa2565b85526020850194505050602081019050615d1d565b5050509392505050565b600082601f830112615d8157615d80614e0e565b5b8135615d91848260208601615ce5565b91505092915050565b600080600080600060a08688031215615db657615db5614b24565b5b600086013567ffffffffffffffff811115615dd457615dd3614b29565b5b615de088828901614f54565b955050602086013567ffffffffffffffff811115615e0157615e00614b29565b5b615e0d88828901615017565b945050604086013567ffffffffffffffff811115615e2e57615e2d614b29565b5b615e3a88828901615d6c565b935050606086013567ffffffffffffffff811115615e5b57615e5a614b29565b5b615e67888289016151ad565b925050608086013567ffffffffffffffff811115615e8857615e87614b29565b5b615e9488828901615aa2565b9150509295509295909350565b615eaa816151db565b82525050565b6000602082019050615ec56000830184615ea1565b92915050565b615ed481614be1565b82525050565b615ee3816156cc565b82525050565b60006bffffffffffffffffffffffff82169050919050565b615f0a81615ee9565b82525050565b606082016000820151615f266000850182615ecb565b506020820151615f396020850182615eda565b506040820151615f4c6040850182615f01565b50505050565b6000606082019050615f676000830184615f10565b92915050565b60008060408385031215615f8457615f83614b24565b5b6000615f9285828601614ed6565b9250506020615fa385828601614b4f565b9150509250929050565b6000819050919050565b6000615fd2615fcd615fc884614ba0565b615fad565b614ba0565b9050919050565b6000615fe482615fb7565b9050919050565b6000615ff682615fd9565b9050919050565b61600681615feb565b82525050565b60006020820190506160216000830184615ffd565b92915050565b7f476f7665726e6f723a206f6e6c79476f7665726e616e63650000000000000000600082015250565b600061605d601883614d5e565b915061606882616027565b602082019050919050565b6000602082019050818103600083015261608c81616050565b9050919050565b7f4e487b7100000000000000000000000000000000000000000000000000000000600052602260045260246000fd5b600060028204905060018216806160da57607f821691505b602082108114156160ee576160ed616093565b5b50919050565b7f476f7665726e6f723a2070726f706f73616c206e6f742073756363657373667560008201527f6c00000000000000000000000000000000000000000000000000000000000000602082015250565b6000616150602183614d5e565b915061615b826160f4565b604082019050919050565b6000602082019050818103600083015261617f81616143565b9050919050565b60008151905061619581614b38565b92915050565b6000602082840312156161b1576161b0614b24565b5b60006161bf84828501616186565b91505092915050565b6000819050919050565b60008160001b9050919050565b60006161fa6161f56161f0846161c8565b6161d2565b6151db565b9050919050565b61620a816161df565b82525050565b600060a082019050818103600083015261622a818861532c565b9050818103602083015261623e81876153ea565b9050818103604083015261625281866155f6565b90506162616060830185616201565b61626e6080830184615ea1565b9695505050505050565b600081519050616287816151e5565b92915050565b6000602082840312156162a3576162a2614b24565b5b60006162b184828501616278565b91505092915050565b600060c08201905081810360008301526162d4818961532c565b905081810360208301526162e881886153ea565b905081810360408301526162fc81876155f6565b905061630b6060830186616201565b6163186080830185615ea1565b61632560a0830184614b91565b979650505050505050565b7f4e487b7100000000000000000000000000000000000000000000000000000000600052601160045260246000fd5b600061636a82614b2e565b915061637583614b2e565b9250827fffffffffffffffffffffffffffffffffffffffffffffffffffffffffffffffff038211156163aa576163a9616330565b5b828201905092915050565b60006040820190506163ca6000830185614b91565b6163d76020830184614b91565b9392505050565b60006163e982614b2e565b91506163f483614b2e565b92508282101561640757616406616330565b5b828203905092915050565b61641b816156cc565b82525050565b60006060820190506164366000830186615ea1565b6164436020830185614b91565b6164506040830184616412565b949350505050565b7f476f7665726e6f72427261766f3a2070726f706f7365722061626f766520746860008201527f726573686f6c6400000000000000000000000000000000000000000000000000602082015250565b60006164b4602783614d5e565b91506164bf82616458565b604082019050919050565b600060208201905081810360008301526164e3816164a7565b9050919050565b7f496e697469616c697a61626c653a20636f6e747261637420697320616c72656160008201527f647920696e697469616c697a6564000000000000000000000000000000000000602082015250565b6000616546602e83614d5e565b9150616551826164ea565b604082019050919050565b6000602082019050818103600083015261657581616539565b9050919050565b60006080820190508181036000830152616596818761532c565b905081810360208301526165aa81866153ea565b905081810360408301526165be81856155f6565b90506165cd6060830184615ea1565b95945050505050565b7f476f7665726e6f72566f74657351756f72756d4672616374696f6e3a2071756f60008201527f72756d4e756d657261746f72206f7665722071756f72756d44656e6f6d696e6160208201527f746f720000000000000000000000000000000000000000000000000000000000604082015250565b6000616658604383614d5e565b9150616663826165d6565b606082019050919050565b600060208201905081810360008301526166878161664b565b9050919050565b7f476f7665726e6f723a20766f7465206e6f742063757272656e746c792061637460008201527f6976650000000000000000000000000000000000000000000000000000000000602082015250565b60006166ea602383614d5e565b91506166f58261668e565b604082019050919050565b60006020820190508181036000830152616719816166dd565b9050919050565b60006080820190506167356000830187614b91565b6167426020830186616412565b61674f6040830185614b91565b81810360608301526167618184614db3565b905095945050505050565b61677581614be1565b811461678057600080fd5b50565b6000815190506167928161676c565b92915050565b6000602082840312156167ae576167ad614b24565b5b60006167bc84828501616783565b91505092915050565b7f4e487b7100000000000000000000000000000000000000000000000000000000600052603260045260246000fd5b6000819050919050565b61680f61680a82614c98565b6167f4565b82525050565b600081905092915050565b600061682b82615580565b6168358185616815565b9350616845818560208601614d6f565b80840191505092915050565b600061685d82856167fe565b60048201915061686d8284616820565b91508190509392505050565b600061688482614b2e565b91507fffffffffffffffffffffffffffffffffffffffffffffffffffffffffffffffff8214156168b7576168b6616330565b5b600182019050919050565b7f496e697469616c697a61626c653a20636f6e7472616374206973206e6f74206960008201527f6e697469616c697a696e67000000000000000000000000000000000000000000602082015250565b600061691e602b83614d5e565b9150616929826168c2565b604082019050919050565b6000602082019050818103600083015261694d81616911565b9050919050565b60006040820190506169696000830185614bd2565b6169766020830184614bd2565b9392505050565b7f476f7665726e6f7253657474696e67733a20766f74696e6720706572696f642060008201527f746f6f206c6f7700000000000000000000000000000000000000000000000000602082015250565b60006169d9602783614d5e565b91506169e48261697d565b604082019050919050565b60006020820190508181036000830152616a08816169cc565b9050919050565b6000604082019050616a246000830185614bd2565b616a316020830184614b91565b9392505050565b6000616a4382614b2e565b9150616a4e83614b2e565b9250817fffffffffffffffffffffffffffffffffffffffffffffffffffffffffffffffff0483118215151615616a8757616a86616330565b5b828202905092915050565b7f4e487b7100000000000000000000000000000000000000000000000000000000600052601260045260246000fd5b6000616acc82614b2e565b9150616ad783614b2e565b925082616ae757616ae6616a92565b5b828204905092915050565b600081905092915050565b7f1901000000000000000000000000000000000000000000000000000000000000600082015250565b6000616b33600283616af2565b9150616b3e82616afd565b600282019050919050565b6000819050919050565b616b64616b5f826151db565b616b49565b82525050565b6000616b7582616b26565b9150616b818285616b53565b602082019150616b918284616b53565b6020820191508190509392505050565b6000608082019050616bb66000830187615ea1565b616bc36020830186616412565b616bd06040830185615ea1565b616bdd6060830184615ea1565b95945050505050565b7f45434453413a20696e76616c6964207369676e61747572650000000000000000600082015250565b6000616c1c601883614d5e565b9150616c2782616be6565b602082019050919050565b60006020820190508181036000830152616c4b81616c0f565b9050919050565b7f45434453413a20696e76616c6964207369676e6174757265206c656e67746800600082015250565b6000616c88601f83614d5e565b9150616c9382616c52565b602082019050919050565b60006020820190508181036000830152616cb781616c7b565b9050919050565b7f45434453413a20696e76616c6964207369676e6174757265202773272076616c60008201527f7565000000000000000000000000000000000000000000000000000000000000602082015250565b6000616d1a602283614d5e565b9150616d2582616cbe565b604082019050919050565b60006020820190508181036000830152616d4981616d0d565b9050919050565b7f45434453413a20696e76616c6964207369676e6174757265202776272076616c60008201527f7565000000000000000000000000000000000000000000000000000000000000602082015250565b6000616dac602283614d5e565b9150616db782616d50565b604082019050919050565b60006020820190508181036000830152616ddb81616d9f565b9050919050565b7f476f7665726e6f72436f6d7061746962696c697479427261766f3a20766f746560008201527f20616c7265616479206361737400000000000000000000000000000000000000602082015250565b6000616e3e602d83614d5e565b9150616e4982616de2565b604082019050919050565b60006020820190508181036000830152616e6d81616e31565b9050919050565b7f476f7665726e6f72436f6d7061746962696c697479427261766f3a20696e766160008201527f6c696420766f7465207479706500000000000000000000000000000000000000602082015250565b6000616ed0602d83614d5e565b9150616edb82616e74565b604082019050919050565b60006020820190508181036000830152616eff81616ec3565b9050919050565b7f476f7665726e6f723a20756e6b6e6f776e2070726f706f73616c206964000000600082015250565b6000616f3c601d83614d5e565b9150616f4782616f06565b602082019050919050565b60006020820190508181036000830152616f6b81616f2f565b9050919050565b7f476f7665726e6f72436f6d7061746962696c697479427261766f3a2070726f7060008201527f6f73657220766f7465732062656c6f772070726f706f73616c2074687265736860208201527f6f6c640000000000000000000000000000000000000000000000000000000000604082015250565b6000616ff4604383614d5e565b9150616fff82616f72565b606082019050919050565b6000602082019050818103600083015261702381616fe7565b9050919050565b7f476f7665726e6f723a20696e76616c69642070726f706f73616c206c656e677460008201527f6800000000000000000000000000000000000000000000000000000000000000602082015250565b6000617086602183614d5e565b91506170918261702a565b604082019050919050565b600060208201905081810360008301526170b581617079565b9050919050565b7f476f7665726e6f723a20656d7074792070726f706f73616c0000000000000000600082015250565b60006170f2601883614d5e565b91506170fd826170bc565b602082019050919050565b60006020820190508181036000830152617121816170e5565b9050919050565b7f476f7665726e6f723a2070726f706f73616c20616c726561647920657869737460008201527f7300000000000000000000000000000000000000000000000000000000000000602082015250565b6000617184602183614d5e565b915061718f82617128565b604082019050919050565b600060208201905081810360008301526171b381617177565b9050919050565b600067ffffffffffffffff82169050919050565b60006171d9826171ba565b91506171e4836171ba565b92508267ffffffffffffffff0382111561720157617200616330565b5b828201905092915050565b600061722761722261721d846171ba565b615fad565b614b2e565b9050919050565b6172378161720c565b82525050565b600061012082019050617253600083018c614b91565b617260602083018b614bd2565b8181036040830152617272818a61532c565b9050818103606083015261728681896153ea565b9050818103608083015261729a81886154df565b905081810360a08301526172ae81876155f6565b90506172bd60c083018661722e565b6172ca60e083018561722e565b8181036101008301526172dd8184614db3565b90509a9950505050505050505050565b7f416464726573733a20696e73756666696369656e742062616c616e636520666f60008201527f722063616c6c0000000000000000000000000000000000000000000000000000602082015250565b6000617349602683614d5e565b9150617354826172ed565b604082019050919050565b600060208201905081810360008301526173788161733c565b9050919050565b7f416464726573733a2063616c6c20746f206e6f6e2d636f6e7472616374000000600082015250565b60006173b5601d83614d5e565b91506173c08261737f565b602082019050919050565b600060208201905081810360008301526173e4816173a8565b9050919050565b60006173f78284616820565b915081905092915050565b600060a0820190506174176000830188615ea1565b6174246020830187615ea1565b6174316040830186615ea1565b61743e6060830185614b91565b61744b6080830184614bd2565b9695505050505050565b7f53616665436173743a2076616c756520646f65736e27742066697420696e203960008201527f3620626974730000000000000000000000000000000000000000000000000000602082015250565b60006174b1602683614d5e565b91506174bc82617455565b604082019050919050565b600060208201905081810360008301526174e0816174a4565b9050919050565b7f476f7665726e6f723a2070726f706f73616c206e6f7420616374697665000000600082015250565b600061751d601d83614d5e565b9150617528826174e7565b602082019050919050565b6000602082019050818103600083015261754c81617510565b9050919050565b7f53616665436173743a2076616c756520646f65736e27742066697420696e203660008201527f3420626974730000000000000000000000000000000000000000000000000000602082015250565b60006175af602683614d5e565b91506175ba82617553565b604082019050919050565b600060208201905081810360008301526175de816175a2565b905091905056fe416464726573733a206c6f772d6c6576656c2063616c6c20776974682076616c7565206661696c6564a26469706673582212206fe6d6adb6c50584742976fea04efa59af13a5280f04c64857ce449d00e4c0e864736f6c634300080b0033",
  "immutableReferences": {},
  "source": "// SPDX-License-Identifier: MIT\r\npragma solidity ^0.8.4;\r\n\r\nimport \"@openzeppelin/contracts-upgradeable/governance/GovernorUpgradeable.sol\";\r\nimport \"@openzeppelin/contracts-upgradeable/governance/extensions/GovernorSettingsUpgradeable.sol\";\r\nimport \"@openzeppelin/contracts-upgradeable/governance/compatibility/GovernorCompatibilityBravoUpgradeable.sol\";\r\nimport \"@openzeppelin/contracts-upgradeable/governance/extensions/GovernorVotesUpgradeable.sol\";\r\nimport \"@openzeppelin/contracts-upgradeable/governance/extensions/GovernorVotesQuorumFractionUpgradeable.sol\";\r\nimport \"@openzeppelin/contracts-upgradeable/governance/extensions/GovernorTimelockControlUpgradeable.sol\";\r\nimport \"@openzeppelin/contracts-upgradeable/proxy/utils/Initializable.sol\";\r\n\r\ncontract PicardyGovonor is Initializable, GovernorUpgradeable, GovernorSettingsUpgradeable, GovernorCompatibilityBravoUpgradeable, GovernorVotesUpgradeable, GovernorVotesQuorumFractionUpgradeable, GovernorTimelockControlUpgradeable {\r\n    /// @custom:oz-upgrades-unsafe-allow constructor\r\n    constructor() initializer {}\r\n\r\n    function initialize(IVotesUpgradeable _token, TimelockControllerUpgradeable _timelock)\r\n        initializer public\r\n    {\r\n        __Governor_init(\"PicardyGovonor\");\r\n        __GovernorSettings_init(1 /* 1 block */, 45818 /* 1 week */, 0);\r\n        __GovernorCompatibilityBravo_init();\r\n        __GovernorVotes_init(_token);\r\n        __GovernorVotesQuorumFraction_init(20);\r\n        __GovernorTimelockControl_init(_timelock);\r\n    }\r\n\r\n    // The following functions are overrides required by Solidity.\r\n\r\n    function votingDelay()\r\n        public\r\n        view\r\n        override(IGovernorUpgradeable, GovernorSettingsUpgradeable)\r\n        returns (uint256)\r\n    {\r\n        return super.votingDelay();\r\n    }\r\n\r\n    function votingPeriod()\r\n        public\r\n        view\r\n        override(IGovernorUpgradeable, GovernorSettingsUpgradeable)\r\n        returns (uint256)\r\n    {\r\n        return super.votingPeriod();\r\n    }\r\n\r\n    function quorum(uint256 blockNumber)\r\n        public\r\n        view\r\n        override(IGovernorUpgradeable, GovernorVotesQuorumFractionUpgradeable)\r\n        returns (uint256)\r\n    {\r\n        return super.quorum(blockNumber);\r\n    }\r\n\r\n    function getVotes(address account, uint256 blockNumber)\r\n        public\r\n        view\r\n        override(IGovernorUpgradeable, GovernorVotesUpgradeable)\r\n        returns (uint256)\r\n    {\r\n        return super.getVotes(account, blockNumber);\r\n    }\r\n\r\n    function state(uint256 proposalId)\r\n        public\r\n        view\r\n        override(GovernorUpgradeable, IGovernorUpgradeable, GovernorTimelockControlUpgradeable)\r\n        returns (ProposalState)\r\n    {\r\n        return super.state(proposalId);\r\n    }\r\n\r\n    function propose(address[] memory targets, uint256[] memory values, bytes[] memory calldatas, string memory description)\r\n        public\r\n        override(GovernorUpgradeable, GovernorCompatibilityBravoUpgradeable, IGovernorUpgradeable)\r\n        returns (uint256)\r\n    {\r\n        return super.propose(targets, values, calldatas, description);\r\n    }\r\n\r\n    function proposalThreshold()\r\n        public\r\n        view\r\n        override(GovernorUpgradeable, GovernorSettingsUpgradeable)\r\n        returns (uint256)\r\n    {\r\n        return super.proposalThreshold();\r\n    }\r\n\r\n    function _execute(uint256 proposalId, address[] memory targets, uint256[] memory values, bytes[] memory calldatas, bytes32 descriptionHash)\r\n        internal\r\n        override(GovernorUpgradeable, GovernorTimelockControlUpgradeable)\r\n    {\r\n        super._execute(proposalId, targets, values, calldatas, descriptionHash);\r\n    }\r\n\r\n    function _cancel(address[] memory targets, uint256[] memory values, bytes[] memory calldatas, bytes32 descriptionHash)\r\n        internal\r\n        override(GovernorUpgradeable, GovernorTimelockControlUpgradeable)\r\n        returns (uint256)\r\n    {\r\n        return super._cancel(targets, values, calldatas, descriptionHash);\r\n    }\r\n\r\n    function _executor()\r\n        internal\r\n        view\r\n        override(GovernorUpgradeable, GovernorTimelockControlUpgradeable)\r\n        returns (address)\r\n    {\r\n        return super._executor();\r\n    }\r\n\r\n    function supportsInterface(bytes4 interfaceId)\r\n        public\r\n        view\r\n        override(GovernorUpgradeable, IERC165Upgradeable, GovernorTimelockControlUpgradeable)\r\n        returns (bool)\r\n    {\r\n        return super.supportsInterface(interfaceId);\r\n    }\r\n}",
  "sourcePath": "C:\\Users\\USER\\Desktop\\PICARDY_DAO\\contracts\\governance\\GovonorControl.sol",
  "compiler": {
    "name": "solc",
    "version": "0.8.11+commit.d7f03943.Emscripten.clang"
  },
  "schemaVersion": "3.4.6",
  "updatedAt": "2022-04-27T17:37:37.744Z",
  "devdoc": {
    "kind": "dev",
    "methods": {
      "COUNTING_MODE()": {
        "details": "A description of the possible `support` values for {castVote} and the way these votes are counted, meant to be consumed by UIs to show correct vote options and interpret the results. The string is a URL-encoded sequence of key-value pairs that each describe one aspect, for example `support=bravo&quorum=for,abstain`. There are 2 standard keys: `support` and `quorum`. - `support=bravo` refers to the vote options 0 = Against, 1 = For, 2 = Abstain, as in `GovernorBravo`. - `quorum=bravo` means that only For votes are counted towards quorum. - `quorum=for,abstain` means that both For and Abstain votes are counted towards quorum. NOTE: The string can be decoded by the standard https://developer.mozilla.org/en-US/docs/Web/API/URLSearchParams[`URLSearchParams`] JavaScript class."
      },
      "cancel(uint256)": {
        "details": "Cancels a proposal only if sender is the proposer, or proposer delegates dropped below proposal threshold."
      },
      "castVote(uint256,uint8)": {
        "details": "See {IGovernor-castVote}."
      },
      "castVoteBySig(uint256,uint8,uint8,bytes32,bytes32)": {
        "details": "See {IGovernor-castVoteBySig}."
      },
      "castVoteWithReason(uint256,uint8,string)": {
        "details": "See {IGovernor-castVoteWithReason}."
      },
      "constructor": {
        "custom:oz-upgrades-unsafe-allow": "constructor"
      },
      "execute(address[],uint256[],bytes[],bytes32)": {
        "details": "See {IGovernor-execute}."
      },
      "execute(uint256)": {
        "details": "See {IGovernorCompatibilityBravo-execute}."
      },
      "getActions(uint256)": {
        "details": "See {IGovernorCompatibilityBravo-getActions}."
      },
      "getReceipt(uint256,address)": {
        "details": "See {IGovernorCompatibilityBravo-getReceipt}."
      },
      "hasVoted(uint256,address)": {
        "details": "See {IGovernor-hasVoted}."
      },
      "hashProposal(address[],uint256[],bytes[],bytes32)": {
        "details": "See {IGovernor-hashProposal}. The proposal id is produced by hashing the RLC encoded `targets` array, the `values` array, the `calldatas` array and the descriptionHash (bytes32 which itself is the keccak256 hash of the description string). This proposal id can be produced from the proposal data which is part of the {ProposalCreated} event. It can even be computed in advance, before the proposal is submitted. Note that the chainId and the governor address are not part of the proposal id computation. Consequently, the same proposal (with same operation and same description) will have the same id if submitted on multiple governors accross multiple networks. This also means that in order to execute the same operation twice (on the same governor) the proposer will have to change the description in order to avoid proposal id conflicts."
      },
      "name()": {
        "details": "See {IGovernor-name}."
      },
      "proposalDeadline(uint256)": {
        "details": "See {IGovernor-proposalDeadline}."
      },
      "proposalEta(uint256)": {
        "details": "Public accessor to check the eta of a queued proposal"
      },
      "proposalSnapshot(uint256)": {
        "details": "See {IGovernor-proposalSnapshot}."
      },
      "proposals(uint256)": {
        "details": "See {IGovernorCompatibilityBravo-proposals}."
      },
      "propose(address[],uint256[],string[],bytes[],string)": {
        "details": "See {IGovernorCompatibilityBravo-propose}."
      },
      "queue(address[],uint256[],bytes[],bytes32)": {
        "details": "Function to queue a proposal to the timelock."
      },
      "queue(uint256)": {
        "details": "See {IGovernorCompatibilityBravo-queue}."
      },
      "quorumDenominator()": {
        "details": "Returns the quorum denominator. Defaults to 100, but may be overridden."
      },
      "quorumNumerator()": {
        "details": "Returns the current quorum numerator. See {quorumDenominator}."
      },
      "quorumVotes()": {
        "details": "See {IGovernorCompatibilityBravo-quorumVotes}."
      },
      "relay(address,uint256,bytes)": {
        "details": "Relays a transaction or function call to an arbitrary target. In cases where the governance executor is some contract other than the governor itself, like when using a timelock, this function can be invoked in a governance proposal to recover tokens or Ether that was sent to the governor contract by mistake. Note that if the executor is simply the governor itself, use of `relay` is redundant."
      },
      "setProposalThreshold(uint256)": {
        "details": "Update the proposal threshold. This operation can only be performed through a governance proposal. Emits a {ProposalThresholdSet} event."
      },
      "setVotingDelay(uint256)": {
        "details": "Update the voting delay. This operation can only be performed through a governance proposal. Emits a {VotingDelaySet} event."
      },
      "setVotingPeriod(uint256)": {
        "details": "Update the voting period. This operation can only be performed through a governance proposal. Emits a {VotingPeriodSet} event."
      },
      "timelock()": {
        "details": "Public accessor to check the address of the timelock"
      },
      "updateQuorumNumerator(uint256)": {
        "details": "Changes the quorum numerator. Emits a {QuorumNumeratorUpdated} event. Requirements: - Must be called through a governance proposal. - New numerator must be smaller or equal to the denominator."
      },
      "updateTimelock(address)": {
        "details": "Public endpoint to update the underlying timelock instance. Restricted to the timelock itself, so updates must be proposed, scheduled, and executed through governance proposals. CAUTION: It is not recommended to change the timelock while there are other queued governance proposals."
      },
      "version()": {
        "details": "See {IGovernor-version}."
      }
    },
    "version": 1
  },
  "userdoc": {
    "kind": "user",
    "methods": {
      "COUNTING_MODE()": {
        "notice": "module:voting"
      }
    },
    "version": 1
  }
}