{
  "contractName": "PicardyToken",
  "abi": [
    {
      "inputs": [],
      "stateMutability": "nonpayable",
      "type": "constructor"
    },
    {
      "anonymous": false,
      "inputs": [
        {
          "indexed": true,
          "internalType": "address",
          "name": "owner",
          "type": "address"
        },
        {
          "indexed": true,
          "internalType": "address",
          "name": "spender",
          "type": "address"
        },
        {
          "indexed": false,
          "internalType": "uint256",
          "name": "value",
          "type": "uint256"
        }
      ],
      "name": "Approval",
      "type": "event"
    },
    {
      "anonymous": false,
      "inputs": [
        {
          "indexed": true,
          "internalType": "address",
          "name": "delegator",
          "type": "address"
        },
        {
          "indexed": true,
          "internalType": "address",
          "name": "fromDelegate",
          "type": "address"
        },
        {
          "indexed": true,
          "internalType": "address",
          "name": "toDelegate",
          "type": "address"
        }
      ],
      "name": "DelegateChanged",
      "type": "event"
    },
    {
      "anonymous": false,
      "inputs": [
        {
          "indexed": true,
          "internalType": "address",
          "name": "delegate",
          "type": "address"
        },
        {
          "indexed": false,
          "internalType": "uint256",
          "name": "previousBalance",
          "type": "uint256"
        },
        {
          "indexed": false,
          "internalType": "uint256",
          "name": "newBalance",
          "type": "uint256"
        }
      ],
      "name": "DelegateVotesChanged",
      "type": "event"
    },
    {
      "anonymous": false,
      "inputs": [
        {
          "indexed": true,
          "internalType": "address",
          "name": "from",
          "type": "address"
        },
        {
          "indexed": true,
          "internalType": "address",
          "name": "to",
          "type": "address"
        },
        {
          "indexed": false,
          "internalType": "uint256",
          "name": "value",
          "type": "uint256"
        }
      ],
      "name": "Transfer",
      "type": "event"
    },
    {
      "inputs": [],
      "name": "DOMAIN_SEPARATOR",
      "outputs": [
        {
          "internalType": "bytes32",
          "name": "",
          "type": "bytes32"
        }
      ],
      "stateMutability": "view",
      "type": "function",
      "constant": true
    },
    {
      "inputs": [
        {
          "internalType": "address",
          "name": "owner",
          "type": "address"
        },
        {
          "internalType": "address",
          "name": "spender",
          "type": "address"
        }
      ],
      "name": "allowance",
      "outputs": [
        {
          "internalType": "uint256",
          "name": "",
          "type": "uint256"
        }
      ],
      "stateMutability": "view",
      "type": "function",
      "constant": true
    },
    {
      "inputs": [
        {
          "internalType": "address",
          "name": "spender",
          "type": "address"
        },
        {
          "internalType": "uint256",
          "name": "amount",
          "type": "uint256"
        }
      ],
      "name": "approve",
      "outputs": [
        {
          "internalType": "bool",
          "name": "",
          "type": "bool"
        }
      ],
      "stateMutability": "nonpayable",
      "type": "function"
    },
    {
      "inputs": [
        {
          "internalType": "address",
          "name": "account",
          "type": "address"
        }
      ],
      "name": "balanceOf",
      "outputs": [
        {
          "internalType": "uint256",
          "name": "",
          "type": "uint256"
        }
      ],
      "stateMutability": "view",
      "type": "function",
      "constant": true
    },
    {
      "inputs": [
        {
          "internalType": "address",
          "name": "account",
          "type": "address"
        },
        {
          "internalType": "uint32",
          "name": "pos",
          "type": "uint32"
        }
      ],
      "name": "checkpoints",
      "outputs": [
        {
          "components": [
            {
              "internalType": "uint32",
              "name": "fromBlock",
              "type": "uint32"
            },
            {
              "internalType": "uint224",
              "name": "votes",
              "type": "uint224"
            }
          ],
          "internalType": "struct ERC20Votes.Checkpoint",
          "name": "",
          "type": "tuple"
        }
      ],
      "stateMutability": "view",
      "type": "function",
      "constant": true
    },
    {
      "inputs": [],
      "name": "decimals",
      "outputs": [
        {
          "internalType": "uint8",
          "name": "",
          "type": "uint8"
        }
      ],
      "stateMutability": "view",
      "type": "function",
      "constant": true
    },
    {
      "inputs": [
        {
          "internalType": "address",
          "name": "spender",
          "type": "address"
        },
        {
          "internalType": "uint256",
          "name": "subtractedValue",
          "type": "uint256"
        }
      ],
      "name": "decreaseAllowance",
      "outputs": [
        {
          "internalType": "bool",
          "name": "",
          "type": "bool"
        }
      ],
      "stateMutability": "nonpayable",
      "type": "function"
    },
    {
      "inputs": [
        {
          "internalType": "address",
          "name": "delegatee",
          "type": "address"
        }
      ],
      "name": "delegate",
      "outputs": [],
      "stateMutability": "nonpayable",
      "type": "function"
    },
    {
      "inputs": [
        {
          "internalType": "address",
          "name": "delegatee",
          "type": "address"
        },
        {
          "internalType": "uint256",
          "name": "nonce",
          "type": "uint256"
        },
        {
          "internalType": "uint256",
          "name": "expiry",
          "type": "uint256"
        },
        {
          "internalType": "uint8",
          "name": "v",
          "type": "uint8"
        },
        {
          "internalType": "bytes32",
          "name": "r",
          "type": "bytes32"
        },
        {
          "internalType": "bytes32",
          "name": "s",
          "type": "bytes32"
        }
      ],
      "name": "delegateBySig",
      "outputs": [],
      "stateMutability": "nonpayable",
      "type": "function"
    },
    {
      "inputs": [
        {
          "internalType": "address",
          "name": "account",
          "type": "address"
        }
      ],
      "name": "delegates",
      "outputs": [
        {
          "internalType": "address",
          "name": "",
          "type": "address"
        }
      ],
      "stateMutability": "view",
      "type": "function",
      "constant": true
    },
    {
      "inputs": [
        {
          "internalType": "uint256",
          "name": "blockNumber",
          "type": "uint256"
        }
      ],
      "name": "getPastTotalSupply",
      "outputs": [
        {
          "internalType": "uint256",
          "name": "",
          "type": "uint256"
        }
      ],
      "stateMutability": "view",
      "type": "function",
      "constant": true
    },
    {
      "inputs": [
        {
          "internalType": "address",
          "name": "account",
          "type": "address"
        },
        {
          "internalType": "uint256",
          "name": "blockNumber",
          "type": "uint256"
        }
      ],
      "name": "getPastVotes",
      "outputs": [
        {
          "internalType": "uint256",
          "name": "",
          "type": "uint256"
        }
      ],
      "stateMutability": "view",
      "type": "function",
      "constant": true
    },
    {
      "inputs": [
        {
          "internalType": "address",
          "name": "account",
          "type": "address"
        }
      ],
      "name": "getVotes",
      "outputs": [
        {
          "internalType": "uint256",
          "name": "",
          "type": "uint256"
        }
      ],
      "stateMutability": "view",
      "type": "function",
      "constant": true
    },
    {
      "inputs": [
        {
          "internalType": "address",
          "name": "spender",
          "type": "address"
        },
        {
          "internalType": "uint256",
          "name": "addedValue",
          "type": "uint256"
        }
      ],
      "name": "increaseAllowance",
      "outputs": [
        {
          "internalType": "bool",
          "name": "",
          "type": "bool"
        }
      ],
      "stateMutability": "nonpayable",
      "type": "function"
    },
    {
      "inputs": [],
      "name": "name",
      "outputs": [
        {
          "internalType": "string",
          "name": "",
          "type": "string"
        }
      ],
      "stateMutability": "view",
      "type": "function",
      "constant": true
    },
    {
      "inputs": [
        {
          "internalType": "address",
          "name": "owner",
          "type": "address"
        }
      ],
      "name": "nonces",
      "outputs": [
        {
          "internalType": "uint256",
          "name": "",
          "type": "uint256"
        }
      ],
      "stateMutability": "view",
      "type": "function",
      "constant": true
    },
    {
      "inputs": [
        {
          "internalType": "address",
          "name": "account",
          "type": "address"
        }
      ],
      "name": "numCheckpoints",
      "outputs": [
        {
          "internalType": "uint32",
          "name": "",
          "type": "uint32"
        }
      ],
      "stateMutability": "view",
      "type": "function",
      "constant": true
    },
    {
      "inputs": [
        {
          "internalType": "address",
          "name": "owner",
          "type": "address"
        },
        {
          "internalType": "address",
          "name": "spender",
          "type": "address"
        },
        {
          "internalType": "uint256",
          "name": "value",
          "type": "uint256"
        },
        {
          "internalType": "uint256",
          "name": "deadline",
          "type": "uint256"
        },
        {
          "internalType": "uint8",
          "name": "v",
          "type": "uint8"
        },
        {
          "internalType": "bytes32",
          "name": "r",
          "type": "bytes32"
        },
        {
          "internalType": "bytes32",
          "name": "s",
          "type": "bytes32"
        }
      ],
      "name": "permit",
      "outputs": [],
      "stateMutability": "nonpayable",
      "type": "function"
    },
    {
      "inputs": [],
      "name": "s_maxSupply",
      "outputs": [
        {
          "internalType": "uint256",
          "name": "",
          "type": "uint256"
        }
      ],
      "stateMutability": "view",
      "type": "function",
      "constant": true
    },
    {
      "inputs": [],
      "name": "symbol",
      "outputs": [
        {
          "internalType": "string",
          "name": "",
          "type": "string"
        }
      ],
      "stateMutability": "view",
      "type": "function",
      "constant": true
    },
    {
      "inputs": [],
      "name": "totalSupply",
      "outputs": [
        {
          "internalType": "uint256",
          "name": "",
          "type": "uint256"
        }
      ],
      "stateMutability": "view",
      "type": "function",
      "constant": true
    },
    {
      "inputs": [
        {
          "internalType": "address",
          "name": "to",
          "type": "address"
        },
        {
          "internalType": "uint256",
          "name": "amount",
          "type": "uint256"
        }
      ],
      "name": "transfer",
      "outputs": [
        {
          "internalType": "bool",
          "name": "",
          "type": "bool"
        }
      ],
      "stateMutability": "nonpayable",
      "type": "function"
    },
    {
      "inputs": [
        {
          "internalType": "address",
          "name": "from",
          "type": "address"
        },
        {
          "internalType": "address",
          "name": "to",
          "type": "address"
        },
        {
          "internalType": "uint256",
          "name": "amount",
          "type": "uint256"
        }
      ],
      "name": "transferFrom",
      "outputs": [
        {
          "internalType": "bool",
          "name": "",
          "type": "bool"
        }
      ],
      "stateMutability": "nonpayable",
      "type": "function"
    }
  ],
  "bytecode": "0x6101406040526a39e7139a8c08fa06000000600a553480156200002157600080fd5b506040518060400160405280600d81526020016c2834b1b0b9323c902a37b5b2b760991b81525080604051806040016040528060018152602001603160f81b8152506040518060400160405280600d81526020016c2834b1b0b9323c902a37b5b2b760991b815250604051806040016040528060038152602001620cd49160ea1b8152508160039080519060200190620000bd9291906200079d565b508051620000d39060049060208401906200079d565b5050825160209384012082519284019290922060e08390526101008190524660a0818152604080517f8b73c3c69bb8fe3d512ecc4cf759cc79239f7b179b0ffacaa9a75d522b39400f818901819052818301979097526060810194909452608080850193909352308483018190528151808603909301835260c094850190915281519190960120905292909252610120525050600a54620001769033906200017c565b620008d7565b6200019382826200019760201b620009921760201c565b5050565b620001ae82826200024e60201b62000a221760201c565b6001600160e01b03620001c26200033d8216565b11156200022f5760405162461bcd60e51b815260206004820152603060248201527f4552433230566f7465733a20746f74616c20737570706c79207269736b73206f60448201526f766572666c6f77696e6720766f74657360801b60648201526084015b60405180910390fd5b62000248600962000afb6200034360201b178362000358565b50505050565b6001600160a01b038216620002a65760405162461bcd60e51b815260206004820152601f60248201527f45524332303a206d696e7420746f20746865207a65726f206164647265737300604482015260640162000226565b8060026000828254620002ba91906200084f565b90915550506001600160a01b03821660009081526020819052604081208054839290620002e99084906200084f565b90915550506040518181526001600160a01b038316906000907fddf252ad1be2c89b69c2b068fc378daa952ba7f163c4a11628f55a4df523b3ef9060200160405180910390a362000193600083836200050f565b60025490565b60006200035182846200084f565b9392505050565b825460009081908015620003aa5785620003746001836200086a565b8154811062000387576200038762000884565b60009182526020909120015464010000000090046001600160e01b0316620003ad565b60005b6001600160e01b03169250620003c483858760201c565b91506000811180156200040857504386620003e16001846200086a565b81548110620003f457620003f462000884565b60009182526020909120015463ffffffff16145b156200047c5762000424826200052760201b62000b071760201c565b86620004326001846200086a565b8154811062000445576200044562000884565b9060005260206000200160000160046101000a8154816001600160e01b0302191690836001600160e01b0316021790555062000501565b8560405180604001604052806200049e436200059660201b62000b741760201c565b63ffffffff168152602001620004bf856200052760201b62000b071760201c565b6001600160e01b0390811690915282546001810184556000938452602093849020835194909301519091166401000000000263ffffffff909316929092179101555b50935093915050565b505050565b6200050a838383620005fd60201b62000bd91760201c565b60006001600160e01b03821115620005925760405162461bcd60e51b815260206004820152602760248201527f53616665436173743a2076616c756520646f65736e27742066697420696e20326044820152663234206269747360c81b606482015260840162000226565b5090565b600063ffffffff821115620005925760405162461bcd60e51b815260206004820152602660248201527f53616665436173743a2076616c756520646f65736e27742066697420696e203360448201526532206269747360d01b606482015260840162000226565b620006158383836200050a60201b62000bf41760201c565b6200050a620006248462000636565b6200062f8462000636565b8362000654565b6001600160a01b039081166000908152600760205260409020541690565b816001600160a01b0316836001600160a01b031614158015620006775750600081115b156200050a576001600160a01b0383161562000704576001600160a01b038316600090815260086020908152604082208291620006c191906200078f901b62000bf9178562000358565b91509150846001600160a01b03166000805160206200249c8339815191528383604051620006f9929190918252602082015260400190565b60405180910390a250505b6001600160a01b038216156200050a576001600160a01b03821660009081526008602090815260408220829162000748919062000343901b62000afb178562000358565b91509150836001600160a01b03166000805160206200249c833981519152838360405162000780929190918252602082015260400190565b60405180910390a25050505050565b60006200035182846200086a565b828054620007ab906200089a565b90600052602060002090601f016020900481019282620007cf57600085556200081a565b82601f10620007ea57805160ff19168380011785556200081a565b828001600101855582156200081a579182015b828111156200081a578251825591602001919060010190620007fd565b50620005929291505b8082111562000592576000815560010162000823565b634e487b7160e01b600052601160045260246000fd5b6000821982111562000865576200086562000839565b500190565b6000828210156200087f576200087f62000839565b500390565b634e487b7160e01b600052603260045260246000fd5b600181811c90821680620008af57607f821691505b60208210811415620008d157634e487b7160e01b600052602260045260246000fd5b50919050565b60805160a05160c05160e0516101005161012051611b75620009276000396000610fe9015260006110380152600061101301526000610f6c01526000610f9601526000610fc00152611b756000f3fe608060405234801561001057600080fd5b506004361061011d5760003560e01c806306fdde0314610122578063095ea7b31461014057806318160ddd1461016357806323b872dd14610175578063313ce567146101885780633644e51514610197578063395093511461019f5780633a46b1a8146101b2578063587cde1e146101c55780635c19a95c146101f05780635d641847146102055780636fcfff451461020e57806370a08231146102365780637ecebe00146102495780638e539e8c1461025c57806395d89b411461026f5780639ab24eb014610277578063a457c2d71461028a578063a9059cbb1461029d578063c3cda520146102b0578063d505accf146102c3578063dd62ed3e146102d6578063f1127ed8146102e9575b600080fd5b61012a610326565b60405161013791906117af565b60405180910390f35b61015361014e366004611820565b6103b8565b6040519015158152602001610137565b6002545b604051908152602001610137565b61015361018336600461184a565b6103d0565b60405160128152602001610137565b6101676103f4565b6101536101ad366004611820565b610403565b6101676101c0366004611820565b610425565b6101d86101d3366004611886565b610478565b6040516001600160a01b039091168152602001610137565b6102036101fe366004611886565b610496565b005b610167600a5481565b61022161021c366004611886565b6104a3565b60405163ffffffff9091168152602001610137565b610167610244366004611886565b6104cb565b610167610257366004611886565b6104e6565b61016761026a3660046118a1565b610504565b61012a610530565b610167610285366004611886565b61053f565b610153610298366004611820565b6105c5565b6101536102ab366004611820565b610640565b6102036102be3660046118cb565b61064e565b6102036102d1366004611923565b610780565b6101676102e436600461198d565b6108e4565b6102fc6102f73660046119c0565b61090f565b60408051825163ffffffff1681526020928301516001600160e01b03169281019290925201610137565b60606003805461033590611a00565b80601f016020809104026020016040519081016040528092919081815260200182805461036190611a00565b80156103ae5780601f10610383576101008083540402835291602001916103ae565b820191906000526020600020905b81548152906001019060200180831161039157829003601f168201915b5050505050905090565b6000336103c6818585610c05565b5060019392505050565b6000336103de858285610d29565b6103e9858585610d9d565b506001949350505050565b60006103fe610f5f565b905090565b6000336103c681858561041683836108e4565b6104209190611a4b565b610c05565b600043821061044f5760405162461bcd60e51b815260040161044690611a63565b60405180910390fd5b6001600160a01b03831660009081526008602052604090206104719083611086565b9392505050565b6001600160a01b039081166000908152600760205260409020541690565b6104a03382611142565b50565b6001600160a01b0381166000908152600860205260408120546104c590610b74565b92915050565b6001600160a01b031660009081526020819052604090205490565b6001600160a01b0381166000908152600560205260408120546104c5565b60004382106105255760405162461bcd60e51b815260040161044690611a63565b6104c5600983611086565b60606004805461033590611a00565b6001600160a01b03811660009081526008602052604081205480156105b2576001600160a01b0383166000908152600860205260409020610581600183611a9a565b8154811061059157610591611ab1565b600091825260209091200154600160201b90046001600160e01b03166105b5565b60005b6001600160e01b03169392505050565b600033816105d382866108e4565b9050838110156106335760405162461bcd60e51b815260206004820152602560248201527f45524332303a2064656372656173656420616c6c6f77616e63652062656c6f77604482015264207a65726f60d81b6064820152608401610446565b6103e98286868403610c05565b6000336103c6818585610d9d565b8342111561069e5760405162461bcd60e51b815260206004820152601d60248201527f4552433230566f7465733a207369676e617475726520657870697265640000006044820152606401610446565b604080517fe48329057bfd03d55e49b547132e39cffd9c1820ad7b9d4c5307691425d15adf60208201526001600160a01b038816918101919091526060810186905260808101859052600090610718906107109060a001604051602081830303815290604052805190602001206111c2565b858585611210565b905061072381611238565b861461076d5760405162461bcd60e51b81526020600482015260196024820152784552433230566f7465733a20696e76616c6964206e6f6e636560381b6044820152606401610446565b6107778188611142565b50505050505050565b834211156107d05760405162461bcd60e51b815260206004820152601d60248201527f45524332305065726d69743a206578706972656420646561646c696e650000006044820152606401610446565b60007f6e71edae12b1b97f4d1f60370fef10105fa2faae0126114a169c64845d6126c98888886107ff8c611238565b6040805160208101969096526001600160a01b0394851690860152929091166060840152608083015260a082015260c0810186905260e001604051602081830303815290604052805190602001209050600061085a826111c2565b9050600061086a82878787611210565b9050896001600160a01b0316816001600160a01b0316146108cd5760405162461bcd60e51b815260206004820152601e60248201527f45524332305065726d69743a20696e76616c6964207369676e617475726500006044820152606401610446565b6108d88a8a8a610c05565b50505050505050505050565b6001600160a01b03918216600090815260016020908152604080832093909416825291909152205490565b60408051808201909152600080825260208201526001600160a01b0383166000908152600860205260409020805463ffffffff841690811061095357610953611ab1565b60009182526020918290206040805180820190915291015463ffffffff81168252600160201b90046001600160e01b0316918101919091529392505050565b61099c8282610a22565b6002546001600160e01b031015610a0e5760405162461bcd60e51b815260206004820152603060248201527f4552433230566f7465733a20746f74616c20737570706c79207269736b73206f60448201526f766572666c6f77696e6720766f74657360801b6064820152608401610446565b610a1c6009610afb83611260565b50505050565b6001600160a01b038216610a785760405162461bcd60e51b815260206004820152601f60248201527f45524332303a206d696e7420746f20746865207a65726f2061646472657373006044820152606401610446565b8060026000828254610a8a9190611a4b565b90915550506001600160a01b03821660009081526020819052604081208054839290610ab7908490611a4b565b90915550506040518181526001600160a01b03831690600090600080516020611b008339815191529060200160405180910390a3610af7600083836113d7565b5050565b60006104718284611a4b565b60006001600160e01b03821115610b705760405162461bcd60e51b815260206004820152602760248201527f53616665436173743a2076616c756520646f65736e27742066697420696e20326044820152663234206269747360c81b6064820152608401610446565b5090565b600063ffffffff821115610b705760405162461bcd60e51b815260206004820152602660248201527f53616665436173743a2076616c756520646f65736e27742066697420696e203360448201526532206269747360d01b6064820152608401610446565b610bf4610be584610478565b610bee84610478565b836113e2565b505050565b60006104718284611a9a565b6001600160a01b038316610c675760405162461bcd60e51b8152602060048201526024808201527f45524332303a20617070726f76652066726f6d20746865207a65726f206164646044820152637265737360e01b6064820152608401610446565b6001600160a01b038216610cc85760405162461bcd60e51b815260206004820152602260248201527f45524332303a20617070726f766520746f20746865207a65726f206164647265604482015261737360f01b6064820152608401610446565b6001600160a01b0383811660008181526001602090815260408083209487168084529482529182902085905590518481527f8c5be1e5ebec7d5bd14f71427d1e84f3dd0314c0f7b2291e5b200ac8c7c3b925910160405180910390a3505050565b6000610d3584846108e4565b90506000198114610a1c5781811015610d905760405162461bcd60e51b815260206004820152601d60248201527f45524332303a20696e73756666696369656e7420616c6c6f77616e63650000006044820152606401610446565b610a1c8484848403610c05565b6001600160a01b038316610e015760405162461bcd60e51b815260206004820152602560248201527f45524332303a207472616e736665722066726f6d20746865207a65726f206164604482015264647265737360d81b6064820152608401610446565b6001600160a01b038216610e635760405162461bcd60e51b815260206004820152602360248201527f45524332303a207472616e7366657220746f20746865207a65726f206164647260448201526265737360e81b6064820152608401610446565b6001600160a01b03831660009081526020819052604090205481811015610edb5760405162461bcd60e51b815260206004820152602660248201527f45524332303a207472616e7366657220616d6f756e7420657863656564732062604482015265616c616e636560d01b6064820152608401610446565b6001600160a01b03808516600090815260208190526040808220858503905591851681529081208054849290610f12908490611a4b565b92505081905550826001600160a01b0316846001600160a01b0316600080516020611b0083398151915284604051610f4c91815260200190565b60405180910390a3610a1c8484846113d7565b6000306001600160a01b037f000000000000000000000000000000000000000000000000000000000000000016148015610fb857507f000000000000000000000000000000000000000000000000000000000000000046145b15610fe257507f000000000000000000000000000000000000000000000000000000000000000090565b50604080517f00000000000000000000000000000000000000000000000000000000000000006020808301919091527f0000000000000000000000000000000000000000000000000000000000000000828401527f000000000000000000000000000000000000000000000000000000000000000060608301524660808301523060a0808401919091528351808403909101815260c0909201909252805191012090565b8154600090815b818110156110ea5760006110a182846114fb565b9050848682815481106110b6576110b6611ab1565b60009182526020909120015463ffffffff1611156110d6578092506110e4565b6110e1816001611a4b565b91505b5061108d565b811561112d57846110fc600184611a9a565b8154811061110c5761110c611ab1565b600091825260209091200154600160201b90046001600160e01b0316611130565b60005b6001600160e01b031695945050505050565b600061114d83610478565b9050600061115a846104cb565b6001600160a01b0385811660008181526007602052604080822080546001600160a01b031916898616908117909155905194955093928616927f3134e8a2e6d97e929a7e54011ea5485d7d196dd5f0ba4d4ef95803e8e3fc257f9190a4610a1c8284836113e2565b60006104c56111cf610f5f565b8360405161190160f01b6020820152602281018390526042810182905260009060620160405160208183030381529060405280519060200120905092915050565b600080600061122187878787611516565b9150915061122e816115f9565b5095945050505050565b6001600160a01b03811660009081526005602052604090208054600181018255905b50919050565b8254600090819080156112aa5785611279600183611a9a565b8154811061128957611289611ab1565b600091825260209091200154600160201b90046001600160e01b03166112ad565b60005b6001600160e01b031692506112c683858763ffffffff16565b9150600081118015611304575043866112e0600184611a9a565b815481106112f0576112f0611ab1565b60009182526020909120015463ffffffff16145b156113645761131282610b07565b8661131e600184611a9a565b8154811061132e5761132e611ab1565b9060005260206000200160000160046101000a8154816001600160e01b0302191690836001600160e01b031602179055506113ce565b85604051806040016040528061137943610b74565b63ffffffff16815260200161138d85610b07565b6001600160e01b039081169091528254600181018455600093845260209384902083519490930151909116600160201b0263ffffffff909316929092179101555b50935093915050565b610bf4838383610bd9565b816001600160a01b0316836001600160a01b0316141580156114045750600081115b15610bf4576001600160a01b03831615611480576001600160a01b0383166000908152600860205260408120819061143f90610bf985611260565b91509150846001600160a01b0316600080516020611b208339815191528383604051611475929190918252602082015260400190565b60405180910390a250505b6001600160a01b03821615610bf4576001600160a01b038216600090815260086020526040812081906114b690610afb85611260565b91509150836001600160a01b0316600080516020611b2083398151915283836040516114ec929190918252602082015260400190565b60405180910390a25050505050565b600061150a6002848418611ac7565b61047190848416611a4b565b6000806fa2a8918ca85bafe22016d0b997e4df60600160ff1b0383111561154357506000905060036115f0565b8460ff16601b1415801561155b57508460ff16601c14155b1561156c57506000905060046115f0565b6040805160008082526020820180845289905260ff881692820192909252606081018690526080810185905260019060a0016020604051602081039080840390855afa1580156115c0573d6000803e3d6000fd5b5050604051601f1901519150506001600160a01b0381166115e9576000600192509250506115f0565b9150600090505b94509492505050565b600081600481111561160d5761160d611ae9565b14156116165750565b600181600481111561162a5761162a611ae9565b14156116735760405162461bcd60e51b815260206004820152601860248201527745434453413a20696e76616c6964207369676e617475726560401b6044820152606401610446565b600281600481111561168757611687611ae9565b14156116d55760405162461bcd60e51b815260206004820152601f60248201527f45434453413a20696e76616c6964207369676e6174757265206c656e677468006044820152606401610446565b60038160048111156116e9576116e9611ae9565b14156117425760405162461bcd60e51b815260206004820152602260248201527f45434453413a20696e76616c6964207369676e6174757265202773272076616c604482015261756560f01b6064820152608401610446565b600481600481111561175657611756611ae9565b14156104a05760405162461bcd60e51b815260206004820152602260248201527f45434453413a20696e76616c6964207369676e6174757265202776272076616c604482015261756560f01b6064820152608401610446565b600060208083528351808285015260005b818110156117dc578581018301518582016040015282016117c0565b818111156117ee576000604083870101525b50601f01601f1916929092016040019392505050565b80356001600160a01b038116811461181b57600080fd5b919050565b6000806040838503121561183357600080fd5b61183c83611804565b946020939093013593505050565b60008060006060848603121561185f57600080fd5b61186884611804565b925061187660208501611804565b9150604084013590509250925092565b60006020828403121561189857600080fd5b61047182611804565b6000602082840312156118b357600080fd5b5035919050565b803560ff8116811461181b57600080fd5b60008060008060008060c087890312156118e457600080fd5b6118ed87611804565b95506020870135945060408701359350611909606088016118ba565b92506080870135915060a087013590509295509295509295565b600080600080600080600060e0888a03121561193e57600080fd5b61194788611804565b965061195560208901611804565b95506040880135945060608801359350611971608089016118ba565b925060a0880135915060c0880135905092959891949750929550565b600080604083850312156119a057600080fd5b6119a983611804565b91506119b760208401611804565b90509250929050565b600080604083850312156119d357600080fd5b6119dc83611804565b9150602083013563ffffffff811681146119f557600080fd5b809150509250929050565b600181811c90821680611a1457607f821691505b6020821081141561125a57634e487b7160e01b600052602260045260246000fd5b634e487b7160e01b600052601160045260246000fd5b60008219821115611a5e57611a5e611a35565b500190565b6020808252601f908201527f4552433230566f7465733a20626c6f636b206e6f7420796574206d696e656400604082015260600190565b600082821015611aac57611aac611a35565b500390565b634e487b7160e01b600052603260045260246000fd5b600082611ae457634e487b7160e01b600052601260045260246000fd5b500490565b634e487b7160e01b600052602160045260246000fdfeddf252ad1be2c89b69c2b068fc378daa952ba7f163c4a11628f55a4df523b3efdec2bacdd2f05b59de34da9b523dff8be42e5e38e818c82fdb0bae774387a724a264697066735822122049673ef4a3efd61376ddc45648a0e014ed6f84d61c68dc210350e383a570df1d64736f6c634300080b0033dec2bacdd2f05b59de34da9b523dff8be42e5e38e818c82fdb0bae774387a724",
  "immutableReferences": {
    "8356": [
      {
        "length": 32,
        "start": 4032
      }
    ],
    "8358": [
      {
        "length": 32,
        "start": 3990
      }
    ],
    "8360": [
      {
        "length": 32,
        "start": 3948
      }
    ],
    "8362": [
      {
        "length": 32,
        "start": 4115
      }
    ],
    "8364": [
      {
        "length": 32,
        "start": 4152
      }
    ],
    "8366": [
      {
        "length": 32,
        "start": 4073
      }
    ]
  },
  "source": "// SPDX-License-Identifier: MIT\r\npragma solidity ^0.8.7;\r\npragma experimental ABIEncoderV2;\r\n\r\nimport \"@openzeppelin/contracts/token/ERC20/extensions/ERC20Votes.sol\";\r\n\r\ncontract PicardyToken is ERC20Votes {\r\n    uint256 public s_maxSupply = 70000000 * 10 ** 18;\r\n\r\n    constructor()\r\n        ERC20(\"Picardy Token\", \"3RD\")\r\n        ERC20Permit(\"Picardy Token\")\r\n    {\r\n        _mint(msg.sender, s_maxSupply);\r\n    }\r\n\r\n    // The functions below are overrides required by Solidity.\r\n\r\n    function _afterTokenTransfer(\r\n        address from,\r\n        address to,\r\n        uint256 amount\r\n    ) internal override(ERC20Votes) {\r\n        super._afterTokenTransfer(from, to, amount);\r\n    }\r\n\r\n    function _mint(address to, uint256 amount) internal override(ERC20Votes) {\r\n        super._mint(to, amount);\r\n    }\r\n\r\n    function _burn(address account, uint256 amount)\r\n        internal\r\n        override(ERC20Votes)\r\n    {\r\n        super._burn(account, amount);\r\n    }\r\n}",
  "sourcePath": "C:\\Users\\USER\\Desktop\\Picardy_Protocol\\contracts\\Tokens\\PicardyToken.sol",
  "compiler": {
    "name": "solc",
    "version": "0.8.11+commit.d7f03943.Emscripten.clang"
  },
  "schemaVersion": "3.4.6",
  "updatedAt": "2022-05-28T00:04:42.485Z",
  "networkType": "ethereum",
  "devdoc": {
    "kind": "dev",
    "methods": {
      "DOMAIN_SEPARATOR()": {
        "details": "See {IERC20Permit-DOMAIN_SEPARATOR}."
      },
      "allowance(address,address)": {
        "details": "See {IERC20-allowance}."
      },
      "approve(address,uint256)": {
        "details": "See {IERC20-approve}. NOTE: If `amount` is the maximum `uint256`, the allowance is not updated on `transferFrom`. This is semantically equivalent to an infinite approval. Requirements: - `spender` cannot be the zero address."
      },
      "balanceOf(address)": {
        "details": "See {IERC20-balanceOf}."
      },
      "checkpoints(address,uint32)": {
        "details": "Get the `pos`-th checkpoint for `account`."
      },
      "decimals()": {
        "details": "Returns the number of decimals used to get its user representation. For example, if `decimals` equals `2`, a balance of `505` tokens should be displayed to a user as `5.05` (`505 / 10 ** 2`). Tokens usually opt for a value of 18, imitating the relationship between Ether and Wei. This is the value {ERC20} uses, unless this function is overridden; NOTE: This information is only used for _display_ purposes: it in no way affects any of the arithmetic of the contract, including {IERC20-balanceOf} and {IERC20-transfer}."
      },
      "decreaseAllowance(address,uint256)": {
        "details": "Atomically decreases the allowance granted to `spender` by the caller. This is an alternative to {approve} that can be used as a mitigation for problems described in {IERC20-approve}. Emits an {Approval} event indicating the updated allowance. Requirements: - `spender` cannot be the zero address. - `spender` must have allowance for the caller of at least `subtractedValue`."
      },
      "delegate(address)": {
        "details": "Delegate votes from the sender to `delegatee`."
      },
      "delegateBySig(address,uint256,uint256,uint8,bytes32,bytes32)": {
        "details": "Delegates votes from signer to `delegatee`"
      },
      "delegates(address)": {
        "details": "Get the address `account` is currently delegating to."
      },
      "getPastTotalSupply(uint256)": {
        "details": "Retrieve the `totalSupply` at the end of `blockNumber`. Note, this value is the sum of all balances. It is but NOT the sum of all the delegated votes! Requirements: - `blockNumber` must have been already mined"
      },
      "getPastVotes(address,uint256)": {
        "details": "Retrieve the number of votes for `account` at the end of `blockNumber`. Requirements: - `blockNumber` must have been already mined"
      },
      "getVotes(address)": {
        "details": "Gets the current votes balance for `account`"
      },
      "increaseAllowance(address,uint256)": {
        "details": "Atomically increases the allowance granted to `spender` by the caller. This is an alternative to {approve} that can be used as a mitigation for problems described in {IERC20-approve}. Emits an {Approval} event indicating the updated allowance. Requirements: - `spender` cannot be the zero address."
      },
      "name()": {
        "details": "Returns the name of the token."
      },
      "nonces(address)": {
        "details": "See {IERC20Permit-nonces}."
      },
      "numCheckpoints(address)": {
        "details": "Get number of checkpoints for `account`."
      },
      "permit(address,address,uint256,uint256,uint8,bytes32,bytes32)": {
        "details": "See {IERC20Permit-permit}."
      },
      "symbol()": {
        "details": "Returns the symbol of the token, usually a shorter version of the name."
      },
      "totalSupply()": {
        "details": "See {IERC20-totalSupply}."
      },
      "transfer(address,uint256)": {
        "details": "See {IERC20-transfer}. Requirements: - `to` cannot be the zero address. - the caller must have a balance of at least `amount`."
      },
      "transferFrom(address,address,uint256)": {
        "details": "See {IERC20-transferFrom}. Emits an {Approval} event indicating the updated allowance. This is not required by the EIP. See the note at the beginning of {ERC20}. NOTE: Does not update the allowance if the current allowance is the maximum `uint256`. Requirements: - `from` and `to` cannot be the zero address. - `from` must have a balance of at least `amount`. - the caller must have allowance for ``from``'s tokens of at least `amount`."
      }
    },
    "version": 1
  },
  "userdoc": {
    "kind": "user",
    "methods": {},
    "version": 1
  }
}