{
  "contractName": "PicardyVault",
  "abi": [
    {
      "inputs": [
        {
          "internalType": "address",
          "name": "_vaultToken",
          "type": "address"
        }
      ],
      "stateMutability": "nonpayable",
      "type": "constructor"
    },
    {
      "anonymous": false,
      "inputs": [
        {
          "indexed": true,
          "internalType": "uint256",
          "name": "amount",
          "type": "uint256"
        },
        {
          "indexed": true,
          "internalType": "address",
          "name": "to",
          "type": "address"
        }
      ],
      "name": "FundsWithdrawn",
      "type": "event"
    },
    {
      "anonymous": false,
      "inputs": [
        {
          "indexed": true,
          "internalType": "address",
          "name": "investor",
          "type": "address"
        }
      ],
      "name": "NewFundInvestor",
      "type": "event"
    },
    {
      "anonymous": false,
      "inputs": [
        {
          "indexed": true,
          "internalType": "address",
          "name": "previousOwner",
          "type": "address"
        },
        {
          "indexed": true,
          "internalType": "address",
          "name": "newOwner",
          "type": "address"
        }
      ],
      "name": "OwnershipTransferred",
      "type": "event"
    },
    {
      "anonymous": false,
      "inputs": [
        {
          "indexed": true,
          "internalType": "address",
          "name": "investor",
          "type": "address"
        },
        {
          "indexed": true,
          "internalType": "uint256",
          "name": "amount",
          "type": "uint256"
        }
      ],
      "name": "SharesIncreased",
      "type": "event"
    },
    {
      "inputs": [],
      "name": "VAULT_TOKEN",
      "outputs": [
        {
          "internalType": "contract IERC20",
          "name": "",
          "type": "address"
        }
      ],
      "stateMutability": "view",
      "type": "function"
    },
    {
      "inputs": [],
      "name": "owner",
      "outputs": [
        {
          "internalType": "address",
          "name": "",
          "type": "address"
        }
      ],
      "stateMutability": "view",
      "type": "function"
    },
    {
      "inputs": [],
      "name": "renounceOwnership",
      "outputs": [],
      "stateMutability": "nonpayable",
      "type": "function"
    },
    {
      "inputs": [
        {
          "internalType": "address",
          "name": "newOwner",
          "type": "address"
        }
      ],
      "name": "transferOwnership",
      "outputs": [],
      "stateMutability": "nonpayable",
      "type": "function"
    },
    {
      "inputs": [],
      "name": "vaultBalance",
      "outputs": [
        {
          "internalType": "uint256",
          "name": "",
          "type": "uint256"
        }
      ],
      "stateMutability": "view",
      "type": "function"
    },
    {
      "inputs": [
        {
          "internalType": "uint256",
          "name": "_amount",
          "type": "uint256"
        }
      ],
      "name": "joinVault",
      "outputs": [],
      "stateMutability": "nonpayable",
      "type": "function"
    },
    {
      "inputs": [
        {
          "internalType": "uint256",
          "name": "_amount",
          "type": "uint256"
        }
      ],
      "name": "increaseShares",
      "outputs": [],
      "stateMutability": "nonpayable",
      "type": "function"
    },
    {
      "inputs": [],
      "name": "getSharesValue",
      "outputs": [
        {
          "internalType": "uint256",
          "name": "",
          "type": "uint256"
        }
      ],
      "stateMutability": "view",
      "type": "function"
    },
    {
      "inputs": [
        {
          "internalType": "uint256",
          "name": "_amount",
          "type": "uint256"
        }
      ],
      "name": "shareHolderWidrawal",
      "outputs": [],
      "stateMutability": "nonpayable",
      "type": "function"
    },
    {
      "inputs": [
        {
          "internalType": "uint256",
          "name": "_amount",
          "type": "uint256"
        },
        {
          "internalType": "address",
          "name": "_to",
          "type": "address"
        }
      ],
      "name": "withdraw",
      "outputs": [],
      "stateMutability": "nonpayable",
      "type": "function"
    },
    {
      "inputs": [
        {
          "internalType": "address",
          "name": "_newVaultMember",
          "type": "address"
        }
      ],
      "name": "transferUpdate",
      "outputs": [],
      "stateMutability": "nonpayable",
      "type": "function"
    },
    {
      "inputs": [
        {
          "internalType": "uint256",
          "name": "_amount",
          "type": "uint256"
        }
      ],
      "name": "updateVaultBalance",
      "outputs": [
        {
          "internalType": "uint256",
          "name": "",
          "type": "uint256"
        }
      ],
      "stateMutability": "nonpayable",
      "type": "function"
    },
    {
      "inputs": [
        {
          "internalType": "address",
          "name": "_shareHoler",
          "type": "address"
        }
      ],
      "name": "isShareHolder",
      "outputs": [
        {
          "internalType": "uint256",
          "name": "",
          "type": "uint256"
        }
      ],
      "stateMutability": "view",
      "type": "function"
    },
    {
      "inputs": [],
      "name": "getVaultBalance",
      "outputs": [
        {
          "internalType": "uint256",
          "name": "",
          "type": "uint256"
        }
      ],
      "stateMutability": "view",
      "type": "function"
    },
    {
      "inputs": [],
      "name": "getShareAmount",
      "outputs": [
        {
          "internalType": "uint256",
          "name": "",
          "type": "uint256"
        }
      ],
      "stateMutability": "view",
      "type": "function"
    },
    {
      "inputs": [],
      "name": "getVaultSharesAddress",
      "outputs": [
        {
          "internalType": "address",
          "name": "",
          "type": "address"
        }
      ],
      "stateMutability": "view",
      "type": "function"
    }
  ],
  "bytecode": "0x60a060405262278d006002553480156200001857600080fd5b5060405162002406380380620024068339810160408190526200003b9162000139565b620000463362000079565b6001600160a01b0381166080819052600680546001600160a01b031916909117905562000072620000c9565b506200016b565b600080546001600160a01b038381166001600160a01b0319831681178455604051919092169283917f8be0079c531659141344cd1fd0a4f28419497f9722a3daafe3b4186f6b6457e09190a35050565b600030604051620000da906200012b565b6001600160a01b039091168152602001604051809103906000f08015801562000107573d6000803e3d6000fd5b50600580546001600160a01b0319166001600160a01b039290921691909117905550565b61107f806200138783390190565b6000602082840312156200014c57600080fd5b81516001600160a01b03811681146200016457600080fd5b9392505050565b6080516111f262000195600039600081816101240152818161024401526102dc01526111f26000f3fe608060405234801561001057600080fd5b50600436106100cf5760003560e01c8062f714ce146100d45780630bf6cc08146100e957806336fb15b4146101055780634499d14b1461011f5780634bef17bf14610146578063715018a61461014e5780637a33f63c146101565780638da5cb5b14610169578063a4f221bb14610171578063b6a1a08e14610184578063d9d479a414610197578063dcf2fc50146101aa578063dd5d4d6f146101bd578063eb46f7ed146101c5578063ed12e8ef146101d8578063f2fde38b146101e0575b600080fd5b6100e76100e2366004610fe4565b6101f3565b005b6100f260015481565b6040519081526020015b60405180910390f35b6005546001600160a01b03165b6040516100fc9190611010565b6101127f000000000000000000000000000000000000000000000000000000000000000081565b6100f2610393565b6100e76104a9565b6100f2610164366004611024565b6104e4565b610112610572565b6100e761017f366004611046565b610581565b6100e7610192366004611046565b61061a565b6100e76101a5366004611024565b61080f565b6100e76101b8366004611046565b610857565b6100f26109bb565b6100f26101d3366004611046565b610a32565b6001546100f2565b6100e76101ee366004611024565b610a59565b336101fc610572565b6001600160a01b03161461022b5760405162461bcd60e51b81526004016102229061105f565b60405180910390fd5b6040516370a0823160e01b815282906001600160a01b037f000000000000000000000000000000000000000000000000000000000000000016906370a0823190610279903090600401611010565b602060405180830381865afa158015610296573d6000803e3d6000fd5b505050506040513d601f19601f820116820180604052508101906102ba9190611094565b10156102c557600080fd5b6040516323b872dd60e01b81526001600160a01b037f000000000000000000000000000000000000000000000000000000000000000016906323b872dd90610315903090859087906004016110ad565b6020604051808303816000875af1158015610334573d6000803e3d6000fd5b505050506040513d601f19601f8201168201806040525081019061035891906110d1565b506040516001600160a01b0382169083907f6141b54b56b8a52a8c6f5cd2a857f6117b18ffbf4d46bd3106f300a839cbf5ea90600090a35050565b600080600560009054906101000a90046001600160a01b03166001600160a01b03166318160ddd6040518163ffffffff1660e01b8152600401602060405180830381865afa1580156103e9573d6000803e3d6000fd5b505050506040513d601f19601f8201168201806040525081019061040d9190611094565b6005546040516370a0823160e01b81529192506000916001600160a01b03909116906370a0823190610443903390600401611010565b602060405180830381865afa158015610460573d6000803e3d6000fd5b505050506040513d601f19601f820116820180604052508101906104849190611094565b9050600082600154836104979190611109565b6104a19190611128565b949350505050565b336104b2610572565b6001600160a01b0316146104d85760405162461bcd60e51b81526004016102229061105f565b6104e26000610af2565b565b6005546040516370a0823160e01b8152600091829182916001600160a01b0316906370a0823190610519908790600401611010565b602060405180830381865afa158015610536573d6000803e3d6000fd5b505050506040513d601f19601f8201168201806040525081019061055a9190611094565b11156105685750600161056c565b5060005b92915050565b6000546001600160a01b031690565b61058a81610b42565b6005546040516370a0823160e01b81526001600160a01b03909116906370a08231906105ba903390600401611010565b602060405180830381865afa1580156105d7573d6000803e3d6000fd5b505050506040513d601f19601f820116820180604052508101906105fb9190611094565b61061757336000908152600460205260409020805460ff191690555b50565b3360009081526004602052604090205460ff1615156001146106735760405162461bcd60e51b81526020600482015260126024820152712737ba1020902b30bab63a1026b2b6b132b960711b6044820152606401610222565b6006546040516370a0823160e01b815282916001600160a01b0316906370a08231906106a3903390600401611010565b602060405180830381865afa1580156106c0573d6000803e3d6000fd5b505050506040513d601f19601f820116820180604052508101906106e49190611094565b116107245760405162461bcd60e51b815260206004820152601060248201526f2737ba1022b737bab3b4102a37b5b2b760811b6044820152606401610222565b6006546040516323b872dd60e01b81526001600160a01b03909116906323b872dd90610758903390309086906004016110ad565b6020604051808303816000875af1158015610777573d6000803e3d6000fd5b505050506040513d601f19601f8201168201806040525081019061079b91906110d1565b5080600160008282546107ae919061114a565b909155506107bd905081610e76565b336000818152600460209081526040808320805460ff191660011790556003909152808220429055518392917fccdf17eb8a97f2b465f6808249b92fa225a1486cc104357a413adfb667d6d75191a350565b6005546001600160a01b0316331461082657600080fd5b6001600160a01b03166000908152600460209081526040808320805460ff1916600117905560039091529020429055565b6006546040516370a0823160e01b815282916001600160a01b0316906370a0823190610887903390600401611010565b602060405180830381865afa1580156108a4573d6000803e3d6000fd5b505050506040513d601f19601f820116820180604052508101906108c89190611094565b116108d257600080fd5b6006546040516323b872dd60e01b81526001600160a01b03909116906323b872dd90610906903390309086906004016110ad565b6020604051808303816000875af1158015610925573d6000803e3d6000fd5b505050506040513d601f19601f8201168201806040525081019061094991906110d1565b50806001600082825461095c919061114a565b9091555061096b905081610e76565b336000818152600460209081526040808320805460ff191660011790556003909152808220429055517fa37192df86fa67271dc1f2281b6305c64e57625c81b4887f7308608979ada21a9190a250565b6005546040516370a0823160e01b81526000916001600160a01b0316906370a08231906109ec903390600401611010565b602060405180830381865afa158015610a09573d6000803e3d6000fd5b505050506040513d601f19601f82011682018060405250810190610a2d9190611094565b905090565b6000808260016000828254610a47919061114a565b91829055506001819055949350505050565b33610a62610572565b6001600160a01b031614610a885760405162461bcd60e51b81526004016102229061105f565b6001600160a01b038116610aed5760405162461bcd60e51b815260206004820152602660248201527f4f776e61626c653a206e6577206f776e657220697320746865207a65726f206160448201526564647265737360d01b6064820152608401610222565b610617815b600080546001600160a01b038381166001600160a01b0319831681178455604051919092169283917f8be0079c531659141344cd1fd0a4f28419497f9722a3daafe3b4186f6b6457e09190a35050565b6005546040516370a0823160e01b81526000916001600160a01b0316906370a0823190610b73903390600401611010565b602060405180830381865afa158015610b90573d6000803e3d6000fd5b505050506040513d601f19601f82011682018060405250810190610bb49190611094565b11610bd15760405162461bcd60e51b815260040161022290611162565b600554604080516318160ddd60e01b815290516000926001600160a01b0316916318160ddd9160048083019260209291908290030181865afa158015610c1b573d6000803e3d6000fd5b505050506040513d601f19601f82011682018060405250810190610c3f9190611094565b9050600081600154610c519190611128565b6005546040516370a0823160e01b81529192506000916001600160a01b03909116906370a0823190610c87903390600401611010565b602060405180830381865afa158015610ca4573d6000803e3d6000fd5b505050506040513d601f19601f82011682018060405250810190610cc89190611094565b90506000610cd68383611109565b90506000610ce48487611128565b905085821015610d2b5760405162461bcd60e51b81526020600482015260126024820152714e6f7420656e6f7567682062616c616e636560701b6044820152606401610222565b6005546040516370a0823160e01b815282916001600160a01b0316906370a0823190610d5b903390600401611010565b602060405180830381865afa158015610d78573d6000803e3d6000fd5b505050506040513d601f19601f82011682018060405250810190610d9c9190611094565b11610db95760405162461bcd60e51b815260040161022290611162565b60008560015488610dca9190611109565b610dd49190611128565b90508060016000828254610de8919061118e565b90915550610df7905082610f2a565b60065460405163a9059cbb60e01b8152336004820152602481018390526001600160a01b039091169063a9059cbb906044016020604051808303816000875af1158015610e48573d6000803e3d6000fd5b505050506040513d601f19601f82011682018060405250810190610e6c91906110d1565b5050505050505050565b600080600560009054906101000a90046001600160a01b03166001600160a01b03166318160ddd6040518163ffffffff1660e01b8152600401602060405180830381865afa158015610ecc573d6000803e3d6000fd5b505050506040513d601f19601f82011682018060405250810190610ef09190611094565b905080610f0857829150610f0382610f94565b505050565b600154610f158285611109565b610f1f9190611128565b9150610f0382610f94565b600554604051633f34d4cf60e21b81526001600160a01b0390911690819063fcd3533c90610f5e90859033906004016111a5565b600060405180830381600087803b158015610f7857600080fd5b505af1158015610f8c573d6000803e3d6000fd5b505050505050565b6005546040516394bf804d60e01b81526001600160a01b039091169081906394bf804d90610f5e90859033906004016111a5565b80356001600160a01b0381168114610fdf57600080fd5b919050565b60008060408385031215610ff757600080fd5b8235915061100760208401610fc8565b90509250929050565b6001600160a01b0391909116815260200190565b60006020828403121561103657600080fd5b61103f82610fc8565b9392505050565b60006020828403121561105857600080fd5b5035919050565b6020808252818101527f4f776e61626c653a2063616c6c6572206973206e6f7420746865206f776e6572604082015260600190565b6000602082840312156110a657600080fd5b5051919050565b6001600160a01b039384168152919092166020820152604081019190915260600190565b6000602082840312156110e357600080fd5b8151801515811461103f57600080fd5b634e487b7160e01b600052601160045260246000fd5b6000816000190483118215151615611123576111236110f3565b500290565b60008261114557634e487b7160e01b600052601260045260246000fd5b500490565b6000821982111561115d5761115d6110f3565b500190565b6020808252601290820152712737ba10309039b430b932903437b63232b960711b604082015260600190565b6000828210156111a0576111a06110f3565b500390565b9182526001600160a01b031660208201526040019056fea2646970667358221220721de727a49f41d288fdc21ce5d2ae53c734a88f467ba94445d0de7a54cf980264736f6c634300080b003360a06040523480156200001157600080fd5b506040516200107f3803806200107f8339810160408190526200003491620001d9565b604080518082018252601381527f50696361726479205661756c7420546f6b656e000000000000000000000000006020808301918252835180850190945260078452662b29aa37b5b2b760c91b908401528151919291620000989160039162000133565b508051620000ae90600490602084019062000133565b505050620000cb620000c5620000dd60201b60201c565b620000e1565b6001600160a01b031660805262000248565b3390565b600580546001600160a01b038381166001600160a01b0319831681179093556040519116919082907f8be0079c531659141344cd1fd0a4f28419497f9722a3daafe3b4186f6b6457e090600090a35050565b82805462000141906200020b565b90600052602060002090601f016020900481019282620001655760008555620001b0565b82601f106200018057805160ff1916838001178555620001b0565b82800160010185558215620001b0579182015b82811115620001b057825182559160200191906001019062000193565b50620001be929150620001c2565b5090565b5b80821115620001be5760008155600101620001c3565b600060208284031215620001ec57600080fd5b81516001600160a01b03811681146200020457600080fd5b9392505050565b600181811c908216806200022057607f821691505b602082108114156200024257634e487b7160e01b600052602260045260246000fd5b50919050565b608051610e146200026b6000396000818161016d01526104750152610e146000f3fe608060405234801561001057600080fd5b50600436106100db5760003560e01c806306fdde03146100e0578063095ea7b3146100fe57806318160ddd1461012157806323b872dd14610133578063313ce567146101465780633950935114610155578063411557d11461016857806370a082311461019c578063715018a6146101c55780638da5cb5b146101cf57806394bf804d146101d757806395d89b41146101ea578063a457c2d7146101f2578063a9059cbb14610205578063dd62ed3e14610218578063f2fde38b1461022b578063fcd3533c1461023e575b600080fd5b6100e8610251565b6040516100f59190610ba6565b60405180910390f35b61011161010c366004610c17565b6102e3565b60405190151581526020016100f5565b6002545b6040519081526020016100f5565b610111610141366004610c41565b6102fb565b604051601281526020016100f5565b610111610163366004610c17565b61031f565b61018f7f000000000000000000000000000000000000000000000000000000000000000081565b6040516100f59190610c7d565b6101256101aa366004610c91565b6001600160a01b031660009081526020819052604090205490565b6101cd610341565b005b61018f610385565b6101cd6101e5366004610cb3565b610394565b6100e86103d1565b610111610200366004610c17565b6103e0565b610111610213366004610c17565b61045b565b610125610226366004610cdf565b6104e6565b6101cd610239366004610c91565b610511565b6101cd61024c366004610cb3565b6105b1565b60606003805461026090610d09565b80601f016020809104026020016040519081016040528092919081815260200182805461028c90610d09565b80156102d95780601f106102ae576101008083540402835291602001916102d9565b820191906000526020600020905b8154815290600101906020018083116102bc57829003601f168201915b5050505050905090565b6000336102f18185856105ea565b5060019392505050565b60003361030985828561070f565b610314858585610789565b506001949350505050565b6000336102f181858561033283836104e6565b61033c9190610d5a565b6105ea565b3361034a610385565b6001600160a01b0316146103795760405162461bcd60e51b815260040161037090610d72565b60405180910390fd5b6103836000610945565b565b6005546001600160a01b031690565b3361039d610385565b6001600160a01b0316146103c35760405162461bcd60e51b815260040161037090610d72565b6103cd8183610997565b5050565b60606004805461026090610d09565b600033816103ee82866104e6565b90508381101561044e5760405162461bcd60e51b815260206004820152602560248201527f45524332303a2064656372656173656420616c6c6f77616e63652062656c6f77604482015264207a65726f60d81b6064820152608401610370565b61031482868684036105ea565b6040516336751e6960e21b81526000906001600160a01b037f0000000000000000000000000000000000000000000000000000000000000000169063d9d479a4906104aa908690600401610c7d565b600060405180830381600087803b1580156104c457600080fd5b505af11580156104d8573d6000803e3d6000fd5b505050506102f18383610a64565b6001600160a01b03918216600090815260016020908152604080832093909416825291909152205490565b3361051a610385565b6001600160a01b0316146105405760405162461bcd60e51b815260040161037090610d72565b6001600160a01b0381166105a55760405162461bcd60e51b815260206004820152602660248201527f4f776e61626c653a206e6577206f776e657220697320746865207a65726f206160448201526564647265737360d01b6064820152608401610370565b6105ae81610945565b50565b336105ba610385565b6001600160a01b0316146105e05760405162461bcd60e51b815260040161037090610d72565b6103cd8183610a72565b6001600160a01b03831661064c5760405162461bcd60e51b8152602060048201526024808201527f45524332303a20617070726f76652066726f6d20746865207a65726f206164646044820152637265737360e01b6064820152608401610370565b6001600160a01b0382166106ad5760405162461bcd60e51b815260206004820152602260248201527f45524332303a20617070726f766520746f20746865207a65726f206164647265604482015261737360f01b6064820152608401610370565b6001600160a01b0383811660008181526001602090815260408083209487168084529482529182902085905590518481527f8c5be1e5ebec7d5bd14f71427d1e84f3dd0314c0f7b2291e5b200ac8c7c3b92591015b60405180910390a3505050565b600061071b84846104e6565b9050600019811461078357818110156107765760405162461bcd60e51b815260206004820152601d60248201527f45524332303a20696e73756666696369656e7420616c6c6f77616e63650000006044820152606401610370565b61078384848484036105ea565b50505050565b6001600160a01b0383166107ed5760405162461bcd60e51b815260206004820152602560248201527f45524332303a207472616e736665722066726f6d20746865207a65726f206164604482015264647265737360d81b6064820152608401610370565b6001600160a01b03821661084f5760405162461bcd60e51b815260206004820152602360248201527f45524332303a207472616e7366657220746f20746865207a65726f206164647260448201526265737360e81b6064820152608401610370565b6001600160a01b038316600090815260208190526040902054818110156108c75760405162461bcd60e51b815260206004820152602660248201527f45524332303a207472616e7366657220616d6f756e7420657863656564732062604482015265616c616e636560d01b6064820152608401610370565b6001600160a01b038085166000908152602081905260408082208585039055918516815290812080548492906108fe908490610d5a565b92505081905550826001600160a01b0316846001600160a01b0316600080516020610dbf8339815191528460405161093891815260200190565b60405180910390a3610783565b600580546001600160a01b038381166001600160a01b0319831681179093556040519116919082907f8be0079c531659141344cd1fd0a4f28419497f9722a3daafe3b4186f6b6457e090600090a35050565b6001600160a01b0382166109ed5760405162461bcd60e51b815260206004820152601f60248201527f45524332303a206d696e7420746f20746865207a65726f2061646472657373006044820152606401610370565b80600260008282546109ff9190610d5a565b90915550506001600160a01b03821660009081526020819052604081208054839290610a2c908490610d5a565b90915550506040518181526001600160a01b03831690600090600080516020610dbf8339815191529060200160405180910390a35050565b6000336102f1818585610789565b6001600160a01b038216610ad25760405162461bcd60e51b815260206004820152602160248201527f45524332303a206275726e2066726f6d20746865207a65726f206164647265736044820152607360f81b6064820152608401610370565b6001600160a01b03821660009081526020819052604090205481811015610b465760405162461bcd60e51b815260206004820152602260248201527f45524332303a206275726e20616d6f756e7420657863656564732062616c616e604482015261636560f01b6064820152608401610370565b6001600160a01b0383166000908152602081905260408120838303905560028054849290610b75908490610da7565b90915550506040518281526000906001600160a01b03851690600080516020610dbf83398151915290602001610702565b600060208083528351808285015260005b81811015610bd357858101830151858201604001528201610bb7565b81811115610be5576000604083870101525b50601f01601f1916929092016040019392505050565b80356001600160a01b0381168114610c1257600080fd5b919050565b60008060408385031215610c2a57600080fd5b610c3383610bfb565b946020939093013593505050565b600080600060608486031215610c5657600080fd5b610c5f84610bfb565b9250610c6d60208501610bfb565b9150604084013590509250925092565b6001600160a01b0391909116815260200190565b600060208284031215610ca357600080fd5b610cac82610bfb565b9392505050565b60008060408385031215610cc657600080fd5b82359150610cd660208401610bfb565b90509250929050565b60008060408385031215610cf257600080fd5b610cfb83610bfb565b9150610cd660208401610bfb565b600181811c90821680610d1d57607f821691505b60208210811415610d3e57634e487b7160e01b600052602260045260246000fd5b50919050565b634e487b7160e01b600052601160045260246000fd5b60008219821115610d6d57610d6d610d44565b500190565b6020808252818101527f4f776e61626c653a2063616c6c6572206973206e6f7420746865206f776e6572604082015260600190565b600082821015610db957610db9610d44565b50039056feddf252ad1be2c89b69c2b068fc378daa952ba7f163c4a11628f55a4df523b3efa26469706673582212205991d1386ec57b7c1c59c4cd80c9c05661264a4c0b02ac2148545afbb024783c64736f6c634300080b0033",
  "immutableReferences": {
    "12510": [
      {
        "length": 32,
        "start": 292
      },
      {
        "length": 32,
        "start": 580
      },
      {
        "length": 32,
        "start": 732
      }
    ]
  },
  "source": "/**\r\n    @author Blok Hamster \r\n */\r\n\r\n// SPDX-License-Identifier: MIT\r\npragma solidity ^0.8.4;\r\npragma experimental ABIEncoderV2;\r\n\r\nimport \"../Tokens/VSToken.sol\";\r\nimport \"@openzeppelin/contracts/token/ERC20/IERC20.sol\";\r\nimport \"@openzeppelin/contracts/access/Ownable.sol\";\r\n\r\n\r\ncontract PicardyVault is Ownable {\r\n\r\n    event FundsWithdrawn(uint indexed amount, address indexed to);\r\n    event NewFundInvestor(address indexed investor);\r\n    event SharesIncreased(address indexed investor, uint indexed amount);\r\n   \r\n    uint public vaultBalance;\r\n    uint lockPeriod = 30 days;\r\n    \r\n    //mapping (address => uint) UserShares;\r\n    mapping (address => uint) UserLastDeposit;\r\n    mapping (address => bool) isVaultMember;\r\n\r\n    \r\n    IERC20 public immutable VAULT_TOKEN;\r\n    VSToken vsToken;\r\n    address vaultToken;\r\n\r\n    constructor (address _vaultToken){\r\n        VAULT_TOKEN = IERC20(_vaultToken);\r\n        vaultToken = _vaultToken;\r\n        _start();\r\n    }\r\n\r\n   // function approveSpend(uint _amount) external {\r\n        //require(VAULT_TOKEN.balanceOf(msg.sender) >= _amount);\r\n        //VAULT_TOKEN.approve(address(this), _amount);\r\n        //IERC20(vaultToken).approve(address(this), _amount);\r\n    //}\r\n\r\n    /**\r\n    \r\n    */\r\n    function joinVault(uint _amount) external {\r\n        require(IERC20(vaultToken).balanceOf(msg.sender) > _amount); \r\n        \r\n        //VAULT_TOKEN.transferFrom(msg.sender, address(this), _amount);\r\n        IERC20(vaultToken).transferFrom(msg.sender, address(this), _amount);\r\n        vaultBalance += _amount;\r\n        _mintShares(_amount);\r\n        isVaultMember[msg.sender] = true;\r\n        UserLastDeposit[msg.sender] = block.timestamp;\r\n\r\n        emit NewFundInvestor(msg.sender);\r\n    }\r\n\r\n    function increaseShares(uint _amount) external {\r\n        require(isVaultMember[msg.sender] == true, \"Not A Vault Member\");\r\n        require(IERC20(vaultToken).balanceOf(msg.sender) > _amount, \"Not Enough Token\");\r\n        \r\n        IERC20(vaultToken).transferFrom(msg.sender, address(this), _amount);\r\n        vaultBalance += _amount;\r\n        _mintShares(_amount);\r\n\r\n        isVaultMember[msg.sender] = true;\r\n        UserLastDeposit[msg.sender] = block.timestamp;\r\n\r\n        emit SharesIncreased(msg.sender, _amount);\r\n    }\r\n\r\n    function getSharesValue() external view returns (uint){\r\n        uint totalSupply = (IERC20(vsToken).totalSupply());\r\n        uint sharesBalance = IERC20(vsToken).balanceOf(msg.sender);\r\n        uint shareValue = (sharesBalance * vaultBalance) / totalSupply;\r\n\r\n        return shareValue;\r\n    }\r\n\r\n\r\n    /**\r\n    \r\n     */\r\n    function shareHolderWidrawal(uint _amount) external {\r\n        _burnShares(_amount);\r\n\r\n        if(IERC20(vsToken).balanceOf(msg.sender) == 0){\r\n            isVaultMember[msg.sender] = false;\r\n        }\r\n    }\r\n\r\n    function withdraw(uint _amount, address _to) external onlyOwner{\r\n        require(IERC20(VAULT_TOKEN).balanceOf(address(this)) >= _amount);\r\n        IERC20(VAULT_TOKEN).transferFrom(address(this), _to, _amount);\r\n\r\n        emit FundsWithdrawn(_amount , _to);\r\n    }\r\n\r\n    function transferUpdate(address _newVaultMember) external {\r\n        require(msg.sender == address(vsToken));\r\n        isVaultMember[_newVaultMember] = true;\r\n        UserLastDeposit[_newVaultMember] = block.timestamp;\r\n\r\n    }\r\n\r\n    function updateVaultBalance(uint _amount) external returns(uint){\r\n        uint newVaultBalance = vaultBalance += _amount;\r\n        vaultBalance = newVaultBalance;\r\n\r\n        return newVaultBalance;\r\n    }\r\n\r\n    function isShareHolder(address _shareHoler) external view returns(uint){\r\n        uint side;\r\n        if(IERC20(address(vsToken)).balanceOf(_shareHoler) > 0){\r\n            side = 1;\r\n        } else {\r\n            side = 0;\r\n        }\r\n\r\n        return side;\r\n    }\r\n\r\n    function getVaultBalance() external view returns(uint){\r\n        return vaultBalance;\r\n    }\r\n\r\n    /**\r\n    \r\n     */\r\n    function getShareAmount() external view returns(uint){\r\n        return IERC20(vsToken).balanceOf(msg.sender);\r\n    }\r\n\r\n    /**\r\n    \r\n     */\r\n   \r\n    function getVaultSharesAddress() external view returns(address){\r\n        return address(vsToken);\r\n    }\r\n\r\n    \r\n    // SEND TO COMPOUND FINANCE//\r\n\r\n    /**\r\n    \r\n     */\r\n    function supplyTo() internal {\r\n\r\n    }\r\n\r\n\r\n    /**\r\n    \r\n     */\r\n    function returnFrom() internal {\r\n\r\n    }\r\n\r\n    \r\n    // INTERNAL FUNCTIONS//\r\n\r\n    /**\r\n    \r\n     */\r\n    function _start() internal {\r\n        VSToken newVSToken = new VSToken(address(this));\r\n        vsToken = newVSToken; \r\n    }\r\n\r\n    \r\n    /**\r\n        The vault shares mint calculation\r\n        a = amount\r\n        b = balance before mint \r\n        t = total supply of shares\r\n        s = shares to mint \r\n\r\n        s = at/b\r\n    */\r\n    function _mintShares(uint _amount) internal {\r\n        uint shares;\r\n        uint totalSupply = IERC20(vsToken).totalSupply();\r\n\r\n        if(totalSupply == 0 ){\r\n            shares = _amount;\r\n            _mint(shares);\r\n        } else {\r\n            shares = (_amount * totalSupply) / vaultBalance;\r\n            _mint(shares);\r\n        }\r\n       \r\n    }\r\n\r\n    /**\r\n    \r\n     */\r\n    function _mint(uint _amount) internal {\r\n        VSToken newVSToken = VSToken(vsToken);\r\n        newVSToken.mint(_amount, msg.sender);\r\n    }\r\n\r\n\r\n    /**\r\n        The vault shares burn calculation\r\n        a = amount\r\n        b = balance before burn \r\n        t = total supply of shares\r\n        s = shares to burn \r\n\r\n        a = sb/t\r\n    */\r\n    function _burnShares(uint _amount) internal {\r\n        require(IERC20(vsToken).balanceOf(msg.sender) > 0, \"Not a share holder\");\r\n        uint totalSupply = IERC20(vsToken).totalSupply();\r\n        uint valuePerShare = vaultBalance/totalSupply; \r\n        uint userShares = IERC20(vsToken).balanceOf(msg.sender);\r\n        uint userShareValue = userShares * valuePerShare;\r\n        uint sharesToBurn = _amount/ valuePerShare;\r\n        require(userShareValue >= _amount, \"Not enough balance\");\r\n        \r\n        require(IERC20(vsToken).balanceOf(msg.sender) > sharesToBurn, \"Not a share holder\");\r\n        uint toWithdraw = (_amount * vaultBalance) / totalSupply;\r\n        vaultBalance -= toWithdraw;\r\n        _burn(sharesToBurn);\r\n        IERC20(vaultToken).transfer(msg.sender, toWithdraw);\r\n\r\n    }\r\n\r\n    /**\r\n    \r\n     */\r\n    function _burn(uint _amount) internal {\r\n        VSToken newVSToken = VSToken(vsToken);\r\n        newVSToken.burn(_amount, msg.sender);\r\n    }\r\n\r\n}\r\n\r\ninterface IPicardyVault{\r\n    \r\n    function transferUpdate(address _newVaultMember) external;\r\n    \r\n    function vaultOwnerWithdraw(uint _amount) external;\r\n    \r\n    function getShareAmount() external view returns(uint);\r\n    \r\n    function getSharesValue() external view returns(uint);\r\n\r\n    function getVaultBalance() external view returns(uint);\r\n\r\n}",
  "sourcePath": "C:\\Users\\USER\\Desktop\\Projects\\Picardy_Protocol\\contracts\\Products\\PicardyVault.sol",
  "compiler": {
    "name": "solc",
    "version": "0.8.11+commit.d7f03943.Emscripten.clang"
  },
  "schemaVersion": "3.4.6",
  "updatedAt": "2022-08-18T20:31:17.268Z",
  "devdoc": {
    "kind": "dev",
    "methods": {
      "owner()": {
        "details": "Returns the address of the current owner."
      },
      "renounceOwnership()": {
        "details": "Leaves the contract without owner. It will not be possible to call `onlyOwner` functions anymore. Can only be called by the current owner. NOTE: Renouncing ownership will leave the contract without an owner, thereby removing any functionality that is only available to the owner."
      },
      "transferOwnership(address)": {
        "details": "Transfers ownership of the contract to a new account (`newOwner`). Can only be called by the current owner."
      }
    },
    "version": 1
  },
  "userdoc": {
    "kind": "user",
    "methods": {},
    "version": 1
  }
}