{
  "contractName": "PicardyArtiste",
  "abi": [
    {
      "inputs": [
        {
          "internalType": "address",
          "name": "_artisteAddress",
          "type": "address"
        },
        {
          "internalType": "string",
          "name": "_artisteName",
          "type": "string"
        },
        {
          "internalType": "string",
          "name": "_artisteHandle",
          "type": "string"
        }
      ],
      "stateMutability": "nonpayable",
      "type": "constructor"
    },
    {
      "anonymous": false,
      "inputs": [
        {
          "indexed": true,
          "internalType": "address",
          "name": "owner",
          "type": "address"
        },
        {
          "indexed": true,
          "internalType": "address",
          "name": "approved",
          "type": "address"
        },
        {
          "indexed": true,
          "internalType": "uint256",
          "name": "tokenId",
          "type": "uint256"
        }
      ],
      "name": "Approval",
      "type": "event"
    },
    {
      "anonymous": false,
      "inputs": [
        {
          "indexed": true,
          "internalType": "address",
          "name": "owner",
          "type": "address"
        },
        {
          "indexed": true,
          "internalType": "address",
          "name": "operator",
          "type": "address"
        },
        {
          "indexed": false,
          "internalType": "bool",
          "name": "approved",
          "type": "bool"
        }
      ],
      "name": "ApprovalForAll",
      "type": "event"
    },
    {
      "anonymous": false,
      "inputs": [
        {
          "indexed": true,
          "internalType": "address",
          "name": "previousOwner",
          "type": "address"
        },
        {
          "indexed": true,
          "internalType": "address",
          "name": "newOwner",
          "type": "address"
        }
      ],
      "name": "OwnershipTransferred",
      "type": "event"
    },
    {
      "anonymous": false,
      "inputs": [
        {
          "indexed": true,
          "internalType": "address",
          "name": "from",
          "type": "address"
        },
        {
          "indexed": true,
          "internalType": "address",
          "name": "to",
          "type": "address"
        },
        {
          "indexed": true,
          "internalType": "uint256",
          "name": "tokenId",
          "type": "uint256"
        }
      ],
      "name": "Transfer",
      "type": "event"
    },
    {
      "inputs": [
        {
          "internalType": "address",
          "name": "to",
          "type": "address"
        },
        {
          "internalType": "uint256",
          "name": "tokenId",
          "type": "uint256"
        }
      ],
      "name": "approve",
      "outputs": [],
      "stateMutability": "nonpayable",
      "type": "function"
    },
    {
      "inputs": [
        {
          "internalType": "address",
          "name": "owner",
          "type": "address"
        }
      ],
      "name": "balanceOf",
      "outputs": [
        {
          "internalType": "uint256",
          "name": "",
          "type": "uint256"
        }
      ],
      "stateMutability": "view",
      "type": "function"
    },
    {
      "inputs": [],
      "name": "baseExtension",
      "outputs": [
        {
          "internalType": "string",
          "name": "",
          "type": "string"
        }
      ],
      "stateMutability": "view",
      "type": "function"
    },
    {
      "inputs": [
        {
          "internalType": "uint256",
          "name": "tokenId",
          "type": "uint256"
        }
      ],
      "name": "getApproved",
      "outputs": [
        {
          "internalType": "address",
          "name": "",
          "type": "address"
        }
      ],
      "stateMutability": "view",
      "type": "function"
    },
    {
      "inputs": [
        {
          "internalType": "address",
          "name": "owner",
          "type": "address"
        },
        {
          "internalType": "address",
          "name": "operator",
          "type": "address"
        }
      ],
      "name": "isApprovedForAll",
      "outputs": [
        {
          "internalType": "bool",
          "name": "",
          "type": "bool"
        }
      ],
      "stateMutability": "view",
      "type": "function"
    },
    {
      "inputs": [],
      "name": "name",
      "outputs": [
        {
          "internalType": "string",
          "name": "",
          "type": "string"
        }
      ],
      "stateMutability": "view",
      "type": "function"
    },
    {
      "inputs": [],
      "name": "owner",
      "outputs": [
        {
          "internalType": "address",
          "name": "",
          "type": "address"
        }
      ],
      "stateMutability": "view",
      "type": "function"
    },
    {
      "inputs": [
        {
          "internalType": "uint256",
          "name": "tokenId",
          "type": "uint256"
        }
      ],
      "name": "ownerOf",
      "outputs": [
        {
          "internalType": "address",
          "name": "",
          "type": "address"
        }
      ],
      "stateMutability": "view",
      "type": "function"
    },
    {
      "inputs": [],
      "name": "renounceOwnership",
      "outputs": [],
      "stateMutability": "nonpayable",
      "type": "function"
    },
    {
      "inputs": [
        {
          "internalType": "address",
          "name": "from",
          "type": "address"
        },
        {
          "internalType": "address",
          "name": "to",
          "type": "address"
        },
        {
          "internalType": "uint256",
          "name": "tokenId",
          "type": "uint256"
        }
      ],
      "name": "safeTransferFrom",
      "outputs": [],
      "stateMutability": "nonpayable",
      "type": "function"
    },
    {
      "inputs": [
        {
          "internalType": "address",
          "name": "from",
          "type": "address"
        },
        {
          "internalType": "address",
          "name": "to",
          "type": "address"
        },
        {
          "internalType": "uint256",
          "name": "tokenId",
          "type": "uint256"
        },
        {
          "internalType": "bytes",
          "name": "_data",
          "type": "bytes"
        }
      ],
      "name": "safeTransferFrom",
      "outputs": [],
      "stateMutability": "nonpayable",
      "type": "function"
    },
    {
      "inputs": [
        {
          "internalType": "address",
          "name": "operator",
          "type": "address"
        },
        {
          "internalType": "bool",
          "name": "approved",
          "type": "bool"
        }
      ],
      "name": "setApprovalForAll",
      "outputs": [],
      "stateMutability": "nonpayable",
      "type": "function"
    },
    {
      "inputs": [
        {
          "internalType": "bytes4",
          "name": "interfaceId",
          "type": "bytes4"
        }
      ],
      "name": "supportsInterface",
      "outputs": [
        {
          "internalType": "bool",
          "name": "",
          "type": "bool"
        }
      ],
      "stateMutability": "view",
      "type": "function"
    },
    {
      "inputs": [],
      "name": "symbol",
      "outputs": [
        {
          "internalType": "string",
          "name": "",
          "type": "string"
        }
      ],
      "stateMutability": "view",
      "type": "function"
    },
    {
      "inputs": [
        {
          "internalType": "uint256",
          "name": "tokenId",
          "type": "uint256"
        }
      ],
      "name": "tokenURI",
      "outputs": [
        {
          "internalType": "string",
          "name": "",
          "type": "string"
        }
      ],
      "stateMutability": "view",
      "type": "function"
    },
    {
      "inputs": [
        {
          "internalType": "address",
          "name": "from",
          "type": "address"
        },
        {
          "internalType": "address",
          "name": "to",
          "type": "address"
        },
        {
          "internalType": "uint256",
          "name": "tokenId",
          "type": "uint256"
        }
      ],
      "name": "transferFrom",
      "outputs": [],
      "stateMutability": "nonpayable",
      "type": "function"
    },
    {
      "inputs": [
        {
          "internalType": "address",
          "name": "newOwner",
          "type": "address"
        }
      ],
      "name": "transferOwnership",
      "outputs": [],
      "stateMutability": "nonpayable",
      "type": "function"
    },
    {
      "inputs": [
        {
          "internalType": "uint256",
          "name": "_productId",
          "type": "uint256"
        },
        {
          "internalType": "address",
          "name": "_productAddress",
          "type": "address"
        }
      ],
      "name": "addProduct",
      "outputs": [],
      "stateMutability": "nonpayable",
      "type": "function"
    },
    {
      "inputs": [
        {
          "internalType": "string",
          "name": "_newBaseURI",
          "type": "string"
        }
      ],
      "name": "setBaseURI",
      "outputs": [],
      "stateMutability": "nonpayable",
      "type": "function"
    },
    {
      "inputs": [
        {
          "internalType": "uint256",
          "name": "_productId",
          "type": "uint256"
        }
      ],
      "name": "getProductsById",
      "outputs": [
        {
          "internalType": "address[]",
          "name": "",
          "type": "address[]"
        }
      ],
      "stateMutability": "view",
      "type": "function"
    },
    {
      "inputs": [],
      "name": "getAllProducts",
      "outputs": [
        {
          "internalType": "address[]",
          "name": "",
          "type": "address[]"
        }
      ],
      "stateMutability": "view",
      "type": "function"
    },
    {
      "inputs": [],
      "name": "getArtiste",
      "outputs": [
        {
          "internalType": "address",
          "name": "",
          "type": "address"
        }
      ],
      "stateMutability": "view",
      "type": "function"
    }
  ],
  "bytecode": "0x60c06040526005608081905264173539b7b760d91b60a09081526200002891600a9190620002a4565b503480156200003657600080fd5b5060405162001d3b38038062001d3b833981016040819052620000599162000417565b81518290829062000072906000906020850190620002a4565b50805162000088906001906020840190620002a4565b505050620000a56200009f6200010260201b60201c565b62000106565b600780546001600160a01b0319166001600160a01b0385161790558151620000d5906008906020850190620002a4565b508051620000eb906009906020840190620002a4565b50620000f983600062000158565b50505062000505565b3390565b600680546001600160a01b038381166001600160a01b0319831681179093556040519116919082907f8be0079c531659141344cd1fd0a4f28419497f9722a3daafe3b4186f6b6457e090600090a35050565b6001600160a01b038216620001b45760405162461bcd60e51b815260206004820181905260248201527f4552433732313a206d696e7420746f20746865207a65726f206164647265737360448201526064015b60405180910390fd5b6000818152600260205260409020546001600160a01b0316156200021b5760405162461bcd60e51b815260206004820152601c60248201527f4552433732313a20746f6b656e20616c7265616479206d696e746564000000006044820152606401620001ab565b6001600160a01b038216600090815260036020526040812080546001929062000246908490620004a1565b909155505060008181526002602052604080822080546001600160a01b0319166001600160a01b03861690811790915590518392907fddf252ad1be2c89b69c2b068fc378daa952ba7f163c4a11628f55a4df523b3ef908290a45050565b828054620002b290620004c8565b90600052602060002090601f016020900481019282620002d6576000855562000321565b82601f10620002f157805160ff191683800117855562000321565b8280016001018555821562000321579182015b828111156200032157825182559160200191906001019062000304565b506200032f92915062000333565b5090565b5b808211156200032f576000815560010162000334565b634e487b7160e01b600052604160045260246000fd5b600082601f8301126200037257600080fd5b81516001600160401b03808211156200038f576200038f6200034a565b604051601f8301601f19908116603f01168101908282118183101715620003ba57620003ba6200034a565b81604052838152602092508683858801011115620003d757600080fd5b600091505b83821015620003fb5785820183015181830184015290820190620003dc565b838211156200040d5760008385830101525b9695505050505050565b6000806000606084860312156200042d57600080fd5b83516001600160a01b03811681146200044557600080fd5b60208501519093506001600160401b03808211156200046357600080fd5b620004718783880162000360565b935060408601519150808211156200048857600080fd5b50620004978682870162000360565b9150509250925092565b60008219821115620004c357634e487b7160e01b600052601160045260246000fd5b500190565b600181811c90821680620004dd57607f821691505b60208210811415620004ff57634e487b7160e01b600052602260045260246000fd5b50919050565b61182680620005156000396000f3fe608060405234801561001057600080fd5b50600436106101125760003560e01c806301ffc9a71461011757806302ee3a521461013f57806306fdde0314610154578063081812fc14610169578063095ea7b31461019457806323b872dd146101a95780633314cb8f146101bc57806342842e0e146101cf57806355f804b3146101e25780636352211e146101f557806370a0823114610208578063715018a6146102295780638da5cb5b1461023157806395d89b4114610239578063a22cb46514610241578063b88d4fde14610254578063c668286214610267578063c87b56dd1461026f578063dd57cd4614610282578063de4e49ca14610295578063e985e9c5146102a6578063f2fde38b146102b9575b600080fd5b61012a610125366004611235565b6102cc565b60405190151581526020015b60405180910390f35b61014761031e565b6040516101369190611252565b61015c610380565b60405161013691906112f7565b61017c61017736600461130a565b610409565b6040516001600160a01b039091168152602001610136565b6101a76101a236600461133f565b610496565b005b6101a76101b7366004611369565b6105a7565b6101476101ca36600461130a565b6105d8565b6101a76101dd366004611369565b610644565b6101a76101f0366004611430565b61065f565b61017c61020336600461130a565b6106a5565b61021b610216366004611478565b61071c565b604051908152602001610136565b6101a76107a3565b61017c6107de565b61015c6107ed565b6101a761024f366004611493565b6107fc565b6101a76102623660046114cf565b610807565b61015c61083f565b61015c61027d36600461130a565b6108cd565b6101a761029036600461154a565b6109a5565b6007546001600160a01b031661017c565b61012a6102b4366004611576565b610a7c565b6101a76102c7366004611478565b610aaa565b60006001600160e01b031982166380ac58cd60e01b14806102fd57506001600160e01b03198216635b5e139f60e01b145b8061031857506301ffc9a760e01b6001600160e01b03198316145b92915050565b6060600e80548060200260200160405190810160405280929190818152602001828054801561037657602002820191906000526020600020905b81546001600160a01b03168152600190910190602001808311610358575b5050505050905090565b60606000805461038f906115a0565b80601f01602080910402602001604051908101604052809291908181526020018280546103bb906115a0565b80156103765780601f106103dd57610100808354040283529160200191610376565b820191906000526020600020905b8154815290600101906020018083116103eb57509395945050505050565b600061041482610b4a565b61047a5760405162461bcd60e51b815260206004820152602c60248201527f4552433732313a20617070726f76656420717565727920666f72206e6f6e657860448201526b34b9ba32b73a103a37b5b2b760a11b60648201526084015b60405180910390fd5b506000908152600460205260409020546001600160a01b031690565b60006104a1826106a5565b9050806001600160a01b0316836001600160a01b0316141561050f5760405162461bcd60e51b815260206004820152602160248201527f4552433732313a20617070726f76616c20746f2063757272656e74206f776e656044820152603960f91b6064820152608401610471565b336001600160a01b038216148061052b575061052b8133610a7c565b6105985760405162461bcd60e51b815260206004820152603860248201527f4552433732313a20617070726f76652063616c6c6572206973206e6f74206f776044820152771b995c881b9bdc88185c1c1c9bdd995908199bdc88185b1b60421b6064820152608401610471565b6105a28383610b67565b505050565b6105b13382610bd5565b6105cd5760405162461bcd60e51b8152600401610471906115db565b6105a2838383610c9f565b6000818152600c602090815260409182902080548351818402810184019094528084526060939283018282801561063857602002820191906000526020600020905b81546001600160a01b0316815260019091019060200180831161061a575b50505050509050919050565b6105a283838360405180602001604052806000815250610807565b336106686107de565b6001600160a01b03161461068e5760405162461bcd60e51b81526004016104719061162c565b80516106a190600b906020840190611186565b5050565b6000818152600260205260408120546001600160a01b0316806103185760405162461bcd60e51b815260206004820152602960248201527f4552433732313a206f776e657220717565727920666f72206e6f6e657869737460448201526832b73a103a37b5b2b760b91b6064820152608401610471565b60006001600160a01b0382166107875760405162461bcd60e51b815260206004820152602a60248201527f4552433732313a2062616c616e636520717565727920666f7220746865207a65604482015269726f206164647265737360b01b6064820152608401610471565b506001600160a01b031660009081526003602052604090205490565b336107ac6107de565b6001600160a01b0316146107d25760405162461bcd60e51b81526004016104719061162c565b6107dc6000610e3b565b565b6006546001600160a01b031690565b60606001805461038f906115a0565b6106a1338383610e8d565b6108113383610bd5565b61082d5760405162461bcd60e51b8152600401610471906115db565b61083984848484610f58565b50505050565b600a805461084c906115a0565b80601f0160208091040260200160405190810160405280929190818152602001828054610878906115a0565b80156108c55780601f1061089a576101008083540402835291602001916108c5565b820191906000526020600020905b8154815290600101906020018083116108a857829003601f168201915b505050505081565b60606108d882610b4a565b61093c5760405162461bcd60e51b815260206004820152602f60248201527f4552433732314d657461646174613a2055524920717565727920666f72206e6f60448201526e3732bc34b9ba32b73a103a37b5b2b760891b6064820152608401610471565b600061095360408051602081019091526000815290565b90506000815111610973576040518060200160405280600081525061099e565b8061097d84610f8b565b60405160200161098e929190611661565b6040516020818303038152906040525b9392505050565b336109ae6107de565b6001600160a01b0316146109d45760405162461bcd60e51b81526004016104719061162c565b6000828152600d602052604090205460ff16156109f057600080fd5b6000828152600c602090815260408083208054600181810183559185528385200180546001600160a01b039096166001600160a01b03199687168117909155600e80548084019091557fbb7b4a454dc3493923482f07822329ed19e8244eff582cc204f8554c3620c3fd01805490961617909455938252600d905291909120805460ff19169091179055565b6001600160a01b03918216600090815260056020908152604080832093909416825291909152205460ff1690565b33610ab36107de565b6001600160a01b031614610ad95760405162461bcd60e51b81526004016104719061162c565b6001600160a01b038116610b3e5760405162461bcd60e51b815260206004820152602660248201527f4f776e61626c653a206e6577206f776e657220697320746865207a65726f206160448201526564647265737360d01b6064820152608401610471565b610b4781610e3b565b50565b6000908152600260205260409020546001600160a01b0316151590565b600081815260046020526040902080546001600160a01b0319166001600160a01b0384169081179091558190610b9c826106a5565b6001600160a01b03167f8c5be1e5ebec7d5bd14f71427d1e84f3dd0314c0f7b2291e5b200ac8c7c3b92560405160405180910390a45050565b6000610be082610b4a565b610c415760405162461bcd60e51b815260206004820152602c60248201527f4552433732313a206f70657261746f7220717565727920666f72206e6f6e657860448201526b34b9ba32b73a103a37b5b2b760a11b6064820152608401610471565b6000610c4c836106a5565b9050806001600160a01b0316846001600160a01b03161480610c735750610c738185610a7c565b80610c975750836001600160a01b0316610c8c84610409565b6001600160a01b0316145b949350505050565b826001600160a01b0316610cb2826106a5565b6001600160a01b031614610d165760405162461bcd60e51b815260206004820152602560248201527f4552433732313a207472616e736665722066726f6d20696e636f72726563742060448201526437bbb732b960d91b6064820152608401610471565b6001600160a01b038216610d785760405162461bcd60e51b8152602060048201526024808201527f4552433732313a207472616e7366657220746f20746865207a65726f206164646044820152637265737360e01b6064820152608401610471565b610d83600082610b67565b6001600160a01b0383166000908152600360205260408120805460019290610dac9084906116a6565b90915550506001600160a01b0382166000908152600360205260408120805460019290610dda9084906116bd565b909155505060008181526002602052604080822080546001600160a01b0319166001600160a01b0386811691821790925591518493918716917fddf252ad1be2c89b69c2b068fc378daa952ba7f163c4a11628f55a4df523b3ef91a4505050565b600680546001600160a01b038381166001600160a01b0319831681179093556040519116919082907f8be0079c531659141344cd1fd0a4f28419497f9722a3daafe3b4186f6b6457e090600090a35050565b816001600160a01b0316836001600160a01b03161415610eeb5760405162461bcd60e51b815260206004820152601960248201527822a9219b99189d1030b8383937bb32903a379031b0b63632b960391b6044820152606401610471565b6001600160a01b03838116600081815260056020908152604080832094871680845294825291829020805460ff191686151590811790915591519182527f17307eab39ab6107e8899845ad3d59bd9653f200f220920489ca2b5937696c31910160405180910390a3505050565b610f63848484610c9f565b610f6f84848484611088565b6108395760405162461bcd60e51b8152600401610471906116d5565b606081610faf5750506040805180820190915260018152600360fc1b602082015290565b8160005b8115610fd95780610fc381611727565b9150610fd29050600a83611758565b9150610fb3565b6000816001600160401b03811115610ff357610ff36113a5565b6040519080825280601f01601f19166020018201604052801561101d576020820181803683370190505b5090505b8415610c97576110326001836116a6565b915061103f600a8661176c565b61104a9060306116bd565b60f81b81838151811061105f5761105f611780565b60200101906001600160f81b031916908160001a905350611081600a86611758565b9450611021565b60006001600160a01b0384163b1561117b57604051630a85bd0160e11b81526001600160a01b0385169063150b7a02906110cc903390899088908890600401611796565b6020604051808303816000875af1925050508015611107575060408051601f3d908101601f19168201909252611104918101906117d3565b60015b611161573d808015611135576040519150601f19603f3d011682016040523d82523d6000602084013e61113a565b606091505b5080516111595760405162461bcd60e51b8152600401610471906116d5565b805181602001fd5b6001600160e01b031916630a85bd0160e11b149050610c97565b506001949350505050565b828054611192906115a0565b90600052602060002090601f0160209004810192826111b457600085556111fa565b82601f106111cd57805160ff19168380011785556111fa565b828001600101855582156111fa579182015b828111156111fa5782518255916020019190600101906111df565b5061120692915061120a565b5090565b5b80821115611206576000815560010161120b565b6001600160e01b031981168114610b4757600080fd5b60006020828403121561124757600080fd5b813561099e8161121f565b6020808252825182820181905260009190848201906040850190845b818110156112935783516001600160a01b03168352928401929184019160010161126e565b50909695505050505050565b60005b838110156112ba5781810151838201526020016112a2565b838111156108395750506000910152565b600081518084526112e381602086016020860161129f565b601f01601f19169290920160200192915050565b60208152600061099e60208301846112cb565b60006020828403121561131c57600080fd5b5035919050565b80356001600160a01b038116811461133a57600080fd5b919050565b6000806040838503121561135257600080fd5b61135b83611323565b946020939093013593505050565b60008060006060848603121561137e57600080fd5b61138784611323565b925061139560208501611323565b9150604084013590509250925092565b634e487b7160e01b600052604160045260246000fd5b60006001600160401b03808411156113d5576113d56113a5565b604051601f8501601f19908116603f011681019082821181831017156113fd576113fd6113a5565b8160405280935085815286868601111561141657600080fd5b858560208301376000602087830101525050509392505050565b60006020828403121561144257600080fd5b81356001600160401b0381111561145857600080fd5b8201601f8101841361146957600080fd5b610c97848235602084016113bb565b60006020828403121561148a57600080fd5b61099e82611323565b600080604083850312156114a657600080fd5b6114af83611323565b9150602083013580151581146114c457600080fd5b809150509250929050565b600080600080608085870312156114e557600080fd5b6114ee85611323565b93506114fc60208601611323565b92506040850135915060608501356001600160401b0381111561151e57600080fd5b8501601f8101871361152f57600080fd5b61153e878235602084016113bb565b91505092959194509250565b6000806040838503121561155d57600080fd5b8235915061156d60208401611323565b90509250929050565b6000806040838503121561158957600080fd5b61159283611323565b915061156d60208401611323565b600181811c908216806115b457607f821691505b602082108114156115d557634e487b7160e01b600052602260045260246000fd5b50919050565b60208082526031908201527f4552433732313a207472616e736665722063616c6c6572206973206e6f74206f6040820152701ddb995c881b9bdc88185c1c1c9bdd9959607a1b606082015260800190565b6020808252818101527f4f776e61626c653a2063616c6c6572206973206e6f7420746865206f776e6572604082015260600190565b6000835161167381846020880161129f565b83519083019061168781836020880161129f565b01949350505050565b634e487b7160e01b600052601160045260246000fd5b6000828210156116b8576116b8611690565b500390565b600082198211156116d0576116d0611690565b500190565b60208082526032908201527f4552433732313a207472616e7366657220746f206e6f6e20455243373231526560408201527131b2b4bb32b91034b6b83632b6b2b73a32b960711b606082015260800190565b600060001982141561173b5761173b611690565b5060010190565b634e487b7160e01b600052601260045260246000fd5b60008261176757611767611742565b500490565b60008261177b5761177b611742565b500690565b634e487b7160e01b600052603260045260246000fd5b6001600160a01b03858116825284166020820152604081018390526080606082018190526000906117c9908301846112cb565b9695505050505050565b6000602082840312156117e557600080fd5b815161099e8161121f56fea2646970667358221220506b1a13f09c02f839c29f07852d97b918a9ae220d3dc5f6aae06bbc9ef3fc1264736f6c634300080b0033",
  "immutableReferences": {},
  "source": "pragma solidity ^0.8.4;\r\npragma experimental ABIEncoderV2;\r\n\r\nimport \"@openzeppelin/contracts/utils/Address.sol\";\r\nimport \"@openzeppelin/contracts/access/AccessControl.sol\";\r\nimport \"@openzeppelin/contracts/access/Ownable.sol\";\r\nimport \"@openzeppelin/contracts/token/ERC721/ERC721.sol\";\r\n\r\n\r\n//import \"@openzeppelin/contracts/token/ERC20/IERC20.sol\";\r\n//import \"../Products/CroudFundNonRefundable.sol\";\r\n//import \"../Products/CroudFundRefundable.sol\";\r\n//import \"../Tokens/PicardyArtisteToken.sol\";\r\n\r\n\r\n\r\ncontract PicardyArtiste is ERC721, Ownable {\r\n\r\n    address artisteAddress;\r\n    string artisteName;\r\n    string artisteHandle;\r\n    string public baseExtension = \".json\";\r\n    string baseURI;\r\n\r\n    mapping (uint => address[]) productMap;\r\n    mapping (uint => bool) activeProduct;\r\n    address[] products;\r\n\r\n    constructor(address _artisteAddress, string memory _artisteName, string memory _artisteHandle) ERC721(_artisteName, _artisteHandle){\r\n        artisteAddress = _artisteAddress;\r\n        artisteName = _artisteName;\r\n        artisteHandle = _artisteHandle;\r\n        _mint(_artisteAddress, 0);\r\n    }\r\n\r\n    function addProduct(uint _productId, address _productAddress) external onlyOwner {\r\n        require(!activeProduct[_productId]);\r\n        address[] storage newProduct = productMap[_productId];\r\n        newProduct.push(_productAddress);\r\n        products.push(_productAddress);\r\n        activeProduct[_productId] = true;\r\n    }\r\n\r\n    function setBaseURI(string memory _newBaseURI) public onlyOwner {\r\n    baseURI = _newBaseURI;\r\n    }\r\n\r\n    function getProductsById(uint _productId) external view returns(address[] memory){\r\n        return productMap[_productId];\r\n    }\r\n\r\n    function getAllProducts() external view returns(address[] memory){\r\n        return products;\r\n    }\r\n\r\n    function getArtiste() external view returns(address){\r\n        return artisteAddress;\r\n    }\r\n    \r\n}\r\n",
  "sourcePath": "C:\\Users\\USER\\Desktop\\Picardy_Protocol\\contracts\\Users\\Artiste.sol",
  "compiler": {
    "name": "solc",
    "version": "0.8.11+commit.d7f03943.Emscripten.clang"
  },
  "schemaVersion": "3.4.6",
  "updatedAt": "2022-05-22T10:44:48.262Z",
  "devdoc": {
    "kind": "dev",
    "methods": {
      "approve(address,uint256)": {
        "details": "See {IERC721-approve}."
      },
      "balanceOf(address)": {
        "details": "See {IERC721-balanceOf}."
      },
      "getApproved(uint256)": {
        "details": "See {IERC721-getApproved}."
      },
      "isApprovedForAll(address,address)": {
        "details": "See {IERC721-isApprovedForAll}."
      },
      "name()": {
        "details": "See {IERC721Metadata-name}."
      },
      "owner()": {
        "details": "Returns the address of the current owner."
      },
      "ownerOf(uint256)": {
        "details": "See {IERC721-ownerOf}."
      },
      "renounceOwnership()": {
        "details": "Leaves the contract without owner. It will not be possible to call `onlyOwner` functions anymore. Can only be called by the current owner. NOTE: Renouncing ownership will leave the contract without an owner, thereby removing any functionality that is only available to the owner."
      },
      "safeTransferFrom(address,address,uint256)": {
        "details": "See {IERC721-safeTransferFrom}."
      },
      "safeTransferFrom(address,address,uint256,bytes)": {
        "details": "See {IERC721-safeTransferFrom}."
      },
      "setApprovalForAll(address,bool)": {
        "details": "See {IERC721-setApprovalForAll}."
      },
      "supportsInterface(bytes4)": {
        "details": "See {IERC165-supportsInterface}."
      },
      "symbol()": {
        "details": "See {IERC721Metadata-symbol}."
      },
      "tokenURI(uint256)": {
        "details": "See {IERC721Metadata-tokenURI}."
      },
      "transferFrom(address,address,uint256)": {
        "details": "See {IERC721-transferFrom}."
      },
      "transferOwnership(address)": {
        "details": "Transfers ownership of the contract to a new account (`newOwner`). Can only be called by the current owner."
      }
    },
    "version": 1
  },
  "userdoc": {
    "kind": "user",
    "methods": {},
    "version": 1
  }
}