{
  "contractName": "TokenRoyaltySale",
  "abi": [
    {
      "inputs": [
        {
          "internalType": "uint256",
          "name": "_royaltyPoolSize",
          "type": "uint256"
        },
        {
          "internalType": "uint256",
          "name": "_percentage",
          "type": "uint256"
        },
        {
          "internalType": "address",
          "name": "_creator",
          "type": "address"
        },
        {
          "internalType": "address",
          "name": "_picardyToken",
          "type": "address"
        }
      ],
      "stateMutability": "nonpayable",
      "type": "constructor"
    },
    {
      "anonymous": false,
      "inputs": [
        {
          "indexed": true,
          "internalType": "address",
          "name": "previousOwner",
          "type": "address"
        },
        {
          "indexed": true,
          "internalType": "address",
          "name": "newOwner",
          "type": "address"
        }
      ],
      "name": "OwnershipTransferred",
      "type": "event"
    },
    {
      "anonymous": false,
      "inputs": [
        {
          "indexed": true,
          "internalType": "uint256",
          "name": "amount",
          "type": "uint256"
        },
        {
          "indexed": false,
          "internalType": "uint256",
          "name": "time",
          "type": "uint256"
        }
      ],
      "name": "RoyaltyBalanceUpdated",
      "type": "event"
    },
    {
      "inputs": [],
      "name": "owner",
      "outputs": [
        {
          "internalType": "address",
          "name": "",
          "type": "address"
        }
      ],
      "stateMutability": "view",
      "type": "function"
    },
    {
      "inputs": [],
      "name": "renounceOwnership",
      "outputs": [],
      "stateMutability": "nonpayable",
      "type": "function"
    },
    {
      "inputs": [
        {
          "internalType": "address",
          "name": "newOwner",
          "type": "address"
        }
      ],
      "name": "transferOwnership",
      "outputs": [],
      "stateMutability": "nonpayable",
      "type": "function"
    },
    {
      "inputs": [],
      "name": "start",
      "outputs": [],
      "stateMutability": "nonpayable",
      "type": "function"
    },
    {
      "inputs": [
        {
          "internalType": "uint256",
          "name": "_amount",
          "type": "uint256"
        }
      ],
      "name": "buyRoyalty",
      "outputs": [],
      "stateMutability": "nonpayable",
      "type": "function"
    },
    {
      "inputs": [
        {
          "internalType": "uint256",
          "name": "_amount",
          "type": "uint256"
        }
      ],
      "name": "updateRoyaltyBalance",
      "outputs": [],
      "stateMutability": "nonpayable",
      "type": "function"
    },
    {
      "inputs": [],
      "name": "withdraw",
      "outputs": [],
      "stateMutability": "nonpayable",
      "type": "function"
    },
    {
      "inputs": [
        {
          "internalType": "uint256",
          "name": "_amount",
          "type": "uint256"
        }
      ],
      "name": "withdrawRoyalty",
      "outputs": [],
      "stateMutability": "nonpayable",
      "type": "function"
    },
    {
      "inputs": [],
      "name": "getPoolMembers",
      "outputs": [
        {
          "internalType": "address[]",
          "name": "",
          "type": "address[]"
        }
      ],
      "stateMutability": "view",
      "type": "function"
    },
    {
      "inputs": [],
      "name": "getPoolSize",
      "outputs": [
        {
          "internalType": "uint256",
          "name": "",
          "type": "uint256"
        }
      ],
      "stateMutability": "view",
      "type": "function"
    },
    {
      "inputs": [],
      "name": "getPoolBalance",
      "outputs": [
        {
          "internalType": "uint256",
          "name": "",
          "type": "uint256"
        }
      ],
      "stateMutability": "view",
      "type": "function"
    },
    {
      "inputs": [],
      "name": "getMemberPoolSize",
      "outputs": [
        {
          "internalType": "uint256",
          "name": "",
          "type": "uint256"
        }
      ],
      "stateMutability": "view",
      "type": "function"
    },
    {
      "inputs": [],
      "name": "getRoyaltyBalance",
      "outputs": [
        {
          "internalType": "uint256",
          "name": "",
          "type": "uint256"
        }
      ],
      "stateMutability": "view",
      "type": "function"
    },
    {
      "inputs": [],
      "name": "getCreator",
      "outputs": [
        {
          "internalType": "address",
          "name": "",
          "type": "address"
        }
      ],
      "stateMutability": "view",
      "type": "function"
    },
    {
      "inputs": [],
      "name": "getRoyaltyPercentage",
      "outputs": [
        {
          "internalType": "uint256",
          "name": "",
          "type": "uint256"
        }
      ],
      "stateMutability": "view",
      "type": "function"
    },
    {
      "inputs": [],
      "name": "getRoyaltyState",
      "outputs": [
        {
          "internalType": "enum TokenRoyaltySale.TokenRoyaltyState",
          "name": "",
          "type": "uint8"
        }
      ],
      "stateMutability": "view",
      "type": "function"
    }
  ],
  "bytecode": "0x60a0604052600460015534801561001557600080fd5b5060405162001d2b38038062001d2b83398101604081905261003691610171565b61003f3361007f565b60028490556003839055600580546001600160a01b0319166001600160a01b038481169190911790915581166080526100766100cf565b505050506101b7565b600080546001600160a01b038381166001600160a01b0319831681178455604051919092169283917f8be0079c531659141344cd1fd0a4f28419497f9722a3daafe3b4186f6b6457e09190a35050565b60006080516040516100e090610147565b6001600160a01b039091168152602001604051809103906000f08015801561010c573d6000803e3d6000fd5b50600c80546001600160a01b0319166001600160a01b0383161790556000805491925060019160ff60a01b1916600160a01b83021790555050565b610e2b8062000f0083390190565b80516001600160a01b038116811461016c57600080fd5b919050565b6000806000806080858703121561018757600080fd5b845193506020850151925061019e60408601610155565b91506101ac60608601610155565b905092959194509250565b608051610d0a620001f6600039600081816102f7015281816104180152818161063f015281816106fb0152818161079401526108830152610d0a6000f3fe608060405234801561001057600080fd5b50600436106100d05760003560e01c80630ee2cb10146100d557806323845e4b146100f85780632ced76091461010a57806336dacc8c1461011f5780633ccfd60b1461013457806345bb3ba51461013c57806357a2eda91461015657806359c8b7dd14610169578063715018a614610171578063755b916214610179578063843aad3e1461018c5780638da5cb5b146101a1578063abd70aa2146101a9578063be9a6555146101b1578063d9005b32146101b9578063f2fde38b146101ce575b600080fd5b6005546001600160a01b03165b6040516100ef9190610ad2565b60405180910390f35b6002545b6040519081526020016100ef565b61011d610118366004610ae6565b6101e1565b005b61012761022f565b6040516100ef9190610aff565b61011d610291565b600054600160a01b900460ff166040516100ef9190610b62565b61011d610164366004610ae6565b6102a3565b6003546100fc565b61011d610377565b61011d610187366004610ae6565b6103b9565b336000908152600960205260409020546100fc565b6100e26104b4565b6004546100fc565b61011d6104c3565b336000908152600b60205260409020546100fc565b61011d6101dc366004610b8a565b6104fd565b6101e961059a565b6101f2816105b1565b807f2a83f908565c3d957dceb22c0e7fcdfad11af00a96013c75b6f7d73dd390b6dc4260405161022491815260200190565b60405180910390a250565b6060600880548060200260200160405190810160405280929190818152602001828054801561028757602002820191906000526020600020905b81546001600160a01b03168152600190910190602001808311610269575b5050505050905090565b61029961059a565b6102a1610625565b565b336000908152600a602052604090205460ff1615156001146102c457600080fd5b336000908152600960205260409020548111156102e057600080fd5b6040516323b872dd60e01b81526001600160a01b037f000000000000000000000000000000000000000000000000000000000000000016906323b872dd9061033090309033908690600401610bba565b6020604051808303816000875af115801561034f573d6000803e3d6000fd5b505050506040513d601f19601f820116820180604052508101906103739190610bde565b5050565b336103806104b4565b6001600160a01b0316146103af5760405162461bcd60e51b81526004016103a690610c00565b60405180910390fd5b6102a16000610817565b60008054600160a01b900460ff1660028111156103d8576103d8610b4c565b146103e257600080fd5b336000908152600a602052604090205460ff16156103ff57600080fd5b6040516370a0823160e01b815281906001600160a01b037f000000000000000000000000000000000000000000000000000000000000000016906370a082319061044d903390600401610ad2565b602060405180830381865afa15801561046a573d6000803e3d6000fd5b505050506040513d601f19601f8201168201806040525081019061048e9190610c35565b101561049957600080fd5b6002548111156104a857600080fd5b6104b181610867565b50565b6000546001600160a01b031690565b6104cb61059a565b6001600054600160a01b900460ff1660028111156104eb576104eb610b4c565b146104f557600080fd5b6102a1610a5e565b336105066104b4565b6001600160a01b03161461052c5760405162461bcd60e51b81526004016103a690610c00565b6001600160a01b0381166105915760405162461bcd60e51b815260206004820152602660248201527f4f776e61626c653a206e6577206f776e657220697320746865207a65726f206160448201526564647265737360d01b60648201526084016103a6565b6104b181610817565b6005546001600160a01b031633146102a157600080fd5b60006064600354836105c39190610c64565b6105cd9190610c83565b336000908152600b602052604081205491925060646105ec8385610c64565b6105f69190610c83565b3360009081526009602052604081208054929350839290919061061a908490610ca5565b909155505050505050565b6040516370a0823160e01b81526000906001600160a01b037f000000000000000000000000000000000000000000000000000000000000000016906370a0823190610674903090600401610ad2565b602060405180830381865afa158015610691573d6000803e3d6000fd5b505050506040513d601f19601f820116820180604052508101906106b59190610c35565b9050600060646106c6836005610c64565b6106d09190610c83565b905060006106de8284610cbd565b6005546040516323b872dd60e01b81529192506001600160a01b037f00000000000000000000000000000000000000000000000000000000000000008116926323b872dd926107369230929116908690600401610bba565b6020604051808303816000875af1158015610755573d6000803e3d6000fd5b505050506040513d601f19601f820116820180604052508101906107799190610bde565b506007546040516323b872dd60e01b81526001600160a01b037f00000000000000000000000000000000000000000000000000000000000000008116926323b872dd926107ce92309216908790600401610bba565b6020604051808303816000875af11580156107ed573d6000803e3d6000fd5b505050506040513d601f19601f820116820180604052508101906108119190610bde565b50505050565b600080546001600160a01b038381166001600160a01b0319831681178455604051919092169283917f8be0079c531659141344cd1fd0a4f28419497f9722a3daafe3b4186f6b6457e09190a35050565b60405163a9059cbb60e01b8152306004820152602481018290527f00000000000000000000000000000000000000000000000000000000000000006001600160a01b03169063a9059cbb906044016020604051808303816000875af11580156108d4573d6000803e3d6000fd5b505050506040513d601f19601f820116820180604052508101906108f89190610bde565b506000816002546109099190610cbd565b905061091481600455565b600254600090610925846064610c64565b61092f9190610c83565b336000908152600b602090815260408083208490556009909152812080549293508592909190610960908490610ca5565b9091555050336000818152600a6020526040808220805460ff191660019081179091556008805491820181559092527ff3f7a9fe364faab93b216da50a3214154f22a0a2b415b23a84c8169e8b636ee390910180546001600160a01b03191683179055600c5490516323b872dd60e01b81526001600160a01b0391909116916323b872dd916109f59130918890600401610bba565b6020604051808303816000875af1158015610a14573d6000803e3d6000fd5b505050506040513d601f19601f82011682018060405250810190610a389190610bde565b506004546002541415610a59576000805460ff60a01b1916600160a11b1790555b505050565b600c5460025460405163140e25ad60e31b815260048101919091526001600160a01b0390911690819063a0712d6890602401600060405180830381600087803b158015610aaa57600080fd5b505af1158015610abe573d6000803e3d6000fd5b50506000805460ff60a01b19169055505050565b6001600160a01b0391909116815260200190565b600060208284031215610af857600080fd5b5035919050565b6020808252825182820181905260009190848201906040850190845b81811015610b405783516001600160a01b031683529284019291840191600101610b1b565b50909695505050505050565b634e487b7160e01b600052602160045260246000fd5b6020810160038310610b8457634e487b7160e01b600052602160045260246000fd5b91905290565b600060208284031215610b9c57600080fd5b81356001600160a01b0381168114610bb357600080fd5b9392505050565b6001600160a01b039384168152919092166020820152604081019190915260600190565b600060208284031215610bf057600080fd5b81518015158114610bb357600080fd5b6020808252818101527f4f776e61626c653a2063616c6c6572206973206e6f7420746865206f776e6572604082015260600190565b600060208284031215610c4757600080fd5b5051919050565b634e487b7160e01b600052601160045260246000fd5b6000816000190483118215151615610c7e57610c7e610c4e565b500290565b600082610ca057634e487b7160e01b600052601260045260246000fd5b500490565b60008219821115610cb857610cb8610c4e565b500190565b600082821015610ccf57610ccf610c4e565b50039056fea264697066735822122096f645f7deaf705303afcc530b7cfcaa55f787fdacec6a3e9ca28c0dfa1651b264736f6c634300080b003360a06040523480156200001157600080fd5b5060405162000e2b38038062000e2b8339810160408190526200003491620001d9565b604080518082018252601781527f506963617264792043726f7764506f6f6c20546f6b656e00000000000000000060208083019182528351808501909452600784526621a82a37b5b2b760c91b908401528151919291620000989160039162000133565b508051620000ae90600490602084019062000133565b505050620000cb620000c5620000dd60201b60201c565b620000e1565b6001600160a01b031660805262000248565b3390565b600580546001600160a01b038381166001600160a01b0319831681179093556040519116919082907f8be0079c531659141344cd1fd0a4f28419497f9722a3daafe3b4186f6b6457e090600090a35050565b82805462000141906200020b565b90600052602060002090601f016020900481019282620001655760008555620001b0565b82601f106200018057805160ff1916838001178555620001b0565b82800160010185558215620001b0579182015b82811115620001b057825182559160200191906001019062000193565b50620001be929150620001c2565b5090565b5b80821115620001be5760008155600101620001c3565b600060208284031215620001ec57600080fd5b81516001600160a01b03811681146200020457600080fd5b9392505050565b600181811c908216806200022057607f821691505b602082108114156200024257634e487b7160e01b600052602260045260246000fd5b50919050565b608051610bc76200026460003960006101620152610bc76000f3fe608060405234801561001057600080fd5b50600436106100d05760003560e01c806306fdde03146100d5578063095ea7b3146100f357806318160ddd1461011657806323b872dd14610128578063313ce5671461013b578063395093511461014a5780635eede7e51461015d57806370a082311461019c578063715018a6146101c55780638da5cb5b146101cf57806395d89b41146101d7578063a0712d68146101df578063a457c2d7146101f2578063a9059cbb14610205578063dd62ed3e14610218578063f2fde38b1461022b575b600080fd5b6100dd61023e565b6040516100ea9190610996565b60405180910390f35b610106610101366004610a07565b6102d0565b60405190151581526020016100ea565b6002545b6040519081526020016100ea565b610106610136366004610a31565b6102e8565b604051601281526020016100ea565b610106610158366004610a07565b61030c565b6101847f000000000000000000000000000000000000000000000000000000000000000081565b6040516001600160a01b0390911681526020016100ea565b61011a6101aa366004610a6d565b6001600160a01b031660009081526020819052604090205490565b6101cd61032e565b005b610184610372565b6100dd610381565b6101cd6101ed366004610a8f565b610390565b610106610200366004610a07565b6103cc565b610106610213366004610a07565b610447565b61011a610226366004610aa8565b610455565b6101cd610239366004610a6d565b610480565b60606003805461024d90610adb565b80601f016020809104026020016040519081016040528092919081815260200182805461027990610adb565b80156102c65780601f1061029b576101008083540402835291602001916102c6565b820191906000526020600020905b8154815290600101906020018083116102a957829003601f168201915b5050505050905090565b6000336102de81858561051d565b5060019392505050565b6000336102f6858285610641565b6103018585856106bb565b506001949350505050565b6000336102de81858561031f8383610455565b6103299190610b16565b61051d565b33610337610372565b6001600160a01b0316146103665760405162461bcd60e51b815260040161035d90610b3c565b60405180910390fd5b6103706000610877565b565b6005546001600160a01b031690565b60606004805461024d90610adb565b33610399610372565b6001600160a01b0316146103bf5760405162461bcd60e51b815260040161035d90610b3c565b6103c933826108c9565b50565b600033816103da8286610455565b90508381101561043a5760405162461bcd60e51b815260206004820152602560248201527f45524332303a2064656372656173656420616c6c6f77616e63652062656c6f77604482015264207a65726f60d81b606482015260840161035d565b610301828686840361051d565b6000336102de8185856106bb565b6001600160a01b03918216600090815260016020908152604080832093909416825291909152205490565b33610489610372565b6001600160a01b0316146104af5760405162461bcd60e51b815260040161035d90610b3c565b6001600160a01b0381166105145760405162461bcd60e51b815260206004820152602660248201527f4f776e61626c653a206e6577206f776e657220697320746865207a65726f206160448201526564647265737360d01b606482015260840161035d565b6103c981610877565b6001600160a01b03831661057f5760405162461bcd60e51b8152602060048201526024808201527f45524332303a20617070726f76652066726f6d20746865207a65726f206164646044820152637265737360e01b606482015260840161035d565b6001600160a01b0382166105e05760405162461bcd60e51b815260206004820152602260248201527f45524332303a20617070726f766520746f20746865207a65726f206164647265604482015261737360f01b606482015260840161035d565b6001600160a01b0383811660008181526001602090815260408083209487168084529482529182902085905590518481527f8c5be1e5ebec7d5bd14f71427d1e84f3dd0314c0f7b2291e5b200ac8c7c3b925910160405180910390a3505050565b600061064d8484610455565b905060001981146106b557818110156106a85760405162461bcd60e51b815260206004820152601d60248201527f45524332303a20696e73756666696369656e7420616c6c6f77616e6365000000604482015260640161035d565b6106b5848484840361051d565b50505050565b6001600160a01b03831661071f5760405162461bcd60e51b815260206004820152602560248201527f45524332303a207472616e736665722066726f6d20746865207a65726f206164604482015264647265737360d81b606482015260840161035d565b6001600160a01b0382166107815760405162461bcd60e51b815260206004820152602360248201527f45524332303a207472616e7366657220746f20746865207a65726f206164647260448201526265737360e81b606482015260840161035d565b6001600160a01b038316600090815260208190526040902054818110156107f95760405162461bcd60e51b815260206004820152602660248201527f45524332303a207472616e7366657220616d6f756e7420657863656564732062604482015265616c616e636560d01b606482015260840161035d565b6001600160a01b03808516600090815260208190526040808220858503905591851681529081208054849290610830908490610b16565b92505081905550826001600160a01b0316846001600160a01b0316600080516020610b728339815191528460405161086a91815260200190565b60405180910390a36106b5565b600580546001600160a01b038381166001600160a01b0319831681179093556040519116919082907f8be0079c531659141344cd1fd0a4f28419497f9722a3daafe3b4186f6b6457e090600090a35050565b6001600160a01b03821661091f5760405162461bcd60e51b815260206004820152601f60248201527f45524332303a206d696e7420746f20746865207a65726f206164647265737300604482015260640161035d565b80600260008282546109319190610b16565b90915550506001600160a01b0382166000908152602081905260408120805483929061095e908490610b16565b90915550506040518181526001600160a01b03831690600090600080516020610b728339815191529060200160405180910390a35050565b600060208083528351808285015260005b818110156109c3578581018301518582016040015282016109a7565b818111156109d5576000604083870101525b50601f01601f1916929092016040019392505050565b80356001600160a01b0381168114610a0257600080fd5b919050565b60008060408385031215610a1a57600080fd5b610a23836109eb565b946020939093013593505050565b600080600060608486031215610a4657600080fd5b610a4f846109eb565b9250610a5d602085016109eb565b9150604084013590509250925092565b600060208284031215610a7f57600080fd5b610a88826109eb565b9392505050565b600060208284031215610aa157600080fd5b5035919050565b60008060408385031215610abb57600080fd5b610ac4836109eb565b9150610ad2602084016109eb565b90509250929050565b600181811c90821680610aef57607f821691505b60208210811415610b1057634e487b7160e01b600052602260045260246000fd5b50919050565b60008219821115610b3757634e487b7160e01b600052601160045260246000fd5b500190565b6020808252818101527f4f776e61626c653a2063616c6c6572206973206e6f7420746865206f776e657260408201526060019056feddf252ad1be2c89b69c2b068fc378daa952ba7f163c4a11628f55a4df523b3efa26469706673582212201bbda68ec9956c8e8f7afa45d946ee01739998adc521015fd1f4232df32dd29564736f6c634300080b0033",
  "immutableReferences": {
    "12621": [
      {
        "length": 32,
        "start": 759
      },
      {
        "length": 32,
        "start": 1048
      },
      {
        "length": 32,
        "start": 1599
      },
      {
        "length": 32,
        "start": 1787
      },
      {
        "length": 32,
        "start": 1940
      },
      {
        "length": 32,
        "start": 2179
      }
    ]
  },
  "source": "// SPDX-License-Identifier: MIT\r\npragma solidity ^0.8.4;\r\npragma experimental ABIEncoderV2;\r\n\r\nimport \"@openzeppelin/contracts/utils/Address.sol\";\r\nimport \"@openzeppelin/contracts/access/AccessControl.sol\";\r\nimport \"@openzeppelin/contracts/access/Ownable.sol\";\r\nimport \"@openzeppelin/contracts/token/ERC20/IERC20.sol\";\r\nimport \"../Tokens/CPToken.sol\";\r\n\r\ncontract TokenRoyaltySale is Ownable {\r\n\r\n    using Address for address;\r\n\r\n    event RoyaltyBalanceUpdated(uint indexed amount, uint time);\r\n\r\n    enum TokenRoyaltyState{\r\n        OPEN,\r\n        CLOSED,\r\n        CONCLUDED\r\n    }\r\n\r\n    TokenRoyaltyState tokenRoyaltyState;\r\n\r\n    uint productId = 4;\r\n    uint royaltyPoolSize;\r\n    uint percentage;\r\n    uint royaltyPoolBalance;\r\n    address creator;\r\n    address royaltyCPToken;\r\n    address private txFeeWallet;\r\n    address[] royaltyPoolMembers;\r\n    address immutable picardyToken;\r\n\r\n    mapping (address => uint) royaltyBalance;\r\n    mapping (address => bool) isPoolMember;\r\n    mapping (address => uint) memberSize;\r\n    CPToken cpToken;\r\n\r\n    modifier onlyCreator(){\r\n        _onlyCreator();\r\n        _;\r\n    }\r\n\r\n    constructor (uint _royaltyPoolSize, uint _percentage, address _creator,  address _picardyToken){\r\n        royaltyPoolSize = _royaltyPoolSize;\r\n        percentage = _percentage;\r\n        creator = _creator;\r\n        picardyToken = _picardyToken;\r\n        _CPToken();\r\n    }\r\n\r\n    function start() external onlyCreator {\r\n        require(tokenRoyaltyState == TokenRoyaltyState.CLOSED);\r\n        _start();\r\n    }\r\n\r\n    function buyRoyalty(uint _amount) external {\r\n        require(tokenRoyaltyState == TokenRoyaltyState.OPEN);\r\n        require(isPoolMember[msg.sender] == false);\r\n        require(IERC20(picardyToken).balanceOf(msg.sender) >= _amount);\r\n        require(_amount <= royaltyPoolSize);\r\n\r\n        _buyRoyalty(_amount);\r\n    }\r\n\r\n    function updateRoyaltyBalance(uint _amount) external onlyCreator{\r\n\r\n        _updateRoyaltyBalance(_amount);\r\n\r\n        emit RoyaltyBalanceUpdated(_amount, block.timestamp);\r\n\r\n    }\r\n\r\n    function withdraw() external onlyCreator{\r\n    \r\n        _withdraw();\r\n    \r\n    }\r\n\r\n    function withdrawRoyalty(uint _amount) external {\r\n        require(isPoolMember[msg.sender] == true);\r\n        require(_amount <= royaltyBalance[msg.sender]);\r\n\r\n        IERC20(picardyToken).transferFrom(address(this), msg.sender, _amount);\r\n    }\r\n\r\n    // GETTER FUNCTIONS//\r\n\r\n    function getPoolMembers() external view returns (address[] memory){\r\n        return royaltyPoolMembers;\r\n    }\r\n\r\n    function getPoolSize() external view returns(uint){\r\n        return royaltyPoolSize;\r\n    }\r\n\r\n    function getPoolBalance() external view returns(uint){\r\n        return royaltyPoolBalance;\r\n    }\r\n\r\n    function getMemberPoolSize() external view returns(uint){\r\n        return memberSize[msg.sender];\r\n    }\r\n\r\n    function getRoyaltyBalance() external view returns(uint){\r\n        return royaltyBalance[msg.sender];\r\n    }\r\n\r\n    function getCreator() external view returns(address){\r\n        return creator;\r\n    }\r\n\r\n    function getRoyaltyPercentage() external view returns(uint){\r\n        return percentage;\r\n    }\r\n\r\n    function getRoyaltyState() external view returns (TokenRoyaltyState){\r\n        return tokenRoyaltyState;\r\n    }\r\n\r\n    // INTERNAL FUNCTIONS //\r\n\r\n    function _CPToken() internal {\r\n         CPToken newCpToken = new CPToken(picardyToken);\r\n        cpToken = newCpToken;\r\n        tokenRoyaltyState = TokenRoyaltyState.CLOSED;\r\n    }\r\n\r\n     function _start() internal {\r\n        CPToken newCpToken = CPToken(cpToken);\r\n        newCpToken.mint(royaltyPoolSize);\r\n        tokenRoyaltyState = TokenRoyaltyState.OPEN;\r\n    }\r\n\r\n    function _buyRoyalty(uint _amount) internal {\r\n        IERC20(picardyToken).transfer(address(this), _amount);\r\n\r\n        uint _balance = royaltyPoolSize - _amount;\r\n        _updatePoolSize(_balance);\r\n\r\n        uint ownerPoolSize = (_amount * 100) / royaltyPoolSize;\r\n        memberSize[msg.sender] = ownerPoolSize;\r\n        \r\n        royaltyBalance[msg.sender] += _amount;\r\n        isPoolMember[msg.sender] = true;\r\n        royaltyPoolMembers.push(msg.sender);\r\n\r\n        IERC20(cpToken).transferFrom(address(this), msg.sender, _amount);\r\n\r\n        if(royaltyPoolSize == royaltyPoolBalance){\r\n            tokenRoyaltyState = TokenRoyaltyState.CONCLUDED;\r\n        }\r\n\r\n    }\r\n\r\n    function _updateRoyaltyBalance(uint _amount) internal {\r\n        \r\n        uint newRoyaltyBalance = _amount * percentage / 100;\r\n        uint newMemberPoolSize = memberSize[msg.sender];\r\n\r\n        uint toUpdate = newRoyaltyBalance * newMemberPoolSize / 100;\r\n\r\n        royaltyBalance[msg.sender] += toUpdate;\r\n\r\n    }\r\n\r\n    function _withdraw() internal {\r\n        \r\n        uint balance = IERC20(picardyToken).balanceOf(address(this));\r\n        uint txFee = balance * 5 / 100;\r\n        uint toWithdraw = balance - txFee;\r\n\r\n        IERC20(picardyToken).transferFrom(address(this), creator, toWithdraw);\r\n        IERC20(picardyToken).transferFrom(address(this), txFeeWallet, txFee);\r\n    \r\n    }\r\n\r\n    function _updatePoolSize(uint _balance) internal {\r\n        royaltyPoolBalance = _balance;\r\n    }\r\n\r\n    function _onlyCreator() internal view {\r\n        require(msg.sender == creator);\r\n    }\r\n\r\n}\r\n\r\ninterface IPicardyTokenRoyaltySale {\r\n    \r\n    function getPoolMembers() external view returns (address[] memory);\r\n\r\n    function getPoolSize() external view returns(uint);\r\n\r\n    function getPoolBalance() external view returns(uint);\r\n\r\n    function getMemberPoolSize() external view returns(uint);\r\n\r\n    function getRoyaltyBalance() external view returns(uint);\r\n\r\n    function getCreator() external view returns(address);\r\n\r\n    function getRoyaltyPercentage() external view returns(uint);\r\n\r\n}",
  "sourcePath": "C:\\Users\\USER\\Desktop\\Picardy_Protocol\\contracts\\Products\\TokenRoyaltySale.sol",
  "compiler": {
    "name": "solc",
    "version": "0.8.11+commit.d7f03943.Emscripten.clang"
  },
  "schemaVersion": "3.4.6",
  "updatedAt": "2022-06-03T20:50:14.065Z",
  "devdoc": {
    "kind": "dev",
    "methods": {
      "owner()": {
        "details": "Returns the address of the current owner."
      },
      "renounceOwnership()": {
        "details": "Leaves the contract without owner. It will not be possible to call `onlyOwner` functions anymore. Can only be called by the current owner. NOTE: Renouncing ownership will leave the contract without an owner, thereby removing any functionality that is only available to the owner."
      },
      "transferOwnership(address)": {
        "details": "Transfers ownership of the contract to a new account (`newOwner`). Can only be called by the current owner."
      }
    },
    "version": 1
  },
  "userdoc": {
    "kind": "user",
    "methods": {},
    "version": 1
  }
}