{
  "contractName": "TokenRoyaltySaleFactory",
  "abi": [
    {
      "inputs": [
        {
          "internalType": "address",
          "name": "_PICARDY_HUB",
          "type": "address"
        },
        {
          "internalType": "address",
          "name": "_PICARDY_TOKEN",
          "type": "address"
        }
      ],
      "stateMutability": "nonpayable",
      "type": "constructor"
    },
    {
      "anonymous": false,
      "inputs": [
        {
          "indexed": true,
          "internalType": "address",
          "name": "previousOwner",
          "type": "address"
        },
        {
          "indexed": true,
          "internalType": "address",
          "name": "newOwner",
          "type": "address"
        }
      ],
      "name": "OwnershipTransferred",
      "type": "event"
    },
    {
      "inputs": [],
      "name": "owner",
      "outputs": [
        {
          "internalType": "address",
          "name": "",
          "type": "address"
        }
      ],
      "stateMutability": "view",
      "type": "function",
      "constant": true
    },
    {
      "inputs": [],
      "name": "renounceOwnership",
      "outputs": [],
      "stateMutability": "nonpayable",
      "type": "function"
    },
    {
      "inputs": [
        {
          "internalType": "address",
          "name": "newOwner",
          "type": "address"
        }
      ],
      "name": "transferOwnership",
      "outputs": [],
      "stateMutability": "nonpayable",
      "type": "function"
    },
    {
      "inputs": [
        {
          "internalType": "uint256",
          "name": "_askAmount",
          "type": "uint256"
        },
        {
          "internalType": "uint256",
          "name": "_returnPercentage",
          "type": "uint256"
        },
        {
          "internalType": "uint256",
          "name": "_profileId",
          "type": "uint256"
        }
      ],
      "name": "createTokenRoyalty",
      "outputs": [],
      "stateMutability": "nonpayable",
      "type": "function"
    }
  ],
  "bytecode": "0x60c060405234801561001057600080fd5b5060405161243738038061243783398101604081905261002f9161019a565b6100383361005e565b6001600160a01b03808316608081905290821660a052610057906100ae565b50506101cd565b600080546001600160a01b038381166001600160a01b0319831681178455604051919092169283917f8be0079c531659141344cd1fd0a4f28419497f9722a3daafe3b4186f6b6457e09190a35050565b6000546001600160a01b0316331461010d5760405162461bcd60e51b815260206004820181905260248201527f4f776e61626c653a2063616c6c6572206973206e6f7420746865206f776e657260448201526064015b60405180910390fd5b6001600160a01b0381166101725760405162461bcd60e51b815260206004820152602660248201527f4f776e61626c653a206e6577206f776e657220697320746865207a65726f206160448201526564647265737360d01b6064820152608401610104565b61017b8161005e565b50565b80516001600160a01b038116811461019557600080fd5b919050565b600080604083850312156101ad57600080fd5b6101b68361017e565b91506101c46020840161017e565b90509250929050565b60805160a05161223e6101f9600039600061019701526000818161011b0152610376015261223e6000f3fe608060405234801561001057600080fd5b506004361061004c5760003560e01c8063715018a6146100515780638da5cb5b1461005b578063bd7434b21461007f578063f2fde38b14610092575b600080fd5b6100596100a5565b005b6100636100e9565b6040516001600160a01b03909116815260200160405180910390f35b61005961008d366004610404565b6100f8565b6100596100a0366004610445565b610270565b336100ae6100e9565b6001600160a01b0316146100dd5760405162461bcd60e51b81526004016100d490610469565b60405180910390fd5b6100e76000610310565b565b6000546001600160a01b031690565b8061010281610360565b6040516336e3382360e21b8152600481018390526000907f00000000000000000000000000000000000000000000000000000000000000006001600160a01b03169063db8ce08c90602401602060405180830381865afa15801561016a573d6000803e3d6000fd5b505050506040513d601f19601f8201168201806040525081019061018e919061049e565b905060008585337f00000000000000000000000000000000000000000000000000000000000000006040516101c2906103f7565b93845260208401929092526001600160a01b039081166040840152166060820152608001604051809103906000f080158015610202573d6000803e3d6000fd5b50604051636eabe6a360e11b81526004808201526001600160a01b0380831660248301529192509083169063dd57cd4690604401600060405180830381600087803b15801561025057600080fd5b505af1158015610264573d6000803e3d6000fd5b50505050505050505050565b336102796100e9565b6001600160a01b03161461029f5760405162461bcd60e51b81526004016100d490610469565b6001600160a01b0381166103045760405162461bcd60e51b815260206004820152602660248201527f4f776e61626c653a206e6577206f776e657220697320746865207a65726f206160448201526564647265737360d01b60648201526084016100d4565b61030d81610310565b50565b600080546001600160a01b038381166001600160a01b0319831681178455604051919092169283917f8be0079c531659141344cd1fd0a4f28419497f9722a3daafe3b4186f6b6457e09190a35050565b604051631eb18ccf60e31b8152600481018290527f00000000000000000000000000000000000000000000000000000000000000006001600160a01b03169063f58c667890602401602060405180830381865afa1580156103c5573d6000803e3d6000fd5b505050506040513d601f19601f820116820180604052508101906103e991906104bb565b151560011461030d57600080fd5b611d2b806104de83390190565b60008060006060848603121561041957600080fd5b505081359360208301359350604090920135919050565b6001600160a01b038116811461030d57600080fd5b60006020828403121561045757600080fd5b813561046281610430565b9392505050565b6020808252818101527f4f776e61626c653a2063616c6c6572206973206e6f7420746865206f776e6572604082015260600190565b6000602082840312156104b057600080fd5b815161046281610430565b6000602082840312156104cd57600080fd5b8151801515811461046257600080fdfe60a0604052600460015534801561001557600080fd5b5060405162001d2b38038062001d2b83398101604081905261003691610171565b61003f3361007f565b60028490556003839055600580546001600160a01b0319166001600160a01b038481169190911790915581166080526100766100cf565b505050506101b7565b600080546001600160a01b038381166001600160a01b0319831681178455604051919092169283917f8be0079c531659141344cd1fd0a4f28419497f9722a3daafe3b4186f6b6457e09190a35050565b60006080516040516100e090610147565b6001600160a01b039091168152602001604051809103906000f08015801561010c573d6000803e3d6000fd5b50600c80546001600160a01b0319166001600160a01b0383161790556000805491925060019160ff60a01b1916600160a01b83021790555050565b610e2b8062000f0083390190565b80516001600160a01b038116811461016c57600080fd5b919050565b6000806000806080858703121561018757600080fd5b845193506020850151925061019e60408601610155565b91506101ac60608601610155565b905092959194509250565b608051610d0a620001f6600039600081816102f7015281816104180152818161063f015281816106fb0152818161079401526108830152610d0a6000f3fe608060405234801561001057600080fd5b50600436106100d05760003560e01c80630ee2cb10146100d557806323845e4b146100f85780632ced76091461010a57806336dacc8c1461011f5780633ccfd60b1461013457806345bb3ba51461013c57806357a2eda91461015657806359c8b7dd14610169578063715018a614610171578063755b916214610179578063843aad3e1461018c5780638da5cb5b146101a1578063abd70aa2146101a9578063be9a6555146101b1578063d9005b32146101b9578063f2fde38b146101ce575b600080fd5b6005546001600160a01b03165b6040516100ef9190610ad2565b60405180910390f35b6002545b6040519081526020016100ef565b61011d610118366004610ae6565b6101e1565b005b61012761022f565b6040516100ef9190610aff565b61011d610291565b600054600160a01b900460ff166040516100ef9190610b62565b61011d610164366004610ae6565b6102a3565b6003546100fc565b61011d610377565b61011d610187366004610ae6565b6103b9565b336000908152600960205260409020546100fc565b6100e26104b4565b6004546100fc565b61011d6104c3565b336000908152600b60205260409020546100fc565b61011d6101dc366004610b8a565b6104fd565b6101e961059a565b6101f2816105b1565b807f2a83f908565c3d957dceb22c0e7fcdfad11af00a96013c75b6f7d73dd390b6dc4260405161022491815260200190565b60405180910390a250565b6060600880548060200260200160405190810160405280929190818152602001828054801561028757602002820191906000526020600020905b81546001600160a01b03168152600190910190602001808311610269575b5050505050905090565b61029961059a565b6102a1610625565b565b336000908152600a602052604090205460ff1615156001146102c457600080fd5b336000908152600960205260409020548111156102e057600080fd5b6040516323b872dd60e01b81526001600160a01b037f000000000000000000000000000000000000000000000000000000000000000016906323b872dd9061033090309033908690600401610bba565b6020604051808303816000875af115801561034f573d6000803e3d6000fd5b505050506040513d601f19601f820116820180604052508101906103739190610bde565b5050565b336103806104b4565b6001600160a01b0316146103af5760405162461bcd60e51b81526004016103a690610c00565b60405180910390fd5b6102a16000610817565b60008054600160a01b900460ff1660028111156103d8576103d8610b4c565b146103e257600080fd5b336000908152600a602052604090205460ff16156103ff57600080fd5b6040516370a0823160e01b815281906001600160a01b037f000000000000000000000000000000000000000000000000000000000000000016906370a082319061044d903390600401610ad2565b602060405180830381865afa15801561046a573d6000803e3d6000fd5b505050506040513d601f19601f8201168201806040525081019061048e9190610c35565b101561049957600080fd5b6002548111156104a857600080fd5b6104b181610867565b50565b6000546001600160a01b031690565b6104cb61059a565b6001600054600160a01b900460ff1660028111156104eb576104eb610b4c565b146104f557600080fd5b6102a1610a5e565b336105066104b4565b6001600160a01b03161461052c5760405162461bcd60e51b81526004016103a690610c00565b6001600160a01b0381166105915760405162461bcd60e51b815260206004820152602660248201527f4f776e61626c653a206e6577206f776e657220697320746865207a65726f206160448201526564647265737360d01b60648201526084016103a6565b6104b181610817565b6005546001600160a01b031633146102a157600080fd5b60006064600354836105c39190610c64565b6105cd9190610c83565b336000908152600b602052604081205491925060646105ec8385610c64565b6105f69190610c83565b3360009081526009602052604081208054929350839290919061061a908490610ca5565b909155505050505050565b6040516370a0823160e01b81526000906001600160a01b037f000000000000000000000000000000000000000000000000000000000000000016906370a0823190610674903090600401610ad2565b602060405180830381865afa158015610691573d6000803e3d6000fd5b505050506040513d601f19601f820116820180604052508101906106b59190610c35565b9050600060646106c6836005610c64565b6106d09190610c83565b905060006106de8284610cbd565b6005546040516323b872dd60e01b81529192506001600160a01b037f00000000000000000000000000000000000000000000000000000000000000008116926323b872dd926107369230929116908690600401610bba565b6020604051808303816000875af1158015610755573d6000803e3d6000fd5b505050506040513d601f19601f820116820180604052508101906107799190610bde565b506007546040516323b872dd60e01b81526001600160a01b037f00000000000000000000000000000000000000000000000000000000000000008116926323b872dd926107ce92309216908790600401610bba565b6020604051808303816000875af11580156107ed573d6000803e3d6000fd5b505050506040513d601f19601f820116820180604052508101906108119190610bde565b50505050565b600080546001600160a01b038381166001600160a01b0319831681178455604051919092169283917f8be0079c531659141344cd1fd0a4f28419497f9722a3daafe3b4186f6b6457e09190a35050565b60405163a9059cbb60e01b8152306004820152602481018290527f00000000000000000000000000000000000000000000000000000000000000006001600160a01b03169063a9059cbb906044016020604051808303816000875af11580156108d4573d6000803e3d6000fd5b505050506040513d601f19601f820116820180604052508101906108f89190610bde565b506000816002546109099190610cbd565b905061091481600455565b600254600090610925846064610c64565b61092f9190610c83565b336000908152600b602090815260408083208490556009909152812080549293508592909190610960908490610ca5565b9091555050336000818152600a6020526040808220805460ff191660019081179091556008805491820181559092527ff3f7a9fe364faab93b216da50a3214154f22a0a2b415b23a84c8169e8b636ee390910180546001600160a01b03191683179055600c5490516323b872dd60e01b81526001600160a01b0391909116916323b872dd916109f59130918890600401610bba565b6020604051808303816000875af1158015610a14573d6000803e3d6000fd5b505050506040513d601f19601f82011682018060405250810190610a389190610bde565b506004546002541415610a59576000805460ff60a01b1916600160a11b1790555b505050565b600c5460025460405163140e25ad60e31b815260048101919091526001600160a01b0390911690819063a0712d6890602401600060405180830381600087803b158015610aaa57600080fd5b505af1158015610abe573d6000803e3d6000fd5b50506000805460ff60a01b19169055505050565b6001600160a01b0391909116815260200190565b600060208284031215610af857600080fd5b5035919050565b6020808252825182820181905260009190848201906040850190845b81811015610b405783516001600160a01b031683529284019291840191600101610b1b565b50909695505050505050565b634e487b7160e01b600052602160045260246000fd5b6020810160038310610b8457634e487b7160e01b600052602160045260246000fd5b91905290565b600060208284031215610b9c57600080fd5b81356001600160a01b0381168114610bb357600080fd5b9392505050565b6001600160a01b039384168152919092166020820152604081019190915260600190565b600060208284031215610bf057600080fd5b81518015158114610bb357600080fd5b6020808252818101527f4f776e61626c653a2063616c6c6572206973206e6f7420746865206f776e6572604082015260600190565b600060208284031215610c4757600080fd5b5051919050565b634e487b7160e01b600052601160045260246000fd5b6000816000190483118215151615610c7e57610c7e610c4e565b500290565b600082610ca057634e487b7160e01b600052601260045260246000fd5b500490565b60008219821115610cb857610cb8610c4e565b500190565b600082821015610ccf57610ccf610c4e565b50039056fea2646970667358221220b8457081cf58caacd2e619a0c94c1b0f5c2b5f144e6c4eee3481eb0224bd6dfa64736f6c634300080b003360a06040523480156200001157600080fd5b5060405162000e2b38038062000e2b8339810160408190526200003491620001d9565b604080518082018252601781527f506963617264792043726f7564506f6f6c20546f6b656e00000000000000000060208083019182528351808501909452600784526621a82a37b5b2b760c91b908401528151919291620000989160039162000133565b508051620000ae90600490602084019062000133565b505050620000cb620000c5620000dd60201b60201c565b620000e1565b6001600160a01b031660805262000248565b3390565b600580546001600160a01b038381166001600160a01b0319831681179093556040519116919082907f8be0079c531659141344cd1fd0a4f28419497f9722a3daafe3b4186f6b6457e090600090a35050565b82805462000141906200020b565b90600052602060002090601f016020900481019282620001655760008555620001b0565b82601f106200018057805160ff1916838001178555620001b0565b82800160010185558215620001b0579182015b82811115620001b057825182559160200191906001019062000193565b50620001be929150620001c2565b5090565b5b80821115620001be5760008155600101620001c3565b600060208284031215620001ec57600080fd5b81516001600160a01b03811681146200020457600080fd5b9392505050565b600181811c908216806200022057607f821691505b602082108114156200024257634e487b7160e01b600052602260045260246000fd5b50919050565b608051610bc76200026460003960006101620152610bc76000f3fe608060405234801561001057600080fd5b50600436106100d05760003560e01c806306fdde03146100d5578063095ea7b3146100f357806318160ddd1461011657806323b872dd14610128578063313ce5671461013b578063395093511461014a5780635eede7e51461015d57806370a082311461019c578063715018a6146101c55780638da5cb5b146101cf57806395d89b41146101d7578063a0712d68146101df578063a457c2d7146101f2578063a9059cbb14610205578063dd62ed3e14610218578063f2fde38b1461022b575b600080fd5b6100dd61023e565b6040516100ea9190610996565b60405180910390f35b610106610101366004610a07565b6102d0565b60405190151581526020016100ea565b6002545b6040519081526020016100ea565b610106610136366004610a31565b6102e8565b604051601281526020016100ea565b610106610158366004610a07565b61030c565b6101847f000000000000000000000000000000000000000000000000000000000000000081565b6040516001600160a01b0390911681526020016100ea565b61011a6101aa366004610a6d565b6001600160a01b031660009081526020819052604090205490565b6101cd61032e565b005b610184610372565b6100dd610381565b6101cd6101ed366004610a8f565b610390565b610106610200366004610a07565b6103cc565b610106610213366004610a07565b610447565b61011a610226366004610aa8565b610455565b6101cd610239366004610a6d565b610480565b60606003805461024d90610adb565b80601f016020809104026020016040519081016040528092919081815260200182805461027990610adb565b80156102c65780601f1061029b576101008083540402835291602001916102c6565b820191906000526020600020905b8154815290600101906020018083116102a957829003601f168201915b5050505050905090565b6000336102de81858561051d565b5060019392505050565b6000336102f6858285610641565b6103018585856106bb565b506001949350505050565b6000336102de81858561031f8383610455565b6103299190610b16565b61051d565b33610337610372565b6001600160a01b0316146103665760405162461bcd60e51b815260040161035d90610b3c565b60405180910390fd5b6103706000610877565b565b6005546001600160a01b031690565b60606004805461024d90610adb565b33610399610372565b6001600160a01b0316146103bf5760405162461bcd60e51b815260040161035d90610b3c565b6103c933826108c9565b50565b600033816103da8286610455565b90508381101561043a5760405162461bcd60e51b815260206004820152602560248201527f45524332303a2064656372656173656420616c6c6f77616e63652062656c6f77604482015264207a65726f60d81b606482015260840161035d565b610301828686840361051d565b6000336102de8185856106bb565b6001600160a01b03918216600090815260016020908152604080832093909416825291909152205490565b33610489610372565b6001600160a01b0316146104af5760405162461bcd60e51b815260040161035d90610b3c565b6001600160a01b0381166105145760405162461bcd60e51b815260206004820152602660248201527f4f776e61626c653a206e6577206f776e657220697320746865207a65726f206160448201526564647265737360d01b606482015260840161035d565b6103c981610877565b6001600160a01b03831661057f5760405162461bcd60e51b8152602060048201526024808201527f45524332303a20617070726f76652066726f6d20746865207a65726f206164646044820152637265737360e01b606482015260840161035d565b6001600160a01b0382166105e05760405162461bcd60e51b815260206004820152602260248201527f45524332303a20617070726f766520746f20746865207a65726f206164647265604482015261737360f01b606482015260840161035d565b6001600160a01b0383811660008181526001602090815260408083209487168084529482529182902085905590518481527f8c5be1e5ebec7d5bd14f71427d1e84f3dd0314c0f7b2291e5b200ac8c7c3b925910160405180910390a3505050565b600061064d8484610455565b905060001981146106b557818110156106a85760405162461bcd60e51b815260206004820152601d60248201527f45524332303a20696e73756666696369656e7420616c6c6f77616e6365000000604482015260640161035d565b6106b5848484840361051d565b50505050565b6001600160a01b03831661071f5760405162461bcd60e51b815260206004820152602560248201527f45524332303a207472616e736665722066726f6d20746865207a65726f206164604482015264647265737360d81b606482015260840161035d565b6001600160a01b0382166107815760405162461bcd60e51b815260206004820152602360248201527f45524332303a207472616e7366657220746f20746865207a65726f206164647260448201526265737360e81b606482015260840161035d565b6001600160a01b038316600090815260208190526040902054818110156107f95760405162461bcd60e51b815260206004820152602660248201527f45524332303a207472616e7366657220616d6f756e7420657863656564732062604482015265616c616e636560d01b606482015260840161035d565b6001600160a01b03808516600090815260208190526040808220858503905591851681529081208054849290610830908490610b16565b92505081905550826001600160a01b0316846001600160a01b0316600080516020610b728339815191528460405161086a91815260200190565b60405180910390a36106b5565b600580546001600160a01b038381166001600160a01b0319831681179093556040519116919082907f8be0079c531659141344cd1fd0a4f28419497f9722a3daafe3b4186f6b6457e090600090a35050565b6001600160a01b03821661091f5760405162461bcd60e51b815260206004820152601f60248201527f45524332303a206d696e7420746f20746865207a65726f206164647265737300604482015260640161035d565b80600260008282546109319190610b16565b90915550506001600160a01b0382166000908152602081905260408120805483929061095e908490610b16565b90915550506040518181526001600160a01b03831690600090600080516020610b728339815191529060200160405180910390a35050565b600060208083528351808285015260005b818110156109c3578581018301518582016040015282016109a7565b818111156109d5576000604083870101525b50601f01601f1916929092016040019392505050565b80356001600160a01b0381168114610a0257600080fd5b919050565b60008060408385031215610a1a57600080fd5b610a23836109eb565b946020939093013593505050565b600080600060608486031215610a4657600080fd5b610a4f846109eb565b9250610a5d602085016109eb565b9150604084013590509250925092565b600060208284031215610a7f57600080fd5b610a88826109eb565b9392505050565b600060208284031215610aa157600080fd5b5035919050565b60008060408385031215610abb57600080fd5b610ac4836109eb565b9150610ad2602084016109eb565b90509250929050565b600181811c90821680610aef57607f821691505b60208210811415610b1057634e487b7160e01b600052602260045260246000fd5b50919050565b60008219821115610b3757634e487b7160e01b600052601160045260246000fd5b500190565b6020808252818101527f4f776e61626c653a2063616c6c6572206973206e6f7420746865206f776e657260408201526060019056feddf252ad1be2c89b69c2b068fc378daa952ba7f163c4a11628f55a4df523b3efa264697066735822122036d7c679b37f71af1e47b24e0469ffac197271488b3746a6102de533079a389364736f6c634300080b0033a2646970667358221220caf6e4603615c149f2b4a11f381854ea979138a0e08005b0fccf440371e6c6d764736f6c634300080b0033",
  "immutableReferences": {
    "12809": [
      {
        "length": 32,
        "start": 283
      },
      {
        "length": 32,
        "start": 886
      }
    ],
    "12811": [
      {
        "length": 32,
        "start": 407
      }
    ]
  },
  "source": "/**\r\n    @author Blok Hamster \r\n */\r\n\r\n// SPDX-License-Identifier: MIT\r\npragma solidity ^0.8.4;\r\npragma experimental ABIEncoderV2;\r\n\r\nimport \"../Products/TokenRoyaltySale.sol\";\r\nimport { IPicardyHub } from \"../PicardyHub.sol\";\r\nimport {IPicardyProfile} from \"../Users/PicardyProfile.sol\";\r\nimport \"@openzeppelin/contracts/access/Ownable.sol\";\r\n\r\ncontract TokenRoyaltySaleFactory is Ownable {\r\n\r\n    address immutable PICARDY_HUB;\r\n    address immutable PICARDY_TOKEN;\r\n\r\n    modifier isCreator(uint _profileId){\r\n        _isCreator(_profileId);\r\n        _;\r\n    }\r\n\r\n   constructor (address _PICARDY_HUB, address _PICARDY_TOKEN){\r\n        PICARDY_HUB = _PICARDY_HUB;\r\n        PICARDY_TOKEN = _PICARDY_TOKEN;\r\n\r\n        transferOwnership(PICARDY_HUB);\r\n    }\r\n\r\n    /**\r\n        @dev Creats A ERC20 token royalty sale contract \r\n        @param _askAmount The total askinng amount for royalty\r\n        @param _returnPercentage Percentage of royalty to sell\r\n        @param _profileId Caller profile ID\r\n    */\r\n    function createTokenRoyalty(uint _askAmount, uint _returnPercentage, uint _profileId) external isCreator(_profileId){\r\n        address profileAddress = IPicardyHub(PICARDY_HUB).getProfileAddress(_profileId); \r\n\r\n        TokenRoyaltySale tokenRoyalty = new TokenRoyaltySale(_askAmount, _returnPercentage, msg.sender, PICARDY_TOKEN);\r\n        IPicardyProfile(profileAddress).addProduct(4, address(tokenRoyalty));\r\n    }\r\n\r\n    function _isCreator(uint _profileId) internal view {\r\n        require(\r\n            IPicardyHub(PICARDY_HUB).checkIsCreator(_profileId) == true\r\n        );\r\n    }\r\n}",
  "sourcePath": "C:\\Users\\USER\\Desktop\\Picardy_Protocol\\contracts\\Factory\\TokenRoyaltySaleFactory.sol",
  "compiler": {
    "name": "solc",
    "version": "0.8.11+commit.d7f03943.Emscripten.clang"
  },
  "schemaVersion": "3.4.6",
  "updatedAt": "2022-05-27T16:25:13.094Z",
  "networkType": "ethereum",
  "devdoc": {
    "kind": "dev",
    "methods": {
      "createTokenRoyalty(uint256,uint256,uint256)": {
        "details": "Creats A ERC20 token royalty sale contract ",
        "params": {
          "_askAmount": "The total askinng amount for royalty",
          "_profileId": "Caller profile ID",
          "_returnPercentage": "Percentage of royalty to sell"
        }
      },
      "owner()": {
        "details": "Returns the address of the current owner."
      },
      "renounceOwnership()": {
        "details": "Leaves the contract without owner. It will not be possible to call `onlyOwner` functions anymore. Can only be called by the current owner. NOTE: Renouncing ownership will leave the contract without an owner, thereby removing any functionality that is only available to the owner."
      },
      "transferOwnership(address)": {
        "details": "Transfers ownership of the contract to a new account (`newOwner`). Can only be called by the current owner."
      }
    },
    "version": 1
  },
  "userdoc": {
    "kind": "user",
    "methods": {},
    "version": 1
  }
}