{
  "contractName": "TokenRoyaltySale",
  "abi": [
    {
      "inputs": [
        {
          "internalType": "uint256",
          "name": "_royaltyPoolSize",
          "type": "uint256"
        },
        {
          "internalType": "uint256",
          "name": "_percentage",
          "type": "uint256"
        },
        {
          "internalType": "address",
          "name": "_creator",
          "type": "address"
        },
        {
          "internalType": "address",
          "name": "_royaltyCPToken",
          "type": "address"
        },
        {
          "internalType": "address",
          "name": "_picardyToken",
          "type": "address"
        }
      ],
      "stateMutability": "nonpayable",
      "type": "constructor"
    },
    {
      "anonymous": false,
      "inputs": [
        {
          "indexed": true,
          "internalType": "address",
          "name": "previousOwner",
          "type": "address"
        },
        {
          "indexed": true,
          "internalType": "address",
          "name": "newOwner",
          "type": "address"
        }
      ],
      "name": "OwnershipTransferred",
      "type": "event"
    },
    {
      "anonymous": false,
      "inputs": [
        {
          "indexed": true,
          "internalType": "uint256",
          "name": "amount",
          "type": "uint256"
        },
        {
          "indexed": false,
          "internalType": "uint256",
          "name": "time",
          "type": "uint256"
        }
      ],
      "name": "RoyaltyBalanceUpdated",
      "type": "event"
    },
    {
      "inputs": [],
      "name": "owner",
      "outputs": [
        {
          "internalType": "address",
          "name": "",
          "type": "address"
        }
      ],
      "stateMutability": "view",
      "type": "function"
    },
    {
      "inputs": [],
      "name": "renounceOwnership",
      "outputs": [],
      "stateMutability": "nonpayable",
      "type": "function"
    },
    {
      "inputs": [
        {
          "internalType": "address",
          "name": "newOwner",
          "type": "address"
        }
      ],
      "name": "transferOwnership",
      "outputs": [],
      "stateMutability": "nonpayable",
      "type": "function"
    },
    {
      "inputs": [],
      "name": "start",
      "outputs": [],
      "stateMutability": "nonpayable",
      "type": "function"
    },
    {
      "inputs": [
        {
          "internalType": "uint256",
          "name": "_amount",
          "type": "uint256"
        }
      ],
      "name": "buyRoyalty",
      "outputs": [],
      "stateMutability": "nonpayable",
      "type": "function"
    },
    {
      "inputs": [
        {
          "internalType": "uint256",
          "name": "_amount",
          "type": "uint256"
        }
      ],
      "name": "updateRoyaltyBalance",
      "outputs": [],
      "stateMutability": "nonpayable",
      "type": "function"
    },
    {
      "inputs": [],
      "name": "withdraw",
      "outputs": [],
      "stateMutability": "nonpayable",
      "type": "function"
    },
    {
      "inputs": [
        {
          "internalType": "uint256",
          "name": "_amount",
          "type": "uint256"
        }
      ],
      "name": "withdrawRoyalty",
      "outputs": [],
      "stateMutability": "nonpayable",
      "type": "function"
    },
    {
      "inputs": [],
      "name": "getPoolMembers",
      "outputs": [
        {
          "internalType": "address[]",
          "name": "",
          "type": "address[]"
        }
      ],
      "stateMutability": "view",
      "type": "function"
    },
    {
      "inputs": [],
      "name": "getPoolSize",
      "outputs": [
        {
          "internalType": "uint256",
          "name": "",
          "type": "uint256"
        }
      ],
      "stateMutability": "view",
      "type": "function"
    },
    {
      "inputs": [],
      "name": "getPoolBalance",
      "outputs": [
        {
          "internalType": "uint256",
          "name": "",
          "type": "uint256"
        }
      ],
      "stateMutability": "view",
      "type": "function"
    },
    {
      "inputs": [],
      "name": "getMemberPoolSize",
      "outputs": [
        {
          "internalType": "uint256",
          "name": "",
          "type": "uint256"
        }
      ],
      "stateMutability": "view",
      "type": "function"
    },
    {
      "inputs": [],
      "name": "getRoyaltyBalance",
      "outputs": [
        {
          "internalType": "uint256",
          "name": "",
          "type": "uint256"
        }
      ],
      "stateMutability": "view",
      "type": "function"
    },
    {
      "inputs": [],
      "name": "getCreator",
      "outputs": [
        {
          "internalType": "address",
          "name": "",
          "type": "address"
        }
      ],
      "stateMutability": "view",
      "type": "function"
    },
    {
      "inputs": [],
      "name": "getRoyaltyPercentage",
      "outputs": [
        {
          "internalType": "uint256",
          "name": "",
          "type": "uint256"
        }
      ],
      "stateMutability": "view",
      "type": "function"
    },
    {
      "inputs": [],
      "name": "getRoyaltyState",
      "outputs": [
        {
          "internalType": "enum TokenRoyaltySale.TokenRoyaltyState",
          "name": "",
          "type": "uint8"
        }
      ],
      "stateMutability": "view",
      "type": "function"
    }
  ],
  "bytecode": "0x608060405260046001553480156200001657600080fd5b5060405162001c1138038062001c11833981016040819052620000399162000183565b6200004433620000a0565b60028590556003849055600580546001600160a01b038086166001600160a01b03199283161790925560068054858416908316179055600780549284169290911691909117905562000095620000f0565b5050505050620001e1565b600080546001600160a01b038381166001600160a01b0319831681178455604051919092169283917f8be0079c531659141344cd1fd0a4f28419497f9722a3daafe3b4186f6b6457e09190a35050565b6000604051620001009062000158565b604051809103906000f0801580156200011d573d6000803e3d6000fd5b50600d80546001600160a01b0319166001600160a01b0383161790556000805491925060019160ff60a01b1916600160a01b83021790555050565b610db08062000e6183390190565b80516001600160a01b03811681146200017e57600080fd5b919050565b600080600080600060a086880312156200019c57600080fd5b8551945060208601519350620001b56040870162000166565b9250620001c56060870162000166565b9150620001d56080870162000166565b90509295509295909350565b610c7080620001f16000396000f3fe608060405234801561001057600080fd5b50600436106100d05760003560e01c80630ee2cb10146100d557806323845e4b146100f85780632ced76091461010a57806336dacc8c1461011f5780633ccfd60b1461013457806345bb3ba51461013c57806357a2eda91461015657806359c8b7dd14610169578063715018a614610171578063755b916214610179578063843aad3e1461018c5780638da5cb5b146101a1578063abd70aa2146101a9578063be9a6555146101b1578063d9005b32146101b9578063f2fde38b146101ce575b600080fd5b6005546001600160a01b03165b6040516100ef9190610a38565b60405180910390f35b6002545b6040519081526020016100ef565b61011d610118366004610a4c565b6101e1565b005b61012761022f565b6040516100ef9190610a65565b61011d610291565b600054600160a01b900460ff166040516100ef9190610ac8565b61011d610164366004610a4c565b6102a3565b6003546100fc565b61011d61035b565b61011d610187366004610a4c565b61039d565b336000908152600a60205260409020546100fc565b6100e261047a565b6004546100fc565b61011d610489565b336000908152600c60205260409020546100fc565b61011d6101dc366004610af0565b6104c3565b6101e9610560565b6101f281610577565b807f2a83f908565c3d957dceb22c0e7fcdfad11af00a96013c75b6f7d73dd390b6dc4260405161022491815260200190565b60405180910390a250565b6060600980548060200260200160405190810160405280929190818152602001828054801561028757602002820191906000526020600020905b81546001600160a01b03168152600190910190602001808311610269575b5050505050905090565b610299610560565b6102a16105eb565b565b336000908152600b602052604090205460ff1615156001146102c457600080fd5b336000908152600a60205260409020548111156102e057600080fd5b6007546040516323b872dd60e01b81526001600160a01b03909116906323b872dd9061031490309033908690600401610b20565b6020604051808303816000875af1158015610333573d6000803e3d6000fd5b505050506040513d601f19601f820116820180604052508101906103579190610b44565b5050565b3361036461047a565b6001600160a01b0316146103935760405162461bcd60e51b815260040161038a90610b66565b60405180910390fd5b6102a16000610787565b60008054600160a01b900460ff1660028111156103bc576103bc610ab2565b146103c657600080fd5b336000908152600b602052604090205460ff16156103e357600080fd5b6007546040516370a0823160e01b815282916001600160a01b0316906370a0823190610413903390600401610a38565b602060405180830381865afa158015610430573d6000803e3d6000fd5b505050506040513d601f19601f820116820180604052508101906104549190610b9b565b101561045f57600080fd5b60025481111561046e57600080fd5b610477816107d7565b50565b6000546001600160a01b031690565b610491610560565b6001600054600160a01b900460ff1660028111156104b1576104b1610ab2565b146104bb57600080fd5b6102a16109b2565b336104cc61047a565b6001600160a01b0316146104f25760405162461bcd60e51b815260040161038a90610b66565b6001600160a01b0381166105575760405162461bcd60e51b815260206004820152602660248201527f4f776e61626c653a206e6577206f776e657220697320746865207a65726f206160448201526564647265737360d01b606482015260840161038a565b61047781610787565b6005546001600160a01b031633146102a157600080fd5b60006064600354836105899190610bca565b6105939190610be9565b336000908152600c602052604081205491925060646105b28385610bca565b6105bc9190610be9565b336000908152600a60205260408120805492935083929091906105e0908490610c0b565b909155505050505050565b6007546040516370a0823160e01b81526000916001600160a01b0316906370a082319061061c903090600401610a38565b602060405180830381865afa158015610639573d6000803e3d6000fd5b505050506040513d601f19601f8201168201806040525081019061065d9190610b9b565b90506000606461066e836005610bca565b6106789190610be9565b905060006106868284610c23565b6007546005546040516323b872dd60e01b81529293506001600160a01b03918216926323b872dd926106c19230929116908690600401610b20565b6020604051808303816000875af11580156106e0573d6000803e3d6000fd5b505050506040513d601f19601f820116820180604052508101906107049190610b44565b506007546008546040516323b872dd60e01b81526001600160a01b03928316926323b872dd9261073e923092909116908790600401610b20565b6020604051808303816000875af115801561075d573d6000803e3d6000fd5b505050506040513d601f19601f820116820180604052508101906107819190610b44565b50505050565b600080546001600160a01b038381166001600160a01b0319831681178455604051919092169283917f8be0079c531659141344cd1fd0a4f28419497f9722a3daafe3b4186f6b6457e09190a35050565b60075460405163a9059cbb60e01b8152306004820152602481018390526001600160a01b039091169063a9059cbb906044016020604051808303816000875af1158015610828573d6000803e3d6000fd5b505050506040513d601f19601f8201168201806040525081019061084c9190610b44565b5060008160025461085d9190610c23565b905061086881600455565b600254600090610879846064610bca565b6108839190610be9565b336000908152600c60209081526040808320849055600a9091528120805492935085929091906108b4908490610c0b565b9091555050336000818152600b6020526040808220805460ff191660019081179091556009805491820181559092527f6e1540171b6c0c960b71a7020d9f60077f6af931a8bbf590da0223dacf75c7af90910180546001600160a01b03191683179055600d5490516323b872dd60e01b81526001600160a01b0391909116916323b872dd916109499130918890600401610b20565b6020604051808303816000875af1158015610968573d6000803e3d6000fd5b505050506040513d601f19601f8201168201806040525081019061098c9190610b44565b5060045460025414156109ad576000805460ff60a01b1916600160a11b1790555b505050565b600d5460025460405163140e25ad60e31b815260048101919091526001600160a01b0390911690819063a0712d68906024016020604051808303816000875af1158015610a03573d6000803e3d6000fd5b505050506040513d601f19601f82011682018060405250810190610a279190610b9b565b50506000805460ff60a01b19169055565b6001600160a01b0391909116815260200190565b600060208284031215610a5e57600080fd5b5035919050565b6020808252825182820181905260009190848201906040850190845b81811015610aa65783516001600160a01b031683529284019291840191600101610a81565b50909695505050505050565b634e487b7160e01b600052602160045260246000fd5b6020810160038310610aea57634e487b7160e01b600052602160045260246000fd5b91905290565b600060208284031215610b0257600080fd5b81356001600160a01b0381168114610b1957600080fd5b9392505050565b6001600160a01b039384168152919092166020820152604081019190915260600190565b600060208284031215610b5657600080fd5b81518015158114610b1957600080fd5b6020808252818101527f4f776e61626c653a2063616c6c6572206973206e6f7420746865206f776e6572604082015260600190565b600060208284031215610bad57600080fd5b5051919050565b634e487b7160e01b600052601160045260246000fd5b6000816000190483118215151615610be457610be4610bb4565b500290565b600082610c0657634e487b7160e01b600052601260045260246000fd5b500490565b60008219821115610c1e57610c1e610bb4565b500190565b600082821015610c3557610c35610bb4565b50039056fea2646970667358221220030b324962bd2da6e936e61d8f98b51e78df217cce454eb4b0a7e98f1f36f22f64736f6c634300080b003360806040523480156200001157600080fd5b50604080518082018252601881527f506963617264792043726f756420506f6f6c20546f6b656e000000000000000060208083019182528351808501909452600784526621a82a37b5b2b760c91b908401528151919291620000769160039162000105565b5080516200008c90600490602084019062000105565b505050620000a9620000a3620000af60201b60201c565b620000b3565b620001e8565b3390565b600580546001600160a01b038381166001600160a01b0319831681179093556040519116919082907f8be0079c531659141344cd1fd0a4f28419497f9722a3daafe3b4186f6b6457e090600090a35050565b8280546200011390620001ab565b90600052602060002090601f01602090048101928262000137576000855562000182565b82601f106200015257805160ff191683800117855562000182565b8280016001018555821562000182579182015b828111156200018257825182559160200191906001019062000165565b506200019092915062000194565b5090565b5b8082111562000190576000815560010162000195565b600181811c90821680620001c057607f821691505b60208210811415620001e257634e487b7160e01b600052602260045260246000fd5b50919050565b610bb880620001f86000396000f3fe608060405234801561001057600080fd5b50600436106100d05760003560e01c806306fdde03146100d5578063095ea7b3146100f357806318160ddd1461011657806323b872dd14610128578063313ce5671461013b578063395093511461014a5780635eede7e51461015d57806370a0823114610188578063715018a6146101b15780638da5cb5b146101bb57806395d89b41146101c3578063a0712d68146101cb578063a457c2d7146101de578063a9059cbb146101f1578063dd62ed3e14610204578063f2fde38b14610217575b600080fd5b6100dd61022a565b6040516100ea919061098c565b60405180910390f35b6101066101013660046109f8565b6102bc565b60405190151581526020016100ea565b6002545b6040519081526020016100ea565b610106610136366004610a22565b6102d4565b604051601281526020016100ea565b6101066101583660046109f8565b6102f8565b600654610170906001600160a01b031681565b6040516001600160a01b0390911681526020016100ea565b61011a610196366004610a5e565b6001600160a01b031660009081526020819052604090205490565b6101b961031a565b005b61017061035e565b6100dd61036d565b61011a6101d9366004610a80565b61037c565b6101066101ec3660046109f8565b6103bf565b6101066101ff3660046109f8565b61043a565b61011a610212366004610a99565b610448565b6101b9610225366004610a5e565b610473565b60606003805461023990610acc565b80601f016020809104026020016040519081016040528092919081815260200182805461026590610acc565b80156102b25780601f10610287576101008083540402835291602001916102b2565b820191906000526020600020905b81548152906001019060200180831161029557829003601f168201915b5050505050905090565b6000336102ca818585610513565b5060019392505050565b6000336102e2858285610637565b6102ed8585856106b1565b506001949350505050565b6000336102ca81858561030b8383610448565b6103159190610b07565b610513565b3361032361035e565b6001600160a01b0316146103525760405162461bcd60e51b815260040161034990610b2d565b60405180910390fd5b61035c600061086d565b565b6005546001600160a01b031690565b60606004805461023990610acc565b60003361038761035e565b6001600160a01b0316146103ad5760405162461bcd60e51b815260040161034990610b2d565b6103b733836108bf565b50805b919050565b600033816103cd8286610448565b90508381101561042d5760405162461bcd60e51b815260206004820152602560248201527f45524332303a2064656372656173656420616c6c6f77616e63652062656c6f77604482015264207a65726f60d81b6064820152608401610349565b6102ed8286868403610513565b6000336102ca8185856106b1565b6001600160a01b03918216600090815260016020908152604080832093909416825291909152205490565b3361047c61035e565b6001600160a01b0316146104a25760405162461bcd60e51b815260040161034990610b2d565b6001600160a01b0381166105075760405162461bcd60e51b815260206004820152602660248201527f4f776e61626c653a206e6577206f776e657220697320746865207a65726f206160448201526564647265737360d01b6064820152608401610349565b6105108161086d565b50565b6001600160a01b0383166105755760405162461bcd60e51b8152602060048201526024808201527f45524332303a20617070726f76652066726f6d20746865207a65726f206164646044820152637265737360e01b6064820152608401610349565b6001600160a01b0382166105d65760405162461bcd60e51b815260206004820152602260248201527f45524332303a20617070726f766520746f20746865207a65726f206164647265604482015261737360f01b6064820152608401610349565b6001600160a01b0383811660008181526001602090815260408083209487168084529482529182902085905590518481527f8c5be1e5ebec7d5bd14f71427d1e84f3dd0314c0f7b2291e5b200ac8c7c3b925910160405180910390a3505050565b60006106438484610448565b905060001981146106ab578181101561069e5760405162461bcd60e51b815260206004820152601d60248201527f45524332303a20696e73756666696369656e7420616c6c6f77616e63650000006044820152606401610349565b6106ab8484848403610513565b50505050565b6001600160a01b0383166107155760405162461bcd60e51b815260206004820152602560248201527f45524332303a207472616e736665722066726f6d20746865207a65726f206164604482015264647265737360d81b6064820152608401610349565b6001600160a01b0382166107775760405162461bcd60e51b815260206004820152602360248201527f45524332303a207472616e7366657220746f20746865207a65726f206164647260448201526265737360e81b6064820152608401610349565b6001600160a01b038316600090815260208190526040902054818110156107ef5760405162461bcd60e51b815260206004820152602660248201527f45524332303a207472616e7366657220616d6f756e7420657863656564732062604482015265616c616e636560d01b6064820152608401610349565b6001600160a01b03808516600090815260208190526040808220858503905591851681529081208054849290610826908490610b07565b92505081905550826001600160a01b0316846001600160a01b0316600080516020610b638339815191528460405161086091815260200190565b60405180910390a36106ab565b600580546001600160a01b038381166001600160a01b0319831681179093556040519116919082907f8be0079c531659141344cd1fd0a4f28419497f9722a3daafe3b4186f6b6457e090600090a35050565b6001600160a01b0382166109155760405162461bcd60e51b815260206004820152601f60248201527f45524332303a206d696e7420746f20746865207a65726f2061646472657373006044820152606401610349565b80600260008282546109279190610b07565b90915550506001600160a01b03821660009081526020819052604081208054839290610954908490610b07565b90915550506040518181526001600160a01b03831690600090600080516020610b638339815191529060200160405180910390a35050565b600060208083528351808285015260005b818110156109b95785810183015185820160400152820161099d565b818111156109cb576000604083870101525b50601f01601f1916929092016040019392505050565b80356001600160a01b03811681146103ba57600080fd5b60008060408385031215610a0b57600080fd5b610a14836109e1565b946020939093013593505050565b600080600060608486031215610a3757600080fd5b610a40846109e1565b9250610a4e602085016109e1565b9150604084013590509250925092565b600060208284031215610a7057600080fd5b610a79826109e1565b9392505050565b600060208284031215610a9257600080fd5b5035919050565b60008060408385031215610aac57600080fd5b610ab5836109e1565b9150610ac3602084016109e1565b90509250929050565b600181811c90821680610ae057607f821691505b60208210811415610b0157634e487b7160e01b600052602260045260246000fd5b50919050565b60008219821115610b2857634e487b7160e01b600052601160045260246000fd5b500190565b6020808252818101527f4f776e61626c653a2063616c6c6572206973206e6f7420746865206f776e657260408201526060019056feddf252ad1be2c89b69c2b068fc378daa952ba7f163c4a11628f55a4df523b3efa2646970667358221220129a1c83ee4763b4c57507509ae9822504995416ab7f8cf2bf5be85eefb10d0064736f6c634300080b0033",
  "immutableReferences": {},
  "source": "// SPDX-License-Identifier: MIT\r\npragma solidity ^0.8.4;\r\npragma experimental ABIEncoderV2;\r\n\r\nimport \"@openzeppelin/contracts/utils/Address.sol\";\r\nimport \"@openzeppelin/contracts/access/AccessControl.sol\";\r\nimport \"@openzeppelin/contracts/access/Ownable.sol\";\r\nimport \"@openzeppelin/contracts/token/ERC20/IERC20.sol\";\r\nimport \"../Tokens/CPToken.sol\";\r\n\r\ncontract TokenRoyaltySale is Ownable {\r\n\r\n    using Address for address;\r\n\r\n    event RoyaltyBalanceUpdated(uint indexed amount, uint time);\r\n\r\n    enum TokenRoyaltyState{\r\n        OPEN,\r\n        CLOSED,\r\n        CONCLUDED\r\n    }\r\n\r\n    TokenRoyaltyState tokenRoyaltyState;\r\n\r\n    uint productId = 4;\r\n    uint royaltyPoolSize;\r\n    uint percentage;\r\n    uint royaltyPoolBalance;\r\n    address creator;\r\n    address royaltyCPToken;\r\n    address picardyToken;\r\n    address private txFeeWallet;\r\n    address[] royaltyPoolMembers;\r\n\r\n    mapping (address => uint) royaltyBalance;\r\n    mapping (address => bool) isPoolMember;\r\n    mapping (address => uint) memberSize;\r\n    CPToken cpToken;\r\n\r\n    modifier onlyCreator(){\r\n        _onlyCreator();\r\n        _;\r\n    }\r\n\r\n    constructor (uint _royaltyPoolSize, uint _percentage, address _creator, address _royaltyCPToken, address _picardyToken){\r\n        royaltyPoolSize = _royaltyPoolSize;\r\n        percentage = _percentage;\r\n        creator = _creator;\r\n        royaltyCPToken = _royaltyCPToken;\r\n        picardyToken = _picardyToken;\r\n        _CPToken();\r\n    }\r\n\r\n    function start() external onlyCreator {\r\n        require(tokenRoyaltyState == TokenRoyaltyState.CLOSED);\r\n        _start();\r\n    }\r\n\r\n    function buyRoyalty(uint _amount) external {\r\n        require(tokenRoyaltyState == TokenRoyaltyState.OPEN);\r\n        require(isPoolMember[msg.sender] == false);\r\n        require(IERC20(picardyToken).balanceOf(msg.sender) >= _amount);\r\n        require(_amount <= royaltyPoolSize);\r\n\r\n        _buyRoyalty(_amount);\r\n    }\r\n\r\n    function updateRoyaltyBalance(uint _amount) external onlyCreator{\r\n\r\n        _updateRoyaltyBalance(_amount);\r\n\r\n        emit RoyaltyBalanceUpdated(_amount, block.timestamp);\r\n\r\n    }\r\n\r\n    function withdraw() external onlyCreator{\r\n    \r\n        _withdraw();\r\n    \r\n    }\r\n\r\n    function withdrawRoyalty(uint _amount) external {\r\n        require(isPoolMember[msg.sender] == true);\r\n        require(_amount <= royaltyBalance[msg.sender]);\r\n\r\n        IERC20(picardyToken).transferFrom(address(this), msg.sender, _amount);\r\n    }\r\n\r\n    // GETTER FUNCTIONS//\r\n\r\n    function getPoolMembers() external view returns (address[] memory){\r\n        return royaltyPoolMembers;\r\n    }\r\n\r\n    function getPoolSize() external view returns(uint){\r\n        return royaltyPoolSize;\r\n    }\r\n\r\n    function getPoolBalance() external view returns(uint){\r\n        return royaltyPoolBalance;\r\n    }\r\n\r\n    function getMemberPoolSize() external view returns(uint){\r\n        return memberSize[msg.sender];\r\n    }\r\n\r\n    function getRoyaltyBalance() external view returns(uint){\r\n        return royaltyBalance[msg.sender];\r\n    }\r\n\r\n    function getCreator() external view returns(address){\r\n        return creator;\r\n    }\r\n\r\n    function getRoyaltyPercentage() external view returns(uint){\r\n        return percentage;\r\n    }\r\n\r\n    function getRoyaltyState() external view returns (TokenRoyaltyState){\r\n        return tokenRoyaltyState;\r\n    }\r\n\r\n    // INTERNAL FUNCTIONS //\r\n\r\n    function _CPToken() internal {\r\n         CPToken newCpToken = new CPToken();\r\n        cpToken = newCpToken;\r\n        tokenRoyaltyState = TokenRoyaltyState.CLOSED;\r\n    }\r\n\r\n     function _start() internal {\r\n        CPToken newCpToken = CPToken(cpToken);\r\n        newCpToken.mint(royaltyPoolSize);\r\n        tokenRoyaltyState = TokenRoyaltyState.OPEN;\r\n    }\r\n\r\n    function _buyRoyalty(uint _amount) internal {\r\n        IERC20(picardyToken).transfer(address(this), _amount);\r\n\r\n        uint _balance = royaltyPoolSize - _amount;\r\n        _updatePoolSize(_balance);\r\n\r\n        uint ownerPoolSize = (_amount * 100) / royaltyPoolSize;\r\n        memberSize[msg.sender] = ownerPoolSize;\r\n        \r\n        royaltyBalance[msg.sender] += _amount;\r\n        isPoolMember[msg.sender] = true;\r\n        royaltyPoolMembers.push(msg.sender);\r\n\r\n        IERC20(cpToken).transferFrom(address(this), msg.sender, _amount);\r\n\r\n        if(royaltyPoolSize == royaltyPoolBalance){\r\n            tokenRoyaltyState = TokenRoyaltyState.CONCLUDED;\r\n        }\r\n\r\n    }\r\n\r\n    function _updateRoyaltyBalance(uint _amount) internal {\r\n        \r\n        uint newRoyaltyBalance = _amount * percentage / 100;\r\n        uint newMemberPoolSize = memberSize[msg.sender];\r\n\r\n        uint toUpdate = newRoyaltyBalance * newMemberPoolSize / 100;\r\n\r\n        royaltyBalance[msg.sender] += toUpdate;\r\n\r\n    }\r\n\r\n    function _withdraw() internal {\r\n        \r\n        uint balance = IERC20(picardyToken).balanceOf(address(this));\r\n        uint txFee = balance * 5 / 100;\r\n        uint toWithdraw = balance - txFee;\r\n\r\n        IERC20(picardyToken).transferFrom(address(this), creator, toWithdraw);\r\n        IERC20(picardyToken).transferFrom(address(this), txFeeWallet, txFee);\r\n    \r\n    }\r\n\r\n    function _updatePoolSize(uint _balance) internal {\r\n        royaltyPoolBalance = _balance;\r\n    }\r\n\r\n    function _onlyCreator() internal view {\r\n        require(msg.sender == creator);\r\n    }\r\n\r\n}",
  "sourcePath": "C:\\Users\\USER\\Desktop\\Picardy_Protocol\\contracts\\Products\\TokenRoyaltySale.sol",
  "compiler": {
    "name": "solc",
    "version": "0.8.11+commit.d7f03943.Emscripten.clang"
  },
  "schemaVersion": "3.4.6",
  "updatedAt": "2022-05-18T15:32:59.603Z",
  "devdoc": {
    "kind": "dev",
    "methods": {
      "owner()": {
        "details": "Returns the address of the current owner."
      },
      "renounceOwnership()": {
        "details": "Leaves the contract without owner. It will not be possible to call `onlyOwner` functions anymore. Can only be called by the current owner. NOTE: Renouncing ownership will leave the contract without an owner, thereby removing any functionality that is only available to the owner."
      },
      "transferOwnership(address)": {
        "details": "Transfers ownership of the contract to a new account (`newOwner`). Can only be called by the current owner."
      }
    },
    "version": 1
  },
  "userdoc": {
    "kind": "user",
    "methods": {},
    "version": 1
  }
}