{
  "contractName": "Validators",
  "abi": [
    {
      "inputs": [
        {
          "internalType": "address",
          "name": "_link",
          "type": "address"
        },
        {
          "internalType": "address",
          "name": "_vrfCoordinator",
          "type": "address"
        },
        {
          "internalType": "address",
          "name": "_admin",
          "type": "address"
        },
        {
          "internalType": "bytes32",
          "name": "_keyHash",
          "type": "bytes32"
        },
        {
          "internalType": "uint256",
          "name": "_fee",
          "type": "uint256"
        },
        {
          "internalType": "uint256",
          "name": "_stakeAmount",
          "type": "uint256"
        },
        {
          "internalType": "address",
          "name": "_governanceToken",
          "type": "address"
        },
        {
          "internalType": "uint256",
          "name": "_voteWinReward",
          "type": "uint256"
        }
      ],
      "stateMutability": "nonpayable",
      "type": "constructor"
    },
    {
      "anonymous": false,
      "inputs": [
        {
          "indexed": true,
          "internalType": "address",
          "name": "Validator",
          "type": "address"
        },
        {
          "indexed": true,
          "internalType": "uint256",
          "name": "time",
          "type": "uint256"
        }
      ],
      "name": "JoinPool",
      "type": "event"
    },
    {
      "anonymous": false,
      "inputs": [
        {
          "indexed": true,
          "internalType": "address",
          "name": "Validator",
          "type": "address"
        },
        {
          "indexed": true,
          "internalType": "uint256",
          "name": "time",
          "type": "uint256"
        }
      ],
      "name": "LeftPool",
      "type": "event"
    },
    {
      "anonymous": false,
      "inputs": [
        {
          "indexed": true,
          "internalType": "uint256",
          "name": "ProposalId",
          "type": "uint256"
        },
        {
          "indexed": true,
          "internalType": "uint256",
          "name": "time",
          "type": "uint256"
        }
      ],
      "name": "NewProposalAdded",
      "type": "event"
    },
    {
      "anonymous": false,
      "inputs": [
        {
          "indexed": true,
          "internalType": "address",
          "name": "previousOwner",
          "type": "address"
        },
        {
          "indexed": true,
          "internalType": "address",
          "name": "newOwner",
          "type": "address"
        }
      ],
      "name": "OwnershipTransferred",
      "type": "event"
    },
    {
      "anonymous": false,
      "inputs": [
        {
          "indexed": false,
          "internalType": "bytes32",
          "name": "requestId",
          "type": "bytes32"
        }
      ],
      "name": "RequestedRandomness",
      "type": "event"
    },
    {
      "anonymous": false,
      "inputs": [
        {
          "indexed": true,
          "internalType": "bytes32",
          "name": "role",
          "type": "bytes32"
        },
        {
          "indexed": true,
          "internalType": "bytes32",
          "name": "previousAdminRole",
          "type": "bytes32"
        },
        {
          "indexed": true,
          "internalType": "bytes32",
          "name": "newAdminRole",
          "type": "bytes32"
        }
      ],
      "name": "RoleAdminChanged",
      "type": "event"
    },
    {
      "anonymous": false,
      "inputs": [
        {
          "indexed": true,
          "internalType": "bytes32",
          "name": "role",
          "type": "bytes32"
        },
        {
          "indexed": true,
          "internalType": "address",
          "name": "account",
          "type": "address"
        },
        {
          "indexed": true,
          "internalType": "address",
          "name": "sender",
          "type": "address"
        }
      ],
      "name": "RoleGranted",
      "type": "event"
    },
    {
      "anonymous": false,
      "inputs": [
        {
          "indexed": true,
          "internalType": "bytes32",
          "name": "role",
          "type": "bytes32"
        },
        {
          "indexed": true,
          "internalType": "address",
          "name": "account",
          "type": "address"
        },
        {
          "indexed": true,
          "internalType": "address",
          "name": "sender",
          "type": "address"
        }
      ],
      "name": "RoleRevoked",
      "type": "event"
    },
    {
      "anonymous": false,
      "inputs": [
        {
          "indexed": true,
          "internalType": "uint256",
          "name": "proposalId",
          "type": "uint256"
        },
        {
          "indexed": true,
          "internalType": "uint256",
          "name": "side",
          "type": "uint256"
        },
        {
          "indexed": true,
          "internalType": "uint256",
          "name": "time",
          "type": "uint256"
        }
      ],
      "name": "StateChanged",
      "type": "event"
    },
    {
      "anonymous": false,
      "inputs": [
        {
          "indexed": true,
          "internalType": "uint256",
          "name": "ProposalId",
          "type": "uint256"
        },
        {
          "indexed": true,
          "internalType": "uint256",
          "name": "time",
          "type": "uint256"
        }
      ],
      "name": "VoteRewardSent",
      "type": "event"
    },
    {
      "anonymous": false,
      "inputs": [
        {
          "indexed": true,
          "internalType": "uint256",
          "name": "ProposalId",
          "type": "uint256"
        },
        {
          "indexed": true,
          "internalType": "address",
          "name": "Validator",
          "type": "address"
        },
        {
          "indexed": true,
          "internalType": "uint256",
          "name": "time",
          "type": "uint256"
        }
      ],
      "name": "Voted",
      "type": "event"
    },
    {
      "inputs": [],
      "name": "DEFAULT_ADMIN_ROLE",
      "outputs": [
        {
          "internalType": "bytes32",
          "name": "",
          "type": "bytes32"
        }
      ],
      "stateMutability": "view",
      "type": "function"
    },
    {
      "inputs": [],
      "name": "extendedVoteTime",
      "outputs": [
        {
          "internalType": "uint256",
          "name": "",
          "type": "uint256"
        }
      ],
      "stateMutability": "view",
      "type": "function"
    },
    {
      "inputs": [],
      "name": "fee",
      "outputs": [
        {
          "internalType": "uint256",
          "name": "",
          "type": "uint256"
        }
      ],
      "stateMutability": "view",
      "type": "function"
    },
    {
      "inputs": [
        {
          "internalType": "bytes32",
          "name": "role",
          "type": "bytes32"
        }
      ],
      "name": "getRoleAdmin",
      "outputs": [
        {
          "internalType": "bytes32",
          "name": "",
          "type": "bytes32"
        }
      ],
      "stateMutability": "view",
      "type": "function"
    },
    {
      "inputs": [],
      "name": "governanceToken",
      "outputs": [
        {
          "internalType": "address",
          "name": "",
          "type": "address"
        }
      ],
      "stateMutability": "view",
      "type": "function"
    },
    {
      "inputs": [
        {
          "internalType": "bytes32",
          "name": "role",
          "type": "bytes32"
        },
        {
          "internalType": "address",
          "name": "account",
          "type": "address"
        }
      ],
      "name": "grantRole",
      "outputs": [],
      "stateMutability": "nonpayable",
      "type": "function"
    },
    {
      "inputs": [
        {
          "internalType": "bytes32",
          "name": "role",
          "type": "bytes32"
        },
        {
          "internalType": "address",
          "name": "account",
          "type": "address"
        }
      ],
      "name": "hasRole",
      "outputs": [
        {
          "internalType": "bool",
          "name": "",
          "type": "bool"
        }
      ],
      "stateMutability": "view",
      "type": "function"
    },
    {
      "inputs": [],
      "name": "initialVoteTime",
      "outputs": [
        {
          "internalType": "uint256",
          "name": "",
          "type": "uint256"
        }
      ],
      "stateMutability": "view",
      "type": "function"
    },
    {
      "inputs": [
        {
          "internalType": "address",
          "name": "",
          "type": "address"
        }
      ],
      "name": "isValidator",
      "outputs": [
        {
          "internalType": "bool",
          "name": "",
          "type": "bool"
        }
      ],
      "stateMutability": "view",
      "type": "function"
    },
    {
      "inputs": [],
      "name": "keyHash",
      "outputs": [
        {
          "internalType": "bytes32",
          "name": "",
          "type": "bytes32"
        }
      ],
      "stateMutability": "view",
      "type": "function"
    },
    {
      "inputs": [],
      "name": "owner",
      "outputs": [
        {
          "internalType": "address",
          "name": "",
          "type": "address"
        }
      ],
      "stateMutability": "view",
      "type": "function"
    },
    {
      "inputs": [
        {
          "internalType": "bytes32",
          "name": "requestId",
          "type": "bytes32"
        },
        {
          "internalType": "uint256",
          "name": "randomness",
          "type": "uint256"
        }
      ],
      "name": "rawFulfillRandomness",
      "outputs": [],
      "stateMutability": "nonpayable",
      "type": "function"
    },
    {
      "inputs": [],
      "name": "renounceOwnership",
      "outputs": [],
      "stateMutability": "nonpayable",
      "type": "function"
    },
    {
      "inputs": [
        {
          "internalType": "bytes32",
          "name": "role",
          "type": "bytes32"
        },
        {
          "internalType": "address",
          "name": "account",
          "type": "address"
        }
      ],
      "name": "renounceRole",
      "outputs": [],
      "stateMutability": "nonpayable",
      "type": "function"
    },
    {
      "inputs": [
        {
          "internalType": "bytes32",
          "name": "role",
          "type": "bytes32"
        },
        {
          "internalType": "address",
          "name": "account",
          "type": "address"
        }
      ],
      "name": "revokeRole",
      "outputs": [],
      "stateMutability": "nonpayable",
      "type": "function"
    },
    {
      "inputs": [],
      "name": "stakeAmount",
      "outputs": [
        {
          "internalType": "uint256",
          "name": "",
          "type": "uint256"
        }
      ],
      "stateMutability": "view",
      "type": "function"
    },
    {
      "inputs": [
        {
          "internalType": "bytes4",
          "name": "interfaceId",
          "type": "bytes4"
        }
      ],
      "name": "supportsInterface",
      "outputs": [
        {
          "internalType": "bool",
          "name": "",
          "type": "bool"
        }
      ],
      "stateMutability": "view",
      "type": "function"
    },
    {
      "inputs": [
        {
          "internalType": "address",
          "name": "newOwner",
          "type": "address"
        }
      ],
      "name": "transferOwnership",
      "outputs": [],
      "stateMutability": "nonpayable",
      "type": "function"
    },
    {
      "inputs": [],
      "name": "votePercentage",
      "outputs": [
        {
          "internalType": "uint256",
          "name": "",
          "type": "uint256"
        }
      ],
      "stateMutability": "view",
      "type": "function"
    },
    {
      "inputs": [],
      "name": "voteWinReward",
      "outputs": [
        {
          "internalType": "uint256",
          "name": "",
          "type": "uint256"
        }
      ],
      "stateMutability": "view",
      "type": "function"
    },
    {
      "inputs": [],
      "name": "joinValidatorPool",
      "outputs": [
        {
          "internalType": "bool",
          "name": "success",
          "type": "bool"
        }
      ],
      "stateMutability": "nonpayable",
      "type": "function"
    },
    {
      "inputs": [],
      "name": "leaveValidatorPool",
      "outputs": [],
      "stateMutability": "nonpayable",
      "type": "function"
    },
    {
      "inputs": [
        {
          "internalType": "uint256",
          "name": "_proposalId",
          "type": "uint256"
        },
        {
          "internalType": "string",
          "name": "_description",
          "type": "string"
        }
      ],
      "name": "addProposal",
      "outputs": [],
      "stateMutability": "nonpayable",
      "type": "function"
    },
    {
      "inputs": [
        {
          "internalType": "bytes32",
          "name": "_validatorsKey",
          "type": "bytes32"
        },
        {
          "internalType": "uint256",
          "name": "_proposalId",
          "type": "uint256"
        },
        {
          "internalType": "enum Validators.Side",
          "name": "side",
          "type": "uint8"
        }
      ],
      "name": "validatorsVote",
      "outputs": [],
      "stateMutability": "nonpayable",
      "type": "function"
    },
    {
      "inputs": [
        {
          "internalType": "uint256",
          "name": "_proposalId",
          "type": "uint256"
        },
        {
          "internalType": "uint256",
          "name": "state",
          "type": "uint256"
        }
      ],
      "name": "changeVoteState",
      "outputs": [],
      "stateMutability": "nonpayable",
      "type": "function"
    },
    {
      "inputs": [
        {
          "internalType": "uint256",
          "name": "_proposalId",
          "type": "uint256"
        }
      ],
      "name": "payVoteReward",
      "outputs": [],
      "stateMutability": "nonpayable",
      "type": "function"
    },
    {
      "inputs": [],
      "name": "getValidators",
      "outputs": [
        {
          "internalType": "address[]",
          "name": "",
          "type": "address[]"
        }
      ],
      "stateMutability": "view",
      "type": "function"
    }
  ],
  "bytecode": "0x60c06040523480156200001157600080fd5b5060405162002292380380620022928339810160408190526200003491620001a3565b6001600160a01b0387811660a052881660805262000052336200009c565b600684905560058590556008839055600380546001600160a01b0319166001600160a01b03841617905560098190556200008e600087620000ee565b505050505050505062000227565b600280546001600160a01b038381166001600160a01b0319831681179093556040519116919082907f8be0079c531659141344cd1fd0a4f28419497f9722a3daafe3b4186f6b6457e090600090a35050565b620000fa8282620000fe565b5050565b60008281526001602090815260408083206001600160a01b038516845290915290205460ff16620000fa5760008281526001602081815260408084206001600160a01b0386168086529252808420805460ff19169093179092559051339285917f2f8788117e7eff1d82e926ec794901d17c78024a50270940304540a733656f0d9190a45050565b80516001600160a01b03811681146200019e57600080fd5b919050565b600080600080600080600080610100898b031215620001c157600080fd5b620001cc8962000186565b9750620001dc60208a0162000186565b9650620001ec60408a0162000186565b9550606089015194506080890151935060a089015192506200021160c08a0162000186565b915060e089015190509295985092959890939650565b60805160a05161203e6200025460003960008181610a19015261184301526000611814015261203e6000f3fe608060405234801561001057600080fd5b50600436106101495760003560e01c806301ffc9a71461014e578063051097ef146101765780630c4152f31461018b57806312312c571461019e578063248a9ca3146101b55780632f2ff15d146101c857806334b502c0146101db57806336568abe146101e35780634a918f09146101f65780634c30772b146101fe57806360c7dc471461020857806361728f39146102115780636388c7d61461021a578063715018a6146102225780638da5cb5b1461022a57806391d148541461023f57806394985ddd146102525780639948409a14610265578063a217fddf1461026f578063aed5020214610277578063b7ab4db51461028a578063d547741f1461029f578063ddca3f43146102b2578063ec7455f7146102bb578063f2fde38b146102ce578063f96dae0a146102e1578063facd743b146102f4575b600080fd5b61016161015c366004611b2c565b610317565b60405190151581526020015b60405180910390f35b610189610184366004611b56565b61034e565b005b610189610199366004611bd1565b6104ed565b6101a760095481565b60405190815260200161016d565b6101a76101c3366004611bd1565b610534565b6101896101d6366004611c06565b61054a565b6101a7604b81565b6101896101f1366004611c06565b61056b565b6101896105ea565b6101a76202a30081565b6101a760085481565b6101a760055481565b6101616107ba565b610189610999565b6102326109d4565b60405161016d9190611c32565b61016161024d366004611c06565b6109e3565b610189610260366004611c46565b610a0e565b6101a76201518081565b6101a7600081565b610189610285366004611c46565b610a90565b610292610ad4565b60405161016d9190611c68565b6101896102ad366004611c06565b610b36565b6101a760065481565b6101896102c9366004611cb5565b610b52565b6101896102dc366004611cf2565b610f88565b600354610232906001600160a01b031681565b610161610302366004611cf2565b600b6020526000908152604090205460ff1681565b60006001600160e01b03198216637965db0b60e01b148061034857506301ffc9a760e01b6001600160e01b03198316145b92915050565b600061035981611028565b6000848152600f602052604090205460ff161561037557600080fd5b6000600e600086815260200190815260200160002060405180606001604052908160008201548152602001600182015481526020016002820180546103b990611d0d565b80601f01602080910402602001604051908101604052809291908181526020018280546103e590611d0d565b80156104325780601f1061040757610100808354040283529160200191610432565b820191906000526020600020905b81548152906001019060200180831161041557829003601f168201915b5050505050815250509050604051806060016040528086815260200142815260200185858080601f0160208091040260200160405190810160405280939291908181526020018383808284376000920182905250939094525050878152600f60209081526040808320805460ff19908116600117909155601290925280832080549092169091555192935042928892507fee916756a562ef808a2f3cc8fe10cbb01458b53d4823434ae1be5184ff47e6959190a35050505050565b60006104f881611028565b600160008381526012602052604090205460ff16600481111561051d5761051d611d48565b1461052757600080fd5b61053082611032565b5050565b6000908152600160208190526040909120015490565b61055382610534565b61055c81611028565b610566838361127f565b505050565b6001600160a01b03811633146105e05760405162461bcd60e51b815260206004820152602f60248201527f416363657373436f6e74726f6c3a2063616e206f6e6c792072656e6f756e636560448201526e103937b632b9903337b91039b2b63360891b60648201526084015b60405180910390fd5b61053082826112ea565b6105f2611351565b336000908152600b602052604090205460ff16151560011461061357600080fd5b60005b6004548110156106e557336001600160a01b03166004828154811061063d5761063d611d5e565b6000918252602090912001546001600160a01b031614156106d3576004805461066890600190611d8a565b8154811061067857610678611d5e565b600091825260209091200154600480546001600160a01b0390921691839081106106a4576106a4611d5e565b9060005260206000200160006101000a8154816001600160a01b0302191690836001600160a01b031602179055505b806106dd81611da1565b915050610616565b50336000818152600b60209081526040808320805460ff19169055600a9091528082209190915560035460085491516323b872dd60e01b8152306004820152602481019390935260448301919091526001600160a01b0316906323b872dd906064016020604051808303816000875af1158015610766573d6000803e3d6000fd5b505050506040513d601f19601f8201168201806040525081019061078a9190611dbc565b50604051429033907f8271947fe3347a460cc3b967688953f8add3a506ecfc40ee6a998a82269565d890600090a3565b336000908152600b602052604081205460ff16156107d757600080fd5b6008546003546040516370a0823160e01b81526001600160a01b03909116906370a082319061080a903390600401611c32565b602060405180830381865afa158015610827573d6000803e3d6000fd5b505050506040513d601f19601f8201168201806040525081019061084b9190611dde565b116108935760405162461bcd60e51b81526020600482015260186024820152774e6f7420656e6f75676820746f6b656e2062616c616e636560401b60448201526064016105d7565b60035460085460405163095ea7b360e01b81526001600160a01b039092169163095ea7b3916108c791309190600401611df7565b6020604051808303816000875af11580156108e6573d6000803e3d6000fd5b505050506040513d601f19601f8201168201806040525081019061090a9190611dbc565b506109136113a5565b6004805460018181019092557f8a35acfbc15ff81a39ae7d344fd709f28e8600b4aa8c65c6b64bfe7fe36bd19b0180546001600160a01b031916339081179091556000818152600b6020526040808220805460ff1916909417909355915142927f34d439447c7d29c98b78f8eff0f6cfa0e414030aa600733e84c0bc0a08a5cfda91a390565b336109a26109d4565b6001600160a01b0316146109c85760405162461bcd60e51b81526004016105d790611e10565b6109d260006113fd565b565b6002546001600160a01b031690565b60009182526001602090815260408084206001600160a01b0393909316845291905290205460ff1690565b336001600160a01b037f00000000000000000000000000000000000000000000000000000000000000001614610a865760405162461bcd60e51b815260206004820152601f60248201527f4f6e6c7920565246436f6f7264696e61746f722063616e2066756c66696c6c0060448201526064016105d7565b610530828261144f565b6000610a9b81611028565b600360008481526012602052604090205460ff166004811115610ac057610ac0611d48565b14610aca57600080fd5b610566838361151c565b60606004805480602002602001604051908101604052809291908181526020018280548015610b2c57602002820191906000526020600020905b81546001600160a01b03168152600190910190602001808311610b0e575b5050505050905090565b610b3f82610534565b610b4881611028565b61056683836112ea565b610b5a611351565b600260008381526012602052604090205460ff166004811115610b7f57610b7f611d48565b1415610bcf576000828152600e6020526040902060010154610ba76202a30062015180611e45565b610bb19190611e45565b4210610bcf5760405162461bcd60e51b81526004016105d790611e5d565b33600090815260106020908152604080832085845290915290205460ff1615610bf757600080fd5b6000828152600f602052604090205460ff161515600114610c1757600080fd5b6000828152600e6020526040902060010154610c36906202a300611e45565b4210610c545760405162461bcd60e51b81526004016105d790611e5d565b60008281526012602052604081205460ff166004811115610c7757610c77611d48565b14610caf5760405162461bcd60e51b81526020600482015260086024820152672737ba1027b832b760c11b60448201526064016105d7565b336000908152600a60205260409020548314610cf95760405162461bcd60e51b815260206004820152600960248201526857726f6e67204b657960b81b60448201526064016105d7565b6000816002811115610d0d57610d0d611d48565b1415610d70576000828152600d602090815260408083208380529091528120805491610d3883611da1565b909155505060008281526013602090815260408220805460018101825590835291200180546001600160a01b03191633179055610e5c565b6001816002811115610d8457610d84611d48565b1415610de8576000828152600d60209081526040808320600184529091528120805491610db083611da1565b909155505060008281526014602090815260408220805460018101825590835291200180546001600160a01b03191633179055610e5c565b6002816002811115610dfc57610dfc611d48565b1415610e5c576000828152600d60209081526040808320600284529091528120805491610e2883611da1565b909155505060008281526015602090815260408220805460018101825590835291200180546001600160a01b031916331790555b6000828152600c60205260408120805491610e7683611da1565b9091555050336000818152601060209081526040808320868452909152808220805460ff191660011790555142929185917f1abe610cf2bf87e57dcc1181fcf5ac0934e843d8344ab9eed6e86c799f62585e9190a46004546000838152600c60205260409020541480610f0757506000828152600e6020526040902060010154610f04906202a30090611e45565b42115b15610f2a576000828152601260205260409020805460ff19166003179055610f77565b6000828152600e6020526040902060010154610f4c6202a30062015180611e45565b610f569190611e45565b421115610f77576000828152601260205260409020805460ff191660031790555b610f8082611613565b505050505050565b33610f916109d4565b6001600160a01b031614610fb75760405162461bcd60e51b81526004016105d790611e10565b6001600160a01b03811661101c5760405162461bcd60e51b815260206004820152602660248201527f4f776e61626c653a206e6577206f776e657220697320746865207a65726f206160448201526564647265737360d01b60648201526084016105d7565b611025816113fd565b50565b61102581336117ac565b600081815260136020526040812090819060008481526011602052604090205460ff16600281111561106657611066611d48565b141561114957815460095460009161107d91611e8c565b905060005b83548110156111425760035484546001600160a01b039091169063a9059cbb908690849081106110b4576110b4611d5e565b6000918252602090912001546040516001600160e01b031960e084901b1681526110ec916001600160a01b0316908690600401611df7565b6020604051808303816000875af115801561110b573d6000803e3d6000fd5b505050506040513d601f19601f8201168201806040525081019061112f9190611dbc565b508061113a81611da1565b915050611082565b505061124d565b600160008481526011602052604090205460ff16600281111561116e5761116e611d48565b141561124d57805460095460009161118591611e8c565b905060005b825481101561124a5760035483546001600160a01b039091169063a9059cbb908590849081106111bc576111bc611d5e565b6000918252602090912001546040516001600160e01b031960e084901b1681526111f4916001600160a01b0316908690600401611df7565b6020604051808303816000875af1158015611213573d6000803e3d6000fd5b505050506040513d601f19601f820116820180604052508101906112379190611dbc565b508061124281611da1565b91505061118a565b50505b604051429084907f464e8906ae8c5c7623e1e2316b708667849a3c89f66253f08d57142b3378fe8690600090a3505050565b61128982826109e3565b6105305760008281526001602081815260408084206001600160a01b0386168086529252808420805460ff19169093179092559051339285917f2f8788117e7eff1d82e926ec794901d17c78024a50270940304540a733656f0d9190a45050565b6112f482826109e3565b156105305760008281526001602090815260408083206001600160a01b0385168085529252808320805460ff1916905551339285917ff6391f5c32d9c69d2a47ea670b442974b53935d1edc7fd64eb21e047a839171b9190a45050565b336000908152600b602052604090205460ff1615156001146109d25760405162461bcd60e51b815260206004820152600d60248201526c2737ba102b30b634b230ba37b960991b60448201526064016105d7565b336113af57600080fd5b60006113bf600554600654611810565b90507fe5f5b44d72d4143c278eb745c4acc0695c4a5bc616be5beecf46abe29661780e816040516113f291815260200190565b60405180910390a150565b600280546001600160a01b038381166001600160a01b0319831681179093556040519116919082907f8be0079c531659141344cd1fd0a4f28419497f9722a3daafe3b4186f6b6457e090600090a35050565b600081116114995760405162461bcd60e51b815260206004820152601760248201527614985b991bdb481b9d5b58995c881b9bdd08199bdd5b99604a1b60448201526064016105d7565b60408051602080820184905233606081901b6001600160601b0319168385015242605480850191909152845180850390910181526074909301845282519282019290922060078054600181019091557fa66cc928b5edb82af9bd49922954155ab7b0942694bea4ce44661d9a8736c68801949094556000918252600a9052205550565b80611543576000828152601260205260408120805460ff19166001835b02179055506115e0565b806001141561156b57600082815260126020526040902080546001919060ff19168280611539565b806002141561159457600082815260126020526040902080546002919060ff1916600183611539565b80600314156115bd57600082815260126020526040902080546003919060ff1916600183611539565b80600414156115e0576000828152601260205260409020805460ff191660041790555b4281837f4e783b715efde58d097be2fe2f2e2bc0bb1df07fd682aeab1d8b4dc063ffdd9a60405160405180910390a45050565b60008080600360008581526012602052604090205460ff16600481111561163c5761163c611d48565b1461164657600080fd5b6000848152600d6020908152604080832083805290915280822054600183528183205460028452918320546004549193909190816116866064604b611e8c565b6116909190611eae565b60008a8152600c6020908152604080832054600e90925290912060010154919250906116c0906202a30090611e45565b42101580156116cf5750818110155b15611784576116de8486611e45565b8611156117075760008a8152601160205260408120805460ff19166001835b0217905550611784565b6117118487611e45565b85118061172657506117238587611e45565b84115b1561174a5760008a815260116020526040902080546001919060ff191682806116fd565b848614156117845760008a81526011602090815260408083208054600260ff19918216811790925560129093529220805490911690911790555b505050600096875260126020526040909620805460ff19166001179055909590949350915050565b6117b682826109e3565b610530576117ce816001600160a01b0316601461198a565b6117d983602061198a565b6040516020016117ea929190611efd565b60408051601f198184030181529082905262461bcd60e51b82526105d791600401611f98565b60007f00000000000000000000000000000000000000000000000000000000000000006001600160a01b0316634000aea07f000000000000000000000000000000000000000000000000000000000000000084866000604051602001611880929190918252602082015260400190565b6040516020818303038152906040526040518463ffffffff1660e01b81526004016118ad93929190611fab565b6020604051808303816000875af11580156118cc573d6000803e3d6000fd5b505050506040513d601f19601f820116820180604052508101906118f09190611dbc565b5060008381526020818152604080832054815180840188905280830185905230606082015260808082018390528351808303909101815260a09091019092528151918301919091208684529290915261194a906001611e45565b6000858152602081815260409182902092909255805180830187905280820184905281518082038301815260609091019091528051910120949350505050565b60606000611999836002611eae565b6119a4906002611e45565b6001600160401b038111156119bb576119bb611fdb565b6040519080825280601f01601f1916602001820160405280156119e5576020820181803683370190505b509050600360fc1b81600081518110611a0057611a00611d5e565b60200101906001600160f81b031916908160001a905350600f60fb1b81600181518110611a2f57611a2f611d5e565b60200101906001600160f81b031916908160001a9053506000611a53846002611eae565b611a5e906001611e45565b90505b6001811115611ad6576f181899199a1a9b1b9c1cb0b131b232b360811b85600f1660108110611a9257611a92611d5e565b1a60f81b828281518110611aa857611aa8611d5e565b60200101906001600160f81b031916908160001a90535060049490941c93611acf81611ff1565b9050611a61565b508315611b255760405162461bcd60e51b815260206004820181905260248201527f537472696e67733a20686578206c656e67746820696e73756666696369656e7460448201526064016105d7565b9392505050565b600060208284031215611b3e57600080fd5b81356001600160e01b031981168114611b2557600080fd5b600080600060408486031215611b6b57600080fd5b8335925060208401356001600160401b0380821115611b8957600080fd5b818601915086601f830112611b9d57600080fd5b813581811115611bac57600080fd5b876020828501011115611bbe57600080fd5b6020830194508093505050509250925092565b600060208284031215611be357600080fd5b5035919050565b80356001600160a01b0381168114611c0157600080fd5b919050565b60008060408385031215611c1957600080fd5b82359150611c2960208401611bea565b90509250929050565b6001600160a01b0391909116815260200190565b60008060408385031215611c5957600080fd5b50508035926020909101359150565b6020808252825182820181905260009190848201906040850190845b81811015611ca95783516001600160a01b031683529284019291840191600101611c84565b50909695505050505050565b600080600060608486031215611cca57600080fd5b8335925060208401359150604084013560038110611ce757600080fd5b809150509250925092565b600060208284031215611d0457600080fd5b611b2582611bea565b600181811c90821680611d2157607f821691505b60208210811415611d4257634e487b7160e01b600052602260045260246000fd5b50919050565b634e487b7160e01b600052602160045260246000fd5b634e487b7160e01b600052603260045260246000fd5b634e487b7160e01b600052601160045260246000fd5b600082821015611d9c57611d9c611d74565b500390565b6000600019821415611db557611db5611d74565b5060010190565b600060208284031215611dce57600080fd5b81518015158114611b2557600080fd5b600060208284031215611df057600080fd5b5051919050565b6001600160a01b03929092168252602082015260400190565b6020808252818101527f4f776e61626c653a2063616c6c6572206973206e6f7420746865206f776e6572604082015260600190565b60008219821115611e5857611e58611d74565b500190565b602080825260159082015274159bdd1a5b99c814195c9a5bd908195b185c1cd959605a1b604082015260600190565b600082611ea957634e487b7160e01b600052601260045260246000fd5b500490565b6000816000190483118215151615611ec857611ec8611d74565b500290565b60005b83811015611ee8578181015183820152602001611ed0565b83811115611ef7576000848401525b50505050565b76020b1b1b2b9b9a1b7b73a3937b61d1030b1b1b7bab73a1604d1b815260008351611f2f816017850160208801611ecd565b7001034b99036b4b9b9b4b733903937b6329607d1b6017918401918201528351611f60816028840160208801611ecd565b01602801949350505050565b60008151808452611f84816020860160208601611ecd565b601f01601f19169290920160200192915050565b602081526000611b256020830184611f6c565b60018060a01b0384168152826020820152606060408201526000611fd26060830184611f6c565b95945050505050565b634e487b7160e01b600052604160045260246000fd5b60008161200057612000611d74565b50600019019056fea2646970667358221220467e5e94807179c0ec93bf4846f43620292abc3e08efa759cff021f712e0e4bf64736f6c634300080b0033",
  "immutableReferences": {
    "73": [
      {
        "length": 32,
        "start": 6164
      }
    ],
    "75": [
      {
        "length": 32,
        "start": 2585
      },
      {
        "length": 32,
        "start": 6211
      }
    ]
  },
  "source": "// SPDX-License-Identifier: MIT\r\npragma solidity ^0.8.4;\r\npragma experimental ABIEncoderV2;\r\n\r\nimport \"@chainlink/contracts/src/v0.8/VRFConsumerBase.sol\";\r\nimport \"@openzeppelin/contracts/token/ERC20/IERC20.sol\";\r\nimport \"@openzeppelin/contracts/utils/Address.sol\";\r\nimport \"@openzeppelin/contracts/access/AccessControl.sol\";\r\nimport \"@openzeppelin/contracts/access/Ownable.sol\";\r\n\r\ncontract Validators is VRFConsumerBase, AccessControl, Ownable{\r\n    \r\n    using Address for address;\r\n\r\n    event RequestedRandomness(bytes32 requestId);\r\n    event JoinPool(address indexed Validator, uint indexed time);\r\n    event LeftPool(address indexed Validator, uint indexed time);\r\n    event NewProposalAdded(uint indexed ProposalId, uint indexed time);\r\n    event Voted(uint indexed ProposalId, address indexed Validator, uint indexed time);\r\n    event StateChanged(uint indexed proposalId, uint indexed side, uint indexed time);\r\n    event VoteRewardSent(uint indexed ProposalId, uint indexed time);\r\n\r\n    enum VoteState {\r\n        OPEN,\r\n        CLOSED,\r\n        EXTENDED,\r\n        GETTING_RESULT,\r\n        CANCLLED\r\n    }\r\n\r\n    enum Side {\r\n        FOR,\r\n        AGAINST,\r\n        ABSTAIN\r\n    }\r\n\r\n    enum VoteResult{\r\n        PASSED,\r\n        FAILED,\r\n        NO_CONSENSUS\r\n    }\r\n\r\n    struct ProposalVotes{\r\n        uint proposalId;\r\n        uint time;\r\n        string proposalDescription;\r\n    }\r\n    \r\n    address public governanceToken;\r\n    address[] validators;\r\n    bytes32 public keyHash;\r\n    uint public constant initialVoteTime =  2 days;\r\n    uint public constant extendedVoteTime = 1 days;\r\n    uint public fee;\r\n    uint public constant votePercentage = 75;\r\n    uint[] private _randomness;\r\n    uint public stakeAmount;\r\n    uint public voteWinReward;\r\n\r\n    mapping (address => bytes32) private validatorsKeyMap;\r\n    mapping (address => bool) public isValidator;\r\n    mapping (uint => uint) private proposalVoteCount;\r\n    mapping (uint => mapping (uint => uint)) private validatorVoteCount;\r\n    mapping (uint => ProposalVotes) proposals;\r\n    mapping (uint => bool) proposalsExist;\r\n    mapping (address => mapping (uint => bool)) hasVoted;\r\n    mapping (uint => VoteResult) voteResultMap;\r\n    mapping (uint => VoteState) voteStateMap;\r\n    mapping (uint => address[]) private forVoters;\r\n    mapping (uint => address[]) private againstVoters;\r\n    mapping (uint => address[]) private AbstainVoters;\r\n    mapping (address => uint) private validatorRewardBalance;\r\n\r\n    modifier onlyValidator(){\r\n        _onlyValidator();\r\n        _;\r\n    }\r\n    constructor (\r\n        address _link, \r\n        address _vrfCoordinator,\r\n        address _admin, \r\n        bytes32 _keyHash, \r\n        uint _fee, \r\n        uint _stakeAmount, \r\n        address _governanceToken,\r\n        uint _voteWinReward)\r\n     \r\n     VRFConsumerBase(_vrfCoordinator, _link) {\r\n        \r\n        fee = _fee;\r\n        keyHash = _keyHash;\r\n        stakeAmount = _stakeAmount;\r\n        governanceToken = _governanceToken;\r\n        voteWinReward = _voteWinReward;\r\n        \r\n        _setupRole(DEFAULT_ADMIN_ROLE, _admin);\r\n    }\r\n\r\n    // VALIDATORS //\r\n    \r\n    function joinValidatorPool() external returns(bool success){\r\n        require(isValidator[msg.sender] == false);\r\n        require(IERC20(governanceToken).balanceOf(msg.sender) > stakeAmount, \"Not enough token balance\");\r\n        \r\n        IERC20(governanceToken).approve(address(this), stakeAmount);\r\n        //IERC20(governanceToken).transferFrom(msg.sender, address(this), stakeAmount);\r\n        \r\n        getRandom();\r\n        \r\n        validators.push(msg.sender);\r\n        isValidator[msg.sender] = true;\r\n\r\n        emit JoinPool(msg.sender, block.timestamp);\r\n        \r\n        return success;\r\n    }\r\n\r\n    function leaveValidatorPool() external onlyValidator(){\r\n        require(isValidator[msg.sender] == true);\r\n        \r\n        for (uint i = 0; i < validators.length; i++){\r\n            if(validators[i] == msg.sender){\r\n                validators[i] = validators[validators.length - 1];\r\n            }\r\n\r\n            validators.pop;\r\n        }\r\n        isValidator[msg.sender] = false;\r\n        \r\n        delete validatorsKeyMap[msg.sender];\r\n        \r\n        IERC20(governanceToken).transferFrom(address(this), msg.sender, stakeAmount);\r\n\r\n        emit LeftPool(msg.sender, block.timestamp);\r\n    }\r\n\r\n    function addProposal(uint _proposalId, string calldata _description) external onlyRole(DEFAULT_ADMIN_ROLE) {\r\n        require (proposalsExist[_proposalId] == false);\r\n        ProposalVotes memory newProposal = proposals[_proposalId];\r\n        newProposal = ProposalVotes(_proposalId, block.timestamp, _description);\r\n        proposalsExist[_proposalId] = true;\r\n        voteStateMap[_proposalId] = VoteState.OPEN;\r\n\r\n        emit NewProposalAdded(_proposalId, block.timestamp);\r\n    }\r\n\r\n    function validatorsVote(bytes32 _validatorsKey, uint _proposalId, Side side) external onlyValidator() {\r\n\r\n        if(voteStateMap[_proposalId] == VoteState.EXTENDED){\r\n            require(block.timestamp < extendedVoteTime + initialVoteTime + proposals[_proposalId].time, \"Voting Period elapsed\");\r\n        }\r\n\r\n        require(hasVoted[msg.sender][_proposalId] == false);\r\n        require(proposalsExist[_proposalId] == true);\r\n        require(block.timestamp < initialVoteTime + proposals[_proposalId].time, \"Voting Period elapsed\");\r\n        require(voteStateMap[_proposalId] == VoteState.OPEN, \"Not Open\");\r\n        require(validatorsKeyMap[msg.sender] == _validatorsKey, \"Wrong Key\");\r\n        \r\n        if(side == Side.FOR){\r\n            validatorVoteCount[_proposalId][0]++;\r\n            forVoters[_proposalId].push(msg.sender);\r\n        }\r\n        else if(side == Side.AGAINST){\r\n            validatorVoteCount[_proposalId][1]++;\r\n            againstVoters[_proposalId].push(msg.sender);\r\n        }\r\n        else if(side == Side.ABSTAIN){\r\n            validatorVoteCount[_proposalId][2]++;\r\n            AbstainVoters[_proposalId].push(msg.sender);\r\n        }\r\n\r\n        proposalVoteCount[_proposalId]++;\r\n        hasVoted[msg.sender][_proposalId] = true;\r\n\r\n        emit Voted(_proposalId, msg.sender, block.timestamp);\r\n\r\n        if(proposalVoteCount[_proposalId] == validators.length || block.timestamp > proposals[_proposalId].time + initialVoteTime){\r\n            voteStateMap[_proposalId] = VoteState.GETTING_RESULT;\r\n        }\r\n\r\n        else if (block.timestamp > extendedVoteTime + initialVoteTime + proposals[_proposalId].time){\r\n            voteStateMap[_proposalId] = VoteState.GETTING_RESULT;\r\n        }\r\n\r\n        _calculateResult(_proposalId);\r\n        \r\n    }\r\n\r\n    // ONLY ADMIN CAN CHANGE THE STATE OF THE VOTE WHEN CONCENSUS IS NOT REACHED //\r\n    function changeVoteState(uint _proposalId, uint state) external onlyRole(DEFAULT_ADMIN_ROLE){\r\n        require(voteStateMap[_proposalId] == VoteState.GETTING_RESULT);\r\n        \r\n        _changeVoteState(_proposalId, state);\r\n    }\r\n\r\n    function payVoteReward(uint _proposalId) external onlyRole(DEFAULT_ADMIN_ROLE) {\r\n        require(voteStateMap[_proposalId] == VoteState.CLOSED);\r\n        \r\n        _payVoteReward(_proposalId);\r\n    }\r\n\r\n    function getValidators() external view returns (address[] memory){\r\n        return validators;\r\n    }\r\n    // INTERNAL FUNCTIONS //\r\n\r\n    function _calculateResult(uint _proposalId) internal returns(uint, uint, uint){\r\n        require(voteStateMap[_proposalId] == VoteState.GETTING_RESULT);\r\n        uint FOR_RESULT = validatorVoteCount[_proposalId][0];\r\n        uint AGAINST_RESULT = validatorVoteCount[_proposalId][1];\r\n        uint ABSTAIN_RESULT = validatorVoteCount[_proposalId][2];\r\n        \r\n        uint allValidators = validators.length;\r\n        uint CurrentPercentVoters = votePercentage/100 * allValidators;\r\n        uint voteCount = proposalVoteCount[_proposalId];\r\n\r\n        if(block.timestamp >= proposals[_proposalId].time + initialVoteTime && voteCount >= CurrentPercentVoters){\r\n            \r\n            if (FOR_RESULT > AGAINST_RESULT + ABSTAIN_RESULT){\r\n                voteResultMap[_proposalId] = VoteResult.PASSED;\r\n            }\r\n            else if (AGAINST_RESULT > FOR_RESULT + ABSTAIN_RESULT || ABSTAIN_RESULT > FOR_RESULT + AGAINST_RESULT){\r\n                voteResultMap[_proposalId] = VoteResult.FAILED;\r\n            }\r\n            else if (FOR_RESULT == AGAINST_RESULT){\r\n               voteResultMap[_proposalId] = VoteResult.NO_CONSENSUS;\r\n               voteStateMap[_proposalId] = VoteState.EXTENDED;\r\n            }\r\n\r\n        }\r\n\r\n        voteStateMap[_proposalId] = VoteState.CLOSED;\r\n\r\n        return (FOR_RESULT, AGAINST_RESULT, ABSTAIN_RESULT);\r\n    }\r\n\r\n    function _payVoteReward(uint _proposalId) internal {\r\n        \r\n        address[] storage FOR_VOTERS = forVoters[_proposalId];\r\n        address[] storage AGAINST_VOTERS = forVoters[_proposalId];\r\n        \r\n        if(voteResultMap[_proposalId] == VoteResult.PASSED){\r\n\r\n           uint forReward= voteWinReward / FOR_VOTERS.length;\r\n\r\n            for (uint i = 0; i < FOR_VOTERS.length; i++){\r\n               IERC20(governanceToken).transfer(FOR_VOTERS[i], forReward);  \r\n            }\r\n        \r\n        } \r\n        \r\n        else if(voteResultMap[_proposalId] == VoteResult.FAILED){\r\n\r\n           uint againstReward= voteWinReward / AGAINST_VOTERS.length;\r\n\r\n            for (uint i = 0; i < AGAINST_VOTERS.length; i++){\r\n               IERC20(governanceToken).transfer(AGAINST_VOTERS[i], againstReward);  \r\n            }\r\n        \r\n        }\r\n\r\n        emit VoteRewardSent(_proposalId, block.timestamp);\r\n\r\n    }\r\n\r\n    function _changeVoteState(uint _proposalId, uint state) internal {\r\n        \r\n        if(state == 0){\r\n            voteStateMap[_proposalId] = VoteState.OPEN;\r\n        }\r\n\r\n        else if(state == 1){\r\n            voteStateMap[_proposalId] = VoteState.CLOSED;\r\n        }\r\n\r\n        else if(state == 2){\r\n            voteStateMap[_proposalId] = VoteState.EXTENDED;\r\n        }\r\n\r\n        else if(state == 3){\r\n            voteStateMap[_proposalId] = VoteState.GETTING_RESULT;\r\n        }\r\n\r\n        else if(state == 4){\r\n            voteStateMap[_proposalId] = VoteState.CANCLLED;\r\n        }\r\n\r\n        emit StateChanged(_proposalId, state, block.timestamp);\r\n        \r\n    }\r\n    \r\n    function _onlyValidator() internal view {\r\n       require(isValidator[msg.sender] == true, \"Not Validator\");\r\n    }\r\n\r\n    // GETS A RAMDOM SALT FOR HASHING //\r\n\r\n    function getRandom() internal {\r\n        require(msg.sender != address(0));\r\n        bytes32 requestId = requestRandomness(keyHash, fee);\r\n        emit RequestedRandomness(requestId);\r\n    }\r\n\r\n    function fulfillRandomness(bytes32 requestId, uint256 randomness) internal override {\r\n        require(randomness > 0, \"Random number not found\");\r\n        bytes32 validatorKey = keccak256(abi.encodePacked(randomness, msg.sender, block.timestamp));\r\n        _randomness.push(randomness);\r\n\r\n        validatorsKeyMap[msg.sender] = validatorKey;\r\n    }\r\n}",
  "sourcePath": "C:\\Users\\USER\\Desktop\\Picardy_Protocol\\contracts\\Governance\\Validators.sol",
  "compiler": {
    "name": "solc",
    "version": "0.8.11+commit.d7f03943.Emscripten.clang"
  },
  "schemaVersion": "3.4.6",
  "updatedAt": "2022-05-18T15:32:59.462Z",
  "devdoc": {
    "kind": "dev",
    "methods": {
      "getRoleAdmin(bytes32)": {
        "details": "Returns the admin role that controls `role`. See {grantRole} and {revokeRole}. To change a role's admin, use {_setRoleAdmin}."
      },
      "grantRole(bytes32,address)": {
        "details": "Grants `role` to `account`. If `account` had not been already granted `role`, emits a {RoleGranted} event. Requirements: - the caller must have ``role``'s admin role."
      },
      "hasRole(bytes32,address)": {
        "details": "Returns `true` if `account` has been granted `role`."
      },
      "owner()": {
        "details": "Returns the address of the current owner."
      },
      "renounceOwnership()": {
        "details": "Leaves the contract without owner. It will not be possible to call `onlyOwner` functions anymore. Can only be called by the current owner. NOTE: Renouncing ownership will leave the contract without an owner, thereby removing any functionality that is only available to the owner."
      },
      "renounceRole(bytes32,address)": {
        "details": "Revokes `role` from the calling account. Roles are often managed via {grantRole} and {revokeRole}: this function's purpose is to provide a mechanism for accounts to lose their privileges if they are compromised (such as when a trusted device is misplaced). If the calling account had been revoked `role`, emits a {RoleRevoked} event. Requirements: - the caller must be `account`."
      },
      "revokeRole(bytes32,address)": {
        "details": "Revokes `role` from `account`. If `account` had been granted `role`, emits a {RoleRevoked} event. Requirements: - the caller must have ``role``'s admin role."
      },
      "supportsInterface(bytes4)": {
        "details": "See {IERC165-supportsInterface}."
      },
      "transferOwnership(address)": {
        "details": "Transfers ownership of the contract to a new account (`newOwner`). Can only be called by the current owner."
      }
    },
    "version": 1
  },
  "userdoc": {
    "kind": "user",
    "methods": {},
    "version": 1
  }
}