{
  "contractName": "Validators",
  "abi": [
    {
      "inputs": [
        {
          "internalType": "address",
          "name": "_link",
          "type": "address"
        },
        {
          "internalType": "address",
          "name": "_vrfCoordinator",
          "type": "address"
        },
        {
          "internalType": "address",
          "name": "_admin",
          "type": "address"
        },
        {
          "internalType": "bytes32",
          "name": "_keyHash",
          "type": "bytes32"
        },
        {
          "internalType": "uint256",
          "name": "_fee",
          "type": "uint256"
        },
        {
          "internalType": "uint256",
          "name": "_stakeAmount",
          "type": "uint256"
        },
        {
          "internalType": "address",
          "name": "_governanceToken",
          "type": "address"
        },
        {
          "internalType": "uint256",
          "name": "_voteWinReward",
          "type": "uint256"
        }
      ],
      "stateMutability": "nonpayable",
      "type": "constructor"
    },
    {
      "anonymous": false,
      "inputs": [
        {
          "indexed": true,
          "internalType": "address",
          "name": "Validator",
          "type": "address"
        },
        {
          "indexed": true,
          "internalType": "uint256",
          "name": "time",
          "type": "uint256"
        }
      ],
      "name": "JoinPool",
      "type": "event"
    },
    {
      "anonymous": false,
      "inputs": [
        {
          "indexed": true,
          "internalType": "address",
          "name": "Validator",
          "type": "address"
        },
        {
          "indexed": true,
          "internalType": "uint256",
          "name": "time",
          "type": "uint256"
        }
      ],
      "name": "LeftPool",
      "type": "event"
    },
    {
      "anonymous": false,
      "inputs": [
        {
          "indexed": true,
          "internalType": "uint256",
          "name": "ProposalId",
          "type": "uint256"
        },
        {
          "indexed": true,
          "internalType": "uint256",
          "name": "time",
          "type": "uint256"
        }
      ],
      "name": "NewProposalAdded",
      "type": "event"
    },
    {
      "anonymous": false,
      "inputs": [
        {
          "indexed": true,
          "internalType": "address",
          "name": "previousOwner",
          "type": "address"
        },
        {
          "indexed": true,
          "internalType": "address",
          "name": "newOwner",
          "type": "address"
        }
      ],
      "name": "OwnershipTransferred",
      "type": "event"
    },
    {
      "anonymous": false,
      "inputs": [
        {
          "indexed": false,
          "internalType": "bytes32",
          "name": "requestId",
          "type": "bytes32"
        }
      ],
      "name": "RequestedRandomness",
      "type": "event"
    },
    {
      "anonymous": false,
      "inputs": [
        {
          "indexed": true,
          "internalType": "bytes32",
          "name": "role",
          "type": "bytes32"
        },
        {
          "indexed": true,
          "internalType": "bytes32",
          "name": "previousAdminRole",
          "type": "bytes32"
        },
        {
          "indexed": true,
          "internalType": "bytes32",
          "name": "newAdminRole",
          "type": "bytes32"
        }
      ],
      "name": "RoleAdminChanged",
      "type": "event"
    },
    {
      "anonymous": false,
      "inputs": [
        {
          "indexed": true,
          "internalType": "bytes32",
          "name": "role",
          "type": "bytes32"
        },
        {
          "indexed": true,
          "internalType": "address",
          "name": "account",
          "type": "address"
        },
        {
          "indexed": true,
          "internalType": "address",
          "name": "sender",
          "type": "address"
        }
      ],
      "name": "RoleGranted",
      "type": "event"
    },
    {
      "anonymous": false,
      "inputs": [
        {
          "indexed": true,
          "internalType": "bytes32",
          "name": "role",
          "type": "bytes32"
        },
        {
          "indexed": true,
          "internalType": "address",
          "name": "account",
          "type": "address"
        },
        {
          "indexed": true,
          "internalType": "address",
          "name": "sender",
          "type": "address"
        }
      ],
      "name": "RoleRevoked",
      "type": "event"
    },
    {
      "anonymous": false,
      "inputs": [
        {
          "indexed": true,
          "internalType": "uint256",
          "name": "proposalId",
          "type": "uint256"
        },
        {
          "indexed": true,
          "internalType": "uint256",
          "name": "side",
          "type": "uint256"
        },
        {
          "indexed": true,
          "internalType": "uint256",
          "name": "time",
          "type": "uint256"
        }
      ],
      "name": "StateChanged",
      "type": "event"
    },
    {
      "anonymous": false,
      "inputs": [
        {
          "indexed": true,
          "internalType": "uint256",
          "name": "ProposalId",
          "type": "uint256"
        },
        {
          "indexed": true,
          "internalType": "uint256",
          "name": "time",
          "type": "uint256"
        }
      ],
      "name": "VoteRewardSent",
      "type": "event"
    },
    {
      "anonymous": false,
      "inputs": [
        {
          "indexed": true,
          "internalType": "uint256",
          "name": "ProposalId",
          "type": "uint256"
        },
        {
          "indexed": true,
          "internalType": "address",
          "name": "Validator",
          "type": "address"
        },
        {
          "indexed": true,
          "internalType": "uint256",
          "name": "time",
          "type": "uint256"
        }
      ],
      "name": "Voted",
      "type": "event"
    },
    {
      "inputs": [],
      "name": "DEFAULT_ADMIN_ROLE",
      "outputs": [
        {
          "internalType": "bytes32",
          "name": "",
          "type": "bytes32"
        }
      ],
      "stateMutability": "view",
      "type": "function"
    },
    {
      "inputs": [],
      "name": "extendedVoteTime",
      "outputs": [
        {
          "internalType": "uint256",
          "name": "",
          "type": "uint256"
        }
      ],
      "stateMutability": "view",
      "type": "function"
    },
    {
      "inputs": [],
      "name": "fee",
      "outputs": [
        {
          "internalType": "uint256",
          "name": "",
          "type": "uint256"
        }
      ],
      "stateMutability": "view",
      "type": "function"
    },
    {
      "inputs": [
        {
          "internalType": "bytes32",
          "name": "role",
          "type": "bytes32"
        }
      ],
      "name": "getRoleAdmin",
      "outputs": [
        {
          "internalType": "bytes32",
          "name": "",
          "type": "bytes32"
        }
      ],
      "stateMutability": "view",
      "type": "function"
    },
    {
      "inputs": [],
      "name": "governanceToken",
      "outputs": [
        {
          "internalType": "address",
          "name": "",
          "type": "address"
        }
      ],
      "stateMutability": "view",
      "type": "function"
    },
    {
      "inputs": [
        {
          "internalType": "bytes32",
          "name": "role",
          "type": "bytes32"
        },
        {
          "internalType": "address",
          "name": "account",
          "type": "address"
        }
      ],
      "name": "grantRole",
      "outputs": [],
      "stateMutability": "nonpayable",
      "type": "function"
    },
    {
      "inputs": [
        {
          "internalType": "bytes32",
          "name": "role",
          "type": "bytes32"
        },
        {
          "internalType": "address",
          "name": "account",
          "type": "address"
        }
      ],
      "name": "hasRole",
      "outputs": [
        {
          "internalType": "bool",
          "name": "",
          "type": "bool"
        }
      ],
      "stateMutability": "view",
      "type": "function"
    },
    {
      "inputs": [],
      "name": "initialVoteTime",
      "outputs": [
        {
          "internalType": "uint256",
          "name": "",
          "type": "uint256"
        }
      ],
      "stateMutability": "view",
      "type": "function"
    },
    {
      "inputs": [
        {
          "internalType": "address",
          "name": "",
          "type": "address"
        }
      ],
      "name": "isValidator",
      "outputs": [
        {
          "internalType": "bool",
          "name": "",
          "type": "bool"
        }
      ],
      "stateMutability": "view",
      "type": "function"
    },
    {
      "inputs": [],
      "name": "keyHash",
      "outputs": [
        {
          "internalType": "bytes32",
          "name": "",
          "type": "bytes32"
        }
      ],
      "stateMutability": "view",
      "type": "function"
    },
    {
      "inputs": [],
      "name": "owner",
      "outputs": [
        {
          "internalType": "address",
          "name": "",
          "type": "address"
        }
      ],
      "stateMutability": "view",
      "type": "function"
    },
    {
      "inputs": [
        {
          "internalType": "bytes32",
          "name": "requestId",
          "type": "bytes32"
        },
        {
          "internalType": "uint256",
          "name": "randomness",
          "type": "uint256"
        }
      ],
      "name": "rawFulfillRandomness",
      "outputs": [],
      "stateMutability": "nonpayable",
      "type": "function"
    },
    {
      "inputs": [],
      "name": "renounceOwnership",
      "outputs": [],
      "stateMutability": "nonpayable",
      "type": "function"
    },
    {
      "inputs": [
        {
          "internalType": "bytes32",
          "name": "role",
          "type": "bytes32"
        },
        {
          "internalType": "address",
          "name": "account",
          "type": "address"
        }
      ],
      "name": "renounceRole",
      "outputs": [],
      "stateMutability": "nonpayable",
      "type": "function"
    },
    {
      "inputs": [
        {
          "internalType": "bytes32",
          "name": "role",
          "type": "bytes32"
        },
        {
          "internalType": "address",
          "name": "account",
          "type": "address"
        }
      ],
      "name": "revokeRole",
      "outputs": [],
      "stateMutability": "nonpayable",
      "type": "function"
    },
    {
      "inputs": [],
      "name": "stakeAmount",
      "outputs": [
        {
          "internalType": "uint256",
          "name": "",
          "type": "uint256"
        }
      ],
      "stateMutability": "view",
      "type": "function"
    },
    {
      "inputs": [
        {
          "internalType": "bytes4",
          "name": "interfaceId",
          "type": "bytes4"
        }
      ],
      "name": "supportsInterface",
      "outputs": [
        {
          "internalType": "bool",
          "name": "",
          "type": "bool"
        }
      ],
      "stateMutability": "view",
      "type": "function"
    },
    {
      "inputs": [
        {
          "internalType": "address",
          "name": "newOwner",
          "type": "address"
        }
      ],
      "name": "transferOwnership",
      "outputs": [],
      "stateMutability": "nonpayable",
      "type": "function"
    },
    {
      "inputs": [],
      "name": "votePercentage",
      "outputs": [
        {
          "internalType": "uint256",
          "name": "",
          "type": "uint256"
        }
      ],
      "stateMutability": "view",
      "type": "function"
    },
    {
      "inputs": [],
      "name": "voteWinReward",
      "outputs": [
        {
          "internalType": "uint256",
          "name": "",
          "type": "uint256"
        }
      ],
      "stateMutability": "view",
      "type": "function"
    },
    {
      "inputs": [],
      "name": "joinValidatorPool",
      "outputs": [
        {
          "internalType": "bool",
          "name": "success",
          "type": "bool"
        }
      ],
      "stateMutability": "nonpayable",
      "type": "function"
    },
    {
      "inputs": [],
      "name": "leaveValidatorPool",
      "outputs": [],
      "stateMutability": "nonpayable",
      "type": "function"
    },
    {
      "inputs": [
        {
          "internalType": "uint256",
          "name": "_proposalId",
          "type": "uint256"
        },
        {
          "internalType": "string",
          "name": "_description",
          "type": "string"
        }
      ],
      "name": "addProposal",
      "outputs": [],
      "stateMutability": "nonpayable",
      "type": "function"
    },
    {
      "inputs": [
        {
          "internalType": "bytes32",
          "name": "_validatorsKey",
          "type": "bytes32"
        },
        {
          "internalType": "uint256",
          "name": "_proposalId",
          "type": "uint256"
        },
        {
          "internalType": "enum Validators.Side",
          "name": "side",
          "type": "uint8"
        }
      ],
      "name": "validatorsVote",
      "outputs": [],
      "stateMutability": "nonpayable",
      "type": "function"
    },
    {
      "inputs": [
        {
          "internalType": "uint256",
          "name": "_proposalId",
          "type": "uint256"
        },
        {
          "internalType": "uint256",
          "name": "state",
          "type": "uint256"
        }
      ],
      "name": "changeVoteState",
      "outputs": [],
      "stateMutability": "nonpayable",
      "type": "function"
    },
    {
      "inputs": [
        {
          "internalType": "uint256",
          "name": "_proposalId",
          "type": "uint256"
        }
      ],
      "name": "_claimVoteReward",
      "outputs": [],
      "stateMutability": "nonpayable",
      "type": "function"
    }
  ],
  "bytecode": "0x60c06040523480156200001157600080fd5b5060405162002224380380620022248339810160408190526200003491620001a3565b6001600160a01b0387811660a052881660805262000052336200009c565b600684905560058590556008839055600380546001600160a01b0319166001600160a01b03841617905560098190556200008e600087620000ee565b505050505050505062000227565b600280546001600160a01b038381166001600160a01b0319831681179093556040519116919082907f8be0079c531659141344cd1fd0a4f28419497f9722a3daafe3b4186f6b6457e090600090a35050565b620000fa8282620000fe565b5050565b60008281526001602090815260408083206001600160a01b038516845290915290205460ff16620000fa5760008281526001602081815260408084206001600160a01b0386168086529252808420805460ff19169093179092559051339285917f2f8788117e7eff1d82e926ec794901d17c78024a50270940304540a733656f0d9190a45050565b80516001600160a01b03811681146200019e57600080fd5b919050565b600080600080600080600080610100898b031215620001c157600080fd5b620001cc8962000186565b9750620001dc60208a0162000186565b9650620001ec60408a0162000186565b9550606089015194506080890151935060a089015192506200021160c08a0162000186565b915060e089015190509295985092959890939650565b60805160a051611fd06200025460003960008181610cae0152611822015260006117f30152611fd06000f3fe608060405234801561001057600080fd5b506004361061013d5760003560e01c80626a5d9a1461014257806301ffc9a714610157578063051097ef1461017f57806312312c5714610192578063248a9ca3146101a95780632f2ff15d146101bc57806334b502c0146101cf57806336568abe146101d75780634a918f09146101ea5780634c30772b146101f257806360c7dc47146101fc57806361728f39146102055780636388c7d61461020e578063715018a6146102165780638da5cb5b1461021e57806391d148541461023357806394985ddd146102465780639948409a14610259578063a217fddf14610263578063aed502021461026b578063d547741f1461027e578063ddca3f4314610291578063ec7455f71461029a578063f2fde38b146102ad578063f96dae0a146102c0578063facd743b146102d3575b600080fd5b610155610150366004611b0b565b6102f6565b005b61016a610165366004611b24565b61057a565b60405190151581526020015b60405180910390f35b61015561018d366004611b4e565b6105b1565b61019b60095481565b604051908152602001610176565b61019b6101b7366004611b0b565b610750565b6101556101ca366004611be5565b610766565b61019b604b81565b6101556101e5366004611be5565b610787565b61015561080a565b61019b6202a30081565b61019b60085481565b61019b60055481565b61016a6109cf565b610155610c2e565b610226610c69565b6040516101769190611c11565b61016a610241366004611be5565b610c78565b610155610254366004611c25565b610ca3565b61019b6201518081565b61019b600081565b610155610279366004611c25565b610d25565b61015561028c366004611be5565b610e57565b61019b60065481565b6101556102a8366004611c47565b610e73565b6101556102bb366004611c84565b6112a9565b600354610226906001600160a01b031681565b61016a6102e1366004611c84565b600b6020526000908152604090205460ff1681565b600061030181611349565b600160008381526012602052604090205460ff16600481111561032657610326611c9f565b1461033057600080fd5b600082815260136020526040812090819060008581526011602052604090205460ff16600281111561036457610364611c9f565b141561044357815460095460009161037b91611ccb565b905060005b83548110156104405760035484546001600160a01b039091169063a9059cbb908690849081106103b2576103b2611ced565b6000918252602090912001546040516001600160e01b031960e084901b1681526103ea916001600160a01b0316908690600401611d03565b6020604051808303816000875af1158015610409573d6000803e3d6000fd5b505050506040513d601f19601f8201168201806040525081019061042d9190611d1c565b508061043881611d3e565b915050610380565b50505b600160008581526011602052604090205460ff16600281111561046857610468611c9f565b141561054757805460095460009161047f91611ccb565b905060005b82548110156105445760035483546001600160a01b039091169063a9059cbb908590849081106104b6576104b6611ced565b6000918252602090912001546040516001600160e01b031960e084901b1681526104ee916001600160a01b0316908690600401611d03565b6020604051808303816000875af115801561050d573d6000803e3d6000fd5b505050506040513d601f19601f820116820180604052508101906105319190611d1c565b508061053c81611d3e565b915050610484565b50505b604051429085907f464e8906ae8c5c7623e1e2316b708667849a3c89f66253f08d57142b3378fe8690600090a350505050565b60006001600160e01b03198216637965db0b60e01b14806105ab57506301ffc9a760e01b6001600160e01b03198316145b92915050565b60006105bc81611349565b6000848152600f602052604090205460ff16156105d857600080fd5b6000600e6000868152602001908152602001600020604051806060016040529081600082015481526020016001820154815260200160028201805461061c90611d59565b80601f016020809104026020016040519081016040528092919081815260200182805461064890611d59565b80156106955780601f1061066a57610100808354040283529160200191610695565b820191906000526020600020905b81548152906001019060200180831161067857829003601f168201915b5050505050815250509050604051806060016040528086815260200142815260200185858080601f0160208091040260200160405190810160405280939291908181526020018383808284376000920182905250939094525050878152600f60209081526040808320805460ff19908116600117909155601290925280832080549092169091555192935042928892507fee916756a562ef808a2f3cc8fe10cbb01458b53d4823434ae1be5184ff47e6959190a35050505050565b6000908152600160208190526040909120015490565b61076f82610750565b61077881611349565b6107828383611353565b505050565b6001600160a01b03811633146107fc5760405162461bcd60e51b815260206004820152602f60248201527f416363657373436f6e74726f6c3a2063616e206f6e6c792072656e6f756e636560448201526e103937b632b9903337b91039b2b63360891b60648201526084015b60405180910390fd5b61080682826113be565b5050565b610812611425565b336000908152600b602052604090205460ff16151560011461083357600080fd5b60005b60045481101561090557336001600160a01b03166004828154811061085d5761085d611ced565b6000918252602090912001546001600160a01b031614156108f3576004805461088890600190611d94565b8154811061089857610898611ced565b600091825260209091200154600480546001600160a01b0390921691839081106108c4576108c4611ced565b9060005260206000200160006101000a8154816001600160a01b0302191690836001600160a01b031602179055505b806108fd81611d3e565b915050610836565b50336000818152600b60209081526040808320805460ff19169055600a90915280822091909155600354600854915163a9059cbb60e01b81526001600160a01b039091169263a9059cbb9261095c92600401611d03565b6020604051808303816000875af115801561097b573d6000803e3d6000fd5b505050506040513d601f19601f8201168201806040525081019061099f9190611d1c565b50604051429033907f8271947fe3347a460cc3b967688953f8add3a506ecfc40ee6a998a82269565d890600090a3565b336000908152600b602052604081205460ff16156109ec57600080fd5b6008546003546040516370a0823160e01b81526001600160a01b03909116906370a0823190610a1f903390600401611c11565b602060405180830381865afa158015610a3c573d6000803e3d6000fd5b505050506040513d601f19601f82011682018060405250810190610a609190611dab565b11610aa85760405162461bcd60e51b81526020600482015260186024820152774e6f7420656e6f75676820746f6b656e2062616c616e636560401b60448201526064016107f3565b60035460085460405163095ea7b360e01b81526001600160a01b039092169163095ea7b391610adc91309190600401611d03565b6020604051808303816000875af1158015610afb573d6000803e3d6000fd5b505050506040513d601f19601f82011682018060405250810190610b1f9190611d1c565b506003546008546040516323b872dd60e01b815233600482015230602482015260448101919091526001600160a01b03909116906323b872dd906064016020604051808303816000875af1158015610b7b573d6000803e3d6000fd5b505050506040513d601f19601f82011682018060405250810190610b9f9190611d1c565b50610ba861147b565b6004805460018181019092557f8a35acfbc15ff81a39ae7d344fd709f28e8600b4aa8c65c6b64bfe7fe36bd19b0180546001600160a01b031916339081179091556000818152600b6020526040808220805460ff1916909417909355915142927f34d439447c7d29c98b78f8eff0f6cfa0e414030aa600733e84c0bc0a08a5cfda91a390565b33610c37610c69565b6001600160a01b031614610c5d5760405162461bcd60e51b81526004016107f390611dc4565b610c6760006114d3565b565b6002546001600160a01b031690565b60009182526001602090815260408084206001600160a01b0393909316845291905290205460ff1690565b336001600160a01b037f00000000000000000000000000000000000000000000000000000000000000001614610d1b5760405162461bcd60e51b815260206004820152601f60248201527f4f6e6c7920565246436f6f7264696e61746f722063616e2066756c66696c6c0060448201526064016107f3565b6108068282611525565b6000610d3081611349565b600360008481526012602052604090205460ff166004811115610d5557610d55611c9f565b14610d5f57600080fd5b81610d86576000838152601260205260408120805460ff19166001835b0217905550610e23565b8160011415610dae57600083815260126020526040902080546001919060ff19168280610d7c565b8160021415610dd757600083815260126020526040902080546002919060ff1916600183610d7c565b8160031415610e0057600083815260126020526040902080546003919060ff1916600183610d7c565b8160041415610e23576000838152601260205260409020805460ff191660041790555b4282847f4e783b715efde58d097be2fe2f2e2bc0bb1df07fd682aeab1d8b4dc063ffdd9a60405160405180910390a4505050565b610e6082610750565b610e6981611349565b61078283836113be565b610e7b611425565b600260008381526012602052604090205460ff166004811115610ea057610ea0611c9f565b1415610ef0576000828152600e6020526040902060010154610ec86202a30062015180611df9565b610ed29190611df9565b4210610ef05760405162461bcd60e51b81526004016107f390611e11565b33600090815260106020908152604080832085845290915290205460ff1615610f1857600080fd5b6000828152600f602052604090205460ff161515600114610f3857600080fd5b6000828152600e6020526040902060010154610f57906202a300611df9565b4210610f755760405162461bcd60e51b81526004016107f390611e11565b60008281526012602052604081205460ff166004811115610f9857610f98611c9f565b14610fd05760405162461bcd60e51b81526020600482015260086024820152672737ba1027b832b760c11b60448201526064016107f3565b336000908152600a6020526040902054831461101a5760405162461bcd60e51b815260206004820152600960248201526857726f6e67204b657960b81b60448201526064016107f3565b600081600281111561102e5761102e611c9f565b1415611091576000828152600d60209081526040808320838052909152812080549161105983611d3e565b909155505060008281526013602090815260408220805460018101825590835291200180546001600160a01b0319163317905561117d565b60018160028111156110a5576110a5611c9f565b1415611109576000828152600d602090815260408083206001845290915281208054916110d183611d3e565b909155505060008281526014602090815260408220805460018101825590835291200180546001600160a01b0319163317905561117d565b600281600281111561111d5761111d611c9f565b141561117d576000828152600d6020908152604080832060028452909152812080549161114983611d3e565b909155505060008281526015602090815260408220805460018101825590835291200180546001600160a01b031916331790555b6000828152600c6020526040812080549161119783611d3e565b9091555050336000818152601060209081526040808320868452909152808220805460ff191660011790555142929185917f1abe610cf2bf87e57dcc1181fcf5ac0934e843d8344ab9eed6e86c799f62585e9190a46004546000838152600c6020526040902054148061122857506000828152600e6020526040902060010154611225906202a30090611df9565b42115b1561124b576000828152601260205260409020805460ff19166003179055611298565b6000828152600e602052604090206001015461126d6202a30062015180611df9565b6112779190611df9565b421115611298576000828152601260205260409020805460ff191660031790555b6112a1826115f2565b505050505050565b336112b2610c69565b6001600160a01b0316146112d85760405162461bcd60e51b81526004016107f390611dc4565b6001600160a01b03811661133d5760405162461bcd60e51b815260206004820152602660248201527f4f776e61626c653a206e6577206f776e657220697320746865207a65726f206160448201526564647265737360d01b60648201526084016107f3565b611346816114d3565b50565b611346813361178b565b61135d8282610c78565b6108065760008281526001602081815260408084206001600160a01b0386168086529252808420805460ff19169093179092559051339285917f2f8788117e7eff1d82e926ec794901d17c78024a50270940304540a733656f0d9190a45050565b6113c88282610c78565b156108065760008281526001602090815260408083206001600160a01b0385168085529252808320805460ff1916905551339285917ff6391f5c32d9c69d2a47ea670b442974b53935d1edc7fd64eb21e047a839171b9190a45050565b336000908152600b602052604090205460ff161515600114610c675760405162461bcd60e51b815260206004820152600f60248201526e2737ba1020902b30b634b230ba37b960891b60448201526064016107f3565b3361148557600080fd5b60006114956005546006546117ef565b90507fe5f5b44d72d4143c278eb745c4acc0695c4a5bc616be5beecf46abe29661780e816040516114c891815260200190565b60405180910390a150565b600280546001600160a01b038381166001600160a01b0319831681179093556040519116919082907f8be0079c531659141344cd1fd0a4f28419497f9722a3daafe3b4186f6b6457e090600090a35050565b6000811161156f5760405162461bcd60e51b815260206004820152601760248201527614985b991bdb481b9d5b58995c881b9bdd08199bdd5b99604a1b60448201526064016107f3565b60408051602080820184905233606081901b6001600160601b0319168385015242605480850191909152845180850390910181526074909301845282519282019290922060078054600181019091557fa66cc928b5edb82af9bd49922954155ab7b0942694bea4ce44661d9a8736c68801949094556000918252600a9052205550565b60008080600360008581526012602052604090205460ff16600481111561161b5761161b611c9f565b1461162557600080fd5b6000848152600d6020908152604080832083805290915280822054600183528183205460028452918320546004549193909190816116656064604b611ccb565b61166f9190611e40565b60008a8152600c6020908152604080832054600e909252909120600101549192509061169f906202a30090611df9565b42101580156116ae5750818110155b15611763576116bd8486611df9565b8611156116e65760008a8152601160205260408120805460ff19166001835b0217905550611763565b6116f08487611df9565b85118061170557506117028587611df9565b84115b156117295760008a815260116020526040902080546001919060ff191682806116dc565b848614156117635760008a81526011602090815260408083208054600260ff19918216811790925560129093529220805490911690911790555b505050600096875260126020526040909620805460ff19166001179055909590949350915050565b6117958282610c78565b610806576117ad816001600160a01b03166014611969565b6117b8836020611969565b6040516020016117c9929190611e8f565b60408051601f198184030181529082905262461bcd60e51b82526107f391600401611f2a565b60007f00000000000000000000000000000000000000000000000000000000000000006001600160a01b0316634000aea07f00000000000000000000000000000000000000000000000000000000000000008486600060405160200161185f929190918252602082015260400190565b6040516020818303038152906040526040518463ffffffff1660e01b815260040161188c93929190611f3d565b6020604051808303816000875af11580156118ab573d6000803e3d6000fd5b505050506040513d601f19601f820116820180604052508101906118cf9190611d1c565b5060008381526020818152604080832054815180840188905280830185905230606082015260808082018390528351808303909101815260a090910190925281519183019190912086845292909152611929906001611df9565b6000858152602081815260409182902092909255805180830187905280820184905281518082038301815260609091019091528051910120949350505050565b60606000611978836002611e40565b611983906002611df9565b6001600160401b0381111561199a5761199a611f6d565b6040519080825280601f01601f1916602001820160405280156119c4576020820181803683370190505b509050600360fc1b816000815181106119df576119df611ced565b60200101906001600160f81b031916908160001a905350600f60fb1b81600181518110611a0e57611a0e611ced565b60200101906001600160f81b031916908160001a9053506000611a32846002611e40565b611a3d906001611df9565b90505b6001811115611ab5576f181899199a1a9b1b9c1cb0b131b232b360811b85600f1660108110611a7157611a71611ced565b1a60f81b828281518110611a8757611a87611ced565b60200101906001600160f81b031916908160001a90535060049490941c93611aae81611f83565b9050611a40565b508315611b045760405162461bcd60e51b815260206004820181905260248201527f537472696e67733a20686578206c656e67746820696e73756666696369656e7460448201526064016107f3565b9392505050565b600060208284031215611b1d57600080fd5b5035919050565b600060208284031215611b3657600080fd5b81356001600160e01b031981168114611b0457600080fd5b600080600060408486031215611b6357600080fd5b8335925060208401356001600160401b0380821115611b8157600080fd5b818601915086601f830112611b9557600080fd5b813581811115611ba457600080fd5b876020828501011115611bb657600080fd5b6020830194508093505050509250925092565b80356001600160a01b0381168114611be057600080fd5b919050565b60008060408385031215611bf857600080fd5b82359150611c0860208401611bc9565b90509250929050565b6001600160a01b0391909116815260200190565b60008060408385031215611c3857600080fd5b50508035926020909101359150565b600080600060608486031215611c5c57600080fd5b8335925060208401359150604084013560038110611c7957600080fd5b809150509250925092565b600060208284031215611c9657600080fd5b611b0482611bc9565b634e487b7160e01b600052602160045260246000fd5b634e487b7160e01b600052601160045260246000fd5b600082611ce857634e487b7160e01b600052601260045260246000fd5b500490565b634e487b7160e01b600052603260045260246000fd5b6001600160a01b03929092168252602082015260400190565b600060208284031215611d2e57600080fd5b81518015158114611b0457600080fd5b6000600019821415611d5257611d52611cb5565b5060010190565b600181811c90821680611d6d57607f821691505b60208210811415611d8e57634e487b7160e01b600052602260045260246000fd5b50919050565b600082821015611da657611da6611cb5565b500390565b600060208284031215611dbd57600080fd5b5051919050565b6020808252818101527f4f776e61626c653a2063616c6c6572206973206e6f7420746865206f776e6572604082015260600190565b60008219821115611e0c57611e0c611cb5565b500190565b602080825260159082015274159bdd1a5b99c814195c9a5bd908195b185c1cd959605a1b604082015260600190565b6000816000190483118215151615611e5a57611e5a611cb5565b500290565b60005b83811015611e7a578181015183820152602001611e62565b83811115611e89576000848401525b50505050565b76020b1b1b2b9b9a1b7b73a3937b61d1030b1b1b7bab73a1604d1b815260008351611ec1816017850160208801611e5f565b7001034b99036b4b9b9b4b733903937b6329607d1b6017918401918201528351611ef2816028840160208801611e5f565b01602801949350505050565b60008151808452611f16816020860160208601611e5f565b601f01601f19169290920160200192915050565b602081526000611b046020830184611efe565b60018060a01b0384168152826020820152606060408201526000611f646060830184611efe565b95945050505050565b634e487b7160e01b600052604160045260246000fd5b600081611f9257611f92611cb5565b50600019019056fea264697066735822122005d774dbaba609ebb5396eff07710027e2cceb5254be79bacb2e652e1387a76764736f6c634300080b0033",
  "immutableReferences": {
    "73": [
      {
        "length": 32,
        "start": 6131
      }
    ],
    "75": [
      {
        "length": 32,
        "start": 3246
      },
      {
        "length": 32,
        "start": 6178
      }
    ]
  },
  "source": "pragma solidity ^0.8.4;\r\npragma experimental ABIEncoderV2;\r\n\r\nimport \"@chainlink/contracts/src/v0.8/VRFConsumerBase.sol\";\r\nimport \"@openzeppelin/contracts/token/ERC20/IERC20.sol\";\r\nimport \"@openzeppelin/contracts/utils/Address.sol\";\r\nimport \"@openzeppelin/contracts/access/AccessControl.sol\";\r\nimport \"@openzeppelin/contracts/access/Ownable.sol\";\r\n\r\ncontract Validators is VRFConsumerBase, AccessControl, Ownable{\r\n    \r\n    using Address for address;\r\n\r\n    event RequestedRandomness(bytes32 requestId);\r\n    event JoinPool(address indexed Validator, uint indexed time);\r\n    event LeftPool(address indexed Validator, uint indexed time);\r\n    event NewProposalAdded(uint indexed ProposalId, uint indexed time);\r\n    event Voted(uint indexed ProposalId, address indexed Validator, uint indexed time);\r\n    event StateChanged(uint indexed proposalId, uint indexed side, uint indexed time);\r\n    event VoteRewardSent(uint indexed ProposalId, uint indexed time);\r\n\r\n    enum VoteState {\r\n        OPEN,\r\n        CLOSED,\r\n        EXTENDED,\r\n        GETTING_RESULT,\r\n        CANCLLED\r\n    }\r\n\r\n    enum Side {\r\n        FOR,\r\n        AGAINST,\r\n        ABSTAIN\r\n    }\r\n\r\n    enum VoteResult{\r\n        PASSED,\r\n        FAILED,\r\n        NO_CONSENSUS\r\n    }\r\n\r\n    struct ProposalVotes{\r\n        uint proposalId;\r\n        uint time;\r\n        string proposalDescription;\r\n    }\r\n    \r\n    address public governanceToken;\r\n    address[] validators;\r\n    bytes32 public keyHash;\r\n    uint public constant initialVoteTime =  2 days;\r\n    uint public constant extendedVoteTime = 1 days;\r\n    uint public fee;\r\n    uint public constant votePercentage = 75;\r\n    uint[] private _randomness;\r\n    uint public stakeAmount;\r\n    uint public voteWinReward;\r\n\r\n    mapping (address => bytes32) private validatorsKeyMap;\r\n    mapping (address => bool) public isValidator;\r\n    mapping (uint => uint) private proposalVoteCount;\r\n    mapping (uint => mapping (uint => uint)) private validatorVoteCount;\r\n    mapping (uint => ProposalVotes) proposals;\r\n    mapping (uint => bool) proposalsExist;\r\n    mapping (address => mapping (uint => bool)) hasVoted;\r\n    mapping (uint => VoteResult) voteResultMap;\r\n    mapping (uint => VoteState) voteStateMap;\r\n    mapping (uint => address[]) private forVoters;\r\n    mapping (uint => address[]) private againstVoters;\r\n    mapping (uint => address[]) private AbstainVoters;\r\n    mapping (address => uint) private validatorRewardBalance;\r\n\r\n    modifier onlyValidator(){\r\n        _onlyValidator();\r\n        _;\r\n    }\r\n    constructor (\r\n        address _link, \r\n        address _vrfCoordinator,\r\n        address _admin, \r\n        bytes32 _keyHash, \r\n        uint _fee, \r\n        uint _stakeAmount, \r\n        address _governanceToken,\r\n        uint _voteWinReward)\r\n     \r\n     VRFConsumerBase(_vrfCoordinator, _link) {\r\n        \r\n        fee = _fee;\r\n        keyHash = _keyHash;\r\n        stakeAmount = _stakeAmount;\r\n        governanceToken = _governanceToken;\r\n        voteWinReward = _voteWinReward;\r\n        \r\n        _setupRole(DEFAULT_ADMIN_ROLE, _admin);\r\n    }\r\n\r\n    // VALIDATORS //\r\n    \r\n    function joinValidatorPool() external returns(bool success){\r\n        require(isValidator[msg.sender] == false);\r\n        require(IERC20(governanceToken).balanceOf(msg.sender) > stakeAmount, \"Not enough token balance\");\r\n        \r\n        IERC20(governanceToken).approve(address(this), stakeAmount);\r\n        IERC20(governanceToken).transferFrom(msg.sender, address(this), stakeAmount);\r\n        \r\n        getRandom();\r\n        \r\n        validators.push(msg.sender);\r\n        isValidator[msg.sender] = true;\r\n\r\n        emit JoinPool(msg.sender, block.timestamp);\r\n        \r\n        return success;\r\n    }\r\n\r\n    function leaveValidatorPool() external onlyValidator(){\r\n        require(isValidator[msg.sender] == true);\r\n        \r\n        for (uint i = 0; i < validators.length; i++){\r\n            if(validators[i] == msg.sender){\r\n                validators[i] = validators[validators.length - 1];\r\n            }\r\n\r\n            validators.pop;\r\n        }\r\n        isValidator[msg.sender] = false;\r\n        \r\n        delete validatorsKeyMap[msg.sender];\r\n        \r\n        IERC20(governanceToken).transfer(msg.sender, stakeAmount);\r\n\r\n        emit LeftPool(msg.sender, block.timestamp);\r\n    }\r\n\r\n    function addProposal(uint _proposalId, string calldata _description) external onlyRole(DEFAULT_ADMIN_ROLE) {\r\n        require (proposalsExist[_proposalId] == false);\r\n        ProposalVotes memory newProposal = proposals[_proposalId];\r\n        newProposal = ProposalVotes(_proposalId, block.timestamp, _description);\r\n        proposalsExist[_proposalId] = true;\r\n        voteStateMap[_proposalId] = VoteState.OPEN;\r\n\r\n        emit NewProposalAdded(_proposalId, block.timestamp);\r\n    }\r\n\r\n    function validatorsVote(bytes32 _validatorsKey, uint _proposalId, Side side) external onlyValidator() {\r\n\r\n        if(voteStateMap[_proposalId] == VoteState.EXTENDED){\r\n            require(block.timestamp < extendedVoteTime + initialVoteTime + proposals[_proposalId].time, \"Voting Period elapsed\");\r\n        }\r\n\r\n        require(hasVoted[msg.sender][_proposalId] == false);\r\n        require(proposalsExist[_proposalId] == true);\r\n        require(block.timestamp < initialVoteTime + proposals[_proposalId].time, \"Voting Period elapsed\");\r\n        require(voteStateMap[_proposalId] == VoteState.OPEN, \"Not Open\");\r\n        require(validatorsKeyMap[msg.sender] == _validatorsKey, \"Wrong Key\");\r\n        \r\n        if(side == Side.FOR){\r\n            validatorVoteCount[_proposalId][0]++;\r\n            forVoters[_proposalId].push(msg.sender);\r\n        }\r\n        else if(side == Side.AGAINST){\r\n            validatorVoteCount[_proposalId][1]++;\r\n            againstVoters[_proposalId].push(msg.sender);\r\n        }\r\n        else if(side == Side.ABSTAIN){\r\n            validatorVoteCount[_proposalId][2]++;\r\n            AbstainVoters[_proposalId].push(msg.sender);\r\n        }\r\n\r\n        proposalVoteCount[_proposalId]++;\r\n        hasVoted[msg.sender][_proposalId] = true;\r\n\r\n        emit Voted(_proposalId, msg.sender, block.timestamp);\r\n\r\n        if(proposalVoteCount[_proposalId] == validators.length || block.timestamp > proposals[_proposalId].time + initialVoteTime){\r\n            voteStateMap[_proposalId] = VoteState.GETTING_RESULT;\r\n        }\r\n\r\n        else if (block.timestamp > extendedVoteTime + initialVoteTime + proposals[_proposalId].time){\r\n            voteStateMap[_proposalId] = VoteState.GETTING_RESULT;\r\n        }\r\n\r\n        _calculateResult(_proposalId);\r\n        \r\n    }\r\n\r\n    // ONLY ADMIN CAN CHANGE THE STATE OF THE VOTE IN WHEN CONCENSUS IS NOT REACHED //\r\n    function changeVoteState(uint _proposalId, uint state) external onlyRole(DEFAULT_ADMIN_ROLE){\r\n        require(voteStateMap[_proposalId] == VoteState.GETTING_RESULT);\r\n        if(state == 0){\r\n            voteStateMap[_proposalId] = VoteState.OPEN;\r\n        }\r\n\r\n        else if(state == 1){\r\n            voteStateMap[_proposalId] = VoteState.CLOSED;\r\n        }\r\n\r\n        else if(state == 2){\r\n            voteStateMap[_proposalId] = VoteState.EXTENDED;\r\n        }\r\n\r\n        else if(state == 3){\r\n            voteStateMap[_proposalId] = VoteState.GETTING_RESULT;\r\n        }\r\n\r\n        else if(state == 4){\r\n            voteStateMap[_proposalId] = VoteState.CANCLLED;\r\n        }\r\n\r\n        emit StateChanged(_proposalId, state, block.timestamp);\r\n        \r\n    }\r\n\r\n    function _claimVoteReward(uint _proposalId) external onlyRole(DEFAULT_ADMIN_ROLE) {\r\n        require(voteStateMap[_proposalId] == VoteState.CLOSED);\r\n        \r\n        address[] storage FOR_VOTERS = forVoters[_proposalId];\r\n        address[] storage AGAINST_VOTERS = forVoters[_proposalId];\r\n        \r\n        if(voteResultMap[_proposalId] == VoteResult.PASSED){\r\n\r\n           uint forReward= voteWinReward / FOR_VOTERS.length;\r\n\r\n            for (uint i = 0; i < FOR_VOTERS.length; i++){\r\n               IERC20(governanceToken).transfer(FOR_VOTERS[i], forReward);  \r\n            }\r\n        \r\n        }\r\n\r\n        if(voteResultMap[_proposalId] == VoteResult.FAILED){\r\n\r\n           uint againstReward= voteWinReward / AGAINST_VOTERS.length;\r\n\r\n            for (uint i = 0; i < AGAINST_VOTERS.length; i++){\r\n               IERC20(governanceToken).transfer(AGAINST_VOTERS[i], againstReward);  \r\n            }\r\n        \r\n        }\r\n\r\n        emit VoteRewardSent(_proposalId, block.timestamp);\r\n\r\n    }\r\n    // INTERNAL FUNCTIONS //\r\n\r\n    function _calculateResult(uint _proposalId) internal returns(uint, uint, uint){\r\n        require(voteStateMap[_proposalId] == VoteState.GETTING_RESULT);\r\n        uint FOR_RESULT = validatorVoteCount[_proposalId][0];\r\n        uint AGAINST_RESULT = validatorVoteCount[_proposalId][1];\r\n        uint ABSTAIN_RESULT = validatorVoteCount[_proposalId][2];\r\n        \r\n        uint allValidators = validators.length;\r\n        uint CurrentPercentVoters = votePercentage/100 * allValidators;\r\n        uint voteCount = proposalVoteCount[_proposalId];\r\n\r\n        if(block.timestamp >= proposals[_proposalId].time + initialVoteTime && voteCount >= CurrentPercentVoters){\r\n            \r\n            if (FOR_RESULT > AGAINST_RESULT + ABSTAIN_RESULT){\r\n                voteResultMap[_proposalId] = VoteResult.PASSED;\r\n            }\r\n            else if (AGAINST_RESULT > FOR_RESULT + ABSTAIN_RESULT || ABSTAIN_RESULT > FOR_RESULT + AGAINST_RESULT){\r\n                voteResultMap[_proposalId] = VoteResult.FAILED;\r\n            }\r\n            else if (FOR_RESULT == AGAINST_RESULT){\r\n               voteResultMap[_proposalId] = VoteResult.NO_CONSENSUS;\r\n               voteStateMap[_proposalId] = VoteState.EXTENDED;\r\n            }\r\n\r\n        }\r\n\r\n        voteStateMap[_proposalId] = VoteState.CLOSED;\r\n\r\n        return (FOR_RESULT, AGAINST_RESULT, ABSTAIN_RESULT);\r\n    }\r\n    \r\n    function _onlyValidator() internal view {\r\n       require(isValidator[msg.sender] == true, \"Not A Validator\");\r\n    }\r\n\r\n    // GETS A RAMDOM SALT FOR HASHING //\r\n\r\n    function getRandom() internal {\r\n        require(msg.sender != address(0));\r\n        bytes32 requestId = requestRandomness(keyHash, fee);\r\n        emit RequestedRandomness(requestId);\r\n    }\r\n\r\n    function fulfillRandomness(bytes32 requestId, uint256 randomness) internal override {\r\n        require(randomness > 0, \"Random number not found\");\r\n        bytes32 validatorKey = keccak256(abi.encodePacked(randomness, msg.sender, block.timestamp));\r\n        _randomness.push(randomness);\r\n\r\n        validatorsKeyMap[msg.sender] = validatorKey;\r\n    }\r\n}",
  "sourcePath": "C:\\Users\\USER\\Desktop\\Picardy_Protocol\\contracts\\Validators\\Validators.sol",
  "compiler": {
    "name": "solc",
    "version": "0.8.11+commit.d7f03943.Emscripten.clang"
  },
  "schemaVersion": "3.4.6",
  "updatedAt": "2022-05-14T16:27:46.735Z",
  "devdoc": {
    "kind": "dev",
    "methods": {
      "getRoleAdmin(bytes32)": {
        "details": "Returns the admin role that controls `role`. See {grantRole} and {revokeRole}. To change a role's admin, use {_setRoleAdmin}."
      },
      "grantRole(bytes32,address)": {
        "details": "Grants `role` to `account`. If `account` had not been already granted `role`, emits a {RoleGranted} event. Requirements: - the caller must have ``role``'s admin role."
      },
      "hasRole(bytes32,address)": {
        "details": "Returns `true` if `account` has been granted `role`."
      },
      "owner()": {
        "details": "Returns the address of the current owner."
      },
      "renounceOwnership()": {
        "details": "Leaves the contract without owner. It will not be possible to call `onlyOwner` functions anymore. Can only be called by the current owner. NOTE: Renouncing ownership will leave the contract without an owner, thereby removing any functionality that is only available to the owner."
      },
      "renounceRole(bytes32,address)": {
        "details": "Revokes `role` from the calling account. Roles are often managed via {grantRole} and {revokeRole}: this function's purpose is to provide a mechanism for accounts to lose their privileges if they are compromised (such as when a trusted device is misplaced). If the calling account had been revoked `role`, emits a {RoleRevoked} event. Requirements: - the caller must be `account`."
      },
      "revokeRole(bytes32,address)": {
        "details": "Revokes `role` from `account`. If `account` had been granted `role`, emits a {RoleRevoked} event. Requirements: - the caller must have ``role``'s admin role."
      },
      "supportsInterface(bytes4)": {
        "details": "See {IERC165-supportsInterface}."
      },
      "transferOwnership(address)": {
        "details": "Transfers ownership of the contract to a new account (`newOwner`). Can only be called by the current owner."
      }
    },
    "version": 1
  },
  "userdoc": {
    "kind": "user",
    "methods": {},
    "version": 1
  }
}