{
  "contractName": "VRFCoordinatorMock",
  "abi": [
    {
      "inputs": [
        {
          "internalType": "address",
          "name": "linkAddress",
          "type": "address"
        }
      ],
      "stateMutability": "nonpayable",
      "type": "constructor"
    },
    {
      "anonymous": false,
      "inputs": [
        {
          "indexed": true,
          "internalType": "address",
          "name": "sender",
          "type": "address"
        },
        {
          "indexed": true,
          "internalType": "bytes32",
          "name": "keyHash",
          "type": "bytes32"
        },
        {
          "indexed": true,
          "internalType": "uint256",
          "name": "seed",
          "type": "uint256"
        }
      ],
      "name": "RandomnessRequest",
      "type": "event"
    },
    {
      "inputs": [],
      "name": "LINK",
      "outputs": [
        {
          "internalType": "contract LinkTokenInterface",
          "name": "",
          "type": "address"
        }
      ],
      "stateMutability": "view",
      "type": "function"
    },
    {
      "inputs": [
        {
          "internalType": "address",
          "name": "sender",
          "type": "address"
        },
        {
          "internalType": "uint256",
          "name": "fee",
          "type": "uint256"
        },
        {
          "internalType": "bytes",
          "name": "_data",
          "type": "bytes"
        }
      ],
      "name": "onTokenTransfer",
      "outputs": [],
      "stateMutability": "nonpayable",
      "type": "function"
    },
    {
      "inputs": [
        {
          "internalType": "bytes32",
          "name": "requestId",
          "type": "bytes32"
        },
        {
          "internalType": "uint256",
          "name": "randomness",
          "type": "uint256"
        },
        {
          "internalType": "address",
          "name": "consumerContract",
          "type": "address"
        }
      ],
      "name": "callBackWithRandomness",
      "outputs": [],
      "stateMutability": "nonpayable",
      "type": "function"
    }
  ],
  "bytecode": "0x608060405234801561001057600080fd5b506040516104a13803806104a183398101604081905261002f91610054565b600080546001600160a01b0319166001600160a01b0392909216919091179055610084565b60006020828403121561006657600080fd5b81516001600160a01b038116811461007d57600080fd5b9392505050565b61040e806100936000396000f3fe608060405234801561001057600080fd5b50600436106100415760003560e01c80631b6b6d2314610046578063a4c0ed3614610075578063cf55fe971461008a575b600080fd5b600054610059906001600160a01b031681565b6040516001600160a01b03909116815260200160405180910390f35b61008861008336600461027a565b61009d565b005b610088610098366004610344565b61014c565b6000546001600160a01b031633146100f25760405162461bcd60e51b815260206004820152601360248201527226bab9ba103ab9b2902624a725903a37b5b2b760691b60448201526064015b60405180910390fd5b600080828060200190518101906101099190610379565b915091508082866001600160a01b03167f7a9a0a6960d95b32cded93c30e63e7c2eb9e877230813c172110ea54dc1c915c60405160405180910390a45050505050565b604080516024810185905260448082018590528251808303909101815260649091019091526020810180516001600160e01b03166394985ddd60e01b179052600090620324b0805a10156101e05760405162461bcd60e51b815260206004820152601b60248201527a3737ba1032b737bab3b41033b0b9903337b91031b7b739bab6b2b960291b60448201526064016100e9565b6000846001600160a01b0316836040516101fa919061039d565b6000604051808303816000865af19150503d8060008114610237576040519150601f19603f3d011682016040523d82523d6000602084013e61023c565b606091505b50505050505050505050565b80356001600160a01b038116811461025f57600080fd5b919050565b634e487b7160e01b600052604160045260246000fd5b60008060006060848603121561028f57600080fd5b61029884610248565b92506020840135915060408401356001600160401b03808211156102bb57600080fd5b818601915086601f8301126102cf57600080fd5b8135818111156102e1576102e1610264565b604051601f8201601f19908116603f0116810190838211818310171561030957610309610264565b8160405282815289602084870101111561032257600080fd5b8260208601602083013760006020848301015280955050505050509250925092565b60008060006060848603121561035957600080fd5b833592506020840135915061037060408501610248565b90509250925092565b6000806040838503121561038c57600080fd5b505080516020909101519092909150565b6000825160005b818110156103be57602081860181015185830152016103a4565b818111156103cd576000828501525b50919091019291505056fea2646970667358221220ad180fdf8fe0d3eb5a4e0c8b15c05bd9a5e1b05f4b627199455faea284a1d19064736f6c634300080b0033",
  "immutableReferences": {},
  "source": "// SPDX-License-Identifier: MIT\npragma solidity ^0.8.0;\n\nimport \"../interfaces/LinkTokenInterface.sol\";\nimport \"../VRFConsumerBase.sol\";\n\ncontract VRFCoordinatorMock {\n  LinkTokenInterface public LINK;\n\n  event RandomnessRequest(address indexed sender, bytes32 indexed keyHash, uint256 indexed seed);\n\n  constructor(address linkAddress) public {\n    LINK = LinkTokenInterface(linkAddress);\n  }\n\n  function onTokenTransfer(\n    address sender,\n    uint256 fee,\n    bytes memory _data\n  ) public onlyLINK {\n    (bytes32 keyHash, uint256 seed) = abi.decode(_data, (bytes32, uint256));\n    emit RandomnessRequest(sender, keyHash, seed);\n  }\n\n  function callBackWithRandomness(\n    bytes32 requestId,\n    uint256 randomness,\n    address consumerContract\n  ) public {\n    VRFConsumerBase v;\n    bytes memory resp = abi.encodeWithSelector(v.rawFulfillRandomness.selector, requestId, randomness);\n    uint256 b = 206000;\n    require(gasleft() >= b, \"not enough gas for consumer\");\n    (bool success, ) = consumerContract.call(resp);\n  }\n\n  modifier onlyLINK() {\n    require(msg.sender == address(LINK), \"Must use LINK token\");\n    _;\n  }\n}\n",
  "sourcePath": "@chainlink\\contracts\\src\\v0.8\\mocks\\VRFCoordinatorMock.sol",
  "compiler": {
    "name": "solc",
    "version": "0.8.11+commit.d7f03943.Emscripten.clang"
  },
  "schemaVersion": "3.4.6",
  "updatedAt": "2022-05-14T13:10:04.781Z",
  "devdoc": {
    "kind": "dev",
    "methods": {},
    "version": 1
  },
  "userdoc": {
    "kind": "user",
    "methods": {},
    "version": 1
  }
}